:100000000C94790C0C94AA0C0C94AA0C0C948C30C3
:100010000C9476300C94AA0C0C9460300C944A30FA
:100020000C94AA0C0C94AA0C0C94AA0C0C94AA0C78
:100030000C94AA0C0C9425310C94AA0C0C949532B7
:100040000C94AA0C0C9443790C94AA0C0C94AA0C52
:100050000C94AA0C0C94AA0C0C94AA0C0C94AA0C48
:100060000C94AA0C0C94AA0C0C94AA0C0C94AA0C38
:100070000C94AA0C0C94AA0C0C940B790C94A2303E
:100080000C94AA0C0C94AA0C0C94AA0C0C94AA0C18
:100090000C94AA0C0C94AA0C0C94AA0C0C94AA0C08
:1000A0000C94AA0C0C94AA0C0C94AA0C0C94AA0CF8
:1000B0000C94AA0C0C94AA0C0C94AA0C0C94AA0CE8
:1000C0000C94AA0C0C94AA0C0C94AA0C0C94AA0CD8
:1000D0000C94AA0C0C94AA0C0C94AA0C0C94AA0CC8
:1000E0000C94AA0CE31CFA1CFD1C001D031D081D2A
:1000F0000D1D151D181D1C1D231D251D291D2D1D24
:10010000311D361D3B1D3F1D451D4D1D611D631DD0
:10011000671D6D1D7F1D921DA31DAE1DC01DD21D2F
:10012000D81DF01DF51D01020304010302040402A1
:1001300003010403020142616420454570726F6D42
:10014000204461746100466F726D6174746167650B
:1001500020454550524F4D004D45535341474500B2
:1001600053505300804000000000000000000000D9
:10017000000000000000000000000000000000007F
:10018000000000000000000000000000000000006F
:10019000000000000000000000000000000000005F
:1001A000000000000000000000000000000000004F
:1001B000000000000000000000000000000000003F
:1001C000000000000000000000000000000000002F
:1001D000000000000000000000000000000000001F
:1001E000000000000000FCFCFCFCFCFCFCFCFCFC37
:1001F000FCFCFCFCFCFCFCFCFCFCFCFCFCFCFCFC3F
:10020000FCFCFCFCFCFCFCFCFCFCFCFCFCFCFCFC2E
:10021000FCFCFCFCFCFCFCFCFCFCFCFCFCFCFCFC1E
:10022000FCFCFCFCFCFCFCFCFCFCFCFCFCFCFCFC0E
:10023000FCFCFCFCFCFCFCFCFCFCFCFCFCFCFCFCFE
:10024000FCFCFCFCFCFCFCFCFCFCFCFCFCFCFCFCEE
:10025000FCFCFCFCFCFCFCFCFCFCFCFCFCFCFCFCDE
:10026000FCFCFCFCFCFCFFFFFFFFFFFFFFFFFF7F30
:100270007F3F3F3F3F3F3F7F7FFFFFFFFFFFFFFF8E
:10028000FF3F3F3F3F3FFF7F7F3F3F3F3F7FFFFFBE
:10029000FFFFFFFFFFFFFF7F7F3F3F3F3F3F3F7F6E
:1002A0007FFFFFFFFFFFFFFFFFFF3F3F3F3F3FFF9E
:1002B0007F3F3F3F3F3F7FFFFFFFFF7F0F07030170
:1002C00081E0F0F0F0E0000101071FFFFFFFFFFFFA
:1002D000BF3F3F3F3F7FFFFFFFFFFF7F3F3F3F3F6E
:1002E0003FBFFFFFFFFFFFFFFFFF3F07030100C00E
:1002F000F0F8FCFCFCFCF80000000103FFFFFF3FEE
:100300000100000080E0F8FCFCFCF80000000001A7
:10031000FFFF3F070301000010181C1C1C1C1800E5
:1003200000000103FFFFFFFF1F00000000C0F8FCFA
:10033000FCFC1000000000C0FFFFFFE08000000098
:100340000F1F1F1F0F0300000000E0FFFFFFFFFF54
:10035000FFFEF8E000000107070180E0F0F8FCFE76
:10036000FFFFFFFFFFFFFFFFFFFFE0C08000000F68
:100370001F1F1F1F0F070180C0E0F0FEFFFF0700D7
:10038000000000C00F1F1F1F0F07010080E0F0FEDC
:10039000FFFFE0C08000000E0E1E1E1E1E1E1E1E51
:1003A0000ECEFEFEFFFF7F0300000080FCFFFFFF7C
:1003B0003F0300000080FCFFFF1F0F0F1F1F1E1ECA
:1003C0001E0E0E0781C0E0F0FCFFFFFFFF7F3F1F06
:1003D0000F030180E0F0F8E0800001071F7FFFFFBE
:1003E000FFFFFFFFFFFFFFFFFFFFFFFFFFFFFFFE1E
:1003F000FEFEFEFEFEFFFFFFFFFFFFFF1F000000EF
:1004000000C0FEFFFFFEFEFEFEFEFFFFFFFFFFFF40
:10041000FFFFFFFFFFFFFFFEFEFEFEFEFEFEFEFFF4
:10042000FFFFFFFFFFFFFEFEFEFEFEFFFFFFFFFFE1
:10043000FEFEFEFEFEFFFFFFFFFFFFFEFEFEFEFED6
:10044000FEFEFFFFFFFFFFFFFFFFFFFFFEFEFEFEC2
:10045000FEFEFFFFFFFFFFFFFFFEFEFEFEFEFFFFB3
:10046000FFFFFFFFFFFF1F1F1F1F1F1F1F1F1F1F5C
:100470001F1F1F1F1F1F1F1F1F1F1F1F1F1F1F1F8C
:100480001F1F1F1F1F1F1F1F1F1F1F1F1F1F1F1F7C
:100490001F1F1F1F1F1F1F1F1F1F1F1F1F1F1F1F6C
:1004A0001F1F1F1F1F1F1F1F1F1F1F1F1F1F1F1F5C
:1004B0001F1F1F1F1F1F1F1F1F1F1F1F1F1F1F1F4C
:1004C0001F1F1F1F1F1F1F1F1F1F1F1F1F1F1F1F3C
:1004D0001F1F1F1F1F1F1F1F1F1F1F1F1F1F1F1F2C
:1004E0001F1F1F1F1F1F0000000000000000000052
:1004F00000000000000000000000000000000000FC
:1005000000000000000000000000000000000000EB
:1005100000000000000000000000000000000000DB
:1005200000000000000000000000000000000000CB
:1005300000000000000000000000000000000000BB
:1005400000000000000000000000000000000000AB
:10055000000000000000000000000000000000009B
:1005600000000000000053504500454550524F4DDB
:10057000206C6F77206D656D0047617A2070617324
:100580002061207A65726F005265696E69746961D5
:100590006C6973657A206C6500537769746368656C
:1005A0007320656E636C656E636865730052656980
:1005B0006E697469616C6973657A206C657300415A
:1005C0006C61726D657320446573616374697665EF
:1005D00065730053455455500000090202000000A5
:1005E00000000602014368726F6E6F00452E4C6971
:1005F0006D6974657300452E5472696D7300547291
:10060000696D20496E6300542D5472616365005416
:100610002D5472696D0042697020437472005072EB
:100620006F746F00750050504D206672616D6500EB
:100630006D730045434F4C414745000002020202E2
:10064000004573636C617665006D6F6465202020E2
:100650002520737263004D756C7469706C696575E3
:10066000720043616C004441544520455420484584
:10067000555245000002434F5552424553004356E0
:100680000063005056004D4F44454C450050504DBE
:1006900000434800544D5200444542554700746D94
:1006A00072314C6174206D617820202020757300B8
:1006B000746D72314C6174206D696E20202020753C
:1006C0007300746D7231204A697474657220202041
:1006D00020757300746D61696E206D617820202033
:1006E0002020206D73004672656520537461636B32
:1006F000206D696E2020202062005B4D454E555DC7
:10070000706F75722072657365740053454C4D4F60
:100710004445006C69627265005355505052494D12
:100720004552204D4F44454C4500436F7069652E3E
:100730002E2E004465706C6163656D656E742E2E9F
:100740002E004368617267656D656E742E2E2E00F3
:100750002F4739584C4F47532F4D30305F30303092
:100760002E54585400436865636B202F4739584C0A
:100770004F475320666F6C646572004441544120BA
:1007800043415244204E4F542050524553454E54FD
:1007900000444154412043415244204552524F525B
:1007A000004F46464F4E202D2D2D494E563443487E
:1007B00020364348203843482031304348313243C3
:1007C0004831344348313643485175696574204E89
:1007D0006F4B6579207853686F7274436F757274CC
:1007E000204E6F726D20204C6F6E672020784C6F0A
:1007F0006E672053494E474F534D5046494C544223
:100800006173204F464620486175746F6666202BE1
:100810003D203A3D6368316368326368336368340E
:10082000457870202020457846696E2046696E2004
:1008300020204D6F79656E2047726F7320205245DE
:10084000544131323350504D2020505858202044CC
:10085000534D322050504D3136504F534E45472D59
:100860002D2D783E30783C307C787C663E30663C7E
:10087000307C667C45444954205052534554412EA7
:1008800047415A526174696F204578706F2020503B
:100890006861736520496E746572204D6F646520D0
:1008A00020436F75726265202020202020416A6FEE
:1008B00075746572204D756C7469706C7952656DD4
:1008C000706C6163652B3D2A3D3A3D4F4E202020E0
:1008D000204F46462020204F66667365742D2D2DCF
:1008E0002D202020763E6F66732020763C6F667345
:1008F00020207C767C3E6F66737C767C3C6F6673D2
:10090000455420202020204F552020202020584FC3
:10091000552020202076313D3D7632207631213D14
:1009200076322076313E7632202076313C76322087
:100930002076313E3D76322076313C3D7632205372
:1009400065637572697465200020202045636F6CB3
:100950006167652000202020205472696D20696E37
:100960007374616E74205472696D73324F6666736E
:100970006574734A6F75657220736F6E2020202036
:10098000534443415244204C6F6773202057617297
:100990006E31205761726E32204368656570205257
:1009A000696E672020536369466920526F626F74D5
:1009B0002043686972702054616461202043726929
:1009C000636B74536972656E20416C6D436C6B523E
:1009D00061746174615469636B2020486170746351
:1009E000314861707463324861707463332D2D2D0A
:1009F0002020203132302020203132305820203148
:100A00003430202020393020202020204D656E7584
:100A100020457869742020426173204861757444D0
:100A2000726F6974476175636847415A444952500F
:100A3000524649443049443149443241494C474582
:100A40004154524E535731535732535733535734FF
:100A500053573553573653573753573853573953DE
:100A6000574153574253574344495220505246200E
:100A700047415A2041494C205031202050322020FB
:100A8000503320204D41582046554C4C435943315A
:100A900043594332435943334F4646414253475AE1
:100AA00073475A25475A745245315245324441548E
:100AB000453A4845555245005B4D454E555D202011
:100AC00020205B455849545D006427AC0C457622D4
:100AD0007540304530F64EDE13285939580102046E
:100AE000081020408044522F4558504F004D49581F
:100AF000455552002F3134002F3332004744AA119C
:100B0000561008762A785B77EA344465706173730F
:100B1000656D656E7420454550524F4D0044522F0F
:100B20004558504F0043414C4942524154494F4E61
:100B3000005B4D454E555D504F5552204445425542
:100B40005400202020534554204E455554524520F2
:100B5000202000205B4D454E555D5175616E64202F
:100B6000505245540020424F55474552204D414E6A
:100B7000434845532F504F54532000434F55524242
:100B800045004D4F4445004D6178206578706F20D9
:100B900061747465696E7421004D6178206D6978A7
:100BA000616765732061747465696E7421004D45D9
:100BB0004E5553204F564552464C4F5700414C45D9
:100BC00052544500546F7563686520706F757220CC
:100BD000636F6E74696E75657200417070757965CA
:100BE0007A2073757220746F7563686500434F4E89
:100BF00046494720524144494F0042697065757229
:100C000000537065616B65722050697463680043BE
:100C10006F6E74726173746500416C61726D6520F2
:100C2000426174746572696500416C61726D652022
:100C3000696E61637469766974650046696C747283
:100C4000652041444300496E76657273696F6E207A
:100C500047617A0042697020742E6D696E75746503
:100C60007300426970202061207265626F75727333
:100C700000466C617368207175616E6420626970F2
:100C800000496E7465722065636C616972616765A5
:100C90000045636C6169722E206F66662061707218
:100CA000657300456372616E2064276163637565D7
:100CB000696C00416C657274652047617A00416C13
:100CC0006572746520496E74657200416C6572745A
:100CD00065204D656D6F69726500416C6572746564
:100CE00020416C61726D65005041532044452044A1
:100CF0004F4E4E45455320416C61726D65004F72F9
:100D000064726520566F696573205278004D6F6478
:100D10006500494E5345524552204D49584147457B
:100D20002000454449544552204D495841474520EB
:100D300000536F7572636500526174696F004F668E
:100D400066736574005472696D00436F75726265F5
:100D500000502E566F6C00416C65727465004F46F2
:100D600046004D756C747078005265746172642031
:100D70004261730052657461726420486175740049
:100D800052616C656E7469722048617574005261BD
:100D90006C656E74697220426173005357004C4950
:100DA0004D495445530000030303030303030303A6
:100DB00003030303030303434F5049455220545296
:100DC000494D205B4D454E555D00496E746572007E
:100DD0004E6F6D005354415400544D3100544D3208
:100DE0000047415A0054482500544F5400494E547E
:100DF00045525320464F4E4354494F4E5300000234
:100E0000494E544552532050455253000002504819
:100E100041534520444520564F4C00060003547270
:100E2000696D73004661646520496E0046616465C2
:100E3000204F757400500800000000000000006F93
:100E4000000007000700147F147F14242A7F2A1251
:100E50002313086462364955225000050300000040
:100E60001C2241000041221C0014083E08140808FE
:100E70003E080800503000000808080808006060BC
:100E800000002010080402003E41413E0000427F65
:100E90004000625149460041494936001814127F0A
:100EA0000027454539003E494932000179050300D4
:100EB00036494936000649291E0000363600000032
:100EC000563600000814224114141414144122143C
:100ED0000800020151090606090906007E090909F0
:100EE0007E7F494949363E414141227F4141221C92
:100EF0007F494949417F090909013E4149497A7FB2
:100F00000808087F00417F41002040413F017F08E1
:100F10001422417F404040407F020C027F7F040842
:100F2000107F3E4141413E7F090909063E41512162
:100F30005E7F09192946264949493201017F01018D
:100F40003F4040403F1F2040201F3F4030403F6314
:100F50001408146307087008076151494543007F6E
:100F600041410002040810200041417F00040201B9
:100F70000204404040404000010204002054545408
:100F8000787F484444383844444420384444487FB7
:100F90003854545418087E0901020C5252523E7FB4
:100FA0000804047800447D40002040443D007F1048
:100FB00028440000417F40007C041804787C080429
:100FC000047838444444387C141414080814141861
:100FD0007C7C080404084854545420043F444020B6
:100FE0003C4040207C1C2040201C3C4020403C4495
:100FF000281028440C5050503C4464544C44000881
:1010000036410000007F0000004136080008082239
:101010001C08081C220808A0600000000000000056
:1010200000000000000000FEFE0000000000003E86
:101030007E00007E3E00006060FEFE6060FEFE609E
:101040006060F09898FEFE989818180C1E1E0C8090
:10105000C0E070381878FC8EC6E6763C18000000B8
:101060000066763E1E000000000000E0F0381C0E16
:101070000600000000060E1C38F0E000006060C0B2
:1010800080F8F880C0606080808080F8F880808080
:101090008000000000000000000000808080808050
:1010A00080808080800000000000000000000000C0
:1010B00000000080C0E07038180000000000000050
:1010C000000000000000007171000000000000003E
:1010D0000000000000000006067F7F06067F7F06F6
:1010E00006181819197F7F19190F06181C0E070307
:1010F00001307878301E3F716367663C3C6666005D
:101100000000000000000000000000070F1C387005
:1011100060000000006070381C0F07000006060326
:10112000011F1F01030606010101011F1F0101012B
:1011300001000066763E1E00000000010101010171
:101140000101010101000030787830000000001832
:101150001C0E070301000000000000F8FC0E06064C
:101160000EFCF80000181CFEFE0000000000001835
:101170001C0E0686CEFC7800000606868686CEFC0F
:1011800078000080C0E070381CFEFE00007E7E66A5
:101190006666E6C6860000F8FC8E86868E1C180001
:1011A00000060686C6E6763E1E000078FCCE8686E1
:1011B000CEFC78000078FCCE8686CEFCF8000030AD
:1011C00078783000000000000030787830000000AF
:1011D00000000080C0E070381C0E06606060606037
:1011E0006060606060060E1C3870E0C0800000180F
:1011F0001C0E06060686CEFC7800001F3F7060605D
:10120000703F1F000060607F7F606000000000781A
:101210007C6E676361606000006060616161733F64
:101220001E00000707060606067F7F0000183870BC
:101230006060703F1F00001F3F716161733F1E00BF
:101240000000007F7F0000000000001E3F7361610E
:10125000733F1E000000006171391D0F0700000C74
:101260001E1E0C00000000000066763E1E000000FE
:101270000000000103070E1C387060060606060613
:1012800006060606066070381C0E07030100000003
:1012900000000066670301000078FCCE8686CEFC65
:1012A000780000E0F0B89C8E8E9CB8F0E0FEFE86E0
:1012B00086868686CEFC78F8FC0E060606060E1C90
:1012C00018FEFE0606060E1C38F0E0FEFE86868638
:1012D0008686860606FEFE8686868686860606F84C
:1012E000FC0E068686868E9C98FEFE80808080801E
:1012F00080FEFE00000606FEFE060600000000005E
:10130000000606FEFE0606FEFE80C0E070381C0EDB
:1013100006FEFE0000000000000000FEFE1C38F08B
:10132000F0381CFEFEFEFE70E0C0800000FEFEF8FD
:10133000FC0E060606060EFCF80000010101010085
:101340000000007F7F0101010101017F7F7F7F613C
:1013500061616161733F1E1F3F7060606060703843
:10136000187F7F60606070381C0F077F7F6161614C
:1013700061616160607F7F01010101010100001F67
:101380003F7060616161717F3F7F7F0101010101F9
:10139000017F7F000060607F7F6060000018387010
:1013A0006060703F1F00007F7F0103070E1C3870D4
:1013B000607F7F60606060606060607F7F000001D0
:1013C0000100007F7F7F7F00000103070E7F7F1FEA
:1013D0003F7060606060703F1FFEFE868686868676
:1013E000CEFC78F8FC0E060606060EFCF8FEFE861D
:1013F00086868686CEFC7878FCCE868686868E1C8F
:101400001806060606FEFE06060606FEFE0000009C
:10141000000000FEFEFEFE000000000000FEFEFEDA
:10142000FE000000000000FEFE1E3E70E0C0C0E0B6
:10143000703E1E7EFEC080000080C0FE7E06060656
:101440000686C6E6763E1E0000FEFE06060606007E
:1014500000183870E0C0800000000000000606069A
:1014600006FEFE00006070381C0E0E1C3870600016
:101470000000000000000000007F7F010101010169
:101480000100001F3F7060666E3C387F677F7F0100
:1014900001070F1D39706018387161616161733F18
:1014A0001E000000007F7F000000001F3F70606092
:1014B0006060703F1F070F1C387070381C0F071FCB
:1014C0003F70703E3E70703F1F787C0E070303072D
:1014D0000E7C78000001037F7F03010000787C6EA2
:1014E0006763616060606000007F7F6060606000D3
:1014F00000000000000103070E1C1800006060607F
:10150000607F7F000000000000000000000000601D
:101510006060606060606060600000060E1C387093
:1015200060000000006060606060E0C080FEFE80DF
:10153000C0E06060E0C08080C0E06060606060002B
:101540000080C0E06060E0C080FEFE80C0E06060BF
:101550006060E0C0808080F8FC8E86060E1C18E07B
:10156000F0381818181818F8F8FEFE80C0E060600F
:10157000E0C08000006060E6E600000000000000BF
:10158000006060E6E60000FEFE000080C0E0600053
:101590000000000606FEFE00000000E0E060E0C083
:1015A000C0E0E0C080E0E080C0E06060E0C080803B
:1015B000C0E060606060E0C08000000000000000EB
:1015C000000000183C7E66666666667F7F7F7F61EE
:1015D00061606060703F1F1F3F70606060607038C6
:1015E000181F3F7060606061617F7F1F3F76666695
:1015F000666666070701017F7F01010000000001A8
:10160000036766666666763F1F7F7F010100000004
:10161000007F7F000060607F7F606000001838708E
:101620006060703F1F00007F7F060F1F39706000F1
:1016300000000060607F7F606000007F7F00000727
:101640000700007F7F7F7F0101000000007F7F1F78
:101650003F7060606060703F1FE0E06060606060ED
:10166000E0C08080C0E0606060C080E0E0E0E080DA
:10167000C0E06060E0C08080C0E0606060606000EA
:10168000006060FEFE606000000000E0E00000001E
:10169000000000E0E0E0E0000000000000E0E0E02A
:1016A000E0000000000000E0E060E0C0800000809A
:1016B000C0E060E0E0000000000000E0E06060608A
:1016C000606060E0E0E060000080C0787C0E0600B2
:1016D0000000000000FEFE000000000000060E7C7E
:1016E00078C0800000808080801838F0E0C0808062
:1016F000C0E0F03818808080807F7F0606060606EE
:1017000007030101030706060607077F7F7F7F01A6
:1017100001000000000101616367666666667E3C49
:101720001800001F3F7060607038181F3F706060C5
:101730007038187F7F070F1C387070381C0F071F18
:101740003F7070383870703F1F6070391F0F0F1F67
:1017500039706001036766666666763F1F60707861
:101760007C6E6763616060000001031E3E70600074
:1017700000000000007F7F00000000000060703E5D
:101780001E0301000001010101181C0F07030101E4
:1017900003070F1C180101010103010200040506E3
:1017A000075F2D2E2C001B1E272D36394B4E636CE8
:1017B0007278878D939CB1B4C6C9D2D8E1E412087F
:1017C00000081C0808081C08000008220049002224
:1017D000080000000000227F2200000008220049CB
:1017E0000022080000082200490022080000002210
:1017F0007F220000000000082200490022080000AB
:10180000081C0808081C0800504841534553204450
:101810004520564F4C002864656661757429005652
:101820006572696620202020205472696D73004320
:101830004F4E462E48454C490054797065206465EA
:1018400020506C617465617500436F6C6C656374E6
:1018500069660053776173682052696E6700446956
:1018600072656374696F6E205052460044697265F8
:101870006374696F6E2041494C00446972656374FA
:10188000696F6E20434F4C0056455253494F4E00EE
:10189000564552533A2056322E30302D4C480020B7
:1018A00053564E3A206F70656E39782D723231334F
:1018B00000444154453A20323031322D30322D30FF
:1018C000350054494D453A2031383A30363A3337AD
:1018D00000454550524F4D207600414E4100410099
:1018E00042470044494147005472696D2D202B0046
:1018F000BB8711241FBECFEFD1E2DEBFCDBF00E01A
:101900000CBF12E0A0E0B2E0E4E2F1E101E00BBFC5
:1019100002C007900D92A636B107D9F711E1A6E6ED
:10192000B2E001C01D92AA3BB107E1F718E1C2EF96
:10193000D8E100E006C022970109FE010BBF0E941A
:101940005388C03FD10780E00807A9F70E94BC79FF
:101950000C9490880C9400008F929F92AF92BF924B
:10196000CF92DF92EF92FF920F931F93CF93DF936B
:10197000F82E4091370650E04F5F5F4F8AE260E0FB
:1019800022E102E00E945B1580E060E043ED55E05B
:1019900022E00E948B6B8091EB0E877021F08230E9
:1019A00011F0813011F49BE001C09AE08F2D61E0CD
:1019B00049EC5AE02AE009ED15E03BE0E32EC92EA0
:1019C0000E943818882309F464C3D091AC0B80912D
:1019D000A70B8823A1F468E040ED5DE00E94926BC4
:1019E000EE24E394D13009F0EE2488E368E04EED74
:1019F0005EE02AE00F2D0E949B65C0E101C0C8E0B7
:101A000018EEA12E1EE0B12E02E0E02E8CE3882E0F
:101A1000912C04C0BFEEAB2EBEE0BB2E8091A70B75
:101A20008E1508F090C02E2D215080E06C2F45EED1
:101A300055E000E00E947816F5014081DE1551F472
:101A400080913B0C882331F480913A0C181624F4D1
:101A500021E003C020E001C022E088E36C2F0E9457
:101A6000496BF50141815281DE1509F00DC380916A
:101A70003B0C813009F005C380913A0C18160CF02C
:101A800005C321E004C380913A0C20E0181614F439
:101A900001E001C002E084E56C2F0E941C17DE15F6
:101AA00009F04DC080913A0C18163CF08091380C2A
:101AB0009091390C009709F442C0F501018112811F
:101AC00080913B0C813079F0813018F08230A1F5A3
:101AD0001BC08F2DF501608146ED2EE20E94476606
:101AE000F501808329C0C801B4010E94EF876C0111
:101AF0008F2D40E02BE30E944766FCE38F028001BC
:101B000011240C0D1D1D18C0C801B4010E94EF87DF
:101B1000A2E0CA2EC80E8F2D6C2D41E02EE30E944C
:101B20004766C81A6C2D772767FD7095061B170B43
:101B300017FF02C000E010E0F50112830183C85FC7
:101B4000C93308F0A6C2E394F4E0EF1609F062CFBF
:101B50008091A70B843068F580E06C2F4CEE55E047
:101B60000E94926B4091EC0E42954695417021E0A7
:101B7000D43009F020E088E36C2F0E94966BD430BB
:101B8000A1F46091EC0E6295669561708F2D40E036
:101B900021E00E94476681708295880F807E909137
:101BA000EC0E9F7D982B9093EC0EC85FC93308F024
:101BB00070C28091A70B853080F580E06C2F46EFD6
:101BC00055E00E94926B4091EC0E429546954695E9
:101BD000417021E0D53009F020E088E36C2F0E94AD
:101BE000966BD530B1F46091EC0E62956695669572
:101BF00061708F2D40E021E00E94476681708295E0
:101C0000880F880F807C9091EC0E9F7B982B90938F
:101C1000EC0EC85FC93308F03CC28091A70B863038
:101C200090F580E06C2F4EEF55E00E94926B809112
:101C3000EC0E877090E0AC01440F551F480F591F00
:101C4000440F551F405E574FD63011F402E001C0DB
:101C500000E088E36C2F26E00E94BD6AD63079F45C
:101C60006091EC0E67708F2D40E024E00E94476683
:101C700087709091EC0E987F982B9093EC0EC85F34
:101C8000C93308F006C28091A70B873048F580E081
:101C90006C2F47E056E00E94926B4091B2114430A5
:101CA00010F04F5E05C0442311F04C5F01C043E0CB
:101CB000D73011F422E001C020E088E36C2F0E94AD
:101CC000E716D73049F48F2D6091B21140E023E13F
:101CD0000E9447668093B211C85FC93308F0D9C12A
:101CE0008091A70B883090F580E06C2F4FE056E094
:101CF0000E94926B4091EB0E469546954695417039
:101D0000D83021F421E080913B0C811120E088E360
:101D10006C2F0E94966BD830A9F46091EB0E6695FB
:101D20006695669561708F2D40E021E00E944766C0
:101D30008170880F880F880F9091EB0E977F982BFA
:101D40009093EB0EC85FC93308F0A3C18091A70B35
:101D5000893008F052C080E06C2F46E156E00E94C6
:101D6000926B18E3CC24DD24A601425C574F80918E
:101D70003B0C8C1511F4D93069F08091EE0E90E097
:101D80000C2C02C0959587950A94E2F780FF04C059
:101D900002E003C001E001C000E0812F6C2F21E0D0
:101DA0000E94BD6A0894C11CD11C1A5F1236E1F66C
:101DB000D930F9F480E6F81631F08091380C909122
:101DC000390C0097B1F08F2D0E94022110923A0C2D
:101DD00081E090E000903B0C02C0880F991F0A94AC
:101DE000E2F79091EE0E98279093EE0E82E00E941B
:101DF0005969C85FC93308F04CC18091A70B8A307C
:101E000008F0BFC080E06C2F4EE156E00E94926B5C
:101E10008091EB0E877090E0AC01440F551F440F8A
:101E2000551F480F591F4B5B574FDA3051F48091C3
:101E30003B0C882331F480913A0C181624F401E00D
:101E400003C000E001C002E088E36C2F25E00E949F
:101E5000BD6A4091EB0E842F877009F046C045950E
:101E6000459545954595552747FD5095440F551F78
:101E7000440F551F4B54584FDA3051F480913B0CAE
:101E8000813031F480913A0C181624F401E003C03B
:101E900000E001C002E080E56C2F24E00E94BD6AF2
:101EA0008AE76C2F44E256E00E94926B4091ED0E5F
:101EB00082E34802A0011124445D5E4FDA3051F400
:101EC00080913B0C823031F480913A0C181624F446
:101ED00021E003C020E001C022E08AE76C2F0E94CD
:101EE0006B17DA3009F049C005C0DA3009F045C097
:101EF00010923B0C80913A0C181664F08091380CCB
:101F00009091390C009731F48091EB0E8770A9F114
:101F1000823099F180913B0C813091F0813018F042
:101F2000823059F521C06091EB0E67708F2D40E033
:101F300023E00E94476687709091EB0E987F10C057
:101F40006091EB0E65956595659565958F2D4EEFC6
:101F500024E00E9447668295807F9091EB0E9F70EF
:101F6000982B9093EB0E09C08F2D6091ED0E4CEFE6
:101F70002AE00E9447668093ED0EC85FC93308F0DF
:101F800088C08091A70B8B3008F083C08091EB0E46
:101F9000877009F07EC06C2F46E256E00E94926B7B
:101FA0008AE46C2F40E356E00E94926B8091B1115D
:101FB000992787FD9095AC01440F551F440F551F7D
:101FC000480F591F4F515F4FDB3051F480913B0C4C
:101FD000882331F480913A0C181624F421ED03C0C3
:101FE00020ED01C022ED88E36C2F0E946B178091D9
:101FF000EC0E8295817090E0AC01440F551F480FA4
:10200000591F475A574FDB3021F480913B0C8130E8
:1020100011F000E001C002E08CE56C2F23E00E948B
:10202000BD6ADB30B1F580913A0C181634F080911E
:10203000380C9091390C009761F180913B0C88230A
:1020400019F0813031F50AC08F2D6091B1114CEE3D
:1020500024E10E9447668093B1111BC06091EC0E91
:10206000629561708F2D40E021E00E94476681708B
:102070008295807F9091EC0E9F7E982B9093EC0E32
:1020800008C0823009F4FFCC20E001C022E000E06B
:1020900002CDDF91CF911F910F91FF90EF90DF90D4
:1020A000CF90BF90AF909F908F9008956F927F9246
:1020B0009F92AF92BF92CF92DF92EF92FF920F93D7
:1020C0001F93CF93DF93D82E80E060E043E356E088
:1020D00022E00E948B6B8D2D62E04CEF5AE027E0EE
:1020E0000BE316E0D5E0ED2E96E0C92E0E943818DD
:1020F000882309F421C1C090AC0B90903B0C919BBC
:1021000007C08AE268E141E456E00E94926B14C184
:1021100082E168E049E456E00E94926BCA948091A3
:102120003A0C18161CF4EE24E39402C0C2E0EC2E24
:10213000AA24BB2410E16C2C772467FC70948A2DB0
:102140008F5F0E94AA6B482FC82FD0E0CC0FDD1FF5
:10215000CE5BD94F80E0612F20E00E94E7166A1421
:102160007B0419F4FF24F3949110FF248881829555
:1021700086958695837090E0AC01440F551F480FFB
:10218000591F455F574FFF2011F400E001C00E2D8D
:1021900088E1612F23E00E94BD6AFF20B1F08091A9
:1021A0003A0C181694F4688162956695669563708A
:1021B0008D2D40E022E00E9438668295880F880FBE
:1021C000807C98819F73982B98836A147B0411F408
:1021D00001E0901200E04981552747FD509500230A
:1021E00011F420E001C02E2D82E4612F0E946B17B4
:1021F000002359F080913A0C18163CF469818D2D1A
:102200004CE924E60E94386689836A147B0421F431
:10221000FF24F39482E09812FF2488818F7390E06A
:10222000AC01440F551F480F591F4C5E574FFF20FC
:1022300011F400E001C00E2D88E4612F23E00E941C
:10224000BD6AFF2081F080913A0C181664F4688111
:102250006F738D2D40E023E00E9438668F73988164
:10226000907C982B9883185F0894A11CB11C1033A4
:1022700009F065CF80E060E346E556E00E94926B8E
:1022800040915406552747FD5095465F5F4FE4E067
:10229000CE1611F422E501C020E58EE460E30E9431
:1022A0006B17F4E0CF1649F48D2D6091540646EF7C
:1022B00028E20E9438668093540611E085E0C81633
:1022C00019F010E020E001C022E080E068E342E67F
:1022D00056E00E948B6B76EEE72E7BE0F72EECE368
:1022E000AE2EE6E0BE2EC0E3F701419151917F0191
:1022F000F501819191915F01481B590B440F551FC6
:102300008C2F68E320E50E946B17C85EC03961F727
:10231000112391F0F0E6DF1679F4ACE3B6E0E6EED7
:10232000FBE088E001900D928150E1F781E00E948E
:10233000596985E00E94D764DF91CF911F910F9179
:10234000FF90EF90DF90CF90BF90AF909F907F90E5
:102350006F9008954F925F926F927F928F929F92AB
:10236000BF92CF92DF92EF92FF920F931F93CF9382
:10237000DF93CDB7DEB728970FB6F894DEBF0FBE58
:10238000CDBFB82E80E060E046E656E022E00E9435
:102390008B6B8B2D61E04CEF5AE027E004E716E0F1
:1023A000EE24E39472E0C72E0E943818882309F4C3
:1023B000EFC1D090AC0BDA94C0903B0C80E6B8161D
:1023C00041F090E8B91609F085C080E80E9402212A
:1023D00081C0D7FC7FC080913A0C18160CF47AC0EB
:1023E0001092E20B83E997E00E94B161DC01CB011E
:1023F0008093E4059093E505A093E605B093E70587
:1024000020919807332727FD3095E0919707EF5FDC
:10241000F0919607A0919507B0919407809193074A
:10242000509199075F5F4AE0642F0E94E38782958D
:10243000807F890F89838B2F0E94E3878295807F1D
:10244000890F8A838A2F0E94E3878295807F890F74
:102450008B8357705C838F2F0E94E3878295807FE8
:10246000890F8D838E2F0E94E3878295807F890F4D
:102470008E8324563040C9016AE070E00E94EF87E5
:102480006295607F680F6F830AE010E00E949F1FD3
:1024900080ED0E945B1F009721F401501040B1F7BE
:1024A00017C080E00E945B1F009791F048E0E42E87
:1024B000F12CEC0EFD1E8E010F5F1F4FF801819174
:1024C0008F010E945B1F009719F00E151F05B1F7D1
:1024D0000E94951F80913A0C181634F084EE95E016
:1024E00063E977E00E94B75F8EE360E14DE20E940E
:1024F00024698EE460E14DE20E9424698DE360E28C
:102500004AE30E9424698DE460E24AE30E94246960
:1025100020E1E22E3CE0632E33E0732E88249924E0
:102520004D2C552447FC5094F82CA3014F55584F7F
:1025300080E06E2D25E000E00E94BD6ADD24481495
:10254000590441F4CD1431F480913A0C181624F456
:1025500011E003C010E001C012E0F1E0FF1609F441
:1025600086C0DF1671F182E0D81609F456C040919A
:102570009807552747FD50954459584F8EE36E2DC7
:10258000212F0E946B17112309F4F0C080913A0C9F
:1025900018163CF08091380C9091390C009709F492
:1025A000E5C060919807772767FD70958B2D4EE603
:1025B00050E028EC30E000E00E94DB648093980754
:1025C000D5C040919707552747FD50954F5F5F4F06
:1025D000212F20618EE46E2D02E00E945B151123F5
:1025E00009F4C4C080913A0C18163CF08091380C64
:1025F0009091390C009709F4B9C06091970777273B
:1026000067FD70958B2D40E050E02BE030E000E05E
:102610000E94DB6480939707A9C0409196075527D5
:1026200047FD5095212F20618EE56E2D02E00E941E
:102630005B15112309F49AC080913A0C18163CF0EE
:102640008091380C9091390C009709F48FC06091FB
:102650009607772767FD70958B2D41E050E02FE1BD
:1026600030E000E00E94DB64809396077FC091E039
:10267000D91671F1212F2061E2E0DE1609F451C074
:1026800040919507552747FD50958DE36E2D02E04B
:102690000E945B15112309F469C080913A0C181649
:1026A0003CF08091380C9091390C009709F45EC091
:1026B00060919507772767FD70958B2D40E050E07E
:1026C00027E130E000E00E94DB64809395074EC074
:1026D00040919407552747FD5095212F20618DE4A7
:1026E0006E2D02E00E945B15112309F43FC080911A
:1026F0003A0C181634F08091380C9091390C0097F0
:10270000A9F160919407772767FD70958B2D40E0C4
:1027100050E02BE330E000E00E94DB6480939407FC
:1027200025C040919307552747FD50958EE56E2DA6
:1027300002E00E945B151123C9F080913A0C181633
:1027400034F08091380C9091390C009779F06091B9
:102750009307772767FD70958B2D40E050E02BE3C2
:1027600030E000E00E94DB6480939307D394F3E0B1
:10277000DF1609F0E4CE0894811C911C85E090E0FE
:10278000680E791E90E1E90EE0E3EE1609F0CCCE7A
:1027900028960FB6F894DEBF0FBECDBFDF91CF9164
:1027A0001F910F91FF90EF90DF90CF90BF909F907F
:1027B0008F907F906F905F904F9008956F927F926F
:1027C0009F92AF92BF92CF92DF92EF92FF920F93C0
:1027D0001F93CF93DF93C82F80E060E046E756E079
:1027E00022E00E948B6B8C2F67E049EC5AE02AE0D4
:1027F00000E10E943844882309F48CC06090AC0B3F
:102800006A94C03611F0C43641F467FC06C0609289
:10281000FE0B80EF92E30E94C140BB249924DD248B
:10282000D394B8E0CB2E772467FC70942091A70B4B
:102830002B0DE22EFF246E147F0411F402E001C080
:1028400000E0AA24A394283028F4AA2487E08D1558
:1028500028F459C0E6E0ED1508F455C0992009F4B4
:10286000902E2F5F80E06C2D4EE756E00E94781688
:10287000AA2069F0C7010897EC01A3E0CC0FDD1F87
:10288000AA95E1F7C80FD91FCE53DF4E09C0E70163
:10289000CC0FDD1FCC0FDD1FCE0DDF1DC656DF4E6A
:1028A0007E011CE2F70141917F01552747FD5095BC
:1028B000812F6C2D20E00E946B171B5E153991F75C
:1028C000E8E0EE2EEC0CAA2019F4D394CE2C16C01E
:1028D0008E010B5F1F4FCCE2F80141918F0155270C
:1028E00047FD50958C2F6E2D20E00E946B17CB5E1C
:1028F000C03891F7F0E1CF0E82E0D80EB394E7E054
:10290000BE1609F093CF992029F48091A70B8F5F11
:102910008093A70BDF91CF911F910F91FF90EF90C4
:10292000DF90CF90BF90AF909F907F906F90089571
:102930000F931F93603408F048C087FF02C0480F10
:1029400080E0A82FBB27A7FDB095FD01E40FF11D86
:10295000E138F10514F040E8481BE62FE695E695CE
:10296000E695F0E0F695FE2FEE27F795E795EA0F4E
:10297000FB1FE456F84F677081E090E0582F01C0CC
:10298000550F6A95EAF710E0C801827090700470E4
:102990001070752F709517C030E020FF10C0608157
:1029A000009711F0652B06C00115110511F0672382
:1029B00001C06527608335952795206802C035954D
:1029C000279541503196442339F71F910F9108956F
:1029D0000F93022F2FEF0E9498140F910895AF923A
:1029E000BF92CF92DF92EF92FF920F931F93CF93FC
:1029F000DF93D82EC42E162FEE24FF24A62EBB2440
:102A0000A7FCB094E501C20FD11D0CC0103430F406
:102A10008D2D612F4C2D202F0E94E8141F5F0894EC
:102A2000E11CF11CC7018A0D9B1D8C179D0774F3D7
:102A3000DF91CF911F910F91FF90EF90DF90CF909A
:102A4000BF90AF9008950F93CF93DF93C82F8091DD
:102A5000C8058823C1F48091D105882321F4809191
:102A6000B811882321F16091DB052091D2053091C6
:102A7000D305C90170E00E94EF87D7E0D61B19F09B
:102A8000D73018F403C0D1E001C0D7E08C2F8F5F9E
:102A900060E045E028E004E00E94EF1467E06D1B71
:102AA0008C2F8E5F43E02D2F00E00E94EF14DF910A
:102AB000CF910F9108952F923F924F925F926F9214
:102AC0007F928F929F92AF92BF92CF92DF92EF92BE
:102AD000FF920F931F93CF93DF9300D0CDB7DEB754
:102AE000382FC62E4A012B83822F992787FD909578
:102AF00080779070A4E095958795AA95E1F7E82FE7
:102B0000282F24508B8183FF03C088508B8309C0FA
:102B100057FF07C0909481949108939477247394FD
:102B200001C077242D3FE9F0C4016AE070E00E9403
:102B3000EF87CB0101E0FAE0EF2EF12C05C00F5F2B
:102B4000B7010E94EF87CB010097C9F7402F50E0F3
:102B5000822F992787FD90958417950714F00E2FE3
:102B60000350EB81E2FD06C0E7FF07C012162CF40C
:102B70003E5F03C06AE0E62E02C055E0E52EFB8111
:102B8000F7FF06C0E09E802D1124380F71103B5FC7
:102B90003093AD0B8E2D8095830F8A83DD24D394E3
:102BA00092E0F92E10E03AE0432E512C222E3324ED
:102BB00027FC309446E0642E6C0C63C0C401B20163
:102BC0000E94EF87A82E382F305D313351F4EB810E
:102BD000E2FF07C0D01629F4FA81FE5FFA83E860AD
:102BE000EB838A816C2D432F2B8139830E946C6883
:102BF0008D2D90E0398128163906D1F52B812F795A
:102C00002B83B22E22FF19C08A2D8150833008F405
:102C1000F394C401B2010E94EF87CB01B2010E947C
:102C2000EF871A81823011F0843011F5343311F4BA
:102C30001F5F1EC01150F3941BC08EEFA82E8A8117
:102C4000A80E982F9150892F662D40E099830E94FD
:102C500042689981B1FC06C0B0FE09C08091E30BC7
:102C600086FF05C0892F6C2D48E00E943E68AA822D
:102C7000C401B2010E94EF874B01EA81EE19EA8399
:102C8000D3940D1508F09ACF112371F06C2D635F6A
:102C9000812F4F2D20E00E94E8146C2D625F812F60
:102CA0004F2D20E00E94E814772061F08A816C2D7E
:102CB0004DE22B810E946C686C2D6D5F8A8140E033
:102CC0000E9442680F900F900F90DF91CF911F915B
:102CD0000F91FF90EF90DF90CF90BF90AF909F90BB
:102CE0008F907F906F905F904F903F902F900895BE
:102CF0000F93CF93DF93C62FD22F202F2F7E0E94CA
:102D00008B6B202F20688091AD0B6C2F4D2F50E0E6
:102D100002E00E945B15DF91CF910F9108950F9310
:102D2000022F473068F4E42FF0E0AF01440F551F45
:102D30004E0F5F1F415A574F23E00E94BD6A06C0E5
:102D4000242F265041E856E00E9478160F910895EE
:102D50000F931F93CF93DF93182FD62FC42F022FDB
:102D6000442331F447EA57E023E00E94BD6A10C0D3
:102D700047FF06C0825048E02EE50E94DF67C195FC
:102D80002C2F2150812F6D2F43E856E00E9478169A
:102D9000DF91CF911F910F9108950F93FA013A9609
:102DA0009AE03291332371F49150D9F72F5F00618B
:102DB00046E856E00E94781608C000622AE00E94A9
:102DC000BD6A03C09923C9F7F1CF0F9108950F93FE
:102DD000022F442321F447EA57E023E00AC04D3094
:102DE00058F450E0440F551F440F551F4C59554F90
:102DF00024E00E94BD6A16C0453128F4242F2C50CF
:102E00004DE856E00DC0453228F4242F245141E905
:102E100056E006C0473230F4242F245244E956E0ED
:102E20000E9478160F910895942F9150903118F4C4
:102E30004C5E0E94E7160895DF92EF92FF920F9387
:102E40001F93CF93DF93E82EF62EEA01122FD02E98
:102E500057FF10C022FF02C087E001C085E09E2D11
:102E6000981B892F6F2D4DE2212F0E946C68D09501
:102E7000C195DF4FCE016CE370E00E940388AB0187
:102E8000212F20698E2D6F2D02E00E945B1591E0AD
:102E900012FF90E08091AD0B2D2D2123891B6F2D0A
:102EA0004AE30E946C683091AD0BCE016CE370E098
:102EB0000E940388AC012D2D2069832F8A5F6F2D1E
:102EC00002E00E945B15DF91CF911F910F91FF905F
:102ED000EF90DF9008950F9300E00E945B150F9133
:102EE0000895CF93C82F80E060E048E956E022E0E3
:102EF0000E948B6BC236B9F0C33628F4C03631F06D
:102F0000C136C1F413C0C336A9F410C08FEF80934B
:102F1000DC0E1092DD0E1092E3051092E20585E0C2
:102F20000E94D76407C080E997E502C083E39BE471
:102F30000E94566680E068E04EE956E00E94926B7F
:102F40004091DD0E4695552747FD50958AE568E08E
:102F500020E00E946B1780E060E140EB56E00E94A9
:102F6000926B4091DC0E4695552747FD50958AE5BA
:102F700060E120E00E946B1780E068E142EC56E0DF
:102F80000E94926B8091DD0E90E02091DC0E821BFE
:102F9000910962E070E00E940388462F552747FDA3
:102FA00050958AE568E120E00E946B1780E060E2BE
:102FB00044ED56E00E94926B2091E2053091E305CA
:102FC00084E690E0289FA001299F500D389F500D66
:102FD000112464E0569547956A95E1F78AE560E229
:102FE00020E60E946B1780E060E346EE56E00E9408
:102FF000926B8BEB91E1AC010196FA0120812535B2
:10300000D1F34A5B51418BE660E328E00E946B17E5
:1030100082E168E34AEF56E00E94926BCF910895F7
:103020001F93CF93DF93182FD62FC42F80E860E033
:103030004D2F50E02C2F0E946B17DA3010F08FE6E6
:1030400001C085E760E04FE22C2F0E946C68DA3007
:1030500010F08FE601C085E7E12FF0E0319660E0E7
:10306000AF012C2F0E946B17DF91CF911F91089514
:10307000AF92BF92CF92EF92FF920F931F93CF9395
:10308000DF93D82FF62E5A01622F1092390C10922E
:10309000380C8091F60BC0919C0BC81B99F0809165
:1030A000F60B80939C0B10929D0B80913A0C181696
:1030B0004CF48C2F992787FD90959093390C809331
:1030C000380CC0E0DE36B1F480913A0C982F9F5F47
:1030D00090933A0C181614F410923A0C80913A0C12
:1030E00018163CF48091AC0B882319F48FEF809371
:1030F0003A0CC0E08091380C9091390C009781F027
:103100008091520690E024EF31E0829FA001839FDE
:10311000500D929F500D11245093E9054093E805FE
:10312000A114B10409F45BC08091AC0B882309F0B1
:103130003CC08091FD0B8823C1F5EF2DCC2361F0BD
:1031400080913A0C87FF08C0862F8150EC1BE7FD69
:10315000E0E08E170CF4E82FD43649F0D53699F418
:10316000FF2011F0EF2D01C0E62FE1500CC02F2DF4
:1031700030E0862F90E00197281739071CF4EF2DD7
:10318000EF5F01C0E0E0FF27E7FDF0958F2D90E0B5
:10319000E817F90761F0EE0FFF1FEA0DFB1D85919F
:1031A00094910E94566680E081C140E001C042E0F7
:1031B0001092FD0B8F2D0E9410184091AD0B4E50B8
:1031C0002F2D30E02F5F3F4FC90166EF7FEF0E9448
:1031D0000388862F880F880F860F480F01C049E7A4
:1031E000842F0E9423150115110559F09091AC0B05
:1031F0008E2D9E1508F4892FF801E80FF11D2491FA
:1032000001C020E080913A0C18160CF454C0809153
:103210003B0C3091AC0B48C01C164CF5C150682FCC
:103220006F5F462F50E00115110551F0832FE31613
:1032300008F48E2DF801E80FF11D849190E002C092
:1032400080E090E08417950774F53F5FC31638F56A
:103250000115110549F08C2DEC1408F48E2DF801A0
:10326000E80FF11D649101C060E03C2D1BC0CF5FF1
:10327000682F61508823B9F4832F8150332389F05C
:103280000115110549F0982FE81608F49E2DF80154
:10329000E90FF11D649101C060E0382F04C060E0C7
:1032A00002C060E0C0E0862FCC2309F0B5CF809348
:1032B0003B0C3093AC0BD03681F1D136A0F4D33433
:1032C00009F4A3C0D43440F48091AC0BD132A1F105
:1032D000D23409F0CAC07AC0D43409F447C0D53416
:1032E00009F0C3C05AC0D43609F445C0D53638F405
:1032F000D23609F46EC0D33609F0B7C08AC0D138CF
:10330000C1F0DF3B21F0D53609F0AFC04BC01092C1
:103310003B0C1092AC0B8FEF09C0222309F4A5C01F
:1033200081E090913A0C19160CF480E080933A0CED
:103330009CC010923A0C0CC090913A0C19161CF4D7
:1033400010923A0C92C0882319F0A114B10419F418
:103350000E949C408AC089E00E94D76410923B0C76
:103360001092AC0B80E68093E30B82C080913B0C03
:10337000821709F47AC00115110509F476C080910D
:103380003A0C18160CF471C080913B0C821710F4A3
:103390008F5F16C010923B0C65C080913B0C882358
:1033A00009F463C00115110509F45FC080913A0C5E
:1033B00018160CF45AC080913B0C882321F08150E0
:1033C00080933B0C4FC020933B0C4CC08C1509F4F0
:1033D0004CC080913A0C18160CF447C08091AC0B8D
:1033E0008C1510F48F5F01C080E00115110509F400
:1033F00067C0982FE81608F49E2DF801E90FF11D1B
:10340000E491EF3F09F05CC0EBCF8091AC0B8823D7
:1034100061F180913A0C181644F18091AC0B88232D
:1034200011F0815001C08C2D0115110509F448C01F
:10343000982FE81608F49E2DF801E90FF11DE4918C
:10344000EF3F09F03DC0EBCF9091AC0B9E1508F417
:10345000E92E0E0D111DF8010491801708F4082FB4
:1034600000933B0C80E68093E30BA114B10411F0B0
:1034700057E001C056E04091AC0B442319F4109280
:10348000A70B13C0842F90E02091A70B821B9109FA
:10349000252F30E02817390714F4451B04C01816EF
:1034A00019061CF041504093A70B81E0DF91CF91AA
:1034B0001F910F91FF90EF90CF90BF90AF90089524
:1034C0008093AC0B80913B0C0115110509F0BCCF2A
:1034D00000E0C6CF0F931F93CF93DF93062F122FD9
:1034E000C22FD0E0FE01E076F070E036F10511F475
:1034F00020E001C020E5212B602F0E946B17C3FD47
:1035000007C08091AD0B602F46E7212F0E946C68A9
:10351000DF91CF911F910F9108954F925F926F921B
:103520007F928F929F92AF92BF92CF92DF92EF9253
:10353000FF920F931F93CF93DF938C016B01DB01FD
:103540008C918F3211F08C3549F40894C11CD11C38
:10355000E8011E821F82188619860CC0D801ED91E1
:10356000FC9186899789A08DB18DE8018E839F8318
:10357000A887B987F6018081803250F4C8010E9483
:10358000B0439C01D80153961C921E92529748C199
:1035900030E2932E45E0842EF801C489D589FE01DE
:1035A0008BE090E001C0919201972FEF8F3F92073F
:1035B000D1F7D6018C918E3209F5888311962C9122
:1035C00011972E3239F4298312962C91129783E0A9
:1035D00090E002C082E090E02F3229F02C3519F003
:1035E000213208F018C1C80ED91E213210F484E22D
:1035F00001C080E28B872CC1D50108C060E070E07B
:10360000A0E0B0E028E0E22EF12C30E0F601EA0F75
:10361000FB1F20815D010894A11CB11C213208F41C
:1036200064C02F3209F463C02C3509F460C02E3217
:1036300019F06E157F0580F0B8E0EB16F10409F083
:10364000EAC02E3209F0E7C0330F330F68E070E0B4
:103650009BE0E92EF12CD0CF27FD3360822F8158DB
:103660008F3118F08F558D31F8F4F601EA0DFB1DFE
:103670004081842F80548F3320F080548D3708F0A0
:10368000CAC0C70101976817790708F0C4C082E073
:10369000A82EB12CAA0EBB1EFE01E60FF71F208339
:1036A00041836E5F7F4FA8CF422F50E0E8E0F2E009
:1036B0008191882339F0992787FD90958417950784
:1036C000B9F7A9C0822F81548A3110F4326006C044
:1036D000822F81568A3110F431602052FE01E60FAC
:1036E000F71F20836F5F7F4F87CF44E001C040E02A
:1036F0006115710509F48FC08881853E09F48882BF
:10370000E8E0EE16F10411F4330F330F832F90E04D
:103710009C01237030702130310509F440618C70B8
:1037200090708430910509F44860CA0CDB1C4B870B
:103730008FC0D8011E964D915D916D917C915197EE
:103740008D919C910E94AE5D9C010097D1F4E8019F
:10375000EA89FB898081882391F0838583FD72C08B
:10376000AC89BD894CE050E04150504051F081910E
:1037700090E06D91861B91090097B1F363C024E03E
:1037800030E0D8015496ED91FC9155974385211571
:103790003105D1F02430310509F042C050E0CA01B2
:1037A0008470907045FF0DC0E8011E821F8218864C
:1037B00019861B8A1A8A009709F4EECE20E030E0C1
:1037C0002FC0009759F12CC042FD2AC0D801529653
:1037D000ED91FC915397838584FF20C05588442444
:1037E000848990E084299529A0E0B0E0BC015527A8
:1037F0004427738C6624828D90E086299729A0E067
:10380000B0E0482B592B6A2B7B2BE8014E835F835A
:1038100068877987C1CE26E030E002C025E030E03D
:10382000C901DF91CF911F910F91FF90EF90DF9031
:10383000CF90BF90AF909F908F907F906F905F9050
:103840004F900895C80160E070E00E947B4203C081
:10385000C8010E94B0439C01009709F46ACF91CF40
:10386000982F80914D068873803129F4892F63E069
:103870000E94E3870895883119F4892F8695089569
:10388000883219F4892F880F0895803321F4892F05
:10389000880F890F0895892F0895EF92FF920F9353
:1038A0001F93CF93DF930F920F92CDB7DEB7909116
:1038B0004D06987349F1A091AE0EB0E0FD0131962E
:1038C0001E2F17709091AD0E1917F1F0882329F073
:1038D00090915706965F980F01C090E08DEAE82E10
:1038E0008EE0F82EEA0EFB1EF7019683862F2A83C0
:1038F00049830E94301CF701868B4981468F2A81BB
:1039000026A306871093AE0E0F900F90DF91CF91F4
:103910001F910F91FF90EF9008950F931F93CF93F6
:10392000DF9300D0CDB7DEB7182F80914D06887396
:1039300021F1112329F080915706865F810F01C084
:1039400080E08093AF0E862F2B834A8369830E9489
:10395000301C8093B10E4A814093B20E1092B00E8B
:103960008091AD0E8093AE0E2B816981222329F0C8
:103970002150812F00E00E944D1C0F900F900F905E
:10398000DF91CF911F910F9108950F9390914D0664
:103990009695969596959770843138F03091AD0E46
:1039A0002091AE0E321709F027C1E82FF0E0E13286
:1039B000F10508F021C1EE58FF4FEE0FFF1F0590F3
:1039C000F491E02D19949091AD0E8091AE0E981760
:1039D00009F012C182E36AE045E020E000E00E94C5
:1039E0004D1C8AE56AE045E020E00E944D1C8EE611
:1039F00065E0C3C086E46AE008C086E464E105C00F
:103A000086E46EE102C086E468E241E020E03BC06B
:103A1000913009F4F1C08BE404C0913009F4ECC09A
:103A200081E46AE041E020E034C0862F66E0FACF0E
:103A300086E46AE042E0EACF913009F4DDC086E432
:103A40006AE042E0F0CF88E7ECCF88E76AE041E047
:103A500019C08AE76AE041E00CC08CE76AE041E007
:103A600003C088E76FE043E023E00DC088E76FE024
:103A700043E022E008C088E76FE043E003C086E44B
:103A800064E149E121E001E005C086E46AE042E04A
:103A900022E000E00E948D1CAFC09091AD0E80919D
:103AA000AE0E981709F0A8C08CE364E143E022E071
:103AB00001E00E944D1C80E564E143E022E00FEF4D
:103AC00099C08AE501C084E66FE045E091C084E6D4
:103AD0006AE042E022E002E08DC08FE565E042E06E
:103AE0002AE000E00E944D1C8FE565E04AE021E0FD
:103AF0000E944D1C8FE565E042E02AE07BC080E536
:103B00006AE043E022E00FEF0E944D1C8CE36AE084
:103B100043E022E001E00E944D1C86E46AE041E0BF
:103B200020E067C086E465E041E021E000E00E941B
:103B30004D1C82E36FE042E021E00E944D1C80E5D5
:103B40006FE042E04BC08EE665E041E022E000E03D
:103B50000E944D1C8CE765E041E022C082E365E0F5
:103B600045E020E000E00E944D1C8AE565E045E06C
:103B700020E00E944D1C8EE663E044E022E03AC063
:103B800080E565E04AE023E000E00E944D1C80E50E
:103B900065E044E121E00E944D1C80E565E04AE0DB
:103BA00023E028C08AE064E145E022E001E022C091
:103BB00082E364E04AE022E000E00E944D1C86E4DB
:103BC00068E044E121E00E944D1C82E368E04AE0A5
:103BD00022E00E944D1C86E464E044E121E00AC03A
:103BE00088E765E04AE02AE004C088E765E042E350
:103BF00022E000E00E944D1C0F9108950F93982F32
:103C0000E62FF0E09F01220F331F2E0F3F1F295593
:103C1000384F442311F002E001C000E084E5692F31
:103C2000A90123E00E94BD6A0F9108958FEF8EBD18
:103C30000DB407FEFDCF8EB508950F931F93CF935C
:103C4000DF93EC018B0184E18093E50B0E94161E4B
:103C50008F3F29F48091E50B8823C1F726C08E3F62
:103C600021F58FEF8EBD0DB407FEFDCF9EB5988375
:103C70008EBD0DB407FEFDCF9EB599838EBD0DB4EC
:103C800007FEFDCF9EB59A838EBD0DB407FEFDCF16
:103C90009EB59B8324960450104021F70E94161E67
:103CA0000E94161E81E090E002C080E090E0DF916B
:103CB000CF911F910F910895289A0E94161E089582
:103CC00082E38093E40B0E94161E0E94161E8F3F13
:103CD00039F08091E40B8823C1F780E090E00895EB
:103CE00081E090E008950F931F93CF93DF930F929D
:103CF000CDB7DEB78C0169830E94601E6981009791
:103D000061F16EBD0DB407FEFDCF6D3F49F180E05E
:103D1000F80190819EBD0DB407FEFDCFF8019181A1
:103D20009EBD0E5F1F4F0DB407FEFDCF815081F782
:103D30008FEF8EBD0DB407FEFDCF8FEF8EBD0DB49E
:103D400007FEFDCF0E94161E8F7121E030E0853006
:103D500011F020E030E0C90105C080E090E002C031
:103D600081E090E00F90DF91CF911F910F91089526
:103D700028980E94601E009729F40E945C1E80E033
:103D800090E0089581E090E00895CF92DF92EF9265
:103D9000FF92CF93C82F6A017B0187FF0BC087E397
:103DA00040E050E060E070E00E94C51E823008F004
:103DB00042C0CF770E945C1E0E94B81E0097D1F1CE
:103DC0008C2F80648EBD0DB407FEFDCF8F2D9927FB
:103DD000AA27BB278EBD0DB407FEFDCFC701AA27BA
:103DE000BB278EBD0DB407FEFDCF77276F2D5E2D4F
:103DF0004D2D4EBD0DB407FEFDCFCEBC0DB407FE5C
:103E0000FDCFCC2321F0C83021F081E003C085E94B
:103E100001C087E88EBD0DB407FEFDCFCC3011F494
:103E20000E94161ECAE00E94161E87FF04C0C150E1
:103E3000D1F701C08FEFCF91FF90EF90DF90CF903F
:103E400008950F931F93CF93DF93EC01DB01CA0119
:103E50000297A109B1094A8D5B8D6C8D7D8D425011
:103E600050406040704084179507A607B70798F444
:103E70002A8130E040E050E0BC01CD010E94C487BF
:103E80008B019C018AA59BA5ACA5BDA5080F191F98
:103E90002A1F3B1F04C000E010E020E030E0B80122
:103EA000C901DF91CF911F910F91089583B183B123
:103EB00083B183B10895EF92FF921F93CF93DF9365
:103EC0000F92CDB7DEB7F8E0EF2EF12C10E8912F6E
:103ED000982311F0519801C0519A89830E94561F6E
:103EE00050980E94561F509A0E94561F169508948B
:103EF000E108F1088981E114F10449F751980E9421
:103F0000561F509819B10E94561F509A0E94561F72
:103F100081E090E011FF02C080E090E00F90DF911F
:103F2000CF911F91FF90EF900895519A0E94561FD4
:103F300050980E94561F51980E94561F08955198FC
:103F40000E94561F50980E94561F519A0E94561F59
:103F5000509A0E94561F08952F923F924F925F925F
:103F60006F927F928F929F92AF92BF92CF92DF9289
:103F7000EF92FF920F931F93CF93DF93CDB7DEB7EE
:103F80002A970FB6F894DEBF0FBECDBF2B013C01C0
:103F900029833A834B835C831E830D83F886EF82EB
:103FA000DA86C9861401DC01CB01E2E0B595A7955C
:103FB00097958795EA95D1F7AC0145525E4FD301AD
:103FC000C20183709070A070B07021E030E0009763
:103FD000A105B10511F020E030E06A01C21AD30A50
:103FE000A501559547955595479545525E4F9501C5
:103FF0002370307081E090E02115310511F080E0F0
:1040000090E08A01081B190B29E130E0C601B901D3
:104010000E940388991F9927991F4B01891A9108BB
:10402000C801B9010E940388991F9927991F7B0134
:10403000E91AF108C501AA2797FDA095BA2FA30197
:104040009201281B390B4A0B5B0BCA01B9012DE603
:1040500031E040E050E00E94C487AB01BC0189819F
:104060009A81AB81BC81480F591F6A1F7B1FC10118
:10407000AA2797FDA095BA2F481B590B6A0B7B0BFB
:104080009601201B310BC70188199909280F391F88
:10409000F401F595E795F595E795C7019595879511
:1040A00095958795E81BF90B2E0F3F1FC901AA278D
:1040B00097FDA095BA2F480F591F6A1F7B1FCB0190
:1040C000BA0128E130E040E050E00E94C487AB0133
:1040D000BC012D813E81C901AA2797FDA095BA2F69
:1040E000480F591F6A1F7B1F88A199A1AA2797FD16
:1040F000A095BA2F481B590B6A0B7B0BCB01BA0159
:104100002CE330E040E050E00E94C487DC01CB01AA
:104110002F813885A901662757FD6095762F840F7A
:10412000951FA61FB71F2AA13BA1A901662757FD0E
:104130006095762F841B950BA60BB70BBC01CD01A8
:104140002CE330E040E050E00E94C4878B019C01EA
:1041500049855A85CA01AA2797FDA095BA2F080F4D
:10416000191F2A1F3B1F8CA19DA1AA2797FDA0956F
:10417000BA2F081B190B2A0B3B0BB801C9012A9651
:104180000FB6F894DEBF0FBECDBFDF91CF911F9168
:104190000F91FF90EF90DF90CF90BF90AF909F90E6
:1041A0008F907F906F905F904F903F902F900895E9
:1041B0000F931F938B019C0103701070207030705F
:1041C0000115110521053105B1F424E630E040E088
:1041D00050E00E943888DC01CB010097A105B105B1
:1041E00061F4237030704070507081E021303105EF
:1041F0004105510519F080E001C081E090E01F9178
:104200000F9108958F7090E0FC01EE0FFF1FE80FF3
:10421000F91FEE54F44F83E6828380818F7C808384
:104220000895803191057CF4FC01EE0FFF1FE80F2B
:10423000F91FEE54F44F90819F7081E09F3009F494
:104240004AC080E008958431910571F1853191056E
:104250008CF48131910509F18231910524F480318A
:104260009105A1F52DC08231910589F08331910529
:1042700069F516C08631910569F086319105D4F053
:1042800087319105D9F08831910501F51CC096B1AF
:1042900090741DC096B190781AC092B3917017C0F7
:1042A00091E0939B14C012C0939B10C091E01C99A5
:1042B0000EC00CC091E01C9B0AC008C092B304C0A1
:1042C00092B3947004C093B1907201C090E081E009
:1042D000992309F480E00895EF92FF920F931F93C2
:1042E000CF93DF93F82E882349F48091A00B90910F
:1042F000A10B892F881F8827881F83C1992787FDD5
:10430000909597FF03C0909581959F4F863109F452
:1043100071C18A3028F490E00F960E9411216BC180
:104320008A50282F30E08901000F111F020F131F40
:10433000065F1E4ED80112969C911297992309F49C
:104340005FC112969C911297953040F012969C9105
:104350001297983008F45CC122E001C020E0D80137
:10436000EC91E150E73008F44BC054C020919E0B13
:1043700030919F0B2C233D2381E02115310541F520
:1043800032C08091A00B9091A10B8C2B9D2B909310
:10439000A10B8093A00BF80180810E946C21E82E74
:1043A000D80111968C910E946C21F8019281953070
:1043B00019F0963049F403C0EE20A9F002C0EE20B7
:1043C00031F4882321F40FC08E2569F001C081E00B
:1043D00020919E0B30919F0B2C2B3D2B30939F0BEC
:1043E00020939E0B08C180919E0B90919F0BC095CE
:1043F000D095C823D923D0939F0BC0939E0BF8C0B0
:1044000080918C0C8823E9F5F0E0EE0FFF1FE65455
:10441000FA4F31C0E93090F1E03190F4F0E0DF0183
:10442000AA0FBB1FA253B44FEE0FFF1FEC5DF94F55
:104430004D915C91119780819181481B590B09C066
:10444000E43150F4F0E0EE0FFF1FE253F44F4081EF
:104450005181440F551F17C0E43230F4F0E0EE0FE5
:10446000FF1FE455F34F07C0E63258F4F0E0EE0FBB
:10447000FF1FE751FB4F4081518105C040E054E0F0
:1044800002C040E050E0D8012223C9F58C9185326A
:104490004CF011962C911197332727FD30952E590A
:1044A0003F4F15C0F801818129E282029001112459
:1044B000359527953595279587FD815C86FB880F77
:1044C000880B80F9992787FD9095281B390BD80117
:1044D00012968C911297823009F47CC0833019F0C7
:1044E000813039F473C057FF70C0509541955F4FCC
:1044F0006CC057FF6FC0509541955F4F6BC01196D0
:10450000EC911197E150E73058F480918C0C88239E
:1045100009F03FC0F0E0EE0FFF1FE654FA4F33C042
:10452000E930A0F1E031A0F48E2F90E0FC01EE0F15
:10453000FF1FE253F44FDC01AA0FBB1FAC5DB94F64
:10454000208131818D919C911197281B390B09C0D5
:10455000E43150F4F0E0EE0FFF1FE253F44F2081FE
:104560003181220F331F17C0E43230F4F0E0EE0F38
:10457000FF1FE455F34F07C0E63258F4F0E0EE0FAA
:10458000FF1FE751FB4F2081318105C020E034E05F
:1045900002C020E030E0F8018281893089F08A3061
:1045A00018F4883009F507C08A3079F08B3091F023
:1045B0008C30D1F414C081E042175307C9F41BC0FA
:1045C00081E042175307B9F413C081E0241735077F
:1045D00094F00EC081E0421753076CF009C081E0EF
:1045E0004217530744F404C081E0241735071CF434
:1045F00080E001C081E01F1424F091E0892701C010
:1046000080E0DF91CF911F910F91FF90EF9008957F
:10461000C1E0D0E002C0CC0FDD1F8A95E2F78091A7
:10462000A00B9091A10B8C239D23009709F09ECEA7
:10463000A8CE362F37953327379520E03093A10B3E
:104640002093A00B0E946C210895FF920F931F935B
:10465000CF93DF93C1E0D0E00DE010E0FC2EC09FCF
:10466000F001C19FF00DD09FF00D1124EF59FE4EC7
:104670008581882329F060E00E941923882329F48A
:104680002196C530D10551F7FF248F2DDF91CF91B1
:104690001F910F91FF900895CF93DF9300D00F9259
:1046A000CDB7DEB7282F30E0F901EE0FFF1FE20F84
:1046B000F31FDE011196E559FD4F93E001900D9235
:1046C0009150E1F7462F50E0F901EE0FFF1FE20F86
:1046D000F31F9A01220F331FD901A40FB51FE5590B
:1046E000FD4FA559BD4F93E00D9001929150E1F718
:1046F000F901E40FF51FE559FD4FDE01119693E036
:104700000D9001929150E1F791E0909366026C83D5
:104710000E9472676C81862F0E94726710926602F7
:104720000F900F900F900F90DF91CF910895CF933E
:10473000DF93EC010E94B0430097A9F54E855F8599
:1047400068897989888199810E94AE5D009759F5C1
:10475000EA89FB898081853E49F1882339F1CE01C0
:1047600061E070E00E947B42E7CFAA89BB89FD012E
:1047700020E230E001C01192215030404FEF2F3F36
:104780003407C9F7EC89FD892BE030E002C0419184
:104790004D93215030404FEF2F3F3407C1F7E88150
:1047A000F98121E02483DF91CF9108954E855F85C3
:1047B00068897989888199810E94AE5D009799F70F
:1047C000D4CF4F925F926F927F92BF92CF92DF923F
:1047D000EF92FF920F931F93CF93DF93CDB7DEB786
:1047E000A4970FB6F894DEBF0FBECDBF2DEB32E01D
:1047F0003A8329831092D4021092D3024FE1B42E4F
:10480000B822482F4E71CE010196BE01615F7F4FE5
:104810000E942B529E012D5F3F4F3CA32BA300977C
:1048200031F469817A81CE010F960E948D1A09A117
:104830001AA1009729F40115110511F486E090E002
:104840004B2D50E09A012C7130702115310509F47F
:104850006FC0009779F08430910521F4CE010F9656
:104860000E94972309A11AA1009709F0FCC088E0D3
:10487000B82A09C0B2FC0BC1D8011B968C911B97BA
:10488000817109F00AC1B3FE60C00E94103DF801B9
:1048900066877787808B918B1386148E158E168E84
:1048A000178E958980E0C488DD24C82AD92AEE2491
:1048B000FF247601DD24CC24338D20E0828D90E02E
:1048C000822B932BA0E0B0E0C82AD92AEA2AFB2A3F
:1048D000128E138E148A158A8F85988921E0DC0147
:1048E00014962C931497C114D104E104F10469F1D6
:1048F0009E964D905D906D907C90D197B701A601EA
:104900000E941941009709F0AEC08F8598890894DC
:10491000C108D108E108F108FC01C286D386E4860B
:10492000F586B301A2010E94AE5D009771F09BC0B5
:10493000009709F098C0D8011B968C911B9784FDB5
:10494000A9C0B1FE02C080FDA8C0B3FE02C0B0E2A3
:10495000BB2AEF85F88986A597A5A0A9B1A9809360
:10496000ED029093EE02A093EF02B093F002109349
:10497000F2020093F102B092D702D80155969C91B1
:10498000559780E054964C91549750E0482B592B02
:1049900060E070E0BA01552744275B963C915B9735
:1049A00020E05A968C9190E0822B932BA0E0B0E00F
:1049B000482B592B6A2B7B2B4093E1025093E20248
:1049C0006093E3027093E402D8015F964C915F9785
:1049D00050E060E070E0742F6627552744275E960C
:1049E0008C9190E0A0E0B0E0DC0199278827482B6B
:1049F000592B6A2B7B2BD8015C968C9190E0A0E020
:104A0000B0E0482B592B6A2B7B2BD8015D969C91EB
:104A100080E0A0E0B0E0482B592B6A2B7B2B409321
:104A2000DD025093DE026093DF027093E002109289
:104A3000D9021092DA021092DB021092DC0210927C
:104A4000E9021092EA021092EB021092EC02F0934B
:104A5000D402E093D302868197819093D60280930B
:104A6000D50280E090E0A4960FB6F894DEBF0FBEAA
:104A7000CDBFDF91CF911F910F91FF90EF90DF900D
:104A8000CF90BF907F906F905F904F90089588E097
:104A900090E0E9CF84E090E0E6CF87E090E0E3CFDC
:104AA0002F923F924F925F926F927F928F929F923E
:104AB000AF92BF92CF92DF92EF92FF920F931F932C
:104AC000CF93DF93CDB7DEB7A8970FB6F894DEBFCC
:104AD0000FBECDBF182F803108F0DDC18F5F0E945F
:104AE000923D8EED9EE066ED72E00E949A3C00974A
:104AF00031F4812F0E947E3E81E00E944C5780E07D
:104B00000E94296A81E00E94296A8091D3029091D3
:104B1000D402009741F00E94BB51009721F41092FB
:104B2000D4021092D302109225058DEB92E060E53D
:104B300077E00E945788809137068F5F6AE00E9475
:104B4000E387905D9093C802805D8093C702E091F7
:104B5000BB02F091BC02309709F010821092F30270
:104B600083EF92E09093BC028093BB0281E00E94AD
:104B7000E123009731F50E94BB51009721F4109278
:104B8000D4021092D3028091CC028F5F8093CC022A
:104B90008A3364F320E32093CC028091CB028F5FB1
:104BA0008093CB028A3314F32093CB028091CA0204
:104BB0008F5F8093CA028A33CCF280E38093CA026B
:104BC0006AC18430910509F466C18530910509F008
:104BD00032C187E192E09A8389830E94103D6B0184
:104BE0007C01CE010196BE01615F7F4F41E00E94D2
:104BF0002B52009709F015C1E3E0F0E0EC0FFD1F28
:104C0000FCA3EBA369817A81CE010F960E948D1AD5
:104C1000009761F08430910509F000C1EBA1FCA17F
:104C2000838585FF1BC186E090E0F8C088E090E0B6
:104C3000F5C0F1E08F169104A104B10409F4D0C0CD
:104C40002FEF82162FEF92062FEFA2062FEFB2065C
:104C500009F4C6C014C10F851889C801B501A401A3
:104C60000E94211F2B013C01E2E32E2E312C200E4D
:104C7000311EF10180E092E001C0119201972FEF07
:104C80008F3F9207D1F7F1018BE090E002C020E264
:104C9000219301972FEF8F3F9207C9F72EE2F8017A
:104CA00022AB80E185AFCDA2E85BFF4FC0828D2DA6
:104CB00099278EA3F801E75BFF4F8083C701AA27DE
:104CC000BB278FA3F801E65BFF4F80838F2D9927C9
:104CD000AA27BB2788A7F801E55BFF4F8083C82C74
:104CE000F801E45BFF4F8082892D9927D82EF801C7
:104CF000E35BFF4F8083C501AA27BB27E82EF8019D
:104D0000EA5BFF4F8083892F9927F82EF801E95B32
:104D1000FF4F8083F801EE5AFF4FD10181E290E00E
:104D200002C02D9121930197E1F7F801ED5AFF4F51
:104D30009EE290834D895E896F89788D2F853889B1
:104D4000F9018081833069F486A197A1A0A5B1A55E
:104D5000481759076A077B0721F440E050E060E0FC
:104D600070E0F801E459FF4F4083F801E359FF4F29
:104D70005083AB0166277727F801EA59FF4F40833C
:104D8000F801E959FF4F5083F901128101E020C079
:104D90008F859889FC0146A657A660AA71AA04834C
:104DA00040E050E060E070E00E94AE5D0097C1F42A
:104DB000F10180E092E001C0119201972FEF8F3F47
:104DC0009207D1F70894411C511C611C711C1150B1
:104DD0001123F1F6CE010F960E949723009739F028
:104DE0008F859889B501A4010E9419411AC0E9A1D3
:104DF000FAA180E183872DA1268B2EA1278B2FA1DD
:104E0000208F28A5218FC28ED38EE48AF58A8F85C4
:104E1000988921E0FC0124830E942451009709F421
:104E2000A5CE8DEB92E065E677E00E9457888BEF88
:104E30008093250530C0282F2195209325058330A8
:104E4000910529F48DEB92E06BE777E004C08DEBE0
:104E500092E061E977E00E9457881DC08F859889AC
:104E600040E050E060E070E00E9499414B015C013D
:104E7000611571058105910509F0DBCEB1CF8F85F4
:104E8000988940E050E060E070E00E94AE5D0097DD
:104E900009F4E1CEA5CFA8960FB6F894DEBF0FBEF9
:104EA000CDBFDF91CF911F910F91FF90EF90DF90D9
:104EB000CF90BF90AF909F908F907F906F905F90BA
:104EC0004F903F902F9008957F928F929F92AF9234
:104ED000BF92CF92DF92EF92FF920F931F93CF93E7
:104EE000DF93CDB7DEB7A0970FB6F894DEBF0FBE45
:104EF000CDBF782E80E060E04BE057E022E00E94DA
:104F00008B6B0E94DA568091A30B882329F1809144
:104F1000AC0B8F5F482F50E09A01220F331F240FF4
:104F2000351FF901E959FD4F148125593D4F93E093
:104F3000D9011D929A95E9F791E0909366020E943B
:104F40007267112319F0812F0E943F691092660247
:104F50001092A30B1092AE0B8091AF0B9091B00BFF
:104F6000009711F010E001C0172D8091AE0B88233F
:104F700071F4809137068F5F90E0FC01EE0FFF1F08
:104F8000E80FF91FE959FD4F8481882339F4812FF7
:104F90008F71813019F4812F815001C0812FD09001
:104FA000AC0B60E040E050E020E00FE00E943844AD
:104FB000882309F45CC3E090AC0BCE2C80E360E066
:104FC00043E157E00E94926B8091690240E050E01B
:104FD00008C0415F5F4F4F8F58A30E94286958A1B6
:104FE0004F8D8823B1F786E660E020E00E946B17C2
:104FF00080E06AE042E00E941018163678F4143619
:1050000008F086C11132F1F1123220F4103209F0A9
:10501000E9C15FC0123608F4E5C191C1113891F0C1
:105020001F3B21F0103809F0DDC153C0C090370696
:10503000C092AC0B1092AE0B1092AB0B8FEF809323
:10504000A90BD0C18091AE0B8823E1F08091AB0B0E
:105050008823C1F42091370630E08E2D992787FDF3
:1050600090952817390771F08E2D8F5F90E0FC0125
:10507000EE0FFF1FE80FF91FE959FD4F84818823C8
:1050800009F0E2C28091AE0B882309F4ABC18230F3
:1050900021F0C090A90BC7FE11C08E2D992787FD66
:1050A000909540962091AB0B332727FD3095820FCA
:1050B000931F60E170E00E940388C82EC092AC0B81
:1050C0001092AE0B8FEF8093A90B1092AB0B812F38
:1050D000C2C28091AE0B882309F4DAC09091AB0B69
:1050E000992321F49091A90B97FDD2C0813019F436
:1050F0008AE297E002C083E397E09093B00B80933D
:10510000AF0B0E94285D1092B00B1092AF0B0E9463
:10511000AF6781E00E944C578E2C992487FC9094B5
:10512000C40140962091AB0B332727FD3095820FA9
:10513000931F60E170E00E940388182F0091AE0B6E
:10514000013009F059C08091A90B8F5F89831B82C0
:105150001A8290E0FC01EE0FFF1FE80FF91FE959DA
:10516000FD4F84818C831D821092A20B81E10E94ED
:10517000923D10929F0280E28093A002812F8F5F68
:105180008093C905009366020FC089EC95E0BE01CB
:10519000605F7F4F0E9479578091A20B882321F096
:1051A000109266021E2D28C0CE010196BE01605FDE
:1051B0007F4F4FE050E00E94303C482F882329F772
:1051C0008091CC05882331F00E942869082F88231C
:1051D00009F044C28091CA0580939F029091CB054B
:1051E0009F708091A002807F892B8093A002809184
:1051F000C90561E10E944C23809137068093A90B79
:1052000030E1C32ED12C26C08091AB0B18161CF4B4
:10521000C5010F9602C0C5010196B6010E94038820
:10522000E82E682F6F5F812F8F5F0E944C232091A3
:10523000A90B332727FD3095A216B30619F4E09287
:10524000A90B07C04E2D50E04217530711F41093DD
:10525000A90B1E2DA12EBB248A149B04A9F64091F4
:10526000A90B242F332727FD30958091370690E036
:105270002817390729F04093370681E00E945969C1
:105280001092AE0B8FEF8093A90B1092AB0BEFC176
:10529000103849F582E497E09093B00B8093AF0B00
:1052A0000E94285D1092B00B1092AF0B0E94AF6766
:1052B00081E00E944C572091370630E08E2D9927CF
:1052C00087FD90952817390741F0E092370681E075
:1052D0000E9459698E2D0E9450251092AE0B872D89
:1052E0000E940221C4C1E394FF24F701EE0FFF1FC7
:1052F000EE0DFF1DE959FD4F9481992309F472C009
:10530000813011F482E001C081E08093AE0B6AC06D
:10531000FF24E7FCF0948091370690E0E816F90648
:1053200051F4143619F089E398E502C08CEA9CE048
:105330000E9456669CC181E00E94D76453C0909140
:10534000AE0B992309F44EC08091AB0B133611F4C8
:105350008F5F01C08150803111F0803F09F480E0FF
:105360002091A90B27FF3CC09130D1F50D2DD09293
:10537000A90B90E1E92EF12CAD2CBB24802F9927AD
:1053800087FD9095123611F4419601C00F96B70132
:105390000E940388082F282F2F5F30E0F901EE0FBD
:1053A000FF1FE20FF31FE959FD4F8481882341F06D
:1053B000802F992787FD90958A159B05F9F60FEFA9
:1053C0000093AC0B0F3F49F481E00E94D764D09268
:1053D000AC0B1092AE0B0093A90BC090AC0B80E00D
:1053E0008093AB0BAC2CBB24A7FCB0948091A70B93
:1053F0009501281B3109C901181619063CF0C50191
:10540000019797FF0DC080E090E00AC0263031057B
:105410004CF0C50104978A30910514F089E090E0C2
:105420008093A70BB8E0DB2E882499241091A70B5A
:10543000180DE12EFF24A7014F5F5F4F8091AE0B47
:10544000882319F4AE14BF0411F020E101C022E159
:1054500084E16D2D02E00E945B158091AE0B8230DD
:1054600039F0813009F054C09091A90B97FD50C0DC
:10547000EA14FB0471F4813041F41091A90B8AE71E
:105480006D2D4BE20E94246943C01091AB0B1C0DA3
:105490003FC04091AB0B47FF1DC0EA14FB044CF426
:1054A000842F992787FD90958A0D9B1DE816F90694
:1054B0007CF497012F503040A216B3064CF1842F94
:1054C000992787FD90958A0D9B1D8217930704F5F8
:1054D0001F5F1EC04423E1F0AE14BF044CF4842FC0
:1054E000992787FD90958A0D9B1D8E159F057CF44D
:1054F0009701215F3F4F2A153B0554F0842F9927D0
:1055000087FD90958A0D9B1D281739070CF4115FB4
:105510001F70812F8F5F90E0FC01EE0FFF1FE80FDF
:10552000F91FE959FD4F8481882359F1812FBE016C
:105530006A5F7F4F0E94AC3D7C0188E16D2DAE011A
:105540004A5F5F4F212F00E00E94CD1688E76D2D46
:10555000A70120E00E946B1780913706181789F485
:105560008091A90B87FD08C08091A70BD401A80FDB
:10557000B11DAA15BB0529F081E06D2D4AE20E94FC
:1055800024698091AE0B8823F1F08091A70B9401E0
:10559000280F311DA216B306B1F489E06D2D46E740
:1055A00027E000E00E94EF146D2D61508091AE0B5A
:1055B000813011F40FEF01C005E588E048E729E0EC
:1055C000EE240E94F15B0894811C911C38E0D30EFC
:1055D00080E4D81609F02ACF8091AF0B9091B00BE0
:1055E000009709F444C08E010A5F1F4F8C2DB8014B
:1055F0000E94AC3D1093A50B0093A40B8AE080930E
:10560000A60B1092A30B0E94285D80E160E2A80126
:105610002AE000E20E94BD6A80E168E248EB5AE0BD
:105620000E94926BA0E67A1621F0B1E67B16F9F49F
:1056300003C081E08093A30B872D0E94022110926A
:10564000B00B1092AF0B13C089E197E09093B00BB1
:105650008093AF0B81E80E940221C4CE8091CC05DB
:1056600060E00E948267802F0E943F69B3CDA096C0
:105670000FB6F894DEBF0FBECDBFDF91CF911F9163
:105680000F91FF90EF90DF90CF90BF90AF909F90E1
:105690008F907F9008952F923F924F925F926F92DA
:1056A0007F928F929F92AF92BF92CF92DF92EF92B2
:1056B000FF920F931F93CF93DF9300D000D0CDB70D
:1056C000DEB7C82E6C838091AF0B9091B00B009722
:1056D00011F0BB2401C0BC801B2D1F718091AE0B4B
:1056E000FB2C882319F0113009F4FA94CC2019F01E
:1056F00045EE5AE002C04DEE5AE080E060E022E064
:105700000E948B6B8C2D0E94C73E482F8091AD0B61
:10571000815F60E050E020E00E946B178091AD0B4C
:10572000CC2019F044EF5AE002C048EF5AE060E0A4
:105730000E94926BCC2011F064E001C065E0009102
:10574000210201508F2D49EC5AE02AE00E94384492
:10575000882309F47CC48090AC0B23E62B15A0F0C1
:1057600032E6B31608F014C141E2B41699F14B15B4
:1057700028F050E2B51609F086C157C08B2D82542F
:10578000823008F080C104C185E88B1568F094E888
:10579000B91608F0B0C0E0E8BE1609F47FC0F1E821
:1057A000BF1609F070C106C08B2D8E5B823008F0E9
:1057B0006AC136C08091AE0B882349F08091AB0B53
:1057C000882329F48C2D6091AA0B0E940D3F81E85B
:1057D0000E9402218091AB0B882311F18091AE0BC6
:1057E000813031F48C2D6091AA0B0E940D3F14C0C2
:1057F0001091AB0B61E011160CF060E08C2D0E9453
:10580000685017FF02C01F5F01C011501093AB0B0F
:105810008091AB0B882361F78090A90B8092AC0B31
:105820001092AE0B1092AB0B2EC18091A80B882367
:1058300041F08091AE0B882389F18091AB0B8823D6
:1058400069F58091AE0B813011F482E001C081E0F6
:105850008093AE0B8091AA0B8093FB0B90E0FC0130
:10586000CC2061F0EE0FFF1FEE0FFF1FEE59FF4E31
:1058700080818695869583708F5F0BC023E0EE0F45
:10588000FF1F2A95E1F7E80FF91FEE50F14F8081D5
:105890008F718093FC0B8092A90BF5C08091AB0BAC
:1058A000882341F01092AE0B1092AB0B8B2D0E940F
:1058B0000221E9C08091AE0B882311F01092A80B51
:1058C0008091A80B882359F08C2D0E94ED3E8823EF
:1058D00009F0D9C08C2D6091AA0B0E94643FCC20A6
:1058E00019F08EE599E302C080E998E40E94C14076
:1058F0001092AE0BACC38091AE0B882309F4C3C0E9
:105900008091AB0B882309F0BEC08C2D0E94ED3E28
:10591000882309F0B8C0E091AA0BCC2069F0F0E030
:10592000EE0FFF1FEE0FFF1FEE59FF4E8081869591
:10593000869583708F5F0EC08E2F90E0FC0113E080
:10594000EE0FFF1F1A95E1F7E80FF91FEE50F14F28
:1059500080818F718093A80B24E8B21629F480917E
:10596000AA0B8F5F8093AA0B8C2D6091AA0B0E94CB
:10597000643FCC2019F08EE599E302C080E998E4F9
:105980000E94C1401092AE0B8B2D0E9402215FC37A
:105990008091AE0B882309F476C09091AB0B092F50
:1059A000133011F4015001C00F5F992309F04FC06B
:1059B000813009F04CC08C2D0E94ED3E882309F007
:1059C00062C04091AA0B50E0BA01CC2089F0660F6A
:1059D000771F660F771F6E597F4E40955095425F37
:1059E0005F4F440F551F440F551FCB01049617C03E
:1059F000E3E0660F771FEA95E1F7640F751F6E50BD
:105A0000714FCA01809590958096AC01F3E0440FE8
:105A1000551FFA95E1F7480F591FCB0109960E94CF
:105A20005E8882E00E945969123021F48091AA0BAD
:105A30008F5F1BC02091A70B882D90E0821B9109DE
:105A400086309105F4F02F5F2093A70B1AC0002336
:105A500079F4813069F48C2D6091AA0B0E940D3F7E
:105A6000133079F48091AA0B81508093AA0B09C05E
:105A700061E0133009F060E08C2D0E9468508823AB
:105A800011F00093AB0B1092A80BAA24A3949924B5
:105A9000DD24D3949BC2CC20F1F03DE03915B0F168
:105AA000692C7724660C771C660C771C42E650E163
:105AB000640E751EF3012081822F86958695837072
:105AC00090E0019649815A8184179507F9F4237073
:105AD00009F0B2C21BC05FE15915C0F0892D90E0FA
