:100000000C942D0C0C94550C0C94550C0C94550C14
:100010000C94550C0C94550C0C94550C0C94550CDC
:100020000C94550C0C94550C0C94550C0C94550CCC
:100030000C94CD380C94550C0C94550C0C947A36C9
:100040000C94B1390C94550C0C948F370C94550CBE
:100050000C94550C0C94550C0C9499380C94550C2C
:100060000C94550C0C9432390C94550C0C94550C82
:100070000C94550C0C94550C0C94550C0C94550C7C
:100080000C94550C0C94550C0C94550C46164D16AE
:1000900069166E1675167D1679167D1683168716E7
:1000A0008C169116A716AF16B316B716BD16C41642
:1000B000CB16D116DC16E016E616F1160B1728172C
:1000C00040175117691783178E17B017B71701021A
:1000D0000304010302040402030104030201426158
:1000E0006420454570726F6D204461746100466FF5
:1000F000726D61747461676520454550524F4D00C3
:100100004D45535341474500535053008040000034
:1001100000000000000000000000000000000000DF
:1001200000000000000000000000000000000000CF
:1001300000000000000000000000000000000000BF
:1001400000000000000000000000000000000000AF
:10015000000000000000000000000000000000009F
:10016000000000000000000000000000000000008F
:10017000000000000000000000000000000000007F
:100180000000000000000000000000000000FCFC77
:10019000FCFCFCFCFCFCFCFCFCFCFCFCFCFCFCFC9F
:1001A000FCFCFCFCFCFCFCFCFCFCFCFCFCFCFCFC8F
:1001B000FCFCFCFCFCFCFCFCFCFCFCFCFCFCFCFC7F
:1001C000FCFCFCFCFCFCFCFCFCFCFCFCFCFCFCFC6F
:1001D000FCFCFCFCFCFCFCFCFCFCFCFCFCFCFCFC5F
:1001E000FCFCFCFCFCFCFCFCFCFCFCFCFCFCFCFC4F
:1001F000FCFCFCFCFCFCFCFCFCFCFCFCFCFCFCFC3F
:10020000FCFCFCFCFCFCFCFCFCFCFCFCFCFCFFFF28
:10021000FFFFFFFFFFFFFF7F7F3F3F3F3F3F3F7FEE
:100220007FFFFFFFFFFFFFFFFF3F3F3F3F3FFF7F9E
:100230007F3F3F3F3F7FFFFFFFFFFFFFFFFFFF7F4E
:100240007F3F3F3F3F3F3F7F7FFFFFFFFFFFFFFFBE
:10025000FFFF3F3F3F3F3FFF7F3F3F3F3F3F7FFF2E
:10026000FFFFFF7F0F07030181E0F0F0F0E00001E6
:1002700001071FFFFFFFFFFFBF3F3F3F3F7FFFFF24
:10028000FFFFFF7F3F3F3F3F3FBFFFFFFFFFFFFFFE
:10029000FFFF3F07030100C0F0F8FCFCFCFCF80086
:1002A00000000103FFFFFF3F0100000080E0F8FCB9
:1002B000FCFCF80000000001FFFF3F070301000005
:1002C00010181C1C1C1C180000000103FFFFFFFF7E
:1002D0001F00000000C0F8FCFCFC1000000000C083
:1002E000FFFFFFE0800000000F1F1F1F0F03000033
:1002F0000000E0FFFFFFFFFFFFFEF8E00000010746
:10030000070180E0F0F8FCFEFFFFFFFFFFFFFFFFAB
:10031000FFFFE0C08000000F1F1F1F1F0F0701809D
:10032000C0E0F0FEFFFF0700000000C00F1F1F1F0E
:100330000F07010080E0F0FEFFFFE0C08000000E2C
:100340000E1E1E1E1E1E1E1E0ECEFEFEFFFF7F0375
:1003500000000080FCFFFFFF3F0300000080FCFF67
:10036000FF1F0F0F1F1F1E1E1E0E0E0781C0E0F085
:10037000FCFFFFFFFF7F3F1F0F030180E0F0F8E06D
:10038000800001071F7FFFFFFFFFFFFFFFFFFFFF51
:10039000FFFFFFFFFFFFFFFEFEFEFEFEFEFFFFFF73
:1003A000FFFFFFFF1F00000000C0FEFFFFFEFEFE7C
:1003B000FEFEFFFFFFFFFFFFFFFFFFFFFFFFFFFE50
:1003C000FEFEFEFEFEFEFEFFFFFFFFFFFFFFFEFE46
:1003D000FEFEFEFFFFFFFFFFFEFEFEFEFEFFFFFF35
:1003E000FFFFFFFEFEFEFEFEFEFEFFFFFFFFFFFF24
:1003F000FFFFFFFFFEFEFEFEFEFEFFFFFFFFFFFF13
:10040000FFFEFEFEFEFEFFFFFFFFFFFFFFFF1F1FC1
:100410001F1F1F1F1F1F1F1F1F1F1F1F1F1F1F1FEC
:100420001F1F1F1F1F1F1F1F1F1F1F1F1F1F1F1FDC
:100430001F1F1F1F1F1F1F1F1F1F1F1F1F1F1F1FCC
:100440001F1F1F1F1F1F1F1F1F1F1F1F1F1F1F1FBC
:100450001F1F1F1F1F1F1F1F1F1F1F1F1F1F1F1FAC
:100460001F1F1F1F1F1F1F1F1F1F1F1F1F1F1F1F9C
:100470001F1F1F1F1F1F1F1F1F1F1F1F1F1F1F1F8C
:100480001F1F1F1F1F1F1F1F1F1F1F1F1F1F0000BA
:10049000000000000000000000000000000000005C
:1004A000000000000000000000000000000000004C
:1004B000000000000000000000000000000000003C
:1004C000000000000000000000000000000000002C
:1004D000000000000000000000000000000000001C
:1004E000000000000000000000000000000000000C
:1004F00000000000000000000000000000000000FC
:100500000000000000000000000000000000535048
:100510004500454550524F4D206C6F77206D656DFD
:100520000047617A207061732061207A65726F00E4
:100530005265696E697469616C6973657A206C656E
:1005400000537769746368657320656E636C656ECC
:1005500063686573005265696E697469616C69737B
:10056000657A206C657300416C61726D657320441F
:100570006573616374697665657300417070757940
:10058000657A2073757220746F756368650020202A
:10059000475053204E4D45412064617461203F2FE8
:1005A0003420200063005056004D4F44454C450018
:1005B00050504D00434800544D52004D6F6465004B
:1005C00000030303030303030303030303030303FE
:1005D000034C494D49544553000002494E5445527D
:1005E000532050455253000002494E544552532067
:1005F000464F4E4354494F4E530000000000000048
:100600000000000000000000000000000000FF01EA
:10061000434F4E46494720524144494F005370656D
:10062000616B6572204D6F646500537065616B6529
:1006300072204C656E67746800537065616B6572FB
:1006400020506974636800436F6E747261737465DF
:1006500000416C61726D65204261747465726965F8
:1006600000416C61726D6520496E616374697669E1
:1006700074650046696C7472652041444300496E9C
:1006800076657273696F6E2047617A0042697020E7
:10069000742E6D696E7574657300426970206120F7
:1006A0007265626F75727300466C61736820717554
:1006B000616E642062697000496E746572206563C2
:1006C0006C6169726167650045636C6169722E20B7
:1006D0006F666620617072657300456372616E209B
:1006E00064276163637565696C00416C657274654C
:1006F0002047617A00416C6572746520496E7465AB
:100700007200416C65727465204D656D6F6972652C
:1007100000416C6572746520416C61726D65004FBB
:100720007264726520566F69657320527800414C7F
:100730004552544500446570617373656D656E7410
:1007400020454550524F4D00546F756368652070C9
:100750006F757220636F6E74696E756572005354A5
:1007600041545300544D310D544D32005448520DF4
:1007700054482500544F5400444542554700746D79
:1007800072314C6174206D617804757300746D7200
:10079000314C6174206D696E04757300746D723133
:1007A000204A697474657204757300746D61696EB2
:1007B000206D6178066D7300467265652053746123
:1007C000636B206D696E0462005B4D454E555D7034
:1007D0006F7572207265736574005554432D5469AA
:1007E0006D652020202020205361740054696D65C0
:1007F00072004461746500416C74697475646520AD
:100800005361742020204D617800486F6D65004C65
:100810006966740042656570004F4E004F464600A1
:100820002F530047726E6453706565645B6B6E7422
:100830005D202053617400436F75727365206F767D
:1008400065722067726F756E64004C6174697475AF
:1008500064652020202020536174004C6F6E67690E
:100860007475646500120800081C0808081C08005C
:1008700000082200490022080000000000227F2218
:100880000000000822004900220800000822004958
:10089000002208000000227F220000000000082241
:1008A00000490022080000081C0808081C08004D28
:1008B0004958455552002F3134002F333200434FF1
:1008C00055524245530043560056455253494F4EE8
:1008D00000564552533A2056322E30302D002053C8
:1008E000564E3A207472756E6B2D7233353000445B
:1008F0004154453A20323031322D30332D313100E0
:1009000054494D453A2032303A30383A3336004572
:100910004550524F4D20760044494147005472697A
:100920006D2D202B00414E4100410042470053579E
:1009300000EA1FC239822BB62B462CDD31408008DD
:10094000042010020143414C4942524154494F4E48
:10095000005B4D454E555D504F5552204445425524
:100960005400534554204E4555545245005B4D4567
:100970004E555D5175616E64205052455400424F92
:1009800055474552204D414E434845532F504F54F3
:1009900053200044522F4558504F00034F46464FB6
:1009A0004E20032D2D2D494E560434434820364306
:1009B00048203843482031304348313243483134AD
:1009C00043483136434806517569657420416C616E
:1009D000726D734E6F4B657920546F7574202006CD
:1009E0007853686F727453686F7274204E6F726DB3
:1009F000616C4C6F6E672020784C6F6E67200453DB
:100A0000494E474F534D5046494C54044261732060
:100A10004F46462048617574036F6666202B3D2063
:100A20003A3D036368316368326368336368340650
:100A3000457870202020457846696E2046696E20F2
:100A400020204D6F79656E2047726F732020015210
:100A50004554413132330550504D202050585820D4
:100A60002044534D322050504D313603504F534E99
:100A70004547032D2D2D783E30783C307C787C66C0
:100A80003E30663C307C667C0545444954205052DB
:100A9000534554412E47415A06526174696F2045AF
:100AA00078706F2020436F7572626550686173655E
:100AB00020496E746572204D6F64652020202020CF
:100AC00020202008416A6F75746572204D756C7422
:100AD00069706C7952656D706C616365022B3D2A9B
:100AE0003D3A3D064F4E202020204F4646202020F4
:100AF0004F6666736574072D2D2D2D002020763EE0
:100B00006F66732020763C6F667320207C767C3E77
:100B10006F66737C767C3C6F6673414E4420202068
:100B2000204F522020202020584F52202020207675
:100B3000313D3D7632207631213D76322076313E90
:100B40007632202076313C7632202076313E3D765A
:100B5000322076313C3D7632200D536563757269E3
:100B60007465200020202045636F6C61676520005C
:100B7000202020205472696D20696E7374616E7438
:100B8000204A6F75657220736F6E002020205265B9
:100B900073657420202020202020200654696D6574
:100BA000723154696D657232416C6C20202054653D
:100BB0006C656D2E065761726E31205761726E3210
:100BC0002043686565702052696E67202053636911
:100BD000466920526F626F742043686972702054B6
:100BE0006164612020437269636B74536972656E3E
:100BF00020416C6D436C6B52617461746154696324
:100C00006B202048617074633148617074633248AE
:100C1000617074633305204D656E75204578697485
:100C20002020426173204861757444726F69744773
:100C3000617563680347415A4449525052464944DA
:100C40003049443149443241494C47454154524E60
:100C500053573153573253573353573453573553F0
:100C600057365357375357385357395357415357BC
:100C70004253574304446972205072662047617A98
:100C80002041696C205031202050322020503320E8
:100C9000204D41582033504F53435943314359431A
:100CA0003243594333034F4646414253475A7347F1
:100CB0005A25475A7400002902020000000000066D
:100CC00002015345545550004368726F6E6F0045E2
:100CD0002E4C696D6974657300452E5472696D738D
:100CE000005472696D20496E6300542D5472616323
:100CF0006500542D5472696D00426970204374720E
:100D00000050726F746F00750050504D2066726114
:100D10006D65006D730000020202020045434F4CF6
:100D2000414745004573636C617665006D6F64658E
:100D3000032520737263004D756C7469706C69656E
:100D400075720043616C0050080000000000000054
:100D5000006F000007000700147F147F14242A7F0F
:100D60002A122313086462364955225000050300F5
:100D700000001C2241000041221C0014083E0814FF
:100D800008083E0808005030000000080808080065
:100D9000606000002010080402003E41413E000057
:100DA000427F4000625149460041494936001814CB
:100DB000127F0027454539003E4949320001790537
:100DC000030036494936000649291E000036360020
:100DD0000000563600000814224114141414144163
:100DE00022140800020151090606090906007E09BD
:100DF00009097E7F494949363E414141227F4141AF
:100E0000221C7F494949417F090909013E4149495D
:100E10007A7F0808087F00417F41002040413F0160
:100E20007F081422417F404040407F020C027F7FB8
:100E30000408107F3E4141413E7F090909063E41B9
:100E400051215E7F09192946264949493201017F0E
:100E500001013F4040403F1F2040201F3F403040A5
:100E60003F6314081463070870080761514945433C
:100E7000007F41410002040810200041417F00042E
:100E8000020102044040404040000102040020549E
:100E90005454787F484444383844444420384444C7
:100EA000487F3854545418087E0901020C5252529B
:100EB0003E7F0804047800447D40002040443D000B
:100EC0007F1028440000417F40007C041804787C97
:100ED0000804047838444444387C14141408081472
:100EE00014187C7C080404084854545420043F44DB
:100EF00040203C4040207C1C2040201C3C402040A6
:100F00003C44281028440C5050503C4464544C44F9
:100F1000000836410000007F00000041360800084C
:100F200008221C08081C220808A06000000000001D
:100F3000000000000000000000FEFE0000000000B5
:100F4000003E7E00007E3E00006060FEFE6060FEAF
:100F5000FE606060F09898FEFE989818180C1E1EAF
:100F60000C80C0E070381878FC8EC6E6763C18001D
:100F700000000066763E1E000000000000E0F03831
:100F80001C0E0600000000060E1C38F0E000006099
:100F900060C080F8F880C0606080808080F8F88051
:100FA00080808000000000000000000000000000C1
:100FB00080808080808080000000000000000000B1
:100FC000000000000080C0E0703818000000000041
:100FD000000000000000000000717100000000002F
:100FE00000000000000000000006067F7F06067F6C
:100FF0007F0606181819197F7F19190F06181C0E7D
:10100000070301307878301E3F716367663C3C66A9
:1010100066000000000000000000000000070F1C38
:10102000387060000000006070381C0F0700000678
:101030000603011F1F01030606010101011F1F0115
:10104000010101000066763E1E0000000000000065
:101050000101010101010100003078783000000039
:1010600000181C0E070301000000000000F8FC0E31
:1010700006060EFCF80000181CFEFE000000000032
:1010800000181C0E0686CEFC7800000606868686B2
:10109000CEFC78000080C0E070381CFEFE00007EB0
:1010A0007E666666E6C6860000F8FC8E86868E1C26
:1010B000180000060686C6E6763E1E000078FCCEC6
:1010C0008686CEFC78000078FCCE8686CEFCF800C2
:1010D0000030787830000000000000307878300070
:1010E000000000000080C0E070381C0E06606060E8
:1010F00060606060606060060E1C3870E0C0800058
:1011000000181C0E06060686CEFC7800001F3F70F5
:101110006060703F1F000060607F7F6060000000C3
:1011200000787C6E6763616060000060606161618F
:10113000733F1E00000707060606067F7F000018A3
:1011400038706060703F1F00001F3F716161733F26
:101150001E000000007F7F0000000000001E3F73A3
:101160006161733F1E000000006171391D0F0700AF
:10117000000C1E1E0C00000000000066763E1E00E3
:1011800000000000000103070E1C38706006060610
:10119000060606060606066070381C0E07030100E8
:1011A000000000000066670301000078FCCE868620
:1011B000CEFC780000E0F0B89C8E8E9CB8F0E0FE8B
:1011C000FE8686868686CEFC78F8FC0E0606060627
:1011D0000E1C18FEFE0606060E1C38F0E0FEFE860B
:1011E00086868686860606FEFE868686868686062F
:1011F00006F8FC0E068686868E9C98FEFE80808011
:10120000808080FEFE00000606FEFE06060000004E
:101210000000000606FEFE0606FEFE80C0E07038F6
:101220001C0E06FEFE0000000000000000FEFE1C7A
:1012300038F0F0381CFEFEFEFE70E0C0800000FEBC
:10124000FEF8FC0E060606060EFCF8000001010181
:1012500001000000007F7F0101010101017F7F7F0C
:101260007F6161616161733F1E1F3F7060606060FC
:101270007038187F7F60606070381C0F077F7F6157
:10128000616161616160607F7F01010101010100B5
:10129000001F3F7060616161717F3F7F7F010101CD
:1012A0000101017F7F000060607F7F6060000018A7
:1012B00038706060703F1F00007F7F0103070E1CC5
:1012C0003870607F7F60606060606060607F7F001A
:1012D00000010100007F7F7F7F00000103070E7F78
:1012E0007F1F3F7060606060703F1FFEFE868686D5
:1012F0008686CEFC78F8FC0E060606060EFCF8FE86
:10130000FE8686868686CEFC7878FCCE86868686A5
:101310008E1C1806060606FEFE06060606FEFE00E3
:101320000000000000FEFEFEFE000000000000FEC7
:10133000FEFEFE000000000000FEFE1E3E70E0C04B
:10134000C0E0703E1E7EFEC080000080C0FE7E06B3
:1013500006060686C6E6763E1E0000FEFE06060669
:10136000060000183870E0C0800000000000000691
:10137000060606FEFE00006070381C0E0E1C38705B
:1013800060000000000000000000007F7F010101FC
:1013900001010100001F3F7060666E3C387F677F6F
:1013A0007F0101070F1D397060183871616161613B
:1013B000733F1E000000007F7F000000001F3F7091
:1013C00060606060703F1F070F1C387070381C0F22
:1013D000071F3F70703E3E70703F1F787C0E070302
:1013E00003070E7C78000001037F7F030100007873
:1013F0007C6E6763616060606000007F7F6060603A
:10140000600000000000000103070E1C18000060CF
:101410006060607F7F0000000000000000000000AE
:1014200000606060606060606060600000060E1CCC
:10143000387060000000006060606060E0C080FEA6
:10144000FE80C0E06060E0C08080C0E060606060FE
:1014500060000080C0E06060E0C080FEFE80C0E010
:1014600060606060E0C0808080F8FC8E86060E1CA4
:1014700018E0F0381818181818F8F8FEFE80C0E0C8
:101480006060E0C08000006060E6E60000000000F0
:101490000000006060E6E60000FEFE000080C0E0A4
:1014A00060000000000606FEFE00000000E0E060B4
:1014B000E0C0C0E0E0C080E0E080C0E06060E0C08C
:1014C0008080C0E060606060E0C0800000000000DC
:1014D0000000000000183C7E66666666667F7F7FBF
:1014E0007F6161606060703F1F1F3F70606060607F
:1014F0007038181F3F7060606061617F7F1F3F76AA
:101500006666666666070701017F7F0101000000CD
:101510000001036766666666763F1F7F7F010100F4
:101520000000007F7F000060607F7F606000001827
:1015300038706060703F1F00007F7F060F1F39709A
:10154000600000000060607F7F606000007F7F00BF
:1015500000070700007F7F7F7F0101000000007F00
:101560007F1F3F7060606060703F1FE0E060606000
:101570006060E0C08080C0E0606060C080E0E0E06B
:10158000E080C0E06060E0C08080C0E060606060DB
:101590006000006060FEFE606000000000E0E000AF
:1015A0000000000000E0E0E0E0000000000000E0DB
:1015B000E0E0E0000000000000E0E060E0C080004B
:1015C0000080C0E060E0E0000000000000E0E060BB
:1015D0006060606060E0E0E060000080C0787C0EE9
:1015E00006000000000000FEFE00000000000006F3
:1015F0000E7C78C0800000808080801838F0E0C0C9
:101600008080C0E0F03818808080807F7F060606EA
:10161000060607030101030706060607077F7F7F0B
:101620007F01010000000001016163676666666674
:101630007E3C1800001F3F7060607038181F3F70BC
:1016400060607038187F7F070F1C387070381C0F6F
:10165000071F3F7070383870703F1F6070391F0F60
:101660000F1F39706001036766666666763F1F600C
:1016700070787C6E6763616060000001031E3E70DD
:10168000600000000000007F7F000000000000609C
:10169000703E1E0301000001010101181C0F070329
:1016A000010103070F1C18010101014D617820653C
:1016B00078706F732061747465696E7421004D6178
:1016C00078206D6978616765732061747465696EEF
:1016D00074210003010200040506075F2D2E2C0073
:1016E0001B1E272D36394B4E636C7278878D939C69
:1016F000B1B4C6C9D2D8E1E44D454E5553204F563A
:101700004552464C4F5700434F5552424500A35354
:10171000543D30570E581358A61CC92ABF1ED01D61
:10172000496E746572004E6F6D005B4D454E555DA0
:10173000045B515549545D0053454C4D4F444500A1
:101740005355505052494D4552204D4F44454C45FC
:1017500000436F7069652E2E2E004465706C6163C6
:10176000656D656E742E2E2E004368617267656D1F
:10177000656E742E2E2E006C696272650025000362
:1017800000504841534520444520564F4C00547268
:10179000696D73004661646520496E004661646549
:1017A000204F757400494E5345524552204D4958BB
:1017B0004147452000454449544552204D49584130
:1017C00047452000536F7572636500526174696FFD
:1017D00000446966666572004F66667365740054FE
:1017E00072696D00436F7572626500502E566F6CA2
:1017F00000416C65727465004F4646004D756C740F
:1018000070780052657461726420426173005265A1
:101810007461726420486175740052616C656E7405
:10182000697220486175740052616C656E746972EA
:10183000204261730050484153455320444520568F
:101840004F4C00286465666175742900566572699D
:1018500066055472696D73003C6611241FBECFEF9C
:10186000D0E1DEBFCDBF11E0A0E0B1E0ECE1FEECE5
:1018700002C005900D92A631B107D9F71DE0A6E18F
:10188000B1E001C01D92A539B107E1F718E1CAE541
:10189000D8E104C02297FE010E94D666C835D10760
:1018A000C9F70E94A75A0C940C670C94000080930F
:1018B000E9010895CF93DF930F92CDB7DEB7282FBC
:1018C00030E084E0220F331F8A95E1F7260F311DA7
:1018D000CE010196B90141E050E00E94FC66898189
:1018E0000F90DF91CF910895EF92FF920F931F9386
:1018F000CF93DF930F92CDB7DEB7062F1091570D20
:10190000882309F459C0812F0E94D3457C0100230C
:1019100011F0115001C01F5FD7012C9117FF0DC0AE
:10192000822F8C7009F48EC0822F869586958D5FEC
:101930008370880F880F237F52C01E3071F4822F6E
:101940008C708C3009F47EC0822F869586958F5FCF
:101950008370880F880F237F65C0812F29830E94A1
:10196000D345FC018081298128272C7011F48370D4
:10197000F9F4D7019C91892F869586958370002371
:1019800059F0882309F45EC08D5F8370880F880F3B
:10199000937F982B9C9349C0833009F453C08F5F89
:1019A0008370880F880F937F982BF70190833DC039
:1019B000C701BF0144E041C0812F0E94C6457C01A0
:1019C000002311F0115001C01F5FD7012C9117FFA8
:1019D00009C0822F8F70B1F1815F8F70207F282B1B
:1019E0002C9323C0103219F4822F8F7016C0812FD0
:1019F00029830E94C645FC018081298182278F703E
:101A0000C9F0822F8F70002341F08823D9F0815FC5
:101A10008F70207F282BD701E3CF8F3099F08F5F15
:101A20008F70207F282BF701208311E082E00E9435
:101A3000204409C0C701BF0149E00E942644109319
:101A4000570DF3CF10E0812F0F90DF91CF911F91B1
:101A50000F91FF90EF9008950F931F93CF93DF9313
:101A6000162F062F0F5F882301F1862F0E94D34582
:101A7000EC01802F0E94D3459C01412F50E04095FE
:101A80005095425F5F4F440F551F440F551FCE01C5
:101A9000B9010E94DA668DE00E94D345DC011D92F7
:101AA0001D921D921C92139722C0862F0E94C6453C
:101AB000EC01802F0E94C6459C01812F90E080950B
:101AC00090958096AC0163E0440F551F6A95E1F74D
:101AD000480F591FCE01B9010E94DA668FE10E94BA
:101AE000C645FC0189E0DF011D928A95E9F782E095
:101AF0000E942044DF91CF911F910F9108951F9371
:101B0000CF93DF93162F882329F1862F0E94D34588
:101B1000EC01412F50E040955095425F5F4F440FDC
:101B2000551F440F551F0496BE010E94DA661882A5
:101B300019821A821B8293E098838091650D8150EF
:101B40008370880F880F892B88838A818170886CC5
:101B50008A832BC0862F0E94C645EC01812F90E01E
:101B6000809590958096AC01E3E0440F551FEA956F
:101B7000E1F7480F591FCE010996BE010E94DA66AF
:101B800089E0FE0111928A95E9F72091650D922F67
:101B900091509F708881807F892B88832F778E81D9
:101BA0008078822B8E8384E6898382E00E942044A1
:101BB000DF91CF911F91089580E094E0EEEEF6E082
:101BC000DF019C011D9221503040E1F708950F93F1
:101BD0001F93CF93DF938EED92E0EEE1F3E0DF0110
:101BE0009C011D9221503040E1F710E004E6812F66
:101BF0000E94C645EC01912F9F708881807F892BC0
:101C0000888309831F5F812F0E94F6478F779E810B
:101C10009078982B9E83143051F782E00E942044E4
:101C2000DF91CF911F910F91089560E00E945A0CAF
:101C30000895CF92DF92EF92FF920F931F93CF936D
:101C4000DF93EC016B01888190E0FC01EE0FFF1F38
:101C5000E80FF91FE755FE4F20818181382F3F7033
:101C600089819A81B901681B790B7A01641775071C
:101C700008F47B01870115C08B818823A9F06C8152
:101C80006F5F6C830E945A0CF60181936F018C8107
:101C90008F3028F01C828B810E94150E8B8301509F
:101CA00010400115110541F789819A818E0D9F1D04
:101CB000801B910B9A8389838E2D801BDF91CF919E
:101CC0001F910F91FF90EF90DF90CF900895CF93E9
:101CD000DF938091A601C0E0D0E003C02F960E9460
:101CE000150E8823D9F7CE01DF91CF910895AF92D9
:101CF000BF92CF92EF92FF920F931F93CF93DF93F8
:101D00000F92CDB7DEB77C01842F122FF701A1808F
:101D1000BB2495012F5F3F4F277090812917D9F081
:101D20009091EE0A992339F0662329F0909152069A
:101D3000965F960F01C090E0AE0CBF1CF501968334
:101D400029830E942348F501868B168F06A3C68639
:101D50002981F70121830F90DF91CF911F910F917E
:101D6000FF90EF90CF90BF90AF900895EF92FF92C9
:101D70000F931F93CF93DF937C01D0E000E010E03E
:101D800020E030E01FC0CD32E1F08C2F80538A304C
:101D9000C8F4C901B8012AE030E040E050E00E94F8
:101DA00045668B019C018C2F992787FD9095C097E4
:101DB000AA2797FDA095BA2F080F191F2A1F3B1FAE
:101DC00001C0D1E0F701C1917F01CC23E1F6DD2311
:101DD00039F030952095109501951F4F2F4F3F4FAB
:101DE000B801C901DF91CF911F910F91FF90EF9042
:101DF0000895CF93DF93282F30E0D901AB50B44F33
:101E00009C91E901C550D44F961719F49881941705
:101E1000F9F0833098F4C901880F991FFC0173E031
:101E2000EE0FFF1F7A95E1F7E81BF90BE953F44F2A
:101E300010822F50344FF901108205C02F53344FB8
:101E40008FE3F90180836C93488381E08093F40BE6
:101E5000DF91CF910895CF93C82F80E060E04EE8E6
:101E600055E022E00E94474780E660E04C2F22E0E8
:101E70000E940743CF9108955498579808958F7002
:101E80008E3068F490E0FC01EE0FFF1FE80FF91FA1
:101E9000EE5FF34F83E6828380818F7C8083089599
:101EA0008E3091057CF4FC01EE0FFF1FE80FF91F47
:101EB000EE5FF34F90819F7081E09F3009F450C036
:101EC00080E008958231910589F1833191058CF488
:101ED0008F30910509F18031910524F48E30910500
:101EE000D1F533C08031910589F08131910599F5A3
:101EF00017C08431910569F084319105FCF085317A
:101F0000910501F18631910531F522C091B19470AE
:101F100023C093B3907820C09091630091701CC04F
:101F20008091630091E083FF17C015C0809163002A
:101F300083FF11C091E00E990FC00DC091E00E9B80
:101F40000BC009C091B1907107C093B3907404C0E5
:101F500091B1907201C090E081E0992309F480E092
:101F60000895873038F4E82FF0E0EE0FFF1FE558B2
:101F7000FD4F48C0873009F44BC0883071F481E1CF
:101F800090E00E94500F882309F03FC082E190E06A
:101F90000E94500F8823E1F13EC08C30E0F1803187
:101FA00098F4E82FF0E0DF01AA0FBB1FAA56B44F48
:101FB000EE0FFF1FE25EF94F8D919C9111972081EA
:101FC0003181821B930B0AC0843158F4E82FF0E072
:101FD000EE0FFF1FEA56F44F80819181880F991F01
:101FE0000895843238F4E82FF0E0EE0FFF1FEA5630
:101FF000FD4F08C0863290F4E82FF0E0EE0FFF1F8F
:10200000E755FE4F80819181089580E09CEF08950F
:1020100080E094E0089580E090E0089580E090E012
:102020000895EF92FF920F931F93CF93DF93F82EB3
:10203000882349F48091E3069091E406892F881F54
:102040008827881FE6C0992787FD909597FF03C0D2
:10205000909581959F4F863109F4D4C08A3028F439
:1020600090E00D960E94500FCEC08A50282F30E08D
:10207000E901CC0FDD1FC20FD31FC65BDA4F9A8177
:10208000992309F4C5C09A81953038F09A81983027
:1020900008F4C6C0E2E0EE2E01C0EE248881815033
:1020A0000E94B10F8C01EE2009F447C078C0209146
:1020B000E1063091E2062023312381E0211531052C
:1020C00021F52EC08091E3069091E406802B912BA0
:1020D0009093E4068093E30688810E941110E82E15
:1020E00089810E9411109A81953019F0963049F437
:1020F00003C0EE20A9F002C0EE2031F4882321F4C1
:102100000FC08E2569F001C081E02091E106309179
:10211000E206202B312B3093E2062093E10673C0B8
:102120008091E1069091E20600951095082319230D
:102130001093E2060093E10663C0888185323CF08B
:102140002981332727FD30952E593F4F14C08981AF
:1021500029E282029001112435952795359527951E
:1021600087FD815C86FB880F880B80F9992787FDA6
:102170009095281B390B8A818230A1F1833019F0A8
:10218000813039F42BC017FF28C0109501951F4FDF
:1021900024C017FF27C0109501951F4F23C08981C8
:1021A00081500E94B10F9C018A81893089F08A3068
:1021B00018F4883009F507C08A3079F08B3091F037
:1021C0008C30D1F414C081E002171307C9F41BC08E
:1021D00081E002171307B9F413C081E0201731071B
:1021E00094F00EC081E0021713076CF009C081E083
:1021F0000217130744F404C081E0201731071CF4D0
:1022000080E001C081E01F1424F091E0892701C023
:1022100080E0DF91CF911F910F91FF90EF90089593
:1022200001E010E002C0000F111F8A95E2F78091D3
:10223000E3069091E40680239123009709F037CFBD
:1022400041CF362F37953327379520E03093E4067A
:102250002093E3060E9411100895FF920F931F939D
:10226000CF93DF93C1E0D0E00DE010E0FC2EC09FE3
:10227000F001C19FF00DD09FF00D1124EF55FA4FE2
:102280008581882329F060E00E942111882329F4A8
:102290002196C530D10551F7FF248F2DDF91CF91C5
:1022A0001F910F91FF9008952F923F924F925F924E
:1022B0006F927F928F929F92AF92BF92CF92DF9256
:1022C000FF920F931F93CF93DF931C01862FA5EEF0
:1022D000B6E0F10198E001900D929150E1F78F3F47
:1022E00011F40E942D11CC24DD24FF24FA9404E67D
:1022F000402E512C612C712CA12C94E0B92E882EEB
:1023000099240894811C911CE601CC0FDD1FCC0F91
:10231000DD1FCE55DB4F8881982F937009F496C04E
:1023200086958695837090E02F2D332727FD309575
:102330008217930709F482C08981982F907E59F003
:102340009A8190FD08C082958695877090E08816E6
:10235000990609F073C08981880F880F880F8595C9
:102360008595859561E00E942111882309F466C056
:102370008881182F169516951370E12FF0E0EE0F57
:10238000FF1FEB51F94F20813181837037FF03C06C
:1023900080FD03C053C081FF51C0F12E6B817727B0
:1023A00067FD709561157105F9F0032F001F002777
:1023B000001F19F0309521953F4F77FF0CC07095A5
:1023C00061957F4FC501821B930B0E942E4595019D
:1023D000281B390B04C0C9010E942E459C01002313
:1023E00019F0309521953F4F6881862F807F61F0ED
:1023F00062956F70862F90E08B3091050CF06C5FCA
:10240000C9010E9486459C01B901882777FD809506
:10241000982F2A81269530E040E050E00E944566E2
:10242000A30192010E94B966E12FFF27E7FDF09515
:10243000EE0FFF1FE20DF31D208331830894C11CB2
:10244000D11C8EE0C816D10409F05ECFDF91CF9188
:102450001F910F91FF90DF90CF90BF90AF909F9012
:102460008F907F906F905F904F903F902F90089546
:102470002F923F924F925F926F927F928F929F9294
:10248000AF92BF92CF92DF92EF92FF920F931F9382
:10249000CF93DF9300D00F92CDB7DEB78A83E5E00C
:1024A000EE2EE6E0FE2E442455241982F1E02F2E74
:1024B000312C842D843070F4E091EA01F0E0EE0FCD
:1024C000FF1FEE0FFF1FE40DF51DE253FF4F0491B8
:1024D000015001C0042D0E9421459C01D7018D911E
:1024E0009D917D01281B390BC901AA2797FDA09555
:1024F000BA2F6AE0880F991FAA1FBB1F6A95D1F7F0
:10250000F701121613061CF4228D338D02C02485A8
:1025100035852436310514F424E630E0442737FDB0
:102520004095542FBC01CD010E94B9666901FCEFB2
:1025300020303F0734F021E0C21624E0D2062CF40C
:1025400007C0C12C5CEFD52E03C0C12C44E0D42EB3
:1025500080914A0680FF06C0023021F4D094C194D5
:10256000D108D394802E9924F401EE0FFF1FE55873
:10257000FD4FD182C082C601D7FE04C088279927AB
:102580008C199D0924E0969587952A95E1F782306C
:10259000B8F4882341F4C101082C02C0880F991FA8
:1025A0000A94E2F70AC09101082C02C0220F331FDF
:1025B0000A94E2F780916F0C82233981382B39839A
:1025C000043008F067C08091AB0B882309F05BC032
:1025D0000F5E802F90E04097D10102C0AA0FBB1F71
:1025E0008A95E2F7CD0181602091E5013091E60105
:1025F00082239323009709F446C09401220F331FCE
:10260000225C394FF901A0808A2D807CE1F18A2D6E
:102610008F7390E0DC01AA0FBB1FA255B44FFC01E1
:10262000EE0FFF1FEA5CF94F6D917C9180819181E3
:10263000681B790B882777FD8095982FD901119613
:102640002C911197332727FD3095432F532F0E944C
:10265000456622E330E040E050E00E94B96689011F
:102660009A01A294A694A69483E0A8228A2D90E0D1
:102670008130910521F08230910529F403C0C00E0C
:10268000D11E01C06801F401EE0FFF1FED55F44F9C
:10269000D182C0820894411C511CB7E04B165104F2
:1026A00009F007CF83EA9BE06A810E9454113BE95D
:1026B000832E3BE0932E1B82212C44E0342E412CB0
:1026C00058E0552E612C712C8B816A810E94AD4699
:1026D0006B810E9478465C01EB81E230B9F5809114
:1026E0002E0383FF33C080914A0680FF04C0B0945C
:1026F000A194B108B3946501EE24D7FCE094FE2CBC
:102700008DE790E0A0E0B0E0C80ED91EEA1EFB1EE7
:102710008091A70B9091A80B9101281B390B44279E
:1027200037FD4095542FC701B6010E944566A301AD
:1027300092010E94B96689019A01003098E0190758
:1027400090E0290790E0390731F404C08091EC0152
:10275000882321F58501000F111FD4010D931D93CE
:102760004D01BB81BF5FBB83B43009F0ADCF898120
:102770000F900F900F90DF91CF911F910F91FF90CD
:10278000EF90DF90CF90BF90AF909F908F907F9011
:102790006F905F904F903F902F900895AA24BB2494
:1027A000D9CFCF92DF92EF92FF920F931F93CF93E7
:1027B000DF93CDB7DEB728970FB6F894DEBF0FBE14
:1027C000CDBF6C018091570D0E94D3457C018E01D5
:1027D0000F5F1F4F88E0D8011D928A95E9F7D70156
:1027E000EC91E695E695E370F0E0EE0FFF1FE00F49
:1027F000F11FD182C082C8016FEF0E945411D7012E
:10280000EC91E695E695E370F0E0EE0FFF1FE00F28
:10281000F11F8081918128960FB6F894DEBF0FBE1C
:10282000CDBFDF91CF911F910F91FF90EF90DF907F
:10283000CF9008950F931F93CF93DF930F92CDB74F
:10284000DEB78C01FC018081982F990F9E70807FEC
:10285000892B8083662321F09160807F892B808380
:10286000F80181818F5F818392819923C9F08081F2
:102870008F70B1F4933689F0842F806249830E946F
:10288000570CF80182814981803119F481818031AE
:1028900020F0F80180818F7C8083F8011182128200
:1028A000F8012281283009F454C0293060F4213025
:1028B00009F458C02130A8F0223009F44AC024306D
:1028C00009F068C046C02F35B1F1203620F4203120
:1028D00009F060C03EC02136A1F0223609F05AC08E
:1028E00052C0F8018081982F9F709F3009F052C02C
:1028F00091E692839181913110F08F7C8083F80171
:1029000048C0842F80660E94570C1092ED011092EF
:10291000EE011092EF011092F001F8019081892FE1
:1029200082958F708F5F83708295807F9F7C982BBC
:1029300090838FE52DC0F8018181883121F4842FA7
:1029400080680E94570CF8018181883219F580E176
:102950001FC0F8018181803328F030E0359527953C
:1029600022831182F801228130E0215030406181C0
:1029700070E0262337232115310561F4842F80640C
:102980000E94570C07C0F8018181803418F088E05C
:10299000828311820F90DF91CF911F910F91089543
:1029A00086B380958E77E1F70E94570C0895709357
:1029B000C30B6093C20B9093C10B8093C00B4F5F0E
:1029C00040939D02E39A8091E401882311F40895D5
:1029D000A89580919D021816DCF3089584EA91E091
:1029E00060E070E040E450E00E94D714089586EA69
:1029F00091E062E070E041E050E00E94D714089559
:102A00006093ED06682F70E0E4E0660F771FEA95AB
:102A1000E1F78DEE96E041E050E00E94D714089572
:102A2000CF93DF93C82FD82F04C08D2F0E94150E8F
:102A3000D82F8D2F0E94150E8823B9F78D2F609106
:102A4000A6010E940015C093A6010E94F714DF9111
:102A5000CF91089590E0BC01660F771F680F791F32
:102A60006C5F7F4FCB018C559E4F43E050E00E943E
:102A7000D7140895CF93DF9300D000D0CDB7DEB741
:102A8000282F30E0F901EE0FFF1FE20FF31FDE01E8
:102A90001196E855FE4F93E001900D929150E1F7A9
:102AA000462F50E0F901EE0FFF1FE20FF31F9A01CE
:102AB000220F331FD901A40FB51FE855FE4FA855AB
:102AC000BE4F93E00D9001929150E1F7F901E40FB0
:102AD000F51FE855FE4FDE01119693E00D9001922F
:102AE0009150E1F791E09093E4016C830E942A15E4
:102AF0006C81862F0E942A151092E4010F900F908E
:102B00000F900F90DF91CF9108951F93CF93DF9394
:102B100010E0CEEED6E084E00E94A44180E10E9465
:102B2000A441812F806B0E94A441A998AB9AAC98D4
:102B3000FE0180E891919BBBAD9AAD988150D1F791
:102B4000C058DF4FAB9AA99A1F5F183021F7DF9169
:102B5000CF911F910895CF93C82F81E80E94A4417F
:102B60008C2F0E94A441CF9108950F931F93CF9370
:102B7000DF93EC018B010E94DC0D82E260E04EE20B
:102B800057E024E00E94474780E2BE010E944E4782
:102B900088E2B8010E944E4780E36BE775E00E942F
:102BA0004E470E948515809132060E94AB150E9407
:102BB000D014DF91CF911F910F910895CF92DF92A2
:102BC000EF920F93CF93DF9300D00F92CDB7DEB784
:102BD0006C018091EE0A882339F0662329F08091F8
:102BE0005206865F860F01C080E0F6018283842F43
:102BF0002B834A8369830E942348F60184832B81B7
:102C000025831382808181834A816981002329F091
:102C10000150C601CC240E94770E0F900F900F90A8
:102C2000DF91CF910F91EF90DF90CF900895CF92E9
:102C3000EF920F93909147069871983059F099232D
:102C400019F4863038F402C0903131F091E08330CD
:102C500020F002C091E001C090E09093EE0A843130
:102C600038F02091660D9091670D291709F08AC1FF
:102C7000E82FF0E0E132F10508F084C1EA5BFF4F94
:102C8000EE0FFF1F0590F491E02D099486E69DE07C
:102C900066E44AE022E002E060C09091660D809117
:102CA000670D981709F06EC186E69DE06CE344E17C
:102CB00023E002E0EE24CC24C3940E94770E86E643
:102CC0009DE060E544E123E0EE24E394CC24CA9443
:102CD00057C186E69DE066E448E204C086E69DE0D2
:102CE0006BE44AE021E000E062C086E69DE061E43A
:102CF000F8CF86E69DE046E02EC086E69DE066E4DD
:102D00004AE022E0F0CF86E69DE066E4EACF86E680
:102D10009DE066E444E1E6CF86E69DE066E44EE1B0
:102D2000E1CF86E69DE062E34AE025E000E0EE24A4
:102D3000CC240E94770E86E69DE06AE54AE025E015
:102D40000E94770E86E69DE06EE645E0BFC086E60F
:102D50009DE068E74AE021E000E0EE242AC086E634
:102D60009DE068E707C086E69DE06AE703C086E667
:102D70009DE06CE746E020E0B6CF86E69DE068E7A0
:102D80004FE023E003E013C086E69DE068E74FE0F4
:102D900023E002E00CC086E69DE068E74FE023E018
:102DA00005C086E69DE066E444E129E101E0EE2409
:102DB000E3940E94DE15E6C086E69DE06AE503C066
:102DC00086E69DE064E64FE025E0D6C086E69DE01D
:102DD00064E64AE022E002E0EE24E39452E0C52EED
:102DE000CFC086E69DE06FE545E022E00AE0EE24F4
:102DF000E394CC240E94770E86E69DE06FE545E0E3
:102E00002AE001E00E94770E86E69DE06FE545E04E
:102E100022E00AE0B5C086E69DE060E54AE023E0F6
:102E200002E0EE24CC24CA940E94770E86E69DE050
:102E30006CE34AE023E0CC24C3940E94770E86E63C
:102E40009DE066E44AE021E000E032E0E32E97C036
:102E500086E69DE066E445E021E001E0EE24E394AF
:102E6000CC240E94770E86E69DE062E34FE022E0EC
:102E70000E94770E86E69DE060E54FE022E080C08C
:102E800086E69DE06EE645E021E002E0EE24E39474
:102E9000CC240E94770E86E69DE06CE745E021E0B9
:102EA00030C086E69DE062E345E025E000E0EE24E8
:102EB000CC240E94770E86E69DE06AE545E025E099
:102EC0000E94770E86E69DE06EE643E024E002E095
:102ED00057C086E69DE060E545E02AE003E0EE2489
:102EE000E394CC240E94770E86E69DE060E545E001
:102EF00024E101E00E94770E86E69DE060E545E072
:102F00002AE003E03DC086E69DE06AE044E125E07A
:102F100002E0EE24E394CC24C39432C086E69DE024
:102F200062E344E02AE002E0EE24E394CC240E9431
:102F3000770E86E69DE066E448E024E101E00E9429
:102F4000770E86E69DE062E348E02AE002E00E9418
:102F5000770E86E69DE066E444E024E101E010C0DF
:102F600086E69DE068E745E02AE00AE006C086E6DE
:102F70009DE068E745E022E302E0EE24E394CC2400
:102F80000E94770E0F91EF90CF9008958F929F92AD
:102F9000AF92BF92CF92DF92EF92FF926091E30BDC
:102FA000662309F47EC0772767FD7095872F972FDA
:102FB0002AE030E040E050E00E944566DC01CB01B1
:102FC000805E9140A040B0404091E40B552747FD02
:102FD000509540535040662757FD6095762F840FDB
:102FE000951FA61FB71FBC01CD0120E13EE040E0C8
:102FF00050E00E9445666B017C016091E50B7727EC
:1030000067FD7095872F972F28E532E040E050E06C
:103010000E9445664B015C016091E60B772767FDD6
:103020007095872F972F2CE330E040E050E00E940E
:103030004566DC01CB01880E991EAA1EBB1E80E4EA
:1030400094E8AFEFBFEF880E991EAA1EBB1EC80CF6
:10305000D91CEA1CFB1C6091E70B772767FD709574
:10306000872F972F2AE030E040E050E00E9445662D
:10307000DC01CB01805E9140A040B040C80ED91E5B
:10308000EA1EFB1E8091E80B992787FD9095C0975B
:10309000AA2797FDA095BA2FC80ED91EEA1EFB1EBF
:1030A00003C0CC24DD247601B601C701FF90EF9068
:1030B000DF90CF90BF90AF909F908F9008958F92A8
:1030C0009F92BF92CF92DF92EF92FF920F931F9346
:1030D000CF93DF93E82EB42EF02E162FCC24DD24D0
:1030E000862E992487FC9094E401C20FD11D0DC057
:1030F000103438F48E2D612F4B2D2FEF0F2D0E94A1
:1031000014421F5F0894C11CD11CC601880D991D73
:103110008C179D076CF3DF91CF911F910F91FF905A
:10312000EF90DF90CF90BF909F908F9008950F9376
:10313000CF93DF93C82F809189028823C1F48091B7
:103140009202882321F480919D02882321F16091CD
:103150009C022091930230919402C90170E00E9478
:103160007066D7E0D61B19F0D73018F403C0D1E051
:1031700001C0D7E08C2F8F5F60E045E028E004E0DD
:103180000E945F1867E06D1B8C2F8E5F43E02D2F30
:1031900000E00E945F18DF91CF910F910895EF92A8
:1031A0000F938AE060E14CE628E204E00E945F1899
:1031B0008AE060E14CE628E20FEFEE240E946342D1
:1031C00040915D0D50915E0D80E168E10E9456478F
:1031D0000F91EF90089590935E0D80935D0D0E9486
:1031E000CF1810925E0D10925D0D0E948515089506
:1031F0000F932FEF00E00E9414420F9108952F9239
:103200003F924F925F926F927F928F929F92AF9276
:10321000BF92CF92DF92EF92FF920F931F93CF93C3
:10322000DF9300D00F92CDB7DEB7382FC62E4A01FC
:103230002B83F02E822F992787FD909580739070B5
:103240004097B4E095958795BA95E1F7282F4B8183
:1032500043FF03C048504B8309C097FE07C09094BA
:103260008194910893945524539401C055242223AA
:10327000E9F0C4016AE070E00E947066CB01FF24AF
:10328000F394EAE0F0E005C0F394BF010E94706699
:10329000CB010097C9F74F2D50E0822F992787FD6A
:1032A00090958417950714F0F22EF394EB818E2FEE
:1032B00090E0AC0144705070E2FD06C0E7FF07C02B
:1032C00012162CF43E5F03C0AAE0EA2E02C0F5E01D
:1032D000EF2EFB81F7FF0DC0EF9C802D1124380FDE
:1032E000552039F04115510511F087E001C085E006
:1032F000380F3093640D4E2D4095430F4A83DD24E3
:10330000D39402E010E07AE0672E712C222E332451
:1033100027FC3094E6E04E2E4C0C63C0C401B30190
:103320000E947066A82E382F305D313351F48B81A6
:1033300082FF07C0DF1429F4EA81EE5FEA83886028
:103340008B838A816C2D432F2B8139830E94074305
:103350008D2D90E0398128163906D1F5FB81FF7C4F
:10336000FB83BF2EF2FF19C08A2D8150833008F4F1
:103370000F5FC401B3010E947066CB01B3010E94CC
:1033800070661A81823011F0843011F5343311F4F3
:103390001F5F1EC011500F5F1BC06EEFA62E2A814B
:1033A000A20E922F9150892F642D40E099830E94A4
:1033B0009E429981B1FE0BC0B0FE04C080912C0CDE
:1033C00086FF05C0892F6C2D48E00E941042AA821A
:1033D000C401B3010E9470664B014A814E194A83B1
:1033E000D394FD1408F09ACF112361F06C2D635F24
:1033F000812F402F0E94F8186C2D625F812F402F83
:103400000E94F818552031F08A816C2D4DE22B81F5
:103410000E9407430F900F900F90DF91CF911F9163
:103420000F91FF90EF90DF90CF90BF90AF909F9063
:103430008F907F906F905F904F903F902F90089566
:103440000F931F93CF93DF93C62F122FD02F202FD0
:103450002F7E0E944747202F20688091640D6C2F9B
:10346000412F50E002E00E94FF18D7FF06C0809174
:10347000640D6C2F4AE30E94FA43DF91CF911F91B4
:103480000F9108950F931F93CF93DF93182FD62F8B
:10349000C42F022F47FF07C0865041E20E94074316
:1034A00086E08C1BC82FC73044F4812F6D2F42E774
:1034B0005AE02C2F0E945A4708C02C2F2650812FEB
:1034C0006D2F44EA55E00E94201ADF91CF911F91A1
:1034D0000F9108950F931F93CF93DF93182FD62F3B
:1034E000C42F022F442331F442EA59E020E00E9425
:1034F0005A4710C047FF06C0825048E02EE50E94A0
:10350000AD41C1952C2F2150812F6D2F46EA55E0FA
:103510000E94201ADF91CF911F910F9108950F9370
:10352000FA013A969AE03291332371F49150D9F727
:103530002F5F006149EA55E00E94201A08C000622E
:103540002AE00E94EE4603C09923C9F7F1CF0F91FC
:1035500008950F93022F442321F442EA59E020E01A
:1035600006C04D3038F4242F215044E75CE00E941F
:103570005A4716C0453128F4242F2C5040EB55E013
:103580000DC0453228F4242F245144EB55E006C0E9
:10359000473230F4242F245247EB55E00E94201A82
:1035A0000F9108954A3038F04F3120F449500E946D
:1035B0006947089545510E94A91A0895942F915082
:1035C000903118F44C5E0E94A91A0895DF92EF9290
:1035D000FF920F931F93CF93DF93E82EF62EEA010D
:1035E000122FD02E57FF10C022FF02C087E001C06B
:1035F00085E09E2D981B892F6F2D4DE2212F0E9473
:103600000743D095C195DF4FCE016CE370E00E9477
:103610008466AB01212F20698E2D6F2D02E00E9460
:10362000FF1891E012FF90E08091640D2D2D212371
:10363000891B6F2D4AE30E9407433091640DCE0130
:103640006CE370E00E948466AC012D2D2069832F0D
:103650008A5F6F2D02E00E94FF18DF91CF911F91CA
:103660000F91FF90EF90DF9008950F9300E00E947C
:10367000FF180F9108950F931F93CF93DF93062F99
:10368000122FC22FD0E0FE01E073F070E033F1059D
:1036900011F420E001C020E2212B602F0E94351B95
:1036A000C3FD07C08091640D602F46E7212F0E9463
:1036B0000743DF91CF911F910F9108951F93CF93EF
:1036C000DF93182FD62FC42F80E860E04D2F50E0F5
:1036D0002C2F0E94351BDA3010F08FE601C085E7F1
:1036E00060E04FE22C2F0E940743DA3010F08FE6A3
:1036F00001C085E7E12FF0E0319660E0AF012C2FAB
:103700000E94351BDF91CF911F910895552747FDEA
:10371000509520E00E94351B0895DF92EF92FF92B2
:103720000F931F93CF93DF93FA017491EA012296CE
:103730003196E491F0E0379613E0F595E7951A9508
:10374000E1F7279F90011124DE2EE29FA001E39F65
:10375000500DF29F500D1124C40FD51F669566952C
:10376000669500E010E040E0262F30E03695322FDD
:10377000222737952795280F311DE72EFF2414C0E7
:10378000D901A00FB11FA251B94FCE0104C0FC0155
:103790000196E491ED93582F5C1B5717C0F3CE0DA3
:1037A000DF1D4F5F00581F4F4D1550F3DF91CF9134
:1037B0001F910F91FF90EF90DF900895AF92BF920D
:1037C000CF92DF92FF920F931F93CF93DF936C0101
:1037D0005B0100E010E08091900290E0A501401BA9
:1037E000510B8417950708F4AC01F42EC42FD0E0D8
:1037F000C601800F911F60E070E050E00E94EC660F
:103800000C0F1D1F809190028F19809390028823C6
:1038100009F03FC080918F0290E0B601600F711FE8
:10382000A501401B510B8417950708F4AC018AE8E9
:1038300092E050E00E94190E080F111D90918F0226
:10384000981B90938F02992321F58AE892E06FE804
:1038500072E041E050E00E94190E8130D1F42091D5
:103860008F02822F90E027FF0CC034E0959587955A
:103870003A95E1F78770809390022F7020938F0222
:10388000AACF26FFA8CF2F732093900210928F0209
:10389000A2CFC801DF91CF911F910F91FF90DF90D0
:1038A000CF90BF90AF900895682F8AE892E00E9471
:1038B000FE431092900210928F0208951F93CF93AF
:1038C000DF9300D0CDB7DEB7182F81E14A8369833B
:1038D0000E94541C1092DC0169816295607F6093A4
:1038E000DD0110938A024A814093E4010F900F900A
:1038F000DF91CF911F910895CF93DF93C4E2D1E080
:103900009AE0FE0111929A95E9F78031D0F48F5F29
:103910000E94541CCE016AE070E00E94DE1B8A30D7
:10392000910579F480918A0290E0FC01EE0FFF1F6F
:10393000E80FF91FE755FE4F80812181922F9F707C
:1039400002C080E090E0DF91CF9108954F925F92A6
:103950006F927F928F929F92AF92BF92CF92DF929F
:10396000EF92FF920F931F93CF93DF93D82E65E0D2
:103970004EE057E129E000EC15E0F0E1EF2EA0E188
:10398000CA2E0E944D4A882309F4F9C080E060E005
:1039900041ED55E022E00E9447474090E8014A94FB
:1039A000E8E0EE2EAA24552447FC50944091590D8E
:1039B0004A0D842E9924E401CC0FDD1FCC0FDD1FAE
:1039C000C80DD91DCE5ADB4F5A818B819C8155235E
:1039D00029F022273327281B390B01C09C01F40151
:1039E000EE0FFF1FE256FD4F80819181821B930BEA
:1039F000833391051CF0552351F4BFC02FEF8E3C4B
:103A000092071CF4552319F0B8C01DE201C01FE74E
:103A10004F5F80E06E2D20E00E94DE1A8DE46E2D57
:103A2000412F20E00E94074380912F0385FF03C0B0
:103A30002DE7C22E02C094E6C92E10E0BC2CB19432
:103A40003401660C771C8EE992E0680E791E4814EA
:103A5000590451F48091E701811731F480915A0D96
:103A600018162CF002E001C000E0FF2403C003E0C0
:103A7000FF24F394123009F44AC0133009F45DC0F6
:103A8000113079F14B815C81202F206280E36E2D13
:103A90000E94351BFF2069F06B817C818D2D48E1F0
:103AA0005CEF28EE33E002E00E94CE249C838B83FF
:103AB00058C0002309F455C090E8D91609F051C048
:103AC000F301808191812A81222319F090958195BB
:103AD0009F4F9C838B8310925A0D82E00E9420445A
:103AE00040C048814456552747FD509588E46E2DC7
:103AF000202F0E94351BFF20A1F1688164568D2D77
:103B00004B2D2C2D0E948C258C5988832AC04981ED
:103B10004C59552747FD509586E66E2D202F0E9463
:103B2000351BFF20F1F069816C598D2D4B2D2C2D0B
:103B30000E948C258456898314C08CE66E2D42EA3F
:103B400059E02A810E945A47FF2059F08D2D6A8141
:103B500040E021E00E948C2591E0882309F490E068
:103B60009A831F5F143009F072CFA394F8E0EF0E30
:103B700027E0A21609F01ACF02C01EE749CFDF9155
:103B8000CF911F910F91FF90EF90DF90CF90BF905A
:103B9000AF909F908F907F906F905F904F9008951F
:103BA0004F925F926F927F928F929F92BF92CF922D
:103BB000DF92EF92FF920F931F93CF93DF93B82E74
:103BC00068E04EE057E129E007EE15E0EE24E394CB
:103BD000C0E1CC2E0E944D4A882309F4C0C080E089
:103BE00060E049EE55E022E00E9447474090E8013E
:103BF0004A9418E0DD24552447FC50948091590DD7
:103C00008D0D803109F4ABC0682E7724E301CC0F11
:103C1000DD1FC60DD71DC259DA4FFF2446145704C5
:103C200051F48091E7018F1531F480915A0D1816E7
:103C30002CF002E001C000E0EE2403C003E0EE241B
:103C4000E39481E0F816A9F082E0F81609F440C088
:103C500083E0612F4881202F0E946947EE2009F4FC
:103C600073C08B2D688145ED2BE20E948C258883E3
:103C70006BC08881882309F463C04981403140F4D6
:103C80004B5E82E5612F202F0E94A91A20E00FC011
:103C9000453148F4403151F040518CE4612F202FE0
:103CA0000E94A91A03C0242F235101C021E08CE1F6
:103CB000612F49E55BE00E945A47EE2009F444C0B9
:103CC0008B2D698140E027E10E948C2589833CC0CF
:103CD00088818823A9F12A81822E992489818631BD
:103CE00049F48AE5612F44EB5BE00E945A472CE0DF
:103CF00030E00AC0873159F48AE5612F4BE95BE077
:103D00000E945A4723E030E040E050E010C080318C
:103D1000D8F4822E992487FC90948EE7612FA40119
:103D2000202F0E94351B2DE730E043E85FEFEE20A7
:103D300059F08B2DB40102E00E94CE248A8304C086
:103D4000002311F01092E701F39483E0F81609F0D4
:103D500065CFD394185F87E0D81609F04FCFDF9175
:103D6000CF911F910F91FF90EF90DF90CF90BF9078
:103D70009F908F907F906F905F904F900895AF923B
:103D8000BF92CF92DF92EF92FF920F931F93CF9348
:103D9000DF93D82E67E04EE057E129E009ED15E00A
:103DA000EE24E3947CE0C72E0E944D4A882309F458
:103DB00006C180E060E04BED55E022E00E944747FD
:103DC000A090E801AA9438E0F32EEE24BB24A7FCCF
:103DD000B0940091590D0E0D0C3009F4F0C0802FF5
:103DE00090E0A816B90631F420915A0D121624F469
:103DF00013E003C010E001C012E0EC01CC0FDD1FA6
:103E0000C80FD91FC65BDA4F80E06F2D4EE259E034
:103E10000E945647093010F048E301C041E3400FCB
:103E20008CE06F2D0E94FA432A818091E70188235C
:103E300011F000E001C0012F87E16F2D46EF5AE03D
:103E40000E945A479A818091E7014881953020F07D
:103E5000983008F4AAC0AEC0813011F020E001C053
:103E6000212F86E46F2D0E94A91A98818091E70185
:103E70004981552747FD5095953284F04E595F4F43
:103E8000823011F000E001C0012F86E66F2D202F57
:103E90000E94E61A00E09FE730E838C0823011F057
:103EA00020E001C0212F88E76F2D0E94351B00E024
:103EB0009DE733E82BC0212F86E46F2D0E946947D0
:103EC00049818091E701823011F020E001C0212F6B
:103ED00086E66F2D0E94694701E096E13AEE26E101
:103EE0004AEE16C0212F86E46F2D0E94A91A49813F
:103EF0008091E701823011F020E001C0212F86E699
:103F00006F2D0E94A91A02E096E230E026E240E01E
:103F100080915A0D18160CF040C01123F1F18091D8
:103F2000E7018130F9F0813018F08230B1F52EC010
:103F30008D2D6A8140E02DE00E948C258A83202F00
:103F400030E0853028F0883030F481E090E005C022
:103F500080E090E002C082E090E028173907E9F0A5
:103F6000188212C018818D2D612F0E948C258883A4
:103F7000002399F4853221F415327CF48EE90CC0CB
:103F8000843259F415324CF0198207C08D2D6981A5
:103F9000432F292F0E948C258983E39488E0F80E13
:103FA00087E0E81609F015CF0AC0813009F483CF05
:103FB00020E082CF813009F495CF20E094CFDF91CB
:103FC000CF911F910F91FF90EF90DF90CF90BF9016
:103FD000AF900895CF92EF92FF920F931F93CF93DC
:103FE000DF93F82E60E041E359E026E00AEF15E0A8
:103FF00075E1E72EE5E1CE2E0E944D4A882309F4B3
:10400000D1C380E060E040E156E022E00E944747F3
:10401000D091E8018091590D8823A9F588E06DE1E0
:1040200076E00E944E4720914706220F220F220F72
:1040300026FB220F220B20F92E5FD13011F402E073
:1040400001C000E08AE568E046EC59E00E945A476A
:10405000D130D9F460914706660F660F660F66FB94
:10406000660F660B60F98F2D4EEF21E00E949B25B5
:104070008370880F880F880F90914706977E982B42
:104080009093470602C0C8E001C0C0E18091590D7D
:104090008230A0F58C2F6AE276E00E944E47209194
:1040A00051062295220F207E25952595259525954B
:1040B00025952E5FD23011F402E001C000E08AE5C0
:1040C0006C2F4FED59E00E945A47D230B1F4609105
:1040D00051066295660F607E659565956595659557
:1040E00065958F2D4EEF22E00E949B258770909161
:1040F0005106987F982B90935106C85F8091590D77
:104100008330E8F48C2F69E376E00E944E474091BB
:104110005206D33011F422E801C020E886E66C2F65
:1041200050E00E94351BD33049F48F2D6091520628
:1041300040E024E60E949B2580935206C85F809150
:10414000590D8430F8F48C2F67E476E00E944E47D6
:1041500040913206D43011F422E801C020E886E60E
:104160006C2F50E00E94351BD43059F48F2D609194
:1041700032064AE02DE20E949B25809332060E947F
:10418000AB15C85F8091590D8530E8F48C2F61E53F
:1041900076E00E944E4740913306D53011F422E874
:1041A00001C020E886E66C2F50E00E943B1BD53012
:1041B00049F48F2D6091330648E228E70E949B2541
:1041C00080933306C85F8091590D863038F58C2F67
:1041D00061E676E00E944E4740914906D63011F4E0
:1041E00022E801C020E886E66C2F50E00E94351BD3
:1041F0008091640D6C2F4DE60E94FA43D63069F42D
:10420000609149068F2D70E040E050E02AEF30E0E9
:1042100001E00E94CE2480934906C85F8091590D29
:10422000873008F58C2F63E776E00E944E47209197
:104230004B06D73011F402E001C000E086E66C2F97
:104240004EEF59E00E945A47D73049F48F2D6091C4
:104250004B0640E022E00E949B2580934B06C85FFE
:10426000C93308F09FC28091590D883028F58C2FF2
:104270006EE776E00E944E4740914A06417021E089
:10428000D83009F020E086E66C2F0E94E847D8304D
:1042900079F460914A0661708F2D40E021E00E9420
:1042A0009B25817090914A069E7F982B90934A0699
:1042B000C85FC93308F076C28091590D893040F546
:1042C0008C2F6CE876E00E944E4740914A06469556
:1042D000417021E0D93009F020E086E66C2F0E9481
:1042E000E847D93089F460914A06669561708F2D50
:1042F00040E021E00E949B258170880F90914A0642
:104300009D7F982B90934A06C85FC93308F04AC234
:104310008091590D8A3058F58C2F6AE976E00E9419
:104320004E4740914A0646954695417021E0DA3065
:1043300009F020E086E66C2F0E94E847DA3099F415
:1043400060914A066695669561708F2D40E021E088
:104350000E949B258170880F880F90914A069B7F51
:10436000982B90934A06C85FC93308F01BC280910E
:10437000590D8B3070F58C2F68EA76E00E944E471D
:1043800040914A06469546954695417021E0DB30BE
:1043900009F020E086E66C2F0E94E847DB30A9F4A4
:1043A00060914A0666956695669561708F2D40E02E
:1043B00021E00E949B258170880F880F880F9091C3
:1043C0004A06977F982B90934A06C85FC93308F036
:1043D000E9C18091590D8C30F8F48C2F68EB76E0B0
:1043E0000E944E4740913506DC3011F422E001C0B6
:1043F00020E086E66C2F0E946947DC3049F48F2D5F
:10440000609135064AEE26E10E949B258093350691
:10441000C85FC93308F0C6C18091590D8D30E8F5E9
:104420008C2F68EC76E00E944E4720914C062223A8
:10443000C9F030E0C901880F991F880F991F820FBA
:10444000931FAC01DD3011F422E801C020E886E6BC
:104450006C2F0E94351B8091640D6C2F43E70E94E6
:10446000FA430CC0DD3011F402E001C000E086E642
:104470006C2F4BE959E020E00E945A47DD3049F4A7
:104480008F2D60914C0640E028E70E949B25809389
:104490004C06C85FC93308F085C18091590D8E3034
:1044A00050F500914A0602950F70009501708C2F0F
:1044B0006AED76E00E944E4721E0DE3009F020E010
:1044C00086E66C2F402F0E94E847DE3081F48F2D66
:1044D000602F40E021E00E949B25809581708295AD
:1044E000807F90914A069F7E982B90934A06C85FE2
:1044F000C93308F057C18091590D8F3030F50091C4
:104500004706009501708C2F6AEE76E00E944E47B8
:1045100021E0DF3009F020E086E66C2F402F0E947A
:10452000E847DF3071F48F2D602F40E021E00E94DA
:104530009B2580958170909147069E7F982B909344
:104540004706C85FC93308F02DC18091590D8031ED
:10455000B0F58C2F65EF76E00E944E47209147061C
:104560002295220F207E26FB220F220B20F92F5F9F
:10457000D03111F402E001C000E086E66C2F4BE080
:104580005AE00E945A47D031B1F4609147066295D3
:10459000660F607E66FB660F660B60F98F2D4FEF2E
:1045A00021E00E949B258370880F90914706997F98
:1045B000982B90934706C85FC93308F0F3C08091E9
:1045C000590D813170F500914706029506950695C3
:1045D0000370009501708C2F62E077E00E944E47D7
:1045E00021E0D13109F020E086E66C2F402F0E94B7
:1045F000E847D13191F48F2D602F40E021E00E94F7
:104600009B25809581708295880F880F807C909182
:1046100047069F7B982B90934706C85FC93308F0E5
:10462000C1C08091590D823158F580914706881F8D
:104630008827881F01E0081B8C2F61E177E00E942A
:104640004E4721E0D23109F020E086E66C2F402F62
:104650000E94E847D23181F48F2D602F40E021E0A5
:104660000E949B258095879588278795909147067E
:104670009F77982B90934706C85FC93308F092C084
:104680008091590D833150F5D33111F412E001C0FE
:1046900010E08C2F6FE177E00E944E4706E6E02E97
:1046A00001E0802F0E94F647482F8E2D6C2F212F7E
:1046B0000E94DD470F5F86E0E80E053091F7112379
:1046C00049F08F2D60914D0640E027E10E949B2527
:1046D00080934D06C85FC93308F064C08091590DBE
:1046E000843108F05FC086E06C2F4BEB55E00E94F0
:1046F000564714E200E0812F6C2F45E658E0202F4A
:104700000E948D1B0F5F185E0430A9F7B8E0EB2EF6
:10471000EC0E88E38E1508F445C0409148064370BE
:104720004F5CD53131F480915A0D181624F423E0F2
:1047300003C020E001C022E082E16E2D0E94074309
:10474000C4E200E010E0E0914806E370F0E0EE0F14
:10475000FF1FEE0FFF1FE00FF11FE253FF4F4491C9
:104760008C2F6E2D20E00E94A91A0F5F1F4FC85E8C
:10477000C43849F7609148066370D53189F4809157
:104780005A0D18166CF48F2D40E023E00E949B25F3
:104790008370909148069C7F982B9093480602C0A6
:1047A0006093EA01DF91CF911F910F91FF90EF90FD
:1047B000CF900895CF92EF920F931F93C02E00E0F9
:1047C00010E0EE240E944D4A1F910F91EF90CF9080
:1047D000089566E40E94171608951F93CF93DF9300
:1047E000EC01162F0E94DC0D82E260E04EE257E001
:1047F00024E00E94474780E2BE010E944E4781E0CC
:1048000068E348E457E00E9456470E94851511234B
:1048100019F48091320601C089E10E94AB1582E053
:104820000E94E9230E94D01486B380958E7791F47C
:104830008091350660E00E942111882331F4809137
:104840004C06882311F4112319F0C79AA895ECCFD0
:10485000C798FCCFDF91CF911F910895CF93DF933D
:10486000EC018B81882399F489819A81009779F4EE
:104870008091A6018B838093DB018B81882339F0A3
:104880000E94150E8093A6018885816035C08885B9
:10489000982F9F70913009F068C08150888732C08E
:1048A0008B818823A9F19C819F3088F01C820E9413
:1048B000150E882359F46091A601662349F1888575
:1048C0008E5F88878B810E94001565C08B83288549
:1048D000822F90E08F7090708230910521F08330AC
:1048E000910599F40DC08091A6018B830E94150E4D
:1048F0008093A60188858F5F88870E94F7144BC03C
:10490000235028878B8160E0DECF6B81662321F402
:1049100081E08093580D2DC0EC818FE09F858E1B28
:10492000981708F4892F482F50E028893989240FD7
:10493000351F398B288B981B9F878E0F8C8389811D
:104940009A81840F951F9A83898370E0F4E0660F43
:10495000771FFA95E1F76E0F711D6F5F7F4FC901E9
:10496000841B950B0E94D71416C08F85882309F0ED
:1049700097CF8091580D813039F485E397E060E05E
:104980000E94ED2318861F868091E401882319F484
:10499000CE010E94B54FDF91CF9108958F929F92E3
:1049A000AF92BF92CF92DF92EF92FF920F931F933D
:1049B000CF93DF93C82F7B014A016901B02E84FF9A
:1049C00006C0CF70C066D4E0AD2ED5E003C0B5E020
:1049D000AB2ED4E08D2F8066C81761F08D2F8064D8
:1049E000C81741F080915A0D181664F4C33611F0BF
:1049F000C33441F487010F5F1F4F83E00E94E92316
:104A00008A2D15C09A2D9066C91751F09A2D906481
:104A1000C91731F0181694F4C23611F0C23471F48B
:104A200087010150104084E00E94E9238D2F90E01F
:104A30000E94500F882309F064C001C087018114CF
:104A4000910499F481E0C816D10479F4C03669F470
:104A500010925A0D01E010E0E114F10411F000E0B1
:104A600010E080E60E943F0F14C0C016D1063CF44F
:104A70008C2F0E943F0F89E00E94E92386010815D0
:104A800019053CF48C2F0E943F0F89E00E94E92316
:104A900084010E151F0529F101151105A9F4CF7028
:104AA000CE3058F4D0E0FE01EE0FFF1FEC0FFD1FDB
:104AB000EE5FF34F82E682831182F7FE02C083E04D
:104AC00001C084E00E94E9238B2D83700E94204462
:104AD000E016F10614F481E001C08FEF8093560DCB
:104AE00002C01092560DC801DF91CF911F910F9116
:104AF000FF90EF90DF90CF90BF90AF909F908F90FE
:104B00000895002711270E191F098A2D0E943F0FB3
:104B10008D2F0E943F0F93CF0F93772767FD7095DE
:104B2000552747FD5095332727FD309502E00E9419
:104B3000CE240F9108950F93772767FD7095552721
:104B400047FD5095332727FD309501E00E94CE2484
:104B50000F910895FC01A091EB01B0E0AA0FBB1FDB
:104B6000AD5AB94F8D939C938FEB099585E00E94C8
:104B7000E9230895CF93C82F80E060E048E757E02D
:104B800022E00E944747C236B9F0C33628F4C03647
:104B900031F0C136C1F413C0C336A9F410C08FEF91
:104BA0008093BE0B1092BF0B10920206109201066A
:104BB00083E00E94E92307C088E198E202C086EC06
:104BC00092E30E94AA2580E068E04EE757E00E9449
:104BD00056474091BF0B46958AE568E00E94861BC8
:104BE00080E060E14DE857E00E9456474091BE0BDF
:104BF00046958AE560E10E94861B80E068E14CE909
:104C000057E00E9456478091BF0B90E02091BE0B69
:104C1000821B910962E070E00E948466462F8AE55B
:104C200068E10E94861B80E060E24BEA57E00E9448
:104C30005647209101063091020684E690E0289FB5
:104C4000A001299F500D389F500D112464E0569506
:104C500047956A95E1F78AE560E220E30E94351BFB
:104C600080E060E348EB57E00E94564786E99DE00C
:104C7000AC010196FA0120812535D1F345595D40FB
:104C80008BE660E328E00E94351B82E168E349EC93
:104C900057E00E945647CF910895CF92DF92EF924E
:104CA000FF920F93813809F48EC0823870F48432F9
:104CB000E9F0853220F4803209F090C036C08532A8
:104CC00071F0803809F08AC062C08338C1F083383F
:104CD000D8F0843821F1853809F080C01AC080915D
:104CE000F40A813031F18CEA98E206C08091F40A2E
:104CF0008130F9F089EB99E20E94AA256FC00E94E9
:104D00003C0F88E198E2F8CF0E943C0F86EC92E3DA
:104D1000F3CF81E08093F40A109216015CC081E029
:104D20008093F40A8093160156C08091F40A813072
:104D300019F41092F40A52C040911B0150911C01C9
:104D400060911D0170911E018091F50A9091F60A03
:104D5000A091F70AB091F80A411551056105710556
:104D600049F480931B0190931C01A0931D01B09303
:104D70001E0108C010921B0110921C0110921D010F
:104D800010921E010097A105B10529F503C081E02D
:104D90008093F40A8091F90A9091FA0AA091FB0A93
:104DA000B091FC0A80931B0190931C01A0931D01FC
:104DB000B0931E018093F50A9093F60AA093F70A28
:104DC000B093F80A08C01092FD0A1092FE0A1092E1
:104DD000FF0A1092000B85E00E94E92382E30E9403
:104DE0002B0F86E068E047EF57E00E94564780E6C9
:104DF00068E14AE058E00E9456478CE060E24FE0EC
:104E000058E00E94564780E668E244E158E00E947C
:104E1000564780911601813029F48CE660E349E120
:104E200058E004C086E660E34CE158E00E94564733
:104E300040911B0150911C0188E760E220E206E0EE
:104E40000E94FF188091F50B873411F01092230116
:104E500080E067E449E00E94F90E81E067E44BE0FE
:104E60000E94F90E83E067E44AE00E94F90E84E0B4
:104E700067E446E00E94F90E85E067E447E00E949F
:104E8000F90E80912301882309F46EC0109223014A
:104E900087EC9BE00E94B60E6B017C0185ED9BE0E8
:104EA0000E94B60EDC01CB01C81AD90AEA0AFB0A35
:104EB000C092F90AD092FA0AE092FB0AF092FC0A38
:104EC0008091FD0A9091FE0AA091FF0AB091000B1B
:104ED0008C159D05AE05BF0544F4C092FD0AD09225
:104EE000FE0AE092FF0AF092000B80911B01909164
:104EF0001C01A0911D01B0911E01C81AD90AEA0A2D
:104F0000FB0AC0921F01D0922001E0922101F09291
:104F100022018091010B9091020BA091030BB091A3
:104F2000040BA7019601281B390B4A0B5B0B20933E
:104F3000050B3093060B4093070B5093080BC09260
:104F4000010BD092020BE092030BF092040B57FD81
:104F50000BC08091C50B81333CF0809116018823F2
:104F600019F085E00E94E9238091C70B882309F49A
:104F70004BC08EE468E04091C60B20E00E940743DE
:104F80008091C50B81330CF44DC040911F015091AD
:104F900020018CE360E124E207E00E94FF18809189
:104FA0001B0190911C01A0911D01B0911E01409127
:104FB000FD0A5091FE0AB7FD02C0481B590B88E755
:104FC00060E120E206E00E94FF1882E468E140917F
:104FD000C40B20E00E9407434091050B5091060B43
:104FE0008CE368E224E206E00E94FF1882E460E3BA
:104FF0004091C40B20E00E94074388E460E340E254
:1050000058E00E9456470EC08CE060E147E051E056
:1050100024E10E9447478CE068E247E051E024E148
:105020000E9447470F91FF90EF90DF90CF90089537
:105030000F931F93CF93DF93C82F80E060E04EE57E
:1050400057E022E00E944747C13658F0C33628F0A7
:10505000C33639F48AEB95E202C086EC92E30E94F3
:10506000AA2586E068E044E657E00E945647409152
:10507000F3015091F4018EE168E020E000E00E942D
:10508000E61A4091F5015091F60188E468E020E0CD
:105090000E94E61A86E060E14CE657E00E9456471F
:1050A00040917502509176028EE160E120E00E940D
:1050B000E61A409177025091780274E05695479530
:1050C0007A95E1F788E460E120E00E94E61A86E63E
:1050D00060E044E757E00E945647409179025091C2
:1050E0007A0288E460E020E00E94E61AC091FB01A9
:1050F000CC0FCC0B80917402C82382E06CE34EE7A6
:105100000E94F81885E06CE143E20E941042DBE067
:105110008D2F6BE343E00E941042DA5FD338C1F772
:10512000D6E01CE3EC2FF0E0E450FE4F4081612F0D
:10513000641B8D2F0E941042CF5FC83708F0C0E07B
:1051400080917402C81719F0DF5FDE3759F7DF91DD
:10515000CF911F910F9108950F93803611F18136F1
:1051600030F4843279F0853209F047C008C08238C3
:1051700099F0833861F0813609F03FC02AC080E39E
:105180009AE202C08DE496E20E94AA2536C00E94EF
:105190003C0F88E198E2F8CF0E943C0F86EC92E346
:1051A000F3CF8091EF0A882389F481E08093EF0A9E
:1051B0008091170190911801A0911901B0911A01E5
:1051C000181619061A061B06C4F00BC01092EF0A37
:1051D00014C08091EF0A813081F48091E30B882321
:1051E00061F00E94C617DC01CB01809317019093F8
:1051F0001801A0931901B0931A018091230188230B
:1052000071F00E94C617DC01CB018093F00A9093E5
:10521000F10AA093F20AB093F30A1092230180E0FE
:1052200062E541E00E94F90E81E062E549E00E94FA
:10523000F90E83E062E542E00E94F90E85E067E442
:1052400047E00E94F90E81E30E942B0F8CE068E09A
:105250004AED57E00E9456478091C70B882351F1D1
:1052600082E768E04091C60B20E00E9407438CE093
:1052700060E147EC5BE022E004E10E94EE4684E25C
:1052800060E14AE324E00E94074380E360E149ECE7
:105290005BE022E00E94EE4688E460E14AE324E01D
:1052A0000E94074384E560E14BEC5BE022E00E9452
:1052B000EE4607C08CE060E147E051E024E10E9447
:1052C00047478091EF0A8130D9F48091C70B88233A
:1052D000B9F08CE060E24CEE57E00E9456474091F6
:1052E000F00A5091F10A8091170190911801481B22
:1052F000590B8EE168E224E004E00E94E61A34C013
:105300008CE060E242EF57E00E9456478091D50B57
:10531000882319F18CE068E245ED5BE022E004E1CE
:105320000E94EE4684E268E24FE224E00E940743D6
:1053300080E368E247ED5BE022E00E94EE4688E40D
:1053400068E24FE224E00E94074384E568E249ED09
:105350005BE022E00E94EE4607C08CE068E247E096
:1053600051E024E10E9447470F9108950E94AC2824
:105370000895853251F0863218F48432B9F408C0A9
:10538000823871F0833891F406C08DE496E20CC047
:1053900080E39AE209C00E943C0F88E198E204C0D1
:1053A0000E943C0F86EC92E30E94AA2580E062E511
:1053B00047E00E94F90E81E062E548E00E94F90EA4
:1053C00085E067E447E00E94F90E83E30E942B0F1B
:1053D00080E068E043E258E00E9456478091C70BA6
:1053E000882339F41AC09E3211F413820AC08F5FE9
:1053F00001C080E0E82FF0E0E953F44F9081992359
:1054000091F78091C70B882319F047EC5BE002C04D
:1054100047E051E08CE060E104C08CE060E147E0EF
:1054200051E024E10E94474782E768E04091C60BC3
:1054300020E00E94074386E060E247E358E00E94D4
:1054400056478091D50B882319F045ED5BE002C0EB
:1054500047E051E08CE068E224E10E94474708956C
:105460000F93853251F0863218F48432B9F408C0B3
:10547000823871F0833891F406C089EB99E20CC050
:105480008CEA98E209C00E943C0F88E198E204C0CF
:105490000E943C0F86EC92E30E94AA2580E067E41C
:1054A00042E00E94F90E83E067E443E00E94F90EB7
:1054B00081E067E444E00E94F90E84E067E445E09F
:1054C0000E94F90E85E067E447E00E94F90E84E34C
:1054D0000E942B0F82E168E04AE458E00E945647A0
:1054E0008091C70B882309F18EE468E04091C40BDA
:1054F00020E00E94074382E768E04091C60B20E06D
:105500000E94074386E060E147EC5BE022E004E1B3
:105510000E94EE468EE160E140E420E00E940743F5
:1055200084E260E149EC5BE004C08CE060E147E0CC
:1055300051E024E10E94474782E160E24BE558E0F8
:105540000E9456478091C70B8823D1F08EE460E219
:105550004091C50B20E00E94074380E068E245EDE2
:105560005BE023E004E10E94EE4684E268E240E46E
:1055700020E00E9407438AE268E248ED5BE004C055
:105580008CE068E247E051E024E10E9447470F9138
:1055900008956F927F929F92AF92BF92CF92DF92C7
:1055A000EF92FF920F931F93CF93DF93C82F66E084
:1055B0004EE057E129E000E10E94DA23882309F454
:1055C00093C080E060E04EEB58E022E00E94474745
:1055D0006090E8016A94C03611F0C43641F467FC6B
:1055E00006C06092360C87E698E40E94694FBB249F
:1055F0009924DD24D39438E0C32E772467FC70947B
:105600002091590D2B0DE22EFF246E147F0411F40E
:1056100002E001C000E0AA24A394283028F4AA24C0
:1056200087E08D1528F459C0E6E0ED1508F455C063
:10563000992009F4902E2F5F80E06C2D46EC58E005
:105640000E94201AAA2069F0C7010897EC0123E004
:10565000CC0FDD1F2A95E1F7C80FD91FCE5FDA4FB7
:1056600009C0E701CC0FDD1FCC0FDD1FCE0DDF1D04
:10567000C652DB4F7E011CE2F70141917F015527A5
:1056800047FD5095812F6C2D20E00E94351B1B5E3D
:10569000153991F788E0E82EEC0CAA2019F4D39480
:1056A000CE2C16C08E010B5F1F4FCCE2F80141914A
:1056B0008F01552747FD50958C2F6E2D20E00E94BD
:1056C000351BCB5EC03891F7F0E1CF0E82E0D80EEB
:1056D000B394E7E0BE1609F093CF992029F48091A6
:1056E000590D8F5F8093590DDF91CF911F910F91CD
:1056F000FF90EF90DF90CF90BF90AF909F907F9002
:105700006F9008950F9362E041E359E026E000E0D6
:105710000E94DA23882341F180E060E049EC58E000
:1057200022E00E94474780E161ED78E00E944E4709
:1057300088E16EED78E00E944E4780E26FEE78E0FF
:105740000E944E4788E260E079E00E944E4788E37D
:105750006FE079E00E944E474091040680E368E3E1
:1057600050E020E80E94351B0F910895EF92FF92C0
:105770000F931F93CF93DF9363E041E359E026E05B
:1057800000E00E94DA23882309F479C080E060E019
:1057900048E159E022E00E944747CEE0D0E010E027
:1057A000143020F048EFF42EF00E01C0F02ECE01A0
:1057B0000E94500FE82E1F5F80E36F2D412F20E0E5
:1057C0000E9469474E2D405DEE2011F022E001C09D
:1057D00020E084E46F2D0E940743085F2196193072
:1057E000F9F6D8E3C0E08C2F90E00E94500F182FFC
:1057F00080E06D2F45E15CE02C2F00E00E945A47CD
:10580000412F405D80E26D2F212F0E940743CF5F23
:10581000D850C63041F784E568E14DE159E00E9477
:105820005647C6E0D0E010E284E5612F45E658E037
:10583000202F0E948D1BCE010E94500FE82ECE011A
:1058400001960E94500FF82E4E2D405DEE2011F073
:1058500022E001C020E08CE6612F0E9407434F2D1B
:10586000405DFF2011F022E001C020E088E7612FB9
:105870000E9407430F5F185F22960430A9F6DF915C
:10588000CF911F910F91FF90EF9008956F927F92AB
:105890008F929F92AF92BF92CF92DF92EF92FF9240
:1058A0000F931F93CF93DF930F92CDB7DEB7E82E00
:1058B00064E041E359E026E001E00E94DA23882316
:1058C00009F4A0C080E060E045E259E022E00E94D7
:1058D00047476BE7C62E62E0D62E77246624812CDC
:1058E00074E0972EA12CB12C01C06F2CF62CF394F0
:1058F00088E1672D49E259E02F2D00E00E94201A2F
:10590000862D0E9421458C0194E49550402F4F70C4
:105910004A3014F0495C01C0405D413414F028E085
:1059200001C020E0892F672D99830E94074354E02E
:10593000169507955A95E1F79981903331F747E02D
:105940006416B9F0F60160817181882777FD809532
:10595000982F24E630E040E050E00E944566A50123
:1059600094010E94B96686E6672D422F0E94861B2D
:105970000FC04091F1015091F2018091E801813016
:1059800011F422E001C020E086E6672D0E943B1B57
:10599000F8E07F0E42E050E0C40ED51EFF1609F07D
:1059A000A4CF82E768E24BE259E00E94564740915B
:1059B000FF05509100068EE760E320E00E94351B52
:1059C00087E00E94214523E230E0FC01E29FC00114
:1059D000E39F900DF29F900D1124492F46958EE77D
:1059E00068E350E020E20E94351B8091E80181309D
:1059F00049F48E2D6091340641E82FE70E949B25E3
:105A0000809334060F90DF91CF911F910F91FF90FB
:105A1000EF90DF90CF90BF90AF909F908F907F904E
:105A20006F9008952F923F924F925F926F927F9264
:105A30008F929F92AF92BF92CF92DF92EF92FF929E
:105A40000F931F93CF93DF9300D00F92CDB7DEB7A4
:105A5000D82E698380915D0D90915E0D009711F0B5
:105A6000BB2401C0B9803FE1F32EFB2080915F0D84
:105A7000882331F021E01B2DF21619F4115001C0DA
:105A80001B2DDD2019F043E959E002C04FEA58E030
:105A900080E060E022E00E9447478D2D0E94DB45B8
:105AA000482F8091640D815F60E050E020E00E940B
:105AB000351B8091640DDD2019F046EB58E002C0E3
:105AC0004AEB58E060E00E945647DD2011F063E0A9
:105AD00001C064E0009109010150812F4EE057E1BF
