:100000000C94E80C0C94100D0C94100D0C94100D25
:100010000C94100D0C94100D0C94100D0C94100DEC
:100020000C94100D0C94100D0C94100D0C94100DDC
:100030000C94D0360C94100D0C94100D0C94343498
:100040000C94B4370C94100D0C9449350C94100D8D
:100050000C94100D0C94100D0C949C360C94100DF7
:100060000C94100D0C9435370C94100D0C94100D4D
:100070000C94100D0C94100D0C94100D0C94100D8C
:100080000C94100D0C94100D0C94100D93229A22C8
:10009000B622BB22C222CA22C622CA22D022D4221F
:1000A000D922DE22F422FC22002304230A23112376
:1000B00018231E2329232D2333233E23582375235E
:1000C0008D239E23B623D023DB23FD2304247F35F9
:1000D00088369D35A2358836B735BC358836D1355A
:1000E000D6358836EB35F035883605360A3688360B
:1000F0001E36223638363A363C363E3642365008C0
:1001000000000000000000006F000007000700145E
:100110007F147F14242A7F2A12231308646236492D
:100120005522500005030000001C2241000041221E
:100130001C0014083E081408083E0808005030004F
:100140000000080808080060600000201008040291
:10015000003E41413E0000427F400062514946005E
:1001600041494936001814127F0027454539003EA1
:1001700049493200017905030036494936000649EC
:10018000291E0000363600000056360000081422F2
:1001900041141414141441221408000201510906D8
:1001A00006090906007E0909097E7F494949363E4C
:1001B000414141227F4141221C7F494949417F09F8
:1001C0000909013E4149497A7F0808087F00417FBB
:1001D00041002040413F017F081422417F404040C0
:1001E000407F020C027F7F0408107F3E4141413E68
:1001F0007F090909063E4151215E7F0919294626DA
:100200004949493201017F01013F4040403F1F20E1
:1002100040201F3F4030403F6314081463070870BC
:1002200008076151494543007F414100020408101D
:10023000200041417F000402010204404040404050
:10024000000102040020545454787F484444383854
:1002500044444420384444487F3854545418087E59
:100260000901020C5252523E7F0804047800447D7A
:1002700040002040443D007F1028440000417F4062
:10028000007C041804787C0804047838444444381A
:100290007C14141408081414187C7C0804040848FE
:1002A00054545420043F4440203C4040207C1C20B7
:1002B00040201C3C4020403C44281028440C505016
:1002C000503C4464544C44000836410000007F0018
:1002D0000000413608000808221C08081C220808F3
:1002E000A06000000000000000000000000000000E
:1002F000FEFE0000000000003E7E00007E3E00008A
:100300006060FEFE6060FEFE606060F09898FEFE39
:10031000989818180C1E1E0C80C0E070381878FCD5
:100320008EC6E6763C180000000066763E1E000091
:1003300000000000E0F0381C0E0600000000060E71
:100340001C38F0E000006060C080F8F880C0606099
:1003500080808080F8F880808080000000000000AD
:10036000000000000000008080808080808000000D
:1003700000000000000000000000000080C0E070ED
:10038000381800000000000000000000000000001D
:10039000717100000000000000000000000000007B
:1003A00006067F7F06067F7F0606181819197F7FCD
:1003B00019190F06181C0E070301307878301E3FFC
:1003C000716367663C3C6666000000000000000048
:1003D00000000000070F1C38706000000000607013
:1003E000381C0F070000060603011F1F0103060645
:1003F000010101011F1F01010101000066763E1E7F
:1004000000000000000000010101010101010000E5
:100410003078783000000000181C0E07030100003F
:1004200000000000F8FC0E06060EFCF80000181C88
:10043000FEFE000000000000181C0E0686CEFC78B0
:1004400000000606868686CEFC78000080C0E0703C
:10045000381CFEFE00007E7E666666E6C6860000EC
:10046000F8FC8E86868E1C180000060686C6E67688
:100470003E1E000078FCCE8686CEFC78000078FC1C
:10048000CE8686CEFCF80000307878300000000080
:1004900000003078783000000000000080C0E0707C
:1004A000381C0E0660606060606060606060060E10
:1004B0001C3870E0C0800000181C0E06060686CEB0
:1004C000FC7800001F3F706060703F1F000060609C
:1004D0007F7F606000000000787C6E676361606011
:1004E00000006060616161733F1E0000070706063F
:1004F00006067F7F00001838706060703F1F0000A4
:100500001F3F716161733F1E000000007F7F00008C
:10051000000000001E3F736161733F1E0000000079
:100520006171391D0F0700000C1E1E0C0000000039
:10053000000066763E1E0000000000000103070E6A
:100540001C3870600606060606060606060660707B
:10055000381C0E070301000000000000666703015D
:10056000000078FCCE8686CEFC780000E0F0B89CD7
:100570008E8E9CB8F0E0FEFE8686868686CEFC785F
:10058000F8FC0E060606060E1C18FEFE0606060EF3
:100590001C38F0E0FEFE8686868686860606FEFE0F
:1005A0008686868686860606F8FC0E068686868EF3
:1005B0009C98FEFE808080808080FEFE0000060603
:1005C000FEFE06060000000000000606FEFE06060F
:1005D000FEFE80C0E070381C0E06FEFE000000002B
:1005E00000000000FEFE1C38F0F0381CFEFEFEFE8F
:1005F00070E0C0800000FEFEF8FC0E060606060E47
:10060000FCF8000001010101000000007F7F0101F2
:10061000010101017F7F7F7F6161616161733F1E25
:100620001F3F70606060607038187F7F606060702E
:10063000381C0F077F7F61616161616160607F7F4E
:1006400001010101010100001F3F706061616171E2
:100650007F3F7F7F0101010101017F7F000060601A
:100660007F7F606000001838706060703F1F00007E
:100670007F7F0103070E1C3870607F7F60606060C1
:10068000606060607F7F0000010100007F7F7F7FEE
:1006900000000103070E7F7F1F3F70606060607085
:1006A0003F1FFEFE8686868686CEFC78F8FC0E0608
:1006B0000606060EFCF8FEFE8686868686CEFC784A
:1006C00078FCCE868686868E1C1806060606FEFEFA
:1006D00006060606FEFE000000000000FEFEFEFE0E
:1006E000000000000000FEFEFEFE00000000000012
:1006F000FEFE1E3E70E0C0C0E0703E1E7EFEC0806A
:10070000000080C0FE7E0606060686C6E6763E1E11
:100710000000FEFE060606060000183870E0C080E5
:1007200000000000000006060606FEFE00006070E5
:10073000381C0E0E1C387060000000000000000025
:1007400000007F7F01010101010100001F3F706077
:10075000666E3C387F677F7F0101070F1D3970602F
:1007600018387161616161733F1E000000007F7F76
:10077000000000001F3F7060606060703F1F070F47
:100780001C387070381C0F071F3F70703E3E707031
:100790003F1F787C0E070303070E7C7800000103DF
:1007A0007F7F03010000787C6E676361606060603A
:1007B00000007F7F606060600000000000000103B7
:1007C000070E1C180000606060607F7F0000000062
:1007D0000000000000000000606060606060606019
:1007E00060600000060E1C38706000000000606051
:1007F000606060E0C080FEFE80C0E06060E0C080BD
:1008000080C0E06060606060000080C0E06060E028
:10081000C080FEFE80C0E060606060E0C0808080DC
:10082000F8FC8E86060E1C18E0F0381818181818F8
:10083000F8F8FEFE80C0E06060E0C080000060600C
:10084000E6E600000000000000006060E6E6000050
:10085000FEFE000080C0E060000000000606FEFE14
:1008600000000000E0E060E0C0C0E0E0C080E0E048
:1008700080C0E06060E0C08080C0E060606060E0F8
:10088000C08000000000000000000000183C7E66F0
:10089000666666667F7F7F7F6161606060703F1F14
:1008A0001F3F70606060607038181F3F706060604C
:1008B00061617F7F1F3F7666666666660707010196
:1008C0007F7F0101000000000103676666666676AF
:1008D0003F1F7F7F0101000000007F7F00006060FC
:1008E0007F7F606000001838706060703F1F0000FC
:1008F0007F7F060F1F3970600000000060607F7FFF
:10090000606000007F7F0000070700007F7F7F7F1F
:100910000101000000007F7F1F3F70606060607019
:100920003F1FE0E06060606060E0C08080C0E06029
:100930006060C080E0E0E0E080C0E06060E0C08037
:1009400080C0E0606060606000006060FEFE60602B
:1009500000000000E0E0000000000000E0E0E0E057
:10096000000000000000E0E0E0E000000000000007
:10097000E0E060E0C080000080C0E060E0E00000F7
:1009800000000000E0E0606060606060E0E0E06067
:10099000000080C0787C0E06000000000000FEFE13
:1009A000000000000000060E7C78C08000008080FF
:1009B00080801838F0E0C08080C0E0F03818808077
:1009C00080807F7F060606060607030101030706EF
:1009D000060607077F7F7F7F0101000000000101FD
:1009E000616367666666667E3C1800001F3F706044
:1009F000607038181F3F7060607038187F7F070F75
:100A00001C387070381C0F071F3F707038387070BA
:100A10003F1F6070391F0F0F1F3970600103676639
:100A2000666666763F1F6070787C6E6763616060A3
:100A3000000001031E3E70600000000000007F7F88
:100A400000000000000060703E1E03010000010174
:100A50000101181C0F0703010103070F1C180101F6
:100A600001014D6178206578706F73206174746541
:100A7000696E7421004D6178206D697861676573D6
:100A80002061747465696E7421000301020004051D
:100A900006075F2D2E2C001B1E272D36394B4E636B
:100AA0006C7278878D939CB1B4C6C9D2D8E1E40149
:100AB00002030401030204040203010403020142CD
:100AC000616420454570726F6D2044617461004619
:100AD0006F726D61747461676520454550524F4D6A
:100AE000004D45535341474500535053008040004B
:100AF00000000000000000000000000000000000F6
:100B000000000000000000000000000000000000E5
:100B100000000000000000000000000000000000D5
:100B200000000000000000000000000000000000C5
:100B300000000000000000000000000000000000B5
:100B400000000000000000000000000000000000A5
:100B50000000000000000000000000000000000095
:100B6000000000000000000000000000000000FC89
:100B7000FCFCFCFCFCFCFCFCFCFCFCFCFCFCFCFCB5
:100B8000FCFCFCFCFCFCFCFCFCFCFCFCFCFCFCFCA5
:100B9000FCFCFCFCFCFCFCFCFCFCFCFCFCFCFCFC95
:100BA000FCFCFCFCFCFCFCFCFCFCFCFCFCFCFCFC85
:100BB000FCFCFCFCFCFCFCFCFCFCFCFCFCFCFCFC75
:100BC000FCFCFCFCFCFCFCFCFCFCFCFCFCFCFCFC65
:100BD000FCFCFCFCFCFCFCFCFCFCFCFCFCFCFCFC55
:100BE000FCFCFCFCFCFCFCFCFCFCFCFCFCFCFCFF42
:100BF000FFFFFFFFFFFFFFFF7F7F3F3F3F3F3F3F85
:100C00007F7FFFFFFFFFFFFFFFFF3F3F3F3F3FFFB4
:100C10007F7F3F3F3F3F7FFFFFFFFFFFFFFFFFFF64
:100C20007F7F3F3F3F3F3F3F7F7FFFFFFFFFFFFF54
:100C3000FFFFFF3F3F3F3F3FFF7F3F3F3F3F3F7F44
:100C4000FFFFFFFF7F0F07030181E0F0F0F0E000FE
:100C50000101071FFFFFFFFFFFBF3F3F3F3F7FFF38
:100C6000FFFFFFFF7F3F3F3F3F3FBFFFFFFFFFFF14
:100C7000FFFFFF3F07030100C0F0F8FCFCFCFCF89D
:100C80000000000103FFFFFF3F0100000080E0F8CB
:100C9000FCFCFCF80000000001FFFF3F070301001F
:100CA0000010181C1C1C1C180000000103FFFFFF93
:100CB000FF1F00000000C0F8FCFCFC10000000005A
:100CC000C0FFFFFFE0800000000F1F1F1F0F030089
:100CD000000000E0FFFFFFFFFFFFFEF8E000000163
:100CE00007070180E0F0F8FCFEFFFFFFFFFFFFFFBA
:100CF000FFFFFFE0C08000000F1F1F1F1F0F070135
:100D000080C0E0F0FEFFFF0700000000C00F1F1FC3
:100D10001F0F07010080E0F0FEFFFFE0C080000031
:100D20000E0E1E1E1E1E1E1E1E0ECEFEFEFFFF7F80
:100D30000300000080FCFFFFFF3F0300000080FC79
:100D4000FFFF1F0F0F1F1F1E1E1E0E0E0781C0E08C
:100D5000F0FCFFFFFFFF7F3F1F0F030180E0F0F873
:100D6000E0800001071F7FFFFFFFFFFFFFFFFFFF86
:100D7000FFFFFFFFFFFFFFFFFEFEFEFEFEFEFFFF89
:100D8000FFFFFFFFFF1F00000000C0FEFFFFFEFE91
:100D9000FEFEFEFFFFFFFFFFFFFFFFFFFFFFFFFF66
:100DA000FEFEFEFEFEFEFEFEFFFFFFFFFFFFFFFE5C
:100DB000FEFEFEFEFFFFFFFFFFFEFEFEFEFEFFFF4C
:100DC000FFFFFFFFFEFEFEFEFEFEFEFFFFFFFFFF3A
:100DD000FFFFFFFFFFFEFEFEFEFEFEFFFFFFFFFF29
:100DE000FFFFFEFEFEFEFEFFFFFFFFFFFFFFFF1FF8
:100DF0001F1F1F1F1F1F1F1F1F1F1F1F1F1F1F1F03
:100E00001F1F1F1F1F1F1F1F1F1F1F1F1F1F1F1FF2
:100E10001F1F1F1F1F1F1F1F1F1F1F1F1F1F1F1FE2
:100E20001F1F1F1F1F1F1F1F1F1F1F1F1F1F1F1FD2
:100E30001F1F1F1F1F1F1F1F1F1F1F1F1F1F1F1FC2
:100E40001F1F1F1F1F1F1F1F1F1F1F1F1F1F1F1FB2
:100E50001F1F1F1F1F1F1F1F1F1F1F1F1F1F1F1FA2
:100E60001F1F1F1F1F1F1F1F1F1F1F1F1F1F1F00B1
:100E70000000000000000000000000000000000072
:100E80000000000000000000000000000000000062
:100E90000000000000000000000000000000000052
:100EA0000000000000000000000000000000000042
:100EB0000000000000000000000000000000000032
:100EC0000000000000000000000000000000000022
:100ED0000000000000000000000000000000000012
:100EE00000000000000000000000000000000053AF
:100EF000504500454550524F4D206C6F77206D6531
:100F00006D0047617A207061732061207A65726F8D
:100F1000005265696E697469616C6973657A206CE9
:100F20006500537769746368657320656E636C65EB
:100F30006E63686573005265696E697469616C6996
:100F400073657A206C657300416C61726D65732006
:100F50004465736163746976656573009C143246F9
:100F60005A5A4632465AECEC003C649CC4003C643D
:100F70009C000000644170707579657A2073757209
:100F800020746F75636865002041524455205049B4
:100F90004C4F54204D656761203F2F38200063007F
:100FA0005056004D4F44454C450050504D0043486D
:100FB00000544D52004D6F646500000303030303AA
:100FC00003030303030303030303034C494D495481
:100FD0004553000002494E54455253205045525348
:100FE000000002494E5445525320464F4E43544947
:100FF0004F4E530000000000000000000000000001
:101000000000000000000000FF01434F4E4649472A
:1010100020524144494F00537065616B6572204D09
:101020006F646500537065616B6572204C656E6717
:10103000746800537065616B6572205069746368F1
:1010400000436F6E74726173746500416C61726D00
:101050006520426174746572696500416C61726DEE
:101060006520496E61637469766974650046696CD0
:101070007472652041444300496E76657273696FEE
:101080006E2047617A0042697020742E6D696E751A
:10109000746573004269702061207265626F7572B9
:1010A0007300466C617368207175616E64206269BB
:1010B0007000496E7465722065636C616972616766
:1010C000650045636C6169722E206F6666206170F1
:1010D00072657300456372616E2064276163637596
:1010E00065696C00416C657274652047617A0041E6
:1010F0006C6572746520496E74657200416C65722E
:101100007465204D656D6F69726500416C65727420
:101110006520416C61726D65004F72647265205686
:101120006F69657320527800535700AE2B27495ED4
:101130003D923D223E9E2F40800804201002014334
:10114000414C4942524154494F4E005B4D454E552A
:101150005D504F555220444542555400534554204C
:101160004E4555545245005B4D454E555D51756198
:101170006E64205052455400424F55474552204D11
:10118000414E434845532F504F54532000120800FE
:10119000081C0808081C0800000822004900220852
:1011A0000000000000227F22000000082200490009
:1011B0002208000008220049002208000000227FC7
:1011C0002200000000000822004900220800000858
:1011D0001C0808081C08004D4958455552002F317D
:1011E00034002F333200434F55524245530043568B
:1011F0000056455253494F4E00564552533A2056D9
:10120000322E30302D48002053564E3A206F7065F4
:101210006E39782D7233363400444154453A2032C9
:101220003031322D30332D31340054494D453A2080
:1012300030313A30313A303800454550524F4D2028
:10124000760044494147005472696D2D202B0041BE
:101250004E410041004247004D454E5553204F56E8
:101260004552464C4F5700434F5552424500445259
:101270002F4558504F00034F46464F4E20032D2D0B
:101280002D494E56043443482036434820384348BD
:1012900020313043483132434831344348313643BA
:1012A0004806517569657420416C61726D734E6FAB
:1012B0004B657920546F75742020067853686F72DF
:1012C0007453686F7274204E6F726D616C4C6F6EE8
:1012D000672020784C6F6E67200453494E474F5368
:1012E0004D5046494C5404426173204F46462048B5
:1012F000617574036F6666202B3D203A3D03636879
:10130000316368326368336368340645787020203F
:1013100020457846696E2046696E2020204D6F7901
:10132000656E2047726F732020015245544131325F
:10133000330550504D2020505858202044534D32F2
:101340002050504D313603504F534E4547032D2DFD
:101350002D783E30783C307C787C663E30663C3080
:101360007C667C0545444954205052534554412ED7
:1013700047415A06526174696F204578706F20208A
:10138000436F75726265506861736520496E74655C
:1013900072204D6F646520202020202020200841ED
:1013A0006A6F75746572204D756C7469706C7952D2
:1013B000656D706C616365022B3D2A3D3A3D064FB9
:1013C0004E202020204F46462020204F6666736521
:1013D00074072D2D2D2D002020763E6F6673202062
:1013E000763C6F667320207C767C3E6F66737C76DD
:1013F0007C3C6F6673414E44202020204F522020B9
:10140000202020584F522020202076313D3D76323A
:10141000207631213D76322076313E76322020769C
:10142000313C7632202076313E3D76322076313C9A
:101430003D7632200D536563757269746520002016
:10144000202045636F6C61676520002020202054B8
:1014500072696D20696E7374616E74204A6F756570
:101460007220736F6E0020202052657365742020F7
:101470002020202020200654696D65723154696D4A
:10148000657232416C6C20202054656C656D2E06AF
:101490005761726E31205761726E32204368656504
:1014A000702052696E672020536369466920526F2D
:1014B000626F7420436869727020546164612020F7
:1014C000437269636B74536972656E20416C6D433E
:1014D0006C6B5261746174615469636B2020486164
:1014E000707463314861707463324861707463333F
:1014F0000E3420566F6965732073696D706C654397
:101500006F75707572652047617A202020456D7077
:10151000656E6E6167652056202020456C65766F8C
:101520006E5C44656C74612020654343504D2020FF
:1015300020202020202020436F6E662E48656C6995
:10154000636F202020536572766F2054657374207A
:10155000202020042D2D2D203132302031323058E2
:10156000313430203930202005204D656E752045FE
:101570007869742020426173204861757444726FE9
:10158000697447617563680347415A444952505230
:101590004649443049443149443241494C47454128
:1015A00054524E5357315357325357335357345382
:1015B000573553573653573753573853573953576F
:1015C0004153574253574304446972205072662076
:1015D00047617A2041696C20503120205032202010
:1015E000503320204D41582033504F5343594331FD
:1015F0004359433243594333034F464641425347CD
:101600005A73475A25475A74000029020200000005
:1016100000000602015345545550004368726F6E36
:101620006F00452E4C696D6974657300452E5472C8
:10163000696D73005472696D20496E6300542D54B6
:101640007261636500542D5472696D0042697020A7
:101650004374720050726F746F00750050504D20CB
:101660006672616D65006D73004741424152495495
:10167000530045464641434552204D495841474550
:10168000535B4D454E555D0000020202020045438A
:101690004F4C414745004573636C617665006D6F43
:1016A0006465032520737263004D756C7469706CFA
:1016B000696575720043616C002D53B94CE45C069A
:1016C0005CEB5DF05D6A28A53C832A9429AB484910
:1016D0006E746572004E6F6D005B4D454E555D0436
:1016E0005B515549545D0053454C4D4F44450053A3
:1016F00055505052494D4552204D4F44454C4500A0
:10170000436F7069652E2E2E004465706C616365B1
:101710006D656E742E2E2E004368617267656D656F
:101720006E742E2E2E006C69627265002500030017
:10173000504841534520444520564F4C005472694F
:101740006D73004661646520496E004661646520E2
:101750004F757400414C45525445004465706173A7
:1017600073656D656E7420454550524F4D00546F42
:101770007563686520706F757220636F6E74696E33
:1017800075657200535441545300544D310D544DFE
:1017900032005448520D54482500544F54004445DB
:1017A00042554700746D72314C6174206D6178044C
:1017B000757300746D72314C6174206D696E0475BF
:1017C0007300746D7231204A6974746572047573A4
:1017D00000746D61696E206D6178066D73004672EC
:1017E000656520537461636B206D696E0462005BF4
:1017F0004D454E555D706F7572207265736574004E
:10180000204C6174697475646500204C6F6E676963
:1018100074756465002047726F756E64207370651F
:1018200065640020436C696D6220726174650020FC
:10183000416C7469747564650020416C74697475D9
:10184000646520486F6C640020436F757273650097
:101850002042656172696E67002057617920506F80
:10186000696E74202320002044697374616E63657F
:101870002000204169722053706565642000204378
:101880006C696D622052617465200020526F6C6C2F
:1018900020416E676C650020506974636820416E5A
:1018A000676C6500204172647550696C6F74204DDF
:1018B0006F6465002052544C2044697374616E63F8
:1018C0006500494E5345524552204D4958414745C0
:1018D0002000454449544552204D49584147452030
:1018E00000536F7572636500526174696F004469DB
:1018F00066666572004F6666736574005472696D42
:1019000000436F7572626500502E566F6C00416C1B
:1019100065727465004F4646004D756C74707800B2
:101920005265746172642042617300526574617221
:101930006420486175740052616C656E7469722030
:10194000486175740052616C656E74697220426101
:10195000730050484153455320444520564F4C0096
:101960002864656661757429005665726966055458
:1019700072696D7300434F4E462E48454C490054E2
:1019800079706520646520506C61746561750043F1
:101990006F6C6C656374696600537761736820527D
:1019A000696E6700446972656374696F6E20505296
:1019B0004600446972656374696F6E2041494C004A
:1019C000446972656374696F6E20434F4C00F96B14
:1019D00011241FBECFEFD0E1DEBFCDBF11E0A0E0EC
:1019E000B1E0E6E9F9ED02C005900D92A631B1072C
:1019F000D9F71DE0A6E1B1E001C01D92A335B10702
:101A0000E1F719E1C0EDD9E104C02297FE010E947F
:101A1000936CCE3CD107C9F70E9484600C94C96CCA
:101A20000C94000080930E020895FC01808141FF18
:101A300002C0682B06C042FF03C06095682301C046
:101A400068276083089541E0262F30E0683058F41D
:101A500040E0F901EE0FFF1FEE0FFF1FE20FF31F33
:101A6000E050FB4F0CC028503040F90153E0EE0F1E
:101A7000FF1F5A95E1F7E20FF31FE85DFA4FBC0133
:101A800060507C4F77FD0DC088E06030780784F0AF
:101A9000442319F088E090E002C084E090E0E80F71
:101AA000F91F4081552747FD5095542F44272EC0DC
:101AB000272F442321F07070660F771F02C02695F0
:101AC0007170822F90E0E80FF91F2081332727FDE6
:101AD000309580E092E0861B970B95958795289F1F
:101AE000A001299F500D389F500D1124E181FF273F
:101AF000E7FDF0959B0135952795E29FC001E39F97
:101B0000900DF29F900D1124480F591FCA0169E1F1
:101B100070E00E94416CCB0108956091130D0E940A
:101B2000230D0895E9E1F1E020E0822F806487B978
:101B3000369A349BFECF349A84B195B1880F991FA1
:101B4000819391932F5F283081F70895E9E1F1E0C7
:101B500040E0842F806487B954E080E090E0369ABA
:101B6000349BFECF349A24B135B1820F931F51506C
:101B7000B1F796958795819391934F5F483049F7D8
:101B80000895A9E1B1E0E9E2F1E040E0842F80644A
:101B900087B9369A208931898D919C9111979695B4
:101BA0008795820F931F8E7F11969C938E938081D1
:101BB0009181820F931F96958795918B808B349B93
:101BC000FECF349A84B195B120813181820F931F69
:101BD00096958795819391934F5F12964830B1F611
:101BE00008958E3091057CF4FC01EE0FFF1FE80F85
:101BF000F91FE851F44F90819F7081E09F3009F404
:101C000050C080E008958231910589F183319105BA
:101C10008CF48F30910509F18031910524F48E30D8
:101C20009105D1F533C08031910589F0813191055D
:101C300099F517C08431910569F084319105FCF064
:101C40008531910501F18631910531F522C091B1BF
:101C5000947023C093B3907820C0909163009170EA
:101C60001CC08091630091E083FF17C015C0809174
:101C7000630083FF11C091E00E990FC00DC091E089
:101C80000E9B0BC009C091B1907107C093B39074C3
:101C900004C091B1907201C090E081E0992309F4F1
:101CA00080E00895873038F4E82FF0E0EE0FFF1F52
:101CB000EF55FD4F52C0873009F455C0883089F484
:101CC00081E190E00E94F10D882309F049C082E192
:101CD00090E00E94F10D882309F445C080E090E077
:101CE00008958C3038F4E82FF0E0EE0FFF1FEC5E23
:101CF000F34F33C0803198F4E82FF0E0DF01AA0FF2
:101D0000BB1FA456B44FEE0FFF1FEC5BF94F8D9134
:101D10009C91119720813181821B930B0AC08431E1
:101D200058F4E82FF0E0EE0FFF1FE456F44F8081E7
:101D30009181880F991F0895843238F4E82FF0E0DC
:101D4000EE0FFF1FE454FD4F08C0863278F4E82FF1
:101D5000F0E0EE0FFF1FE153FE4F80819181089567
:101D600080E09CEF089580E094E0089580E090E0AA
:101D70000895EF92FF920F931F93CF93DF93F82E66
:101D8000882349F48091060790910707892F881FBF
:101D90008827881FE6C0992787FD909597FF03C085
:101DA000909581959F4F863109F4D4C08A3028F4EC
:101DB00090E00D960E94F10DCEC08A50282F30E0A1
:101DC000E901CC0FDD1FC20FD31FC059DA4F9A8132
:101DD000992309F4C5C09A81953038F09A819830DA
:101DE00008F4C6C0F2E0EF2E01C0EE2488818150D5
:101DF0000E94520E8C01EE2009F447C078C0209159
:101E00001601309117012023312381E0211531057E
:101E100021F52EC08091060790910707802B912B0A
:101E2000909307078093060788810E94B90EE82ED9
:101E300089810E94B90E9A81953019F0963049F443
:101E400003C0EE20A9F002C0EE2031F4882321F473
:101E50000FC08E2569F001C081E0209116013091FC
:101E60001701202B312B309317012093160173C0DB
:101E70008091160190911701009510950823192360
:101E8000109317010093160163C0888185323CF0DE
:101E90002981332727FD30952E593F4F14C0898162
:101EA00029E28202900111243595279535952795D1
:101EB00087FD815C86FB880F880B80F9992787FD59
:101EC0009095281B390B8A818230A1F1833019F05B
:101ED000813039F42BC017FF28C0109501951F4F92
:101EE00024C017FF27C0109501951F4F23C089817B
:101EF00081500E94520E9C018A81893089F08A307B
:101F000018F4883009F507C08A3079F08B3091F0E9
:101F10008C30D1F414C081E002171307C9F41BC040
:101F200081E002171307B9F413C081E020173107CD
:101F300094F00EC081E0021713076CF009C081E035
:101F40000217130744F404C081E0201731071CF482
:101F500080E001C081E01F1424F091E0892701C0D6
:101F600080E0DF91CF911F910F91FF90EF90089546
:101F700001E010E002C0000F111F8A95E2F7809186
:101F800006079091070780239123009709F037CF28
:101F900041CF0F931F93CF93DF930F92CDB7DEB74F
:101FA0008C01FC018081982F990F9E70807F892B76
:101FB0008083662321F09160807F892B8083F801E4
:101FC00081818F5F818392819923C9F080818F7095
:101FD000B1F4933689F0842F806249830E94120DF8
:101FE000F80182814981803119F48181803120F0AA
:101FF000F80180818F7C8083F80111821282F801C0
:102000002281283009F454C0293060F4213009F4C9
:1020100058C02130A8F0223009F44AC0243009F019
:1020200068C046C02F35B1F1203620F4203109F0C8
:1020300060C03EC02136A1F0223609F05AC052C01D
:10204000F8018081982F9F709F3009F052C091E66F
:1020500092839181913110F08F7C8083F80148C088
:10206000842F80660E94120D1092120210921302A9
:102070001092140210921502F8019081892F829516
:102080008F708F5F83708295807F9F7C982B908369
:102090008FE52DC0F8018181883121F4842F80687B
:1020A0000E94120DF8018181883219F580E11FC06C
:1020B000F8018181803328F030E03595279522831F
:1020C0001182F801228130E021503040618170E0BE
:1020D000262337232115310561F4842F80640E9463
:1020E000120D07C0F8018181803418F088E08283E6
:1020F00011820F90DF91CF911F910F91089586B3B8
:1021000080958E77E1F70E94120D08957093C90BA8
:102110006093C80B9093C70B8093C60B4F5F40939F
:10212000C302E39A80910902882311F40895A895C7
:102130008091C3021816DCF3089589EC91E060E009
:1021400070E040E450E00E94861008958BEC91E02E
:1021500062E070E041E050E00E94861008956093D4
:102160001801682F70E084E0660F771F8A95E1F709
:1021700088E191E041E050E00E948610089590E0EF
:10218000BC01660F771F680F791F6C5F7F4FCB0113
:1021900087539E4F43E050E00E9486100895CF93EE
:1021A000DF9300D000D0CDB7DEB7282F30E0F901A3
:1021B000EE0FFF1FE20FF31FDE011196E353FE4FF8
:1021C00093E001900D929150E1F7462F50E0F90114
:1021D000EE0FFF1FE20FF31F9A01220F331FD901E9
:1021E000A40FB51FE353FE4FA353BE4F93E00D90D2
:1021F00001929150E1F7F901E40FF51FE353FE4F0F
:10220000DE01119693E00D9001929150E1F791E07B
:10221000909309026C830E94BF106C81862F0E94EC
:10222000BF10109209020F900F900F900F90DF9146
:10223000CF910895A998AB98AC988BBBAD9AAD9807
:10224000AB9AA99A08951F93CF93DF9310E0C0E152
:10225000D7E084E00E941A1180E10E941A11812FB8
:10226000806B0E941A11A998AB9AAC98FE0180E885
:1022700091919BBBAD9AAD988150D1F7C058DF4F7B
:10228000AB9AA99A1F5F183021F7DF91CF911F9168
:102290000895CF93C82F81E80E941A118C2F0E94B5
:1022A0001A11CF91089587FD60C047FF02C0640FE7
:1022B000419567FF02C0460F60E0E62FFF27E7FD6C
:1022C000F095A42FBB27A7FDB095EA0FFB1FE134C3
:1022D000F10514F040E4461B253511F460FF2AEAAD
:1022E000E62FE595E595E595FF27E7FDF095F69551
:1022F000FE2FEE27F795E795E80FF11DE05FF84F09
:102300006770C1F0A1E0B0E0062E02C0AA0FBB1FAB
:102310000A94E2F7A195A2238081A827A083E05820
:10232000FF4F6850460F06C0808182278083E058A7
:10233000FF4F48501416C4F3842F992787FD9095BA
:10234000089668E070E00E94416C882371F0E058C4
:10235000F04041E050E002C0440F551F8A95E2F77B
:102360004195422380814827408308952FEF0E94A2
:1023700053110895DF92EF92FF920F931F93CF9323
:10238000DF93F42EE02E6034E0F587FF02C0F80EF4
:1023900080E0482F552747FD5095FA01EF0DF11DBC
:1023A000E138F1051CF0E0E8FE2EF81A062F06953C
:1023B0000695069510E01695102F0027179507959E
:1023C000040F151F005F184F677081E090E0D82E52
:1023D00001C0DD0C6A95EAF712C030E0E901D5953D
:1023E000C79520FF08C0C8016D2D4E2D0E94150D08
:1023F0002C2F206801C02C2FFA940F5F1F4FFF2055
:1024000061F7DF91CF911F910F91FF90EF90DF90D7
:102410000895DF92EF92FF920F931F93CF93DF9374
:10242000C82FF62ED42FD22E102FE0FE04C080919C
:10243000120C86FD21C08C2F6F2D4D2D212F0E9457
:1024400053118C2F81508D0F6F2D4D2D212F0E94F8
:102450005311E3FC02C0CF5FD2506F2D61506D0D60
:102460008C2F4D2F212F00E00E94BA118C2F6F2D41
:102470004D2F212F0E94BA11DF91CF911F910F9103
:10248000FF90EF90DF900895262F269526952695AC
:1024900030E03695322F222737952795280F311DAA
:1024A000205F384F8BE02031380760F4862F87702B
:1024B00061E070E002C0660F771F8A95E2F7C901FC
:1024C0000E94150D0895AF92BF92CF92DF92EF92C6
:1024D000FF920F931F93CF935C018EE560E040E481
:1024E0002EEE0E9453118EE360E240E42EEE00E0F7
:1024F0000E94BA11CFE300E21CEF82E0C82ED12C7B
:102500002FE3E22EF12CC801F501099580509C4F74
:10251000B6010E94416CCB01A6E0880F991FAA95D5
:10252000E1F7861B970B892F992786958695B7012A
:10253000681B790B8C2F42E00E944412005E1F4FF3
:10254000CF5FCE3701F7CF911F910F91FF90EF90A2
:10255000DF90CF90BF90AF900895DF92EF92FF92FF
:102560000F931F93CF93DF93E22FF0E020FF07C07C
:102570009091120C96FF06C021FD06C0D9C011E053
:1025800021FD03C010E001C011E0C62FC695C6951D
:10259000C695D0E0D695DC2FCC27D795C795C80F28
:1025A000D11DC05FD84FE2FF5DC0842F90E0BC0119
:1025B000660F771FB3E0880F991FBA95E1F7680F90
:1025C000791F50E04052504004E0569547950A95D7
:1025D000E1F780EA90E0489F9001499F300D589FB5
:1025E000300D1124620F731F6E557E4F85E0AF01D1
:1025F000487050704115510519F0882319F498C09E
:10260000882389F0FB019491E056FF4FB4919B0120
:102610002F5F3F4FF901A4916F557F4FFB0104914C
:10262000EB2EB90104C000E0EE24A0E090E01123FD
:1026300021F09095A095E0940095FE01EF57FF4F93
:102640002BE0E031F20740F49883A983DE01A05823
:10265000BF4FEC92008322966F5F7F4F815008F04E
:10266000C9CF66C0E3FF08C0112311F08FEF01C08E
:1026700080E0899371E001C070E050E09A01220F80
:10268000331F220F331F240F351F205A3F4F67700F
:10269000E62EFF244FEF50E0CA01062E02C0880F3D
:1026A000991F0A94E2F7082F0095A8E0B0E0AE1950
:1026B000BF09CA010A2E02C0959587950A94E2F7D0
:1026C000D82ED09485E0882329F0F9012F5F3F4F61
:1026D000E49101C0E0E01111E095772311F084301E
:1026E00029F14BE0C031D40708F54E2F50E0FA0134
:1026F0000E2C02C0EE0FFF1F0A94E2F7F881F023C0
:10270000FE0FF883662389F0FE01E058FF4F9BE03F
:10271000E031F90750F40A2E02C0559547950A9406
:10272000E2F750815D21540F50832196815058F675
:10273000DF91CF911F910F91FF90EF90DF9008955F
:1027400020E00E94AD120895FC0160831282118284
:1027500070E0DB01AA0FBB1FA60FB71FA753BE4F28
:1027600014968C911497838314821092160D0895F9
:1027700090E0FC01EE0FFF1FE80FF91FE753FE4F3B
:1027800081E09481992309F480E008959091AF024B
:10279000982B9093AF020895DB01FC0105C0808166
:1027A0009C9191938D9341504423C9F70895AF9222
:1027B000BF92CF92DF92EF92FF920F931F93CF932E
:1027C000DF9380915403877090910001981751F125
:1027D0008093000180917D00857E80937D00179815
:1027E0001F9A10928A0010928B0082E880938A00D0
:1027F00080917D00806280937D001EBC80E49CE916
:102800009BBD8ABD1DBC1CBC87B7837C87BF8CE386
:1028100086BF8FE380937C0087B7806187BF1FBC32
:102820008AE08EBD8091550385FF03C0C0E0D5E0EE
:1028300002C0C0E0D4E040915403459545954595CC
:102840004595440F485FE091560384E6E802F001A5
:102850001124E85AFD4F80911F06992787FD909516
:1028600028EE33E0829FB001839F700D929F700D20
:102870001124685370456E1B7F0B54ECE52E52E01B
:10288000F52E50E0A1E1AA2EABE0BA2ECC24DD2437
:10289000CC1ADD0A08E512E00E1B1F0B24C09601BE
:1028A000D7018D919D917D018C159D0534F08C177C
:1028B0009D0714F49C0101C09E01205A364FCF01A0
:1028C000820F931F681B790B200F311FD5011196C2
:1028D0003C932E931396FC93EE93129784E090E032
:1028E000A80EB91E5F5F5417D1F6A52FB0E0AA0F4E
:1028F000BB1FAA0FBB1FAF5EB44F11967C936E93A4
:102900001396FC93EE93129715961C921E921497B1
:1029100081E19BE09093090180930801DF91CF91C1
:102920001F910F91FF90EF90DF90CF90BF90AF90ED
:1029300008959091B30B82B72091B30B9217C9F70A
:10294000392F20E090E0822B932B08958F929F9255
:10295000AF92BF92EF92FF920F931F93CF93DF93AB
:102960004B015C01C0E1EC2EF12CC0E0D0E800E0AE
:1029700010E89E0140E050E0CA01B9010E94026CDB
:10298000DC01CB0188169906AA06BB0610F4C02705
:10299000D127169507950894E108F108E114F10490
:1029A00061F4CE01DF91CF911F910F91FF90EF90D5
:1029B000BF90AF909F908F900895C02BD12BD9CF0F
:1029C00090E0FC01E15EFD4F1082DC01AA0FBB1F0D
:1029D000FD01E75EFD4FA80FB91FAC5BBC4F1B9616
:1029E0002D913C911C9731832083835E9D4FFC0188
:1029F0001082089580E00E94E01481E00E94E014BB
:102A00000895E82FF0E0E657F54FE491F0E0EE0F7F
:102A1000FF1FE75EFE4F8081918108954F925F9284
:102A20006F927F928F929F92AF92BF92CF92DF92DE
:102A3000EF92FF924C01AA24BB242B016624772439
:102A400064E670E080E090E06419750986099709F2
:102A5000A50194010E94026C6B017C0182E390E06D
:102A6000A0E0B0E0C80ED91EEA1EFB1EC501B401ED
:102A70000E94026C0E94026CBC0188279927A30166
:102A800092010E94026CDC01CB01F4E0B695A7959F
:102A900097958795FA95D1F7C80ED91EEA1EFB1EA9
:102AA000C701B60124E630E040E050E00E94546CDB
:102AB000C901FF90EF90DF90CF90BF90AF909F90B3
:102AC0008F907F906F905F904F9008956330B9F032
:102AD00064303CF4613061F062306CF46623A9F13B
:102AE00023C06530B1F0653084F06630E9F416C07B
:102AF00097FF2BC025C01816190614F126C097FFA2
:102B000024C0909581959F4F0895181619064CF092
:102B100017C097FF15C080E09CEF0895181619069E
:102B200094F480E094E0089567FF06C09095819545
:102B30009F4F26E0261B622F67500E94230D0895A9
:102B400080E090E0089580E09CEF0895282F30E029
:102B5000C901A3E0880F991FAA95E1F7820F931F7F
:102B6000885A9C4F089590E0880F991F880F991FED
:102B700088539B4F08951F93CF93DF93182F88237B
:102B800011F0CDE001C0CFE1D0E08C2F112331F066
:102B90000E94B315FC018081837005C00E94A615B8
:102BA000FC0186818F778111DF5FC150C7FFEDCFB8
:102BB0008D2FDF91CF911F910895CF93C82F0E9441
:102BC000BB15482F50E0CC2319F02EE030E002C0B6
:102BD00020E230E0421753076CF0CC2319F082E674
:102BE0009AE002C085E79AE090931C0D80931B0D3C
:102BF00081E001C080E0CF910895482F50E02DE0A2
:102C000030E0429FC001439F900D529F900D1124D0
:102C100089539A4F0895EF92FF920F931F93CF938A
:102C2000DF93EA01062F10E07801EE0CFF1CF7019C
:102C3000E25EF34F0190F081E02D309779F08FEF55
:102C40004338580724F04D37510524F405C0C3E834
:102C5000DFEF02C0CDE7D0E0C08320C00E94FD15A9
:102C6000FC01DC01A00FB11FCE01959587959595CC
:102C700087958C9383E090E00E2C02C0880F991FFB
:102C80000A94E2F7809594818923C370D07002C0C2
:102C9000CC0FDD1FEA94E2F78C0F848382E00E9460
:102CA000C613DF91CF911F910F91FF90EF90089580
:102CB0000F931F93CF93DF93C62FD0E08E01000FA9
:102CC000111FF801E25EF34F0190F081E02D309783
:102CD00029F08081992787FD90951AC00E94FD15E3
:102CE000FC01C80FD91F8881992787FD9095880F0F
:102CF000991F880F991F2481332727FD309502C023
:102D0000359527950A95E2F723703070820F931F4F
:102D1000DF91CF911F910F9108951F93CF93DF9370
:102D2000182FC62FD5E001C0C82FCC2389F08C2FD7
:102D3000612F0E9458169C0181E0253F380744F01E
:102D4000822F855F8C1708F08F5FD15069F7C0E044
:102D50008C2FDF91CF911F9108958823E1F087FF99
:102D600006C0863E1CF0E0E6E81B16C081958B315C
:102D70001CF4E82FE05C10C085321CF4E82FEB5EF9
:102D80000BC0893244F4E82FFF27E7FDF095E359A3
:102D9000F54FE49101C0E0E28E2F0895AF92BF920B
:102DA000CF92DF92EF92FF920F931F93CF93DF9317
:102DB000C82F162F7A01D22F802F90E060E3C62E05
:102DC000D12CC822D92274E0A72EB12CA822B92276
:102DD0002FC080E1C816D10429F0E0E2CE16D1045C
:102DE00051F403C0F701408108C0F70180810E94BF
:102DF000AD16482F02C0F70144914423D9F0CB37D8
:102E0000C8F4403260F08C2F612F202F0E94AD1249
:102E1000A114B10411F4CA5F07C0C55F05C0842FB7
:102E2000880F840F880FC80F0894E11CF11CD15043
:102E3000DD2379F6C093220DDF91CF911F910F9181
:102E4000FF90EF90DF90CF90BF90AF9008950F93D9
:102E5000022F2FEF0E94CE160F910895982FAB01ED
:102E600080E0692F20E00E942717089520E00E944B
:102E7000271708950F93FA0194914F5F5F4F929F28
:102E8000F00111244E0F5F1F292F0E94CE160F91C3
:102E90000895EF92FF920F931F93CF93DF93E82E45
:102EA000F62E142F022F442319F44DE752E111C0DE
:102EB000E22FF0E0EF01C074D07026FD0CC0463167
:102EC00021F446E752E121E027C04A3E21F446E7DB
:102ED00052E120E021C017FF08C08E2D82506F2DD7
:102EE00048E02EE50E945311119516317CF0209791
:102EF00011F085E101C086E1181B07FD07C08E2D8A
:102F00008E5E6F2D4DE6202F0E94AD12212F215095
:102F10008E2D6F2D47E855E10E943A17DF91CF9132
:102F20001F910F91FF90EF9008950F931F93CF93F0
:102F3000DF93182FD62FC42F022F47FF09C084E03C
:102F4000841BC82F812F865041E20E94AD1208C019
:102F5000453034F448EF55E12C2F0E943A1708C051
:102F60004C2F4450202F2064812F6D2F0E94491731
:102F7000DF91CF911F910F9108950F93942F022FFE
:102F8000915049E253E1292F0E943A170F91089579
:102F90000F93942F222311F002E001C000E046E7D6
:102FA00052E1292F0E943A170F910895E09173067C
:102FB000F0E0E956F54FE491F0E024E030E0281B22
:102FC0003109220F331F02C0F595E7952A95E2F7E4
:102FD0008E2F83708F5F08959C01B5E035952795FE
:102FE000BA95E1F7280F391FAC01440F452F441F54
:102FF000550B241B350B892F990F990B8595280F9D
:10300000391FC9010895209177062295220F207E4D
:103010002595259525952595259527FF0CC03327C2
:1030200027FD309561E070E0621B730B90E00E9419
:10303000416C862F0895222321F02F5F289F802D39
:103040001124089590E001979C01220F331F280F4F
:10305000391F2C5B3C4FF901E25DFD4F6083F901A4
:10306000E45DFD4F83E28083235D3D4FF9014083A2
:10307000089520E030E08830D0F490E0AC01440FB7
:10308000551F440F551F480F591F4C5B5C4FFB01E8
:10309000E20FF31FE491DA01A20FB31FA454BE4F55
:1030A000EC932F5F3F4F2530310589F7089590E06D
:1030B000AC01E3E0440F551FEA95E1F7480F591FB3
:1030C0004C5B5C4FFB01E20FF31FE491DA01A20FAE
:1030D000B31FA456BE4FEC932F5F3F4F29303105ED
:1030E00089F70895FF920F931F93CF93DF93F82EE4
:1030F00040E050E0682F70E0842F9A01F3E0220F47
:10310000331FFA95E1F7240F351FF901E25AFC4FFE
:1031100090819F7789F0285A3C4FF90120812F70C8
:1031200030E06217730744F08F5F4F5F5F4F4032AC
:10313000510511F78032A9F190E0EC01A3E0CC0F2A
:10314000DD1FAA95E1F7C80FD91F8E01085A1C4F41
:103150009C012F5F3F4FB901B3E0660F771FBA950F
:10316000E1F7620F731F809590958096AC01E3E0C4
:10317000440F551FEA95E1F7480F591FCB01885AB4
:103180009C4FB8010E94976C89E0F80111928A95D2
:10319000E9F7E8019F2D9F708881807F892B8883C4
:1031A00002C008E513E0C801DF91CF911F910F9194
:1031B000FF900895CF93DF930F92CDB7DEB7282FFE
:1031C00030E0A4E0220F331FAA95E1F7260F311D4E
:1031D000CE010196B90141E050E00E94B96C8981AD
:1031E0000F90DF91CF910895EF92FF920F931F936D
:1031F000CF93DF930F92CDB7DEB7062F1091150D49
:10320000882309F459C0812F0E94B3157C01002343
:1032100011F0115001C01F5FD7012C9117FF0DC095
:10322000822F8C7009F48EC0822F869586958D5FD3
:103230008370880F880F237F52C01E3071F4822F55
:103240008C708C3009F47EC0822F869586958F5FB6
:103250008370880F880F237F65C0812F29830E9488
:10326000B315FC018081298128272C7011F483700B
:10327000F9F4D7019C91892F869586958370002358
:1032800059F0882309F45EC08D5F8370880F880F22
:10329000937F982B9C9349C0833009F453C08F5F70
:1032A0008370880F880F937F982BF70190833DC020
:1032B000C701BF0144E041C0812F0E94A6157C01D7
:1032C000002311F0115001C01F5FD7012C9117FF8F
:1032D00009C0822F8F70B1F1815F8F70207F282B02
:1032E0002C9323C0103219F4822F8F7016C0812FB7
:1032F00029830E94A615FC018081298182278F7075
:10330000C9F0822F8F70002341F08823D9F0815FAC
:103310008F70207F282BD701E3CF8F3099F08F5FFC
:103320008F70207F282BF701208311E082E00E941C
:10333000C61309C0C701BF0149E00E94CC13109316
:10334000150DF3CF10E0812F0F90DF91CF911F91DA
:103350000F91FF90EF9008950F931F93CF93DF93FA
:10336000162F062F0F5F882301F1862F0E94B315B9
:10337000EC01802F0E94B3159C01412F50E0409535
:103380005095425F5F4F440F551F440F551FCE01AC
:10339000B9010E94976C8DE00E94B315DC011D926B
:1033A0001D921D921C92139722C0862F0E94A61573
:1033B000EC01802F0E94A6159C01812F90E0809542
:1033C00090958096AC01B3E0440F551FBA95E1F794
:1033D000480F591FCE01B9010E94976C8FE10E94DE
:1033E000A615FC0189E0DF011D928A95E9F782E0CC
:1033F0000E94C613DF91CF911F910F9108951F93E3
:10340000CF93DF93162F882329F1862F0E94B315BF
:10341000EC01412F50E040955095425F5F4F440FC3
:10342000551F440F551F0496BE010E94976C1882C9
:1034300019821A821B8293E098838091230D815018
:103440008370880F880F892B88838A818170886CAC
:103450008A832FC0862F0E94A615EC01812F90E051
:10346000809590958096AC0123E0440F551F2A95D6
:10347000E1F7480F591FCE010996BE010E94976CD3
:1034800089E0FE0111928A95E9F78091230D282F9A
:1034900021502F709881907F922B9883853014F45F
:1034A0000E94D6178F779E819078982B9E8384E612
:1034B000898382E00E94C613DF91CF911F91089506
:1034C00080E291E0E8E5F3E0DF019C011D922150EC
:1034D0003040E1F782E00E94C6130895CF92DF9258
:1034E000EF92FF920F931F93CF93DF9300D000D002
:1034F0000F92CDB7DEB7982F19821A821B821C82D9
:10350000DD2418C08C2D9D830E94D617282F30E013
:103510009D812017310711F4D701DC920F5F1F4FF7
:103520000894E11CF11C0530110561F7B4E0CB16DD
:1035300051F0DC2C7E010894E11CF11C01E010E04C
:10354000CD2CC394DFCF933009F46DC0943028F4B0
:10355000913099F19230F0F50AC0953009F4DAC053
:10356000953008F489C0963009F087C24AC20E949B
:10357000601A89810E947218FC01868180788160BE
:10358000868314E611838A810E947218FC01868169
:1035900080788260868311838B810E947218FC017F
:1035A000868180788360868311838C810E94721863
:1035B000FC0186818078846033C08B810E94721800
:1035C000FC0186818078886086838CE9818381E82C
:1035D000828353C20981802F0E947218FC01868168
:1035E00080788160868314E61183802F0E94721890
:1035F000FC0186818078826086838CE981830A81E0
:10360000802F0E947218FC018681807881608683F9
:103610001183802F0E947218FC018681807882605D
:10362000868311832AC20A81802F0E947218FC01AE
:10363000868180788260868314E61183802F0E94C1
:103640007218FC01868180788460868311830C81E6
:10365000802F0E947218FC018681807882608683A8
:103660001183802F0E947218FC018681807884600B
:1036700086838CE9818301C21A81812F0E9472188E
:10368000FC01868180788260868388E48183812F33
:103690000E947218FC01868180788360868317E31C
:1036A0001183FC808F2D0E947218FC018681807826
:1036B000826086830CED01838F2D0E947218FC01BD
:1036C00086818078846086838EE381838F2D0E943B
:1036D0007218FC018681807883608683118385E07F
:1036E0000E947218FC018681807882608683018343
:1036F00085E00E947218FC01868180788460868350
:1037000082EC818385E00E947218FC0186818078BA
:10371000836086CF0E94601AE0E0F5E048E2F42E74
:10372000DF018F2D1D928A95E9F7B89688E4DF01B5
:103730001D928A95E9F70C81802F0E947218FC0176
:10374000868180788263868352E3E52EE182802F32
:103750000E947218FC0186818078836386831CE94D
:103760001183802F0E947218FC0186818078846307
:10377000868304E6018387818F7380648783DA8080
:103780008D2D0E947218FC01868180788263868369
:1037900011838D2D0E947218FC01868180788463CC
:1037A0008683018387818F7380648783DB808D2D7F
:1037B0000E947218FC018681807883608683018371
:1037C0008281807C846082838381807C8760838324
:1037D00087818F73806487838D2D0E947218FC010E
:1037E000868180788360868301838281807C856086
:1037F00082838381807C8860838387818F738064E8
:1038000087838D2D0E947218FC01868180788360E9
:1038100086838EE681838281807C86608283838139
:10382000807C8860838387818F73806487838D2DFC
:103830000E947218FC01868180788860868383E804
:10384000818381E8828387818F7380648783898104
:103850000E947218FC0186818078816086830183D2
:1038600084E00E947218FC018681807888608683DB
:10387000E1828281807C8863828387818F73806408
:10388000878384E00E947218FC01868180788860BA
:1038900086836EECE62EE1828281807C8860828362
:1038A00087818F738064878384E00E947218FC0193
:1038B0008681807887608683F18287818F738064B8
:1038C000878385E00E947218FC018681807882637C
:1038D0008683E18285E00E947218FC0186818078EF
:1038E00083638683118385E00E947218FC018681C0
:1038F000807884638683118387818F738064878354
:1039000088E00E947218FC0186818078826086833C
:103910008CE3818389E00E947218FC0186818078A3
:10392000846086838CEC81838AE00E947218FC019B
:10393000868180788360868316E411838281807C0F
:10394000846082838381807C8960838387818F7395
:10395000806487838AE00E947218FC0186818078E7
:103960008360868311838281807C856082838381EA
:10397000807C8A60838387818F73806487838AE0F9
:103980000E947218FC01868180788360868311838F
:103990008281807C866082838381807C8A6083834D
:1039A00087818F73806487838AE00E947218FC018C
:1039B000868180788360868301838381807C8B60AD
:1039C000838387818F738064878381E8828380E02B
:1039D0006CE57FE00E94391881E061E67FE00E949B
:1039E000391882E066E67FE00E94391883E06BE6D2
:1039F0007FE00E94391884E060E77FE00E94391878
:103A00003CC08EE00E947218FC0186818078896338
:103A1000868384E6818388E885838FE00E9472181C
:103A2000FC0186818078836186831EE611838FE0A6
:103A30000E947218FC01868180788860868382E902
:103A400081838BE882838FE00E947218FC0186815B
:103A500080788860868311838CE8828381E06BE0C4
:103A600044E20E94221882E061E049E60E942218A6
:103A700083E062E047E90E94221882E00E94C613B8
:103A80000F900F900F900F900F90DF91CF911F919B
:103A90000F91FF90EF90DF90CF9008958EED92E020
:103AA000E4E4F3E0DF019C011D9221503040E1F796
:103AB00080E00E946E1A089580E094E0E0E1F7E073
:103AC000DF019C011D9221503040E1F708950F93D2
:103AD0001F93CF93DF93EC018B010E945C1D82E268
:103AE00060E044E557E124E00E94271780E2BE0130
:103AF0000E942E1788E2B8010E942E1780E365E726
:103B00007FE00E942E170E942311809158060E9488
:103B100049110E947F10DF91CF911F910F9108955D
:103B200060E00E94DA180895CF92DF92EF92FF9240
:103B30000F931F93CF93DF93EC016B01888190E08B
:103B4000FC01EE0FFF1FE80FF91FE253FE4F20812B
:103B50008181382F3F7089819A81B901681B790B67
:103B60007A016417750708F47B01870115C08B8102
:103B70008823A9F06C816F5F6C830E94DA18F601CC
:103B800081936F018C818F3028F01C828B810E9481
:103B9000901D8B83015010400115110541F789815B
:103BA0009A818E0D9F1D801B910B9A8389838E2D88
:103BB000801BDF91CF911F910F91FF90EF90DF90CD
:103BC000CF900895CF93DF93C82FD82F04C08D2FA7
:103BD0000E94901DD82F8D2F0E94901D8823B9F729
:103BE0008D2F6091CB010E94AF10C093CB010E943A
:103BF000A610DF91CF910895CF93DF938091CB01F1
:103C0000C0E0D0E003C02F960E94901D8823D9F712
:103C1000CE01DF91CF910895AF92BF92CF92EF92F4
:103C2000FF920F931F93CF93DF930F92CDB7DEB721
:103C30007C01842F122FF701A180BB2495012F5FF7
:103C40003F4F277090812917D9F09091100B99233D
:103C500039F0662329F090917806965F960F01C09F
:103C600090E0AE0CBF1CF501968329830E940318D7
:103C7000F501868B168F06A3C6862981F70121835D
:103C80000F90DF91CF911F910F91FF90EF90CF9008
:103C9000BF90AF900895CF93DF93282F30E0D901E4
:103CA000AD51B44F8C91E901CB51D44F861719F423
:103CB00088818417A9F08BE090E0289FF001299F6C
:103CC000F00D389FF00D1124E653F44F108220526E
:103CD000344FF90110826C93488381E08093E20BAA
:103CE000DF91CF910895CF93C82F80E060E048E83E
:103CF0005FE022E00E94271786E660E04C2F22E07A
:103D00000E94AD12CF9108955498579808958F70DE
:103D10008E3068F490E0FC01EE0FFF1FE80FF91FF2
:103D2000E851F44F83E6828380818F7C80830895FD
:103D3000362F37953327379520E0309307072093A8
:103D400006070E94B90E0895FF920F931F93CF9319
:103D5000DF93C1E0D0E00DE010E0FC2EC09FF00149
:103D6000C19FF00DD09FF00D1124E953FA4F8581CA
:103D7000882329F060E00E94981E882329F4219668
:103D8000C530D10551F7FF248F2DDF91CF911F91C1
:103D90000F91FF9008952F923F924F925F926F92F2
:103DA0007F928F929F92AF92BF92CF92DF92FF92BB
:103DB0000F931F93CF93DF931C01862FA8E0B7E0EA
:103DC000F10198E001900D929150E1F78F3F11F4CD
:103DD0000E94A41ECC24DD24FF24FA9494E6492EEC
:103DE000512C612C712CA12C24E0B22E882E992408
:103DF0000894811C911CE601CC0FDD1FCC0FDD1F48
:103E0000C853DB4F8881982F937009F496C086952C
:103E10008695837090E02F2D332727FD30958217EC
:103E2000930709F482C08981982F907E59F09A8176
:103E300090FD08C082958695877090E08816990657
:103E400009F073C08981880F880F880F8595859543
:103E5000859561E00E94981E882309F466C08881D8
:103E6000182F169516951370E12FF0E0EE0FFF1F37
:103E7000E85FF84F20813181837037FF03C080FDF8
:103E800003C053C081FF51C0F12E6B81772767FDBE
:103E9000709561157105F9F0032F001F0027001FB1
:103EA00019F0309521953F4F77FF0CC070956195C3
:103EB0007F4FC501821B930B0E940E159501281B95
:103EC000390B04C0C9010E940E159C01002319F092
:103ED000309521953F4F6881862F807F61F06295F4
:103EE0006F70862F90E08B3091050CF06C5FC901EC
:103EF0000E9466159C01B901882777FD8095982F4F
:103F00002A81269530E040E050E00E94026CA30137
:103F100092010E94766CE12FFF27E7FDF095EE0FEE
:103F2000FF1FE20DF31D208331830894C11CD11CB7
:103F30008EE0C816D10409F05ECFDF91CF911F91BA
:103F40000F91FF90DF90CF90BF90AF909F908F9098
:103F50007F906F905F904F903F902F9008952F9299
:103F60003F924F925F926F927F928F929F92AF9209
:103F7000BF92CF92DF92EF92FF920F931F93CF9356
:103F8000DF93CDB7DEB728970FB6F894DEBF0FBE2C
:103F9000CDBF8A830091C605002309F447C0209154
:103FA000A3023091A402442737FD4095542F8090FE
:103FB000A7029090A802AA2497FCA094BA2CCA0148
:103FC000B9010E94026C6B017C01C501B401A5011D
:103FD00094010E94026CDC01CB01C80ED91EEA1EBE
:103FE000FB1E802F90E0A0E0B0E01AE0880F991F40
:103FF000AA1FBB1F1A95D1F7BC01CD0124E630E002
:1040000040E050E00E94766C622F732FCA010E943C
:10401000026CDC01CB018C159D05AE05BF0530F4AB
:10402000C701B6010E94A6147C0102C0EE24FF2441
:10403000B70180E090E024E630E040E050E00E94EC
:10404000026C6B837C838D839E83EBE26E2EE6E0B5
:104050007E2E442455241982F1E02F2E312C470165
:10406000842D843070F4E0910F02F0E0EE0FFF1F1A
:10407000EE0FFF1FE40DF51DE155F54FE490EA94B6
:1040800001C0E42C0E9401159C01D3018D919D91EA
:104090003D01281B390BC901AA2797FDA095BA2F0E
:1040A0004AE0880F991FAA1FBB1F4A95D1F7F30159
:1040B000121613061CF4228D338D02C0248535851B
:1040C0002436310514F424E630E0442737FD4095CA
:1040D000542FBC01CD010E94766C38872F83FCEFF2
:1040E00020303F072CF084E02130380734F409C039
:1040F000A0E0BCEFB887AF8304C0E0E0F4E0F8874D
:10410000EF838091700680FF0AC0F2E0EF1639F469
:104110002F813885309521953F4F38872F83AE2CDE
:10412000BB24F501EE0FFF1FEF55FD4F8F819885E2
:104130009183808397FF03C0909581959F4F24E0E2
:10414000969587952A95E1F78230B8F4882341F453
:10415000C1010A2C02C0880F991F0A94E2F70AC015
:1041600091010A2C02C0220F331F0A94E2F78091BA
:104170002C0C82239981982B9983A3E0AE1508F427
:1041800095C08091B10B882309F061C08E2D8F5EA0
:1041900090E04097F10102C0EE0FFF1F8A95E2F711
:1041A000CF01816020910A0230910B028223932378
:1041B000009709F44CC0A501440F551F4C59594FA5
:1041C000DA01CC908C2D807C09F441C08C2D8F734A
:1041D00090E0DC01AA0FBB1FAC54B44FFC01EE0F02
:1041E000FF1FE45AF94F2D913C91119780819181E5
:1041F000281B390BB901882777FD8095982FFA0184
:104200002181332727FD3095432F532F0E94026CC5
:1042100022E330E040E050E00E94766C89019A0190
:10422000C294C694C69483E0C8228C2D90E081305D
:10423000910521F08230910551F407C08F81988556
:10424000800F911F98878F8302C018870F83811476
:10425000910419F191E0E91619F0A3E0EA16E9F4E6
:10426000EF81F885BF01882777FD8095982F2091F1
:10427000C60530E040E050E00E94026CEAE0660FC4
:10428000771F881F991FEA95D1F72B813C814D81BB
:104290005E810E94766C2F833887F501EE0FFF1F39
:1042A000E755F44F2F813885318320830894411CD2
:1042B000511C37E04316510409F0D2CE89EA9BE045
:1042C0006A810E94CB1E41EAA42E4BE0B42E80E00E
:1042D000212C54E0352E412C68E0562E612C712C97
:1042E0008B8345018B816A810E948D166B810E94B0
:1042F00058165C018B818230B9F58091540383FF9D
:1043000033C08091700680FF04C0B094A194B108BE
:10431000B3946501EE24D7FCE094FE2C8DE790E089
:10432000A0E0B0E0C80ED91EEA1EFB1E8091AD0BC6
:104330009091AE0B9101281B390B442737FD409516
:10434000542FC701B6010E94026CA30192010E9482
:10435000766C89019A01003098E0190790E02907EE
:1043600090E0390731F404C080911102882339F5B7
:104370008501000F111FD4010D931D934D01BB81C9
:10438000BF5FBB83B43009F0ADCF898128960FB6EB
:10439000F894DEBF0FBECDBFDF91CF911F910F917B
:1043A000FF90EF90DF90CF90BF90AF909F908F9055
:1043B0007F906F905F904F903F902F900895AA2428
:1043C000BB24D6CFCF92DF92EF92FF920F931F9331
:1043D000CF93DF93CDB7DEB728970FB6F894DEBF43
:1043E0000FBECDBF6C018091150D0E94B3157C01ED
:1043F0008E010F5F1F4F88E0D8011D928A95E9F763
:10440000D701EC91E695E695E370F0E0EE0FFF1F23
:10441000E00FF11FD182C082C8016FEF0E94CB1E56
:10442000D701EC91E695E695E370F0E0EE0FFF1F03
:10443000E00FF11F8081918128960FB6F894DEBFBE
:104440000FBECDBFDF91CF911F910F91FF90EF90E5
:10445000DF90CF900895CF92DF92EF920F93CF939A
:10446000DF9300D00F92CDB7DEB76C018091100BB7
:10447000882339F0662329F080917806865F860FBD
:1044800001C080E0F6018283842F2B834A836983F5
:104490000E940318F60184832B8125831382808177
:1044A00081834A816981002329F00150C601CC240F
:1044B0000E940C1E0F900F900F90DF91CF910F91E3
:1044C000EF90DF90CF900895CF92EF920F9390915D
:1044D0006D069871983059F0992319F4863038F4A4
:1044E00002C0903131F091E0833020F002C091E0C1
:1044F00001C090E09093100B843138F02091240D8E
:104500009091250D291709F08AC1E82FF0E0E132DA
:10451000F10508F084C1EA5BFF4FEE0FFF1F059025
:10452000F491E02D099484E29DE066E44AE022E003
:1045300002E060C09091240D8091250D981709F03C
:104540006EC184E29DE06CE344E123E002E0EE24EE
:10455000CC24C3940E940C1E84E29DE060E544E1FB
:1045600023E0EE24E394CC24CA9457C184E29DE076
:1045700066E448E204C084E29DE06BE44AE021E0A6
:1045800000E062C084E29DE061E4F8CF84E29DE057
:1045900046E02EC084E29DE066E44AE022E0F0CFEF
:1045A00084E29DE066E4EACF84E29DE066E444E1D3
:1045B000E6CF84E29DE066E44EE1E1CF84E29DE057
:1045C00062E34AE025E000E0EE24CC240E940C1EC9
:1045D00084E29DE06AE54AE025E00E940C1E84E248
:1045E0009DE06EE645E0BFC084E29DE068E74AE0FA
:1045F00021E000E0EE242AC084E29DE068E707C0E5
:1046000084E29DE06AE703C084E29DE06CE746E057
:1046100020E0B6CF84E29DE068E74FE023E003E0CE
:1046200013C084E29DE068E74FE023E002E00CC0A5
:1046300084E29DE068E74FE023E005C084E29DE06E
:1046400066E444E129E101E0EE24E3940E942B2298
:10465000E6C084E29DE06AE503C084E29DE064E692
:104660004FE025E0D6C084E29DE064E64AE022E027
:1046700002E0EE24E39452E0C52ECFC084E29DE038
:104680006FE545E022E00AE0EE24E394CC240E94AA
:104690000C1E84E29DE06FE545E02AE001E00E9407
:1046A0000C1E84E29DE06FE545E022E00AE0B5C023
:1046B00084E29DE060E54AE023E002E0EE24CC24C1
:1046C000CA940E940C1E84E29DE06CE34AE023E061
:1046D000CC24C3940E940C1E84E29DE066E44AE070
:1046E00021E000E032E0E32E97C084E29DE066E442
:1046F00045E021E001E0EE24E394CC240E940C1E6E
:1047000084E29DE062E34FE022E00E940C1E84E21E
:104710009DE060E54FE022E080C084E29DE06EE62F
:1047200045E021E002E0EE24E394CC240E940C1E3C
:1047300084E29DE06CE745E021E030C084E29DE04A
:1047400062E345E025E000E0EE24CC240E940C1E4C
:1047500084E29DE06AE545E025E00E940C1E84E2CB
:104760009DE06EE643E024E002E057C084E29DE075
:1047700060E545E02AE003E0EE24E394CC240E94C7
:104780000C1E84E29DE060E545E024E101E00E942A
:104790000C1E84E29DE060E545E02AE003E03DC0B8
:1047A00084E29DE06AE044E125E002E0EE24E39447
:1047B000CC24C39432C084E29DE062E344E02AE06A
:1047C00002E0EE24E394CC240E940C1E84E29DE0DF
:1047D00066E448E024E101E00E940C1E84E29DE0D2
:1047E00062E348E02AE002E00E940C1E84E29DE0C1
:1047F00066E444E024E101E010C084E29DE068E763
:1048000045E02AE00AE006C084E29DE068E745E072
:1048100022E302E0EE24E394CC240E940C1E0F91CC
:10482000EF90CF9008958F929F92BF92CF92DF9298
:10483000EF92FF920F931F93CF93DF93E82EB42E46
:10484000F02E162FCC24DD24862E992487FC9094FC
:10485000E401C20FD11D0DC0103438F48E2D612F2C
:104860004B2D2FEF0F2D0E94BA111F5F0894C11C12
:10487000D11CC601880D991D8C179D076CF3DF9123
:10488000CF911F910F91FF90EF90DF90CF90BF904D
:104890009F908F9008950F93CF93DF93C82F8091AF
:1048A000AF028823C1F48091B802882321F480915B
:1048B000C302882321F16091C2022091B902309194
:1048C000BA02C90170E00E942D6CD7E0D61B19F026
:1048D000D73018F403C0D1E001C0D7E08C2F8F5F30
:1048E00060E045E028E004E00E94132467E06D1BCF
:1048F0008C2F8E5F43E02D2F00E00E941324DF9168
:10490000CF910F910895EF920F938AE060E14CE60A
:1049100028E204E00E9413248AE060E14CE628E2E9
:104920000FEFEE240E94091240911B0D50911C0DB7
:1049300080E168E10E9436170F91EF9008959093FF
:104940001C0D80931B0D0E94832410921C0D10924D
:104950001B0D0E94231108950F932FEF00E00E947A
:10496000BA110F9108952F923F924F925F926F92DA
:104970007F928F929F92AF92BF92CF92DF92EF92EF
:10498000FF920F931F93CF93DF9300D00F92CDB779
:10499000DEB7382FC62E4A012B83F02E822F99279F
:1049A00087FD9095807390704097B4E095958795BA
:1049B000BA95E1F7282F4B8143FF03C048504B8342
:1049C00009C097FE07C09094819491089394552450
:1049D000539401C055242223E9F0C4016AE070E039
:1049E0000E942D6CCB01FF24F394EAE0F0E005C0B7
:1049F000F394BF010E942D6CCB010097C9F74F2D96
:104A000050E0822F992787FD90958417950714F021
:104A1000F22EF394EB818E2F90E0AC014470507035
:104A2000E2FD06C0E7FF07C012162CF43E5F03C08C
:104A3000AAE0EA2E02C0F5E0EF2EFB81F7FF0DC0E1
:104A4000EF9C802D1124380F552039F04115510568
:104A500011F087E001C085E0380F3093220D4E2D14
:104A60004095430F4A83DD24D39402E010E07AE0BE
:104A7000672E712C222E332427FC3094E6E04E2E34
:104A80004C0C63C0C401B3010E942D6CA82E382FBA
:104A9000305D313351F48B8182FF07C0DF1429F47C
:104AA000EA81EE5FEA8388608B838A816C2D432FD5
:104AB0002B8139830E94AD128D2D90E0398128160B
:104AC0003906D1F5FB81FF7CFB83BF2EF2FF19C0B5
:104AD0008A2D8150833008F40F5FC401B3010E9416
:104AE0002D6CCB01B3010E942D6C1A81823011F024
:104AF000843011F5343311F41F5F1EC011500F5F65
:104B00001BC06EEFA62E2A81A20E922F9150892FE4
:104B1000642D40E099830E9444129981B1FE0BC03C
:104B2000B0FE04C08091120C86FF05C0892F6C2D49
:104B300048E00E94B611AA82C401B3010E942D6C04
:104B40004B014A814E194A83D394FD1408F09ACF41
:104B5000112361F06C2D635F812F402F0E94AC24E4
:104B60006C2D625F812F402F0E94AC24552031F0C4
:104B70008A816C2D4DE22B810E94AD120F900F9017
:104B80000F90DF91CF911F910F91FF90EF90DF90E9
:104B9000CF90BF90AF909F908F907F906F905F90DD
:104BA0004F903F902F9008950F931F93CF93DF93D3
:104BB000C62F122FD02F202F2F7E0E942717202F95
:104BC00020688091220D6C2F412F50E002E00E945E
:104BD000B324D7FF06C08091220D6C2F4AE30E94B8
:104BE000A013DF91CF911F910F9108950F931F9301
:104BF000CF93DF93182FD62FC42F022F47FF07C064
:104C0000865041E20E94AD1286E08C1BC82FC7304F
:104C100044F4812F6D2F4DE453E12C2F0E943A175D
:104C200008C02C2F2650812F6D2F4EE95FE00E9487
:104C3000D425DF91CF911F910F9108950F931F936A
:104C4000CF93DF93182FD62FC42F022F442331F494
:104C50004DE752E120E00E943A1710C047FF06C01E
:104C6000825048E02EE50E945311C1952C2F21500F
:104C7000812F6D2F40EA5FE00E94D425DF91CF9114
:104C80001F910F9108950F93FA013A969AE032918D
:104C9000332371F49150D9F72F5F006143EA5FE04D
:104CA0000E94D42508C000622AE00E94CE1603C0EC
:104CB0009923C9F7F1CF0F9108950F93022F442341
:104CC00021F44DE752E120E006C04D3038F4242FA6
:104CD000215047EC55E10E943A1716C0453128F49F
:104CE000242F2C504AEA5FE00DC0453228F4242FCF
:104CF00024514EEA5FE006C0473230F4242F24529C
:104D000041EB5FE00E94D4250F9108954A3038F0BE
:104D10004F3120F449500E944917089545510E948F
:104D20005D260895942F9150903118F44C5E0E94A6
:104D30005D260895DF92EF92FF920F931F93CF931A
:104D4000DF93E82EF62EEA01122FD02E57FF10C067
:104D500022FF02C087E001C085E09E2D981B892FAD
:104D60006F2D4DE2212F0E94AD12D095C195DF4FDE
:104D7000CE016CE370E00E94416CAB01212F2069F1
:104D80008E2D6F2D02E00E94B32491E012FF90E07F
:104D90008091220D2D2D2123891B6F2D4AE30E9426
:104DA000AD123091220DCE016CE370E00E94416C97
:104DB000AC012D2D2069832F8A5F6F2D02E00E94A8
:104DC000B324DF91CF911F910F91FF90EF90DF906F
:104DD00008950F9300E00E94B3240F9108950F935C
:104DE0001F93CF93DF93062F122FC22FD0E0FE0127
:104DF000E073F070E033F10511F420E001C020E22F
:104E0000212B602F0E94E926C3FD07C08091220D4F
:104E1000602F46E7212F0E94AD12DF91CF911F91A5
:104E20000F9108951F93CF93DF93182FD62FC42F80
:104E300080E860E04D2F50E02C2F0E94E926DA3008
:104E400010F08FE601C085E760E04FE22C2F0E9452
:104E5000AD12DA3010F08FE601C085E7E12FF0E007
:104E6000319660E0AF012C2F0E94E926DF91CF91AF
:104E70001F910895552747FD509520E00E94E9268F
:104E800008950F93982F262F442311F002E001C0BC
:104E900000E084E5692F4DE752E10E943A170F9137
:104EA0000895DF92EF92FF920F931F93CF93DF93BA
:104EB000FA017491EA0122963196E491F0E0379676
:104EC00013E0F595E7951A95E1F7279F90011124D6
:104ED000DE2EE29FA001E39F500DF29F500D1124A2
:104EE000C40FD51F66956695669500E010E040E01A
:104EF000262F30E03695322F222737952795280F19
:104F0000311DE72EFF2414C0D901A00FB11FA05FEF
:104F1000B84FCE0104C0FC010196E491ED93582FE7
:104F20005C1B5717C0F3CE0DDF1D4F5F00581F4F9E
:104F30004D1550F3DF91CF911F910F91FF90EF909E
:104F4000DF900895AF92BF92CF92DF92FF920F93BE
:104F50001F93CF93DF936C015B0100E010E0809121
:104F6000B60290E0A501401B510B8417950708F489
:104F7000AC01F42EC42FD0E0C601800F911F60E079
:104F800070E050E00E94A96C0C0F1D1F8091B602CA
:104F90008F198093B602882309F03FC08091B50233
:104FA00090E0B601600F711FA501401B510B8417E3
:104FB000950708F4AC0180EB92E050E00E94941D4C
:104FC000080F111D9091B502981B9093B50299237B
:104FD00021F580EB92E065EB72E041E050E00E9449
:104FE000941D8130D1F42091B502822F90E027FFEB
:104FF0000CC034E0959587953A95E1F787708093DA
:10500000B6022F702093B502AACF26FFA8CF2F7328
:105010002093B6021092B502A2CFC801DF91CF91C2
:105020001F910F91FF90DF90CF90BF90AF900895A8
:10503000682F80EB92E00E94A4131092B6021092A7
:10504000B50208951F93CF93DF9300D0CDB7DEB79D
:10505000182F81E14A8369830E9418281092010267
:1050600069816295607F609302021093B0024A8169
:10507000409309020F900F90DF91CF911F910895F7
:10508000CF93DF93C9E4D1E09AE0FE0111929A95A3
:10509000E9F78031D0F48F5F0E941828CE016AE0D2
:1050A00070E00E94A2278A30910579F48091B002C5
:1050B00090E0FC01EE0FFF1FE80FF91FE253FE4FD7
:1050C00080812181922F9F7002C080E090E0DF916B
:1050D000CF9108954F925F926F927F928F929F929D
:1050E000AF92BF92CF92DF92EF92FF920F931F93F6
:1050F000CF93DF93D82E66E049EB56E12BE00AEB25
:105100001FE0F0E1EF2EA0E1CA2E0E94F9408823B3
:1051100009F4F9C080E060E04BEC5FE022E00E941F
:10512000271740900D024A94E8E0EE2EAA24552459
:1051300047FC50944091170D4A0D842E9924E401A8
:10514000CC0FDD1FCC0FDD1FC80DD91DC858DB4F9C
:105150005A818B819C81552329F022273327281BD4
:10516000390B01C09C01F401EE0FFF1FEC53FD4F02
:1051700080819181821B930B833391051CF0552311
:1051800051F4BFC02FEF8E3C92071CF4552319F049
:10519000B8C01DE201C01FE74F5F80E06E2D20E028
:1051A0000E9492268DE46E2D412F20E00E94AD12C8
:1051B0008091550385FF03C02DE7C22E02C094E6FF
:1051C000C92E10E0BC2CB1943401660C771C84EC21
:1051D00092E0680E791E4814590451F480910C0233
:1051E000811731F48091180D18162CF002E001C0DF
:1051F00000E0FF2403C003E0FF24F394123009F41D
:105200004AC0133009F45DC0113079F14B815C81E3
:10521000202F206280E36E2D0E94E926FF2069F096
:105220006B817C818D2D48E15CEF28EE33E002E05C
:105230000E949F579C838B8358C0002309F455C05C
:1052400090E8D91609F051C0F301808191812A813B
:10525000222319F0909581959F4F9C838B83109208
:10526000180D82E00E94C61340C04881445655275D
:1052700047FD509588E46E2D202F0E94E926FF20DF
:10528000A1F1688164568D2D4B2D2C2D0E945D5807
:105290008C5988832AC049814C59552747FD509520
:1052A00086E66E2D202F0E94E926FF20F1F069810D
:1052B0006C598D2D4B2D2C2D0E945D588456898361
:1052C00014C08CE66E2D4DE752E12A810E943A17F8
:1052D000FF2059F08D2D6A8140E021E00E945D5849
:1052E00091E0882309F490E09A831F5F143009F05D
:1052F00072CFA394F8E0EF0E27E0A21609F01ACFC0
:1053000002C01EE749CFDF91CF911F910F91FF900F
:10531000EF90DF90CF90BF90AF909F908F907F9055
:105320006F905F904F9008954F925F926F927F922F
:105330008F929F92BF92CF92DF92EF92FF920F9344
:105340001F93CF93DF93B82E69E049EB56E12BE032
:1053500001EE1FE0EE24E394C0E1CC2E0E94F94060
:10536000882309F4C0C080E060E043EE5FE022E003
:105370000E94271740900D024A9418E0DD2455241E
:1053800047FC50948091170D8D0D803109F4ABC00E
:10539000682E7724E301CC0FDD1FC60DD71DCC5638
:1053A000DA4FFF244614570451F480910C028F15F4
:1053B00031F48091180D18162CF002E001C000E0C5
:1053C000EE2403C003E0EE24E39481E0F816A9F094
:1053D00082E0F81609F440C083E0612F4881202F55
:1053E0000E944917EE2009F473C08B2D688145EDAA
:1053F0002BE20E945D5888836BC08881882309F462
:1054000063C04981403140F44B5E82E5612F202F1B
:105410000E945D2620E00FC0453148F4403151F034
:1054200040518CE4612F202F0E945D2603C0242F61
:10543000235101C021E08CE1612F44E354E10E943B
:105440003A17EE2009F444C08B2D698140E027E132
:105450000E945D5889833CC088818823A9F12A81F4
:10546000822E99248981863149F48AE5612F4FE89B
:1054700054E10E943A172CE030E00AC0873159F419
:105480008AE5612F46E754E10E943A1723E030E0B5
:1054900040E050E010C08031D8F4822E992487FC7F
:1054A00090948EE7612FA401202F0E94E9262DE71A
:1054B00030E043E85FEFEE2059F08B2DB40102E0BD
:1054C0000E949F578A8304C0002311F010920C029F
:1054D000F39483E0F81609F065CFD394185F87E062
:1054E000D81609F04FCFDF91CF911F910F91FF9008
:1054F000EF90DF90CF90BF909F908F907F906F90B4
:105500005F904F900895AF92BF92CF92DF92EF924B
:10551000FF920F931F93CF93DF93D82E68E049EB50
:1055200056E12BE003ED1FE0EE24E3947CE0C72E70
:105530000E94F940882309F406C180E060E045ED4F
:105540005FE022E00E942717A0900D02AA9438E0A5
:10555000F32EEE24BB24A7FCB0940091170D0E0D82
:105560000C3009F4F0C0802F90E0A816B90631F491
:105570002091180D121624F413E003C010E001C0AE
:1055800012E0EC01CC0FDD1FC80FD91FC059DA4F54
:1055900080E06F2D48E251E10E943617093010F08B
:1055A00048E301C041E3400F8CE06F2D0E94A0133F
:1055B0002A8180910C02882311F000E001C0012FA4
:1055C00087E16F2D41ED53E10E943A179A81809156
:1055D0000C024881953020F0983008F4AAC0AEC083
:1055E000813011F020E001C0212F86E46F2D0E9450
:1055F0005D26988180910C024981552747FD509581
:10560000953284F04E595F4F823011F000E001C0B6
:10561000012F86E66F2D202F0E949A2600E09FE73B
:1056200030E838C0823011F020E001C0212F88E737
:105630006F2D0E94E92600E09DE733E82BC0212F63
:1056400086E46F2D0E944917498180910C028230B7
:1056500011F020E001C0212F86E66F2D0E9449172E
:1056600001E096E13AEE26E14AEE16C0212F86E4EB
:105670006F2D0E945D26498180910C02823011F0CD
:1056800020E001C0212F86E66F2D0E945D2602E0FA
:1056900096E230E026E240E08091180D18160CF0FA
:1056A00040C01123F1F180910C028130F9F081307A
:1056B00018F08230B1F52EC08D2D6A8140E02DE0CA
:1056C0000E945D588A83202F30E0853028F0883092
:1056D00030F481E090E005C080E090E002C082E01C
:1056E00090E028173907E9F0188212C018818D2D33
:1056F000612F0E945D588883002399F4853221F43C
:1057000015327CF48EE90CC0843259F415324CF019
:10571000198207C08D2D6981432F292F0E945D5862
:105720008983E39488E0F80E87E0E81609F015CF46
:105730000AC0813009F483CF20E082CF813009F4A0
:1057400095CF20E094CFDF91CF911F910F91FF90E3
:10575000EF90DF90CF90BF90AF900895CF92EF92EF
:10576000FF920F931F93CF93DF93F82E60E04BE2ED
:1057700051E126E004EF1FE075E1E72EE5E1CE2ED2
:105780000E94F940882309F4D1C380E060E04AE038
:1057900050E122E00E942717D0910D028091170D51
:1057A0008823A9F588E067E170E10E942E17209117
:1057B0006D06220F220F220F26FB220F220B20F94B
:1057C0002E5FD13011F402E001C000E08AE568E00C
:1057D00041EA52E10E943A17D130D9F460916D0646
:1057E000660F660F660F66FB660F660B60F98F2DFE
:1057F0004EEF21E00E946C588370880F880F880F4D
:1058000090916D06977E982B90936D0602C0C8E02C
:1058100001C0C0E18091170D8230A0F58C2F64E2A9
:1058200070E10E942E17209177062295220F207E8C
:10583000259525952595259525952E5FD23011F432
:1058400002E001C000E08AE56C2F4AEB52E10E94C1
:105850003A17D230B1F4609177066295660F607E98
:10586000659565956595659565958F2D4EEF22E05B
:105870000E946C58877090917706987F982B909330
:105880007706C85F8091170D8330E8F48C2F63E3AF
:1058900070E10E942E1740917806D33011F422E86F
:1058A00001C020E886E66C2F50E00E94E926D33044
:1058B00049F48F2D6091780640E024E60E946C58F0
:1058C00080937806C85F8091170D8430F8F48C2F90
:1058D00061E470E10E942E1740915806D43011F413
:1058E00022E801C020E886E66C2F50E00E94E926FD
:1058F000D43059F48F2D609158064AE02DE20E9471
:105900006C58809358060E944911C85F8091170D0A
:105910008530E8F48C2F6BE470E10E942E174091E3
:105920005906D53011F422E801C020E886E66C2F34
:1059300050E00E94EF26D53049F48F2D6091590632
:1059400048E228E70E946C5880935906C85F80910E
:10595000170D863038F58C2F6BE570E10E942E17FD
:1059600040916F06D63011F422E801C020E886E6A7
:105970006C2F50E00E94E9268091220D6C2F4DE69D
:105980000E94A013D63069F460916F068F2D70E0ED
:1059900040E050E02AEF30E001E00E949F57809302
:1059A0006F06C85F8091170D873008F58C2F6DE664
:1059B00070E10E942E1720917106D73011F402E099
:1059C00001C000E086E66C2F49ED52E10E943A17D3
:1059D000D73049F48F2D6091710640E022E00E949B
:1059E0006C5880937106C85FC93308F09FC28091DC
:1059F000170D883028F58C2F68E770E10E942E176C
:105A000040917006417021E0D83009F020E086E630
:105A10006C2F0E94C817D83079F4609170066170BD
:105A20008F2D40E021E00E946C58817090917006AB
:105A30009E7F982B90937006C85FC93308F076C29A
:105A40008091170D893040F58C2F66E870E10E9437
:105A50002E17409170064695417021E0D93009F02B
:105A600020E086E66C2F0E94C817D93089F4609137
:105A70007006669561708F2D40E021E00E946C58A1
:105A80008170880F909170069D7F982B909370067F
:105A9000C85FC93308F04AC28091170D8A3058F5A3
:105AA0008C2F64E970E10E942E1740917006469594
:105AB0004695417021E0DA3009F020E086E66C2F4F
:105AC0000E94C817DA3099F4609170066695669561
:105AD00061708F2D40E021E00E946C588170880F2A
