:100000000C94230C0C94400C0C94400C0C94400C5D
:100010000C94400C0C94400C0C94400C0C94400C30
:100020000C94400C0C94400C0C94400C0C94C55B4C
:100030000C941F5B0C94400C0C94400C0C94BC4230
:100040000C94E6430C94400C0C9498590C94400C7E
:100050000C94400C0C94400C0C94EB5A0C94400CF7
:100060000C94895B0C943D420C94400C0C94400C15
:100070000C94400C0C94400C0C94400C0C94400CD0
:100080000C94400C0C94400C0C94400CCE59D75A54
:10009000EC59F159D75A065A0B5AD75A205A255AB1
:1000A000D75A3A5A3F5AD75A545A595AD75A6D5A68
:1000B000715A875A895A8B5A8D5A915A20416C74B9
:1000C00069747564650020416C7469747564652099
:1000D000486F6C64002047726F756E6420737065A2
:1000E00065640020436C696D622072617465002054
:1000F0004C6174697475646500204C6F6E67697437
:10010000756465000001081E640101081E64010198
:10011000081E640101081E6401010F32960A0A1EBE
:10012000329620415244552050494C4F54204D6541
:100130006761203F2F382000507265737320616E15
:1001400079206B657920746F20736B69700050089B
:1001500000000000000000006F000007000700140E
:100160007F147F14242A7F2A1223130864623649DD
:100170005522500005030000001C224100004122CE
:100180001C0014083E081408083E080800503000FF
:100190000008080808080060600000201008040239
:1001A000003E41413E0000427F400062514946000E
:1001B00041494936001814127F0027454539003E51
:1001C000494932000179050300364949360006499C
:1001D000291E0000363600000056360000081422A2
:1001E0004114141414144122140800020151090688
:1001F00006090906007E0909097E7F494949363EFC
:10020000414141227F4141221C7F494949417F09A7
:100210000909013E4149497A7F0808087F00417F6A
:1002200041002040413F017F081422417F4040406F
:10023000407F020C027F7F0408107F3E4141413E17
:100240007F090909063E4151215E7F091929462689
:100250004949493201017F01013F4040403F1F2091
:1002600040201F3F4030403F63140814630708706C
:1002700008076151494543007F41410002040810CD
:10028000200041417F000402010204404040404000
:10029000000102040020545454787F484444383804
:1002A00044444420384444487F3854545418087E09
:1002B0000901020C5252523E7F0804047800447D2A
:1002C00040002040443D007F1028440000417F4012
:1002D000007C041804787C080404783844444438CA
:1002E0007C14141408081414187C7C0804040848AE
:1002F00054545420043F4440203C4040207C1C2067
:1003000040201C3C4020403C44281028440C5050C5
:10031000503C4464544C44000836410000007F00C7
:100320000000413608000808221C08081C220808A2
:10033000A0600000000000000000000000000000BD
:10034000FEFE0000000000003E7E00007E3E000039
:100350006060FEFE6060FEFE606060F09898FEFEE9
:10036000989818180C1E1E0C80C0E070381878FC85
:100370008EC6E6763C180000000066763E1E000041
:1003800000000000E0F0381C0E0600000000060E21
:100390001C38F0E000006060C080F8F880C0606049
:1003A00080808080F8F8808080800000000000005D
:1003B000000000008080808080808080808000003D
:1003C00000000000000000000000000080C0E0709D
:1003D00038180000000000000000000000000000CD
:1003E000717100000000000000000000000000002B
:1003F00006067F7F06067F7F0606181819197F7F7D
:1004000019190F06181C0E070301307878301E3FAB
:10041000716367663C3C66660000000000000000F7
:1004200000000000070F1C387060000000006070C2
:10043000381C0F070000060603011F1F01030606F4
:10044000010101011F1F01010101000066763E1E2E
:100450000000000001010101010101010101000092
:100460003078783000000000181C0E0703010000EF
:1004700000000000F8FC0E06060EFCF80000181C38
:10048000FEFE000000000000181C0E0686CEFC7860
:1004900000000606868686CEFC78000080C0E070EC
:1004A000381CFEFE00007E7E666666E6C68600009C
:1004B000F8FC8E86868E1C180000060686C6E67638
:1004C0003E1E000078FCCE8686CEFC78000078FCCC
:1004D000CE8686CEFCF80000307878300000000030
:1004E00000003078783000000000000080C0E0702C
:1004F000381C0E0660606060606060606060060EC0
:100500001C3870E0C0800000181C0E06060686CE5F
:10051000FC7800001F3F706060703F1F000060604B
:100520007F7F606000000000787C6E6763616060C0
:1005300000006060616161733F1E000007070606EE
:1005400006067F7F00001838706060703F1F000053
:100550001F3F716161733F1E000000007F7F00003C
:10056000000000001E3F736161733F1E0000000029
:100570006171391D0F0700000C1E1E0C00000000E9
:10058000000066763E1E0000000000000103070E1A
:100590001C3870600606060606060606060660702B
:1005A000381C0E070301000000000000666703010D
:1005B000000078FCCE8686CEFC780000E0F0B89C87
:1005C0008E8E9CB8F0E0FEFE8686868686CEFC780F
:1005D000F8FC0E060606060E1C18FEFE0606060EA3
:1005E0001C38F0E0FEFE8686868686860606FEFEBF
:1005F0008686868686860606F8FC0E068686868EA3
:100600009C98FEFE808080808080FEFE00000606B2
:10061000FEFE06060000000000000606FEFE0606BE
:10062000FEFE80C0E070381C0E06FEFE00000000DA
:1006300000000000FEFE1C38F0F0381CFEFEFEFE3E
:1006400070E0C0800000FEFEF8FC0E060606060EF6
:10065000FCF8000001010101000000007F7F0101A2
:10066000010101017F7F7F7F6161616161733F1ED5
:100670001F3F70606060607038187F7F60606070DE
:10068000381C0F077F7F61616161616160607F7FFE
:1006900001010101010100001F3F70606161617192
:1006A0007F3F7F7F0101010101017F7F00006060CA
:1006B0007F7F606000001838706060703F1F00002E
:1006C0007F7F0103070E1C3870607F7F6060606071
:1006D000606060607F7F0000010100007F7F7F7F9E
:1006E00000000103070E7F7F1F3F70606060607035
:1006F0003F1FFEFE8686868686CEFC78F8FC0E06B8
:100700000606060EFCF8FEFE8686868686CEFC78F9
:1007100078FCCE868686868E1C1806060606FEFEA9
:1007200006060606FEFE000000000000FEFEFEFEBD
:10073000000000000000FEFEFEFE000000000000C1
:10074000FEFE1E3E70E0C0C0E0703E1E7EFEC08019
:10075000000080C0FE7E0606060686C6E6763E1EC1
:100760000000FEFE060606060000183870E0C08095
:1007700000000000000006060606FEFE0000607095
:10078000381C0E0E1C3870600000000000000000D5
:1007900000007F7F01010101010100001F3F706027
:1007A000666E3C387F677F7F0101070F1D397060DF
:1007B00018387161616161733F1E000000007F7F26
:1007C000000000001F3F7060606060703F1F070FF7
:1007D0001C387070381C0F071F3F70703E3E7070E1
:1007E0003F1F787C0E070303070E7C78000001038F
:1007F0007F7F03010000787C6E67636160606060EA
:1008000000007F7F60606060000000000000010366
:10081000070E1C180000606060607F7F0000000011
:1008200000000000000000006060606060606060C8
:1008300060600000060E1C38706000000000606000
:10084000606060E0C080FEFE80C0E06060E0C0806C
:1008500080C0E06060606060000080C0E06060E0D8
:10086000C080FEFE80C0E060606060E0C08080808C
:10087000F8FC8E86060E1C18E0F0381818181818A8
:10088000F8F8FEFE80C0E06060E0C08000006060BC
:10089000E6E600000000000000006060E6E6000000
:1008A000FEFE000080C0E060000000000606FEFEC4
:1008B00000000000E0E060E0C0C0E0E0C080E0E0F8
:1008C00080C0E06060E0C08080C0E060606060E0A8
:1008D000C08000000000000000000000183C7E66A0
:1008E000666666667F7F7F7F6161606060703F1FC4
:1008F0001F3F70606060607038181F3F70606060FC
:1009000061617F7F1F3F7666666666660707010145
:100910007F7F01010000000001036766666666765E
:100920003F1F7F7F0101000000007F7F00006060AB
:100930007F7F606000001838706060703F1F0000AB
:100940007F7F060F1F3970600000000060607F7FAE
:10095000606000007F7F0000070700007F7F7F7FCF
:100960000101000000007F7F1F3F706060606070C9
:100970003F1FE0E06060606060E0C08080C0E060D9
:100980006060C080E0E0E0E080C0E06060E0C080E7
:1009900080C0E0606060606000006060FEFE6060DB
:1009A00000000000E0E0000000000000E0E0E0E007
:1009B000000000000000E0E0E0E0000000000000B7
:1009C000E0E060E0C080000080C0E060E0E00000A7
:1009D00000000000E0E0606060606060E0E0E06017
:1009E000000080C0787C0E06000000000000FEFEC3
:1009F000000000000000060E7C78C08000008080AF
:100A000080801838F0E0C08080C0E0F03818808026
:100A100080807F7F0606060606070301010307069E
:100A2000060607077F7F7F7F0101000000000101AC
:100A3000616367666666667E3C1800001F3F7060F3
:100A4000607038181F3F7060607038187F7F070F24
:100A50001C387070381C0F071F3F7070383870706A
:100A60003F1F6070391F0F0F1F39706001036766E9
:100A7000666666763F1F6070787C6E676361606053
:100A8000000001031E3E70600000000000007F7F38
:100A900000000000000060703E1E03010000010124
:100AA0000101181C0F0703010103070F1C180101A6
:100AB000010103010200040506075F2D2E2C001B17
:100AC0001E272D36394B4E636C7278878D939CB1FF
:100AD000B4C6C9D2D8E1E40102030401030204044C
:100AE0000203010403020142616420454570726FF4
:100AF0006D204461746100454550524F4D20466F52
:100B0000726D617474696E67004D4553534147457A
:100B1000005350530080400000000000000000001F
:100B200000000000000000000000000000000000C5
:100B300000000000000000000000000000000000B5
:100B400000000000000000000000000000000000A5
:100B50000000000000000000000000000000000095
:100B60000000000000000000000000000000000085
:100B70000000000000000000000000000000000075
:100B80000000000000000000000000000000000065
:100B900000000000000000FCFCFCFCFCFCFCFCFC79
:100BA000FCFCFCFCFCFCFCFCFCFCFCFCFCFCFCFC85
:100BB000FCFCFCFCFCFCFCFCFCFCFCFCFCFCFCFC75
:100BC000FCFCFCFCFCFCFCFCFCFCFCFCFCFCFCFC65
:100BD000FCFCFCFCFCFCFCFCFCFCFCFCFCFCFCFC55
:100BE000FCFCFCFCFCFCFCFCFCFCFCFCFCFCFCFC45
:100BF000FCFCFCFCFCFCFCFCFCFCFCFCFCFCFCFC35
:100C0000FCFCFCFCFCFCFCFCFCFCFCFCFCFCFCFC24
:100C1000FCFCFCFCFCFCFCFFFFFFFFFFFFFFFFFFF9
:100C20007F7F3F3F3F3F3F3F7F7FFFFFFFFFFFFF54
:100C3000FFFF3F3F3F3F3FFF7F7F3F3F3F3F7FFF04
:100C4000FFFFFFFFFFFFFFFF7F7F3F3F3F3F3F3F34
:100C50007F7FFFFFFFFFFFFFFFFFFF3F3F3F3F3F64
:100C6000FF7F3F3F3F3F3F7FFFFFFFFF7F0F0703B8
:100C70000181E0F0F0F0E0000101071FFFFFFFFF3E
:100C8000FFBF3F3F3F3F7FFFFFFFFFFF7F3F3F3FF4
:100C90003F3FBFFFFFFFFFFFFFFFFF3F07030100D5
:100CA000C0F0F8FCFCFCFCF80000000103FFFFFFB3
:100CB0003F0100000080E0F8FCFCFCF800000000B0
:100CC00001FFFF3F070301000010181C1C1C1C182B
:100CD0000000000103FFFFFFFF1F00000000C0F83D
:100CE000FCFCFC1000000000C0FFFFFFE0800000E3
:100CF000000F1F1F1F0F0300000000E0FFFFFFFF9A
:100D0000FFFFFEF8E000000107070180E0F0F8FCBB
:100D1000FEFFFFFFFFFFFFFFFFFFFFE0C0800000BF
:100D20000F1F1F1F1F0F070180C0E0F0FEFFFF070E
:100D300000000000C00F1F1F1F0F07010080E0F020
:100D4000FEFFFFE0C08000000E0E1E1E1E1E1E1EB7
:100D50001E0ECEFEFEFFFF7F0300000080FCFFFFA3
:100D6000FF3F0300000080FCFFFF1F0F0F1F1F1E2F
:100D70001E1E0E0E0781C0E0F0FCFFFFFFFF7F3F4D
:100D80001F0F030180E0F0F8E0800001071F7FFFE4
:100D9000FFFFFFFFFFFFFFFFFFFFFFFFFFFFFFFF63
:100DA000FEFEFEFEFEFEFFFFFFFFFFFFFF1F000037
:100DB0000000C0FEFFFFFEFEFEFEFEFFFFFFFFFF86
:100DC000FFFFFFFFFFFFFFFFFEFEFEFEFEFEFEFE3B
:100DD000FFFFFFFFFFFFFFFEFEFEFEFEFFFFFFFF28
:100DE000FFFEFEFEFEFEFFFFFFFFFFFFFEFEFEFE1C
:100DF000FEFEFEFFFFFFFFFFFFFFFFFFFFFEFEFE09
:100E0000FEFEFEFFFFFFFFFFFFFFFEFEFEFEFEFFFA
:100E1000FFFFFFFFFFFFFF1F1F1F1F1F1F1F1F1FC2
:100E20001F1F1F1F1F1F1F1F1F1F1F1F1F1F1F1FD2
:100E30001F1F1F1F1F1F1F1F1F1F1F1F1F1F1F1FC2
:100E40001F1F1F1F1F1F1F1F1F1F1F1F1F1F1F1FB2
:100E50001F1F1F1F1F1F1F1F1F1F1F1F1F1F1F1FA2
:100E60001F1F1F1F1F1F1F1F1F1F1F1F1F1F1F1F92
:100E70001F1F1F1F1F1F1F1F1F1F1F1F1F1F1F1F82
:100E80001F1F1F1F1F1F1F1F1F1F1F1F1F1F1F1F72
:100E90001F1F1F1F1F1F1F00000000000000000079
:100EA0000000000000000000000000000000000042
:100EB0000000000000000000000000000000000032
:100EC0000000000000000000000000000000000022
:100ED0000000000000000000000000000000000012
:100EE0000000000000000000000000000000000002
:100EF00000000000000000000000000000000000F2
:100F000000000000000000000000000000000000E1
:100F10000000000000000053504500454550524F6E
:100F20004D206C6F77206D656D005468726F74741E
:100F30006C65206E6F742069646C65005265736522
:100F400074207468726F74746C650053776974638D
:100F5000686573206E6F74206F666600506C656103
:100F60007365207265736574207468656D00416CEB
:100F700061726D732044697361626C6564005377BC
:100F8000697463680090281146D431B127331BA0DF
:100F9000264E616D6500534554555000000902020C
:100FA000000000000006020154696D657200452EC4
:100FB0004C696D69747300452E5472696D730054E9
:100FC00072696D20496E6300542D5472616365002F
:100FD000542D5472696D004265657020437472002F
:100FE00050726F746F00750050504D206672616DC5
:100FF00065006D730052784E756D0043555256452D
:101000005300435600414E41004100424700494EC3
:1010100053455254204D4958200045444954204DD1
:1010200049582000536F757263650057656967689A
:1010300074004F6666736574005472696D00437581
:101040007276657300462E50686173650057617251
:101050006E696E67004F4646004D756C747078007F
:1010600044656C617920446F776E0044656C6179EA
:1010700020557000536C6F772020446F776E0053BB
:101080006C6F7720205570006300414C455254002E
:101090004E6F2066726565206578706F21004E6F17
:1010A0002066726565206D6978657221004D454E38
:1010B0005553204F564552464C4F5700707265733A
:1010C0007320616E79204B65790020417264755000
:1010D000696C6F74204D6F6465002052544C20443D
:1010E000697374616E63650020526F6C6C20416E91
:1010F000676C650020506974636820416E676C6599
:101100000020416972205370656564200020436CA3
:10111000696D62205261746520002057617920500A
:101120006F696E74202320002044697374616E63BC
:1011300065200020436F75727365002042656172FF
:10114000696E6700524144494F2053455455500041
:1011500042656570657200486170746963205374FC
:1011600072656E67746800436F6E747261737400A9
:1011700042617474657279207761726E696E67007E
:10118000496E616374697669747920616C61726D0E
:101190000046696C74657220414443005468726F64
:1011A00074746C652072657665727365004D696E46
:1011B0007574652062656570004265657020636FB7
:1011C000756E74646F776E00466C617368206F6E25
:1011D0002062656570004C69676874207377697474
:1011E0006368004C69676874206F66662061667486
:1011F00065720053706C6173682073637265656E0D
:10120000005468726F74746C65205761726E696EF9
:101210006700537769746368205761726E696E67FF
:10122000004D656D6F7279205761726E696E67004F
:10123000416C61726D205761726E696E67004E4F2E
:10124000204441544120416C61726D00527820432A
:1012500068616E6E656C204F7264004D6F6465004E
:10126000120800081C0808081C0800000822004991
:101270000022080000000000227F22000000082257
:10128000004900220800000822004900220800004E
:1012900000227F22000000000008220049002208EE
:1012A0000000081C0808081C080050504D00434866
:1012B00000544D52005354415400544D310D544D7F
:1012C00032005448520D54482500544F54004445B0
:1012D00042554700746D72314C6174206D61780421
:1012E000757300746D72314C6174206D696E047594
:1012F0007300746D7231204A697474657204757379
:1013000000746D61696E206D6178066D73004672C0
:10131000656520537461636B206D696E0462005BC8
:101320004D454E555D20746F2072657365740043A2
:10133000414C4942524154494F4E005B4D454E5538
:101340005D20544F20535441525400534554204D76
:101350004944504F494E54005B4D454E555D205712
:1013600048454E20444F4E45004D4F56452053545E
:1013700049434B532F504F54530044494147005465
:1013800072696D2D202B0056455253494F4E005621
:101390004552533A2056322E30302D002053564EAF
:1013A0003A206F70656E39782D72323332004441C5
:1013B00054453A20323031322D30322D3130005404
:1013C000494D453A2031313A31313A3335004545BE
:1013D00050524F4D2076004355525645004D4F44D4
:1013E0004500535700454550524F4D206F7665726A
:1013F000666C6F770044522F4558504F004F464659
:101400004F4E202D2D2D494E56344348203643480B
:101410002038434820313043483132434831344347
:1014200048313643485175696574204E6F4B657974
:10143000207853686F727453686F7274204E6F72A5
:101440006D20204C6F6E672020784C6F6E672053A4
:10145000494E474F534D5046494C54446F776E4F59
:10146000464620557020206F6666202B3D203A3D71
:101470006368316368326368336368344578702029
:101480002020457846696E6546696E6520204D6569
:101490006469756D436F61727365524554413132B1
:1014A0003350504D2020505858202044534D322066
:1014B00050504D3136504F534E45472D2D2D783ECF
:1014C00030783C307C787C663E30663C307C667C94
:1014D00045444954205052534554412E5448525784
:1014E00065696768744578706F202050686173651E
:1014F000205377746368205768656E2020437572A7
:101500007665202020202020204164642020202097
:10151000204D756C7469706C795265706C6163658F
:10152000202B3D2A3D3A3D4F4E202020204F46465D
:101530002020204F66667365742D2D2D2D002020F0
:10154000763E6F66732020763C6F667320207C7633
:101550007C3E6F66737C767C3C6F6673414E4420A4
:101560002020204F522020202020584F5220202081
:101570002076313D3D7632207631213D763220761F
:10158000313E7632202076313C7632202076313E54
:101590003D76322076313C3D76322053656375725C
:1015A0006974792000202020547261696E65722070
:1015B0000020202020496E7374616E74205472697B
:1015C0006D205472696D73324F6666736574735023
:1015D0006C617920736F756E640020205761726EA4
:1015E00031205761726E3220436865657020526900
:1015F0006E672020536369466920526F626F7420C2
:101600004368697270205461646120204372696389
:101610006B74536972656E20416C6D436C6B5261E3
:10162000746174615469636B202048617074633124
:10163000486170746332486170746333204D656E25
:1016400075204578697420446F776E20202055708E
:101650005269676874204C65667454485252554408
:10166000454C4549443049443149443241494C474D
:10167000454154524E5357315357325357335357B2
:1016800034535735535736535737535738535739C1
:1016900053574153574253574352554420454C45A5
:1016A000205448522041494C2050312020503220B3
:1016B00020503320204D41582046554C4C4359432F
:1016C0003143594332435943334F464641425354C1
:1016D00048735448255448744C50342F4C5035446A
:1016E000534D6F6E6C7944534D58202020005B4D54
:1016F000454E555D045B455849545D00B1554D1646
:101700008C4733423842B052791AD344F743408071
:1017100008042010020144522F4558504F004D49F3
:10172000584552002F3134002F333200464C494780
:1017300048542050484153455300286465666175FC
:101740006C742900436865636B055472696D73009E
:10175000464C494748542050484153450006000331
:101760005472696D73004661646520496E0046617C
:101770006465204F7574004650004D4F44454C0041
:1017800046554E43205357495443484553000002A1
:10179000435553544F4D20535749544348455300E4
:1017A0000002545241494E4552000002020202001A
:1017B000536C617665006D6F6465032520737263F9
:1017C000004D756C7469706C6965720043616C00E2
:1017D0004C494D495453000003030303030303031F
:1017E0000303030303030303434F50592054524997
:1017F0004D205B4D454E555D004D4F44454C534586
:101800004C00667265650044454C455445204D4F7B
:1018100044454C00436F7079696E67206D6F646555
:101820006C2E2E2E004D6F76696E67206D6F64658D
:101830006C2E2E2E004C6F6164696E67206D6F6494
:10184000656C2E2E2E0011241FBECFEFD0E1DEBF1F
:10185000CDBF11E0A0E0B1E0E6EDFEEC02C00590E6
:101860000D92AA32B107D9F71DE0AAE2B1E001C09A
:101870001D92A937B107E1F70E94F25B0C946967EA
:101880000C940000EDE7F0E08081857E808317985E
:101890001F9AAAE8B0E01C9210928B0082E88C9309
:1018A0008081806280830895E0912601F091270174
:1018B0008193F0932701E09326010895873060F427
:1018C00090912708992309F03FC0E82FF0E0EE0F30
:1018D000FF1FE75BFD4F35C08930C8F1803198F4B8
:1018E000E82FF0E0DF01AA0FBB1FA75BB74FEE0F99
:1018F000FF1FE155FD4F8D919C9111972081318102
:10190000821B930B0AC0843158F4E82FF0E0EE0FED
:10191000FF1FE75BF74F80819181880F991F089522
:10192000843238F4E82FF0E0EE0FFF1FEE5AF74F45
:1019300008C0863278F4E82FF0E0EE0FFF1FE85879
:10194000FE4F80819181089580E090E0089580E0CD
:1019500094E0089580E090E0089541E0262F30E083
:10196000683058F440E0F901EE0FFF1FEE0FFF1F43
:10197000E20FF31FED5CF34F0CC028503040F9012B
:1019800053E0EE0FFF1F5A95E1F7E20FF31FE55A00
:10199000F34FBC0160507C4F77FD0DC088E0603094
:1019A000780784F0442319F088E090E002C084E0D6
:1019B00090E0E80FF91F4081552747FD5095542FBF
:1019C00044272EC0272F442321F07070660F771F05
:1019D00002C026957170822F90E0E80FF91F2081D8
:1019E000332727FD309580E092E0861B970B959575
:1019F0008795289FA001299F500D389F500D1124D5
:101A0000E181FF27E7FDF0959B0135952795E29F42
:101A1000C001E39F900DF29F900D1124480F591FB4
:101A2000CA0169E170E00E94E766CB010895609108
:101A300028080E94AD0C0895EFE2F1E020E0822F2B
:101A4000806487B9369A349BFECF349A84B195B1BD
:101A5000880F991F819391932F5F283081F7089504
:101A6000EFE2F1E040E0842F806487B954E080E049
:101A700090E0369A349BFECF349A24B135B1820F70
:101A8000931F5150B1F796958795819391934F5F2E
:101A9000483049F70895AFE2B1E0EFE3F1E040E00C
:101AA000842F806487B9369A208931898D919C91E1
:101AB000119796958795820F931F8E7F11969C9311
:101AC0008E9380819181820F931F96958795918B3C
:101AD000808B349BFECF349A84B195B120813181C3
:101AE000820F931F96958795819391934F5F1296DE
:101AF0004830B1F608952091D8022695269526956E
:101B0000277089F030E021503040F901EE0FFF1FBF
:101B1000EE0FFF1FE20FF31FE80FF11DEC5FFE4F0A
:101B2000E491E093B5010895FC01A091B601B0E005
:101B3000AA0FBB1FAC51BD4F8D939C938FEB0995A2
:101B400080E00E947B0D0895CF93DF93282F30E033
:101B5000D901AE58B24F8C91E901CC58D24F8617BB
:101B600019F488818417A9F08BE090E0289FF00198
:101B7000299FF00D389FF00D1124E85AF24F108282
:101B80002259324FF90110826C93488381E080938F
:101B9000710DDF91CF9108955498579808958F70E3
:101BA0008E3068F490E0FC01EE0FFF1FE80FF91F84
:101BB000EA5CF74F83E6828380818F7C808308957F
:101BC0008E3091057CF4FC01EE0FFF1FE80FF91F2A
:101BD000EA5CF74F90819F7081E09F3009F450C01C
:101BE00080E008958231910589F1833191058CF46B
:101BF0008F30910509F18031910524F48E309105E3
:101C0000D1F533C08031910589F08131910599F585
:101C100017C08431910569F084319105FCF085315C
:101C2000910501F18631910531F522C091B1947091
:101C300023C093B3907820C09091630091701CC032
:101C40008091630091E083FF17C015C0809163000D
:101C500083FF11C091E00E990FC00DC091E00E9B63
:101C60000BC009C091B1907107C093B3907404C0C8
:101C700091B1907201C090E081E0992309F480E075
:101C80000895EF92FF920F931F93CF93DF93F82E57
:101C9000882349F480912C0190912D01892F881F70
:101CA0008827881FE6C0992787FD909597FF03C076
:101CB000909581959F4F863109F4D4C08A3028F4DD
:101CC00090E00D960E94E00DCEC08A50282F30E0A3
:101CD000E901CC0FDD1FC20FD31FCD55D34F9A8121
:101CE000992309F4C5C09A81953038F09A819830CB
:101CF00008F4C6C062E0E62E01C0EE24888181505F
:101D00000E945E0C8C01EE2009F447C078C020913F
:101D10002A0130912B012023312381E02115310547
:101D200021F52EC080912C0190912D01802B912BBB
:101D300090932D0180932C0188810E94410EE82E02
:101D400089810E94410E9A81953019F0963049F4AC
:101D500003C0EE20A9F002C0EE2031F4882321F464
:101D60000FC08E2569F001C081E020912A013091D9
:101D70002B01202B312B30932B0120932A0173C090
:101D800080912A0190912B01009510950823192329
:101D900010932B0100932A0163C0888185323CF0A7
:101DA0002981332727FD30952E593F4F14C0898153
:101DB00029E28202900111243595279535952795C2
:101DC00087FD815C86FB880F880B80F9992787FD4A
:101DD0009095281B390B8A818230A1F1833019F04C
:101DE000813039F42BC017FF28C0109501951F4F83
:101DF00024C017FF27C0109501951F4F23C089816C
:101E000081500E945E0C9C018A81893089F08A3061
:101E100018F4883009F507C08A3079F08B3091F0DA
:101E20008C30D1F414C081E002171307C9F41BC031
:101E300081E002171307B9F413C081E020173107BE
:101E400094F00EC081E0021713076CF009C081E026
:101E50000217130744F404C081E0201731071CF473
:101E600080E001C081E01F1424F091E0892701C0C7
:101E700080E0DF91CF911F910F91FF90EF90089537
:101E800001E010E002C0000F111F8A95E2F7809177
:101E90002C0190912D0180239123009709F037CFD9
:101EA00041CF362F37953327379520E030932D01DA
:101EB00020932C010E94410E0895FF920F931F93CF
:101EC000CF93DF93C1E0D0E00DE010E0FC2EC09F87
:101ED000F001C19FF00DD09FF00D1124E650F34F9B
:101EE0008581882329F060E00E94510F882329F41E
:101EF0002196C530D10551F7FF248F2DDF91CF9169
:101F00001F910F91FF900895AF92BF92CF92DF92F1
:101F1000EF92FF920F931F93CF93DF938091840AE8
:101F2000877090910001981709F43FC080930001D9
:101F3000823021F50E94420C1EBC88EC90E0909308
:101F40007900809378008CE291E09DBD8CBD80EE9D
:101F50009BEA97BD86BD87B7837C87BF8CE386BF2E
:101F60008FE380937C0087B7806287BF80917D007C
:101F7000816080937D001FBC8AE116C00E94420CE4
:101F80001EBC80E49CE99BBD8ABD1DBC1CBC87B700
:101F9000837C87BF8CE386BF8FE380937C0087B709
:101FA000806187BF1FBC8AE08EBD8091840A8770E4
:101FB000823009F082C0789484EE99E090932701F2
:101FC0008093260180910101877489F08091840AB1
:101FD000859585958595859519F0813029F402C000
:101FE00080E803C080E901C088E980930101C091C5
:101FF0000101C7FF07C086E190E00E94E00D882341
:1020000009F4E2C08091520D80930201C5E7D2E04D
:10201000A4E0B1E020E08991999195958795805051
:102020009E4F97FD05C033E08F3F930724F405C012
:1020300080E090E002C08FEF93E0FD013197322FF6
:10204000330F330F392B30838C932F5F129626304A
:1020500011F741E0E42E41E0F42E5EE0C52ED701F9
:102060000D917D0139E0D32E80E190E010E0E80190
:10207000C170D0709C1711F4805F05C081500E9420
:10208000540C9C2F80E1159507950068DA9471F740
:10209000815F0E94540CCA9411F78091260190919F
:1020A0002701019790932701809326018FEF0E94CB
:1020B000540C80E00E94540C76C08091850A85FF04
:1020C00003C0C0E0D5E002C0C0E0D4E04091840A83
:1020D0004595459545954595440F485FE091860A9D
:1020E00084E6E802F0011124E85AFD4F8091500D7A
:1020F000992787FD909528EE33E0829FB001839F5A
:10210000700D929F700D1124685370456E1B7F0BEC
:1021100015E7E12E12E0F12E50E004EEA02E09E0CA
:10212000B02ECC24DD24CC1ADD0A08E512E00E1B0B
:102130001F0B24C09601D7018D919D917D018C15B7
:102140009D0534F08C179D0714F49C0101C09E017D
:10215000205A364FCF01820F931F681B790B200F37
:10216000311FD50111963C932E931396FC93EE9359
:10217000129724E030E0A20EB31E5F5F5417D1F631
:10218000A52FB0E0AA0FBB1FAA0FBB1FAC51B64FC3
:1021900011967C936E931396FC93EE93129715967B
:1021A0001C921E92149784EE99E0909329018093DB
:1021B0002801DF91CF911F910F91FF90EF90DF9059
:1021C000CF90BF90AF900895CF77C09301011ACF01
:1021D00086B380958E77E1F71092B20108957093DF
:1021E000560D6093550D9093540D8093530D4F5F92
:1021F0004093570DE39A80915F01882311F408956D
:10220000A8958091570D1816DCF3089590E0BC0155
:10221000660F771F680F791F6C5F7F4FCB01805A65
:102220009E4F43E050E00E94EF100895CF93DF935C
:1022300000D000D0CDB7DEB7282F30E0F901EE0F87
:10224000FF1FE20FF31FDE011196EC59FE4F93E0E2
:1022500001900D929150E1F7462F50E0F901EE0FF9
:10226000FF1FE20FF31F9A01220F331FD901A40FA2
:10227000B51FEC59FE4FAC59BE4F93E00D90019243
:102280009150E1F7F901E40FF51FEC59FE4FDE0123
:10229000119693E00D9001929150E1F791E09093A7
:1022A0005F016C830E9406116C81862F0E940611CB
:1022B00010925F010F900F900F900F90DF91CF91D0
:1022C000089560932E01682F70E024E0660F771F59
:1022D0002A95E1F78EE291E041E050E00E94EF1094
:1022E000089582E691E062E070E041E050E00E94F3
:1022F000EF10089580E094E0EFE9F3E0DF019C0146
:102300001D9221503040E1F70895A998AB98AC9800
:102310008BBBAD9AAD98AB9AA99A08951F93CF93B2
:10232000DF9310E0CFE9D3E084E00E94851180E1E3
:102330000E948511812F806B0E948511A998AB9A0C
:10234000AC98FE0180E891919BBBAD9AAD9881500D
:10235000D1F7C058DF4FAB9AA99A1F5F183021F709
:10236000DF91CF911F910895CF93C82F81E80E94EC
:1023700085118C2F0E948511CF91089587FD60C033
:1023800047FF02C0640F419567FF02C0460F60E03F
:10239000E62FFF27E7FDF095A42FBB27A7FDB095FB
:1023A000EA0FFB1FE134F10514F040E4461B25352C
:1023B00011F460FF2AEAE62FE595E595E595FF27FC
:1023C000E7FDF095F695FE2FEE27F795E795E80FD8
:1023D000F11DE156FC4F6770C1F0A1E0B0E0062EA0
:1023E00002C0AA0FBB1F0A94E2F7A195A223808125
:1023F000A827A083E058FF4F6850460F06C0808191
:1024000082278083E058FF4F48501416C4F3842F6E
:10241000992787FD9095089668E070E00E94E7662E
:10242000882371F0E058F04041E050E002C0440FD2
:10243000551F8A95E2F741954223808148274083C2
:1024400008952FEF0E94BE110895E62FE695E695B8
:10245000E695F0E0F695FE2FEE27F795E795E80F65
:10246000F11DE156FC4F87E0EF39F807B8F46770CB
:1024700081E090E001C0880F6A95EAF741FF04C04F
:102480009081982B9083089542FF05C0809590819C
:102490008923808308959081982790830895CF920F
:1024A000DF92EF92FF920F931F93CF93DF93062F4C
:1024B00006950695069510E01695102F002717959E
:1024C0000795080F111D01561C4F552747FD5095C4
:1024D000E22FF0E021FD09C020FF0AC080916008D2
:1024E000FF24F39486FD05C003C0FF24F39401C0CC
:1024F000FF24E2FF5BC0EA01CC0FDD1FCA01B3E09D
:10250000880F991FBA95E1F7C80FD91FCA018097A4
:1025100060E170E00E94E76680EA90E0689F9001C9
:10252000699F300D789F300D1124C20FD31FCE50FC
:10253000DE4F85E0AF01487050704115510519F02C
:10254000882319F49CC0882381F0FE019491E05601
:10255000FF4F74919E012F5F3F4FF9016491CF555A
:10256000DF4FFE01C490E90104C0CC2470E060E0BC
:1025700090E0FF2021F0909560957095C094F8014F
:10258000EF57FF4F27E0EF39F20758F4D8019C933B
:1025900011966C931197A058BF4F7C93C0820E5F29
:1025A0001F4F2196815008F0C8CF69C0E3FF0AC0D1
:1025B000FF2011F08FEF01C080E0E80189938E01C8
:1025C00071E001C070E09A01220F331F220F331F08
:1025D000240F351F20553F4F6770C62EDD244FEF67
:1025E00050E0CA01062E02C0880F991F0A94E2F734
:1025F000E82EE094A8E0B0E0AC19BD09CA010A2EAB
:1026000002C0959587950A94E2F7982F909585E0FA
:10261000882329F0F9012F5F3F4FE49101C0E0E0EA
:10262000F110E095772311F0843039F1D7E00F39BC
:102630001D0718F54E2F50E0FA010C2C02C0EE0FCA
:10264000FF1F0A94E2F7E801F881FE21FE0FF883EC
:10265000662389F0F801E058FF4FD7E0EF39FD0716
:1026600050F40A2E02C0559547950A94E2F750811E
:102670005923540F50830F5F1F4F815048F6DF914D
:10268000CF911F910F91FF90EF90DF90CF90089521
:1026900020E00E944F120895CF93DF930F92CDB7A1
:1026A000DEB7682F70E084E0660F771F8A95E1F748
:1026B000CE01019641E050E00E94506789810F9061
:1026C000DF91CF910895CF93DF93C82FD82F04C007
:1026D0008D2F0E944C13D82F8D2F0E944C138823CE
:1026E000B9F78D2F609162010E946111C093620160
:1026F0000E947111DF91CF91089590915702982B0C
:10270000909357020895282F30E0F901EA53FE4FC5
:102710001082882329F48091820A9091830A04C050
:102720008091890A90918A0AF901EE0FFF1FE05407
:10273000FE4F918380832C533E4FF9011082089500
:10274000E82FF0E0EE54F54FE491F0E0EE0FFF1FBC
:10275000E15DFE4F808191810895633031F16430F5
:1027600028F4613051F0623090F40895653039F109
:10277000653008F1663051F525C0493029F497FDE0
:1027800029C0805092400AC097FF2FC029C049300D
:1027900041F4181619060CF180509E4F880F991FAE
:1027A000089518161906E4F020C097FF1EC09095F2
:1027B00081959F4F0895181619067CF011C097FF58
:1027C0000FC008C01816190644F00DC067500E94CB
:1027D000AD0C089580E09CEF089580E094E00895AA
:1027E00080E090E0089580E09CEF08958823E1F078
:1027F00087FF06C0863E1CF0E0E6E81B16C0819508
:102800008B311CF4E82FE05C10C085321CF4E82FFB
:10281000EB5E0BC0893244F4E82FFF27E7FDF0950B
:10282000EB56F54FE49101C0E0E28E2F0895AF9290
:10283000BF92CF92DF92EF92FF920F931F93CF93AD
:10284000DF93C82F162F7A01D22F802F90E070E3EC
:10285000C72ED12CC822D922E4E0AE2EB12CA8225A
:10286000B9222FC080E1C816D10429F0E0E2CE16CB
:10287000D10451F403C0F701408108C0F701808101
:102880000E94F613482F02C0F70144914423D9F067
:10289000CB37C8F4403264F08C2F612F202F0E9478
:1028A0004F12A114B10411F4CA5F07C0C55F05C07F
:1028B000842F880F840F880FC80F0894E11CF11C27
:1028C000D150DD2379F6C0933108DF91CF911F916C
:1028D0000F91FF90EF90DF90CF90BF90AF90089551
:1028E0000F931F93CF93DF93D82FC62F142F022F50
:1028F000442329F0463131F04A3E51F406C043E00A
:1029000054E123C040E054E120C04DEF53E11DC02D
:1029100047FF05C0825048E02EE50E94BE11E12F1E
:10292000FF27E7FDF095F7FF03C0F095E195FF4F16
:10293000FF27E7FDF0953197AF01440F551F4E0F6C
:102940005F1F465A594E8D2F6C2F23E00E9417149B
:10295000DF91CF911F910F9108950F931F93CF9304
:10296000DF93182FD62FC42F022F47FF09C084E012
:10297000841BC82F812F865041E20E944F1211C044
:1029800045307CF4E42FFF27E7FDF095AF01440FBD
:10299000551F4E0F5F1F4753594E23E00E941714D7
:1029A00019C04C2FCA313CF44450812F6D2F202F79
:1029B0000E9470140FC04951812F6D2F202F0E944B
:1029C000701407FD07C0812F8E5E6D2F4DE6202FFE
:1029D0000E944F12DF91CF911F910F9108950F9395
:1029E000022F2FEF0E9417140F910895CF93C82F35
:1029F00080E060E042E251E022E00E94EF1486E6CF
:102A000060E04C2F22E00E944F12CF910895982F42
:102A1000AB0180E0692F20E00E94EF1408950F932E
:102A20001F93CF93DF93EC018B010E947A1182E216
:102A300060E04AE850E124E00E94EF1480E2BE0129
:102A40000E94071588E2B8010E94071580E368E339
:102A500071E00E9407150E948E118091C3020E94AE
:102A6000B4110E94E810DF91CF911F910F9108954A
:102A700020E00E94EF140895823641F0833619F069
:102A8000813669F406C085E895E107C08EE69FE1CE
:102A900004C00E94CC0D80EC97E30E94940D80E06E
:102AA00061E245E00E94A40D81E061E246E00E94FF
:102AB000A40D83E30E94F61486E068E04CEB50E03E
:102AC0000E9438158091580D882319F048E55DE083
:102AD00002C046E151E08CE060E124E10E94EF1485
:102AE00086E060E246EC50E00E9438158091630D6C
:102AF000882319F043E65DE002C046E151E08CE036
:102B000068E224E10E94EF140895823641F0833692
:102B100019F0813669F406C08EEC95E107C08CE3AC
:102B200095E104C00E94CC0D80EC97E30E94940DC7
:102B300080E061E243E00E94A40D81E061E244E0B4
:102B40000E94A40D82E30E94F61486E068E045ED41
:102B500050E00E9438158091580D882319F048E5FF
:102B60005DE002C046E151E08CE060E124E10E94BA
:102B7000EF1486E060E243EE50E00E943815809149
:102B8000630D882319F043E65DE002C046E151E0A1
:102B90008CE068E224E10E94EF140895823661F02F
:102BA000833628F4803659F08136A1F40DC083367F
:102BB00089F48AE49EE10CC085E895E109C00E9491
:102BC000CC0D8EE19DE204C00E94CC0D80EC97E319
:102BD0000E94940D80E061E241E00E94A40D81E03A
:102BE00061E242E00E94A40D81E30E94F6148EE1AE
:102BF00068E04FEE50E00E9438158091580D882310
:102C000019F048E55DE002C046E151E08CE060E18A
:102C100024E10E94EF148EE160E249EF50E00E944F
:102C200038158091630D882319F043E65DE002C0FA
:102C300046E151E086E068E224E10E94EF14089545
:102C40000E94CE1508950F93E42FF0E0AF01440FDA
:102C5000551F4E0F5F1F43505C4E222311F002E0C0
:102C600001C000E023E00E9417140F910895E09145
:102C7000DE02F0E0E154F54FE491F0E024E030E0D2
:102C8000281B3109220F331F02C0F595E7952A95BD
:102C9000E2F78E2F83708F5F08958F929F92AF928D
:102CA000BF92CF92DF92EF92FF920F931F93CF9339
:102CB000DF93F82E4091C20250E04F5F5F4F8AE2EF
:102CC00060E022E102E00E94C12D80E060E046E980
:102CD0005FE022E00E94EF148091840A877021F067
:102CE000823011F0813011F49BE001C09AE08F2D09
:102CF00061E04CEF56E129E00CE91FE03BE0E32EF8
:102D0000C92E0E949E2F882309F4E6C3D091300873
:102D100080912B088823A1F468E041E95FE00E94DC
:102D20003815EE24E394D13009F0EE2488E368E00E
:102D300047E75AE02AE00F2D0E944625C0E101C076
:102D4000C8E001E8A02E0AE0B02E82E0E82E9CE365
:102D5000892E912C04C018E8A12E1AE0B12E809182
:102D60002B088E1508F090C02E2D215080E06C2F7E
:102D700048EA5FE000E00E944C28F5014081DE1542
:102D800051F48091A508882331F48091A408181685
:102D900024F421E003C020E001C022E088E36C2F8E
:102DA0000E94AD14F50141815281DE1509F08FC3F7
:102DB0008091A508813009F087C38091A408181676
:102DC0000CF087C321E086C38091A40820E0181688
:102DD00014F401E001C002E084E56C2F0E94CF2CC6
:102DE000DE1509F04DC08091A40818163CF08091C2
:102DF000A2089091A308009709F442C0F50101814F
:102E000012818091A508813079F0813018F08230EC
:102E1000A1F51BC08F2DF501608146ED2EE20E94C9
:102E2000F225F501808329C0C801B4010E94D36650
:102E30006C018F2D40E02BE30E94F225FCE38F0212
:102E4000800111240C0D1D1D18C0C801B4010E9481
:102E5000D366B2E0CB2EC80E8F2D6C2D41E02EE351
:102E60000E94F225C81A6C2D772767FD7095061B06
:102E7000170B17FF02C000E010E0F5011283018379
:102E8000C85FC93308F028C3E394F4E0EF1609F0F3
:102E900062CF80912B08843060F58C2F6EEA7FE042
:102EA0000E9407154091850A42954695417021E0A0
:102EB000D43009F020E088E36C2F0E942316D43030
:102EC000A1F46091850A6295669561708F2D40E04E
:102ED00021E00E94F22581708295880F807E90917A
:102EE000850A9F7D982B9093850AC85FC93308F0A7
:102EF000F3C280912B08853078F58C2F67EB7FE04B
:102F00000E9407154091850A429546954695417065
:102F100021E0D53009F020E088E36C2F0E942316D1
:102F2000D530B1F46091850A6295669566956170B9
:102F30008F2D40E021E00E94F22581708295880F5C
:102F4000880F807C9091850A9F7B982B9093850AAF
:102F5000C85FC93308F0C0C280912B08863088F55D
:102F60008C2F6FEB7FE00E9407158091850A877098
:102F700090E0AC01440F551F480F591F440F551FD7
:102F800044585B4ED63011F402E001C000E088E303
:102F90006C2F26E00E941714D63079F46091850AD0
:102FA00067708F2D40E024E00E94F2258770909199
:102FB000850A987F982B9093850AC85FC93308F0DB
:102FC0008BC280912B08873040F58C2F68EC7FE016
:102FD0000E9407154091510D443010F04F5E05C01E
:102FE000442311F04C5F01C043E0D73011F422E0DC
:102FF00001C020E088E36C2F0E946328D73049F499
:103000008F2D6091510D40E023E10E94F2258093C5
:10301000510DC85FC93308F05FC280912B0888301A
:1030200088F58C2F60ED7FE00E9407154091840A9F
:103030004695469546954170D83021F421E080911F
:10304000A508811120E088E36C2F0E942316D83058
:10305000A9F46091840A66956695669561708F2DD6
:1030600040E021E00E94F2258170880F880F880FD0
:103070009091840A977F982B9093840AC85FC933F4
:1030800008F02AC280912B08893008F051C08C2F9B
:1030900067ED7FE00E94071518E3CC24DD24A6012C
:1030A00046565B4E8091A5088C1511F4D93069F015
:1030B0008091870A90E00C2C02C0959587950A9420
:1030C000E2F780FF04C002E003C001E001C000E0BD
:1030D000812F6C2F21E00E9417140894C11CD11C71
:1030E0001A5F1236E1F6D930F9F480E6F81631F0BD
:1030F0008091A2089091A3080097B1F08F2D0E94B3
:10310000CF0D1092A40881E090E00090A50802C0C5
:10311000880F991F0A94E2F79091870A9827909355
:10312000870A82E00E947D13C85FC93308F0D4C1CA
:1031300080912B088A3008F00AC18C2F60EE7FE066
:103140000E9407158091840A877090E0AC01440FBB
:10315000551F440F551F480F591F4F555B4EDA300E
:1031600051F48091A508882331F48091A4081816A1
:1031700024F401E003C000E001C002E088E36C2F0A
:1031800025E00E9417144091840A842F877009F06B
:1031900043C04595459545954595552747FD50951F
:1031A000440F551F440F551F4F5E5B4EDA3051F4EC
:1031B0008091A508813031F48091A408181624F478
:1031C00001E003C000E001C002E080E56C2F24E0D4
:1031D0000E9417148AE76C2F46EE5FE00E943815B4
:1031E0004091860A82E34802A0011124445D5E4FAB
:1031F000DA3051F48091A508823031F48091A4082E
:10320000181624F421E003C020E001C022E08AE780
:103210006C2F0E94DD2E49C0823009F040C08091A1
:10322000A508823018F081E08093A5088091840A77
:10323000859585958595859587FD03C083301CF41C
:1032400003C080E001C082E0282F2295207F90916A
:10325000840A9F70922B9093840A992787FD9095FA
:10326000AC0163E0440F551F6A95E1F7481B590B09
:103270004852594EDA3051F48091A508813031F42A
:103280008091A408181624F401E003C000E001C0F6
:1032900002E086E56C2F27E00E94171406C0DA30A2
:1032A00009F051C01092A50803C0DA3009F04BC0F4
:1032B0008091A408181664F08091A2089091A30848
:1032C000009731F48091840A8770E9F18230D9F156
:1032D0008091A508813091F0813018F0823099F505
:1032E00029C06091840A67708F2D40E023E00E941E
:1032F000F22587709091840A987F14C06091840AA7
:10330000862F87706595659565956595823071F412
:103310008F2D40E022E00E94F2258295807F9091DF
:10332000840A9F70982B9093840A0DC08F2D4EEFC6
:1033300024E0F1CF8F2D6091860A4CEF2AE00E94A5
:10334000F2258093860AC85FC93308F0C5C0809112
:103350002B088B3008F0C0C08091840A877009F078
:1033600079C08C2F68EE7FE00E9407158AE46C2FED
:1033700042EF5FE00E9438158091500D992787FD3C
:103380009095AC01440F551F440F551F480F591F0E
:103390004F515F4FDB3051F48091A508882331F401
:1033A0008091A408181624F421ED03C020ED01C07B
:1033B00022ED88E36C2F0E94DD2E8091850A829594
:1033C000817090E0AC01440F551F480F591F4B54BA
:1033D0005B4EDB3021F48091A508813011F000E0D4
:1033E00001C002E08CE56C2F23E00E941714DB3053
:1033F00009F072C08091A40818163CF08091A208D0
:103400009091A308009709F467C08091A5088823CC
:1034100021F0813009F060C00AC08F2D6091500DFD
:103420004CEE24E10E94F2258093500D55C060912E
:10343000850A629561708F2D40E021E00E94F2259F
:1034400081708295807F9091850A9F7E982B9093C2
:10345000850A42C08150823008F03EC08C2F65EF53
:103460007FE00E9407154091520DDB3051F48091AE
:10347000A508882331F48091A408181624F421E9C2
:1034800003C020E901C022E986E26C2F50E002E08F
:103490000E94C12DDB3001F58091A408181634F08C
:1034A0008091A2089091A3080097B1F08091A5089F
:1034B000882391F48F2D6091520D40E023E60E9405
:1034C000F2258093520D08C0823009F47DCC20E0B3
:1034D00001C022E000E080CCDF91CF911F910F91DD
:1034E000FF90EF90DF90CF90BF90AF909F908F9024
:1034F00008956F927F929F92AF92BF92CF92DF9288
:10350000EF92FF920F931F93CF93DF93C82F80E02A
:1035100060E04BEF5FE022E00E94EF148C2F66E04A
:103520004CEF56E129E000E10E94C531882309F4FF
:103530008CC0609030086A94C03611F0C43641F4F3
:1035400067FC06C06092280886E592E30E945C242E
:10355000BB249924DD24D39478E0C72E772467FC1C
:10356000709420912B082B0DE22EFF246E147F0403
:1035700011F402E001C000E0AA24A394283028F44A
:10358000AA2487E08D1528F459C0E6E0ED1508F46B
:1035900055C0992009F4902E2F5F80E06C2D42E0F9
:1035A00050E10E944C28AA2069F0C7010897EC015D
:1035B00063E0CC0FDD1F6A95E1F7C80FD91FC55A2C
:1035C000D34F09C0E701CC0FDD1FCC0FDD1FCE0D9F
:1035D000DF1DCD5CD34F7E011CE2F70141917F01DD
:1035E000552747FD5095812F6C2D20E00E94DD2E40
:1035F0001B5E153991F748E0E42EEC0CAA2019F473
:10360000D394CE2C16C08E010B5F1F4FCCE2F80175
:1036100041918F01552747FD50958C2F6E2D20E04D
:103620000E94DD2ECB5EC03891F7F0E1CF0E82E034
:10363000D80EB394E7E0BE1609F093CF992029F491
:1036400080912B088F5F80932B08DF91CF911F9182
:103650000F91FF90EF90DF90CF90BF90AF909F9031
:103660007F906F9008954F925F926F927F929F929A
:10367000AF92BF92CF92DF92EF92FF920F931F9380
:10368000CF93DF930F92CDB7DEB7B82E80E060E026
:1036900045E050E122E00E94EF148B2D64E045E804
:1036A0005FE026E001E00E94C531882309F49AC05A
:1036B000E0903008F9E4CF2EF2E0DF2EAA2499241E
:1036C000412CA4E05A2E612C712C01C09F2CF92CA6
:1036D000F39488E16A2D49E050E12F2D00E00E942B
:1036E0004C28892D0E94A0138C0194E49550402F02
:1036F0004F704A301CF0495C28E002C0405D20E079
:10370000892F6A2D99830E944F12E4E01695079540
:10371000EA95E1F79981903349F747E09416D9F09B
:10372000F60160817181882777FD8095982F24E6C6
:1037300030E040E050E00E94A866A30192010E94A0
:103740001C67422F552747FD509586E66A2D20E0DD
:103750000E94DD2E0EC04091BC015091BD01F1E0F0
:10376000EF1611F020E001C022E086E66A2D0E94EB
:103770000B2F48E0A40E82E090E0C80ED91EF4168C
:1037800009F0A4CF82E768E24BE050E10E943815CF
:1037900040916E0250916F028EE760E320E00E943C
:1037A000DD2E87E00E94A01323E230E0FC01E29FBF
:1037B000C001E39F900DF29F900D1124492F469573
:1037C0008EE768E350E020E50E94DD2EF1E0EF1681
:1037D00049F48B2D6091C50241E82FE70E94E32553
:1037E0008093C5020F90DF91CF911F910F91FF90B1
:1037F000EF90DF90CF90BF90AF909F907F906F90B1
:103800005F904F9008950F93022F473068F4E42F94
:10381000F0E0AF01440F551F4E0F5F1F45545B4E44
:1038200023E00E94171406C0242F265048E850E1D8
:103830000E944C280F910895AF92BF92DF92EF92B1
:10384000FF920F931F93CF93DF93E82E80912C0864
:10385000882319F04EE050E102C04AE150E180E0D7
:1038600060E022E00E94EF1480912E0890E0EC01CD
:1038700063E0CC0FDD1F6A95E1F7C80FD91FC5576C
:10388000D54F8091310848814F718A5F60E020E018
:103890000E94C72C8E2D60E040E050E020E00CE05C
:1038A0000E94C531882309F4EBC1A090300848E09C
:1038B000F42EDD24BB24A7FCB09420912B082D0D01
:1038C000822F90E0A816B90611F412E001C010E0B2
:1038D000263009F4D9C0273090F4223009F457C0BB
:1038E000233030F4222309F1213009F0C2C134C061
:1038F000243009F48DC0253008F0AFC063C02930F2
:1039000009F440C12A3038F4273009F4E1C02830E6
:1039100009F0AFC10DC12B3009F471C12B3008F48F
:1039200050C12C3009F0A5C188C18CE06F2D44E254
:1039300050E10E9438158CE36F2D4981212F0E94A0
:103940006328112309F495C18E2D698141E024E299
:103950000E94F22589838DC18CE06F2D4BE250E1EE
:103960000E9438154A81552747FD5095212F206820
:103970008CE36F2D0E94DD2E112309F47AC18E2D68
:103980006A8143E82DE70E94F2258A8372C18CE0A8
:103990006F2D42E350E10E9438154885552747FDB9
:1039A0005095212F20688CE36F2D0E94DD2E11236E
:1039B00009F45FC18E2D688543E82DE70E94F2254A
:1039C000888757C18CE06F2D49E350E10E9438157C
:1039D0008F81837090E0AC01440F551F480F591F31
:1039E000440F551F495D5A4E8CE36F2D26E0012F81
:1039F0000E941714112309F43CC16F8163708E2D4E
:103A000040E022E00E94F22583709F819C7F5DC090
:103A10008CE06F2D4EE350E10E9438158CE36F2D42
:103A20004C81212F0E94031C112309F422C18E2DE9
:103A30006C8140E026E10E94F2258C83873008F4F7
:103A400018C190E6E91609F014C187508093280840
:103A500086E592E30E945C240CC18CE06F2D4EE75A
:103A60005FE00E9438158CE36F2D4B81212F0E945F
:103A70007014112309F4FDC08E2D6B814AEE26E1EE
:103A80000E94F2258B83F5C08CE06F2D45E450E158
:103A90000E9438154F8145954595459545958CE390
:103AA0006F2D212F0E946747112309F4E2C06F8117
:103AB00065956595659565958E2D4BEF25E00E9482
:103AC000F2258295807F9F819F70982B9F83D1C024
:103AD0008CE06F2D4DE450E10E9438154881842F11
:103AE000807E59F0429546954770212F20688CE3DF
:103AF0006F2D50E00E94DD2E07C08CE36F2D45E551
:103B000050E1212F0E94EF14112309F4B2C0688103
:103B10006295669567708E2D40E023E00E94F22545
:103B20008295880F807E98819F71982B9883A1C081
:103B30008CE06F2D49E550E10E9438154F81469584
:103B40004695437050E003E0440F551F0A95E1F796
:103B5000475F5A4E8CE36F2D28E0012F0E94171407
:103B6000112309F486C06F816695669563708E2D6A
:103B700040E022E00E94F2258370880F880F9F8129
:103B8000937FA3CF8CE06F2D40E650E10E94381563
:103B90004D8142954F7080E66F2D50E0212F0E949D
:103BA000DD2E112309F465C06D8162956F708E2D35
:103BB00040E02FE00E94F2258295807F9D819F70DA
:103BC0001BC08CE06F2D4BE650E10E9438154D81F3
:103BD0004F7080E66F2D50E0212F0E94DD2E1123C3
:103BE00009F447C06D816F708E2D40E02FE00E9478
:103BF000F2258F709D81907F982B9D833AC08CE039
:103C00006F2D44E750E10E9438154E8142954F7068
:103C100080E66F2D50E0212F0E94DD2E112349F107
:103C20006E8162956F708E2D40E02FE00E94F2252C
:103C30008295807F9E819F701AC08CE06F2D4FE728
:103C400050E10E9438154E814F7080E66F2D50E094
:103C5000212F0E94DD2E112361F06E816F708E2D59
:103C600040E02FE00E94F2258F709E81907F982B7C
:103C70009E83D39488E0F80E97E0D91609F01DCE04
:103C8000DF91CF911F910F91FF90EF90DF90BF9048
:103C9000AF900895823641F0833619F0813669F489
:103CA00006C083E99EE107C08EEC95E104C00E9446
:103CB000CC0D80EC97E30E94940D80E063E241E03C
:103CC0000E94A40D81E065E241E00E94A40D88E31A
:103CD0000E94F61486E068E04AEC50E10E94381534
:103CE0008091580D882319F048E55DE002C046E157
:103CF00051E08CE060E124E10E94EF1486E060E294
:103D00004AED50E10E9438158091630D882319F027
:103D100043E65DE002C046E151E08CE068E224E168
:103D20000E94EF140895823641F0833619F08136EF
:103D300069F406C08CED9EE107C08AE49EE104C0F0
:103D40000E94CC0D80EC97E30E94940D80E06BE222
:103D500043E00E94A40D81E06BE244E00E94A40DC8
:103D600087E30E94F61486E068E048EE50E10E9486
:103D700038158091580D882319F048E55DE002C0A0
:103D800046E151E08CE060E124E10E94EF1486E01E
:103D900060E244EF50E10E9438158091630D882362
:103DA00019F043E65DE002C046E151E08CE068E2D4
:103DB00024E10E94EF140895823641F0833619F011
:103DC000813669F406C085E29FE107C083E99EE180
:103DD00004C00E94CC0D80EC97E30E94940D80E01B
:103DE0006BE241E00E94A40D81E06BE242E00E94A0
:103DF000A40D86E30E94F61486E068E041E051E1FC
:103E00000E9438158091580D882319F048E55DE02F
:103E100002C046E151E08CE060E124E10E94EF1431
:103E200086E060E24DE051E10E9438158091630D1B
:103E3000882319F043E65DE002C046E151E08CE0E2
:103E400068E224E10E94EF140895823641F083363F
:103E500019F0813669F406C08EE69FE107C08CED4B
:103E60009EE104C00E94CC0D80EC97E30E94940D6B
:103E700080E061E249E00E94A40D81E061E24AE055
:103E80000E94A40D85E30E94F61486E068E04AE1F2
:103E900051E10E9438158091580D882319F048E5AA
:103EA0005DE002C046E151E08CE060E124E10E9467
:103EB000EF1486E060E248E251E10E9438158091FB
:103EC000630D882319F043E65DE002C046E151E04E
:103ED0008CE068E224E10E94EF140895823641F0FC
:103EE000833619F0813669F406C08CE395E107C08A
:103EF00085E29FE104C00E94CC0D80EC97E30E9414
:103F0000940D80E061E247E00E94A40D81E061E24F
:103F100048E00E94A40D84E30E94F61486E068E065
:103F200043E351E10E9438158091580D882319F020
:103F300048E55DE002C046E151E08CE060E124E14B
:103F40000E94EF1486E060E24BE351E10E943815D5
:103F50008091630D882319F043E65DE002C046E1DD
:103F600051E08CE068E224E10E94EF1408950F9381
:103F70001F93603408F048C087FF02C0480F80E0FC
:103F8000A82FBB27A7FDB095FD01E40FF11DE13877
:103F9000F10514F040E8481BE62FE695E695E69516
:103FA000F0E0F695FE2FEE27F795E795EA0FFB1F59
:103FB000E156FC4F677081E090E0582F01C0550F2B
:103FC0006A95EAF710E0C801827090700470107072
:103FD000752F709517C030E020FF10C060810097EA
:103FE00011F0652B06C00115110511F0672301C002
:103FF0006527608335952795206802C035952795FC
:1040000041503196442339F71F910F910895AF9293
:10401000BF92CF92DF92EF92FF920F931F93CF93B5
:10402000DF930F92CDB7DEB78C015B01FC0180817D
:1040300090E0FC01EE0FFF1FE80FF91FEB59FE4F58
:1040400020818181382F3F70F80181819281B901EF
:10405000681B790B6A016417750708F46B01760118
:1040600026C0F8016381662329F184818F5F8483F0
:1040700070E094E0660F771F9A95E1F7680F711D65
:10408000CE01019641E050E00E9450678981F50120
:1040900081935F01F80184818F3030F01482838135
:1040A0000E944C13F80183830894E108F108E1149D
:1040B000F104B9F6F801818192818C0D9D1D8E1954
:1040C0009F09928381838C2D8E190F90DF91CF9160
:1040D0001F910F91FF90EF90DF90CF90BF90AF9026
:1040E0000895AF92BF92CF92DF92FF920F931F93EA
:1040F000CF93DF936C015B0100E010E080915E02E2
:1041000090E0A501401B510B8417950708F4AC0102
:10411000F42EC42FD0E0C601800F911F60E070E044
:1041200050E00E9449670C0F1D1F80915E028F199D
:1041300080935E02882309F03FC080915D0290E089
:10414000B601600F711FA501401B510B8417950725
:1041500008F4AC0188E592E050E00E940720080FC7
:10416000111D90915D02981B90935D02992321F59A
:1041700088E592E06DE572E041E050E00E940720A2
:104180008130D1F420915D02822F90E027FF0CC096
:1041900034E0959587953A95E1F7877080935E02B4
:1041A0002F7020935D02AACF26FFA8CF2F732093F4
:1041B0005E0210925D02A2CFC801DF91CF911F91E4
:1041C0000F91FF90DF90CF90BF90AF9008958093B4
:1041D000580210925A021092590290E0FC01EE0F20
:1041E000FF1FE80FF91FE05AFE4F848180935B02A6
:1041F00010925C021092DF0910925E0210925D0232
:104200000895CF93DF9300D0CDB7DEB7E62FF72F19
:104210002AE0DF011D922A95E9F78031F0F48F5FE3
:1042200069837A830E94E7206981862F9A816AE0F8
:1042300070E00E9471208A30910579F480915802D3
:1042400090E0FC01EE0FFF1FE80FF91FEB59FE4F46
:1042500080812181922F9F7002C080E090E00F90BA
:104260000F90DF91CF910895462F50E0882311F1F0
:10427000CA01880F991F880F991F6F5F70E0660F42
:10428000771F660F771F6550744F40955095425FBA
:104290005F4F440F551F440F551F8550944F0E9488
:1042A000376710922F0C1092300C1092310C109234
:1042B000320C2DC09A0173E0220F331F7A95E1F77B
:1042C000240F351F6F5F862F90E0BC01E3E0660F7F
:1042D000771FEA95E1F7680F791F6557754FCA0197
:1042E000809590958096AC01F3E0440F551FFA95A8
:1042F000E1F7480F591FC9018557954F0E9437674D
:1043000089E0E2EAFBE0DF011D928A95E9F782E0AD
:104310000E947D130895CF93DF93462F50E0EA016A
:10432000882319F1CC0FDD1FCC0FDD1FC550D44FF2
:1043300040955095425F5F4F440F551F440F551FE6
:10434000CE010496BE010E943767188219821A8234
:104350001B8280912C0881508370880F880F8360A6
:1043600088838A818170886C29C033E0CC0FDD1F7F
:104370003A95E1F7C40FD51FC557D54FCA018095AF
:1043800090958096AC0163E0440F551F6A95E1F764
:10439000480F591FCE010996BE010E94376789E078
:1043A000FE0111928A95E9F790912C08292F2F711F
:1043B0008881807E822B8883998384E68A8382E049
:1043C0000E947D13DF91CF910895CF92DF92FF92EB
:1043D0000F931F93CF93DF930F92CDB7DEB78CED82
:1043E00092E0E7E7FAE0DF019C011D9221503040A6
:1043F000E1F791E000E010E0A4E6FA2E6801F3E0B6
:10440000CC0CDD1CFA95E1F7C00ED11EABE8BAE08A
:10441000CA0EDB1E292F2F71F6018081807E822B30
:104420008083F282802F8F5F99830E943716D60196
:1044300011968C9311970F5F1F4F99819F5F9F710A
:104440009530E1F682E00E947D130F90DF91CF91CD
:104450001F910F91FF90DF90CF900895582F8823E0
:1044600011F04DE001C04FE180E0242F30E0F90170
:10447000552349F0EE0FFF1FEE0FFF1FE550F44FDD
:10448000908193700BC0B3E0EE0FFF1FBA95E1F778
:10449000E20FF31FE557F54F90819F7191118F5FE8
:1044A000415047FFE2CF0895CF93C82F0E942E229C
:1044B000482F50E0CC2319F02EE030E002C020E27B
:1044C00030E0421753076CF0CC2319F080E990E1FB
:1044D00002C08EE990E1909334088093330881E024
:1044E00001C080E0CF910895A62FB0E0BD01660F16
:1044F000771FFB01E656F74F0190F081E02D3097D2
:1045000079F08FEF4338580724F04D37510524F4E4
:1045100005C043E85FEF02C04DE750E0408328C08C
:1045200090E02DE030E0829FF001839FF00D929F9C
:10453000F00D1124E650F34FAE0FBF1FCA01959541
:104540008795959587958C9383E090E0062E02C021
:10455000880F991F0A94E2F780959481892343700C
:10456000507002C0440F551F6A95E2F7840F848390
:1045700082E00E947D13089570E0AB01440F551F47
:10458000FA01E656F74F0190F081E02D309729F0BF
:104590008081992787FD9095089590E02DE030E087
:1045A000829FF001839FF00D929FF00D1124E65041
:1045B000F34F6E0F7F1FDB018C91992787FD90953C
:1045C000880F991F880F991F2481332727FD309565
:1045D00002C0359527954A95E2F723703070820F17
:1045E000931F08951F93CF93DF93182FC62FD5E005
:1045F00001C0C82FCC2389F08C2F612F0E94BC22D0
:104600009C0181E0253F380744F0822F855F8C179D
:1046100008F08F5FD15069F7C0E08C2FDF91CF9108
:104620001F910895FC018081982F990F9E70807FC3
:10463000892B8083662321F09160807F892B808382
:1046400081818F5F81839281992391F020812F70E6
:1046500079F4933659F0242F20622093B2019031DF
:1046600011F4803118F080818F7C80831182128256
:104670008281883009F44DC0893060F4813009F4BA
:1046800050C08130A8F0823009F443C0843009F072
:104690005BC03FC08F3591F1803620F4803109F046
:1046A00053C037C0813691F0823609F04DC046C004
:1046B0008081982F9F709F3009F046C091E69283C9
:1046C0009181913120F18F7C808321C0406640939D
:1046D000B2011092B8011092B9011092BA01109271
:1046E000BB019081892F82958F708F5F8370829537
:1046F000807F9F7C982B90838FE508C081818831D3
:1047000011F4406818C08832F9F480E18283118284
:1047100008959181903328F090E095958795828354
:104720001182828190E00197218130E082239323DE
:10473000009751F440644093B20108958181803420
:1047400018F088E0828311820895DF92EF92FF9241
:104750000F931F93CF93DF93FA017491EA0122968E
:104760003196E491F0E03796B3E0F595E795BA9588
:10477000E1F7279F90011124DE2EE29FA001E39F25
:10478000500DF29F500D1124C40FD51F66956695EC
:10479000669500E010E040E0262F30E03695322F9D
:1047A000222737952795280F311DE72EFF2414C0A7
:1047B000D901A00FB11FA156BC4FCE0104C0FC010E
:1047C0000196E491ED93582F5C1B5717C0F3CE0D63
:1047D000DF1D4F5F00581F4F4D1550F3DF91CF91F4
:1047E0001F910F91FF90EF90DF9008951F93CF934B
:1047F000DF93EC01162F0E947A1182E260E04AE812
:1048000050E124E00E94EF1480E2BE010E940715EF
:1048100089E168E34CEB50E10E9438150E948E114B
:10482000112319F48091C30201C089E10E94B411DF
:1048300084E00E947B0D0E94E81086B380958E77FD
:1048400091F48091C60260E00E94510F882331F4F8
:104850008091DD02882311F4112319F0C79AA895DD
:10486000ECCFC798FCCFDF91CF911F910895809135
:10487000B6018823D9F081508093B60180E00E9470
:104880007B0D1092A508E091B601F0E0DF01A15682
:10489000B84F8C9180933008EE0FFF1FEC51FD4F05
:1048A0000190F081E02D8EEB099508958DEA90E15D
:1048B00060E00E94F6230895CF93DF93EC0180918E
:1048C000B601E82FF0E0E156F84F90913008908360
:1048D000982F9F5F9093B601953040F08093B6017A
:1048E0008DEA90E160E00E94F6230FC080E00E9414
:1048F0007B0DE091B601F0E0EE0FFF1FEC51FD4F94
:10490000D183C0838FEBFE010995DF91CF9108958C
:104910008F929F92AF92BF92CF92DF92EF92FF92CF
:104920000F931F93CF93DF93182F7B014A016901E7
:1049300084FF07C01F70106674E0A72EE5E0BE2E4E
:1049400004C055E0A52E64E0B62E8B2D80661817A6
:1049500061F08B2D8064181741F08091A40818161F
:104960005CF4133611F0133439F4E701219680E03A
:104970000E947B0D8A2D14C09A2D9066191751F054
:104980009A2D9064191731F018168CF4123611F024
:10499000123469F4E701219780E00E947B0D8B2D92
:1049A00090E00E94E00D882309F065C001C0E70196
:1049B0008114910491F481E0C816D10471F4103689
:1049C00061F41092A408C1E0D0E0E114F10411F008
:1049D000C0E0D0E080E60E94CF0D8091A2089091C7
:1049E000A308C81BD90BCC16DD063CF4812F0E940E
:1049F000CF0D82E00E947B0DE601C815D9053CF47D
:104A0000812F0E94CF0D82E00E947B0DE401CE1524
:104A1000DF0509F1209791F41F701E3060F4812F9B
:104A200090E0FC01EE0FFF1FE80FF91FEA5CF74F63
:104A300082E68283118280E00E947B0D802F83704A
:104A40000E947D13EC16FD0614F481E001C08FEF87
:104A50008093790802C010927908CE01DF91CF913E
:104A60001F910F91FF90EF90DF90CF90BF90AF908C
:104A70009F908F900895CC27DD27CE19DF098A2DCE
:104A80000E94CF0D8B2D0E94CF0D92CFCF92DF923F
:104A9000EF92FF920F931F93CF93DF93F82E162F71
:104AA0006A01C02FEE2011F18091A4081816D4F4E9
:104AB000043251F00532D1F48091A5088823B1F079
:104AC00081508093A50812C03091A508432F50E073
:104AD000822F90E001974817590744F43F5F3093C5
:104AE000A50804C01092A50802E201C000E28F2DC3
:104AF000612FA6010E941714EE2009F45BC080917B
:104B0000A40818160CF056C08091A508F601E80F0D
:104B1000F11DD0818091A2089091A308009741F4E3
:104B2000C23631F0C33621F0C23411F0C334D9F4A7
:104B30006D2F772767FD709577FF03C0709561959E
:104B40007F4F772767FD70958C2F40E050E028E27B
:104B500030E000E00E948824082FD7FD019582E014
:104B60000E947D13D02F8D2F865E853368F48C2FA5
:104B70008458823048F4D19582E00E947D13C53874
:104B800019F485E00E94CF0D8091A508F601E80F89
:104B9000F11DD0838091A508C82FCC0FC80FCC0F72
:104BA000CF0D8D2F0E94F613482F8C2F612F22E0FE
:104BB0000E944F12DF91CF911F910F91FF90EF90C4
:104BC000DF90CF9008950F93772767FD7095552755
:104BD00047FD5095332727FD309501E00E9488243A
:104BE0000F9108950F93772767FD7095552747FD1F
:104BF0005095332727FD309502E00E9488240F91BD
:104C00000895CF93C82F80E060E04EEC52E122E09F
:104C10000E94EF14C236B9F0C33628F4C03631F022
:104C2000C136C1F413C0C336A9F410C08FEF80930E
:104C3000750A1092760A109272021092710280E048
:104C40000E947B0D07C08EE19DE202C080EC97E3DD
:104C50000E94940D80E068E044ED52E10E94381516
:104C60004091760A4695552747FD50958AE568E0BC
:104C700020E00E94DD2E80E060E143EE52E10E94E0
:104C800038154091750A4695552747FD50958AE598
:104C900060E120E00E94DD2E80E068E142EF52E119
:104CA0000E9438158091760A90E02091750A821B47
:104CB000910962E070E00E94E766462F552747FDA4
:104CC00050958AE568E120E00E94DD2E80E060E2F8
:104CD00041E053E10E943815209171023091720237
:104CE00084E690E0289FA001299F500D389F500D29
:104CF000112464E0569547956A95E1F78AE560E2EC
:104D000020E60E94DD2E80E060E34EE053E10E9449
:104D100038158AE79DE0AC010196FA01208125351E
:104D2000D1F349575D408BE660E328E00E94DD2E19
:104D300082E168E34FE153E10E943815CF91089575
:104D40008F929F92AF92BF92CF92DF92EF92FF929B
:104D50000F931F93CF93DF93D82F80E060E04FE253
:104D600053E122E00E94EF148D2F65E045E85FE0FB
:104D700026E000E00E94C531882309F4E5C004EA7A
:104D800017E092EB892E97E0992E7401C0E08C2FEA
:104D90000E94A0139C01D8018C9111969C911197AF
:104DA000281739070CF4C901F801819391938F01F9
:104DB000D7018C9111969C911197821793070CF44F
:104DC000C901F701819391937F01CF5FC730F9F655
:104DD0008091C0078093A307D03219F0DF3B59F4CC
:104DE00008C08F5F8093C007833029F481E00E9460
:104DF0007D131092C0078091C007813069F0813027
:104E000020F0823009F09EC039C082E168E14BE3B6
:104E100053E10E94381596C08091A307882311F0B2
:104E200022E001C020E08EE160E14BE453E10E940A
:104E3000EF1482E168E148E553E10E943815C4EAC5
:104E4000D7E001EC17E0DD24B8E9EB2EBAE3FB2E46
:104E500088E6A82E85ECB82EE992F992D401AD929D
:104E6000BD924D018D2D0E94A013F8018193919365
:104E70008F01D394F7E0DF1679F764C08091A30720
:104E8000882311F022E001C020E082E160E149E6E0
:104E900053E10E94EF1482E168E148E553E10E948A
:104EA000381574EAC72E77E0D72E01EC17E0E6E953
:104EB000F2E040E0A0E4EA2EF12CD6012D913D91E4
:104EC0006D01D401AD90BD904D01C9018A199B09B6
:104ED00097FF03C0909581959F4F83339105E4F030
:104EE000D801CD91DC911197D183C083CE01821B73
:104EF000930B9C01B7010E94E766261B370B37878F
:104F0000268795012C1B3D0BC901B7010E94E7665E
:104F1000261B370B358F248F4F5F0E5F1F4F329646
:104F2000473059F6E6E9F2E040E080E090E0219178
:104F30003191820F931F4F5F4C30C9F79093C1029C
:104F40008093C0020E948D34DF91CF911F910F9109
:104F5000FF90EF90DF90CF90BF90AF909F908F9099
:104F60000895EF92FF920F931F93CF93DF93C82F73
:104F700080E060E04AE753E122E00E94EF148C2FCA
:104F800063E045E85FE026E000E00E94C531882349
:104F900009F47BC0CEE0D0E010E0143020F038EF10
:104FA000E32EE00E01C0E02ECE010E94E00DF82EAF
:104FB0001F5F80E36E2D412F20E00E9470144F2D63
:104FC000405DFF2011F022E001C020E084E46E2D5E
:104FD0000E944F12085F21961930F9F6D8E32FE3AB
:104FE000E22E22E0F22EC0E08C2F90E00E94E00D35
:104FF000182FA70143505C4E80E06D2F25E000E0A4
:105000000E941714412F405D80E26D2F212F0E94D6
:105010004F12CF5F85E090E0E80EF91ED850C63001
:1050200019F784E568E14FE753E10E943815C6E0BF
:10503000D0E010E284E5612F40E652E1202F0E948B
:10504000A523CE010E94E00DF82ECE0101960E940C
:10505000E00DE82E4F2D405DFF2011F022E001C051
:1050600020E08CE6612F0E944F124E2D405DEE2015
:1050700011F022E001C020E088E7612F0E944F126A
:105080000F5F185F22960430A9F6DF91CF911F9130
:105090000F91FF90EF9008950F93CF93DF93C62F5A
:1050A000D22F202F2F7E0E94EF14202F2068809176
:1050B00031086C2F4D2F50E002E00E94C12DDF918E
:1050C000CF910F9108950F93022F442321F443E0D1
:1050D00054E123E00AC04D3058F450E0440F551F0E
:1050E000440F551F4B56594E24E00E94171416C00A
:1050F000453128F4242F2C504AEA52E10DC04532A4
:1051000028F4242F24514EEA52E106C0473230F4ED
:10511000242F245241EB52E10E944C280F91089514
:10512000CF92DF92EF92FF920F931F93CF93DF9373
:105130000F92CDB7DEB7182F80E060E044E451E174
:1051400022E00E94EF14812F60E045E85FE026E056
:1051500004E10E94C531882309F40FC4C0903008CF
:1051600080912B088D3041F48FE08C1514F08CE089
:1051700001C08EE080932B0880912B088823C9F50D
:1051800088E060E571E10E9407158091D80286955C
:1051900086958695877090E0AC01440F551F480FA7
:1051A000591F440F551F4B5D5B4EE1E0CE1611F4C5
:1051B00002E001C000E08AE568E026E00E941714E2
:1051C000F1E0CF16C9F46091D802669566956695B0
:1051D0006770812F40E026E00E94E3258770880FEA
:1051E000880F880F9091D802977C982B9093D802C3
:1051F00003C0A8E0DA2E02C0F0E1DF2E80912B0878
:10520000823000F58D2D67E571E10E940715409110
:10521000E30282E0C81611F422E801C020E886E625
:105220006D2D50E00E94DD2EE2E0CE1649F4812F74
:105230006091E30240E025E00E94E3258093E302D1
:10524000F8E0DF0E80912B08833010F58D2D67E696
:1052500071E10E9407154091C30283E0C81611F462
:1052600022E801C020E886E66D2D50E00E94DD2E88
:10527000E3E0CE1659F4812F6091C3024AE02DE29B
:105280000E94E3258093C3020E94B411F8E0DF0E70
:1052900080912B08843000F58D2D60E771E10E942C
:1052A00007154091C40284E0C81611F422E801C039
:1052B00020E886E66D2D50E00E940B2FE4E0CE162C
:1052C00049F4812F6091C40248E228E70E94E32557
:1052D0008093C402F8E0DF0E80912B08853050F5F2
:1052E0008D2D60E871E10E9407154091DA0285E09A
:1052F000C81611F422E801C020E886E66D2D50E0C2
:105300000E94DD2E809131086D2D4DE60E944813DC
:10531000E5E0CE1669F46091DA02812F70E040E09A
:1053200050E02AEF30E001E00E9488248093DA0206
:10533000F8E0DF0E80912B08863038F58D2D61E97D
:1053400071E10E9407154091DC0250E0440F551FA7
:10535000440F551F415B5B4E86E0C81611F402E016
:1053600001C000E086E66D2D24E00E941714E6E0FF
:10537000CE1649F4812F6091DC0240E022E00E94C9
:10538000E3258093DC02F8E0DF0E80912B08873064
:1053900040F58D2D6CE971E10E9407154091DB020B
:1053A000417021E087E0C81220E086E66D2D0E9462
:1053B0002316E7E0CE1679F46091DB026170812F4D
:1053C00040E021E00E94E32581709091DB029E7F06
:1053D000982B9093DB02F8E0DF0E88E38D1508F43C
:1053E000CCC280912B08883058F58D2D6DEA71E183
:1053F0000E9407154091DB024695417021E0E8E0EC
:10540000CE1220E086E66D2D0E942316F8E0CF161E
:1054100089F46091DB0266956170812F40E021E0A4
:105420000E94E3258170880F9091DB029D7F982B6D
:105430009093DB0288E0D80EE8E3ED1508F49DC2F6
:1054400080912B08893070F58D2D69EB71E10E94F8
:1054500007154091DB0246954695417021E0F9E041
:10546000CF1220E086E66D2D0E94231689E0C81633
:1054700099F46091DB02669566956170812F40E03A
:1054800021E00E94E3258170880F880F9091DB0254
:105490009B7F982B9093DB02E8E0DE0EF8E3FD158E
:1054A00008F46BC280912B088A3088F58D2D68EC4A
:1054B00071E10E9407154091DB024695469546959D
:1054C000417021E08AE0C81220E086E66D2D0E943E
:1054D0002316EAE0CE16A9F46091DB026695669584
:1054E00066956170812F40E021E00E94E325817084
:1054F000880F880F880F9091DB02977F982B9093ED
:10550000DB02F8E0DF0E88E38D1508F436C28091E7
:105510002B088B3018F58D2D66ED71E10E94071573
:105520004091C602EBE0CE1611F422E001C020E06B
:1055300086E66D2D0E947014FBE0CF1649F4812F92
:105540006091C6024AEE26E10E94E3258093C602DE
:1055500088E0D80EE8E3ED1508F40FC280912B081F
:105560008C3008F042C08D2D63EE71E10E9407156A
:105570002091DD022223D1F030E0C901880F991F6C
:10558000880F991F820F931FAC01FCE0CF1611F416
:1055900022E801C020E886E66D2D0E94DD2E809174
:1055A00031086D2D43E70E9448130DC08CE0C816EA
:1055B00011F402E001C000E086E66D2D4DEF53E1ED
:1055C00023E00E941714ECE0CE1649F4812F60917D
:1055D000DD0240E028E70E94E3258093DD02F8E049
:1055E000DF0E88E38D1508F4C8C180912B088D303B
:1055F00068F50091DB0202950F70009501708D2D0A
:1056000063EF71E10E94071521E0EDE0CE1220E08A
:1056100086E66D2D402F0E942316FDE0CF1681F403
:10562000812F602F40E021E00E94E325809581706A
:105630008295807F9091DB029F7E982B9093DB0276
:1056400088E0D80EE8E3ED1508F497C180912B08A7
:105650008E3048F50091D802009501708D2D61E0E3
:1056600072E10E94071521E0FEE0CF1220E086E6FD
:105670006D2D402F0E9423168EE0C81671F4812FE5
:10568000602F40E021E00E94E32580958170909199
:10569000D8029E7F982B9093D802E8E0DE0EF8E3C4
:1056A000FD1508F46AC180912B088F3008F041C0C5
:1056B0008D2D62E172E10E9407154091D80242955A
:1056C000440F407E46FB440F440B40F9552747FDED
:1056D0005095440F551F440F551F415A5B4E8FE0A4
:1056E000C81611F402E001C000E086E66D2D24E04A
:1056F0000E941714EFE0CE16B1F46091D8026295C3
:10570000660F607E66FB660F660B60F9812F4FEFB8
:1057100021E00E94E3258370880F9091D802997F41
:10572000982B9093D802F8E0DF0E88E38D1508F4EB
:1057300024C180912B08803188F50091D802029510
:10574000069506950370009501708D2D61E272E15A
:105750000E94071521E0E0E1CE1220E086E66D2DE3
:10576000402F0E942316F0E1CF1691F4812F602F75
:1057700040E021E00E94E325809581708295880FAA
:10578000880F807C9091D8029F7B982B9093D802B1
:1057900088E0D80EE8E3ED1508F4EFC080912B08FF
:1057A000813170F58091D802881F8827881F01E019
:1057B000081B8D2D60E372E10E94071521E0F1E1E5
:1057C000CF1220E086E66D2D402F0E94231681E146
:1057D000C81681F4812F602F40E021E00E94E3256C
:1057E00080958795882787959091D8029F77982BE9
:1057F0009093D802E8E0DE0EF8E3FD1508F4BDC092
:1058000080912B08823160F50091DB0202950695AC
:1058100001708D2D6EE372E10E94071521E082E197
:10582000C81220E086E66D2D402F0E942316E2E18B
:10583000CE1681F4812F602F40E021E00E94E32505
:1058400081708295880F807E9091DB029F7D982BDE
:105850009093DB02F8E0DF0E88E38D1508F48DC02D
:1058600080912B088331A0F5E3E1CE1619F402E014
:10587000E02E01C0EE248D2D6CE472E10E9407152C
:10588000B6E6FB2E91E0892F99830E943716482FA8
:1058900050E047565B4E8F2D6D2D21E00E2D0E945E
:1058A000171499819F5FF6E0FF0E953061F7EE20A7
:1058B00049F0812F6091DE0240E027E10E94E3255C
:1058C0008093DE0288E0D80EE8E3ED1508F455C0B9
:1058D00080912B08843108F050C086E06D2D4BE597
:1058E00052E10E943815F8E3DF1679F094E200E007
:1058F000892F6D2D40E652E1202F99830E94A52328
:105900000F5F9981985E043099F788E0D80EE8E33C
:10591000ED1598F14091D9024F5CF4E1CF1611F4E6
:1059200022E001C020E082E16D2D0E944F1204E2CE
:10593000EE24FF24E091D902F0E0EE0FFF1FEE0FFE
:10594000FF1FEE0DFF1DE952F54F4491802F6D2D85
:1059500020E00E9463280894E11CF11C085E0438D2
:1059600049F784E1C81649F4812F6091D90240E0DB
:1059700023E00E94E3258093D9020F90DF91CF911D
:105980001F910F91FF90EF90DF90CF900895942F8B
:105990009150903118F44C5E0E9463280895DF9274
:1059A000EF92FF920F931F93CF93DF93E82EF62E83
:1059B000EA01122FD02E57FF10C022FF02C087E04D
:1059C00001C085E09E2D981B892F6F2D4DE2212F60
:1059D0000E944F12D095C195DF4FCE016CE370E06D
:1059E0000E94E766AB01212F20698E2D6F2D02E00A
:1059F0000E94C12D91E012FF90E0809131082D2D81
:105A00002123891B6F2D4AE30E944F1230913108E8
:105A1000CE016CE370E00E94E766AC012D2D206999
:105A2000832F8A5F6F2D02E00E94C12DDF91CF91FD
:105A30001F910F91FF90EF90DF9008950F931F93A8
:105A4000CF93DF93C82F80E060E045EB52E122E086
:105A50000E94EF14C13658F0C33628F0C33639F42B
:105A600081E096E202C080EC97E30E94940D86E00C
:105A700068E04AEB52E10E9438154091C001509114
:105A8000C1018EE168E020E000E00E94CF2C40914F
:105A9000C2015091C30188E468E020E00E94CF2C4D
:105AA00086E060E142EC52E10E94381540914302E9
:105AB000509144028EE160E120E00E94CF2C4091A1
:105AC00045025091460284E0569547958A95E1F744
:105AD00088E460E120E00E94CF2C86E660E04AEC9A
