:100000000C942D0D0C944A0D0C944A0D0C944A0D31
:100010000C944A0D0C944A0D0C944A0D0C944A0D04
:100020000C944A0D0C944A0D0C944A0D0C942B2DF3
:100030000C94502C0C944A0D0C944A0D0C942D2ABF
:100040000C94F12D0C944A0D0C94262C0C94582DE4
:100050000C944A0D0C944A0D0C94F72C0C944A0DF8
:100060000C94BB2C0C94762D0C944A0D0C944A0DD8
:100070000C944A0D0C944A0D0C944A0D0C944A0DA4
:100080000C944A0D0C944A0D0C944A0D0102030481
:1000900001030204040203010403020145457072D6
:1000A0006F6D204461746166656C2000466F726DEF
:1000B00061746572617220454570726F6D004D45C7
:1000C0004444454C414E4445005350530080400049
:1000D0000000000000000000000000000000000020
:1000E0000000000000000000000000000000000010
:1000F0000000000000000000000000000000000000
:1001000000000000000000000000000000000000EF
:1001100000000000000000000000000000000000DF
:1001200000000000000000000000000000000000CF
:1001300000000000000000000000000000000000BF
:10014000000000000000000000000000000000FCB3
:10015000FCFCFCFCFCFCFCFCFCFCFCFCFCFCFCFCDF
:10016000FCFCFCFCFCFCFCFCFCFCFCFCFCFCFCFCCF
:10017000FCFCFCFCFCFCFCFCFCFCFCFCFCFCFCFCBF
:10018000FCFCFCFCFCFCFCFCFCFCFCFCFCFCFCFCAF
:10019000FCFCFCFCFCFCFCFCFCFCFCFCFCFCFCFC9F
:1001A000FCFCFCFCFCFCFCFCFCFCFCFCFCFCFCFC8F
:1001B000FCFCFCFCFCFCFCFCFCFCFCFCFCFCFCFC7F
:1001C000FCFCFCFCFCFCFCFCFCFCFCFCFCFCFCFF6C
:1001D000FFFFFFFFFFFFFFFF7F7F3F3F3F3F3F3FAF
:1001E0007F7FFFFFFFFFFFFFFFFF3F3F3F3F3FFFDF
:1001F0007F7F3F3F3F3F7FFFFFFFFFFFFFFFFFFF8F
:100200007F7F3F3F3F3F3F3F7F7FFFFFFFFFFFFF7E
:10021000FFFFFF3F3F3F3F3FFF7F3F3F3F3F3F7F6E
:10022000FFFFFFFF7F0F07030181E0F0F0F0E00028
:100230000101071FFFFFFFFFFFBF3F3F3F3F7FFF62
:10024000FFFFFFFF7F3F3F3F3F3FBFFFFFFFFFFF3E
:10025000FFFFFF3F07030100C0F0F8FCFCFCFCF8C7
:100260000000000103FFFFFF3F0100000080E0F8F5
:10027000FCFCFCF80000000001FFFF3F0703010049
:100280000010181C1C1C1C180000000103FFFFFFBD
:10029000FF1F00000000C0F8FCFCFC100000000084
:1002A000C0FFFFFFE0800000000F1F1F1F0F0300B3
:1002B000000000E0FFFFFFFFFFFFFEF8E00000018D
:1002C00007070180E0F0F8FCFEFFFFFFFFFFFFFFE4
:1002D000FFFFFFE0C08000000F1F1F1F1F0F07015F
:1002E00080C0E0F0FEFFFF0700000000C00F1F1FEE
:1002F0001F0F07010080E0F0FEFFFFE0C08000005C
:100300000E0E1E1E1E1E1E1E1E0ECEFEFEFFFF7FAA
:100310000300000080FCFFFFFF3F0300000080FCA3
:10032000FFFF1F0F0F1F1F1E1E1E0E0E0781C0E0B6
:10033000F0FCFFFFFFFF7F3F1F0F030180E0F0F89D
:10034000E0800001071F7FFFFFFFFFFFFFFFFFFFB0
:10035000FFFFFFFFFFFFFFFFFEFEFEFEFEFEFFFFB3
:10036000FFFFFFFFFF1F00000000C0FEFFFFFEFEBB
:10037000FEFEFEFFFFFFFFFFFFFFFFFFFFFFFFFF90
:10038000FEFEFEFEFEFEFEFEFFFFFFFFFFFFFFFE86
:10039000FEFEFEFEFFFFFFFFFFFEFEFEFEFEFFFF76
:1003A000FFFFFFFFFEFEFEFEFEFEFEFFFFFFFFFF64
:1003B000FFFFFFFFFFFEFEFEFEFEFEFFFFFFFFFF53
:1003C000FFFFFEFEFEFEFEFFFFFFFFFFFFFFFF1F22
:1003D0001F1F1F1F1F1F1F1F1F1F1F1F1F1F1F1F2D
:1003E0001F1F1F1F1F1F1F1F1F1F1F1F1F1F1F1F1D
:1003F0001F1F1F1F1F1F1F1F1F1F1F1F1F1F1F1F0D
:100400001F1F1F1F1F1F1F1F1F1F1F1F1F1F1F1FFC
:100410001F1F1F1F1F1F1F1F1F1F1F1F1F1F1F1FEC
:100420001F1F1F1F1F1F1F1F1F1F1F1F1F1F1F1FDC
:100430001F1F1F1F1F1F1F1F1F1F1F1F1F1F1F1FCC
:100440001F1F1F1F1F1F1F1F1F1F1F1F1F1F1F00DB
:10045000000000000000000000000000000000009C
:10046000000000000000000000000000000000008C
:10047000000000000000000000000000000000007C
:10048000000000000000000000000000000000006C
:10049000000000000000000000000000000000005C
:1004A000000000000000000000000000000000004C
:1004B000000000000000000000000000000000003C
:1004C00000000000000000000000000000000053D9
:1004D000504500454550524F4D206C6F77206D655B
:1004E0006D00476173656E20656A20617673748163
:1004F0006E67642100536C802061762067617365AC
:100500006E0042727974617265205080736C61670D
:100510006E6121005374816E672061762064656D81
:1005200000416C61726D656E2041767374816E67F7
:1005300064612100486A643A084473743A00544084
:10054000313A075440323A00524D503A0654616EE7
:100550006B3A004163633A004C61743A004C6F6E31
:100560003A004672743A084D61783A004E4F204482
:100570004154410063004646004D4F44454C4C00F9
:1005800050504D004B4E00544D520042520050729C
:100590006F746F6B6F6C6C0000290202000000002A
:1005A000000602014B4F4E462E004E616D6E005408
:1005B000696D6572004772816E7365722B2B0054F2
:1005C00072696D6D61722B2B005472696D826B6E56
:1005D0002E0046826C6A2047617300476173547233
:1005E000696D0043656E74657270697000750050C6
:1005F000504D206672616D65006D730052784E75C6
:100600006D0025000300464C594746415300547283
:10061000696D6D617200546F6E6120496E00546F98
:100620006E612055740000030303030303030303F7
:10063000030303030303034752844E534552000050
:1006400002535045432E425259544152450012081C
:1006500000081C0808081C080000082200490022A5
:10066000080000000000227F22000000082200494C
:100670000022080000082200490022080000002291
:100680007F2200000000000822004900220800002C
:10069000081C0808081C08004D49584552002F3115
:1006A00034002F3332004B5552564F52004B5500F9
:1006B00056455253494F4E00564552533A205632F2
:1006C0002E30302D465748002053564E3A206F703A
:1006D000656E39782D7233333200444154453A20E7
:1006E000323031322D30332D30360054494D453AB9
:1006F0002032323A31303A313600454550524F4D72
:10070000207600444941474E4F53005472696D2D85
:10071000202B00414E410041004247004B414C49D3
:1007200042524552494E47005B4D454E555D205360
:10073000544152544152002043454E545245524177
:1007400020005B4D454E555D204156534C5554415C
:100750005200528552205350414B41522F52415426
:100760005441520097262215715184507552795286
:100770005B1A091D821B666236635B4D454E555DF3
:10078000045B455849545D000341562050832003C3
:100790002D2D2D494E560434434820364B4E2038DB
:1007A0004B4E2031304B4E31324B4E31344B4E316B
:1007B000364B4E06547973742020416C61726D2063
:1007C000456A204B6E70416C6C61202006784B6F3F
:1007D0007274204B6F727420204E6F726D616C4C7E
:1007E000806E672020784C806E67200453494E4706
:1007F0004F534D5046494C54044E65642041562099
:10080000205570702003204156202B3D203A3D0397
:100810006B6E316B6E326B6E336B6E340645787077
:100820002020207846696E202046696E2020204DC9
:10083000656469756D47726F762020015245544199
:100840003132330550504D20205058582020445309
:100850004D322050504D313603504F534E454703D3
:100860002D2D2D783E30783C307C787C663E30668D
:100870003C307C667C0545444954205052534554D5
:10088000412E5448520656696B7420204578706F8B
:1008900020204B75727661204661732020204272C1
:1008A000797461724E817220202020202020202027
:1008B000084164646572612020468272737481729B
:1008C0006B4572738174742020022B3D2A3D3A3DA2
:1008D000065083202020204156202020204F66668D
:1008E000736574072D2D2D2D002020763E6F6673C5
:1008F0002020763C6F667320202876293E6F667331
:100900002876293C6F6673414E44202020204F52A8
:100910002020202020584F522020202076313D3D9D
:100920007632207631213D76322076313E76322085
:100930002076313C7632202076313E3D763220766C
:10094000313C3D7632200D53816B657268657420B1
:1009500000202020547261696E65722000202020E2
:1009600020496E7374616E74205472696D205069F1
:100970007020002020202020202020065661726E4A
:1009800031205661726E32204680722020205269DA
:100990006E672020536369466920526F626F74202E
:1009A0005069702020205461646120205379727353
:1009B0006120536972656E20416C61726D205261D5
:1009C000746174615469636B2020566962723120CE
:1009D000566962723220566962723320042D2D2DC1
:1009E00000413100204132002048854A445641529E
:1009F0005654414E4B54310020543200204641524F
:100A00005442415454037600204100202D00206BB5
:100A100074736B6D684D2F686D00204000202500B9
:100A2000032D2D2D47756C4F7261528264013C3E3F
:100A3000042D2D2D20487562205753484804414409
:100A400031204144322048854A445641525654414F
:100A50004E4B544031205440322046415254424182
:100A60005454042D2D2D2031323020313230583164
:100A70003430203930202005204D454E5520455832
:100A8000495420204E656420205570704882676567
:100A90007256816E73740347415353494448854AE3
:100AA000494430494431494432534B454C414E54FA
:100AB000524E4252314252324252334252344252E8
:100AC00035425236425237425238425239425241EE
:100AD000425242425243045349442048854A2047E7
:100AE000415320534B45205031202050322020507C
:100AF0003320204D41582046554C4C43594B3143EF
:100B0000594B3243594B33034156204142535448C9
:100B100073544825544874074C50342F4C50354476
:100B2000534D6F6E6C7944534D5820202000835EE6
:100B30003325BD1DF21D931E531F40800804201055
:100B400002014D4F44454C4C005241444552412016
:100B50004D4F44454C4C004B6F706965726172207B
:100B60004D6F64656C6C00466C7974746172204DD5
:100B70006F64656C6C004C6164646172204D6F64DD
:100B8000656C6C004C6564696774000002020202C7
:100B900000545241494E4552202850504D20494E54
:100BA0002900536C617600656666656B74202520AC
:100BB0006B816C6C6100468272737481726B6E2EF5
:100BC0000043616C0046656C206920454570726F7A
:100BD0006D0046454C2049204D454E5500204F4262
:100BE0005300547279636B206E656420656E206BD0
:100BF0006E61707000547279636B206E656420655D
:100C00006E206B6E617070005008000000000000E4
:100C100000006F000007000700147F147F14242ACF
:100C20007F2A1223130864623649552250000503B7
:100C30000000001C2241000041221C0014083E0854
:100C40001408083E0808005030000008080808088A
:100C500000606000002010080402003E41413E0098
:100C600000427F4000625149460041494936001820
:100C700014127F0027454539003E49493200017969
:100C800005030036494936000649291E000036365C
:100C900000000056360000081422411414141414E5
:100CA0004122140800020151090606090906007EC6
:100CB0000909097E7F494949363E414141227F4128
:100CC00041221C7F494949417F090909013E4149A7
:100CD000497A7F0808087F00417F41002040413F5A
:100CE000017F081422417F404040407F020C027F78
:100CF0007F0408107F3E4141413E7F090909063EBD
:100D00004151215E7F09192946264949493201018D
:100D10007F01013F4040403F1F2040201F3F4030A7
:100D2000403F631408146307087008076151494580
:100D300043007F41410002040810200041417F0030
:100D4000040201020440404040400001020400202F
:100D5000545454787F4844443838444444203844F8
:100D600044487F3854545418087E0901020C5252EA
:100D7000523E7F0804047800447D40002040443DFA
:100D8000007F1028440000417F40007C0418047854
:100D90007C0804047838444444387C14141408084B
:100DA0001414187C7C080404084854545420043F4C
:100DB0004440203C4040207C1C2040201C3C4020E3
:100DC000403C44281028440C5050503C4464544C3F
:100DD00044000836410000007F0000004136080052
:100DE0000808221C08081C220808205456547820A1
:100DF0005654567838464446387C1313127C7C137C
:100E000012137C3C4342433CA06000000000000001
:100E10000000000000000000FEFE000000000000D6
:100E20003E7E00007E3E00006060FEFE6060FEFED2
:100E3000606060F09898FEFE989818180C1E1E0CC2
:100E400080C0E070381878FC8EC6E6763C1800004A
:100E5000000066763E1E000000000000E0F0381C36
:100E60000E0600000000060E1C38F0E00000606076
:100E7000C080F8F880C0606080808080F8F8808052
:100E80008080000000000000000000008080808062
:100E90008080808080800000000000000000000052
:100EA0000000000080C0E070381800000000000062
:100EB0000000000000000000717100000000000050
:100EC000000000000000000006067F7F06067F7F0E
:100ED0000606181819197F7F19190F06181C0E0716
:100EE0000301307878301E3F716367663C3C66666C
:100EF000000000000000000000000000070F1C3888
:100F00007060000000006070381C0F0700000606CB
:100F100003011F1F01030606010101011F1F01013B
:100F20000101000066763E1E000000000101010183
:100F3000010101010101000030787830000000005B
:100F4000181C0E070301000000000000F8FC0E064C
:100F5000060EFCF80000181CFEFE00000000000059
:100F6000181C0E0686CEFC7800000606868686CE05
:100F7000FC78000080C0E070381CFEFE00007E7E21
:100F8000666666E6C6860000F8FC8E86868E1C18AD
:100F90000000060686C6E6763E1E000078FCCE8679
:100FA00086CEFC78000078FCCE8686CEFCF8000069
:100FB0003078783000000000000030787830000091
:100FC0000000000080C0E070381C0E0660606060A9
:100FD000606060606060060E1C3870E0C0800000D9
:100FE000181C0E06060686CEFC7800001F3F7060B7
:100FF00060703F1F000060607F7F60600000000045
:10100000787C6E676361606000006060616161733D
:101010003F1E00000707060606067F7F00001838FF
:10102000706060703F1F00001F3F716161733F1E61
:10103000000000007F7F0000000000001E3F736181
:1010400061733F1E000000006171391D0F07000031
:101050000C1E1E0C00000000000066763E1E000004
:10106000000000000103070E1C387060060606062B
:101070000606060606066070381C0E07030100000F
:101080000000000066670301000078FCCE8686CE73
:10109000FC780000E0F0B89C8E8E9CB8F0E0FEFE7C
:1010A0008686868686CEFC78F8FC0E060606060E38
:1010B0001C18FEFE0606060E1C38F0E0FEFE8686B4
:1010C000868686860606FEFE8686868686860606D0
:1010D000F8FC0E068686868E9C98FEFE80808080B8
:1010E0008080FEFE00000606FEFE060600000000F0
:1010F00000000606FEFE0606FEFE80C0E070381CFC
:101100000E06FEFE0000000000000000FEFE1C387F
:10111000F0F0381CFEFEFEFE70E0C0800000FEFE17
:10112000F8FC0E060606060EFCF80000010101019F
:10113000000000007F7F0101010101017F7F7F7FAF
:101140006161616161733F1E1F3F7060606060702C
:1011500038187F7F60606070381C0F077F7F616187
:101160006161616160607F7F010101010101000037
:101170001F3F7060616161717F3F7F7F01010101ED
:1011800001017F7F000060607F7F60600000183891
:10119000706060703F1F00007F7F0103070E1C38E6
:1011A00070607F7F60606060606060607F7F000073
:1011B000010100007F7F7F7F00000103070E7F7F1A
:1011C0001F3F7060606060703F1FFEFE86868686EF
:1011D00086CEFC78F8FC0E060606060EFCF8FEFE2F
:1011E0008686868686CEFC7878FCCE868686868E37
:1011F0001C1806060606FEFE06060606FEFE000093
:1012000000000000FEFEFEFE000000000000FEFEEA
:10121000FEFE000000000000FEFE1E3E70E0C0C0AA
:10122000E0703E1E7EFEC080000080C0FE7E06068E
:10123000060686C6E6763E1E0000FEFE060606068A
:101240000000183870E0C0800000000000000606B2
:101250000606FEFE00006070381C0E0E1C38706022
:10126000000000000000000000007F7F010101017C
:10127000010100001F3F7060666E3C387F677F7F12
:101280000101070F1D397060183871616161617368
:101290003F1E000000007F7F000000001F3F7060C5
:1012A000606060703F1F070F1C387070381C0F079C
:1012B0001F3F70703E3E70703F1F787C0E07030327
:1012C000070E7C78000001037F7F03010000787C1B
:1012D0006E6763616060606000007F7F6060606077
:1012E0000000000000000103070E1C1800006060F1
:1012F00060607F7F00000000000000000000000030
:10130000606060606060606060600000060E1C38B5
:101310007060000000006060606060E0C080FEFE01
:1013200080C0E06060E0C08080C0E06060606060BD
:10133000000080C0E06060E0C080FEFE80C0E06031
:10134000606060E0C0808080F8FC8E86060E1C180D
:10135000E0F0381818181818F8F8FEFE80C0E060A1
:1013600060E0C08000006060E6E600000000000071
:1013700000006060E6E60000FEFE000080C0E06065
:10138000000000000606FEFE00000000E0E060E055
:10139000C0C0E0E0C080E0E080C0E06060E0C0800D
:1013A00080C0E060606060E0C0800000000000007D
:1013B00000000000183C7E66666666667F7F7F7F61
:1013C0006161606060703F1F1F3F706060606070AF
:1013D00038181F3F7060606061617F7F1F3F7666D5
:1013E00066666666070701017F7F01010000000055
:1013F00001036766666666763F1F7F7F0101000016
:1014000000007F7F000060607F7F60600000183810
:10141000706060703F1F00007F7F060F1F39706093
:101420000000000060607F7F606000007F7F000040
:10143000070700007F7F7F7F0101000000007F7FA2
:101440001F3F7060606060703F1FE0E06060606040
:1014500060E0C08080C0E0606060C080E0E0E0E00C
:1014600080C0E06060E0C08080C0E060606060607C
:1014700000006060FEFE606000000000E0E0000030
:1014800000000000E0E0E0E0000000000000E0E01C
:10149000E0E0000000000000E0E060E0C08000004C
:1014A00080C0E060E0E0000000000000E0E060607C
:1014B00060606060E0E0E060000080C0787C0E0664
:1014C000000000000000FEFE000000000000060E0C
:1014D0007C78C0800000808080801838F0E0C08078
:1014E00080C0E0F03818808080807F7F0606060686
:1014F0000607030101030706060607077F7F7F7FB4
:101500000101000000000101616367666666667E96
:101510003C1800001F3F7060607038181F3F7060FB
:10152000607038187F7F070F1C387070381C0F07E9
:101530001F3F7070383870703F1F6070391F0F0F79
:101540001F39706001036766666666763F1F6070CC
:10155000787C6E6763616060000001031E3E70600E
:101560000000000000007F7F0000000000006070AD
:101570003E1E0301000001010101181C0F070301B9
:101580000103070F1C1801010101000060606E6A71
:101590006EE0C08000006C6C60606CECC08080C04D
:1015A000EC6C60606CECC080E0F0B89E9A9A9EB8DB
:1015B000F0E0E0F6BA9C8E8E9CBAF6E0E0F63618C3
:1015C00018181836F6E000000000000000000000C7
:1015D000000000000000000000000000000000000B
:1015E00000000000000000000000000000000000FB
:1015F00000000000000000000000000000000000EB
:1016000000000000000000000000000000000000DA
:1016100000000000000000000000000000000000CA
:1016200000000000000000000000183C7E666666B6
:1016300066667F7F183C7E66666666667F7F1F3FB4
:101640007060606060703F1F7F7F010101010101D8
:101650007F7F7F7F0101010101017F7F1F3F70605C
:10166000606060703F1F000000000000000000008C
:10167000000000000000000000000000000000006A
:10168000000000000000000000000000000000005A
:10169000000000000000000000000000000000004A
:1016A000000000000000000000000000000000003A
:1016B000000000000000000000000000000000002A
:1016C000000000000000000000004578706F2073EB
:1016D000616B6E617321004D697865722073616B77
:1016E0006E6173210003010200040506075F2D2EC1
:1016F0002C001B1E272D36394B4E636C7278878D5C
:10170000939CB1B4C6C9D2D8E1E40101020A3C01FC
:10171000010414500101081E6402020F2878050517
:101720001E329642727974617265004F6666736507
:10173000740044522F4558504F0041444445524193
:10174000204D49580045444954455241204D49587F
:10175000004B816C6C610056696B7400446966666D
:101760006572656E7469616C005472696D004B75C9
:1017700072766F7200466C796766617300566172AB
:101780006E696E6700415620004D756C747078006C
:101790004682726472826A6E2E204E6564004682B2
:1017A000726472826A6E2E20557070005472826765
:1017B000686574204E6564005472826768657420A1
:1017C00055707000464C594746415345520053747A
:1017D000616E64617264004B6F6C6C610554726978
:1017E0006D6D61720048454C494B4F505445520055
:1017F0005377617368747970004B6F6C6C656B74B0
:10180000697600537761736872696E670048854A2C
:10181000442052696B746E696E6700534B455620C5
:1018200052696B746E696E67004B4F4C4C20526965
:101830006B746E696E670053544154534953544955
:101840004B00544D310D544D32005448520D544804
:101850002500544F5400444542554700746D723181
:101860004C6174206D617804757300746D72314C35
:101870006174206D696E04757300746D7231204A55
:10188000697474657204757300746D61696E206D9E
:101890006178066D73004672656520537461636BF1
:1018A000206D696E0462005B4D454E555D204E4FC4
:1018B0004C4C41522020004B55525641004D6F6414
:1018C0000000000000000000000000000000000018
:1018D0000000000000FF01494E5354844C4C4E4917
:1018E0004E4741520053756D6D6572206C8167657E
:1018F0000053756D6D657220746964004B6F6E7472
:101900007261737400426174746572697661726E9B
:10191000696E6700496E616B74697669746574738A
:101920006C61726D004144432D66696C7465720090
:10193000496E766572746572616420476173004D0B
:10194000696E7574706970004E656472816B6E6942
:101950006E677370697000506970207669642062E8
:101960006C696E6B004C6A75736272797461726532
:10197000004C6A757320617620656674657200425A
:10198000696C6420766964207374617274004761C5
:10199000737661726E696E670042727974617276F5
:1019A00061726E696E67004D696E6E657376617205
:1019B0006E696E6700416C61726D7661726E696E00
:1019C00067004E4F2044415441205661726E696E4B
:1019D00067004B616E616C6F72646E696E67205256
:1019E000580054783A0052783A00000246554E4B5F
:1019F0002E425259544152450000FF01000202FF9D
:101A000001000202FF0101FF0000FF020202025476
:101A1000454C454D455452490041026B616E616C25
:101A20002020004F6D7280646500416C61726D0012
:101A30005253534900416E76816E646172646174E1
:101A40006100426C616400537461706C6172207358
:101A50006F6D207669736173000011241FBECFEF94
:101A6000D0E1DEBFCDBF11E0A0E0B1E0E6ECF8EEE2
:101A700002C005900D92A632B107D9F71DE0A6E28B
:101A8000B1E001C01D92AA3BB107E1F70E9447688F
:101A90000C9461740C940000EF920F93CF93DF933A
:101AA0008091060118160CF052C040E866E380E011
:101AB0000E94E55662EE79E189E30E945F48409119
:101AC000F60602E020E150E069E388E10E94EC566E
:101AD000E12C0FEF27E046E269E389E10E9413441D
:101AE0008091F60629E0829FC0011124C9E1D0E06F
:101AF000BE010E94DD73462F25E06AE38AE10E9461
:101B0000D84346EE59E169E389E60E946548409171
:101B1000F40602E020E150E069E380E80E94EC5620
:101B20000FEF27E046E269E381E40E9413448091CD
:101B3000F40629E0829FC0011124BE010E94DD73DA
:101B4000962F25E0462F6AE386E6891B0CC04CE6FB
:101B500055E069E38AE20E946548E12C0FEF28E036
:101B600040E868E380E00E94D843DF91CF910F9175
:101B7000EF900895FF920F931F93CF93DF93F62E6C
:101B80001091B70D882309F44AC0812F0E94F346B3
:101B9000EC01012FFF2011F0015001C00F5F1881EF
:101BA00007FF09C0812F8C7009F46FC0812F8695C3
:101BB00086958D5F0BC00E3071F4812F8C708C3048
:101BC00009F463C0812F869586958F5F8370880F97
:101BD000880F137F4FC0802F0E94F346BC01FC0189
:101BE000808118271C7011F48370B9F49881892FB3
:101BF000869586958370FF2029F0882309F445C0D7
:101C00008D5F04C0833009F440C08F5F8370880FFC
:101C1000880F937F982B98832FC044E030C0812F8A
:101C20000E94EB46EC01012FFF2011F0015001C092
:101C30000F5F188107FF03C0812F8F7012C0003221
:101C400019F4812F8F7011C0802F0E94EB46BC01C8
:101C5000FC01808181278F7089F0812F8F70FF2098
:101C600021F0882391F0815F03C08F3071F08F5F86
:101C70008F70107F182B1883C1E009C049E0CE0196
:101C80000E94BF450093B70DF7CFC0E003C082E0CC
:101C90000E94B9458C2FDF91CF911F910F91FF903A
:101CA0000895682F8FE992E00E9494451092A50252
:101CB0001092A40208951F93CF93DF9300D0CDB765
:101CC000DEB7182F81E14A8369830E94510E10927A
:101CD000EB0169816295607F6093EC0110939F0234
:101CE0004A814093F3010F900F90DF91CF911F91A4
:101CF0000895EF92FF920F931F93CF93DF93162FC8
:101D0000EA017901402F0E945B0E80E18093A702D7
:101D1000D093AB02C093AA02F092A902E092A8026B
:101D20001092AC02123011F484E601C08AE0809374
:101D3000B1020E94703F8091F301882341F08091AD
:101D4000A702882321F08091F50B882391F3DF917E
:101D5000CF911F910F91FF90EF9008950F93CF9324
:101D6000C82F81110E946A4080919E0280FD05C0AB
:101D700080919E0281FF1DC00FC0815080939E0202
:101D80000C2F2FE430E047E156E061E080E00E9454
:101D9000790EC111EDCF0DC010929E0280914406C4
:101DA0000C2F2EED32E043E353E062E08F5F0E94A0
:101DB000790ECF910F910895CF92DF92EF92FF921B
:101DC0000F931F93CF93DF937C016B01C0E0D0E0B2
:101DD0008091A50290E086010C1B1D0B80179107D6
:101DE00008F48C0197012C0F3D1FA80160E070E002
:101DF000C9010E944174C00FD11F8091A502801BB0
:101E00008093A50281113FC08091A40290E0A601B9
:101E10004C1B5D0B8417950708F4AC01B7016C0FE0
:101E20007D1F8FE992E00E943141C80FD11D909132
:101E3000A402981B9093A402911125C041E050E0A8
:101E400064EA72E08FE992E00E9431418130D9F476
:101E50008091A40287FF0FC0282F30E094E03595D1
:101E600027959A95E1F7277033272093A5028F7065
:101E70008093A402ADCF86FFABCF8F738093A50272
:101E80001092A402A5CFCE01DF91CF911F910F91A7
:101E9000FF90EF90DF90CF9008959AE0E3E3F1E0B8
:101EA000DF011D929A95E9F7803118F020E030E0CB
:101EB00019C08F5F0E94510E6AE070E083E391E0E9
:101EC0000E94DC0E0A9791F780919F0290E0FC013E
:101ED000EE0FFF1FE80FF91FE854FE4F20818181AC
:101EE000382F3F70C9010895CF93C82F8031B8F4BF
:101EF0008F5F0E94510E6EED72E083E393E00E94CB
:101F0000DC0E892B31F48C2F0E94044181E00E9469
:101F1000AE0E86E08093160CCF910C944D3ECF917F
:101F20000895FF920F931F93CF93DF93FA010491CB
:101F3000DA0112963196449150E0495F5F4F33E0E9
:101F4000559547953A95E1F7F42E209F900111247D
:101F5000249FF001259FF00D349FF00D1124AE0F4A
:101F6000BF1F66956695669590E0F0E86F9F800DBF
:101F7000911D112440E050E010E0602F70E015C08A
:101F8000EA01C80FD91FC15AD84F9D0105C0F901F8
:101F90002F5F3F4FE491E993E22FEA1BE017B8F37C
:101FA000A60FB71F1F5F40585F4F1F1548F3DF9103
:101FB000CF911F910F91FF9008950F93262F4423E7
:101FC00011F002E001C000E04FE857E0682F84E51F
:101FD0000E9498480F9108950F931F93CF93DF931A
:101FE000D82F162FC42F022F47FF07C041E286507B
:101FF0000E94B14486E08C1BC82F2C2FC7303CF4C4
:102000004FE558E0612F8D2F0E94984807C0265059
:1020100044E755E0612F8D2F0E941958DF91CF9131
:102020001F910F9108950F931F93CF93DF93D82F94
:10203000162FC42F022F411106C020E04FE857E0B1
:102040000E94984810C047FF06C02EE548E0825025
:102050000E942A43C1952C2F215046E755E0612F5D
:102060008D2F0E941958DF91CF911F910F910895E4
:102070000F93FA013A969AE03291332381F00CC023
:1020800000612F5F49E755E00E9419580BC00062BC
:102090002AE00E94054806C09111F9CFF1CF915076
:1020A00079F3EACF0F9108952F923F925F926F924A
:1020B0007F928F929F92AF92BF92CF92DF92EF92D8
:1020C000FF920F931F93CF93DF931F92CDB7DEB78D
:1020D000803609F45CC030F4823229F1833209F091
:1020E00058C004C0813609F054C04CC080915F0BC9
:1020F000982F915090935F0B81114BC080910306F4
:10210000877059F0813059F48091530782FB8827FA
:1021100080F993E0981B892F03C081E001C082E021
:1021200080935F0B36C060915F0B262F30E080916B
:1021300003068770C9F08130D1F4809153078295EE
:10214000880F807E86FB880F880B80F9992787FD92
:1021500090958827990F881F992743E050E0DA016E
:10216000A81BB90BCD0105C081E090E002C082E060
:1021700090E06F5F60935F0B2817390751F410925E
:102180005F0B07C08AEE90E30E949F4902C00E9445
:10219000073E00E02091440643E353E060E080E026
:1021A0000E9438108091460690E041E0209105029F
:1021B000309106022817390708F040E060E084E516
:1021C0000E942A5A80913D03882379F021E0809172
:1021D0000E02823009F020E040910802509109027D
:1021E000022F60E086E60E943F58E12C0FEF28E0C6
:1021F00040E860E080E00E94D8438091060187FDBE
:102200009FC380915F0B811118C183E0282E312C70
:1022100095E0992E23E3A22EB12C3BEF832E44E6CA
:10222000742E56E0652E6101CC0CDD1CE4E0F6E076
:10223000CE0EDF1ED6019C91292F2F7009F4F5C018
:10224000F101EE0FFF1FEB5FF94F808186958695B8
:10225000A501481B510992959F7011968C9183702E
:102260008295807F892B90E0841795070CF0DDC064
:10227000192D1A5F129DF02C1124692D660F6F5FC6
:102280006F0D00E04CED59E080E00E949848292D48
:102290002E5F612F219E600D1124E12C0FEF45E68A
:1022A00089E10E941344F60180818F708B5D0E944A
:1022B000774C8C01D601EC91EF70F0E0E330F10542
:1022C00054F431976E9ED0016F9EB00D1124A7502B
:1022D000BA4FEC9003C0E550F94FE080EE2081F159
:1022E000F101EE0FFF1FEC5FF94F808182958F7037
:1022F000218123702295207F282B3CEF3203D001CF
:1023000011249D012E0D311D729EC001739E900DF2
:102310001124F101EE0FFF1FEB5FF94F608166950D
:102320006695482D4603B001112461507F4F6A0F16
:102330007B1F0E94DD73D62E84E6861708F001C04D
:10234000D12CF101EE0FFF1FEC5FF94F80818295D8
:102350008F70218123702295207F282B30E0482D1B
:102360004203F001439FF00D1124E00FF11F7E9E08
:10237000C0017F9E900D1124F101EE0FFF1FEB5F56
:10238000F94F408146954695B501641B7109621B62
:10239000730B660F771F660F771F0E94DD7377FD43
:1023A00004C06436710524F405C060E070E002C02A
:1023B00064E670E0462F8E2D90E00817190714F49C
:1023C00005E501C00FEFCF2CC90C27E0522E5C0CA5
:1023D000E12C292D652D8AE10E94D84302E310E00B
:1023E000ED2CF12C8AE1E80EF11CE016F1062CF43C
:1023F000492D652D802F0E948643075E1F4F0D37A4
:10240000110599F7DD2099F01C2D1C5F492D4D5FBA
:1024100025E5612F8D2D865E0E942A4343E0612FC2
:102420008D2D875E0E94E55602C09394939491E0AF
:10243000291A310808F0F7CE9CC2813009F0DEC0BD
:102440008091F7058823B1F0B8EF2B2EB6E03B2E34
:102450001AEFA12E16E0B12E0AEFE02E05E0F02EC5
:1024600089EF882E85E0982EC12CD12C10E096E0C3
:10247000692E0EC08091FD058111E6CFF9E1EF2EA6
:10248000F7E0FF2EA12CB12CA5E2DA2E12E1A7C0B5
:102490007C2CF70133978081882309F463C06C9CFE
:1024A000F0016D9CF00D1124E550FA4F8081282F2A
:1024B0002F7030E0982F937061F0F1019081D4017A
:1024C00084FD04C08C91981720F41FC08C9189174B
:1024D000E0F03595279535952795232BA1F06C9C39
:1024E000F0016D9CF00D1124E550FA4F8081F1014F
:1024F0009081D70185FF04C08C91891720F405C015
:102500008C91981710F090E001C092E0272D2F5F7A
:1025100000E849E05AE060E1812F99830E94195850
:102520009981092F0468F101208130E0472D60E195
:10253000812F8E5E0E947B59F5013197208100E04A
:1025400030E0472D68E1812F885E0E947B59D501DC
:102550002C9100E830E0472D68E1812F8C5D0E94CE
:102560007B5910E4BFEFCB1ADB0AE3E02E0E311CDF
:10257000F3E0AF0EB11C26E0E20EF11C36E0830E54
:10258000911C42E0C416D10409F082CF77CFD70165
:102590009C91981710F090EB01C091EB2A2D2330FD
:1025A00019F47DE2D72E12E12F5F00E846E05AE0F1
:1025B0006D2D812F825199830E941958F701419105
:1025C0007F0150E0440F551F04E09981292F6D2DA4
:1025D000812F0E94EC56165DFFEFAF1ABF0A2091C3
:1025E000530722952F7030E0A216B3060CF0C1C13C
:1025F00026E0A216B10409F0D0C1BBC19091030638
:102600009770923039F4823009F07EC080E20E94E7
:102610004059AFC1823009F077C06EE375E080E2C7
:102620000E945F484091090750910A0704E827E09B
:1026300060E288E10E94225940910F0750911007F3
:1026400027E060E28AE50E94225968E475E080E1B3
:102650000E945F48609103066295637070E06E5F50
:102660007F4F80910B0790910C070E94C973AB01BB
:1026700000E024E868E088E10E94EC5640910D07F4
:1026800050910E0704E828E060E18AE50E94225993
:1026900080E30E94405963E575E089E30E945F484A
:1026A00080914D0790914E074AE0E42EF12CB7013E
:1026B0000E94DD73AB0100E020EB69E388E10E943A
:1026C000EC5680914F0790915007B7010E94DD733F
:1026D000AB0120EB69E38CE30E94EC56809151073B
:1026E00090915207B7010E94DD73AB0120EB69E3C3
:1026F00080E60E94EC56E12C0FEF28E040E868E30A
:1027000080E00E94D8434EC1833009F04BC1409114
:102710003107509132074053584F04E020E869E3F5
:1027200082E10E94EC564DE269E386E20E94914507
:102730004091300702E020E950E069E38CE20E941A
:10274000EC564DE269E386E30E94914540912F07E4
:1027500020E950E069E38CE30E94EC564091330796
:1027600020E950E069E38DE40E94EC564AE369E316
:1027700086E50E9491454091340720E950E069E3E5
:102780008CE50E94EC564AE369E385E60E94914598
:10279000409135075091360720E969E38BE60E94A6
:1027A000EC56E12C0FEF28E040E868E380E00E945F
:1027B000D84368E575E08CE00E945F4880912B0764
:1027C00090912C0704E610E0B8010E94C973AB0198
:1027D00020E86CE08091B40D0E941C5940E46CE04C
:1027E0008091B40D0E94914580912B0790912C0708
:1027F000B8010E94C973AC018091B40D02E020E9D8
:102800006CE08A5F0E94EC5640E062E18091B40D7A
:102810000E94514440913B0750913C078091B40D78
:1028200004E028E96CE08E5F0E94EC5640914B0773
:1028300050914C074115510509F44DE28091B40DBA
:102840006CE08F5F0E9491456DE575E085E10E9427
:102850005F488091290790912A0704E610E0B801AB
:102860000E94C973AB0120E865E18091B40D0E941C
:102870001C5940E465E18091B40D0E94914580911E
:10288000290790912A07B8010E94C973AC01809171
:10289000B40D02E020E965E18A5F0E94EC5640E059
:1028A0006BE18091B40D0E945144409139075091E1
:1028B0003A078091B40D04E028E965E18E5F0E943B
:1028C000EC564091490750914A074115510509F4CA
:1028D0004DE28091B40D65E18F5F0E94914562E603
:1028E00075E080E30E945F484091270750912807D8
:1028F00004E823E060E388E10E94225940915D07EB
:1029000050915E0700E823E060E380E60E942259D0
:1029100064E375E08FE10E945F48409107075091A2
:10292000080726E06FE188E10E94225940915B0789
:1029300050915C0726E06FE180E60E94225932C088
:1029400024E04CE655E068E286E10F90DF91CF91FC
:102950001F910F91FF90EF90DF90CF90BF90AF90BD
:102960009F908F907F906F905F903F902F900C94EE
:1029700058480F90DF91CF911F910F91FF90EF90EA
:10298000DF90CF90BF90AF909F908F907F906F908F
:102990005F903F902F900C944C0D80910407811113
:1029A000F6CDF9CD0F90DF91CF911F910F91FF9050
:1029B000EF90DF90CF90BF90AF909F908F907F90DF
:1029C0006F905F903F902F9008950F93022F4111C9
:1029D00004C020E04FE857E01EC0242F4D3020F403
:1029E000215046ED5AE017C0453120F42C5040E804
:1029F00055E00BC0453220F4245144E855E005C0B1
:102A0000473230F4245247E855E00E94195805C077
:102A100027524DE35AE00E9498480F9108954A309A
:102A200008F406C04F3118F449500C94A64845519B
:102A30000C94E514942F9150903118F44C5E0C9442
:102A4000E51408954F925F927F928F929F92AF927A
:102A5000BF92CF92DF92EF92FF920F931F93CF938B
:102A6000DF931F92CDB7DEB7982E4091440650E019
:102A70004F5F5F4F02E022E160E08AE20E94EC5685
:102A800080914303877011F48BE005C08230E1F33D
:102A90008130D1F38AE0C82E3BE0E32E08E915E04F
:102AA0002BE044E657E061E0892D0E94FC5C88231E
:102AB00009F497C322E044EA55E060E080E00E9418
:102AC00058488090F9018091F60B811113C04AEAB1
:102AD00055E068E00E946548EE24E3948E10E12CF6
:102AE000092D2AE043E353E068E088E30E94C33CF9
:102AF00010E101C018E0C12CD12C92E0792E2CE31A
:102B0000A22EB12C8091F60B871508F08EC02C2DCB
:102B10002F5F00E04FEA55E0612F80E00E941958D6
:102B200087100AC08091F801811106C08091FC0BCA
:102B3000181624F421E003C020E001C022E02601A1
:102B4000440C551C4C0C5D1C8DE393E0480E591E43
:102B5000F2014081612F88E30E94ED4887103CC359
:102B60008091F801823009F034C38091FC0B181673
:102B70000CF034C301E033C38091FC0B00E0181665
:102B800014F421E001C022E0F20141815281612F61
:102B900084E50E943F58871044C08091FC0B1816B2
:102BA0000CF03FC0F201E180F2808091F8018130A9
:102BB00071F018F0823091F51AC02EE246EDF20164
:102BC0006081892D0E94154BF201808327C0C701C7
:102BD000B5010E94C9737C012BE340E0892D0E945E
:102BE000154BFCE38F02E00CF11C112417C0C70148
:102BF000B5010E94C973082F682F6E5F2EE341E074
:102C0000892D0E94154B081B802F8E5FE81AF10852
:102C100087FDF394F7FE02C0E12CF12CF201F28261
:102C2000E182185F193308F0DCC27394FFEFCF1A0A
:102C3000DF0A84E0781266CF8091F60B843048F585
:102C400065EB75E0812F0E945F4801E094E08912F6
:102C500000E04091440345FB442740F9202F612FB9
:102C600088E30E942349002381F06091440365FBBF
:102C7000662760F921E040E0892D0E94154B909174
:102C8000440380FB95F990934403185F193308F0CF
:102C9000A8C28091F60B853048F56FEB75E0812F67
:102CA0000E945F4801E0E5E08E1200E0409144039D
:102CB00046FB442740F9202F612F88E30E942349D7
:102CC000002381F06091440366FB662760F921E0F0
:102CD00040E0892D0E94154B9091440380FB96F9AA
:102CE00090934403185F193308F07BC28091F60B70
:102CF000863050F569EC75E0812F0E945F48F6E060
:102D00008F1202C002E001C000E02091440327704E
:102D10004CE158E0612F88E30E94984886E08812D1
:102D20000FC060914403677024E040E0892D0E9449
:102D3000154B877090914403987F982B9093440390
:102D4000185F193308F04DC28091F60B873050F5AB
:102D500062ED75E0812F0E945F4840910F0644307C
:102D600010F04F5E05C0442311F04C5F01C043E0FA
:102D700097E0891202C022E001C020E0612F88E3C1
:102D80000E94E514E7E08E1209C023E140E0609163
:102D90000F06892D0E94154B80930F06185F19337B
:102DA00008F01FC28091F60B883068F56BED75E076
:102DB000812F0E945F48F8E08F1204C021E08091CB
:102DC000F801811120E04091430343FB442740F97F
:102DD000612F88E30E94234988E0881210C0609127
:102DE000430363FB662760F921E040E0892D0E94E0
:102DF000154B9091430380FB93F990934303185F25
:102E0000193308F0EEC18091F60B893008F04EC0FE
:102E100063EE75E0812F0E945F4898E3E12CF12C6E
:102E20002E2D8091F8018E1103C0E9E08E1669F015
:102E30004091460350E00E2C02C0559547950A94E8
:102E4000E2F740FF04C002E003C001E001C000E07F
:102E50004BE358E0612F892F99830E949848FFEF38
:102E6000EF1AFF0A99819A5F9236D1F689E08812AB
:102E700019C090E6991216C080E60E94EA491092A5
:102E8000FC0B21E030E00090F80102C0220F331F5C
:102E90000A94E2F78091460382278093460382E0FA
:102EA0000E94B945185F193308F09BC18091F60B59
:102EB0008A3008F0EAC06EE875E0812F0E945F4812
:102EC000EAE08E120AC08091F801811106C080915B
:102ED000FC0B181624F401E003C000E001C002E07E
:102EE00020914303277043E458E0612F88E30E9458
:102EF000984880914303877009F040C0FAE08F1230
:102F00000AC08091F801813031F48091FC0B1816D1
:102F100024F401E003C000E001C002E0209143037B
:102F200025952595259525952E5F46E957E0612F36
:102F300080E50E9498484DEE55E0612F8AE70E9497
:102F400065488AE088120AC08091F801823031F425
:102F50008091FC0B181624F421E003C020E001C08E
:102F600022E04091450392E34902A0011124445D0F
:102F70005E4F612F8AE70E941C593DC08230A9F53F
:102F80008091F801823018F081E08093F80120915F
:102F90004303259525952595259527FD03C02330C9
:102FA0001CF403C020E001C022E0922F9295907F94
:102FB000809143038F70892B80934303EAE08E1244
:102FC0000AC08091F801813031F48091FC0B181611
:102FD00024F401E003C000E001C002E047E15BE04F
:102FE000612F86E50E94984806C0FAE08F1249C01A
:102FF0001092F80103C08AE0881243C08091FC0B54
:10300000181634F0809143038770D9F18230C9F1EA
:103010008091F801813089F018F0823091F528C054
:1030200060914303677023E040E0892D0E94154BB7
:10303000877090914303987F17C060914303862F58
:1030400087706595659565956595823019F422E0E0
:1030500040E002C024E04EEF892D0E94154B82957E
:10306000807F909143039F70982B9093430309C0F6
:103070002AE04CEF60914503892D0E94154B809307
:103080004503185F193308F0ACC08091F60B8B3004
:1030900008F0A7C080914303877009F065C06FEE08
:1030A00075E0812F0E945F4849EF55E0612F8AE467
:1030B0000E9465489BE089120AC08091F801811145
:1030C00006C08091FC0B181624F421EA03C020EA04
:1030D00001C022EA40910E06E5E04E02A001112453
:1030E0004F515F4F612F88E30E941C59FBE08F1204
:1030F00006C08091F801813011F402E001C000E0C7
:10310000209144032295217048E558E0612F8CE519
:103110000E9498488BE0881264C08091FC0B1816BE
:103120000CF05FC08091F801882321F0813009F014
:1031300058C00AC024E14CEE60910E06892D0E9411
:10314000154B80930E064DC06091440362956170EB
:1031500021E040E0892D0E94154B9091440380FBB3
:1031600094F9909344033DC081508230D0F56CEFC8
:1031700075E0812F0E945F489BE089120AC0809110
:10318000F801811106C08091FC0B181624F421E986
:1031900003C020E901C022E94091100602E050E09E
:1031A000612F86E20E94EC56EBE08E121AC08091ED
:1031B000FC0B1816B4F48091F801811112C023E6BB
:1031C00040E060911006892D0E94154B80931006F7
:1031D00008C0813009F4D0CC00E001C002E020E05A
:1031E000D3CC0F90DF91CF911F910F91FF90EF9073
:1031F000DF90CF90BF90AF909F908F907F905F9027
:103200004F9008953F924F925F926F927F928F926C
:103210009F92AF92BF92CF92DF92EF92FF920F9365
:103220001F93CF93DF93682E1091B70D812F0E94CB
:103230003B47EC01412F4F5F20E060E08EE40E94AD
:1032400013108091B70D811102C082E001C084E0AB
:10325000C82EE3E0EE2E02E016E020E040E050E071
:1032600060E0862D0E94FC5C882309F412C122E0F4
:1032700046E056E060E080E00E945848C090F901C6
:1032800010E1412C912CDD24C7FCD0945E0186E036
:10329000A80EB11C8091B70D811105C081E0981274
:1032A00002C073E0972E242D30E0C216D30619F425
:1032B00062E0862E01C0812C82E09816C1F189154A
:1032C00030F0992061F081E09812DCC01AC083E0F0
:1032D000981609F49DC084E09812D4C0B4C06AEA7C
:1032E00075E0812F0E945F48EE24E394811001C0B5
:1032F000E12C062D26E0A501612F8CE30E94C33C42
:10330000C1C063E277E1812F0E945F48282D4D8183
:10331000612F8CE30E94A648882009F4B3C02FE0F7
:1033200041EF6D81862D0E94154B8D83ABC06EE001
:1033300076E0812F0E945F485CE3552E712C30901F
:10334000B70D672D832D0E948E477C0185EFE8160F
:1033500081E0F806D4F04E2D455F431508F04F5F2D
:10336000882051F08091F801871106C08091FC0BF4
:10337000181624F421E003C020E001C022E0405DE3
:10338000612F852D0E94B14419C0882051F0809191
:10339000F801871106C08091FC0B181624F421E077
:1033A00003C020E001C022E0472D4F5F612F852D33
:1033B0000E94194944EFE42EFF24F394882009F178
:1033C0003090F80137101DC08091FC0B1816CCF41A
:1033D00002E028EF31E044EF51E0B701862D0E9472
:1033E000594AAC018091600B882359F0443F81E039
:1033F000580711F440E050E0632D8091B70D0E9412
:103400004347739486E0580E84E0781298CF3AC010
:1034100066E176E0812F0E945F48282D20684C8568
:103420004F7050E0612F8CE30E941C59882051F1AD
:103430006C856F702FE040E0862D0E94154B8F70D9
:103440009C85907F1DC06EE176E0812F0E945F48D1
:10345000282D20684C8542954F7050E0612F8CE3F9
:103460000E941C59882071F06C8562956F702FE066
:1034700040E0862D0E94154B8295807F9C859F7031
:10348000982B9C8793944394185F84E0891508F0E7
:1034900001CFDF91CF911F910F91FF90EF90DF90BF
:1034A000CF90BF90AF909F908F907F906F905F90E4
:1034B0004F903F9008953F924F925F926F927F920C
:1034C0008F929F92AF92BF92CF92DF92EF92FF9234
:1034D0000F931F93CF93DF93982E90E1C92E20E195
:1034E000E22E06E216E02BE044E657E066E00E949A
:1034F000FC5C882309F4F4C022E047E356E060E076
:1035000080E00E945848A090F901AA9418E0812C0C
:1035100085E0782EBB24A7FCB0944091F60B480DB3
:10352000E42EF12C7E9CE0017F9CD00D1124C95922
:10353000DB4F8A81AB81BC81882319F0B195A195BD
:10354000B109F701EE0FFF1FED54FD4F20813181CE
:103550002A1B3B0B233331051CF0811109C0BEC06F
:103560002E3C3F4F1CF4882319F0B8C00DE201C077
:103570000FE74F5F20E0612F80E00E941A1520E0E6
:10358000402F612F8DE40E94B1448091440385FF58
:1035900003C0BDE75B2E02C0A4E65A2E612C452C69
:1035A00041946701CC0CDD1CA3EBB2E0CA0EDB1E1C
:1035B000AE14BF0451F48091F801861106C08091C9
:1035C000FC0B18162CF002E001C000E0312C03C007
:1035D00001E033243394B2E06B1609F44BC083E06E
:1035E000681609F45DC091E0691671F1202F206220
:1035F0004B815C81612F80E30E941C59332069F06C
:103600006B817C8102E028EE33E048E15CEF892D9C
:103610000E94594A9C838B8357C0002309F454C0ED
:10362000A0E89A1251C0D601ED91FC918A818823BD
:1036300019F0F195E195F109FC83EB831092FC0BF5
:1036400082E00E94B94540C048814456552747FD55
:103650005095202F612F88E40E941C593320A1F13E
:1036600068816456252D442D892D0E94154B8C5957
:1036700088832AC049814C59552747FD5095202FF2
:10368000612F86E60E941C593320F1F069816C5944
:10369000252D442D892D0E94154B8456898314C0F5
:1036A0002A814FE857E0612F8CE60E94984833202A
:1036B00059F021E040E06A81892D0E94154B91E08C
:1036C000811101C090E09A836394B4E06B1270CFD3
:1036D0008394185F87E0881220CF02C00EE749CF9D
:1036E000DF91CF911F910F91FF90EF90DF90CF90DE
:1036F000BF90AF909F908F907F906F905F904F9012
:103700003F9008956F927F929F92AF92BF92CF9217
:10371000DF92EF92FF920F931F93CF93DF931F924D
:10372000CDB7DEB7B82EECE0CE2EEE24E3940FE357
:1037300016E02BE044E657E068E00E94FC5C88233A
:1037400009F449C122E041E456E060E080E00E94D3
:103750005848E090F901EA9418E0C12CFF24E7FCF6
:10376000F09460E8962E7EE9A72E0091F60B0C0DE2
:103770000C3009F430C1202F30E0E216F30639F4A2
:103780008091FC0B18162CF4DD24D39404C0D12CAA
:1037900002C052E0D52E3901660C771C620E731EF2
:1037A0008FE595E0680E791E4BE855E0612F80E0CB
:1037B0000E946548093010F048E301C041E3400F22
:1037C000612F8CE00E9491458091F801882311F0CF
:1037D00000E001C00D2DF301228143EE58E0612F7E
:1037E00087E10E949848F30192818091F801953019
:1037F00008F4E2C0983008F4E9C0E3C02D2DF301CD
:103800004081612F86E40E94E514F301408180919C
:10381000F801473294F0823011F000E001C00D2D24
:10382000F3012181332727FD309520583F4F475220
:10383000612F88E70E947B5913C04532ACF082307B
:1038400011F42D2D01C020E0F3014181552747FDE2
:1038500050954E595F4F022F612F86E60E943F58C8
:1038600000E09FE780E843C0823011F020E001C013
:103870002D2DF3014181552747FD5095612F88E794
:103880000E941C5900E09DE783E831C02D2DF30113
:103890004081612F86E40E94A6488091F801823021
:1038A00011F020E001C02D2DF3014181612F86E64A
:1038B0000E94A64801E096E18AEE26E14AEE19C090
:1038C0002D2DF3014081612F86E40E94E514809143
:1038D000F801823011F020E001C02D2DF30141816B
:1038E000612F86E60E94E51402E09FE280E02FE26D
:1038F00040E03091FC0B13160CF058C0DD2009F4A9
:1039000055C03091F801313011F120F0323009F01A
:103910004DC043C02DE040E0F30162818B2D0E9439
:10392000154BF3018283402F50E0853028F088301A
:1039300030F421E030E005C020E030E002C022E0B9
:1039400030E04217530791F1F30110821DC0F301DB
:103950009081692F8B2D99830E94154BF3018083F1
:103960009981011123C0853219F49532FCF413C0FA
:10397000873229F49732D4F4F301918217C084324C
:1039800029F495329CF0F301118210C0863271F453
:10399000973264F0F301A18209C0292F482FF30167
:1039A00061818B2D0E94154BF3018183C394185FB5
:1039B000F7E0CF12DACE0FC0813009F41FCF20E03C
:1039C0001ECF813009F47CCF20E07BCF813009F419
:1039D0005DCF20E05CCF0F90DF91CF911F910F91D1
:1039E000FF90EF90DF90CF90BF90AF909F907F902F
:1039F0006F900895CF92EF920F931F93C02EE12CFA
:103A000000E010E00E94FC5C1F910F91EF90CF90BE
:103A100008956F927F928F929F92AF92BF92CF92B2
:103A2000DF92EF92FF920F931F93CF93DF93C82FF4
:103A300000E12BE044E657E067E00E94FA1C88238F
:103A400009F48CC022E046EA56E060E080E00E9483
:103A50005848C090F901CA94C03611F0C43641F4F8
:103A6000C7FC06C0C092B60D89E29BE50E94B0403B
:103A7000A12C912CBB24B39418E0DD24C7FCD09476
:103A800095E0892E29E0722E2091F60B2A0DE22E68
:103A9000F12CCE14DF0411F402E001C000E0662432
:103AA0006394283028F4612C87E08B1528F44FC0EC
:103AB000E6E0EB1508F44BC0911001C0902E2F5F8B
:103AC0004DEA56E0612F80E00E941958662059F0B7
:103AD000F8E0EF1AF1087E9CE0017F9CD00D1124E4
:103AE000C95EDA4F07C08E9CE0018F9CD00D112477
:103AF000C151DB4F7E010CE2F70141917F01552757
:103B000047FD509520E0612F802F0E941C590B5ECD
:103B1000053991F788E0F82EF10E611003C0B394D7
:103B20001F2D11C025960CE24991552747FD509550
:103B300020E06F2D802F0E941C590B5E0038A1F7EA
:103B4000105FB394B394A394F7E0AF129DCF91109C
:103B500005C08091F60B8F5F8093F60BDF91CF91BC
:103B60001F910F91FF90EF90DF90CF90BF90AF909B
:103B70009F908F907F906F9008950F9300E026E0C4
:103B80004EE25BE062E00E94FA1C882349F122E0E9
:103B900040EB56E060E080E00E94584868EB76E039
:103BA00080E10E945F4868EC76E088E10E945F480F
:103BB0006AED76E080E20E945F486BEE76E088E294
:103BC0000E945F486AEF76E088E30E945F48409178
:103BD000170620E850E068E380E30F910C941C592D
:103BE0000F910895CF92DF92EF92FF920F931F9360
:103BF000CF93DF931F92CDB7DEB700E026E04EE211
:103C00005BE063E00E94FA1C882309F482C022E092
:103C100043E057E060E080E00E9458484EE0C42E48
:103C2000D12C10E04C2D8C2D8E50012F843008F0BB
:103C30000850C60149830E94FB49F82E49814D5026
:103C400020E0602F80E30E94A648FF2011F022E0D0
:103C500001C020E04F2D405D602F84E40E94B144FC
:103C6000185F8FEFC81AD80A1834E1F618E3C12C90
:103C7000D12CC6010E94FB49F82E00E02C2D47E70D
:103C80005AE0612F80E00E9498484F2D405D2F2D13
:103C9000612F80E20E94B144EFEFCE1ADE0A185085
:103CA000183039F74BE057E068E184E50E94654839
:103CB00036E0C32ED12C10E2202F4EE456E0612FC7
:103CC00084E50E94910FC6010E94FB49E82EC601BF
:103CD00001960E94FB49F82EEE2011F022E001C06F
:103CE00020E04E2D405D612F8CE60E94B144FF2004
:103CF00011F022E001C020E04F2D405D612F88E7E8
:103D00000E94B1440F5F185FF2E0CF0ED11C043067
:103D100099F60F90DF91CF911F910F91FF90EF9047
:103D2000DF90CF9008956F927F928F929F92AF9283
:103D3000BF92CF92DF92EF92FF920F931F93CF9398
:103D4000DF931F92CDB7DEB7982E01E026E04EE25A
:103D50005BE064E00E94FA1C882309F494C022E02E
:103D600043E157E060E080E00E94584860E9662E39
:103D700062E0762EB12C812CC12C74E0D72EE12C80
:103D8000F12CA82CA39400E02A2D47E157E06B2DDD
:103D900088E10E941958882D0E9432468C0194E4D3
:103DA0009550A8014F7055274A302CF0495C41349A
:103DB0001CF028E002C0405D20E06B2D892F998324
:103DC0000E94B14454E0169507955A95E1F7998100
:103DD000903331F747E0841689F0F301A081B18177
:103DE00024E630E00E949373A70196010E941374A9
:103DF000422F6B2D86E60E94595A0FC08091F9011F
:103E0000813011F422E001C020E040910502509180
:103E100006026B2D86E60E945E59F8E0BF0E42E076
:103E2000640E711C8A2CAF12ACCF49E157E068E2F6
:103E300082E70E946548409112065091130620E0E7
:103E400060E38EE70E941C5987E00E94324623E21D
:103E5000FC012E9FC0012F9F900D1124492F4695E4
:103E600020E250E068E38EE70E941C598091F9013E
:103E7000813049F42FE741E860914706892D0E947F
:103E8000244B809347060F90DF91CF911F910F91A4
:103E9000FF90EF90DF90CF90BF90AF909F908F906A
:103EA0007F906F900895DF92EF92FF920F931F9390
:103EB000CF93DF93F82E00E026E04EE25BE065E072
:103EC0000E94FA1C882309F4E1C022E04CE157E08B
:103ED00060E080E00E945848C1E4D1E010E0812F0A
:103EE0000E9432469C0148815981841795070CF441
:103EF000AC01499359934C855D85421753070CF4E7
:103F0000A9015D874C871F5F173049F7C091640B8B
:103F1000C093610B20E2F21621F08FEBF8120CC077
:103F200009C08C2F8F5F8093640B833029F481E06C
:103F30000E94B9451092640B8091640B813061F04E
:103F400020F0823009F099C02FC048E257E068E1C4
:103F500082E10E94654891C0CC2311F022E001C0AB
:103F600020E047E357E060E18EE10E94584842E4D8
:103F700057E068E182E10E946548C3E3D1E0D12CBB
:103F800018E9E12E1AE3F12E08E615ECFF86EE861D
:103F90001D8F0C8F8D2D0E94324689939993D39457
:103FA000E7E0DE12F3CF69C0CC2311F022E001C0BC
:103FB00020E042E557E060E182E10E94584842E497
:103FC00057E068E182E10E946548E1E4F1E008E140
:103FD00016E0D80161917191848595859B01281B1C
:103FE000390B37FF03C03195219531092333310552
:103FF00074F19F0120513109E901488159811196DD
:104000005C934E939A01261B370BB90137FF02C010
:10401000615C7F4FD6E075956795DA95E1F7261BD1
:10402000370B1F963C932E931E97841B950B9C0178
:1040300097FF02C0215C3F4FC6E035952795CA9592
:10404000E1F7821B930B5D969C938E935C9712967F
:10405000D1E0EF34FD0709F0BDCF80E090E0F8013A
:10406000219131918F01820F931FF6E000331F07DA
:10407000B1F79093430680934206DF91CF911F9151
:104080000F91FF90EF90DF900C94F32FDF91CF9181
:104090001F910F91FF90EF90DF9008952F923F9224
:1040A0004F925F926F927F928F929F92AF92BF9248
:1040B000CF92DF92EF92FF920F931F93CF93DF93F4
:1040C00000D01F92CDB7DEB7382E69838091F90BEF
:1040D0009091FA0B892B11F010E001C01981BFE11A
:1040E000FB2EF1228091FB0B882331F021E0D12EB1
:1040F000F21203C0DA9401C0D12E332019F042E34A
:1041000057E102C048E956E022E060E080E00E940A
:104110005848832D0E94FB469091B40D20E0482F13
:1041200050E060E0892F815F0E941C59332019F014
:104130004EE956E002C042EA56E060E08091B40DDC
:104140000E946548009101010150332011F064E0A4
:1041500001C065E02BE044E657E08D2D0E94FA1C7B
:10416000882309F46AC44090F901143680F41236A9
:1041700008F003C1113269F120F4103209F06DC169
:1041800052C0812F8254823008F067C1F6C01638C1
:1041900050F4143808F0A0C0103809F472C0113877
:1041A00009F05BC106C0812F8E5B823008F055C1DB
:1041B0006FC08091FB0B882349F08091F80B81112F
:1041C00005C06091B70D832D0E945F3D81E80E947C
:1041D000EA498091F80B882309F45AC08091FB0BBF
:1041E000813031F46091B70D832D0E945F3D16C080
:1041F00061E08091F80B18160CF060E0832D0E94AE
:10420000BA0D8091F80B87FF02C08F5F01C081500B
:104210008093F80B8091F80B8111EACF4090F70B57
:104220004092F90135C08091B50D882341F080910D
:10423000FB0B882331F18091F80B811122C0809112
:10424000FB0B813011F482E001C081E08093FB0B15
:104250008091B70D8093620B332041F00E94F346AA
:10426000DC018C9186958695837005C00E94EB4693
:10427000FC0180818F708F5F8093630B4092F70BFE
:10428000ECC0812F0E94EA498091F80B882329F025
:104290001092FB0B1092F80BE0C08091FB0B811188
:1042A0001092B50D8091B50D882351F0832D0E9499
:1042B0001D478111D2C06091B70D832D0E94A93D89
:1042C000332019F087E892E502C08EE694E50E945B
:1042D000B0401092FB0BB1C38091FB0B882309F413
:1042E000BCC08091F80B8111B8C0832D0E941D477E
:1042F0008111B3C08091B70D332041F00E94F34685
:10430000DC018C9186958695837005C00E94EB46F2
:10431000FC0180818F708F5F8093B50D143829F474
:104320008091B70D8F5F8093B70D6091B70D832D8E
:104330000E94A93D332019F087E892E502C08EE67D
:1043400094E50E94B0401092FB0B812F0F900F90CC
:104350000F90DF91CF911F910F91FF90EF90DF9021
:10436000CF90BF90AF909F908F907F906F905F9015
:104370004F903F902F900C94EA498091FB0B88233B
:1043800009F46BC09091F80BF3E0092FFF1202C003
:10439000015001C00F5F911144C0813009F053C03A
:1043A000832D0E941D47811158C08091B70DC82EE2
:1043B000D12C332071F00E94F346A6014095509510
:1043C000425F5F4F440F551F440F551FBC010496B9
:1043D0000FC00E94EB46C094D09420E2C20ED11CC4
:1043E00029E02C9DA0012D9D500D1124BC010996A2
:1043F0000E942F7482E00E94B94582E0F81204C046
:104400008091B70D8F5F1CC08091F60B242D30E09A
:10441000281B310926303105F4F08F5F8093F60BAD
:104420001AC0011110C0813071F46091B70D832D55
:104430000E945F3DA3E0FA120EC08091B70D81503B
:104440008093B70D08C061E0B3E0FB1260E0832DFC
:104450000E94BA0D81110093F80B1092B50D5524EE
:104460005394212CFF24F394A1C2EDE0E21508F44B
:10447000C8C2822D0E94F3465C01DC012C91822F80
:1044800086958695837090E001968C159D0509F0C0
:10449000B8C2237009F0BAC2B4C2BFE1B21508F4C1
:1044A000B0C2822D0E94EB464C01FC0180818F70CE
:1044B00090E001968C159D0509F0A3C2AAC22F2D8C
:1044C00030E0281B31092830310574F4622F660F63
:1044D000660F660F20E0452D80E0332019F00E9422
:1044E000E51402C00E941A15622C03C05C014B0146
:1044F000F42E8091FB0B8823E1F1823081F58091CD
:10450000F60B8F1560F5EF2DF0E0E81BF109E830B0
:10451000F1052CF58091630B851121C02091F80BDA
:104520002223E9F0862D90E04091620B332727FD8E
:1045300030952227330F221F3327240F311D821776
:10454000930769F46E2F660F660F660F6150E12CBA
:1045500005E529E04AE686E10E941344F394809140
:10456000B70D86110BC0F092F9015092B50D4F2C8A
:1045700005C04F1003C06092B70DF42C8091F60B6C
:104580008F1508F071C12F2D30E0281B310928301C
:1045900031050CF069C1722E770C770C770C862DE3
:1045A000332009F4B2C00E94F3469B838A83809132
:1045B000FB0B811102C04F1411F000E001C002E0BA
:1045C000AA81BB8112964C914695202F50E0672D11
:1045D00082E20E941C59002399F0EA81FB816281EA
:1045E000669524E640E0812F0E94154B880FAA8132
:1045F000BB8112969C9112979170982B12969C9366
:10460000AA81BB811396EC914E2F552747FD5095FB
:1046100020E0672D87E30E941C59EA81FB8182819B
:10462000418142954695477080FD419520E0672D78
:104630008CE30E941310AA81BB8111964C91440F08
:10464000440F440F45954595459520E0672D82E53B
:104650000E94A648EA81FB8180818370833049F003
:10466000823011F44EE701C04FE7672D86E60E94C5
:104670009145AA81BB812C91822F807F79F0229570
:104680002F70822F90E00B9714F044E001C040E0BF
:10469000420F20E0672D8EE60E94EC0F4091FB0B4D
:1046A000442309F4E1C0413021F08091F80B8111DD
:1046B00023C08091630B85111FC0862D90E050911F
:1046C000620B2091F80B332727FD30952227330FFB
:1046D000221F3327250F311D8217930769F44130BC
:1046E00011F40FEF01C005E5672D6150E12C29E0C1
:1046F0004EE682E10E941344F410B6C0E12C0FEFA5
:1047000027E04CE6672D83E1ADC00E94EB469B831A
:104710008A83621469F0FC012281229526952695F0
:10472000237000E049EC58E0672D86E00E9498482D
:10473000AA81BB8116964C914F7720E0672D8AE1C4
:104740000E940F158091FB0B811102C04F1411F0D4
:1047500000E001C002E0AA81BB811196EC914E2FCE
:10476000552747FD5095202F672D89E40E941C593D
:10477000002361F02DE743E8EA81FB816181812F0D
:104780000E94154BAA81BB8111968C93EA81FB8113
:104790004381842F8F7349F0440F440F459545950D
:1047A00020E0672D8FE40E94EC0FAA81BB81129656
:1047B0004C91842F8F7349F0440F440F45954595D4
:1047C00020E0672D86E60E94A648EA81FB8185816C
:1047D000811102C040E201C043E5AA81BB81149669
:1047E0008C91882329F0433511F44AE201C044E456
:1047F00020E0672D8BE70E94B1444091FB0B4423DE
:1048000099F1413021F08091F80B811123C0809102
:10481000630B85111FC0862D90E05091620B209193
:10482000F80B332727FD30952227330F221F33271C
:10483000250F311D8217930769F4413011F40FEFF2
:1048400001C005E5672D6150E12C29E04AE686E1CB
:104850000E941344F41008C0E12C0FEF27E048E653
:10486000672D87E10E94D8434F2D4F5F6394B401B9
:10487000675F7F4FC5010496332099F0BDE0B61500
:10488000E8F0F5015481252F26952695237030E018
:104890002F5F3F4F2C153D0589F4537009F026CE4C
:1048A0000DC0FFE1F61550F0D4011996EC91EF70B0
:1048B000F0E03196EC15FD0509F418CE8091FB0B64
:1048C000823009F070C08091F60B841708F06BC03D
:1048D000E42FF0E0E81BF109E830F1050CF063C0CB
:1048E0008091630B85115FC0A62DB0E08091620BB3
:1048F0002091F80B332727FD30952227330F221FF5
:104900003327280F311DA217B30709F04CC06E2FB3
:10491000660F660F660F6150E12C05E529E04AE657
:1049200086E10E9413444F2D4E5F3DC02092B70D8B
:104930005092B50D8091FB0B811166C022E08091F1
:10494000F60B8F1568F5CF2CD12CF601E81BF10979
:10495000E830F1052CF56E2F660F660F660F452DBA
:1049600080E0332019F00E94E51402C00E941A155D
:104970008091FB0B8230A1F48091630B851110C0F4
:104980008091F60BB601681B7109660F660F660F02
:104990006150E12C05E529E04AE686E10E941344D6
:1049A0004F2D4F5F622C5394262CF42EC52CD12C06
:1049B00031103DC036C0F0920101242D30E08F2D22
:1049C00090E00197281739071CF0FA94F092F9014A
:1049D0008091F90B9091FA0B892B79F10E9468482C
:1049E00041E857E068E280E10E946548B981B1364C
:1049F00021F581E60E94EA491092FA0B1092F90B18
:104A00001CC04F1409F492CF20E099CF812C912C37
:104A100002C0A12CB12C8091F60B8F1508F44FCD5C
:104A200063CDE1E1CE16D1040CF437CDC4CFF5E06F
:104A3000CF16D1040CF419CDBECF0F900F900F906C
:104A4000DF91CF911F910F91FF90EF90DF90CF906A
:104A5000BF90AF909F908F907F906F905F904F909E
:104A60003F902F9008958F929F92BF92CF92DF92A6
:104A7000EF92FF920F931F93CF93DF931F92CDB7C7
:104A8000DEB7F82E56E0C52E65E0E62E0BE81BE0FB
:104A900026E04EE25BE061E00E94FC5C882309F4C2
:104AA00039C122E041E95BE060E080E00E945848C3
:104AB0008091630081FF12C042EA5BE068E18AE214
:104AC0000F90DF91CF911F910F91FF90EF90DF90AA
:104AD000CF90BF909F908F900C94654847EA5BE021
:104AE00068E082E10E9465488091FC0B18161CF476
:104AF000CC24C39402C042E0C42EDD24D39430E120
:104B0000E32E8D2D0E943049882E912C880C991C03
:104B10002FE436E0820E931E20E0482F6E2D80E0B9
:104B20000E94E51410E08091F9018D1105C080917B
:104B3000F801811709F4E7C090E0B12C02C0BB2452
:104B4000B394113051F1123009F441C0911102C0F7
:104B500000E001C00C2DF4012081229526952695B8
:104B6000237045E058E06E2D88E10E949848BB20F4
:104B700009F44BC0F4016081629566956695637097
:104B800022E040E08F2D0E94244B8295880F880FF1
:104B9000807CF40190819F7336C0911102C020E0A7
:104BA00001C02C2DF4014181552747FD50956E2DF4
:104BB00082E40E941C59BB2041F1F401618124E68A
:104BC0004CE98F2D0E94244BF40181831EC091116A
:104BD00002C000E001C00C2DF40120812F734FE0D2
:104BE00058E06E2D88E40E949848BB2071F0F401D3
:104BF00060816F7323E040E08F2D0E94244B8F7300
:104C0000F4019081907C982B90831F5F133009F002
:104C10008ACFF8E0EF0ED39425E0D21272CF11E0E4
:104C20008091F901853009F010E046EB5BE060E32C
:104C300080E00E946548112311F022E201C020E2C9
:104C400040916106552747FD5095465F5F4F60E3F1
:104C50008EE40E941C59112349F028E246EF60912E
:104C600061068F2D0E94244B80936106EE24E3940D
:104C70008091F901863019F0E12C20E001C022E09A
:104C800041EC5BE068E380E00E9458480EEF1BE0D7
:104C900099E4C92E96E0D92E90E3F8014191519103
:104CA0008F01F601219131916F01421B530B440F8B
:104CB000551F20E268E3892F99830E941C5999812E
:104CC000985E903951F7EE2029F1F0E6FF1222C0EC
:104CD00088E0EEEFFBE0A9E4B6E001900D928A9542
:104CE000E1F781E00E94B94580E00F90DF91CF911C
:104CF0001F910F91FF90EF90DF90CF90BF909F900A
:104D00008F900C947A498091FC0B91E018160CF46A
:104D100016CF13CF0F90DF91CF911F910F91FF907E
:104D2000EF90DF90CF90BF909F908F9008957F92EB
:104D30008F929F92AF92BF92CF92DF92EF92FF92AB
:104D40000F931F93CF93DF93CDB7DEB765970FB661
:104D5000F894DEBF0FBECDBF882E22E042E45BE0B8
:104D600060E080E00E9458480E946A408091540CA4
:104D7000882321F18091F9018F5F482F50E09A013B
:104D8000220F331F240F351FF901ED54FE4F1481FC
:104D9000F901E954FE4F10821182128291E0909342
:104DA000F3010E949A42112319F0812F0E947F4142
:104DB0001092F3011092540C1092FB0B8091F90B9E
:104DC0009091FA0B892B11F000E001C0082D809121
:104DD000FB0B81110BC3809144068F5F0E94AB4592
:104DE000811104C003C3802F815001C0802FC09067
:104DF000F9016FE00E947D52882309F41AC31091D3
:104E0000F901063670F4043608F052C10132B9F1E6
:104E100020F4003209F0B0C15CC0023608F4ACC125
:104E20005FC10138A1F00F3B21F0003809F0A4C1A7
:104E300050C0109144061093F9011092FB0B109290
:104E4000F80B8FEF8093F70B8093FC0B95C180914B
:104E5000FB0B8823A1F08091F80B811110C04091C9
:104E6000440650E0212F332727FD30954217530782
:104E700031F0812F8F5F0E94AB458111BDC28091BF
:104E8000FB0B882309F478C1823021F02091F70BC5
:104E900027FF13C0212F332727FD3095205F3F4F79
:104EA0008091F80B280F311D87FD3A95C90160E10B
:104EB00070E00E94DD73182F01C0122F1093F901CA
:104EC0001092FB0B8FEF8093F70B1092F80B802F53
:104ED0009AC29091FB0BC12EDD24C7FCD09499237C
:104EE00009F4B8C08091F80B811104C08091F70BD0
:104EF00087FDB0C0913019F487E59BE002C087E6DA
:104F00009BE00E94844881E00E94AE0E9601205FE3
:104F10003F4F8091F80B280F311D87FD3A95C9014D
:104F200060E170E00E94DD73B82E8091FB0B813050
:104F300009F045C06091F70B6F5F7E0180E1E80EDC
:104F4000F11CC7010E94944541E062E08B2D8F5F08
:104F50000E945B0E0F2D0CC0CE0101960E94543FA3
:104F60008091F50B882321F01092F301B12E27C018
:104F70004FE050E0BE016F5F7F4F8E2D902F0E945B
:104F80003141682F8111E8CF8091A202882329F056
:104F90000E947749182F811139C28091A002809315
:104FA000EB019091A1029F708091EC01807F892B91
:104FB0008093EC0161E180919F020E94AD4280915B
:104FC00044068093F70B00E110E026C08091F80BB7
:104FD00018161CF4C7010F9602C0C7010196B8014C
:104FE0000E94DD73A82E682F6F5F8B2D8F5F0E944C
:104FF000AD422091F70B332727FD3095E216F306DB
:1050000019F4A092F70B07C04A2D50E0421753073E
:1050100011F4B092F70BBA2CEB2CF12CCE14DF0468
:10502000A9F64091F70B242F332727FD3095809167
:10503000440690E02817390729F04093440681E0A0
:105040000E94B9451092FB0B8FEF8093F70B1092E3
:10505000F80BEFC10038D9F486E79BE00E94844842
:1050600081E00E94AE0E8091440690E08C159D0573
:1050700041F01093440681E00E94B945812F0E94BF
:10508000740F1092FB0B882D0E94EA49D2C1812F28
:105090008F5F9D8B0E94AB459D89882309F46CC06E
:1050A000913011F482E001C081E08093FB0B64C079
:1050B000412F552747FD50952091440630E0421777
:1050C000530751F4043619F086E393E602C082E2F6
:1050D00095E10E949F49ADC182E00E947A494CC08F
:1050E0009091FB0B992309F447C08091F80B03368C
:1050F00011F48F5F01C08150803111F0803F09F4BD
:1051000080E02091F70B27FF35C0913099F51C2DD9
:10511000C092F70BE0E1AE2EB12CEC2CF12C212F3C
:10512000332727FD3095C901023611F4419601C09D
:105130000F96B5010E94DD73182F8F5F0E94AB455B
:10514000882341F0412F552747FD50954E155F05A7
:1051500031F71FEF1093F9011F3F49F484E00E94DB
:105160007A49C092F9011092FB0B1093F70B109142
:10517000F90180E08093F80B44E85BE060E08AE2AC
:105180000E9465480E949841AC0120E060E086E6FC
:105190000E941C59C12EDD24C7FCD0948091440686
:1051A00090E0C816D90611F442E001C040E06BE07F
:1051B00080E00E94315A8091F60BA601481B5109EC
:1051C0001416150644F096012150310937FF0EC020
:1051D00020E030E00BC04630510554F096012450D9
:1051E00031092A30310514F029E030E02093F60B24
:1051F00078E0972EA12CB12C7090F60B7A0C909140
:10520000FB0B911105C0472D50E0C416D50611F0D7
:1052100020E101C022E1E72CF12CA7014F5F5F4F95
:1052200002E0692D84E19D8B0E94EC569D899230AD
:1052300009F4FAC0913009F04CC08091F70B87FF58
:10524000EEC047C0782E4BE2692D8AE70E94914557
:1052500040C07090F80B710E3CC08091F80B87FF36
:105260001BC0EC14FD0444F4A601480F511D87FD3A
:105270005A95E416F50674F49FE0E91AF108CE1485
:10528000DF043CF1A601480F511D87FD5A954E15CC
:105290005F05FCF473941DC08823D9F0CE14DF049D
:1052A00044F4A601480F511D87FD5A954E155F0520
:1052B00074F49FE0E90EF11CEC14FD0454F0A60117
:1052C000480F511D87FD5A95E416F50614F48FE03A
:1052D000780E9FE07922872D8F5F0E94AB4588234F
:1052E00039F1872D0E944D0F7C0100E0272D43E30B
:1052F00051E0692D88E10E94381020E0A701692D56
:1053000088E70E941C5980914406781211C0809150
:10531000F70B87FD08C08091F60BA501480F511DC2
:105320004C155D0529F04AE2692D81E00E94914506
:10533000F090FB0BFF20D9F08091F60BA501480FF0
:10534000511DC416D50699F4E12C0FEF27E046E76E
:10535000692D89E00E94D84381E0F81205E5692DA6
:105360006150E12C29E048E788E00E9413449FEF58
:10537000A91AB90A88E0980E90E499123DCF40919D
:10538000F90B5091FA0B452B09F453C0812F0E9461
:105390004D0F23E331E03093560C2093550C8AE0F7
:1053A0008093570C1092540C0E94684800E22AE047
:1053B00043E351E060E280E10E9405484AE757E09C
:1053C00068E280E10E94654880E6881621F091E657
:1053D00089122FC003C081E08093540C882D0E9455
:1053E000EA491092FA0B1092F90B23C0802F8F71AB
:1053F000813009F4F8CCFACC49E45BE05093FA0B25
:105400004093F90B81E80E94EA49B6CE60E08091B2
:10541000A2020E948E42812F0E947F41BECDEC14D9
:10542000FD0409F01ACF0ECFEC14FD0409F015CFDE
:1054300010CF65960FB6F894DEBF0FBECDBFDF91DB
:10544000CF911F910F91FF90EF90DF90CF90BF9081
:10545000AF909F908F907F90089578941F920F92B5
:105460000FB60F921124EF92FF920F931F932F9379
:105470003F934F935F936F937F938F939F93AF93DC
:10548000BF93EF93FF93CF93DF9300D0CDB7DEB7F9
:10549000F89487B78D7F87BF80910701982F9F5F12
:1054A00090930701837011F09CE901C09DE981B7D9
:1054B000890F81BF78948091FE01882369F09091D3
:1054C000420C911105C08093420C91E09093FD0134
:1054D00081508093FE0120C0209107022223B1F069
:1054E0009091420C992391F081E03091FD013111AE
:1054F00080E08093FD01811101C098E09093FE014E
:10550000882351F021502093070206C01092420CCC
:105510001092FD011092FB018091FD01882381F022
:105520008091FB01882329F08091430C91E0892729
:1055300001C080E08093430C811102C01B9A01C01E
:105540001B988091F4019091F50101969093F501DB
:105550008093F4018091410C8F5F8093410CE6B2FF
:10556000E09440E050E0F12C8A010F5F1F4FB7013B
:10557000002E02C0759567950A94E2F76170CA0122
:10558000880F991F840F951F895E934F0E94B64F15
:10559000A8010630110541F7F0B2F09406E010E0E2
:1055A000F801EC5CF44FE491EF2161E009F460E074
:1055B000C801880F991F800F911FA801895E934F22
:1055C0000E94B64F0F5F1F4F0E30110549F7009133
:1055D000160C002309F4A1C080910801815080932A
:1055E0000801882309F409C198C08EE78093440C10
:1055F0001092450C1092460C1092470C1092480CD9
:105600001092490C902F91509093160C192F1170F5
:1056100081E0182730915A06943008F048C09695DA
:10562000891B38713031A9F096E0899FF00111246F
:10563000E550FA4F90819F70292F30E0412F50E0C4
:10564000440F551F02C0359527954A95E2F7237000
:1056500001C020E020934A0C96E0899F900111241C
:10566000F901E550FA4F80818295837090E0012E18
:1056700002C0959587950A94E2F7817099278093E7
:105680004B0C8CE49CE09A838983C9018D5C9C4F10
:10569000810F911DFC01EA53FD4F6081CE010196FF
:1056A0000E94D4490850E981FA81019329C03871D8
:1056B000303161F0812F90E09C012E5F3F4FFC0163
:1056C000E45FF94F8081820F837001C080E0809396
:1056D0004A0C10924B0C8CE49CE09A838983E12F56
:1056E000F0E0E45FF94F6081659565956E5CCE01F1
:1056F00001960E94D44987EF811BE981FA81819349
:10570000FA83E983E981FA818EE78193FA83E98359
:10571000E454FC40E0932601559A8091150C8823AF
:1057200019F081508093150C80910601181624F40D
:1057300081508093060127C080915D0685FF23C0BC
:105740008091F705811104C08091FD058823D9F06F
:105750008091F4019091F5016EE170E00E94C973AF
:10576000892B89F48091F4019091F5016CE370E04C
:105770000E94C97321E0892B09F020E02093FB01EE
:1057800082E00E947A491091140C10FF09C08091A8
:10579000F4019091F501811103C081E00E947A49E2
:1057A00011FF0CC08091F4019091F501803469F1F2
:1057B0008091F4019091F501883439F112FF12C003
:1057C0008091F4019091F501803819F18091F401F4
:1057D0009091F5018838E9F08091F4019091F501FC
:1057E0008039B9F080911606826080931606F8948D
:1057F00087B7826087BF789410C085E080930801E6
:1058000080912601811189CFF0CE81E00E947A49F2
:10581000D5CF81E00E947A49E5CF0F900F90DF91BC
:10582000CF91FF91EF91BF91AF919F918F917F9118
:105830006F915F914F913F912F911F910F91FF9029
:10584000EF900F900FBE0F901F9018951F920F9220
:105850000FB60F9211242F933F934F935F936F9343
:105860007F938F939F93AF93BF93EF93FF9357983B
:1058700078948BB16CB10E94FD38F894579AFF91DF
:10588000EF91BF91AF919F918F917F916F915F91B8
:105890004F913F912F910F900FBE0F901F90189531
:1058A0001F920F920FB60F9211242F933F934F9395
:1058B0005F936F937F938F939F93AF93BF93CF9398
:1058C000EF93FF93CCB58091500C882321F0C09AC0
:1058D0001092500C04C0C09881E08093500CA091AD
:1058E0000401B0910501FD01819191919BBD8ABD9B
:1058F000F0930501E093040112968D919C9113970A
:10590000892BB1F4809144038295817091E08927BD
:105910008093500C87B78F7E87BF0E94334B809156
:1059200043038770823021F087B7806187BF789406
:105930008091130C8C1710F4C093130C8091120CEF
:10594000C81710F4C093120C8091160681608093E2
:105950001606FF91EF91CF91BF91AF919F918F91DB
:105960007F916F915F914F913F912F910F900FBE5B
:105970000F901F9018951F920F920FB60F9211243F
:105980002F933F934F935F936F937F938F939F9347
:10599000AF93BF93EF93FF9380E492EA97BD86BDE8
:1059A00080917800909179008F3F910538F488E5D7
:1059B00098E9909379008093780008C088EC90E093
:1059C00090937900809378000E94334BFF91EF9180
:1059D000BF91AF919F918F917F916F915F914F9107
:1059E0003F912F910F900FBE0F901F9018951F920F
:1059F0000F920FB60F9211242F938F939F93EF93D3
:105A0000FF938091B20281508093B2021816C4F4C1
:105A10008091100C9091110C9FBB8EBBE0910E0CED
:105A2000F0910F0C21912DBBE29AE19A019690938F
:105A3000110C8093100CF0930F0CE0930E0C01C02E
:105A4000E398FF91EF919F918F912F910F900FBE4F
:105A50000F901F9018951F920F920FB60F9211245E
:105A60002F938F939F93EF93FF9388B391E08927B0
:105A700088BBE0910401F09105012191F0930501AB
:105A8000E0930401822F90E097BD86BD293C08F089
:105A9000C09A80911606816080931606FF91EF915F
:105AA0009F918F912F910F900FBE0F901F9018957F
:105AB0001F920F920FB60F9211248F93EF93FF93C3
:105AC000E0912601EE2349F0E150E0932601F0E059
:105AD000EC5BF34F80818CB901C05598FF91EF9139
