:100000000C94B70C0C94DF0C0C94DF0C0C94DF0CEC
:100010000C94DF0C0C94DF0C0C94DF0C0C94DF0CB4
:100020000C94DF0C0C94DF0C0C94DF0C0C94E85255
:100030000C9441520C94DF0C0C94DF0C0C94FE5089
:100040000C9490530C94DF0C0C94DF0C0C94DF0C8C
:100050000C94DF0C0C94DF0C0C940D520C94DF0C00
:100060000C94AC520C9415530C94DF0C0C94DF0CD4
:100070000C94DF0C0C94DF0C0C94DF0C0C94DF0C54
:100080000C94DF0C0C94DF0C0C94DF0C470D4A0D24
:100090005C0D640D6A0D700D740D700D790D7E0D83
:1000A000820D870D980D9D0DA20DA80DAE0DB10D01
:1000B000B40DBA0DBF0DC50DCA0DD00DE20DF50D75
:1000C000060E120E240E360E3C0E540E580E5350D1
:1000D000530080400000000000000000000000000D
:1000E0000000000000000000000000000000000010
:1000F0000000000000000000000000000000000000
:1001000000000000000000000000000000000000EF
:1001100000000000000000000000000000000000DF
:1001200000000000000000000000000000000000CF
:1001300000000000000000000000000000000000BF
:1001400000000000000000000000000000000000AF
:1001500000000000FCFCFCFCFCFCFCFCFCFCFCFCCF
:10016000FCFCFCFCFCFCFCFCFCFCFCFCFCFCFCFCCF
:10017000FCFCFCFCFCFCFCFCFCFCFCFCFCFCFCFCBF
:10018000FCFCFCFCFCFCFCFCFCFCFCFCFCFCFCFCAF
:10019000FCFCFCFCFCFCFCFCFCFCFCFCFCFCFCFC9F
:1001A000FCFCFCFCFCFCFCFCFCFCFCFCFCFCFCFC8F
:1001B000FCFCFCFCFCFCFCFCFCFCFCFCFCFCFCFC7F
:1001C000FCFCFCFCFCFCFCFCFCFCFCFCFCFCFCFC6F
:1001D000FCFCFCFCFFFFFFFFFFFFFFFFFF7F7F3FFB
:1001E0003F3F3F3F3F7F7FFFFFFFFFFFFFFFFF3F9F
:1001F0003F3F3F3FFF7F7F3F3F3F3F7FFFFFFFFF8F
:10020000FFFFFFFFFF7F7F3F3F3F3F3F3F7F7FFF7E
:10021000FFFFFFFFFFFFFFFF3F3F3F3F3FFF7F3FEE
:100220003F3F3F3F7FFFFFFFFF7F0F07030181E05D
:10023000F0F0F0E0000101071FFFFFFFFFFFBF3FED
:100240003F3F3F7FFFFFFFFFFF7F3F3F3F3F3FBFFE
:10025000FFFFFFFFFFFFFFFF3F07030100C0F0F8B4
:10026000FCFCFCFCF80000000103FFFFFF3F010065
:10027000000080E0F8FCFCFCF80000000001FFFF3B
:100280003F070301000010181C1C1C1C1800000074
:100290000103FFFFFFFF1F00000000C0F8FCFCFC93
:1002A0001000000000C0FFFFFFE0800000000F1FF3
:1002B0001F1F0F0300000000E0FFFFFFFFFFFFFE16
:1002C000F8E000000107070180E0F0F8FCFEFFFF06
:1002D000FFFFFFFFFFFFFFFFE0C08000000F1F1FB9
:1002E0001F1F0F070180C0E0F0FEFFFF07000000A6
:1002F00000C00F1F1F1F0F07010080E0F0FEFFFF6F
:10030000E0C08000000E0E1E1E1E1E1E1E1E0ECE03
:10031000FEFEFFFF7F0300000080FCFFFFFF3F03A6
:1003200000000080FCFFFF1F0F0F1F1F1E1E1E0E70
:100330000E0781C0E0F0FCFFFFFFFF7F3F1F0F03B0
:100340000180E0F0F8E0800001071F7FFFFFFFFF62
:10035000FFFFFFFFFFFFFFFFFFFFFFFFFFFEFEFEB0
:10036000FEFEFEFFFFFFFFFFFFFF1F00000000C0BB
:10037000FEFFFFFEFEFEFEFEFFFFFFFFFFFFFFFF93
:10038000FFFFFFFFFFFEFEFEFEFEFEFEFEFFFFFF85
:10039000FFFFFFFFFEFEFEFEFEFFFFFFFFFFFEFE74
:1003A000FEFEFEFFFFFFFFFFFFFEFEFEFEFEFEFE67
:1003B000FFFFFFFFFFFFFFFFFFFFFEFEFEFEFEFE53
:1003C000FFFFFFFFFFFFFFFEFEFEFEFEFFFFFFFF42
:1003D000FFFFFFFF1F1F1F1F1F1F1F1F1F1F1F1FAD
:1003E0001F1F1F1F1F1F1F1F1F1F1F1F1F1F1F1F1D
:1003F0001F1F1F1F1F1F1F1F1F1F1F1F1F1F1F1F0D
:100400001F1F1F1F1F1F1F1F1F1F1F1F1F1F1F1FFC
:100410001F1F1F1F1F1F1F1F1F1F1F1F1F1F1F1FEC
:100420001F1F1F1F1F1F1F1F1F1F1F1F1F1F1F1FDC
:100430001F1F1F1F1F1F1F1F1F1F1F1F1F1F1F1FCC
:100440001F1F1F1F1F1F1F1F1F1F1F1F1F1F1F1FBC
:100450001F1F1F1F00000000000000000000000020
:10046000000000000000000000000000000000008C
:10047000000000000000000000000000000000007C
:10048000000000000000000000000000000000006C
:10049000000000000000000000000000000000005C
:1004A000000000000000000000000000000000004C
:1004B000000000000000000000000000000000003C
:1004C000000000000000000000000000000000002C
:1004D0000000000053504500120800081C080808DE
:1004E0001C0800000822004900220800000000004B
:1004F000227F220000000822004900220800000894
:10050000220049002208000000227F220000000093
:1005100000082200490022080000081C0808081CE6
:1005200008004D4958455552002F3134002F3332C1
:1005300000434F55524245530043560056455253CF
:10054000494F4E00564552533A2056322E30302DE8
:1005500048002053564E3A206F70656E39782D72E0
:1005600034343800444154453A20323031322D3051
:10057000332D32380054494D453A2032323A313029
:100580003A303300454550524F4D207600444941A2
:1005900047005472696D2D202B00414E41004100EF
:1005A00042470043414C4942524154494F4E005B3F
:1005B0004D454E555D504F555220444542555400CF
:1005C000534554204E4555545245005B4D454E55BC
:1005D0005D5175616E64205052455400424F55473D
:1005E0004552204D414E434845532F504F545320C0
:1005F0000000000000000000006F0000070007007E
:10060000147F147F14242A7F2A122313086462366D
:10061000495522500005030000001C224100004102
:10062000221C0014083E081408083E080800503038
:10063000000000080808080060600000201008049E
:1006400002003E41413E0000427F40006251494667
:100650000041494936001814127F002745453900EA
:100660003E49493200017905030036494936000602
:1006700049291E00003636000000563600000814D6
:1006800022411414141414412214080002015109C7
:100690000606090906007E0909097E7F494949368F
:1006A0003E414141227F4141221C7F494949417FCE
:1006B000090909013E4149497A7F0808087F00413C
:1006C0007F41002040413F017F081422417F40408C
:1006D00040407F020C027F7F0408107F3E41414171
:1006E0003E7F090909063E4151215E7F09192946CD
:1006F000264949493201017F01013F4040403F1FE7
:100700002040201F3F4030403F6314081463070817
:100710007008076151494543007F414100020408C8
:1007200010200041417F000402010204404040408B
:1007300040000102040020545454787F4844443857
:100740003844444420384444487F385454541808AA
:100750007E0901020C5252523E7F08040478004484
:100760007D40002040443D007F1028440000417F30
:1007700040007C041804787C08040478384444441D
:10078000387C14141408081414187C7C0804040819
:100790004854545420043F4440203C4040207C1C9A
:1007A0002040201C3C4020403C44281028440C5051
:1007B00050503C4464544C44000836410000007FD3
:1007C000000000413608000808221C08081C220806
:1007D0000800000000000000000000000000000011
:1007E00000000000000000000000000000FE71FE9C
:1007F000710000000000000000000000003E007ECC
:1008000000000000007E003E000000000060066066
:1008100006FE7FFE7F60066006FE7FFE7F6006604C
:10082000066018F01898199819FE7FFE7F9819989D
:1008300019180F18060C181E1C1E0E0C078003C07A
:1008400001E030707838781830781EFC3F8E71C621
:1008500063E66776663C3C183C0066006600000074
:1008600000660076003E001E000000000000000050
:100870000000000000E007F00F381C1C380E700666
:1008800060000000000000000006600E701C383898
:100890001CF00FE0070000000060066006C0038047
:1008A00001F81FF81F8001C0036006600680018008
:1008B0000180018001F81FF81F8001800180018004
:1008C000010000000000660076003E001E000000EF
:1008D0000000000000000000000000800180018096
:1008E00001800180018001800100000000003000D3
:1008F00078007800300000000000000000001800C0
:100900001C000E00078003C001E0007000380018D2
:100910000000000000F81FFC3F0E70066006600E2D
:1009200070FC3FF81F0000000018601C60FE7FFE96
:100930007F00600060000000000000000018781CCC
:100940007C0E6E06678663CE61FC607860000000F6
:100950000006600660866186618661CE73FC3F7822
:100960001E000000008007C007E006700638061C65
:1009700006FE7FFE7F000000007E187E38667066EF
:10098000606660E670C63F861F00000000F81FFC2E
:100990003F8E71866186618E731C3F181E000000B9
:1009A0000006000600867FC67FE60076003E001E39
:1009B0000000000000781EFC3FCE7386618661CE89
:1009C00073FC3F781E000000007800FC00CE6186BA
:1009D000718639CE1DFC0FF80700000000300C783E
:1009E0001E781E300C000000000000000000000017
:1009F0000030667876783E301E000000000000006F
:100A000000000000008001C003E007700E381C1CCD
:100A1000380E70066060066006600660066006605C
:100A200006600660066006600606600E701C3838B8
:100A30001C700EE007C00380010000000018001CBD
:100A4000000E000600066606678603CE01FC0078ED
:100A5000007800FC00CE0186018601CE01FC007802
:100A60000000000000E07FF07FB8019C018E018E45
:100A7000019C01B801F07FE07FFE7FFE7F866186EA
:100A800061866186618661CE73FC3F781EF81FFC2B
:100A90003F0E7006600660066006600E701C381817
:100AA00018FE7FFE7F0660066006600E701C3838F8
:100AB0001CF00FE007FE7FFE7F86618661866186FF
:100AC000618661866106600660FE7FFE7F86018624
:100AD00001860186018601860106000600F81FFCDA
:100AE0003F0E7006608661866186618E719C7F987C
:100AF0003FFE7FFE7F8001800180018001800180B8
:100B000001FE7FFE7F0000000006600660FE7FFEA3
:100B10007F066006600000000000180038007000CA
:100B20006006600670FE3FFE1F06000600FE7FFEA8
:100B30007F8001C003E007700E381C1C380E700661
:100B400060FE7FFE7F00600060006000600060006B
:100B50006000600060FE7FFE7F1C003800F001F046
:100B60000138001C00FE7FFE7FFE7FFE7F7000E0EC
:100B700000C00180030007000EFE7FFE7FF81FFC0F
:100B80003F0E7006600660066006600E70FC3FF85F
:100B90001FFE7FFE7F86018601860186018601CECB
:100BA00001FC007800F81FFC3F0E70066006660628
:100BB0006E063C0E38FC7FF867FE7FFE7F8601865E
:100BC000018607860F861DCE39FC7078607818FC88
:100BD00038CE7186618661866186618E731C3F188E
:100BE0001E0600060006000600FE7FFE7F060006C9
:100BF0000006000600FE1FFE3F007000600060005F
:100C00006000600070FE3FFE1FFE07FE0F001C002C
:100C100038007000700038001CFE0FFE07FE1FFE3B
:100C20003F00700070003E003E00700070FE3FFE0E
:100C30001F1E783E7C700EE007C003C003E0077003
:100C40000E3E7C1E787E00FE00C0018003007F0007
:100C50007F8003C001FE007E000678067C066E06DB
:100C6000678663C661E66076603E601E60000000D5
:100C700000FE7FFE7F0660066006600660000000E2
:100C800000180038007000E000C001800300070079
:100C90000E001C00180000000006600660066006DA
:100CA00060FE7FFE7F000000006000700038001CC6
:100CB000000E000E001C0038007000600000600094
:100CC0006000600060006000600060006000600024
:100CD000600000000006000E001C0038007000607C
:100CE00000000000000018003C607E6066606660E6
:100CF000666066E066C07F807FFE7FFE7F8061C0A9
:100D000061E06060606060E070C03F801F801FC075
:100D10003FE070606060606060606060700038003C
:100D200018801FC03FE07060606060E060C061805C
:100D300061FE7FFE7F801FC03FE076606660666078
:100D4000666066E066C007800780018001F87FFC6E
:100D50007F8E01860106000E001C001800E001F0E5
:100D600003386718661866186618661876F83FF82C
:100D70001FFE7FFE7F8001C001E00060006000E098
:100D800000C07F807F0000000060606060E67FE65A
:100D90007F00600060000000000018003800700054
:100DA0006060606070E63FE61F00000000FE7FFEAE
:100DB0007F0006000F801FC039E0706060000000F7
:100DC000000000000006600660FE7FFE7F006000FD
:100DD0006000000000E07FE07F6000E000C007C02E
:100DE00007E000E000C07F807FE07FE07F8001C0FF
:100DF00001E00060006000E000C07F807F801FC0D5
:100E00003FE0706060606060606060E070C03F8084
:100E10001FE07FE07F60066006600660066006E017
:100E200007C00380018001C003E007600660066020
:100E300006C0078007E07FE07FE07FE07F8001C0A1
:100E400001E00060006000E000C00180018061C03E
:100E500063E0676066606660666066607E003C00B6
:100E60001860006000FE1FFE3F6070606000600060
:100E70007000380018E01FE03F0070006000600064
:100E80007000380018E07FE07FE007E00F001C00F2
:100E900038007000700038001CE00FE007E01FE031
:100EA0003F007000700038003800700070E03FE0D4
:100EB0001F6060E070C039801F000F000F801FC0EE
:100EC00039E0706060E001E00300670066006600E2
:100ED0006600660076E03FE01F60606070607860EA
:100EE0007C606E6067E063E061E06060600000006D
:100EF000008001C003781E7C3E0E7006600000007A
:100F0000000000000000000000FE7FFE7F000000E7
:100F100000000000000000000006600E707C3E78BB
:100F20001EC003800100000000800180018001805C
:100F3000011818381CF00FE007C00380018001C0C1
:100F400003E007F00F381C18188001800180018031
:100F500001434F55524245004D454E5553204F5683
:100F60004552464C4F5700446570617373656D651B
:100F70006E7420454550524F4D00546F756368653F
:100F800020706F757220636F6E74696E7565720084
:100F9000444542554700746D72314C6174206D6157
:100FA0007804757300746D72314C6174206D696ED4
:100FB00004757300746D7231204A6974746572042B
:100FC000757300746D61696E206D6178066D7300D4
:100FD0004672656520537461636B206D696E0462AF
:100FE000005B4D454E555D706F757220726573657F
:100FF0007400535441545300544D310D544D32003C
:101000005448520D54482500544F5400414C455209
:101010005445000102030401030204040203010415
:1010200003020142616420454570726F6D20446186
:101030007461004D45535341474500466F726D61E1
:10104000747461676520454550524F4D00454550C9
:10105000524F4D206C6F77206D656D0047617A208F
:101060007061732061207A65726F005265696E69E4
:101070007469616C6973657A206C6500546F75637F
:10108000686520706F75722069676E6F7265720097
:10109000537769746368657320656E636C656E630E
:1010A000686573005265696E697469616C6973651E
:1010B0007A206C657300416C61726D6573204465C4
:1010C0007361637469766565730063005056004D03
:1010D0004F44454C450050504D004348005B4D4542
:1010E0004E555D045B515549545D009C1432465A7F
:1010F0005A4632465AECEC003C649CC4003C649C6A
:10110000000000644D6178206578706F7320617411
:101110007465696E7421004D6178206D697861672E
:1011200065732061747465696E74210003010200A7
:10113000040506075F2D2E2C001B1E272D36394B6C
:101140004E636C7278878D939CB1B4C6C9D2D8E1D6
:10115000E400290202000000000006020153455489
:101160005550004E6F6D004368726F6E6F00452ED4
:101170004C696D6974657300452E5472696D730016
:101180005472696D20496E6300542D547261636519
:1011900000542D5472696D004269702043747200CE
:1011A00050726F746F00750050504D206672616D03
:1011B00065006D730052784E756D00250003005078
:1011C0004841534520444520564F4C005472696DA8
:1011D00073004661646520496E0046616465204F76
:1011E00075740000030303030303030303030303F2
:1011F00003030303004C494D49544553005472699D
:101200006D73203D3E204F66667365747300A74D75
:1012100047445F5A8459635B675B90495013A553F9
:10122000B5542B4D034F46464F4E20032D2D2D49CF
:101230004E56043443482036434820384348203132
:10124000304348313243483134434831364348060D
:10125000517569657420416C61726D734E6F4B6599
:101260007920546F75742020067853686F72745318
:10127000686F7274204E6F726D616C4C6F6E672078
:1012800020784C6F6E67200453494E474F534D50A2
:1012900046494C5404426173204F464620486175CC
:1012A00074036F6666202B3D203A3D03636831630B
:1012B00068326368336368340645787020202045BF
:1012C0007846696E2046696E2020204D6F79656EE4
:1012D0002047726F7320200152455441313233054B
:1012E00050504D0020505858002044534D3200506B
:1012F000504D3136465554002003504F534E45470C
:10130000032D2D2D783E30783C307C787C663E3045
:10131000663C307C667C0545444954205052534518
:1013200054412E47415A06526174696F20457870C6
:101330006F2020436F757262655068617365204944
:101340006E746572204D6F6465202020202020205F
:101350002008416A6F75746572204D756C746970F0
:101360006C7952656D706C616365022B3D2A3D3A64
:101370003D064F4E202020204F46462020204F661D
:1013800066736574072D2D2D2D002020763E6F6627
:10139000732020763C6F667320207C767C3E6F66DF
:1013A000737C767C3C6F6673414E44202020204F36
:1013B000522020202020584F522020202076313DDE
:1013C0003D7632207631213D76322076313E7632BE
:1013D000202076313C7632202076313E3D76322018
:1013E00076313C3D7632200D5365637572697465C4
:1013F000200020202045636F6C616765200020205D
:1014000020205472696D20696E7374616E74204A75
:101410006F75657220736F6E0020202052657365B2
:101420007400202020202020200654696D65723130
:1014300054696D657232416C6C20202054656C6576
:101440006D2E065761726E31205761726E322043E5
:10145000686565702052696E67202053636946692C
:1014600020526F626F742043686972702054616407
:10147000612020437269636B74536972656E204109
:101480006C6D436C6B5261746174615469636B2061
:1014900020486170746331486170746332486170D0
:1014A000746333042D2D2D00413100204132002082
:1014B000416C740052706D004675656C743100208B
:1014C00074320020537064004469737443656C6C1B
:1014D0005478002052780020416363584163635977
:1014E0004163635A48646700565370646131002059
:1014F00061320020414C540052504D0054310020C4
:10150000543200205350440044495354546D7231B6
:10151000546D72324143430054696D650F537570C9
:101520007072204D69786167657300003420566FD2
:101530006965732073696D706C6500436F757075B4
:1015400072652047617A20202000456D70656E6EBF
:10155000616765205620202000456C65766F6E5CC3
:1015600044656C7461202000654343504D20202069
:1015700020202020202000436F6E662E2048656CBE
:1015800069636F202000536572766F205465737411
:101590002020202000042D2D2D203132302031320A
:1015A0003058313430203930202005204D656E759B
:1015B0002045786974202042617320486175744425
:1015C000726F697447617563680347415A444952B1
:1015D00050524649443049443149443241494C47CC
:1015E000454154524E535731535732535733535743
:1015F0003453573553573653573753573853573952
:101600005357415357425357430444697220507211
:10161000662047617A2041696C2050312020503289
:101620002020503320204D41582033504F534359F0
:1016300043314359433243594333034F46464142B2
:1016400053475A73475A25475A74074C50342F4C06
:10165000503544534D6F6E6C7944534D58202020C3
:1016600000A855C74B04143914DA149A15408008A1
:10167000042010020153454C4D4F44450053555032
:101680005052494D4552204D4F44454C4500436F03
:101690007069652E2E2E004465706C6163656D6502
:1016A0006E742E2E2E004368617267656D656E74D0
:1016B0002E2E2E006C6962726500474142415249EC
:1016C00054530000020202020045434F4C4147457B
:1016D000004573636C617665006D6F64650325205A
:1016E000737263004D756C7469706C696575720016
:1016F00043616C004D6F6465005357000002494E12
:10170000544552532050455253000002494E54450F
:10171000525320464F4E4354494F4E530000000051
:1017200000000000000000000000000000000000B9
:1017300000FF01434F4E46494720524144494F0064
:10174000537065616B6572204D6F64650053706501
:10175000616B6572204C656E6774680053706561DB
:101760006B657220506974636800436F6E747261B8
:1017700073746500416C61726D65204261747465BB
:1017800072696500416C61726D6520496E616374B8
:1017900069766974650046696C74726520414443DA
:1017A00000496E76657273696F6E2047617A0042F8
:1017B000697020742E6D696E75746573004269706E
:1017C0002061207265626F75727300466C61736888
:1017D000207175616E642062697000496E74657273
:1017E0002065636C6169726167650045636C61695E
:1017F000722E206F66662061707265730045637299
:10180000616E2064276163637565696C00416C6576
:101810007274652047617A00416C65727465204975
:101820006E74657200416C65727465204D656D6FF4
:1018300069726500416C6572746520416C61726DFE
:1018400065004F7264726520566F69657320527827
:1018500000496E7465720044522F4558504F00493C
:101860004E5345524552204D495841474520004569
:101870004449544552204D49584147452000536F33
:101880007572636500526174696F004469666665CC
:1018900072004F6666736574005472696D00436F21
:1018A0007572626500502E566F6C00416C657274E3
:1018B00065004F4646004D756C7470780052657433
:1018C00061726420426173005265746172642048E1
:1018D0006175740052616C656E746972204861753F
:1018E000740052616C656E746972204261730050BD
:1018F000484153455320444520564F4C00286465C9
:101900006661757429005665726966055472696D61
:101910007300434F4E462E48454C4900547970653C
:1019200020646520506C617465617500436F6C6C58
:1019300065637469660053776173682052696E67E6
:1019400000446972656374696F6E205052460044AA
:101950006972656374696F6E2041494C0044697215
:10196000656374696F6E20434F4C000096691124C3
:101970001FBECFEFD0E1DEBFCDBF11E0A0E0B1E0F0
:10198000E2E1F5ED02C005900D92AE31B107D9F755
:101990001DE0AEE1B1E001C01D92A734B107E1F74F
:1019A00019E1CEE6D9E104C02297FE010E94466A01
:1019B000CC36D107C9F70E944C600C94876A0C940E
:1019C00000000F93CF93C82F362F80911E018823DC
:1019D00039F0CC2329F09091B406965F9C0F01C09A
:1019E00090E090931A0D9091B3069295990F907E86
:1019F0009595959595959595959597FF0BC0832F02
:101A000061E070E0691B710997FD739590E00E9499
:101A1000F26906C0632F992319F0939F600D11247A
:101A200060931C0D40931D0D10921B0D8091180D9D
:101A30008093190D222331F0215000E0632F8C2F69
:101A40000E945D38CF910F9108950F93E82F862F54
:101A50009091A9069871983059F0911103C0E63021
:101A600038F402C0903131F091E0E33020F002C050
:101A700091E001C090E090931E01E43108F420C190
:101A80002091180D9091190D291322C119C100E060
:101A900022E028C09091180D8091190D981318C15B
:101AA00001E022E043E064E18CE30E945D380FEF47
:101AB00022E043E064E1D8C001E020E041E068E2D8
:101AC00086E40E94E10C04C101E020E041E06AE00C
:101AD0008BE4F7CF01E020E041E06AE081E4F1CF60
:101AE00001E020E042E008C000E020E041E066E0E4
:101AF000E8CF01E020E041E06AE0E2CF01E020E051
:101B000041E03BC001E020E041E06EE1D9CF00E0E0
:101B100020E045E06AE082E30E945D3820E045E095
:101B20006AE08AE50E945D3822E044E065E08AC010
:101B300000E020E041E06AE01BC001E020E040E07E
:101B400066E016C001E020E040E066E08AE7B9CF39
:101B500001E020E040E066E08CE7B3CF01E023E065
:101B600005C001E022E002C001E021E043E06FE0B7
:101B700088E7A7CF01E021E049E164E1A1CF00E0DF
:101B800022E045E06FE08AE598C000E022E045E011
:101B90006FE004C002E022E042E06AE084E68DC02B
:101BA00000E02AE042E065E08FE50E945D3821E038
:101BB0004AE065E08FE50E945D382AE042E065E09A
:101BC0008FE57BC00FEF22E043E06AE080E50E94F2
:101BD0005D3801E022E043E06AE08CE30E945D387A
:101BE00000E020E041E06AE05DC000E021E041E08B
:101BF00065E086E40E945D3821E042E06FE082E328
:101C00000E945D3821E042E06FE02EC000E022E05B
:101C100041E065E08EE60E945D3823E041E065E04A
:101C20008CE74BC000E020E045E065E082E30E94E5
:101C30005D3820E045E065E08AE50E945D3822E0FD
:101C400044E063E08EE639C000E023E04AE065E06E
:101C500080E50E945D3821E044E165E080E50E9476
:101C60005D3823E04AE065E080E527C001E022E03E
:101C700045E064E18AE021C000E022E04AE064E05F
:101C800082E30E945D3821E044E168E086E40E943E
:101C90005D3822E04AE068E082E30E945D3821E09E
:101CA00044E164E086E409C000E02AE04AE003C0C1
:101CB00000E022E042E365E088E70E945D3808C06A
:101CC000F0E0E132F10520F4EA5BFF4F0C94446A46
:101CD0000F910895AF92BF92CF92DF92EF92FF9251
:101CE0000F931F93CF93DF93E12C0FEF27E147E191
:101CF00061E28FE10E941C2027E147E161E28BE471
:101D00000E941C2043E06BE28AE20E94CA1F43E06B
:101D10006CE289E20E94F13443E06BE286E50E94C6
:101D2000CA1F43E06CE285E50E94F134209146022F
:101D300084E0289F90011124F901EC5EFF4EE491AC
:101D4000AE2FB0E0AA0FBB1FA852BD4F8D919C9142
:101D50004091AC0640FF03C0E33009F4B8C0F9017C
:101D6000ED5EFF4EE49122E1289FB001299F700DA6
:101D7000112477FF02C06150784F60E27602612D36
:101D8000770B1124719561957109665DF0E0EE0F96
:101D9000FF1FE852FD4F2081318142E1429FC00187
:101DA000439F900D112497FF02C08150984F80E20D
:101DB0009802812D990B1124D8E0ED2E0FEF25E02C
:101DC00045E0885D0E941C202091460230E0F90128
:101DD000EE0FFF1FEE0FFF1FEB5EFF4EE491AE2FE5
:101DE000B0E0AA0FBB1FA852BD4F8D919C914091AE
:101DF000AC0640FF03C0E33009F46DC0F901EE0FFB
:101E0000FF1FEE0FFF1FEA5EFF4EE49122E1289FC5
:101E1000B001299F700D112477FF02C06150784FE7
:101E200060E27602612D770B11247195619571093D
:101E3000665DF0E0EE0FFF1FE852FD4F208131811B
:101E400042E1429FC001439F900D112497FF02C0C1
:101E50008150984F80E29802812D990B112438E02F
:101E6000E32E0FEF25E045E08C5A0E941C20C2EEC5
:101E7000D2E01AE3C12C48E0D42EE12CF12C57E338
:101E8000A52EA991B99126E130E00E94B369785A54
:101E90008F4F9F4FA70196010E94286AB22EB394DC
:101EA0000A2D021B4B2D602F812F0E94CA1F4B2D24
:101EB000602F812F8F5F0E94CA1F4B2D602F812FB3
:101EC0008E5F0E94CA1F1B5F1934D9F608C0919516
:101ED0008195910944CF9195819591098FCFDF919B
:101EE000CF911F910F91FF90EF90DF90CF90BF9017
:101EF000AF9008952F923F924F925F926F927F9290
:101F00008F929F92AF92BF92CF92DF92EF92FF9209
:101F10000F931F93CF93DF9300D000D0CDB7DEB7E0
:101F20009A01AB01482E512C65E0869FC001112417
:101F30008E579C4FFC01E95CFE4F60817181FC0172
:101F4000EB5CFE4F0081EAE00E0280011124085193
:101F50001C4FFC01EC5CFE4F8081FAE08F023001E7
:101F6000112488EE681A83E0780A902F812F601779
:101F7000710714F4962F872F292E382E2614370434
:101F80000CF41301211531054105510539F16101A9
:101F9000EE24D7FCE094FE2C121613061406150648
:101FA00054F4B801882777FD8095982F6C197D0926
:101FB0008E099F090BC04301AA2497FCA094BA2C58
:101FC000C701B601681979098A099B090E94C2698B
:101FD00020EA36E841E050E00E94286AC1012983E6
:101FE0003A834B835C830E9430446C01EE24D7FC1F
:101FF000E094FE2C29813A814B815C81C20ED31E74
:10200000E41EF51EC8010E9430448C01C3010E94E9
:102010003044A801662757FD6095762F4C155D0565
:102020006E057F0514F46A017B01AA2797FDA09530
:10203000BA2FC816D906EA06FB0614F46C017D0116
:1020400085E0849DF001859DF00D1124E854FB4F3F
:102050008081882319F0D194C194D108F201EA5CFF
:10206000FD4F8081803891F099E28902600111244E
:10207000D594C794D594C79487FD815C86FB880F5F
:10208000880B80F9C81AD10887FDD394C6010F9038
:102090000F900F900F90DF91CF911F910F91FF90B4
:1020A000EF90DF90CF90BF90AF909F908F907F90F8
:1020B0006F905F904F903F902F9008952F923F9296
:1020C0004F925F926F927F928F929F92AF92BF9248
:1020D000CF92DF92EF92FF920F931F93CF93DF93F4
:1020E00000D000D000D0CDB7DEB78C83E0910406DD
:1020F000EE23B1F1A091DC02B091DD024091E0024B
:102100005091E1029D010E949F696B017C019A013F
:10211000DA010E949F69C60ED71EE81EF91E6E2FB7
:1021200070E080E090E01AE0660F771F881F991F2B
:102130001A95D1F724E630E040E050E00E94286A8A
:10214000CA01B9010E94C2696C157D058E059F0503
:1021500038F4C701B6010E94AF3D9E838D8302C053
:102160001E821D822D813E81A4E6B0E00E94A769F7
:102170006B017C0187E696E09A838983612C712C40
:102180001B82B2E38B2E912CA12CB12C862D843096
:1021900068F490914602F301A4E09A9FE00DF11DCE
:1021A0001124ED5EFF4E54905A9401C0562C0E94AB
:1021B000613E9C01E981FA8181919191FA83E983E1
:1021C000281B390BB901882777FD8095982FAAE045
:1021D000660F771F881F991FAA95D1F7121613064D
:1021E0001CF4028D138D06C0A981BA811C960D9135
:1021F0001C911D970436110514F404E610E09801B3
:10220000442737FD4095542F0E94286A89012115E3
:10221000BCEF3B072CF02130E4E03E0724F405C07E
:1022200000E01CEF02C000E014E08091AC0680FFEB
:1022300006C0F2E05F1203C0119501951109252C2B
:10224000312CF101EE0FFF1FE652FD4F1183008389
:10225000C80117FF04C088279927801B910B54E001
:10226000969587955A95E1F78230B0F4811107C0B1
:1022700091E0022C01C0990F0A94EAF70AC081E0AC
:1022800090E0022C01C0880F0A94EAF79091320185
:1022900098232B81292B2B8383E0851508F470C0AC
:1022A00080913102811148C0452D4F5E50E0405170
:1022B0005109A1E0B0E002C0AA0FBB1F4A95E2F7A6
:1022C000AD0141608091320290913302482359233D
:1022D000452B09F0B5C030C0A42DAF73B0E0CD01DF
:1022E000880F991F8253934FAD01440F551F4856D5
:1022F000594FDC012D913C91DA018D919C91281B65
:10230000390BA181BB27A7FDB0950E949F69A5014C
:1023100094010E94286A42944694469443E04422E1
:10232000842D90E08130910519F0029729F403C0C3
:10233000020F131F01C08901ED81FE81EF2BC9F04F
:10234000F1E05F1619F023E0521213C02091040649
:1023500030E0D8010E94B369BAE0660F771F881F8A
:10236000991FBA95D1F7A70196010E94286A022FFA
:10237000132FF101EE0FFF1FE75DFD4F1183008367
:102380008FEF681A780A97E06916710409F0FECE9B
:102390006C8189E292E00E944243009192030870AE
:1023A0006090AC06A1E06A2220E034E080912D022A
:1023B00090912E02281B390B6901EE24D7FCE09482
:1023C000FE2C70905002E1E22E2EE2E03E2E10E054
:1023D000812CF8E09F2EA12CB12C612F8C810E94C2
:1023E000B53F2C011230F9F40023E9F0662019F012
:1023F0005194419451089201442737FD4095542F40
:1024000023583F4F4F4F5F4FC701B6010E94C2692B
:10241000A50194010E94286A2115B8E03B074105F7
:10242000510521F402C0711016C09201220F331F12
:10243000F101219331931F011F5F143071F60EC01B
:10244000F101EE0FFF1FE056F94F4080842D807C94
:1024500009F042CF71CF412C512CE7CF8B812696CA
:102460000FB6F894DEBF0FBECDBFDF91CF911F91A5
:102470000F91FF90EF90DF90CF90BF90AF909F9023
:102480008F907F906F905F904F903F902F90089526
:10249000FF920F931F93CF93DF93F62E1091170D9A
:1024A000882309F44AC0812F0E94CA3EEC01012F03
:1024B000FF2011F0015001C00F5F188107FF09C014
:1024C000812F8C7009F46FC0812F869586958D5F62
:1024D0000BC00E3071F4812F8C708C3009F463C006
:1024E000812F869586958F5F8370880F880F137F65
:1024F0004FC0802F0E94CA3EBC01FC01808118277A
:102500001C7011F48370B9F49881892F8695869593
:102510008370FF2029F0882309F445C08D5F04C033
:10252000833009F440C08F5F8370880F880F937FDA
:10253000982B98832FC044E030C0812F0E94C23E68
:10254000EC01012FFF2011F0015001C00F5F188135
:1025500007FF03C0812F8F7012C0003219F4812F42
:102560008F7011C0802F0E94C23EBC01FC0180818F
:1025700081278F7089F0812F8F70FF2021F08823B1
:1025800091F0815F03C08F3071F08F5F8F70107F8B
:10259000182B1883C1E009C049E0CE010E948A3D92
:1025A0000093170DF7CFC0E003C082E00E94843D86
:1025B0008C2FDF91CF911F910F91FF9008959AE09A
:1025C000E5E4FCE0DF011D929A95E9F7803118F00F
:1025D00020E030E019C08F5F0E941B346AE070E099
:1025E00085E49CE00E9425340A9791F78091E902E6
:1025F00090E0FC01EE0FFF1FE80FF91FEB5FF34FB8
:1026000020818181382F3F70C901089580E00E94A8
:102610001B3461E070E086E696E00E942534019765
:1026200009F00FC0809166068D3C59F40CC00E94E1
:10263000AC3E41E02091910630919206281739076F
:1026400079F040E00DC080E00E941B346FE470E040
:1026500086E696E00E9425348035910540F3F1CF5F
:10266000842F08951F93CF93DF9300D0CDB7DEB7AB
:10267000182F81E14A8369830E941B341092380C21
:1026800069816295607F6093390C1093E9024A81F9
:102690004093400C0F900F90DF91CF911F910895C0
:1026A0006F927F928F929F92AF92BF92CF92DF9262
:1026B000EF92FF920F931F93CF93DF93C82F00E108
:1026C0002BE04EE052E167E00E94B84B882309F40A
:1026D0008CC022E041E355E060E080E00E94CC2124
:1026E000C0903502CA94C03611F0C43641F4C7FC1C
:1026F00006C0C092160D81E191E30E94212DA12C0C
:10270000912CBB24B39418E0DD24C7FCD09495E051
:10271000892E29E0722E2091C80C2A0DE22EF12C70
:10272000CE14DF0411F402E001C000E066246394DB
:10273000283028F4612C87E08B1528F44FC0E6E0A0
:10274000EB1508F44BC0911001C0902E2F5F49E3A8
:1027500055E0612F80E00E944C36662059F0F8E089
:10276000EF1AF1087E9CE0017F9CD00D1124CA591C
:10277000DA4F07C08E9CE0018F9CD00D1124C25C03
:10278000DA4F7E010CE2F70141917F01552747FDA9
:10279000509520E0612F802F0E9464370B5E053931
:1027A00091F788E0F82EF10E611003C0B3941F2D4D
:1027B00011C025960CE24991552747FD509520E020
:1027C0006F2D802F0E9464370B5E0038A1F7105FD9
:1027D000B394B394A394F7E0AF129DCF911005C0CA
:1027E0008091C80C8F5F8093C80CDF91CF911F91AF
:1027F0000F91FF90EF90DF90CF90BF90AF909F90A0
:102800008F907F906F9008950F9300E026E041E64F
:1028100056E162E00E94B84B882349F122E04CE384
:1028200055E060E080E00E94CC2164E475E080E146
:102830000E94D32162E575E088E10E94D32164E61D
:1028400075E080E20E94D32165E775E088E20E948E
:10285000D32164E875E088E30E94D32140916606A5
:1028600020E850E068E380E30F910C9464370F9107
:102870000895CF92DF92EF92FF920F931F93CF9321
:10288000DF931F92CDB7DEB700E026E041E656E1C8
:1028900063E00E94B84B882309F482C022E04DE82F
:1028A00055E060E080E00E94CC214EE0C42ED12CA7
:1028B00010E04C2D8C2D8E50012F843008F00850E4
:1028C000C60149830E94F53FF82E49814D5020E012
:1028D000602F80E30E94EA21FF2011F022E001C076
:1028E00020E04F2D405D602F84E40E94BA20185FE5
:1028F0008FEFC81AD80A1834E1F618E3C12CD12C8E
:10290000C6010E94F53FF82E00E02C2D4AEA55E161
:10291000612F80E00E94DC214F2D405D2F2D612F23
:1029200080E20E94BA20EFEFCE1ADE0A185018306B
:1029300039F742E955E068E184E50E94D92136E0A3
:10294000C32ED12C10E2202F48ED54E0612F84E5F6
:102950000E949634C6010E94F53FE82EC6010196FA
:102960000E94F53FF82EEE2011F022E001C020E099
:102970004E2D405D612F8CE60E94BA20FF2011F0A1
:1029800022E001C020E04F2D405D612F88E70E94CA
:10299000BA200F5F185FF2E0CF0ED11C043099F619
:1029A0000F90DF91CF911F910F91FF90EF90DF90EB
:1029B000CF9008956F927F928F929F92AF92BF9225
:1029C000CF92DF92EF92FF920F931F93CF93DF93FB
:1029D0001F92CDB7DEB7982E01E026E041E656E122
:1029E00064E00E94B84B882309F494C022E04AE9CD
:1029F00055E060E080E00E94CC216AED662E62E046
:102A0000762EB12C812CC12C74E0D72EE12CF12C28
:102A1000A82CA39400E02A2D4EE955E06B2D88E107
:102A20000E944C36882D0E94613E8C0194E49550A2
:102A3000A8014F7055274A302CF0495C41341CF0F6
:102A400028E002C0405D20E06B2D892F99830E9411
:102A5000BA2054E0169507955A95E1F7998190337D
:102A600031F747E0841689F0F301A081B18124E6B3
:102A700030E00E94B369A70196010E94286A422FA4
:102A80006B2D86E60E94B0370FC0809135028130F1
:102A900011F422E001C020E040914E0250914F021B
:102AA0006B2D86E60E946A37F8E0BF0E42E0640EA6
:102AB000711C8A2CAF12ACCF40EA55E068E282E785
:102AC0000E94D921409147025091480220E060E3E2
:102AD0008EE70E94643787E00E94613E23E2FC019A
:102AE0002E9FC0012F9F900D1124492F469520E263
:102AF00050E068E38EE70E946437809135028130B0
:102B000049F42FE741E860919606892D0E94E13251
:102B1000809396060F90DF91CF911F910F91FF90B8
:102B2000EF90DF90CF90BF90AF909F908F907F906D
:102B30006F900895DF92EF92FF920F931F93CF93C0
:102B4000DF93F82E00E026E041E656E165E00E94C2
:102B5000B84B882309F4D4C022E043EA55E060E092
:102B600080E00E94CC21C3E5DCE010E0812F0E94D0
:102B7000613E9C0148815981841795070CF4AC0192
:102B8000499359934C855D85421753070CF4A9016D
:102B90005D874C871F5F173049F7C0912201C093B2
:102BA0001F0180E2F81621F08FEBF8120CC009C06B
:102BB0008C2F8F5F80932201833029F481E00E9463
:102BC000843D1092220180912201813061F020F039
:102BD000823009F08CC02FC04FEA55E068E182E1F5
:102BE0000E94D92184C0CC2311F022E001C020E052
:102BF00040EC55E060E18EE10E94CC214BEC55E0C9
:102C000068E182E10E94D921C5E4DCE0D12C18E919
:102C1000E12E1AE3F12E08E615ECFF86EE861D8FF5
:102C20000C8F8D2D0E94613E89939993D39487E0F8
:102C3000D812F3CF5CC0CC2311F022E001C020E019
:102C40004CED55E060E182E10E94CC214BEC55E077
:102C500068E182E10E94D921E3E5FCE0A7E6B6E065
:102C600061917191848595859B01281B390B37FFF4
:102C700003C03195219531092333310564F1EF010A
:102C800060974881598111965C934E939A01261B57
:102C9000370BB90137FF02C0615C7F4FD6E07595F5
:102CA0006795DA95E1F7261B370B1F963C932E9319
:102CB0001E97841B950B9C0197FF02C0215C3F4F20
:102CC000C6E035952795CA95E1F7821B930B5D9673
:102CD0009C938E935C9712968CE0E136F80709F08E
:102CE000BFCF0E94AC3E9093920680939106DF91F5
:102CF000CF911F910F91FF90EF90DF900C946A0E8F
:102D0000DF91CF911F910F91FF90EF90DF90089589
:102D10002F923F924F925F926F927F928F929F92EB
:102D2000AF92BF92CF92DF92EF92FF920F931F93D9
:102D3000CF93DF9300D01F92CDB7DEB7382E6983D3
:102D40008091CA0C9091CB0C892B11F0712C01C091
:102D50007980172D1F718091C70CF72C882319F0EB
:102D6000113009F4FA94332019F047E558E102C014
:102D700042E255E022E060E080E00E94CC21832D19
:102D80000E94D23E9091140D20E0482F50E060E068
:102D9000892F815F0E946437332019F049E255E0A2
:102DA00002C04DE255E060E08091140D0E94D921EF
:102DB000009100010150332011F064E001C065E092
:102DC0002BE04EE052E18F2D0E94B84B882309F48E
:102DD00052C44090350223E6271598F082E6781613
:102DE00008F009C1A1E27A1689F1A71520F0B0E236
:102DF0007B124AC155C0872D8254823008F044C1ED
:102E0000FAC0E5E8E71560F0F4E87F1608F0A1C025
:102E100020E8721609F472C081E8781235C106C044
:102E2000872D8E5B823008F02FC16FC08091C70C58
:102E3000882349F08091C60C811105C06091170D5F
:102E4000832D0E947B1B81E80E94501E8091C60C3E
:102E5000882309F45AC08091C70C813031F4609105
:102E6000170D832D0E947B1B16C061E08091C60C5C
:102E700018160CF060E0832D0E9448128091C60C59
:102E800087FF02C08F5F01C081508093C60C809184
:102E9000C60C8111EACF4090C50C4092350235C076
:102EA0008091150D882341F08091C70C882331F162
:102EB0008091C60C811122C08091C70C813011F421
:102EC00082E001C081E08093C70C8091170D809350
:102ED0002001332041F00E94CA3EDC018C9186958E
:102EE0008695837005C00E94C23EFC0180818F7070
:102EF0008F5F809321014092C50CC6C0872D0E9430
:102F0000501E8091C60C882329F01092C70C109295
:102F1000C60CBAC08091C70C81111092150D80911A
:102F2000150D882351F0832D0E94F43E8111ACC011
:102F30006091170D832D0E94301C332019F085E716
:102F40009BE502C08CE59DE50E94212D1092C70CE7
:102F500092C38091C70C882309F496C08091C60C57
:102F6000811192C0832D0E94F43E81118DC0809109
:102F7000170D332041F00E94CA3EDC018C918695EA
:102F80008695837005C00E94C23EFC0180818F70CF
:102F90008F5F8093150DF4E87F1205C08091170DA7
:102FA0008F5F8093170D6091170D832D0E94301C49
:102FB000332019F085E79BE502C08CE59DE50E9472
:102FC000212D1092C70C872D0F900F900F90DF913D
:102FD000CF911F910F91FF90EF90DF90CF90BF9016
:102FE000AF909F908F907F906F905F904F903F90A9
:102FF0002F900C94501E8091C70C882309F444C074
:103000009091C60C092F133011F4015001C00F5FCD
:1030100091111FC0813071F5832D0E94F43E811102
:1030200033C06091170D832D0E942260123021F46D
:103030008091170D8F5F1BC08091C80C242D30E04C
:10304000281B310926303105ECF08F5F8093C80CC6
:1030500019C001110FC0813069F46091170D832DE3
:103060000E947B1B133071F48091170D8150809367
:10307000170D08C061E0133009F060E0832D0E9455
:10308000481281110093C60C1092150D55245394CB
:10309000212C11E0A9C22DE0221508F4D0C2822D06
:1030A0000E94CA3E4C01DC012C91822F86958695A8
:1030B000837090E001968A159B0509F0C0C22370C9
:1030C00009F0C2C2BCC2BFE1B21508F4B8C2822D79
:1030D0000E94C23E6C01FC0186818F7709F4AFC269
:1030E00080818F7090E001968A159B0509F0A7C238
:1030F000AEC2212F30E0281B31092830310574F48D
:10310000622F660F660F660F20E0452D80E03320AA
:1031100019F00E94DA3602C00E940937622C03C0FF
:103120004C016F01142F8091C70C8823E1F182308C
:1031300081F58091C80C811760F5E12FF0E0E81B64
:10314000F109E830F1052CF580912101851121C0AC
:103150002091C60C2223E9F0862D90E040912001B9
:10316000332727FD30952227330F221F3327240FC3
:10317000311D8217930769F46E2F660F660F660F75
:103180006150E12C05E529E04AE686E10E941C2019
:103190001F5F8091170D86110BC01093350250925E
:1031A000150D412E05C0411203C06092170D142D5C
:1031B0008091C80C811708F06FC1212F30E0281BC7
:1031C0003109283031050CF067C1F22EFF0CFF0CDD
:1031D000FF0C862D332009F4B1C00E94CA3E9B83A8
:1031E0008A838091C70C811102C0411611F000E062
:1031F00001C002E0AA81BB8112964C914695202F16
:1032000050E06F2D82E20E946437002399F0EA813A
:10321000FB816281669524E640E0872D0E940231A1
:10322000880FAA81BB8112969C9112979170982B5E
:1032300012969C93AA81BB811396EC914E2F552731
:1032400047FD509520E06F2D87E30E946437EA81A7
:10325000FB818281418142954695477080FD419571
:1032600020E06F2D8CE30E949936AA81BB811196D4
:103270004C91440F440F440F45954595459520E0EA
:103280006F2D82E50E94EA21EA81FB8180818370B3
:10329000833049F0823011F44EE701C04FE76F2DC3
:1032A00086E60E94AD22AA81BB812C91822F807F6D
:1032B00079F022952F70822F90E00B9714F044E064
:1032C00001C040E0420F20E06F2D8EE60E94723672
:1032D0004091C70C442309F4DFC0413021F08091B4
:1032E000C60C811123C08091210185111FC0862D3C
:1032F00090E0509120012091C60C332727FD309596
:103300002227330F221F3327250F311D82179307E2
:1033100069F4413011F40FEF01C005E56F2D6150E4
:10332000E12C29E04EE682E10E941C201411B4C079
:1033300000E027E04CE66F2D83E1ACC00E94C23E66
:103340009B838A83621469F0FC0122812295269571
:103350002695237000E04AE653E16F2D86E00E9437
:10336000DC21AA81BB8116964C914F7720E06F2D0E
:103370008AE10E94FE368091C70C811102C041167D
:1033800011F000E001C002E0AA81BB811196EC912E
:103390004E2F552747FD5095202F6F2D89E40E9411
:1033A0006437002361F02DE743E8EA81FB81618106
:1033B000872D0E940231AA81BB8111968C93EA81EC
:1033C000FB814381842F8F7349F0440F440F45954F
:1033D000459520E06F2D8FE40E947236AA81BB8153
:1033E00012964C91842F8F7349F0440F440F4595EA
:1033F000459520E06F2D86E60E94EA21EA81FB8157
:103400008581811102C040E201C043E5AA81BB81F0
:1034100014968C91882329F0433511F44AE201C0B7
:1034200044E420E06F2D8BE70E94BA204091C70C46
:10343000442391F1413021F08091C60C811123C0C9
:103440008091210185111FC0862D90E050912001AF
:103450002091C60C332727FD30952227330F221FDA
:103460003327250F311D8217930769F4413011F47A
:103470000FEF01C005E56F2D6150E12C29E04AE610
:1034800086E10E941C20141107C000E027E048E6F6
:103490006F2D87E10E94B637412F4F5F6394F6018D
:1034A0003996C40104963320A1F0BDE0B61520F191
:1034B000D40114965C91252F26952695237030E033
:1034C0002F5F3F4F2A153B05B9F4537009F028CE02
:1034D00013C0BFE1B61580F0D6011F962C911F973F
:1034E0002F7751F019962C912F7030E02F5F3F4FBE
:1034F0002A153B0509F414CE8091C70C823009F0DF
:1035000070C08091C80C841708F06BC0E42FF0E005
:10351000E81BF109E830F1050CF063C0809121014E
:1035200085115FC0A62DB0E0809120012091C60CCE
:10353000332727FD30952227330F221F3327280FEB
:10354000311DA217B30709F04CC06E2F660F660F2E
:10355000660F6150E12C05E529E04AE686E10E940C
:103560001C20412F4E5F3DC02092170D5092150D2B
:103570008091C70C811166C022E08091C80C811730
:1035800068F5C12ED12CF601E81BF109E830F105F0
:103590002CF56E2F660F660F660F452D80E03320E9
:1035A00019F00E94DA3602C00E9409378091C70CD8
:1035B0008230A1F480912101851110C08091C80C46
:1035C000B601681B7109660F660F660F6150E12C2A
:1035D00005E529E04AE686E10E941C20412F4F5F65
:1035E000622C5394262C142FA52CB12C311037C0EB
:1035F0003CC010930001442D50E0212F30E02150B9
:103600003109421753071CF011501093350289817C
:103610000F900F900F90DF91CF911F910F91FF901E
:10362000EF90DF90CF90BF90AF909F908F907F9062
:103630006F905F904F903F902F900C9407384116F9
:1036400009F492CF20E099CFC12CD12C02C0812C5B
:10365000912C8091C80C811708F44BCD5FCDB5E05B
:10366000AB16B1040CF417CDC4CFE1E1AE16B10432
:103670000CF429CDBECF0F900F900F90DF91CF911A
:103680001F910F91FF90EF90DF90CF90BF90AF9080
:103690009F908F907F906F905F904F903F902F9072
:1036A0000895809323010895FC01808141FF02C0A9
:1036B000682B06C042FF03C06095682301C06827DD
:1036C00060830895CF93DF931F92CDB7DEB770E08C
:1036D00090E1899F600D711D112441E050E0CE0101
:1036E00001960E94776A89810F90DF91CF910895AA
:1036F0006F5F0C94621B1F93CF93DF93162F962F4F
:103700009F5F8823F1F0892F0E94CA3EEC01812F30
:103710000E94CA3E412F50E040955095425F5F4F56
:10372000440F551F440F551FBE010E94556A8DE07E
:103730000E94CA3EDC011D921D921D921C9213979D
:103740001EC0892F0E94C23EEC01812F0E94C23E02
:10375000412F50E0409550959A01205E3F4F19E06F
:10376000129FA001139F500D1124BE010E94556AA3
:103770008FE10E94C23EDC011D921A95E9F782E0BA
:10378000DF91CF911F910C94843DEF92FF920F93A4
:103790001F93CF93DF93E82E062F10E049E0F42E1D
:1037A000C82FD0E00CC02C173D0729F4612F80E012
:1037B0000E947B1B01C01F5F103208F046C0F19EC3
:1037C00090011124F901E456FC4F80818F77E9F1D3
:1037D000F901EA56FC4F20812F7030E0C217D30761
:1037E0008CF533C0612F70E039E0F32EF69E800136
:1037F000F79E100D1124E801CA56DC4F9B0120955D
:103800003095205E3F4FF29EA001F39E500D112493
:103810006F5F7F4FF69EC001F79E900D1124BE0191
:103820008A569C4F0E94556AFE011192FA94E9F75C
:103830008E2D8F709881907F982B988309C0C6E950
:10384000D3E006C00111AFCFB6CF103259F6F7CF93
:10385000CE01DF91CF911F910F91FF90EF900895CE
:10386000FF920F931F93CF93DF93062F10E08823CF
:1038700021F1862F0E94CA3EEC01A8014095509587
:10388000425F5F4F440F551F440F551FBC01049604
:103890000E94556A188219821A821B8293E09883CB
:1038A0008091150D81508370880F880F892B888334
:1038B0008A818170886C8A832CC0862F0E94C23EC8
:1038C000EC0100951095005E1F4F59E0F52EF09E1B
:1038D000A001F19E500D1124BC0109960E94556A69
:1038E000FE011192FA94E9F78091150D282F2150CD
:1038F0002F709881907F922B988385300CF002C0B6
:103900000E94DE3F8F779E819078982B9E8384E67D
:10391000898382E0DF91CF911F910F91FF900C94EA
:10392000843D80E291E0E6E9F3E0DF019C011D9235
:1039300021503040E1F782E00C94843D80E094E037
:10394000E0E3F7E0DF019C011D9221503040E1F7F8
:103950000895CF9381E08093400C80E4E0E0FCE0A8
:10396000DF01982F1D929A95E9F794E09093000C4F
:103970008093010C80E18093030C84E0C82FCF5F1B
:103980006C2F0E94653D8C2FC038C1F760E08FE737
:103990000E94653D84E08093020C0E94473D109296
:1039A000400CCF9108958FE4E6E6F6E0DF011D922A
:1039B0008A95E9F786E1809397068DEC80936606F9
:1039C00089E1809394068AE580939506E7E6F6E020
:1039D00020E032E080E891E021933193958784875D
:1039E000938F828FB6E0E537FB07B1F780E895E16A
:1039F0009093920680939106089540E450E060E031
:103A000070E080E09CE00E94776A8091000C843036
:103A100029F481E09091010C903409F080E0089540
:103A200060E00C94621BCF92DF92EF92FF920F93B3
:103A30001F93CF93DF9381E08093400C80E8E5E40F
:103A4000FCE0DF011D928A95E9F7F4E0EF2EFCE03F
:103A5000FF2EC0E0D0E08C2FC43129F4D090020CAE
:103A600002E01CE009C08E01000F111F0C0F1D1F8A
:103A70000C5F134FF701D08090E0C82EC3941DC097
:103A80008D2D84508C3738F4ED2DF0E0EB5BF34F47
:103A90008081882361F0992329F060E0892F0E94BA
:103AA000653D0DC0D8011C920E94473D08C0C082F0
:103AB0008D2D0E94101D9D2DD82ED110E1CF219665
:103AC000B3E0EB0EF11CC531D10529F6C4E0EC2FB3
:103AD000F0E0EB5BF34F8081811109C06091020C33
:103AE0008C2F0E94653DC093020C0E945D3DCF5F0C
:103AF000C03869F71092400C80E0DF91CF911F91A0
:103B00000F91FF90EF90DF90CF900895CF92DF92CA
:103B1000EF92FF920F931F93CF93DF93EC016B0112
:103B2000888190E0FC01EE0FFF1FE80FF91FEB5FAB
:103B3000F34F80812181922F9F7029813A81821BCE
:103B4000930B8A018417950708F48C01780117C03C
:103B50008B818823B9F06C81962F9F5F9C830E9494
:103B6000781BF60181936F018C818F3028F01C82C5
:103B70008B810E94101D8B83F1E0EF1AF108E11494
:103B8000F10431F789819A81800F911F8E199F0965
:103B90009A838983802F8E19DF91CF911F910F9186
:103BA000FF90EF90DF90CF900895CF93DF938091B7
:103BB000020CC0E0D0E003C02F960E94101D8111BE
:103BC000FBCFCE01DF91CF910895CF93DF93D82F14
:103BD000C82F04C08C2F0E94101DC82F8C2F0E944C
:103BE000101D8111F7CF6091020C8C2F0E94653D52
:103BF000D093020CDF91CF910C945D3DCF93482F71
:103C000050E09A01220F331F240F351FF901E050B5
:103C1000F44FC481F901EC5FF34F108211821282DC
:103C200091E09093400C0E94713DCC2319F08C2FB1
:103C30000E94E51D1092400CCF9108958830C0F489
:103C400025E0829FC00111248E579C4F20E030E078
:103C5000FB01E20FF31FE491DC01A20FB31FA45498
:103C6000BE4FEC932F5F3F4F2530310589F7089504
:103C700029E0829FC00111248E579C4F20E030E044
:103C8000FB01E20FF31FE491DC01A20FB31FA45666
:103C9000BE4FEC932F5F3F4F2930310589F70895D0
:103CA0008F708E3068F490E0FC01EE0FFF1FE80F7C
:103CB000F91FEB51F34F83E6828380818F7C8083F1
:103CC00008958F708E3058F490E0FC01EE0FFF1FC6
:103CD000E80FF91FEB51F34F82E6828311820895BA
:103CE0000F931F93CF93DF931F92CDB7DEB78C0155
:103CF000FC018081982F9F70990F807F611103C014
:103D00009F70982B04C091609F70982BF80190834E
:103D1000F80181818F5F818392819923C9F080812D
:103D20008F70B1F4933689F0842F806249830E94AA
:103D3000511BF80182814981803119F481818031E0
:103D400020F0F80180818F7C8083F801118212823B
:103D5000F8012281283009F451C058F4213009F4C7
:103D600056C0A0F0223009F449C0243009F06AC0DE
:103D700045C02F35A9F120F4203109F063C03EC0C1
:103D80002136A1F0223609F05DC055C0F8018081CE
:103D9000982F9F709F3009F055C091E692839181D2
:103DA000913110F08F7C8083F8014BC0842F8066A6
:103DB0000E94511B10924A0210924B0210924C0228
:103DC00010924D02F8019081892F82958F708F5F3C
:103DD00083708295807F9F7C982B90838FE530C085
:103DE000F8018181883121F4842F80680E94511B61
:103DF000F8018181883231F580E122C0F8018181AA
:103E0000803328F030E03595279522831182F80120
:103E1000228130E021503109618170E0262337236F
:103E2000232B81F4842F80640F90DF91CF911F9119
:103E30000F910C94511BF8018181803418F088E0B7
:103E4000828311820F90DF91CF911F910F9108957E
:103E5000E3E2F1E080811082089586B380958E7749
:103E6000E1F70C94511BA998AB98AC988BBBAD9A19
:103E7000AD98AB9AA99A08951F93CF93DF9310E062
:103E8000C0E3D7E084E00E94331F80E10E94331F2B
:103E9000812F806B0E94331FA998AB9AAC98CE01FA
:103EA00080589F4FFE0121912BBBAD9AAD98E8172A
:103EB000F907C9F7C058DF4FAB9AA99A1F5F1830AE
:103EC00009F7DF91CF911F910895CF93C82F81E813
:103ED0000E94331F8C2FCF910C94331F87FD59C044
:103EE00047FF02C0640F419567FF02C0460F60E0C4
:103EF000A42FBB27A7FDB095A60FB11D67FDBA95EE
:103F0000A134B10514F040E4461B253511F460FFDF
:103F10002AEA362F359535953595E82FF0E050E8AB
:103F20003503E00DF11D1124E05DF84F6770B9F025
:103F3000A1E0B0E0062E01C0AA0F0A94EAF7A1950D
:103F4000A2238081A827A083E058FF4F6850460F26
:103F500006C0808182278083E058FF4F48501416A6
:103F6000C4F3842F992787FD9095089668E070E048
:103F70000E94F269882369F0E058F10941E050E0BD
:103F800001C0440F8A95EAF7419542238081482772
:103F9000408308952FEF0C946E1FCF92DF92FF9213
:103FA0000F931F93CF93DF931F92CDB7DEB7142FDC
:103FB0006034C8F587FF02C0180F80E0C82EDD24EA
:103FC000C7FCD094F601E10FF11DE138F10514F0C2
:103FD00010E8181B862F86958695869590E8899F10
:103FE000C00CD11C1124E0E3F7E0CE0EDF1E677099
:103FF00081E090E0F82E01C0FF0C6A95EAF711C04D
:1040000020FF0AC0402F6F2DC60129830E94541B38
:1040100029812695206801C026951150FFEFCF1AFF
:10402000DF0A1111EDCF0F90DF91CF911F910F910A
:10403000FF90DF90CF900895DF92EF92FF920F9361
:104040001F93CF93DF93C82F162FD42FD22EF02E8D
:10405000E0FE17C080910F0D86FF13C023C0CF5F15
:10406000D250612F61506D0D00E02F2D4D2F8C2F00
:104070000E94CD1F2F2D4D2F612F8C2F0E94CD1F01
:1040800011C02F2D4D2D612F8C2F0E946E1F8C2F54
:1040900081502F2D4D2D612F8D0F0E946E1FE3FE3D
:1040A000DECFDFCFDF91CF911F910F91FF90EF9087
:1040B000DF900895262F26952695269590E030E8E6
:1040C000239F800D911D1124805D984F2BE080333C
:1040D000920750F4262F277061E070E001C0660F50
:1040E0002A95EAF70C94541B0895CF92DF92EF9231
:1040F000FF920F931F93CF93DF937C012EEE40E44A
:1041000060E08EE50E946E1F00E02EEE40E460E26B
:104110008EE30E94CD1FEFE3DE2EC0E2DCEFFFE373
:10412000CF2E0FE310E0CE01F70109959C5F97FDBC
:1041300001969C0135952795C29EA001C39E500D06
:104140001124452F552746954695B801641B750BDC
:1041500042E08D2D0E945A20A096D394FEE7DF12F4
:10416000E2CFDF91CF911F910F91FF90EF90DF9001
:10417000CF900895CF92DF92EF92FF920F931F930B
:10418000CF93DF93362F36953695369590E010E82D
:10419000319F800D911D1124DC01A05DB84F20FFDF
:1041A00007C030910F0D36FF07C021FD07C098C032
:1041B00021FBFF24F0F804C0F12C02C0FF24F3948B
:1041C00022FF2BC074E1479FA00111244F5A5A4F80
:1041D0003BE02870222319F032301CF481C03230C9
:1041E0003CF0FA01649131964E5F5F4FE49102C05A
:1041F000E0E060E0FF2011F06095E095CD018F5781
:104200009F4F80539B4030F46C93ED01C058DF4FBB
:10421000E88311963150F0F663C023FF0DC0FF20F4
:1042200011F02FEF01C020E0FC01E05DF84F20838A
:104230001196EE24E39401C0E12C15E0419FA0010A
:1042400011244F5A5A4F6770262F30E0EFEFF0E0FD
:10425000CF01062E01C0880F0A94EAF7D82ED09419
:1042600088E090E0821B930B082E02C0F595E7953D
:104270000A94E2F7CE2EC09475E0772329F0FA0174
:104280004F5F5F4FC49101C0C0E0F110C095EE20B8
:1042900011F0743019F1EBE0A033BE07F8F4D0E070
:1042A0008E01022E01C0000F0A94EAF7FC91FD2155
:1042B000F00FFC93662389F0FD01E058FF4F1BE0EF
:1042C000E033F10750F4082E02C0D595C7950A9443
:1042D000E2F7D081DC21DC0FD0831196715068F6B3
:1042E000DF91CF911F910F91FF90EF90DF90CF90D2
:1042F0000895AF92BF92DF92EF92FF920F931F93B8
:10430000CF93DF931F92CDB7DEB7182FE62E5A0159
:10431000F22E802F80738983A4E0DA2ED0222EC063
:10432000E981E03119F0E03249F403C0F501808100
:1043300007C0F50180810E94BD3F02C0F501849154
:10434000811103C01093140D1CC01B37D8F78032A5
:1043500060F0202F482F6E2D812F0E94BA20D1109F
:1043600002C01A5F07C0155F05C0982F990F980FFC
:10437000990F190FFFEFAF1ABF0AFA94F110D0CFBF
:10438000E1CF0F90DF91CF911F910F91FF90EF90B0
:10439000DF90BF90AF9008950F93022F2FEF0E94F0
:1043A00079210F910895AB0120E0682F80E00C94F3
:1043B000CC2120E00C94CC210F93FA0194914F5F13
:1043C0005F4F929F400D511D1124292F0E9479218A
:1043D0000F910895FF920F931F93CF93DF93D82FE0
:1043E000162FC42F022F411104C020E04BE252E1EE
:1043F0002EC0B0E4FB2EF22226FD0AC0463111F495
:1044000021E003C04A3E21F420E044E252E11FC013
:10441000C7FF08C02EE548E0612F8D2F82500E9413
:104420006E1FC195C6317CF0FF2011F085E101C0FF
:1044300086E1C81B07FD07C0202F4DE6612F8D2F99
:104440008E5E0E94BA202C2F215049EC55E1612F3D
:104450008D2F0E94DC21DF91CF911F910F91FF9052
:1044600008950F931F93CF93DF93D82F162FC42F48
:10447000022F47FF09C084E0841BC82F41E28D2F23
:1044800086500E94BA2008C0453034F4242F4AE3F5
:1044900056E10E94DC210CC0202F20644C2F445098
:1044A000612F8D2FDF91CF911F910F910C94EA21F5
:1044B000DF91CF911F910F9108950F934150022FDB
:1044C000242F47ED52E10E94DC210F910895DF92E5
:1044D000EF92FF920F931F93CF93DF931F92CDB76D
:1044E000DEB7E82ED62E142FF22E6F2D842F0983DF
:1044F0000E94653F202F853F31E093079CF0982F65
:10450000955F911708F09F5F492F405D6D2D8E2DAF
:104510000F90DF91CF911F910F91FF90EF90DF905F
:104520000C94BA204F2D4F5F6D2D8E2D0F90DF9183
:10453000CF911F910F91FF90EF90DF900C945D222F
:104540000F93222311F002E001C000E0242F44E287
:1045500052E10E94DC210F91089520E00C94BA20D2
:104560008F5F0C94393DDC016C9312961C921E9265
:10457000119770E0FB01EE0FFF1FE60FF71FE050F1
:10458000F44F848113968C93139714961C92109277
:10459000410C08954F925F927F928F929F92AF92BB
:1045A000BF92CF92DF92EF92FF920F931F93CF9320
:1045B000DF931F92CDB7DEB7F090A8061F2D1F70B6
:1045C0008038F9F060F4863230F4843238F5823283
:1045D00008F477C035C0813609F073C052C0833803
:1045E00009F443C038F4813809F45CC0823809F01A
:1045F00068C041C08538F1F0B8F08F3B09F061C068
:1046000057C0E0914902F0E0EE0FFF1FE954F94F67
:10461000808191810E94212D80E851C0123009F0E3
:1046200050C080E18F251BC087EA9DE40E94212DA8
:1046300084E845C088EA95E50E94212D85E83FC0C1
:10464000833229F4133041F0812F8F5F08C011238A
:1046500029F0812F815003C080E001C083E0809366
:10466000A80681E00E94843D1FC087E893E30E9472
:10467000F03283E824C08FEF92E30E94F03282E8A8
:104680001EC080915802823021F483E0809358024A
:104690000BC023E0F21202C081E001C080E00E9462
:1046A000D73D02C00E94EF3D83E00E94B22C09C0BA
:1046B00081E00E94501E83E00E94501E82E00E9412
:1046C000501E0E942043982E3DE0839FA00111249C
:1046D000455F594F00E226E060E186E20E947921C1
:1046E0002091950630E080914E0290914F02821702
:1046F000930710F497E001C094E004E02091930642
:1047000042E853E060E08AE099830E94BE369981D6
:10471000292F206440914E0250914F0260E183E2C4
:104720000E946A3746E568E184E20E94AD228091EA
:104730008C038823F9F080915802823011F427E02D
:1047400001C024E04091520250915302022F60E1D7
:104750008BE40E94113740918C03209152023091DA
:10476000530237FD02C088E301C081E320E868E11D
:104770000E9431224AE1A42E41E0B42EC12CD12C5A
:104780005FE1752EEC2C80914602F60194E0899F42
:10479000E00DF11D1124ED5EFF4EE491F0E0EB5EC3
:1047A000FE4F80806C2D892D0E94B53F9C012358BF
:1047B0003F4F2B3F310510F408E001C00BE080397A
:1047C000EFEF9E075CF0813791056CF497FD03963F
:1047D0002C01559447945594479408C024EE422EDA
:1047E00055245A9403C09CE1492E512CF501819126
:1047F0005F0146E38823D1F064E0882D0E94CA1F40
:10480000F2E0EF1204C08091920383FD0CC043E0FC
:104810006EE1882D81500E94CA1F43E06EE1882D11
:104820008F5F0E94CA1F672D641913C06CE3882D27
:104830008B510E94F134E82CEA9443E06BE38E2D17
:104840000E94F13443E06DE38E2D0E94F134840C1C
:104850006CE36350E02E0FEF27E047E0882D835094
:104860000E941C202FEFC21AD20A34E0C316D104D2
:1048700009F088CF123008F084C0BCEF4B2EB2E0B4
:104880005B2ED12C09E1902E8BE1882EF201E19074
:10489000F1902F01113049F1C701F7FC4F96A5E0C7
:1048A00095958795AA95E1F79701281B390BC901C2
:1048B000F7FE03C03FE7E30EF11CA701440F452FAD
:1048C000441F550B480F591F6D2D66956695660F51
:1048D000660F660F685D8D2D8370889D802D112475
:1048E00020E28F5D0E94643747C083E08D1518F089
:1048F000E2E2AE2E02C07EE5A72E8D2D8370C82E7B
:10490000CC0CCC0CC80E9701F7FE04C0222733272D
:104910002E193F09929EA001939E500D11245E5FB7
:10492000452F550F550B45954595B42E99E1941794
:1049300014F459E1B52E6C2D6A5D00E025E543E3E2
:104940008A2D89510E94CD1F6C2D6C5D45E08A2D0A
:104950000E94CA1F1E141F0414F4A39401C0AB18B4
:104960006C2D695D4B2D8A2D0E94F1346C2D6B5D91
:104970004B2D8A2D0E94F134D394E8E0DE1286CFCD
:10498000F9C0123009F0CDC0F2E0FF1240C00E9421
:104990006A0E10E003E0412F133010F44F5F12C095
:1049A0004C5F493079F460E084E00E940643811155
:1049B0000BC060E085E00E940643882341F089E057
:1049C00045E007C0842F05C089E044E002C089E0CB
:1049D00046E060E049830E9406434981882311F044
:1049E00022E001C020E0812F602F0E94D269990F40
:1049F000990F990F905E133010F48AE001C085E69C
:104A0000692F0E94EA211F5F163029F6B3C00CE01F
:104A100013E02DE2A22EC12C38E0D32EE12CF12C94
:104A200048E3742EF801A191B1918F0126E130E0A5
:104A30000E94B369785A8F4F9F4FA70196010E9439
:104A4000286A490137FD04C02631310524F406C027
:104A5000812C912C03C096E1892E912CB72CB8188B
:104A6000482D6B2D8A2D0E94CA1F482D6B2D8A2D33
:104A70008F5F0E94CA1F482D6B2D8A2D8E5F0E946A
:104A8000CA1F25E0A20E35E5A312CCCFF12C06E01B
:104A900083E0E82E8F2D602F0E94D269192F93306A
:104AA00098F48F2D6E2D0E94D269990F990F990F4E
:104AB000905E85E08F1510F08AE001C08EE549EF29
:104AC00056E1692F0E94D92160E08F2D865F0E94F8
:104AD0000643882311F022E001C020E098E04F2D2A
:104AE0009F1510F04F5C01C0485C8F2D6E2D0E9409
:104AF000D269990F990F990F905EE5E0EF1510F0CC
:104B000086E101C08AE6133010F430E001C036E0DF
:104B1000692F830F0E94BA20F394FCE0FF12BACFF2
:104B200029C0409154025091550204E024E068E20B
:104B300089E20E94113740918F0380915402909135
:104B4000550297FD02C086E101C08FE020E860E3D6
:104B50000F90DF91CF911F910F91FF90EF90DF9019
:104B6000CF90BF90AF909F908F907F905F904F902D
:104B70000C9431220F90DF91CF911F910F91FF90F4
:104B8000EF90DF90CF90BF90AF909F908F907F90ED
:104B90005F904F9008954F925F927F928F929F9275
:104BA000AF92BF92CF92DF92EF92FF920F931F933B
:104BB000CF93DF931F92CDB7DEB7982F862F2A01B0
:104BC0000115110559F0409135023E2D4E1508F49E
:104BD000342FF801E30FF11DF49001C0F12CA090E7
:104BE000E602B090E702A0913301B0913401AA1916
:104BF000BB09B7FD5F96AD01A5E055954795AA9510
:104C0000E1F750936F0B40936E0B4115510521F066
:104C1000B0923401A0923301A090E202B090E3027E
:104C2000A0913501B0913601AA19BB09B7FDDF96F5
:104C3000F6E0B595A795FA95E1F7DA2E7A2EAA2334
:104C400021F0B0923601A0923501A090E402B0901C
:104C5000E502A0913701B0913801AA19BB09B7FD4F
:104C6000DF964D01E6E095948794EA95E1F7982C5C
:104C7000882009F492C1B0923801A092370102C095
:104C8000452B69F03091AE06E4EFF1E03E9FA001C4
:104C90003F9F500D11245093810340938003411492
:104CA000510409F44AC03091350231113CC03091B1
:104CB0001F01311138C0711002C0E82F09C0E22F66
:104CC000E150382F3D1937FD30E03E170CF4E32F4B
:104CD000943649F09536A1F4882311F0E82F01C0ED
:104CE000E22FE1500DC0A82EB12C422F50E04150D0
:104CF0005109A416B5061CF4E82FEF5F01C0E0E0EF
:104D0000FF27E7FDF095482F50E0E417F50769F01D
:104D1000EE0FFF1FE40DF51D25913491C9010E948E
:104D2000F03280E03DC140E001C042E010921F013E
:104D3000622F99830E94883799814091CC0C141678
:104D4000C4F1882011F180913502891987FD80E036
:104D50002C2D8C150CF4282F2093350201151105EC
:104D600049F0822FE21608F48E2DF801E80FF11DAC
:104D7000E49101C0E0E0809134028E1708F4E82F3E
:104D8000E093340280E680930F0D772091F08091BC
:104D90003502882371F0809134028D1987FD80E0FF
:104DA0002F2D8F150CF4282F2093340280E680934A
:104DB0000F0D903669F198F4933409F4A3C040F4D0
:104DC00080913502913289F1923409F0C5C07EC0DC
:104DD000943409F442C0953409F0BEC061C09436E1
:104DE00009F446C038F4923609F473C0933609F0DA
:104DF000B3C08CC09138B1F09F3B21F0953609F0DB
:104E0000ABC053C010923402109235028FEF07C02E
:104E10001F140CF0A1C081E014160CF480E0809304
:104E2000CC0C9AC01092CC0C0AC014161CF4109230
:104E3000CC0C92C0882319F04114510419F40E943B
:104E4000FF2C8AC085E00E94B22C1092340210928E
:104E5000350280E680930F0D81C02091340230E04E
:104E60008F2D992787FD90952817390709F474C06D
:104E7000012B09F471C014160CF46EC02091340299
:104E8000822F90E0EF2DFF27E7FDF0958E179F070B
:104E900024F42F5F209334025CC01092340259C076
:104EA00080913402882309F457C0012B09F454C0BF
:104EB00014160CF451C080913402882321F08150E3
:104EC0008093340246C0F092340243C08C1509F43A
:104ED00043C014160CF440C0809135028C1510F4B8
:104EE0008F5F01C080E00115110509F41BC0982FE8
:104EF000E81608F49E2DF801E90FF11DE491EF3F4B
:104F000069F31EC080913502882331F1141624F113
:104F100080913502882311F0815001C08C2D01153C
:104F2000110521F480933502E0E00CC0982FE816BB
:104F300008F49E2DF801E90FF11DE491EF3F51F3C4
:104F400080933502809134028E1708F4E82FE093A5
:104F5000340280E680930F0D452811F057E001C020
:104F600056E040913502411103C01092C80C13C0A5
:104F7000842F90E02091C80C821B9109252F30E0EE
:104F80002817390714F4451B04C0181619061CF01D
:104F900041504093C80C81E003C0711073CE70CEB5
:104FA0000F90DF91CF911F910F91FF90EF90DF90C5
:104FB000CF90BF90AF909F908F907F905F904F90D9
:104FC00008952F923F924F925F926F927F928F92AD
:104FD0009F92AF92BF92CF92DF92EF92FF920F9388
:104FE0001F93CF93DF93CDB7DEB761970FB6F894D9
:104FF000DEBF0FBECDBF482E0E945E1090913102E1
:1050000091117DC1109195031823809132018095F3
:10501000812319F08CE00E94B22C10933201509041
:105020000406552009F464C060902B0270902C0295
:1050300000912F02109130029301D3010E949F69C9
:105040006B017C019801D8010E949F69C60ED71E92
:10505000E81EF91E652D70E080E090E04AE0660FE2
:10506000771F881F991F4A95D1F724E630E040E06A
:1050700050E00E94286ACA01B9010E94C2696C15F9
:105080007D058E059F05A0F5C701B6010E94AF3DC5
:105090009C01A4E6B0E00E94A7696B017C01B12CE1
:1050A000252D3B2DD3010E94B3692AE0660F771F9F
:1050B000881F991F2A95D1F7A70196010E94286A97
:1050C00030932C0220932B02252D3B2DD8010E94DA
:1050D000B3693AE0660F771F881F991F3A95D1F799
:1050E000A70196010E94286A3093300220932F0274
:1050F00080910206887F09F4F2C0E0902B02F090C4
:105100002C028091230290912402E80EF91E009156
:105110002F02109130028091270290912802080FEF
:10512000191F80910306882321F081500E949B4122
:1051300002C080E090E02091020620FF03C0F194BD
:10514000E194F10821FF03C011950195110922FF97
:1051500003C0919581959109209102062695269587
:10516000269530E02230310509F44CC02CF4213072
:10517000310509F0B4C009C02330310509F484C0F9
:105180002430310509F0ABC096C0980117FF02C06A
:10519000295F3F4FB3E035952795BA95E1F7A80110
:1051A000421B530B9A01A80117FF02C041585F4FE1
:1051B000440F452F441F550B241B350B17FF02C00E
:1051C00001501E4F012F110F110B0595201B310BA4
:1051D000AC014E195F0950932D0140932C01F7FE4D
:1051E00003C05FEFE51AF50AF594E794E80EF91E9F
:1051F000C701820F931F90932F0180932E01E21A13
:10520000F30A54C09701F7FE02C0295F3F4F73E0D5
:10521000359527957A95E1F7D701A21BB30B9D0130
:10522000A701F7FE02C041585F4F440F452F441FAE
:10523000550B241B350BF7FE04C0B1E0EB1ABEEF93
:10524000FB0AEF2CFF0CFF08E5942E193F09AC0177
:10525000401B510B50932D0140932C0117FF02C0AE
:105260000F5F1F4F15950795080F191FC801820F73
:10527000931F90932F0180932E01021B130B109309
:105280003101009330012BC09C012E193F0930934E
:105290002D0120932C01E80EF91EC701800F911FEC
:1052A00090932F0180932E01E01AF10AF0923101C0
:1052B000E092300114C09C012E193F0930932D015A
:1052C00020932C019C01200F311F30932F0120933C
:1052D0002E01801B910B909331018093300110922D
:1052E000250110922401109227011092260110929C
:1052F00029011092280110922B0110922A0180E4BA
:10530000ECE3F3E0DF011D928A95E9F71092E40CDB
:10531000E9E9F1E0FC83EB8329E331E03F832E836D
:1053200049E551E05A83498300E0812C912C5401D6
:10533000939484E6282E842D90E0DC011196BF879B
:10534000AE87802F0E94C23E998B888BFC0186819C
:105350008F7709F4EEC22081822F807FD1F02595CE
:10536000259525952595822F992787FD90951216CD
:105370003CF4EE85FF85E817F90709F0AAC209C0D9
:105380009195819591092E853F852817390709F454
:10539000A0C2A889B98912968C91880F880F61E004
:1053A000859585950E940643182FE889F98986819D
:1053B0008F77382E3A9490913102992379F0112306
:1053C00009F487C2F3E0F31508F483C222E0321235
:1053D00050C08091920383FD7CC24BC033E03315F3
:1053E00048F0E32DF0E0EE0FFF1FE75DFD4FC080BA
:1053F000D1803BC0982F9A529031F8F4E32DF0E021
:10540000AF0148525109A889B9892C912F7030E019
:105410002417350794F0EE0FFF1FEE0FFF1FE8561D
:10542000FD4F608171818281938124E630E040E00C
:1054300050E00E94286A690118C0982F9A5095314F
:1054400038F460E089500E94064381110BC057C2B6
:10545000B9E0B31510F4865101C0832D0E949B4121
:105460006C0103C0C12CE4E0DE2E112309F44EC010
:1054700002C0C12CD12CEE81FF819081809131023C
:10548000811183C081E08083A889B98914968C91A9
:105490008F7001F1911107C0289EC0011124E9818C
:1054A000FA8191838083A981BA818D919C91119712
:1054B000009781F020917C03222319F001978D93AE
:1054C0009C93E889F98982818F7309F002C2C12C0B
:1054D0007CEFD72EA889B98913968C91982F907C50
:1054E00009F453C0829586958695837090E0019764
:1054F000E1E0F0E002C0EE0FFF1F8A95E2F7CF0176
:105500009091E40C982B9093E40C3FC0AE81BF8146
:105510009C911C92E889F9898481282F207F09F4C5
:10552000FCC1992349F082958F70289EC0011124F7
:10553000A981BA818D939C93E981FA8180819181BF
:10554000009779F020917C03222319F00197918331
:105550008083A889B98912968C918F7309F4E5C16B
:1055600014C0E889F98982818F7309F4D3C1D5C148
:10557000982F907C903809F4ACC18F7331F0C12C16
:10558000D12C03C08F7309F0A4C1A889B9891896DA
:10559000BC91BD83BB23A9F0E9E2BE02C001112486
:1055A00095958795959587952B2FB7FD215C26FBC3
:1055B000220F220B20F9821B910927FD9395C80E1B
:1055C000D91E109131021111D2C0A889B98915963E
:1055D0008C91882309F4CBC0EB81FC814080518001
:1055E00062807380C301B201A50194010E94286A00
:1055F00050954095309521953F4F4F4F5F4FC601D5
:10560000820F931F9D878C87892B09F4B0C08091EE
:105610007C03EE24D7FCE094FE2C882309F46DC0B3
:10562000A889B98911962C912223A1F0332727FD4F
:10563000309537FF03C0319521953109332727FD78
:105640003095432F532F60E070E080E293E00E949A
:10565000286A04C020E030E040E253E02887398720
:105660004A875B87A889B98915968C91EC85FD8559
:105670001E161F06CCF48F7090E0009799F1289EBB
:10568000A001299E500D11249A01442737FD409511
:10569000542F688579858A859B850E94286A240D08
:1056A000351D461D571D22C082958F7090E00097D2
:1056B000C9F0289EA001299E500D11249A0144276B
:1056C00037FD4095542F688579858A859B850E9492
:1056D000286AD301C201821B930BA40BB50B9C015A
:1056E000AD0104C05E2D4D2D3C2D2227AB81BC8128
:1056F0002D933D934D935C931397EC85FD851E167A
:105700001F0684F4AB81BC816D917D918D919C913C
:10571000A50194010E94286AC216D306E406F50684
:1057200084F01AC0EB81FC81608171818281938158
:10573000A50194010E94286A2C153D054E055F05C0
:105740005CF4FE2CED2CDC2CCC24AB81BC81CD9206
:10575000DD92ED92FC921397EB81FC816081718167
:1057600082819381A50194010E94286A6901A88918
:10577000B98913966C91862F8F7341F0660F660F6F
:1057800065956595C6010E946F3E6C01B3E0B31547
:1057900048F1123038F5E889F9898781807C59F41D
:1057A000E32DF0E0EE0FFF1FEF5DFD4F8081918153
:1057B000C80ED91E17C0111115C0803899F4FD818B
:1057C00028E0F202C00111240E9430446C01E32D54
:1057D000F0E0EE0FFF1FEC5DFE4F88899989089677
:1057E00091838083E889F989A1819601BB27A7FD70
:1057F000B0950E949F699B01AC018681881F882714
:10580000881FA781AF73AA0FA82BAA0FA5951A16F8
:1058100054F457FF1BC082E390E08A1B9109A7FD57
:105820009395DC010BC0AA2389F012161306140607
:10583000150664F4BB27A7FDB095D2960E94BA69FD
:1058400022E330E040E050E00E94286AA889B9894C
:105850006C916F7012968C91829586958695837067
:1058600090E0B4E06B9F700111248130910531F01C
:10587000F701E45CFC4F029701F51AC0CA01B901B7
:1058800024E630E040E050E00E94286AECE3F3E0D8
:10589000EE0EFF1ED7016D917D918D919C910E941E
:1058A000C26920E034E040E050E00E94286AF7013D
:1058B00020833183428353830CC080819181A281F4
:1058C000B381820F931FA41FB51F80839183A2838E
:1058D000B3830F5F2B813C812C5F3F4F3C832B8335
:1058E0004E815F814F5F5F4F5F834E8389819A81D5
:1058F00002969A838983003209F023CD1AC0A889C1
:10590000B98912968C918F73C12C9CEFD92E09F412
:10591000FDCDABCDC12C1CEFD12EE889F989958145
:10592000907F8281911124CE2DCEC12CB4E0DB2E4C
:105930002CCE61960FB6F894DEBF0FBECDBFDF91BF
:10594000CF911F910F91FF90EF90DF90CF90BF907C
:10595000AF909F908F907F906F905F904F903F900F
:105960002F90089566E40C94250DCF92DF92EF926C
:10597000FF920F931F93CF93DF936C017B018A01FA
:10598000E9010E949E1C24E0A60160E080E00E94E4
:10599000CC21B70180E20E94D3210115110521F02D
:1059A000B80188E20E94D321209749F0BE0188E324
:1059B0000E94D32182E00E94B22C0E942D1F0E94DF
:1059C0003C1F80919406DF91CF911F910F91FF9022
:1059D000EF90DF90CF900C94651F2AE73FE040E006
:1059E00050E0BC018CE090E10E94B52C86B380951C
:1059F0008E7721F40E941143A895F8CF08958091E5
:105A000049028823D1F081508093490283E00E94AB
:105A1000B22C10923402E0914902F0E0DF01A55E61
:105A2000BD4F8C9180933502EE0FFF1FEB54F94F61
:105A30000190F081E02D8EEB099488E59FE00C94B5
:105A4000ED2CCF93DF93EC0180914902A82FB0E0B9
:105A5000A55EBD4F909135029C93982F9F5F9093C8
:105A60004902953040F08093490288E59FE0DF913C
:105A7000CF910C94ED2C85E00E94B22CA0914902AC
:105A8000B0E0AA0FBB1FAB54B94FCD93DC938FEBA3
:105A9000FE01DF91CF9109948091EC02811116C033
:105AA0008091EA029091EB02892B81F48091020CA3
:105AB0008093EC028093370C882341F00E94101DE4
:105AC0008093020C8091F10281603CC08091F102D0
:105AD000982F9F70913009F070C0815038C080912C
