:100000000C94870C0C94A40C0C94A40C0C94A40CCD
:100010000C94A40C0C94A40C0C94A40C0C94A40CA0
:100020000C94A40C0C94A40C0C94A40C0C944339C4
:100030000C949C380C94A40C0C94A40C0C942937AC
:100040000C94EB390C94A40C0C9433380C94A40C41
:100050000C94A40C0C94A40C0C9468380C94A40C70
:100060000C9407390C9470390C94A40C0C94A40CC7
:100070000C94A40C0C94A40C0C94A40C0C94A40C40
:100080000C94A40C0C94A40C0C94A40C0000000080
:10009000000000006F000007000700147F147F14A9
:1000A000242A7F2A122313086462364955225000FD
:1000B00005030000001C2241000041221C0014081E
:1000C0003E081408083E08080050300000000808E8
:1000D000080800606000002010080402003E414152
:1000E0003E0000427F400062514946004149493686
:1000F000001814127F0027454539003E4949320057
:10010000017905030036494936000649291E0000D9
:10011000363600000056360000081422411414142C
:1001200014144122140800020151090606090906A7
:10013000007E0909097E7F494949363E41414122F5
:100140007F4141221C7F494949417F090909013EFC
:100150004149497A7F0808087F00417F41002040DB
:10016000413F017F081422417F404040407F020C04
:10017000027F7F0408107F3E4141413E7F0909090B
:10018000063E4151215E7F091929462649494932D7
:1001900001017F01013F4040403F1F2040201F3FA1
:1001A0004030403F6314081463070870080761512A
:1001B000494543007F4141000204081020004141AD
:1001C0007F0004020102044040404040000102045C
:1001D0000020545454787F484444383844444420E0
:1001E000384444487F3854545418087E0901020C9E
:1001F0005252523E7F0804047800447D4000204063
:10020000443D007F1028440000417F40007C0418DA
:1002100004787C0804047838444444387C1414146A
:1002200008081414187C7C0804040848545454200A
:10023000043F4440203C4040207C1C2040201C3C8B
:100240004020403C44281028440C5050503C44640A
:10025000544C44000836410000007F000000413645
:1002600008000808221C08081C22080820545654BC
:1002700078205654567838464446387C1313127CFE
:100280007C1312137C3C4342433C000000000000FE
:10029000000000000000000000000000000000005E
:1002A000000000000000FE71FE7100000000000070
:1002B0000000000000003E007E00000000007E0004
:1002C0003E000000000060066006FE7FFE7F6006C4
:1002D0006006FE7FFE7F600660066018F0189819C1
:1002E0009819FE7FFE7F98199819180F18060C1898
:1002F0001E1C1E0E0C078003C001E0307078387899
:100300001830781EFC3F8E71C663E66776663C3C0B
:10031000183C0066006600000000660076003E00A3
:100320001E00000000000000000000000000E007C8
:10033000F00F381C1C380E70066000000000000032
:10034000000006600E701C38381CF00FE00700003B
:10035000000060066006C0038001F81FF81F8001DE
:10036000C003600660068001800180018001F81FE3
:10037000F81F8001800180018001000000000066FC
:100380000076003E001E000000000000000000009B
:100390000000000080018001800180018001800157
:1003A000800100000000003000780078003000007C
:1003B0000000000000000018001C000E0007800371
:1003C000C001E00070003800180000000000F81FB5
:1003D000FC3F0E70066006600E70FC3FF81F0000C8
:1003E000000018601C60FE7FFE7F0060006000005F
:1003F00000000000000018781C7C0E6E0667866303
:10040000CE61FC60786000000000066006608661D6
:1004100086618661CE73FC3F781E00000000800775
:10042000C007E006700638061C06FE7FFE7F00004F
:1004300000007E187E38667066606660E670C63FB3
:10044000861F00000000F81FFC3F8E7186618661E8
:100450008E731C3F181E0000000006000600867FF9
:10046000C67FE60076003E001E0000000000781EF9
:10047000FC3FCE7386618661CE73FC3F781E000020
:1004800000007800FC00CE6186718639CE1DFC0F1D
:10049000F80700000000300C781E781E300C0000B9
:1004A0000000000000000000000030667876783E12
:1004B000301E00000000000000000000000080016D
:1004C000C003E007700E381C1C380E700660600612
:1004D00060066006600660066006600660066006EC
:1004E000600606600E701C38381C700EE007C003F2
:1004F00080010000000018001C000E0006000666C7
:1005000006678603CE01FC0078007800FC00CE016F
:1005100086018601CE01FC00780000000000E07F2B
:10052000F07FB8019C018E018E019C01B801F07F23
:10053000E07FFE7FFE7F86618661866186618661DF
:10054000CE73FC3F781EF81FFC3F0E7006600660FD
:10055000066006600E701C381818FE7FFE7F06606D
:10056000066006600E701C38381CF00FE007FE7F36
:10057000FE7F86618661866186618661866106602E
:100580000660FE7FFE7F8601860186018601860168
:10059000860106000600F81FFC3F0E7006608661AB
:1005A000866186618E719C7F983FFE7FFE7F800111
:1005B00080018001800180018001FE7FFE7F0000BC
:1005C000000006600660FE7FFE7F06600660000099
:1005D0000000001800380070006006600670FE3FE2
:1005E000FE1F06000600FE7FFE7F8001C003E007BD
:1005F000700E381C1C380E700660FE7FFE7F006097
:100600000060006000600060006000600060FE7FCD
:10061000FE7F1C003800F001F00138001C00FE7F56
:10062000FE7FFE7FFE7F7000E000C00180030007B8
:10063000000EFE7FFE7FF81FFC3F0E700660066016
:10064000066006600E70FC3FF81FFE7FFE7F86018D
:100650008601860186018601CE01FC007800F81F24
:10066000FC3F0E7006600666066E063C0E38FC7F88
:10067000F867FE7FFE7F860186018607860F861D4E
:10068000CE39FC7078607818FC38CE71866186614E
:10069000866186618E731C3F181E060006000600E8
:1006A0000600FE7FFE7F0600060006000600FE1F15
:1006B000FE3F007000600060006000600070FE3F60
:1006C000FE1FFE07FE0F001C00380070007000388F
:1006D000001CFE0FFE07FE1FFE3F00700070003E74
:1006E000003E00700070FE3FFE1F1E783E7C700EC4
:1006F000E007C003C003E007700E3E7C1E787E005A
:10070000FE00C0018003007F007F8003C001FE0067
:100710007E000678067C066E06678663C661E66024
:1007200076603E601E6000000000FE7FFE7F066077
:1007300006600660066000000000180038007000C7
:10074000E000C00180030007000E001C001800003C
:1007500000000660066006600660FE7FFE7F000007
:1007600000006000700038001C000E000E001C002D
:100770003800700060000060006000600060006091
:100780000060006000600060006000000000060083
:100790000E001C003800700060000000000000180F
:1007A000003C607E6066606660666066E066C07F92
:1007B000807FFE7FFE7F8061C061E060606060607E
:1007C000E070C03F801F801FC03FE07060606060CD
:1007D00060606060607000380018801FC03FE0708B
:1007E00060606060E060C0618061FE7FFE7F801FAE
:1007F000C03FE0766066606660666066E066C0077F
:10080000800780018001F87FFC7F8E018601060051
:100810000E001C001800E001F00338671866186627
:10082000186618661876F83FF81FFE7FFE7F800175
:10083000C001E00060006000E000C07F807F000039
:10084000000060606060E67FE67F0060006000009E
:100850000000001800380070006060606070E63FC3
:10086000E61F00000000FE7FFE7F0006000F801FD5
:10087000C039E07060600000000000000000066009
:100880000660FE7FFE7F0060006000000000E07FE9
:10089000E07F6000E000C007C007E000E000C07F2C
:1008A000807FE07FE07F8001C001E00060006000A9
:1008B000E000C07F807F801FC03FE07060606060AC
:1008C00060606060E070C03F801FE07FE07F600696
:1008D0006006600660066006E007C00380018001D4
:1008E000C003E007600660066006C0078007E07F7F
:1008F000E07FE07FE07F8001C001E00060006000F9
:10090000E000C00180018061C063E06760666066EE
:1009100060666066607E003C001860006000FE1F3C
:10092000FE3F607060600060007000380018E01FDB
:10093000E03F007000600060007000380018E07F49
:10094000E07FE007E00F001C003800700070003806
:10095000001CE00FE007E01FE03F0070007000386F
:10096000003800700070E03FE01F6060E070C03948
:10097000801F000F000F801FC039E0706060E00131
:10098000E003006700660066006600660076E03FF0
:10099000E01F606060706078607C606E6067E0633C
:1009A000E061E0606060000000008001C003781E2C
:1009B0007C3E0E7006600000000000000000000099
:1009C0000000FE7FFE7F000000000000000000002D
:1009D000000006600E707C3E781EC003800100009F
:1009E000000080018001800180011818381CF00F80
:1009F000E007C00380018001C003E007F00F381C4E
:100A0000181880018001800180010018003C607E80
:100A100060666E666A666E66E066C07F807F0018FC
:100A2000003C6C7E6C66606660666C66EC66C07FDF
:100A3000807F801FC03FEC706C60606060606C60A5
:100A4000EC70C03F801FE07FF07FB8019E019A01EB
:100A50009A019E01B801F07FE07FE07FF67FBA0146
:100A60009C018E018E019C01BA01F67FE07FE01FA0
:100A7000F63F367018601860186018603670F63FE0
:100A8000E01F00004578706F2073616B6E61732109
:100A9000004D697865722073616B6E61732100038C
:100AA000010200040506075F2D2E2C001B1E272DBA
:100AB00036394B4E636C7278878D939CB1B4C6C93E
:100AC000D2D8E1E401020304010302040402030199
:100AD00004030201454570726F6D204461746166C4
:100AE000656C2000466F726D61746572617220459D
:100AF0004570726F6D004D454444454C414E444530
:100B0000005350530080400000000000000000002F
:100B100000000000000000000000000000000000D5
:100B200000000000000000000000000000000000C5
:100B300000000000000000000000000000000000B5
:100B400000000000000000000000000000000000A5
:100B50000000000000000000000000000000000095
:100B60000000000000000000000000000000000085
:100B70000000000000000000000000000000000075
:100B800000000000000000FCFCFCFCFCFCFCFCFC89
:100B9000FCFCFCFCFCFCFCFCFCFCFCFCFCFCFCFC95
:100BA000FCFCFCFCFCFCFCFCFCFCFCFCFCFCFCFC85
:100BB000FCFCFCFCFCFCFCFCFCFCFCFCFCFCFCFC75
:100BC000FCFCFCFCFCFCFCFCFCFCFCFCFCFCFCFC65
:100BD000FCFCFCFCFCFCFCFCFCFCFCFCFCFCFCFC55
:100BE000FCFCFCFCFCFCFCFCFCFCFCFCFCFCFCFC45
:100BF000FCFCFCFCFCFCFCFCFCFCFCFCFCFCFCFC35
:100C0000FCFCFCFCFCFCFCFFFFFFFFFFFFFFFFFF09
:100C10007F7F3F3F3F3F3F3F7F7FFFFFFFFFFFFF64
:100C2000FFFF3F3F3F3F3FFF7F7F3F3F3F3F7FFF14
:100C3000FFFFFFFFFFFFFFFF7F7F3F3F3F3F3F3F44
:100C40007F7FFFFFFFFFFFFFFFFFFF3F3F3F3F3F74
:100C5000FF7F3F3F3F3F3F7FFFFFFFFF7F0F0703C8
:100C60000181E0F0F0F0E0000101071FFFFFFFFF4E
:100C7000FFBF3F3F3F3F7FFFFFFFFFFF7F3F3F3F04
:100C80003F3FBFFFFFFFFFFFFFFFFF3F07030100E5
:100C9000C0F0F8FCFCFCFCF80000000103FFFFFFC3
:100CA0003F0100000080E0F8FCFCFCF800000000C0
:100CB00001FFFF3F070301000010181C1C1C1C183B
:100CC0000000000103FFFFFFFF1F00000000C0F84D
:100CD000FCFCFC1000000000C0FFFFFFE0800000F3
:100CE000000F1F1F1F0F0300000000E0FFFFFFFFAA
:100CF000FFFFFEF8E000000107070180E0F0F8FCCC
:100D0000FEFFFFFFFFFFFFFFFFFFFFE0C0800000CF
:100D10000F1F1F1F1F0F070180C0E0F0FEFFFF071E
:100D200000000000C00F1F1F1F0F07010080E0F030
:100D3000FEFFFFE0C08000000E0E1E1E1E1E1E1EC7
:100D40001E0ECEFEFEFFFF7F0300000080FCFFFFB3
:100D5000FF3F0300000080FCFFFF1F0F0F1F1F1E3F
:100D60001E1E0E0E0781C0E0F0FCFFFFFFFF7F3F5D
:100D70001F0F030180E0F0F8E0800001071F7FFFF4
:100D8000FFFFFFFFFFFFFFFFFFFFFFFFFFFFFFFF73
:100D9000FEFEFEFEFEFEFFFFFFFFFFFFFF1F000047
:100DA0000000C0FEFFFFFEFEFEFEFEFFFFFFFFFF96
:100DB000FFFFFFFFFFFFFFFFFEFEFEFEFEFEFEFE4B
:100DC000FFFFFFFFFFFFFFFEFEFEFEFEFFFFFFFF38
:100DD000FFFEFEFEFEFEFFFFFFFFFFFFFEFEFEFE2C
:100DE000FEFEFEFFFFFFFFFFFFFFFFFFFFFEFEFE19
:100DF000FEFEFEFFFFFFFFFFFFFFFEFEFEFEFEFF0B
:100E0000FFFFFFFFFFFFFF1F1F1F1F1F1F1F1F1FD2
:100E10001F1F1F1F1F1F1F1F1F1F1F1F1F1F1F1FE2
:100E20001F1F1F1F1F1F1F1F1F1F1F1F1F1F1F1FD2
:100E30001F1F1F1F1F1F1F1F1F1F1F1F1F1F1F1FC2
:100E40001F1F1F1F1F1F1F1F1F1F1F1F1F1F1F1FB2
:100E50001F1F1F1F1F1F1F1F1F1F1F1F1F1F1F1FA2
:100E60001F1F1F1F1F1F1F1F1F1F1F1F1F1F1F1F92
:100E70001F1F1F1F1F1F1F1F1F1F1F1F1F1F1F1F82
:100E80001F1F1F1F1F1F1F00000000000000000089
:100E90000000000000000000000000000000000052
:100EA0000000000000000000000000000000000042
:100EB0000000000000000000000000000000000032
:100EC0000000000000000000000000000000000022
:100ED0000000000000000000000000000000000012
:100EE0000000000000000000000000000000000002
:100EF00000000000000000000000000000000000F2
:100F00000000000000000053504500454550524F7E
:100F10004D206C6F77206D656D00476173656E20A5
:100F2000656A2061767374816E67642100536C80FA
:100F300020617620676173656E0042727974617218
:100F400065205080736C61676E6121005374816EFF
:100F5000672061762064656D00416C61726D656E1D
:100F60002041767374816E67646121006300464698
:100F7000004D4F44454C4C0050504D004B4E0053DB
:100F800054415453495354494B00544D310D544D21
:100F900032005448520D54482500544F54004445E3
:100FA00042554700746D72314C6174206D61780454
:100FB000757300746D72314C6174206D696E0475C7
:100FC0007300746D7231204A6974746572047573AC
:100FD00000746D61696E206D6178066D73004672F4
:100FE000656520537461636B206D696E0462005BFC
:100FF0004D454E555D204E4F4C4C41522020004BEC
:101000005552564100120800081C0808081C080028
:1010100000082200490022080000000000227F2270
:1010200000000008220049002208000008220049B0
:10103000002208000000227F220000000000082299
:1010400000490022080000081C0808081C08005B72
:101050004D454E555D045B455849545D004D49581A
:101060004552002F3134002F3332004B5552564F2A
:1010700052004B550056455253494F4E005645526B
:10108000533A2056322E30302D4A002053564E3AD5
:10109000206F70656E39782D7234313800444154B8
:1010A000453A20323031322D30332D32320054491E
:1010B0004D453A2030343A30343A343700454550C3
:1010C000524F4D207600444941474E4F53005472D1
:1010D000696D2D202B00414E410041004247004BDD
:1010E000414C4942524552494E47005B4D454E5591
:1010F0005D2053544152544152002043454E5452B6
:1011000045524120005B4D454E555D204156534CA4
:101110005554415200528552205350414B41522F59
:10112000524154544152004E616D6E00454A403365
:1011300020540D551155003A8F20073C273BC949D3
:1011400003415620508320032D2D2D494E56043443
:10115000434820364B4E20384B4E2031304B4E31D9
:10116000324B4E31344B4E31364B4E0654797374FC
:101170002020416C61726D20456A204B6E70416C7D
:101180006C61202006784B6F7274204B6F72742054
:10119000204E6F726D616C4C806E672020784C80A1
:1011A0006E67200453494E474F534D5046494C54A7
:1011B000044E656420415620205570702003204164
:1011C00056202B3D203A3D036B6E316B6E326B6EB9
:1011D000336B6E34064578702020207846696E2087
:1011E0002046696E2020204D656469756D47726FD9
:1011F00076202001524554413132330550504D0084
:1012000020505858002044534D320050504D313634
:10121000465554002003504F534E4547032D2D2D66
:10122000783E30783C307C787C663E30663C307C62
:10123000667C0545444954205052534554412E5430
:1012400048520656696B7420204578706F20204BF9
:101250007572766120466173202020427279746134
:10126000724E8172202020202020202020084164FE
:10127000646572612020468272737481726B45725C
:10128000738174742020022B3D2A3D3A3D06508321
:10129000202020204156202020204F666673657450
:1012A000072D2D2D2D002020763E6F667320207691
:1012B0003C6F667320202876293E6F667328762956
:1012C0003C6F6673414E44202020204F5220202046
:1012D0002020584F522020202076313D3D7632206C
:1012E0007631213D76322076313E763220207631BD
:1012F0003C7632202076313E3D76322076313C3DC0
:101300007632200D53816B65726865742000202051
:1013100020547261696E6572200020202020496E81
:101320007374616E74205472696D2050697020006E
:10133000202020202020202052657365740020206A
:1013400020202020200654696D65723154696D6536
:101350007232416C6C20202054656C656D2E0656EF
:1013600061726E31205661726E322046807220208A
:101370002052696E672020536369466920526F626C
:101380006F742050697020202054616461202053C4
:101390007972736120536972656E20416C61726D60
:1013A000205261746174615469636B2020566962D4
:1013B000723120566962723220566962723320049B
:1013C0002D2D2D004131002041320020416C740050
:1013D00052706D004675656C7431002074320020C7
:1013E000537064004469737443656C6C54780020D6
:1013F0005278002041636358416363594163635AE3
:1014000048646700565370646131002061320020E7
:10141000414C540052504D005431002054320020B1
:101420005350440044495354546D7231546D7232D8
:101430004143430054696D650D4E6F6C6C61204DE6
:10144000697861720000456E6B656C20346B616E6B
:10145000616C004761736B6C6970706E696E6700D8
:10146000562D53746A817274202020200044656CCC
:10147000746176696E6765202000654343504D2096
:101480002020202020200048656C696B6F707465F7
:1014900072202000536572766F746573742020206B
:1014A0000005204D454E55204558495420204E6595
:1014B000642020557070488267657256816E73741F
:1014C0000347415353494448854A494430494431CC
:1014D000494432534B454C414E54524E4252314294
:1014E00052324252334252344252354252364252C2
:1014F000374252384252394252414252424252439A
:10150000045349442048854A2047415320534B45C2
:10151000205031202050322020503320204D41587F
:101520002046554C4C43594B3143594B3243594B50
:10153000330341562041425354487354482554487C
:1015400074074C50342F4C503544534D6F6E6C79AA
:1015500044534D5820202000113DE2314321782191
:101560001922D92240800804201002010029020219
:1015700000000000000602014B4F4E462E00546949
:101580006D6572004772816E7365722B2B00547209
:10159000696D6D61722B2B005472696D826B6E2EBA
:1015A0000046826C6A204761730047617354726918
:1015B0006D0043656E7465727069700050726F746F
:1015C0006F6B6F6C6C00750050504D206672616DD2
:1015D00065006D730052784E756D000002020202C4
:1015E00000545241494E4552202850504D20494EFA
:1015F0002900536C617600656666656B7420252052
:101600006B816C6C6100468272737481726B6E2E9A
:101610000043616C004D6F640042520000030303FD
:101620000303030303030303030303030347528476
:101630004E534552000002535045432E42525954D6
:1016400041524500000246554E4B2E4252595441DC
:1016500052450000000000000000000000000000F3
:10166000000000000000FF01494E5354844C4C4ED2
:10167000494E4741520053756D6D6572206C81670C
:10168000650053756D6D657220746964004B6F6EF3
:101690007472617374004261747465726976617208
:1016A0006E696E6700496E616B7469766974657402
:1016B000736C61726D004144432D66696C74657290
:1016C00000496E76657274657261642047617300CB
:1016D0004D696E7574706970004E656472816B6ED1
:1016E000696E677370697000506970207669642054
:1016F000626C696E6B004C6A7573627279746172A8
:1017000065004C6A757320617620656674657200A9
:1017100042696C6420766964207374617274004756
:1017200061737661726E696E67004272797461727C
:101730007661726E696E67004D696E6E6573766173
:10174000726E696E6700416C61726D7661726E696E
:101750006E67004B616E616C6F72646E696E6720BC
:101760005258009C1432465A5A4632465AECEC0003
:101770003C649CC4003C649C0000006446454C20D2
:1017800049204D454E5500204F4253005472796315
:101790006B206E656420656E206B6E617070005406
:1017A0007279636B206E656420656E206B6E61706C
:1017B00070000101020A3C01010414500101081EDD
:1017C0006402020F287805051E329644522F4558B0
:1017D000504F004272797461726500250003004623
:1017E0004C5947464153005472696D6D6172005403
:1017F0006F6E6120496E00546F6E61205574004D0C
:10180000414C4C4152004D4F44454C4C00524144D8
:10181000455241204D4F44454C4C004B6F7069651B
:10182000726172204D6F64656C6C00466C797474E3
:101830006172204D6F64656C6C004C616464617210
:10184000204D6F64656C6C004C656469677400467C
:10185000656C206920454570726F6D0041444445B8
:101860005241204D49580045444954455241204D6C
:101870004958004B816C6C610056696B7400446977
:1018800066666572656E7469616C004F6666736545
:1018900074005472696D004B7572766F7200466CFD
:1018A0007967666173005661726E696E67004156B2
:1018B00020004D756C747078004682726472826A82
:1018C0006E2E204E6564004682726472826A6E2EAD
:1018D000205570700054728267686574204E65648C
:1018E00000547282676865742055707000464C59C8
:1018F000474641534552005374616E6461726400FF
:101900004B6F6C6C61055472696D6D6172001124CE
:101910001FBECFEFD0E1DEBFCDBF11E0A0E0B1E050
:10192000E6E0F7EC02C005900D92A632B107D9F7B8
:101930001DE0A6E2B1E001C01D92AA33B107E1F7B4
:101940000E94B0570C9481630C94000080932A028B
:101950000895FC01808141FF02C0682B06C042FF50
:1019600003C06095682301C0682760830895EDE790
:10197000F0E08081857E808317981F9AAAE8B0E006
:101980001C9210928B0082E88C938081806280830D
:101990000895A3E1B1E0ED91FC9111978193ED934E
:1019A000FC9308954F925F926F927F928F929F92D5
:1019B000AF92BF92CF92DF92EF92FF920F931F935D
:1019C000CF93DF9300D000D0CDB7DEB78C01A0E07D
:1019D000B0E089839A83AB83BC832B01612C712C8B
:1019E00024E6822E912CA12CB12CA501940124195E
:1019F000350946095709BC01CD010E94C2626B013D
:101A00007C0192E3C90ED11CE11CF11C9801D801A4
:101A10000E94A7629B01AC0169817A818B819C81C4
:101A20000E94C2629C0144275527C301B2010E9453
:101A3000C26244E096958795779567954A95D1F768
:101A4000C60ED71EE81EF91EC701B601A5019401F6
:101A50000E940663C9010F900F900F900F90DF91C5
:101A6000CF911F910F91FF90EF90DF90CF90BF909B
:101A7000AF909F908F907F906F905F904F90089560
:101A80001F9341E0262F30E0683050F440E055E0ED
:101A9000529FF001539FF00D1124EC5DFA4F0AC0E4
:101AA0002850310959E0529FF001539FF00D112445
:101AB000E45BFA4F9C5F97FD0DC0811528E092070B
:101AC00084F0442319F088E090E002C084E090E0C4
:101AD000E80FF91F2081332727FD3095322F222769
:101AE00025C0442329F0492F9927880F991F03C047
:101AF000492F46959170242F30E0E20FF31F60814B
:101B000040E052E0481B590B5595479564039001FE
:101B1000659F300D11241181BC01759567951603E1
:101B2000A001179F500D1124240F351FC90169E131
:101B300070E00E94F262CB011F91089560912B0D1D
:101B40000C94400D8F708E3068F490E0FC01EE0F25
:101B5000FF1FE80FF91FEC50F34F83E6828380816B
:101B60008F7C808308950F931F93CF93DF931F92F1
:101B7000CDB7DEB78C01FC018081982F9F70990F43
:101B8000807F611103C09F70982B04C091609F708B
:101B9000982BF8019083F80181818F5F8183928176
:101BA0009923C9F080818F70B1F4933689F0842F26
:101BB000806249830E94A60CF801828149818031AC
:101BC00019F48181803120F0F80180818F7C80833D
:101BD000F80111821282F8012281283009F451C0E3
:101BE00058F4213009F456C0A0F0223009F449C05D
:101BF000243009F06AC045C02F35A9F120F4203106
:101C000009F063C03EC02136A1F0223609F05DC064
:101C100055C0F8018081982F9F709F3009F055C002
:101C200091E692839181913110F08F7C8083F8014D
:101C30004BC0842F80660E94A60C10923102109235
:101C400032021092330210923402F8019081892FEF
:101C500082958F708F5F83708295807F9F7C982B99
:101C600090838FE530C0F8018181883121F4842F81
:101C700080680E94A60CF8018181883231F580E1EC
:101C800022C0F8018181803328F030E03595279516
:101C900022831182F801228130E0215031096181D3
:101CA00070E026233723232B81F4842F80640F9048
:101CB000DF91CF911F910F910C94A60CF8018181B7
:101CC000803418F088E0828311820F90DF91CF91E9
:101CD0001F910F91089586B380958E77E1F70C944C
:101CE000A60C7093D20C6093D10C9093D00C80937F
:101CF000CF0C4F5F4093E102E39A80911302811170
:101D000002C00895A8958091E1021816DCF30895A9
:101D100040E450E060E070E083ED91E00C94710EDF
:101D200041E050E062E070E085ED91E00C94710ECE
:101D300060932A0190E1899FB001112441E050E0B5
:101D40008AE291E00C94710E93E0899FB001112416
:101D50006C5F7F4F282F30E0C901880F991F820FD9
:101D6000931F43E050E089529E4F0C94710EA99846
:101D7000AB98AC988BBBAD9AAD98AB9AA99A0895E5
:101D80001F93CF93DF9310E0C9E2D7E084E00E9475
:101D9000B70E80E10E94B70E812F806B0E94B70EB4
:101DA000A998AB9AAC98CE0180589F4FFE01219123
:101DB0002BBBAD9AAD98E817F907C9F7C058DF4FAC
:101DC000AB9AA99A1F5F183009F7DF91CF911F9145
:101DD0000895CF93C82F81E80E94B70E8C2FCF9122
:101DE0000C94B70E87FD59C047FF02C0640F4195A0
:101DF00067FF02C0460F60E0A42FBB27A7FDB09588
:101E0000A60FB11D67FDBA95A134B10514F040E4E9
:101E1000461B253511F460FF2AEA362F3595359596
:101E20003595E82FF0E050E83503E00DF11D112461
:101E3000E75DF84F6770B9F0A1E0B0E0062E01C091
:101E4000AA0F0A94EAF7A195A2238081A827A0836C
:101E5000E058FF4F6850460F06C08081822780837C
:101E6000E058FF4F48501416C4F3842F992787FD7C
:101E70009095089668E070E00E94F262882369F00D
:101E8000E058F10941E050E001C0440F8A95EAF7BB
:101E90004195422380814827408308952FEF0C9479
:101EA000F20ECF92DF92FF920F931F93CF93DF93A7
:101EB0001F92CDB7DEB7142F6034C8F587FF02C07C
:101EC000180F80E0C82EDD24C7FCD094F601E10F86
:101ED000F11DE138F10514F010E8181B862F8695E6
:101EE0008695869590E8899FC00CD11C1124E9E263
:101EF000F7E0CE0EDF1E677081E090E0F82E01C0A3
:101F0000FF0C6A95EAF711C020FF0AC0402F6F2D21
:101F1000C60129830E94A90C29812695206801C049
:101F200026951150FFEFCF1ADF0A1111EDCF0F9058
:101F3000DF91CF911F910F91FF90DF90CF90089587
:101F4000DF92EF92FF920F931F93CF93DF93C82FEF
:101F5000162FD42FD22EF02EE0FE17C080911F0D29
:101F600086FF13C023C0CF5FD250612F61506D0D2B
:101F700000E02F2D4D2F8C2F0E94510F2F2D4D2F14
:101F8000612F8C2F0E94510F11C02F2D4D2D612FCD
:101F90008C2F0E94F20E8C2F81502F2D4D2D612FF2
:101FA0008D0F0E94F20EE3FEDECFDFCFDF91CF91E7
:101FB0001F910F91FF90EF90DF900895262F2695A7
:101FC0002695269590E030E8239F800D911D1124E1
:101FD000875D984F2BE08932920750F4262F2770A7
:101FE00061E070E001C0660F2A95EAF70C94A90C35
:101FF0000895CF92DF92EF92FF920F931F93CF93AA
:10200000DF937C012EEE40E460E08EE50E94F20E4C
:1020100000E02EEE40E460E28EE30E94510FBFE349
:10202000DB2EC0E2DCEF1FE3C12E0FE310E0CE0198
:10203000F70109959C5F97FD01969C0135952795C1
:10204000C29EA001C39E500D1124452F55274695D1
:102050004695B801641B750B42E08D2D0E94DE0F82
:10206000A096D394FEE7DF12E2CFDF91CF911F91CC
:102070000F91FF90EF90DF90CF900895CF92DF9275
:10208000EF92FF920F931F93CF93DF93362F3695E6
:102090003695369590E010E8319F800D911D112402
:1020A000DC01A75DB84F20FF07C030911F0D36FF40
:1020B00007C021FD07C098C021FBFF24F0F804C031
:1020C000F12C02C0FF24F39422FF2BC074E1479F40
:1020D000A0011124465F5F4F3BE02870222319F0D6
:1020E00032301CF481C032303CF0FA0164913196F8
:1020F0004E5F5F4FE49102C0E0E060E0FF2011F02E
:102100006095E095CD018F579F4F89529B4030F4E9
:102110006C93ED01C058DF4FE88311963150F0F613
:1021200063C023FF0DC0FF2011F02FEF01C020E09E
:10213000FC01E75DF84F20831196EE24E39401C083
:10214000E12C15E0419FA0011124445150406770DB
:10215000262F30E0EFEFF0E0CF01062E01C0880F10
:102160000A94EAF7D82ED09488E090E0821B930B73
:10217000082E02C0F595E7950A94E2F7CE2EC0949A
:1021800075E0772329F0FA014F5F5F4FC49101C0DA
:10219000C0E0F110C095EE2011F0743019F1EBE0C1
:1021A000A932BE07F8F4D0E08E01022E01C0000F64
:1021B0000A94EAF7FC91FD21F00FFC93662389F065
:1021C000FD01E058FF4F1BE0E932F10750F4082E03
:1021D00002C0D595C7950A94E2F7D081DC21DC0FC7
:1021E000D0831196715068F6DF91CF911F910F91B6
:1021F000FF90EF90DF90CF90089520E00C943E1078
:10220000DC016C9312961C921E92119770E0FB01F8
:10221000EE0FFF1FE60FF71FED52FE4F848113965E
:102220008C93139714961C9210922C0D089590E0A5
:10223000FC01EE0FFF1FE80FF91FED52FE4F81E08A
:102240009481911101C080E00895EEECF2E090815C
:10225000982B90830895EDE4F6E020E030E0819142
:102260009191280F391F86E0E536F807C1F7C901BB
:102270000895DB01FC0104C080819C9191938D93B2
:102280004150D0F708952091BC0C32B78091BC0C1E
:102290002813F9CF922F80E0AC01432B9A01C9019A
:1022A000089590E0FC01E25CFD4F1082FC01EE0F0E
:1022B000FF1FDF01A85CBD4FE80FF91FE859FC4F75
:1022C000238534852D933C93FC01E45CFD4F108203
:1022D000089580E00E94511181E00C945111E4E1D5
:1022E000F2E020E0822F806487B9369A349BFECFDB
:1022F000349A84B195B1880F991F819391932F5F80
:10230000283081F70895A4E1B2E0EBE2F1E040E08B
:10231000842F806487B9369A208931898D919C9168
:10232000119796958795820F931F8E7F11969C9398
:102330008E9380819181820F931F96958795918BC3
:10234000808B349BFECF349A84B195B1208131814A
:10235000820F931F96958795819391934F5F129665
:102360004830B1F60895E82FF0E0E156F54FE491DA
:10237000F0E0EE0FFF1FEC5EFD4F20813181C901BF
:1023800008959C016330A1F034F4613051F064F49D
:10239000662391F120C06530A9F084F06630D9F44D
:1023A00016C097FF29C010C0181619062CF50CC0CE
:1023B00097FF22C03195219531091EC018161906C4
:1023C000B4F002C097FD16C020E030E015C018162A
:1023D000190684F40CC067FF06C0319521953109B8
:1023E00086E0861B682F6750C9010C94400D20E0E1
:1023F00034E002C020E03CEFC901089599E0899FD4
:102400009001112424583C4FC901089594E0899FFC
:102410009001112424513B4FC90108951F93CF937C
:10242000DF93182F882311F0CDE001C0CFE1D0E079
:102430008C2F112331F00E940612FC0190819370C1
:1024400005C00E94FE11FC0196819F779111DF5F0C
:10245000C150C7FFEDCF8D2FDF91CF911F91089510
:10246000CF93C82F0E940E12282F30E0C1110CC04C
:102470000FC084E89AE002C081E99AE09093350D9C
:102480008093340D81E008C02E30310594F703C0ED
:10249000203231058CF780E0CF9108959DE0899F2F
:1024A0009001112425513A4FC9010895EF92FF92EE
:1024B0000F931F93CF93DF93EA01E62EF12C870150
:1024C000000F111FF801E15DF44F0190F081E02D44
:1024D000309779F043383FEF530724F04D375105DB
:1024E00024F405C0C3E8DFEF02C0CDE7D0E0C0832D
:1024F0001FC00E944E12FC01EE0DFF1D9E0135957E
:10250000279535952795208323E030E0002E01C0E4
:10251000220F0A94EAF72095FC0134812323C3702B
:10252000DD2701C0CC0F0A95EAF72C0FFC012483AC
:1025300082E0DF91CF911F910F91FF90EF900C946B
:1025400025110F931F93CF93DF93062F10E0E8011F
:10255000CC0FDD1FFE01E15DF44F0190F081E02D15
:10256000309729F02081332727FD309517C00E942E
:102570004E12FC01E00FF11F4081FC012481332742
:1025800027FD309502C035952795CA95E2F723704F
:10259000332784E04802200D311D1124C901DF9149
:1025A000CF911F910F9108951F93CF93DF93182F11
:1025B000C62FD5E0CC2389F0612F8C2F0E94A11269
:1025C000853F21E092074CF0982F955F9C1708F00B
:1025D0009F5FD150C92F71F7C0E08C2FDF91CF9151
:1025E0001F910895882309F187FF06C0863E1CF0DD
:1025F000E0E6E81B1BC081958B311CF4E82FE05C02
:1026000015C085321CF4E82FEB5E10C0893244F40B
:10261000E82FFF27E7FDF095EE57F54FE49106C050
:102620008F321CF4E82FE95A01C0E0E28E2F0895A2
:10263000AF92BF92DF92EF92FF920F931F93CF93CF
:10264000DF931F92CDB7DEB7182FE62E5A01F22E78
:10265000802F8073898334E0D32ED0222EC0E9816D
:10266000E03119F0E03249F403C0F501808107C080
:10267000F50180810E94F21202C0F501849181115E
:1026800003C01093380D1CC01B37D8F7803260F0A0
:10269000202F482F6E2D812F0E943E10D11002C096
:1026A0001A5F07C0155F05C0982F990F980F990FF3
:1026B000190FFFEFAF1ABF0AFA94F110D0CFE1CF94
:1026C0000F90DF91CF911F910F91FF90EF90DF90CE
:1026D000BF90AF9008950F93022F2FEF0E94181311
:1026E0000F910895AB0120E0682F80E00C946B13EC
:1026F00020E00C946B130F93FA0194914F5F5F4F9E
:10270000929F400D511D1124292F0E9418130F91E3
:102710000895FF920F931F93CF93DF93D82F162F17
:10272000C42F022F411104C020E047E451E12EC024
:1027300040E4F42EF22226FD0AC0C63111F421E055
:1027400003C0CA3E21F420E040E451E11FC0C7FFAE
:1027500008C02EE548E0612F8D2F82500E94F20EB6
:10276000C195C6317CF0FF2011F085E101C086E102
:10277000C81B07FD07C0202F4DE6612F8D2F8E5EF1
:102780000E943E102C2F215040EC54E1612F8D2FE0
:102790000E947B13DF91CF911F910F91FF900895BD
:1027A0000F931F93CF93DF93D82F162FC42F022F91
:1027B00047FF09C084E0841BC82F41E28D2F86505B
:1027C0000E943E1008C0453034F4242F41E355E107
:1027D0000E947B130CC0202F20644C2F4450612F8B
:1027E0008D2FDF91CF911F910F910C948913DF9161
:1027F000CF911F910F9108950F934150022F242FD5
:1028000043EF51E10E947B130F9108950F93222310
:1028100011F002E001C000E0242F40E451E10E94E9
:102820007B130F910895E0919506F0E0E455F54F84
:10283000E491F0E024E030E0281B3109220F331F3F
:1028400002C0F595E7952A95E2F7E370FF278E2FF2
:102850008F5F08958E30910574F4FC01EE0FFF1F19
:10286000E80FF91FEC50F34F90819F7081E09F308B
:1028700009F44DC04BC08231910559F17CF48F3081
:102880009105E9F024F48E309105E1F535C08031F1
:10289000910579F081319105A9F515C08431910533
:1028A00059F004F18531910521F18631910551F5F9
:1028B00026C091B1947027C093B3907824C09091B2
:1028C0006300917020C09091630093FB992790F969
:1028D0000DC08091630083FF15C091B196FB9927CD
:1028E00090F911C091B196FB992790F981E0982752
:1028F0000AC091B1907107C093B3907404C091B1B4
:10290000907201C090E081E0911101C080E00895D3
:10291000CF92DF92EF92FF920F931F93CF93DF93AB
:1029200080917803877090910001981709F43FC057
:1029300080930001823021F50E94B70C1EBC88EC08
:1029400090E090937900809378008CE291E09DBDB7
:102950008CBD80EE9BEA97BD86BD87B7837C87BF21
:102960008CE386BF8FE380937C0087B7806287BF4C
:1029700080917D00816080937D001FBC8AE116C03C
:102980000E94B70C1EBC80E49CE99BBD8ABD1DBCA7
:102990001CBC87B7837C87BF8CE386BF8FE38093A3
:1029A0007C0087B7806187BF1FBC8AE08EBD8091A5
:1029B00078038770823009F07AC078948AE29CE0CC
:1029C000909314018093130180910101877489F021
:1029D00080917803859585958595859519F0813049
:1029E00029F402C080E803C080E901C088E980932F
:1029F0000101C0910101C7FF07C086E190E00E947C
:102A00002A14882309F4BBC08091450680930201F3
:102A1000A2EEB2E0E4E0F1E020E08D919D91959589
:102A200087959E5F97FD05C08F3F33E0930724F4A1
:102A300005C080E090E002C08FEF93E0EF012197A6
:102A4000322F330F330F392B388380832F5F329629
:102A5000263019F7C1E0D1E0199109E080E190E05A
:102A6000FF24F394F1229F1102C0805F05C08150C2
:102A70000E94C90C9F2D80E116951068015081F7C6
:102A8000815F0E94C90C41E0CF30D40729F78091C3
:102A900013019091140101979093140180931301F5
:102AA0008FEF0E94C90C80E00E94C90C61C0809128
:102AB000790385FF03C060E075E002C060E074E068
:102AC000D0907803D594D594D594D594DD0C88E036
:102AD000D80E80917A0324E68202C0011124885A1C
:102AE0009D4F1091430648EE53E014039001159F4B
:102AF000300D112428533045281B390BE2EEF2E04B
:102B0000C12CAAE2BCE000271127061B170BC8E561
:102B1000D2E0C81BD90B1EC04191519140175107FB
:102B200024F0461757071CF403C0A80101C0AB01ED
:102B3000405A564F7C01E40EF51E2E193F094C0FEA
:102B40005D1F11965C934E9313969C938E931297F0
:102B50001496C394CD10E0CF44E0C49EF00111243C
:102B6000E65DF34F31832083938382831582148241
:102B70008AE29CE0909316018093150104C0CF7700
:102B8000C093010141CFDF91CF911F910F91FF9031
:102B9000EF90DF90CF900895873038F4E82FF0E081
:102BA000EE0FFF1FE054FD4F48C0873009F44BC0C3
:102BB000883079F481E190E00E942A14811140C0AC
:102BC00082E190E00E942A148823E9F120E030E0BD
:102BD0003CC08C30D8F3803190F4E82FF0E0DF0176
:102BE000AA0FBB1FAB55B34FEE0FFF1FEA59F94FAA
:102BF0002D913C9180819181281B390B0AC0843131
:102C000058F4E82FF0E0EE0FFF1FEB55F34F208153
:102C10003181220F331F19C0843238F4E82FF0E0DD
:102C2000EE0FFF1FE652FD4F08C0863278F6E82F00
:102C3000F0E0EE0FFF1FE051FE4F2081318105C013
:102C400020E03CEF02C020E034E0C9010895EF929B
:102C5000FF920F931F93CF93DF93F82E811109C03A
:102C60008091280190912901892F881F8827881F2A
:102C7000EFC0282F332727FD309537FF03C031954C
:102C800021953109822F263109F4BFC02A3030F452
:102C9000C90199270D960E942A14B8C08A50282F7E
:102CA00030E0E901CC0FDD1FC20FD31FCC56DA4F45
:102CB0009A81992309F4AFC09A81953008F4ADC088
:102CC0009A81983008F4B3C062E0E62EA7C0209144
:102CD0002601309127012023312381E0232B21F588
:102CE0002EC02091280130912901202B312B3093C7
:102CF00029012093280188810E942716E82E8981C6
:102D00000E9427169A81953019F0963049F403C035
:102D1000EE20A9F002C0E11006C0811104C00FC06E
:102D20008E2569F001C081E02091260130912701B4
:102D3000202B312B309327012093260167C020914F
:102D4000260130912701009510950223132310933B
:102D500027010093260157C0898199E289029001D9
:102D60001124359527953595279587FD815C86FB40
:102D7000880F880B80F9281B310987FD33958A81DC
:102D8000823099F1833019F0813039F42AC017FF6D
:102D900027C011950195110923C017FF26C0119571
:102DA0000195110922C0898181500E94CC159C0196
:102DB0008A81893081F018F4883009F507C08A309B
:102DC00079F08B3091F08C30D1F414C081E002178F
:102DD0001307E1F018C081E002171307B9F413C01C
:102DE00081E02017310794F00EC081E0021713072D
:102DF0006CF009C081E00217130744F404C081E0BD
:102E0000201731071CF480E001C081E01F1404F199
:102E100091E089271DC080E01BC0E12C8881815092
:102E20000E94CC158C01EE2009F496CFBCCF01E0B6
:102E300010E002C0000F111F8A95E2F720912801CF
:102E40003091290120233123232B09F040CF49CF92
:102E5000DF91CF911F910F91FF90EF900895362F42
:102E600037953327379520E03093290120932801A7
:102E70000C94271660E080917D060E942F17811127
:102E800006C080919406811102C0C7980895C79A20
:102E900008950F931F93CF93DF93C1E0D0E00DE02F
:102EA0001C2F0C9FF0010D9FF00D1124E551FA4FDE
:102EB0008581882329F060E00E942F17811105C0C9
:102EC0002196C530D10561F710E0812FDF91CF91B8
:102ED0001F910F9108953F924F925F926F927F9250
:102EE0008F929F92AF92BF92CF92DF92EF92FF921A
:102EF0000F931F93CF93DF935C01862F98E0F5012A
:102F0000ABE4B1E001900D929A95E1F76F3F11F4B7
:102F10000E94491700E010E066246A94A4E6CA2ED5
:102F2000D12CE12CF12C812CB4E09B2E482E512C7D
:102F30008FEF481A580AE801CC0FDD1FCC0FDD1FB8
:102F4000C451DB4F2881822F837009F48BC02695F2
:102F50002695237030E0862D992787FD90952817B8
:102F6000390709F479C08981982F907E59F09A81A8
:102F700090FD08C082958695877090E048165906A6
:102F800009F06AC08981880F880F880F61E08595F4
:102F9000859585950E942F17882309F45DC0888147
:102FA000782E7694769493E07922A72DB0E0AA0F3C
:102FB000BB1FA55BBE4F0D90BC91A02DB7FF03C0FA
:102FC00080FD03C049C081FF47C0672C6B81772714
:102FD00067FD709561157105F9F03B2E331C3324A4
:102FE000331C19F0B195A195B10977FF0CC071950B
:102FF00061957109C4018A1B9B0B0E94D20CD401FC
:10300000A81BB90B04C0CD010E94D20CDC013320F7
:1030100019F0B195A195B1096881862F807F59F08B
:1030200062956F70862F90E00B970CF06C5FCD016E
:103030000E94C111DC012A81269530E00E94B36212
:10304000A70196010E942863F50182E0789EE00DB9
:10305000F11D1124208331830F5F1F4F0E301105A6
:1030600009F069CFDF91CF911F910F91FF90EF9001
:10307000DF90CF90BF90AF909F908F907F906F9098
:103080005F904F903F900895CF92DF92EF92FF9222
:103090000F931F93CF93DF93CDB7DEB728970FB66B
:1030A000F894DEBF0FBECDBF6C018091370D0E943A
:1030B00006127C018E010F5F1F4F88E0F80111920C
:1030C0008A95E9F7F7018081869586958370F801E6
:1030D00092E0899FE00DF11D1124D182C0826FEF33
:1030E000C8010E946B17F7018081869586958370D1
:1030F000F80192E0899FE00DF11D112480819181FA
:1031000028960FB6F894DEBF0FBECDBFDF91CF91EA
:103110001F910F91FF90EF90DF90CF9008959C0149
:1031200045E0359527954A95E1F7280F391FAC0101
:10313000440F452F441F550B241B350B892F990F26
:10314000990B8595280F391FC90108952F923F9239
:103150004F925F926F927F928F929F92AF92BF92A7
:10316000CF92DF92EF92FF920F931F93CF93DF9353
:10317000282EDDE48D2ED6E09D2E00E010E0312CCF
:1031800044244394512C92E3C92ED12CE12CF12CF0
:10319000802F043068F490912C02F80124E0929F73
:1031A000E00DF11D1124EC53F54F74907A9401C099
:1031B000702E0E94B3119C01D4018D919D914D01FF
:1031C000281B390BB901882777FD8095982FCAE015
:1031D000660F771F881F991FCA95D1F7121613061D
:1031E0002CF45A962D913C915B9703C0FD012485E8
:1031F00035852436310514F424E630E0442737FDC4
:103200004095542F0E942863E9012115FCEF3F07E8
:103210002CF0C13024E0D20724F405C0C0E0DCEF7C
:1032200002C0C0E0D4E08091920680FF06C032E088
:10323000731203C0D195C195D109A72CB12CF5010A
:10324000EE0FFF1FE054FD4FD183C083CE01D7FFA7
:1032500004C0882799278C1B9D0BE4E096958795E1
:10326000EA95E1F7823098F4811107C0942D0A2C79
:1032700001C0990F0A94EAF709C0C2010A2C01C0E3
:10328000880F0A94EAF79091370B9823392A83E044
:10329000871508F451C08091480B811146C0872DD5
:1032A0008F5E90E04097D20102C0AA0FBB1F8A95A3
:1032B000E2F7CD018160209126023091270282231E
:1032C0009323892B09F099C030C0A72DAF73B0E0CC
:1032D000CD01880F991F8354934FAD01440F551FA3
:1032E0004258594FDC012D913C91DA018D919C910E
:1032F000281B390BA181BB27A7FDB0950E949F62B7
:10330000A70196010E94286372947694769473E0E4
:103310007722872D90E08130910519F0029729F4EA
:1033200003C0C20FD31F01C0E901F501EE0FFF1F5B
:10333000E05CF44FD183C0830F5F1F4F073011054E
:1033400009F026CF622D80E49BE00E946B1700916C
:103350007803087060909206B1E06B2220E034E0C0
:103360008091440B9091450B281B390B6901EE2489
:10337000D7FCE094FE2C7090300228E3422E2BE024
:10338000522E10E0812C38E0932EA12CB12C622D0E
:10339000812F0E94D412612F0E94A112EC011230E1
:1033A000F9F40023E9F0662019F0D195C195D1090F
:1033B0009E01442737FD4095542F23583F4F4F4FD0
:1033C0005F4FC701B6010E94C262A50194010E942D
:1033D00028632115E8E03E074105510521F402C0AC
:1033E000711016C09E01220F331FD2012D933D9301
:1033F0002D011F5F143059F60EC0F501EE0FFF1FAF
:10340000EA57F94F7080872D807C09F05ECF8DCF11
:10341000C0E0D0E0E7CF832DDF91CF911F910F91D6
:10342000FF90EF90DF90CF90BF90AF909F908F90E4
:103430007F906F905F904F903F902F900895FF92F4
:103440000F931F93CF93DF93F62E1091370D8823A0
:1034500009F44AC0812F0E940612EC01012FFF20BF
:1034600011F0015001C00F5F188107FF09C0812FC3
:103470008C7009F46FC0812F869586958D5F0BC087
:103480000E3071F4812F8C708C3009F463C0812F61
:10349000869586958F5F8370880F880F137F4FC046
:1034A000802F0E940612BC01FC01808118271C702D
:1034B00011F48370B9F49881892F8695869583706D
:1034C000FF2029F0882309F445C08D5F04C08330B4
:1034D00009F440C08F5F8370880F880F937F982B0B
:1034E00098832FC044E030C0812F0E94FE11EC0170
:1034F000012FFF2011F0015001C00F5F188107FF5D
:1035000003C0812F8F7012C0003219F4812F8F7089
:1035100011C0802F0E94FE11BC01FC018081812717
:103520008F7089F0812F8F70FF2021F0882391F018
:10353000815F03C08F3071F08F5F8F70107F182B09
:103540001883C1E009C049E0CE010E9439110093FF
:10355000370DF7CFC0E003C082E00E9425118C2F09
:10356000DF91CF911F910F91FF900895682F8FECFD
:1035700092E00E9400111092D5021092D402089598
:103580001F93CF93DF9300D0CDB7DEB7182F81E123
:103590004A8369830E94B61A10920B026981629570
:1035A000607F60930C021093CF024A814093130214
:1035B0000F900F90DF91CF911F910895EF92FF929E
:1035C0000F93CF93DF93EA017901402F0E94C01A35
:1035D00080E18093D702D093DB02C093DA02F092AD
:1035E000D902E092D8021092DC020E9445528091EA
:1035F0001302882341F08091D702882321F0809123
:103600002C0D882391F3DF91CF910F91FF90EF90D4
:1036100008950F93CF93C82F81110E94F05380918A
:10362000CE0280FD05C08091CE0281FF1DC00FC07B
:1036300081508093CE020C2F2FE430E04CE456E012
:1036400061E080E00E94DE1AC111EDCF0DC0109242
:10365000CE02809179060C2F24EE32E048E653E04A
:1036600062E08F5F0E94DE1ACF910F910895CF9292
:10367000DF92EF92FF920F931F93CF93DF937C0122
:103680006B01C0E0D0E08091D50290E086010C1B78
:103690001D0B8017910708F48C0197012C0F3D1F1B
:1036A000A80160E070E0C9010E946163C00FD11FF2
:1036B0008091D502801B8093D50281113FC08091FB
:1036C000D40290E0A6014C1B5D0B8417950708F40B
:1036D000AC01B7016C0F7D1F8FEC92E00E94BE45DC
:1036E000C80FD11D9091D402981B9093D4029111D0
:1036F00025C041E050E064ED72E08FEC92E00E9462
:10370000BE458130D9F48091D40287FF0FC0282FA5
:1037100030E044E0359527954A95E1F72770332747
:103720002093D5028F708093D402ADCF86FFABCFAC
:103730008F738093D5021092D402A5CFCE01DF9172
:10374000CF911F910F91FF90EF90DF90CF90089550
:103750009AE0E3E5F1E0DF011D929A95E9F7803107
:1037600018F020E030E019C08F5F0E94B61A6AE0BE
:1037700070E083E591E00E94371B0A9791F78091F2
:10378000CF0290E0FC01EE0FFF1FE80FF91FE85297
:10379000FE4F20818181382F3F70C9010895CF935A
:1037A000C82F8031A0F48F5F0E94B61A64EE72E0D9
:1037B00088E693E00E94371B892B31F48C2F0E94FE
:1037C000135481E00E94091BCF910C946911CF9191
:1037D0000895FF920F931F93CF93DF93FA01049103
:1037E000DA0112963196449150E0495F5F4F73E0E1
:1037F000559547957A95E1F7F42E209F9001112475
:10380000249FF001259FF00D349FF00D1124AE0F81
:10381000BF1F66956695669590E0F0E86F9F800DF6
:10382000911D112440E050E010E0602F70E015C0C1
:10383000EA01C80FD91FC75DD84F9D0105C0F90126
:103840002F5F3F4FE491E993E22FEA1BE017B8F3B3
:10385000A60FB71F1F5F40585F4F1F1548F3DF913A
:10386000CF911F910F91FF9008950F931F93CF93C6
:10387000DF93C62F122FD02F202F2F7E0E946B1385
:10388000202F206802E0412F50E06C2F8091380DEE
:103890000E94AA4FD7FF0AC04AE36C2F8091380DCF
:1038A000DF91CF911F910F910C94FD10DF91CF917B
:1038B0001F910F9108950F931F93CF93DF93D82FEC
:1038C000162FC42F022F47FF07C041E286500E94E7
:1038D0003E1086E08C1BC82F2C2FC7303CF44CE1E7
:1038E00052E1612F8D2F0E947B1307C026504CE6BA
:1038F0005FE0612F8D2F0E94351CDF91CF911F91CA
:103900000F9108950F931F93CF93DF93D82F162F06
:10391000C42F022F411106C020E047E451E10E946C
:103920007B1310C047FF06C02EE548E082500E947E
:10393000F20EC1952C2F21504EE65FE0612F8D2FA6
:103940000E94351CDF91CF911F910F9108950F9325
:10395000FA013A969AE03291332381F00CC000616B
:103960002F5F41E75FE00E94351C0BC000622AE038
:103970000E94181306C09111F9CFF1CF915079F33D
:10398000EACF0F9108950F93022F411104C020E058
:1039900047E451E118C0242F4D3020F4215040E07D
:1039A00055E111C0453120F42C5048E75FE005C0D7
:1039B000453230F424514CE75FE00E94351C05C0CD
:1039C00024524FEB53E10E947B130F9108954A302C
:1039D00008F406C04F3118F449500C94891345512E
:1039E0000C94C31C942F9150903118F44C5E0C949D
:1039F000C31C0895CF92DF92EF92FF920F931F9313
:103A0000CF93DF931F92CDB7DEB7382FF62E6A0122
:103A1000122FE02E27FD3E5ED7FE12C012FF02C01D
:103A200087E001C085E0212F4DE26F2D932F981B79
:103A3000892F39830E943E10D194C194D1083981D5
:103A4000212F2069C6016CE370E00E94F262AB0195
:103A50006C0102E06F2D832F0E94AA4F2E2D21238F
:103A600012FB112710F98091380D4AE36F2D811B4D
:103A70000E943E102E2D20698091380DA6016F2DD9
:103A80008A5F0E94AA4F0F90DF91CF911F910F91F3
:103A9000FF90EF90DF90CF9008950F931F93CF93F7
:103AA000DF93C82F22E04FE75FE060E080E00E94F4
:103AB0006B13C13658F0C33628F0C33639F480E0B2
:103AC00090E202C080E39BE20E94C6474AE85FE0C2
:103AD00068E086E00E9478134091380250913902E4
:103AE00000E020E068E08EE10E94FA1C40913A027A
:103AF00050913B0220E068E088E40E94FA1C42E911
:103B00005FE060E186E00E9478134091BA02509134
:103B1000BB0220E060E18EE10E94FA1C4091BC02F1
:103B20005091BD02E4E056954795EA95E1F720E013
:103B300060E188E40E94FA1C4AE95FE060E086E602
:103B40000E9478134091BE025091BF0220E060E0D5
:103B500088E40E94FA1CC0914002CC0FCC0B8091EB
:103B6000B902C8234EE76CE382E00E94A34F43E210
:103B70006CE185E00E944E0FDBE043E06BE38D2FAC
:103B80000E944E0FDA5FD338C1F7D6E01CE3EC2F6A
:103B9000F0E0EF5BFD4F4081612F641B8D2F0E9491
:103BA0004E0FCF5FC83708F0C0E08091B902C81748
:103BB00019F0DF5FDE3759F7DF91CF911F910F9139
:103BC00008950F9300E00E94AA4F0F9108954F921D
:103BD0005F926F927F928F929F92AF92BF92CF929D
:103BE000DF92EF92FF920F931F93CF93DF9300D05A
:103BF000CDB7DEB7182F22E04FEF5FE060E080E046
:103C00000E946B1340912B0D50E04F5F5F4F22E8F5
:103C100060E08FE10E94E11D80912B0D282F30E0A4
:103C2000883078F02850310989E0829F3001839FE5
:103C3000700C11248CE495E0680E791E89E0982EB2
:103C40000CC085E0829F3001839F700C1124A4E298
:103C5000B5E06A0E7B1E05E0902E113609F46CC0AB
:103C600040F4153409F47EC0103671F01434D9F4E0
:103C700086C0153609F476C01F3B19F0143699F446
:103C80007EC01092290B5FC08091BB0C18165CF0AF
:103C900080912802813061F018F0823021F43FC019
:103CA00081E08093BB0C2301730190EE00E097C08C
:103CB0008091290B8F5F85300CF401C08CEF8093CD
:103CC000290B4091290BB2E34B0270011124062D00
:103CD000292D269530E03195219531094203C00107
:103CE000439F900D112422E3289F5001299FB00C7F
:103CF0001124F30120E030E0C92CD12C81E0C81A56
:103D0000D108C9018A0D9B1DB6010E94F262619320
:103D10002E0D3F1D8E2F801B891598F3C4CF8CE983
:103D2000D3018C93F301E90DF11D319784E6808373
:103D300081E080932A0BB7CF81E60E94A20D80918B
:103D40002A0B882319F010922A0BADCF8091BB0C5F
:103D500018162CF4109228021092BB0CA4CF0E94CB
:103D60009D46A1CF80912A0B81119DCF8091280281
:103D7000882309F498CF81508093280294CF8091B2
:103D80002A0B811190CF00912802E02EF12C809116
:103D9000BB0C18162CF4292D30E0215031091AC023
:103DA000E0912F02F0E0EE0FFF1FE756F94F208160
:103DB00031812C5B3D4461F48091370D0E940612E5
:103DC000FC0180818C70883019F422E030E002C060
:103DD00021E030E0E216F3060CF4C2C064CF692F94
:103DE000053018F4685D88E101C080E32091BB0CC8
:103DF000121624F420912802201711F020E001C0AF
:103E000022E0D7014D917D01552747FD50959A83BA
:103E10000E94E11D0F5F9A81985F091500F345E14B
:103E200056E168E380E00E9478139091BB0C19166C
:103E300014F400E005C080912A0B8111FACF02E052
:103E400081E019160CF480E020912802829F202D39
:103E5000112442E352E168E38CE10E947B138091DC
:103E6000BB0C18167CF4892C8694712CE12CF12C57
:103E7000C12CD12CF8E3AF2EBB24BA94AEE96A2E44
:103E8000610E1AC080912A0B8111EDCF8EE99DE061
:103E90000F900F90DF91CF911F910F91FF90EF90B6
:103EA000DF90CF90BF90AF909F908F907F906F905A
:103EB0005F904F900C94F90F4E2DC601682D772D11
:103EC0000E94F262E62FD2012C91BFEFEB1AFB0A9F
:103ED000FFE32F0290011124C9018456974EB501CA
:103EE0000E94F26220912A0B222359F030E02E1515
:103EF0003F0561F5635C00E025E045E08E2F845CC2
:103F000023C090912802941319C0635C00E025E05F
:103F100045E08E2F845C0E94015181E0861520F4DB
:103F2000123411F0133491F424E64CE9D2016C916F
:103F3000812F0E94A847F201808308C0625C00E0E4
:103F400023E043E08E2F835C0E940151F0E2CF0E0C
:103F5000D11C8FEF481A580AE91408F4ADCF96CF58
:103F60000F5F009328029FCECF93DF93D62FC22FEF
:103F7000922F9073903311F420E001C020E22C2B9B
:103F80002F7B6D2F0E94E11DC6FD09C02C2F46E737
:103F90006D2F8091380DDF91CF910C943E10DF9101
:103FA000CF9108951F93CF93DF93182FD62FC42F4F
:103FB000242F462F50E060E080E80E94E11DDA30B7
:103FC00010F08FE601C085E72C2F4FE260E00E94E1
:103FD0003E10E12FF0E0AF014F5F5F4FDA3010F09D
:103FE0008FE601C085E72C2F60E0DF91CF911F9114
:103FF0000C94E11D552747FD509520E00C94E11DE0
:10400000CF93C82F22E04EE95FE060E080E00E949D
:104010006B13C236B1F028F4C03631F0C136C1F4AA
:1040200013C0C336A9F410C08FEF8093CD0C10924B
:10403000CE0C109266031092650380E00E94354614
:1040400007C08DE49DE102C080E39BE20E94C64769
:1040500044EA5FE068E080E00E9478134091CE0C73
:10406000469568E08AE50E94FA1F43EB5FE060E155
:1040700080E00E9478134091CD0C469560E18AE57E
:104080000E94FA1F42EC5FE068E180E00E94781332
:104090004091CE0C50E08091CD0C481B510957FF48
:1040A00002C04F5F5F4F5595479568E18AE50E94D2
:1040B000FA1F41ED5FE060E280E00E94781380919A
:1040C00065039091660324E6289FA001299F500D67
:1040D000112424E0569547952A95E1F720E360E204
:1040E0008AE50E94E11D4EED5FE060E380E00E9402
:1040F00078138BE39DE0FC01019620812535D9F3EF
:10410000AF014A535D4028E060E38BE60E94E11D69
:104110004FEE5FE068E382E1CF910C9478136F92E9
:104120007F928F929F92AF92BF92CF92DF92EF9247
:10413000FF920F931F93CF93DF93C82F00E12AE0E4
:104140004CE251E166E00E94C940882309F48CC02A
:1041500022E04BE650E160E080E00E946B13C090EB
:104160002902CA94C03611F0C43641F4C7FC06C017
:10417000C0922B0D87EE9DE10E94C046A12C912C90
:10418000BB24B39418E0DD24C7FCD09495E0892EBD
:1041900029E0722E2091BA0C2A0DE22EF12CCE14B9
:1041A000DF0411F402E001C000E0662463942830CB
:1041B00028F4612C87E08B1528F44FC0E6E0EB155E
:1041C00008F44BC0911001C0902E2F5F42E750E1E0
:1041D000612F80E00E94351C662059F0F8E0EF1A4C
:1041E000F1087E9CE0017F9CD00D1124C45BDA4F66
:1041F00007C08E9CE0018F9CD00D1124CC5DDA4F5E
:104200007E010CE2F70141917F01552747FD509552
:1042100020E0612F802F0E94E11D0B5E053991F790
:1042200088E0F82EF10E611003C0B3941F2D11C069
:1042300025960CE24991552747FD509520E06F2DBA
:10424000802F0E94E11D0B5E0038A1F7105FB39430
:10425000B394A394F7E0AF129DCF911005C0809165
:10426000BA0C8F5F8093BA0CDF91CF911F910F91A1
:10427000FF90EF90DF90CF90BF90AF909F908F9086
:104280007F906F9008950F9300E026E048E555E198
:1042900062E00E94C940882349F122E045E750E1ED
:1042A00060E080E00E946B136DE770E180E10E94A6
:1042B00072136BE870E188E10E9472136DE970E19E
:1042C00080E20E9472136EEA70E188E20E9472132B
:1042D0006DEB70E188E30E94721340914C0620E878
:1042E00050E068E380E30F910C94E11D0F91089575
:1042F000CF92DF92EF92FF920F931F93CF93DF93B2
:104300001F92CDB7DEB700E026E048E555E163E057
:104310000E94C940882309F482C022E046EC50E1A3
:1043200060E080E00E946B134EE0C42ED12C10E0C0
:104330004C2D8C2D8E50012F843008F00850C60172
:1043400049830E942A14F82E49814D5020E0602FA5
:1043500080E30E948913FF2011F022E001C020E0D9
:104360004F2D405D602F84E40E943E10185F8FEF58
:10437000C81AD80A1834E1F618E3C12CD12CC601AA
:104380000E942A14F82E00E02C2D41EA54E1612FFE
:1043900080E00E947B134F2D405D2F2D612F80E226
:1043A0000E943E10EFEFCE1ADE0A1850183039F78F
:1043B0004EEC50E168E184E50E94781336E0C32EAC
:1043C000D12C10E2202F45E050E1612F84E50E94BE
:1043D000E91BC6010E942A14E82EC60101960E941C
:1043E0002A14F82EEE2011F022E001C020E04E2D1C
:1043F000405D612F8CE60E943E10FF2011F022E00C
:1044000001C020E04F2D405D612F88E70E943E10E3
:104410000F5F185FF2E0CF0ED11C043099F60F90B9
:10442000DF91CF911F910F91FF90EF90DF90CF9090
:1044300008956F927F928F929F92AF92BF92CF9288
:10444000DF92EF92FF920F931F93CF93DF931F9210
:10445000CDB7DEB7982E01E026E048E555E164E0EF
:104460000E94C940882309F494C022E046ED50E13F
:1044700060E080E00E946B1360EC662E62E0762EB6
:10448000B12C812CC12C74E0D72EE12CF12CA82C5E
:10449000A39400E02A2D4AED50E16B2D88E10E94A3
:1044A000351C882D0E94B3118C0194E49550A8010D
:1044B0004F7055274A302CF0495C41341CF028E0FD
:1044C00002C0405D20E06B2D892F99830E943E1031
:1044D00054E0169507955A95E1F79981903331F795
:1044E00047E0841689F0F301A081B18124E630E031
:1044F0000E94B362A70196010E942863422F6B2D90
:1045000086E60E94FA1F0FC080912902813011F4C3
:1045100022E001C020E040913502509136026B2D1F
:1045200086E60E94B41FF8E0BF0E42E0640E711CE4
:104530008A2CAF12ACCF4CED50E168E282E70E94CA
:104540007813409163035091640320E060E38EE7A9
:104550000E94E11D87E00E94B31123E2FC012E9F1F
:10456000C0012F9F900D1124492F469520E250E065
:1045700068E38EE70E94E11D80912902813049F4B1
:104580002FE741E860917C06892D0E94B747809310
:104590007C060F90DF91CF911F910F91FF90EF90CC
:1045A000DF90CF90BF90AF909F908F907F906F9053
:1045B0000895DF92EF92FF920F931F93CF93DF93B3
:1045C000F82E00E026E048E555E165E00E94C9408C
:1045D000882309F4D4C022E04FED50E160E080E090
:1045E0000E946B13C1E6D1E010E0812F0E94B3114D
:1045F0009C0148815981841795070CF4AC014993BB
:1046000059934C855D85421753070CF4A9015D87CA
:104610004C871F5F173049F7C0912E0BC0932B0BAF
:1046200080E2F81621F08FEBF8120CC009C08C2F35
:104630008F5F80932E0B833029F481E00E94251137
:1046400010922E0B80912E0B813061F020F0823081
:1046500009F08CC02FC04BEE50E168E182E10E946E
:10466000781384C0CC2311F022E001C020E04AEF8F
:1046700050E160E18EE10E946B1345E051E168E199
:1046800082E10E947813C3E5D1E0D12C18E9E12E34
:104690001AE3F12E08E615ECFF86EE861D8F0C8FCF
:1046A0008D2D0E94B31189939993D39487E0D812EA
:1046B000F3CF5CC0CC2311F022E001C020E045E143
:1046C00051E160E182E10E946B1345E051E168E154
:1046D00082E10E947813E1E6F1E0ADE4B6E0619199
:1046E0007191848595859B01281B390B37FF03C089
:1046F0003195219531092333310564F1EF0160973C
:104700004881598111965C934E939A01261B370B71
:10471000B90137FF02C0615C7F4FD6E075956795A0
:10472000DA95E1F7261B370B1F963C932E931E97C5
:10473000841B950B9C0197FF02C0215C3F4FC6E094
:1047400035952795CA95E1F7821B930B5D969C934F
:104750008E935C97129681E0EF36F80709F0BFCF91
:104760000E942B119093780680937706DF91CF916A
:104770001F910F91FF90EF90DF900C94202ADF9112
:10478000CF911F910F91FF90EF90DF9008952F929E
:104790003F924F925F926F927F928F929F92AF92D1
:1047A000BF92CF92DF92EF92FF920F931F93CF931E
:1047B000DF9300D01F92CDB7DEB7382E698380918A
:1047C000340D9091350D892B11F010E001C0198145
:1047D000BFE1FB2EF1228091320D882331F021E0E0
:1047E000D12EF21203C0DA9401C0D12E332019F079
:1047F0004BEC57E102C04DE550E122E060E080E083
:104800000E946B13832D0E940E129091380D20E0B0
:10481000482F50E060E0892F815F0E94E11D332026
:1048200019F043E650E102C047E650E160E08091B4
:10483000380D0E947813009112010150332011F0BD
:1048400063E001C064E02AE04CE251E18D2D0E945A
:10485000C940882309F471C440902902143680F4B9
:10486000123608F003C1113269F120F4103209F058
:104870006DC152C0812F8254823008F067C1F6C0EA
:10488000163850F4143808F0A0C0103809F472C07B
:10489000113809F05BC106C0812F8E5B823008F0B1
:1048A00055C16FC08091320D882349F08091310D40
:1048B000811105C06091370D832D0E94844181E8EC
:1048C0000E94A20D8091310D882309F45AC0809175
:1048D000320D813031F46091370D832D0E94844177
:1048E00016C061E08091310D18160CF060E0832D48
:1048F0000E941F1A8091310D87FF02C08F5F01C097
:1049000081508093310D8091310D8111EACF40901B
:10491000300D4092290235C08091390D882341F035
:104920008091320D882331F18091310D811122C0A7
:104930008091320D813011F482E001C081E08093DA
:10494000320D8091370D80932C0B332041F00E9463
:104950000612DC018C9186958695837005C00E94B5
:10496000FE11FC0180818F708F5F80932D0B409230
:10497000300DECC0812F0E94A20D8091310D882353
:1049800029F01092320D1092310DE0C08091320D5D
:1049900081111092390D8091390D882351F0832DAA
:1049A0000E9430128111D2C06091370D832D0E9478
:1049B0002745332019F08CEB9DE402C08FE195E58B
:1049C0000E94C0461092320DB8C38091320D8823E8
:1049D00009F4BCC08091310D8111B8C0832D0E94B3
:1049E00030128111B3C08091370D332041F00E9405
:1049F0000612DC018C9186958695837005C00E9415
:104A0000FE11FC0180818F708F5F8093390D143807
:104A100029F48091370D8F5F8093370D6091370DAA
:104A2000832D0E942745332019F08CEB9DE402C0B2
:104A30008FE195E50E94C0461092320D812F0F90B4
:104A40000F900F90DF91CF911F910F91FF90EF90FA
:104A5000DF90CF90BF90AF909F908F907F906F909E
:104A60005F904F903F902F900C94A20D8091320D4B
:104A7000882309F46BC09091310DF3E0092FFF12E8
:104A800002C0015001C00F5F911144C0813009F094
:104A900053C0832D0E943012811158C08091370D70
:104AA000C82ED12C332071F00E940612A601409529
:104AB0005095425F5F4F440F551F440F551FBC0177
:104AC00004960FC00E94FE11C094D09420E2C20E42
:104AD000D11C29E02C9DA0012D9D500D1124BC015D
:104AE00009960E944F6382E00E94251182E0F8122D
:104AF00004C08091370D8F5F1CC08091BA0C242DAB
:104B000030E0281B310926303105F4F08F5F8093A7
:104B1000BA0C1AC0011110C0813071F46091370DC8
:104B2000832D0E948441A3E0FA120EC08091370DBC
:104B300081508093370D08C061E0B3E0FB1260E064
:104B4000832D0E941F1A81110093310D1092390D8F
:104B500055245394212CFF24F394A8C2EDE0E215D0
:104B600008F4DAC2822D0E9406124C01DC012C915D
:104B7000822F86958695837090E001968A159B0515
:104B800009F0CAC2237009F0BCC2C6C2BFE1B215A7
:104B900008F4C2C2822D0E94FE116C01FC018681C4
:104BA0008F7709F4B9C280818F7090E001968A15E1
:104BB0009B0509F0B1C2A8C22F2D30E0281B310996
:104BC0002830310574F4622F660F660F660F20E0FF
:104BD000452D80E0332019F00E94C31C02C00E94C2
:104BE000F21C622C03C04C016B01F42E8091320D3B
:104BF0008823E1F1823081F58091BA0C8F1560F540
:104C0000EF2DF0E0E81BF109E830F1052CF580917B
:104C10002D0B851121C02091310D2223E9F0862D25
:104C200090E040912C0B332727FD30952227330F3E
:104C3000221F3327240F311D8217930769F46E2F2B
:104C4000660F660F660F6150E12C05E529E04AE624
:104C500086E10E94A00FF3948091370D86110BC05E
:104C6000F09229025092390D4F2C05C04F1003C00D
:104C70006092370DF42C8091BA0C8F1508F06FC13B
:104C80002F2D30E0281B3109283031050CF067C189
:104C9000722E770C770C770C862D332009F4B1C077
:104CA0000E9406129B838A838091320D811102C07B
:104CB0004F1411F000E001C002E0AA81BB811296FE
:104CC0004C914695202F50E0672D82E20E94E11D15
:104CD000002399F0EA81FB816281669524E640E039
:104CE000812F0E94A847880FAA81BB8112969C91B0
:104CF00012979170982B12969C93AA81BB81139660
:104D0000EC914E2F552747FD509520E0672D87E306
:104D10000E94E11DEA81FB81828141814295469595
:104D2000477080FD419520E0672D8CE30E94821C36
:104D3000AA81BB8111964C91440F440F440F4595B5
:104D40004595459520E0672D82E50E948913EA810B
:104D5000FB8180818370833049F0823011F44EE70B
:104D600001C04FE7672D86E60E94FD10AA81BB8136
:104D70002C91822F807F79F022952F70822F90E0E6
:104D80000B9714F044E001C040E0420F20E0672D93
:104D90008EE60E945B1C4091320D442309F4DFC073
:104DA000413021F08091310D811123C080912D0B74
:104DB00085111FC0862D90E050912C0B2091310D54
:104DC000332727FD30952227330F221F3327250F46
:104DD000311D8217930769F4413011F40FEF01C0C0
:104DE00005E5672D6150E12C29E04EE682E10E9445
:104DF000A00FF410B4C000E027E04CE6672D83E17B
:104E0000ACC00E94FE119B838A83621469F0FC018E
:104E10002281229526952695237000E046E852E1EE
:104E2000672D86E00E947B13AA81BB8116964C9168
:104E30004F7720E0672D8AE10E94E71C8091320DB8
:104E4000811102C04F1411F000E001C002E0AA81FC
:104E5000BB811196EC914E2F552747FD5095202F81
:104E6000672D89E40E94E11D002361F02DE743E8EE
:104E7000EA81FB816181812F0E94A847AA81BB81C1
:104E800011968C93EA81FB814381842F8F7349F0C3
:104E9000440F440F4595459520E0672D8FE40E940F
:104EA0005B1CAA81BB8112964C91842F8F7349F0B1
:104EB000440F440F4595459520E0672D86E60E94F6
:104EC0008913EA81FB818581811102C040E201C022
:104ED00043E5AA81BB8114968C91882329F0433540
:104EE00011F44AE201C044E420E0672D8BE70E9400
:104EF0003E104091320D442391F1413021F08091D8
:104F0000310D811123C080912D0B85111FC0862D7D
:104F100090E050912C0B2091310D332727FD3095D7
:104F20002227330F221F3327250F311D82179307A6
:104F300069F4413011F40FEF01C005E5672D6150B0
:104F4000E12C29E04AE686E10E94A00FF41007C098
:104F500000E027E048E6672D87E10E9401514F2DD0
:104F60004F5F6394B601675F7F4FC401049633209F
:104F700099F0BDE0B61510F1F4015481252F269566
:104F80002695237030E02F5F3F4F2A153B05B1F483
:104F9000537009F028CE12C0FFE1F61578F0D60163
:104FA0001F962C911F972F7749F01996EC91EF706F
:104FB000F0E03196EA15FB0509F415CE8091320D2B
:104FC000823009F070C08091BA0C841708F06BC071
:104FD000E42FF0E0E81BF109E830F1050CF063C0C4
:104FE00080912D0B85115FC0A62DB0E080912C0B18
:104FF0002091310D332727FD30952227330F221FB3
:105000003327280F311DA217B30709F04CC06E2FAC
:10501000660F660F660F6150E12C05E529E04AE650
:1050200086E10E94A00F4F2D4E5F3DC02092370DAC
:105030005092390D8091320D811171C022E0809122
:10504000BA0C8F1568F5CF2CD12CF601E81BF109AD
:10505000E830F1052CF56E2F660F660F660F452DB3
:1050600080E0332019F00E94C31C02C00E94F21C91
:105070008091320D8230A1F480912D0B851110C0EA
:105080008091BA0CB601681B7109660F660F660F36
:105090006150E12C05E529E04AE686E10E94A00F77
:1050A0004F2D4F5F622C5394262CF42EA52CB12C3F
:1050B00031103DC036C0F0921201242D30E08F2D0A
:1050C00090E00197281739071CF0FA94F092290212
:1050D0008091340D9091350D892B79F10E943751D3
:1050E00046E550E168E280E10E947813B981B1366B
:1050F00021F581E60E94A20D1092350D1092340D1B
:105100001CC0C12CD12C02C0812C912C8091BA0CD6
:105110008F1508F451CD65CD4F1409F487CF20E0E9
:105120008ECFE1E1AE16B1040CF430CDC4CFF5E082
:10513000AF16B1040CF412CDBECF0F900F900F90AC
:10514000DF91CF911F910F91FF90EF90DF90CF9063
:10515000BF90AF909F908F907F906F905F904F9097
:105160003F902F900895AF92BF92CF92EF92FF920F
:105170000F931F93CF93DF931F92CDB7DEB7982F76
:10518000862F5A010115110559F0409129023E2D33
:105190004E1508F4342FF801E30FF11DF49001C00F
:1051A000F12CA114B10409F43FC03091290231114E
:1051B00031C030912B0B31112DC0943659F09536FA
:1051C00011F0E82F14C0882311F0E82F01C0E22F5E
:1051D000E1500DC0A82FB0E0422F50E041505109DE
:1051E000A417B5071CF4E82FEF5F01C0E0E0FF272C
:1051F000E7FDF095482F50E0E417F50769F0EE0F52
:10520000FF1FEA0DFB1D25913491C9010E94C6477D
:1052100080E00BC140E001C042E010922B0B622FF6
:1052200099830E94D21F9981903659F188F4933462
:1052300009F4AFC030F4913299F1923409F0D5C03D
:1052400088C0943409F448C0953409F0CEC069C0D0
:10525000943609F44CC038F4923609F47FC0933682
:1052600009F0C3C09AC09138C1F09F3B21F0953638
:1052700009F0BBC05BC010922802109229028FEF88
:1052800009C01F140CF0B1C081E09091BB0C19163D
:105290000CF480E08093BB0CA8C01092BB0C0EC035
:1052A0008091BB0C18161CF41092BB0C9EC0809110
:1052B0002902882319F0A114B10419F40E949D4613
:1052C00094C080E00E943546109228021092290274
:1052D00080E680931F0D8BC02091280230E08F2D37
:1052E000992787FD90952817390709F47EC0012B6F
:1052F00009F47BC08091BB0C18160CF476C0209189
:105300002802822F90E0EF2DFF27E7FDF0958E1702
:105310009F0724F42F5F2093280264C01092280274
:1053200061C080912802882309F45FC0012B09F431
:105330005CC08091BB0C18160CF457C080912802F9
:10534000882321F08150809328024CC0F0922802DB
:1053500049C0809129028C1509F447C08091BB0C8B
:1053600018160CF442C0809129028C1510F48F5F3E
:1053700001C080E00115110509F41DC0982FE81641
:1053800008F49E2DF801E90FF11DE491EF3F69F358
:1053900020C080912902882341F18091BB0C18160E
:1053A00024F180912902882311F0815001C08C2DB5
:1053B0000115110521F480932902E0E00CC0982F1B
:1053C000E81608F49E2DF801E90FF11DE491EF3F76
:1053D00051F380932902809128028E1708F4E82F58
:1053E000E093280280E680931F0DAB2811F057E070
:1053F00001C056E040912902411103C01092BA0C3D
:1054000013C0842F90E02091BA0C821B9109252FA4
:1054100030E02817390714F4451B04C01816190684
:105420001CF041504093BA0C81E00F90DF91CF9176
:105430001F910F91FF90EF90CF90BF90AF90089584
:10544000AF92BF92CF92DF92EF92FF920F931F9392
:10545000CF93DF93E12C0FEF27E147E161E28FE18A
:105460000E94A00F27E147E161E28BE40E94A00FB8
:1054700043E06BE28AE20E944E0F43E06CE289E275
:105480000E94A34F43E06BE286E50E944E0F43E08B
:105490006CE285E50E94A34F20912C0284E0289FB6
:1054A00090011124F901EB53F54FE491AE2FB0E0D8
:1054B000AA0FBB1FA254BD4F8D919C9140919206A3
:1054C00040FF03C0E33009F4B8C0F901EC53F54FD5
:1054D000E49122E1289FB001299F700D112477FFEC
:1054E00002C06150784F60E27602612D770B112483
:1054F000719561957109665DF0E0EE0FFF1FE25452
:10550000FD4F2081318142E1429FC001439F900DB8
:10551000112497FF02C08150984F80E29802812D9C
:10552000990B1124D8E0ED2E0FEF25E045E0885DC2
:105530000E94A00F20912C0230E0F901EE0FFF1F16
:10554000EE0FFF1FEA53F54FE491AE2FB0E0AA0F24
:10555000BB1FA254BD4F8D919C914091920640FF7C
:1055600003C0E33009F46DC0F901EE0FFF1FEE0F29
:10557000FF1FE953F54FE49122E1289FB001299FD5
:10558000700D112477FF02C06150784F60E27602FF
:10559000612D770B1124719561957109665DF0E0BD
:1055A000EE0FFF1FE254FD4F2081318142E1429F07
:1055B000C001439F900D112497FF02C08150984F66
:1055C00080E29802812D990B112438E0E32E0FEF31
:1055D00025E045E08C5A0E94A00FC8ECD2E01AE307
:1055E000C12C48E0D42EE12CF12C57E3A52EA99133
:1055F000B99126E130E00E94B362785A8F4F9F4FF5
:10560000A70196010E942863B22EB3940A2D021BB3
:105610004B2D602F812F0E944E0F4B2D602F812F1D
:105620008F5F0E944E0F4B2D602F812F8E5F0E9447
:105630004E0F1B5F1934D9F608C0919581959109D9
:1056400044CF9195819591098FCFDF91CF911F9193
:105650000F91FF90EF90DF90CF90BF90AF900895A3
:105660004F925F927F928F929F92AF92BF92CF9212
:10567000DF92EF92FF920F931F93CF93DF931F92CE
:10568000CDB7DEB7F0908E061F2D1F708038F9F071
:1056900060F4863230F4843238F5823208F47EC009
:1056A00037C0813609F07AC056C0833809F445C046
:1056B00038F4813809F460C0823809F06FC043C003
:1056C000853801F1B8F08F3B09F068C05BC0E0910C
:1056D0002F02F0E0EE0FFF1FE356F94F808191811A
:1056E0000E94C04680E80BC0123009F057C080E12C
:1056F0008F251DC085E49AE40E94C04684E80E947C
:10570000A20D4CC081E19DE30E94C04685E8F7CF21
:10571000833229F4133041F0812F8F5F08C01123A9
:1057200029F0812F815003C080E001C083E0809385
:105730008E0681E00E94251121C08DE49DE10E942A
:10574000C64783E8DCCF549A579A85ED97E40E94C8
:10575000C64782E8D4CF80913E02823021F483E0B4
:1057600080933E020BC023E0F21202C081E001C030
:1057700080E00E94511102C00E94691180E00E94E5
:1057800035460CC081E00E94A20D83E00E94A20D6C
:1057900082E00E94A20D81E08093490B8091260255
:1057A0009091270225E0969587952A95E1F7EE24BA
:1057B000E394E8228091490B811149C0EE2009F45D
:1057C00046C00E944917D82E812C912C00E0CC2491
:1057D000C394023081F16D2D802F0E94D412B82E17
:1057E000C092480B8D2D0E94A6181092480BD40130
:1057F000A05CB44FF401E85CF44F4D915C912081C2
:105800003181420F531F57FF02C04F5F5F4F5595C5
:1058100047954C303EEF53072CF0453F81E0580749
:1058200024F405C04CE05EEF02C044EF51E0602F6D
:105830008B2D0E9456120F5F92E0890E911C04304E
:1058400041F682E00E94251182E00E943546E092F6
:10585000490B0E944917982EEDE08E9FA00111245C
:105860004F505A4F00E226E060E186E20E94181392
:1058700020917B0630E080913502909136028217AC
:10588000930710F497E001C094E004E020917906BA
:1058900048E653E060E08AE099830E94A71C998162
:1058A000292F2064409135025091360260E183E255
:1058B0000E94B41F46E568E184E20E94FD108091D9
:1058C00072038823F9F080913E02823011F427E0C0
:1058D00001C024E04091380250913902022F60E16A
:1058E0008BE40E94FA1C409172032091380230919F
:1058F000390237FD02C088E301C081E320E868E196
:105900000E94D013ACE1AA2EA1E0BA2EC12CD12C5A
:10591000BFE17B2EEC2C80912C02F60124E0829FCB
:10592000E00DF11D1124EC53F54FE491F0E0E95E38
:10593000FE4F8080692D8C2D0E94D4126C2D0E9408
:10594000A1129C0123583F4F2B3F310510F408E072
:1059500001C00BE080393FEF93075CF08137910580
:105960006CF497FD03962C015594479455944794F5
:1059700008C0E4EE4E2E55245A9403C07CE1472E15
:10598000512CF50181915F0146E38823D1F064E059
:10599000882D0E944E0FF2E0EF1204C08091780330
:1059A00083FD0CC043E06EE1882D81500E944E0FB4
:1059B00043E06EE1882D8F5F0E944E0F672D6419C2
:1059C00013C06CE3882D8B510E94A34FE82CEA94FE
:1059D00043E06BE38E2D0E94A34F43E06DE38E2DD9
:1059E0000E94A34F840C6CE36350E02E0FEF27E07E
:1059F00047E0882D83500E94A00F2FEFC21AD20AD1
:105A000034E0C316D10409F085CF123008F084C009
:105A100042EE442E42E0542ED12C59E1952E6BE1FA
:105A2000862EF201E190F1902F01113049F1C7016A
:105A3000F7FC4F9635E0959587953A95E1F79701F4
:105A4000281B390BC901F7FE03C03FE7E30EF11C29
:105A5000A701440F452F441F550B480F591F6D2DAB
:105A600066956695660F660F660F685D8D2D83706F
:105A7000889D802D112420E28F5D0E94E11D47C08A
:105A800083E08D1518F082E2A82E02C00EE5A02E4C
:105A90008D2D8370C82ECC0CCC0CC80E9701F7FE50
:105AA00004C0222733272E193F09929EA001939EFE
:105AB000500D11245E5F452F550F550B45954595AB
:105AC000B42E99E1941714F4A9E1BA2E6C2D6A5DF5
:105AD00000E025E543E38A2D89510E94510F6C2D8A
