:100000000C94520C0C947A0C0C947A0C0C947A0C80
:100010000C947A0C0C947A0C0C947A0C0C947A0C48
:100020000C947A0C0C947A0C0C947A0C0C947A0C38
:100030000C94034B0C947A0C0C947A0C0C948B4912
:100040000C94E44B0C947A0C0C949A4A0C947A0C11
:100050000C947A0C0C947A0C0C94CF4A0C947A0C75
:100060000C947A0C0C94694B0C947A0C0C947A0CCA
:100070000C947A0C0C947A0C0C947A0C0C947A0CE8
:100080000C947A0C0C947A0C0C947A0C85178817C3
:100090009A17A217A817AE17B217AE17B717BC1743
:1000A000C017C517D617DB17E017E617EC17EF17C1
:1000B000F217F817FD17031808180E182018331830
:1000C00044185018621874187A1892189618434FEA
:1000D00055524245004D454E5553204F56455246C8
:1000E0004C4F570053505300804000000000000068
:1000F0000000000000000000000000000000000000
:1001000000000000000000000000000000000000EF
:1001100000000000000000000000000000000000DF
:1001200000000000000000000000000000000000CF
:1001300000000000000000000000000000000000BF
:1001400000000000000000000000000000000000AF
:10015000000000000000000000000000000000009F
:1001600000000000000000000000FCFCFCFCFCFCA7
:10017000FCFCFCFCFCFCFCFCFCFCFCFCFCFCFCFCBF
:10018000FCFCFCFCFCFCFCFCFCFCFCFCFCFCFCFCAF
:10019000FCFCFCFCFCFCFCFCFCFCFCFCFCFCFCFC9F
:1001A000FCFCFCFCFCFCFCFCFCFCFCFCFCFCFCFC8F
:1001B000FCFCFCFCFCFCFCFCFCFCFCFCFCFCFCFC7F
:1001C000FCFCFCFCFCFCFCFCFCFCFCFCFCFCFCFC6F
:1001D000FCFCFCFCFCFCFCFCFCFCFCFCFCFCFCFC5F
:1001E000FCFCFCFCFCFCFCFCFCFCFFFFFFFFFFFF3D
:1001F000FFFFFF7F7F3F3F3F3F3F3F7F7FFFFFFF8F
:10020000FFFFFFFFFF3F3F3F3F3FFF7F7F3F3F3FFE
:100210003F7FFFFFFFFFFFFFFFFFFF7F7F3F3F3F6E
:100220003F3F3F7F7FFFFFFFFFFFFFFFFFFF3F3F9E
:100230003F3F3FFF7F3F3F3F3F3F7FFFFFFFFF7F4E
:100240000F07030181E0F0F0F0E0000101071FFF5C
:10025000FFFFFFFFBF3F3F3F3F7FFFFFFFFFFF7FEE
:100260003F3F3F3F3FBFFFFFFFFFFFFFFFFF3F0756
:10027000030100C0F0F8FCFCFCFCF80000000103E6
:10028000FFFFFF3F0100000080E0F8FCFCFCF800ED
:1002900000000001FFFF3F070301000010181C1CB5
:1002A0001C1C180000000103FFFFFFFF1F000000DF
:1002B00000C0F8FCFCFC1000000000C0FFFFFFE0E5
:1002C000800000000F1F1F1F0F0300000000E0FF51
:1002D000FFFFFFFFFFFEF8E000000107070180E0DD
:1002E000F0F8FCFEFFFFFFFFFFFFFFFFFFFFE0C096
:1002F0008000000F1F1F1F1F0F070180C0E0F0FECE
:10030000FFFF0700000000C00F1F1F1F0F070100A5
:1003100080E0F0FEFFFFE0C08000000E0E1E1E1EFB
:100320001E1E1E1E0ECEFEFEFFFF7F03000000807D
:10033000FCFFFFFF3F0300000080FCFFFF1F0F0FCB
:100340001F1F1E1E1E0E0E0781C0E0F0FCFFFFFFE8
:10035000FF7F3F1F0F030180E0F0F8E080000107FE
:100360001F7FFFFFFFFFFFFFFFFFFFFFFFFFFFFFFD
:10037000FFFFFFFEFEFEFEFEFEFFFFFFFFFFFFFF93
:100380001F00000000C0FEFFFFFEFEFEFEFEFFFF9E
:10039000FFFFFFFFFFFFFFFFFFFFFFFEFEFEFEFE72
:1003A000FEFEFEFFFFFFFFFFFFFFFEFEFEFEFEFF65
:1003B000FFFFFFFFFEFEFEFEFEFFFFFFFFFFFFFE53
:1003C000FEFEFEFEFEFEFFFFFFFFFFFFFFFFFFFF43
:1003D000FEFEFEFEFEFEFFFFFFFFFFFFFFFEFEFE36
:1003E000FEFEFFFFFFFFFFFFFFFF1F1F1F1F1F1F5F
:1003F0001F1F1F1F1F1F1F1F1F1F1F1F1F1F1F1F0D
:100400001F1F1F1F1F1F1F1F1F1F1F1F1F1F1F1FFC
:100410001F1F1F1F1F1F1F1F1F1F1F1F1F1F1F1FEC
:100420001F1F1F1F1F1F1F1F1F1F1F1F1F1F1F1FDC
:100430001F1F1F1F1F1F1F1F1F1F1F1F1F1F1F1FCC
:100440001F1F1F1F1F1F1F1F1F1F1F1F1F1F1F1FBC
:100450001F1F1F1F1F1F1F1F1F1F1F1F1F1F1F1FAC
:100460001F1F1F1F1F1F1F1F1F1F00000000000056
:10047000000000000000000000000000000000007C
:10048000000000000000000000000000000000006C
:10049000000000000000000000000000000000005C
:1004A000000000000000000000000000000000004C
:1004B000000000000000000000000000000000003C
:1004C000000000000000000000000000000000002C
:1004D000000000000000000000000000000000001C
:1004E00000000000000000000000535045005008CC
:1004F00000000000000000006F000007000700146B
:100500007F147F14242A7F2A122313086462364939
:100510005522500005030000001C2241000041222A
:100520001C0014083E081408083E0808005030005B
:100530000008080808080060600000201008040295
:10054000003E41413E0000427F400062514946006A
:1005500041494936001814127F0027454539003EAD
:1005600049493200017905030036494936000649F8
:10057000291E0000363600000056360000081422FE
:1005800041141414141441221408000201510906E4
:1005900006090906007E0909097E7F494949363E58
:1005A000414141227F4141221C7F494949417F0904
:1005B0000909013E4149497A7F0808087F00417FC7
:1005C00041002040413F017F081422417F404040CC
:1005D000407F020C027F7F0408107F3E4141413E74
:1005E0007F090909063E4151215E7F0919294626E6
:1005F0004949493201017F01013F4040403F1F20EE
:1006000040201F3F4030403F6314081463070870C8
:1006100008076151494543007F4141000204081029
:10062000200041417F00040201020440404040405C
:10063000000102040020545454787F484444383860
:1006400044444420384444487F3854545418087E65
:100650000901020C5252523E7F0804047800447D86
:1006600040002040443D007F1028440000417F406E
:10067000007C041804787C08040478384444443826
:100680007C14141408081414187C7C08040408480A
:1006900054545420043F4440203C4040207C1C20C3
:1006A00040201C3C4020403C44281028440C505022
:1006B000503C4464544C44000836410000007F0024
:1006C0000000413608000808221C08081C220808FF
:1006D000A06000000000000000000000000000001A
:1006E000FEFE0000000000003E7E00007E3E000096
:1006F0006060FEFE6060FEFE606060F09898FEFE46
:10070000989818180C1E1E0C80C0E070381878FCE1
:100710008EC6E6763C180000000066763E1E00009D
:1007200000000000E0F0381C0E0600000000060E7D
:100730001C38F0E000006060C080F8F880C06060A5
:1007400080808080F8F880808080000000000000B9
:100750000000000080808080808080808080000099
:1007600000000000000000000000000080C0E070F9
:100770003818000000000000000000000000000029
:100780007171000000000000000000000000000087
:1007900006067F7F06067F7F0606181819197F7FD9
:1007A00019190F06181C0E070301307878301E3F08
:1007B000716367663C3C6666000000000000000054
:1007C00000000000070F1C3870600000000060701F
:1007D000381C0F070000060603011F1F0103060651
:1007E000010101011F1F01010101000066763E1E8B
:1007F00000000000010101010101010101010000EF
:100800003078783000000000181C0E07030100004B
:1008100000000000F8FC0E06060EFCF80000181C94
:10082000FEFE000000000000181C0E0686CEFC78BC
:1008300000000606868686CEFC78000080C0E07048
:10084000381CFEFE00007E7E666666E6C6860000F8
:10085000F8FC8E86868E1C180000060686C6E67694
:100860003E1E000078FCCE8686CEFC78000078FC28
:10087000CE8686CEFCF8000030787830000000008C
:1008800000003078783000000000000080C0E07088
:10089000381C0E0660606060606060606060060E1C
:1008A0001C3870E0C0800000181C0E06060686CEBC
:1008B000FC7800001F3F706060703F1F00006060A8
:1008C0007F7F606000000000787C6E67636160601D
:1008D00000006060616161733F1E0000070706064B
:1008E00006067F7F00001838706060703F1F0000B0
:1008F0001F3F716161733F1E000000007F7F000099
:10090000000000001E3F736161733F1E0000000085
:100910006171391D0F0700000C1E1E0C0000000045
:10092000000066763E1E0000000000000103070E76
:100930001C38706006060606060606060606607087
:10094000381C0E0703010000000000006667030169
:10095000000078FCCE8686CEFC780000E0F0B89CE3
:100960008E8E9CB8F0E0FEFE8686868686CEFC786B
:10097000F8FC0E060606060E1C18FEFE0606060EFF
:100980001C38F0E0FEFE8686868686860606FEFE1B
:100990008686868686860606F8FC0E068686868EFF
:1009A0009C98FEFE808080808080FEFE000006060F
:1009B000FEFE06060000000000000606FEFE06061B
:1009C000FEFE80C0E070381C0E06FEFE0000000037
:1009D00000000000FEFE1C38F0F0381CFEFEFEFE9B
:1009E00070E0C0800000FEFEF8FC0E060606060E53
:1009F000FCF8000001010101000000007F7F0101FF
:100A0000010101017F7F7F7F6161616161733F1E31
:100A10001F3F70606060607038187F7F606060703A
:100A2000381C0F077F7F61616161616160607F7F5A
:100A300001010101010100001F3F706061616171EE
:100A40007F3F7F7F0101010101017F7F0000606026
:100A50007F7F606000001838706060703F1F00008A
:100A60007F7F0103070E1C3870607F7F60606060CD
:100A7000606060607F7F0000010100007F7F7F7FFA
:100A800000000103070E7F7F1F3F70606060607091
:100A90003F1FFEFE8686868686CEFC78F8FC0E0614
:100AA0000606060EFCF8FEFE8686868686CEFC7856
:100AB00078FCCE868686868E1C1806060606FEFE06
:100AC00006060606FEFE000000000000FEFEFEFE1A
:100AD000000000000000FEFEFEFE0000000000001E
:100AE000FEFE1E3E70E0C0C0E0703E1E7EFEC08076
:100AF000000080C0FE7E0606060686C6E6763E1E1E
:100B00000000FEFE060606060000183870E0C080F1
:100B100000000000000006060606FEFE00006070F1
:100B2000381C0E0E1C387060000000000000000031
:100B300000007F7F01010101010100001F3F706083
:100B4000666E3C387F677F7F0101070F1D3970603B
:100B500018387161616161733F1E000000007F7F82
:100B6000000000001F3F7060606060703F1F070F53
:100B70001C387070381C0F071F3F70703E3E70703D
:100B80003F1F787C0E070303070E7C7800000103EB
:100B90007F7F03010000787C6E6763616060606046
:100BA00000007F7F606060600000000000000103C3
:100BB000070E1C180000606060607F7F000000006E
:100BC0000000000000000000606060606060606025
:100BD00060600000060E1C3870600000000060605D
:100BE000606060E0C080FEFE80C0E06060E0C080C9
:100BF00080C0E06060606060000080C0E06060E035
:100C0000C080FEFE80C0E060606060E0C0808080E8
:100C1000F8FC8E86060E1C18E0F038181818181804
:100C2000F8F8FEFE80C0E06060E0C0800000606018
:100C3000E6E600000000000000006060E6E600005C
:100C4000FEFE000080C0E060000000000606FEFE20
:100C500000000000E0E060E0C0C0E0E0C080E0E054
:100C600080C0E06060E0C08080C0E060606060E004
:100C7000C08000000000000000000000183C7E66FC
:100C8000666666667F7F7F7F6161606060703F1F20
:100C90001F3F70606060607038181F3F7060606058
:100CA00061617F7F1F3F76666666666607070101A2
:100CB0007F7F0101000000000103676666666676BB
:100CC0003F1F7F7F0101000000007F7F0000606008
:100CD0007F7F606000001838706060703F1F000008
:100CE0007F7F060F1F3970600000000060607F7F0B
:100CF000606000007F7F0000070700007F7F7F7F2C
:100D00000101000000007F7F1F3F70606060607025
:100D10003F1FE0E06060606060E0C08080C0E06035
:100D20006060C080E0E0E0E080C0E06060E0C08043
:100D300080C0E0606060606000006060FEFE606037
:100D400000000000E0E0000000000000E0E0E0E063
:100D5000000000000000E0E0E0E000000000000013
:100D6000E0E060E0C080000080C0E060E0E0000003
:100D700000000000E0E0606060606060E0E0E06073
:100D8000000080C0787C0E06000000000000FEFE1F
:100D9000000000000000060E7C78C080000080800B
:100DA00080801838F0E0C08080C0E0F03818808083
:100DB00080807F7F060606060607030101030706FB
:100DC000060607077F7F7F7F010100000000010109
:100DD000616367666666667E3C1800001F3F706050
:100DE000607038181F3F7060607038187F7F070F81
:100DF0001C387070381C0F071F3F707038387070C7
:100E00003F1F6070391F0F0F1F3970600103676645
:100E1000666666763F1F6070787C6E6763616060AF
:100E2000000001031E3E70600000000000007F7F94
:100E300000000000000060703E1E03010000010180
:100E40000101181C0F0703010103070F1C18010102
:100E500001014D6178206578706F7320617474654D
:100E6000696E7421004D6178206D697861676573E2
:100E70002061747465696E74210003010200040529
:100E800006075F2D2E2C001B1E272D36394B4E6377
:100E90006C7278878D939CB1B4C6C9D2D8E1E41244
:100EA0000800081C0808081C080000082200490067
:100EB00022080000000000227F220000000822001B
:100EC0004900220800000822004900220800000012
:100ED000227F2200000000000822004900220800B2
:100EE00000081C0808081C08004D495845555200C8
:100EF0002F3134002F333200434F555242455300B7
:100F000043560056455253494F4E00564552533AA8
:100F10002056322E30302D4A48002053564E3A206B
:100F20006F70656E39782D72333332004441544509
:100F30003A20323031322D30332D30360054494D85
:100F4000453A2032333A31313A3233004545505236
:100F50004F4D20760044494147005472696D2D2061
:100F60002B00414E4100410042470043414C494261
:100F7000524154494F4E005B4D454E555D504F55C3
:100F80005220444542555400534554204E45555433
:100F90005245005B4D454E555D5175616E64205064
:100FA00052455400424F55474552204D414E43480B
:100FB00045532F504F54532000535700002902022D
:100FC00000000000000602015345545550004E6FCA
:100FD0006D004368726F6E6F00452E4C696D6974C9
:100FE000657300452E5472696D73005472696D20EB
:100FF000496E6300542D547261636500542D547220
:10100000696D00426970204374720050726F746F92
:1010100000750050504D206672616D65006D730063
:1010200025000300504841534520444520564F4C6D
:10103000005472696D73004661646520496E004614
:10104000616465204F757400000303030303030309
:101050000303030303030303034C494D495445535E
:10106000000002494E544552532050455253004708
:10107000617A207061732061207A65726F00526519
:10108000696E697469616C6973657A206C65004189
:1010900070707579657A2073757220746F756368E6
:1010A0006500537769746368657320656E636C656A
:1010B0006E63686573005265696E697469616C6915
:1010C00073657A206C65730063005056004D4F4481
:1010D000454C450050504D00434800544D52005B74
:1010E0004D454E555D045B515549545D009C14328D
:1010F000465A5A4632465AECEC003C649CC4003CCA
:10110000649C000000644946252E21533452255426
:101110002954E73220260934804DB645034F464610
:101120004F4E20032D2D2D494E5604344348203672
:101130004348203843482031304348313243483116
:101140003443483136434806517569657420416C13
:1011500061726D734E6F4B657920546F75742020EA
:10116000067853686F727453686F7274204E6F7292
:101170006D616C4C6F6E672020784C6F6E67200439
:1011800053494E474F534D5046494C5404426173A6
:10119000204F46462048617574036F6666202B3DDC
:1011A000203A3D03636831636832636833636834AF
:1011B00006457870202020457846696E2046696E85
:1011C0002020204D6F79656E2047726F73202001BB
:1011D000524554413132330550504D20205058581B
:1011E000202044534D322050504D313603504F5340
:1011F0004E4547032D2D2D783E30783C307C787C51
:10120000663E30663C307C667C054544495420503F
:1012100052534554412E47415A06526174696F201A
:101220004578706F2020436F7572626550686173F6
:101230006520496E746572204D6F64652020202002
:101240002020202008416A6F75746572204D756CEE
:101250007469706C7952656D706C616365022B3DC9
:101260002A3D3A3D064F4E202020204F4646202062
:10127000204F6666736574072D2D2D2D0020207676
:101280003E6F66732020763C6F667320207C767CF0
:101290003E6F66737C767C3C6F6673414E442020C3
:1012A00020204F522020202020584F522020202044
:1012B00076313D3D7632207631213D7632207631D1
:1012C0003E7632202076313C7632202076313E3D0B
:1012D00076322076313C3D7632200D53656375724F
:1012E000697465200020202045636F6C616765206C
:1012F00000202020205472696D20696E7374616E25
:1013000074204A6F75657220736F6E00202020066E
:101310005761726E31205761726E32204368656585
:10132000702052696E672020536369466920526FAE
:10133000626F742043686972702054616461202078
:10134000437269636B74536972656E20416C6D43BF
:101350006C6B5261746174615469636B20204861E5
:1013600070746331486170746332486170746333C0
:101370000E3420566F6965732073696D706C654318
:101380006F75707572652047617A202020456D70F9
:10139000656E6E6167652056202020456C65766F0E
:1013A0006E5C44656C74612020654343504D202081
:1013B00020202020202020436F6E662E48656C6917
:1013C000636F202020536572766F205465737420FC
:1013D000202020042D2D2D20313230203132305864
:1013E000313430203930202005204D656E75204580
:1013F0007869742020426173204861757444726F6B
:10140000697447617563680347415A4449525052B1
:101410004649443049443149443241494C474541A9
:1014200054524E5357315357325357335357345303
:1014300057355357365357375357385357395357F0
:1014400041535742535743044469722050726620F7
:1014500047617A2041696C20503120205032202091
:10146000503320204D41582033504F53435943317E
:101470004359433243594333034F4646414253474E
:101480005A73475A25475A74005E4E5244D426096F
:1014900027AA276A28408008042010020153454CDF
:1014A0004D4F4445005355505052494D4552204DE3
:1014B0004F44454C4500436F7069652E2E2E004405
:1014C00065706C6163656D656E742E2E2E004368C9
:1014D000617267656D656E742E2E2E006C69627286
:1014E00065004741424152495453004546464143F5
:1014F0004552204D4958414745535B4D454E555D3A
:101500000000020202020045434F4C41474500459E
:1015100073636C617665006D6F646503252073727B
:1015200063004D756C7469706C6965757200436118
:101530006C004D6F6465000002494E5445525320C3
:10154000464F4E4354494F4E5300000000000000E8
:101550000000000000000000000000000000FF018B
:10156000434F4E46494720524144494F005370650E
:10157000616B6572204D6F646500537065616B65CA
:1015800072204C656E67746800537065616B65729C
:1015900020506974636800436F6E74726173746580
:1015A00000416C61726D6520426174746572696599
:1015B00000416C61726D6520496E61637469766982
:1015C00074650046696C7472652041444300496E3D
:1015D00076657273696F6E2047617A004269702088
:1015E000742E6D696E757465730042697020612098
:1015F0007265626F75727300466C617368207175F5
:10160000616E642062697000496E74657220656362
:101610006C6169726167650045636C6169722E2057
:101620006F666620617072657300456372616E203B
:1016300064276163637565696C00416C65727465EC
:101640002047617A00416C6572746520496E74654B
:101650007200416C65727465204D656D6F697265CD
:1016600000416C6572746520416C61726D65004F5C
:101670007264726520566F696573205278000102AA
:101680000304010302040402030104030201426192
:101690006420454570726F6D204461746100466F2F
:1016A000726D61747461676520454550524F4D00FD
:1016B0004D45535341474500454550524F4D206CD1
:1016C0006F77206D656D00416C61726D65732044AC
:1016D0006573616374697665657300496E746572DC
:1016E0000044522F4558504F00494E5345524552E1
:1016F000204D495841474520004544495445522012
:101700004D49584147452000536F7572636500523B
:101710006174696F00446966666572004F6666733E
:101720006574005472696D00436F75726265005094
:101730002E566F6C00416C65727465004F46460012
:101740004D756C74707800526574617264204261EA
:10175000730052657461726420486175740052614F
:101760006C656E74697220486175740052616C65B5
:101770006E74697220426173005048415345532092
:10178000444520564F4C00286465666175742900F5
:101790005665726966055472696D7300434F4E4613
:1017A0002E48454C49005479706520646520506C82
:1017B000617465617500436F6C6C65637469660084
:1017C00053776173682052696E670044697265637C
:1017D00074696F6E20505246004469726563746983
:1017E0006F6E2041494C00446972656374696F6E85
:1017F00020434F4C00414C455254450044657061B4
:101800007373656D656E7420454550524F4D00549D
:101810006F7563686520706F757220636F6E746991
:101820006E75657200535441545300544D310D543C
:101830004D32005448520D54482500544F54004432
:101840004542554700746D72314C6174206D61786A
:1018500004757300746D72314C6174206D696E048F
:10186000757300746D7231204A6974746572047501
:101870007300746D61696E206D6178066D7300464A
:1018800072656520537461636B206D696E0462003C
:101890005B4D454E555D706F757220726573657452
:1018A00000002A6711241FBECFEFD0E1DEBFCDBFFD
:1018B00011E0A0E0B1E0EAE3F0ED02C005900D9286
:1018C000AC31B107D9F71DE0ACE1B1E001C01D9228
:1018D000AB35B107E1F718E1C4EAD8E104C02297BB
:1018E000FE010E94E567C23AD107C9F70E942B5E4C
:1018F0000C941B680C9400002F923F924F925F92C1
:101900006F927F928F929F92AF92BF92CF92DF920F
:10191000EF92FF920F931F93CF93DF93CDB7DEB774
:1019200062970FB6F894DEBF0FBECDBF89830E94C9
:10193000271A10917D09182390912A0190959123DF
:1019400019F08CE00E94955810932A015090EC0BEE
:10195000552009F464C06090350170903601009103
:10196000390110913A019301D3010E9433676B0151
:101970007C019801D8010E943367C60ED71EE81E6D
:10198000F91E652D70E080E090E04AE0660F771F59
:10199000881F991F4A95D1F724E630E040E050E0D7
:1019A0000E94C767CA01B9010E9461676C157D0575
:1019B0008E059F05A0F5C701B6010E940F239C016B
:1019C000A4E6B0E00E943B676B017C01B12C252DA1
:1019D0003B2DD3010E9447672AE0660F771F881FBF
:1019E000991F2A95D1F7A70196010E94C7673093E6
:1019F000360120933501252D3B2DD8010E944767E4
:101A00003AE0660F771F881F991F3A95D1F7A70113
:101A100096010E94C76730933A0120933901809163
:101A2000EA0B887F09F4F2C0E0903501F0903601AE
:101A300080912D0190912E01E80EF91E009139013F
:101A400010913A018091310190913201080F191FD4
:101A50008091EB0B882321F081500E94053902C050
:101A600080E090E02091EA0B20FF03C0F194E19424
:101A7000F10821FF03C011950195110922FF03C050
:101A80009195819591092091EA0B269526952695A9
:101A900030E02230310509F44CC02CF421303105FE
:101AA00009F0B4C009C02330310509F484C02430E2
:101AB000310509F0ABC096C0980117FF02C0295F3D
:101AC0003F4FB3E035952795BA95E1F7A801421B42
:101AD000530B9A01A80117FF02C041585F4F440FF2
:101AE000452F441F550B241B350B17FF02C0015017
:101AF0001E4F012F110F110B0595201B310BAC014F
:101B00004E195F095093250140932401F7FE03C04D
:101B10005FEFE51AF50AF594E794E80EF91EC701A0
:101B2000820F931F9093270180932601E21AF30AF4
:101B300054C09701F7FE02C0295F3F4F73E035950F
:101B400027957A95E1F7D701A21BB30B9D01A70159
:101B5000F7FE02C041585F4F440F452F441F550BFD
:101B6000241B350BF7FE04C0B1E0EB1ABEEFFB0AF5
:101B7000EF2CFF0CFF08E5942E193F09AC01401B28
:101B8000510B509325014093240117FF02C00F5FB2
:101B90001F4F15950795080F191FC801820F931F36
:101BA0009093270180932601021B130B10932901A8
:101BB000009328012BC09C012E193F093093250169
:101BC00020932401E80EF91EC701800F911F909306
:101BD000270180932601E01AF10AF0922901E09290
:101BE000280114C09C012E193F0930932501209330
:101BF00024019C01200F311F3093270120932601DF
:101C0000801B910B909329018093280180E4EAE2E4
:101C1000F9E0DF011D928A95E9F710921D011092FB
:101C20001C0110921F0110921E01109221011092AE
:101C3000200110922301109222011092FC07EDE383
:101C4000F1E0FB87EA871DE5212E11E0312E2DED15
:101C500031E0398728871C8604E6402E512C612C00
:101C6000712CC12CD12C7601D3943981832F90E033
:101C7000AC014F5F5F4F5F874E878C850E94E223E8
:101C80009A8B898BDC0116968C9116978F7709F4C5
:101C9000DBC2FD012081822F807FD1F02595259523
:101CA00025952595822F992787FD909512163CF44E
:101CB0002E853F852817390709F0B2C209C09195D2
:101CC000819591094E855F854817590709F4A8C287
:101CD000A989BA8912968C91880F880F61E0859541
:101CE00085950E947A3A811104C0EA85FB851082AD
:101CF00097C2AA85BB85BC9081E08C93E989FA895B
:101D000096819F77892F8150843048F4E82FF0E046
:101D1000EE0FFF1FED5CFE4F008111813AC0292FAD
:101D20002A522031F0F4282F30E0B90168527109AD
:101D3000A989BA894C914F7050E0461757078CF02B
:101D4000F901EE0FFF1FEE0FFF1FEA57F74F6081FB
:101D5000718182819381A30192010E94C7678901E9
:101D600018C0292F2A50253150F460E0892F89505E
:101D70000E947A3A882359F000E014E00AC08A30C1
:101D800010F0892F86510E9405398C0102C000E0B5
:101D90001CEFE989FA89F381FD878F2F807CA1F000
:101DA0008F2F829586958695837090E0019721E02C
:101DB00030E002C0220F331F8A95E2F7C9019091EB
:101DC000FC07982B9093FC07A989BA891896BC91B7
:101DD000BF83BB23A9F0E9E2BE02C001112495959F
:101DE0008795959587952B2FB7FD215C26FB220FB4
:101DF000220B20F9821B910927FD9395080F191FCB
:101E0000A989BA891596BC91B983B11106C0E9892F
:101E1000FA898481882309F460C1D1016D917D9193
:101E20008D919C91BB2089F0A70196010E94C76704
:101E300050954095309521953F4F4F4F5F4FF8019A
:101E4000E20FF31FFE83ED835CC0A989BA89129665
:101E50008C911297807C803869F5EC91EF70F0E0FE
:101E6000EE0FFF1FE65FF64F40815181662757FD59
:101E70006095762F2227342F452F562FA4E6B0E009
:101E80000E944E67F1016083718382839383A989E5
:101E9000BA8911968C90882069F0282D332727FD68
:101EA0003095432F532F0E94C767F1012083318360
:101EB00042835383D1016D917D918D919C91A701B6
:101EC00096010E94C76750954095309521953F4FE8
:101ED0004F4F5F4FF801E20FF31FFE83ED83309702
:101EE00081F0A989BA8914968C91F7FD01C0829579
:101EF0008F70B4E6B89FC0011124E885F9859183FD
:101F00008083A885B9858D919C911197009799F050
:101F10002091480C222319F001978D939C93E8851A
:101F2000F98580819181892B31F0D1016D917D916D
:101F30008D919C91C2C0ED81FE81EF2B09F4CDC043
:101F40004801AA2497FCA094BA2CF981FF2309F434
:101F5000BAC08091480C882309F47EC0A989BA8947
:101F600011960C910023A9F0112707FD109517FF7A
:101F700003C0119501951109202F332727FD3095B6
:101F8000432F532F60E070E080E293E00E94C76728
:101F900004C020E030E040E253E029833A834B83E1
:101FA0005C83A989BA8915968C91ED81FE811E16F4
:101FB0001F0604F58F7090E0009709F443C0F4E623
:101FC000F89FA001F99F500D11249A01442737FD75
:101FD0004095542F69817A818B819C810E94C767CB
:101FE000F10180819181A281B381280F391F4A1F9D
:101FF0005B1F2CC082958F7090E0009719F1F4E67A
:10200000F89FA001F99F500D11249A01442737FD34
:102010004095542F69817A818B819C810E94C7678A
:1020200029833A834B835C83D1012D913D914D915E
:102030005C9189819A81AB81BC81281B390B4A0B49
:102040005B0B04C05A2D492D382D2227D1012D9329
:102050003D934D935C931397ED81FE811E161F06F1
:102060007CF4D1016D917D918D919C91A701960198
:102070000E94C76782169306A406B5067CF018C0B6
:10208000F1016081718182819381A70196010E9493
:10209000C767281539054A055B0554F4BA2CA92CE5
:1020A000982C8824D1018D929D92AD92BC92139769
:1020B000F1016081718182819381A70196010E9463
:1020C000C76789010AC0BA2CA92C982C8824D10191
:1020D0008D929D92AD92BC9213978D858F7359F01E
:1020E000E989FA896381660F660F65956595C80170
:1020F0000E949D238C01A989BA8916962C91169766
:102100002F77822F81588F77843030F517968C91F6
:10211000807C59F4E22FF0E0EE0FFF1FE75DFE4FE9
:1021200080819181080F191F17C08038A9F4BF81E1
:10213000E8E0BE02C0011124288B0E9409268C0110
:102140002889E22FF0E0EE0FFF1FE65EFE4F89893F
:102150009A89089691838083E989FA89A1819801F7
:10216000BB27A7FDB0950E9433679B01AC01968108
:10217000991F9927991F87818F73880F892B61F089
:1021800057FF0AC0A4E6B0E0A81BB1090E94596736
:10219000A30192010E94C767A989BA896C916F70E7
:1021A00012968C91829586958695837090E0B4E026
:1021B0006B9F800111248130910551F0F801E65D9B
:1021C000F64F029709F5208331834283538328C059
:1021D000CA01B901A30192010E94C767065D164FAB
:1021E000F80160817181828193810E94616720E0A2
:1021F00034E040E050E00E94C767D8012D933D9342
:102200004D935C9313970CC080819181A281B3811F
:10221000820F931FA41FB51F80839183A283B38372
:10222000BC85BF5FBC87EA85FB853196FB87EA8763
:10223000F4E02F0E311C288539852E5F3F4F3987FA
:102240002887B03209F019CD62960FB6F894DEBF38
:102250000FBECDBFDF91CF911F910F91FF90EF90F7
:10226000DF90CF90BF90AF909F908F907F906F90B6
:102270005F904F903F902F9008958091360888236B
:10228000D1F081508093360883E00E9495581092D7
:102290003108E0913608F0E0DF01A15EBD4F8C917E
:1022A00080933208EE0FFF1FE556F34F0190F08147
:1022B000E02D8EEB099460E085ED90E00C94985849
:1022C0004F925F926F927F928F929F92AF92BF9246
:1022D000CF92DF92EF92FF920F931F93CF93DF93F2
:1022E00000D0CDB7DEB7182F22E04EEC50E060E012
:1022F00080E00E944A2540912A0D50E04F5F5F4FD9
:1023000022E860E08FE10E94C03F89E70E94B84068
:1023100080912A0D282F30E0883078F0285031093C
:1023200089E0829F3001839F700C11248EE49BE032
:10233000680E791E09E0902E0CC085E0829F300166
:10234000839F700C1124A6E2BBE06A0E7B1EB5E0F1
:102350009B2E113609F46CC040F4153409F47EC08C
:10236000103671F01434D9F486C0153609F476C0ED
:102370001F3B19F0143699F47EC010921D025FC005
:102380008091C30718165CF080913108813061F0AC
:1023900018F0823021F43FC081E08093C30723010D
:1023A000730190EE00E097C080911D028F5F853031
:1023B0000CF401C08CEF80931D0240911D02B2E32A
:1023C0004B0270011124062D292D269530E0319500
:1023D000219531094203C001439F900D112422E34E
:1023E000289F5001299FB00C1124F30120E030E018
:1023F000C92CD12C81E0C81AD108C9018A0D9B1DB6
:10240000B6010E94916761932E0D3F1D8E2F801B98
:10241000891598F3C4CF8CE9D3018C93F301E90DAE
:10242000F11D319784E6808381E080931E02B7CF4F
:1024300081E60E94873880911E02882319F010924D
:102440001E02ADCF8091C30718162CF410923108EC
:102450001092C307A4CF0E943D11A1CF80911E020C
:1024600081119DCF80913108882309F498CF815044
:102470008093310894CF80911E02811190CF0091FA
:102480003108E02EF12C8091C30718162CF4292D69
:1024900030E0215031091AC0E0913608F0E0EE0F2B
:1024A000FF1FE756F34F208131812753344561F4F4
:1024B00080912B0D0E94EA23FC0180818C70883072
:1024C00019F422E030E002C021E030E0E216F30629
:1024D0000CF4C2C064CF692F053018F4685D88E140
:1024E00001C080E32091C307121624F42091310823
:1024F000201711F020E001C022E0D7014D917D01AD
:10250000552747FD50959A830E94C03F0F5F9A81DF
:10251000985F091500F342E355E168E380E00E940B
:1025200057259091C307191614F400E005C0809157
:102530001E028111FACF02E081E019160CF480E04E
:1025400020913108829F202D112449E052E168E357
:102550008CE10E945A258091C30718167CF4892CBF
:102560008694712CE12CF12CC12CD12C68E3A62E81
:10257000BB24BA947EE9672E610E1AC080911E02B8
:102580008111EDCF83EA9EE10F900F90DF91CF9103
:102590001F910F91FF90EF90DF90CF90BF90AF9081
:1025A0009F908F907F906F905F904F900C94CA2077
:1025B0004E2DC601682D772D0E949167E62FD2011E
:1025C0002C91BFEFEB1AFB0AFFE32F0290011124BD
:1025D000C9018456974EB5010E94916720911E0251
:1025E000222359F030E02E153F0561F5635C00E0D1
:1025F00025E045E08E2F845C23C090913108941330
:1026000019C0635C00E025E045E08E2F845C0E94E9
:10261000114081E0861520F4123411F0133491F446
:1026200024E64CE9D2016C91812F0E941F5CF201DB
:10263000808308C0625C00E023E043E08E2F835C6F
:102640000E941140F0E2CF0ED11C8FEF481A580AB9
:10265000E91408F4ADCF96CF0F5F009331089FCEF9
:10266000CF93DF93EC0180913608A82FB0E0A15EF4
:10267000BD4F909132089C93982F9F5F909336089E
:10268000953048F08093360860E085ED90E0DF916A
:10269000CF910C94985885E00E949558A0913608E7
:1026A000B0E0AA0FBB1FA556B34FCD93DC938FEBC1
:1026B000FE01DF91CF9109944F925F927F928F92AA
:1026C0009F92AF92BF92CF92DF92EF92FF920F93C1
:1026D0001F93CF93DF931F92CDB7DEB7F0908E0C90
:1026E0001F2D1F708038F9F060F4863230F4843288
:1026F00038F5823208F47EC037C0813609F07AC0DE
:1027000056C0833809F445C038F4813809F460C0F4
:10271000823809F06FC043C0853801F1B8F08F3BB3
:1027200009F068C05BC0E0913608F0E0EE0FFF1FD3
:10273000E356F34F808191810E94301380E80BC0F3
:10274000123009F057C080E18F251DC089E496E45E
:102750000E94301384E80E9487384CC08EE59EE4C6
:102760000E94301385E8F7CF833229F4133041F00B
:10277000812F8F5F08C0112329F0812F815003C062
:1027800080E001C083E080938E0C81E00E944622AD
:1027900021C084ED9CE50E943D5C83E8DCCF0E9473
:1027A000663888E69DE50E943D5C82E8D4CF809142
:1027B0004508823021F483E0809345080BC023E074
:1027C000F21202C081E001C080E00E94372302C003
:1027D0000E944F2383E00E9495580CC081E00E9424
:1027E000873883E00E94873882E00E94873881E042
:1027F00080933C0180912F0890913008E5E09695F8
:102800008795EA95E1F7EE24E394E82280913C0174
:10281000811149C0EE2009F446C00E94853AD82EA5
:10282000812C912C00E0CC24C394023081F16D2DD9
:10283000802F0E94B824B82EC0923B018D2D0E949B
:10284000271A10923B01D401AD5CBE4FF401E55D47
:10285000FE4F4D915C9120813181420F531F57FFF4
:1028600002C04F5F5F4F559547954C303EEF530781
:102870002CF0453F81E0580724F405C04CE05EEFA2
:1028800002C044EF51E0602F8B2D0E943A240F5F6D
:1028900092E0890E911C043041F682E00E944622AB
:1028A00089E00E949558E0923C010E94853A982E5A
:1028B000EDE08E9FA00111244D50544F00E226E020
:1028C00060E186E20E94F72420917B0C30E0809149
:1028D0003C0890913D088217930710F495E001C0E1
:1028E00094E004E02091790C4AE659E060E08AE047
:1028F00099830E941F3F9981292F286040913C08AD
:1029000050913D0860E183E20E94C63F46E568E1E0
:1029100084E20E94EF21809174098823F9F080916C
:102920004508823011F425E001C024E040913F08C1
:1029300050914008022F60E18BE40E94773F409164
:10294000740920913F083091400837FD02C088E3A8
:1029500001C081E320E868E10E94AF255CE0A52E7C
:1029600051E0B52EC12CD12C6FE1762EEC2C80914C
:102970003308F60124E0829FE00DF11D1124E25896
:10298000F94EE491F0E0E95FFE4F8080692D8C2DD7
:102990000E94B8246C2D0E9485249C0123583F4F2F
:1029A0002B3F310510F408E001C009E080393FEF0A
:1029B00093075CF0813791056CF497FD03962C0129
:1029C000559447945594479408C034EE432E5524AB
:1029D0005A9403C02CE1422E512CF50181915F01E4
:1029E00046E38823D1F064E0882D0E941F20F2E0A6
:1029F000EF1204C080917A0983FD0CC043E06EE1C0
:102A0000882D81500E941F2043E06EE1882D8F5F4A
:102A10000E941F20672D641913C06CE3882D8B5111
:102A20000E94793DE82CEA9443E06BE38E2D0E94EE
:102A3000793D43E06DE38E2D0E94793D840C6CE37B
:102A40006350E02E0FEF27E047E0882D83500E946F
:102A500071202FEFC21AD20A34E0C316D10409F054
:102A600085CF123008F084C00AEE402E08E0502EC8
:102A7000D12C89E1982E9BE1892EF201E190F19011
:102A80002F01113049F1C701F7FC4F96B5E095953C
:102A90008795BA95E1F79701281B390BC901F7FE15
:102AA00003C03FE7E30EF11CA701440F452F441F6D
:102AB000550B480F591F6D2D66956695660F660F6D
:102AC000660F685D8D2D8370889D802D112420E216
:102AD0008F5D0E94C03F47C083E08D1518F0F2E281
:102AE000AF2E02C0EEE5AE2E8D2D8370C82ECC0C1D
:102AF000CC0CC80E9701F7FE04C0222733272E19ED
:102B00003F09929EA001939E500D11245E5F452FB8
:102B1000550F550B45954595B42E99E1941714F42E
:102B200069E1B62E6C2D6A5D00E025E543E38A2D50
:102B300089510E9422206C2D6C5D45E08A2D0E94F7
:102B40001F201E141F0414F4A39401C0AB186C2D95
:102B5000695D4B2D8A2D0E94793D6C2D6B5D4B2D4F
:102B60008A2D0E94793DD394E8E0DE1286CFE9C039
:102B7000123009F0CDC0F2E0FF1240C00E94A81848
:102B800010E003E0412F133010F44F5F12C04C5F90
:102B9000493079F460E084E00E947A3A81110BC0F8
:102BA00060E085E00E947A3A882341F089E045E0C0
:102BB00007C0842F05C089E044E002C089E046E0F8
:102BC00060E049830E947A3A4981882311F022E02B
:102BD00001C020E0812F602F0E947167990F990F2B
:102BE000990F905E133010F48AE001C085E6692FDA
:102BF0000E9468251F5F163029F6A3C00AEF18E06F
:102C00003DE2A32EC12C48E0D42EE12CF12C58E358
:102C1000752EF801A191B1918F0126E130E00E945B
:102C20004767785A8F4F9F4FA70196010E94C76749
:102C3000490137FD04C02631310524F406C0812C3A
:102C4000912C03C026E1822E912CB72CB818482D68
:102C50006B2D8A2D0E941F20482D6B2D8A2D8F5F92
:102C60000E941F20482D6B2D8A2D8E5F0E941F20F1
:102C700025E0A20E35E5A312CCCFF12C06E093E0BF
:102C8000E92E8F2D602F0E947167192F933098F4D1
:102C90008F2D6E2D0E947167990F990F990F905E7D
:102CA00085E08F1510F08AE001C08EE549EB5FE00A
:102CB000692F0E94572560E08F2D865F0E947A3A27
:102CC000882311F022E001C020E098E04F2D9F15ED
:102CD00010F04F5C01C0485C8F2D6E2D0E94716713
:102CE000990F990F990F905EE5E0EF1510F086E1CE
:102CF00001C08AE6133010F430E001C036E0692FDD
:102D0000830F0E940F21F394FCE0FF12BACF19C089
:102D1000409141085091420804E024E068E289E2D1
:102D20000E94773F40917709809141089091420835
:102D300097FD02C086E101C08FE020E860E30E94B9
:102D4000AF2589E70F90DF91CF911F910F91FF90F1
:102D5000EF90DF90CF90BF90AF909F908F907F903B
:102D60005F904F900C94B84001C0A8958091E908FD
:102D70001816DCF381E0809337078091E5088823FB
:102D800021F080913807882349F08091DE0888235C
:102D900041F080913807882339F003C00E94DB5846
:102DA000ECCF1092370708950E94A059EECF0F93F1
:102DB000CF93C82F81110E94B4168091D50880FD51
:102DC00005C08091D50881FF1DC00FC08150809340
:102DD000D5080C2F2FE430E04CE45CE061E080E0AB
:102DE0000E949A5AC111EDCF0DC01092D508809162
:102DF000790C0C2F2EED32E04AE659E062E08F5F4D
:102E00000E949A5ACF910F910895CF93C82F803185
:102E1000A0F48F5F0E94AB1C6EED72E08AE699E031
:102E20000E94D31C892B31F48C2F0E94454481E0F1
:102E30000E94D716CF910C944F23CF9108950F93F2
:102E4000CF93C82F362F80912302882339F0CC23CB
:102E500029F090919A0C965F9C0F01C090E090939E
:102E60002E0D9091990C9295990F907E9595959530
:102E700095959595959597FF0BC0832F61E070E030
:102E8000691B710997FD739590E00E94916706C0D8
:102E9000632F992319F0939F600D11246093300DD7
:102EA0004093310D10922F0D80912C0D80932D0D9C
:102EB000222331F0215000E0632F8C2F0E94274104
:102EC000CF910F9108950F93E82F862F90918F0C3B
:102ED0009871983059F0911103C0E63038F402C06F
:102EE000903131F091E0E33020F002C091E001C078
:102EF00090E090932302E43108F420C120912C0D3E
:102F000090912D0D291322C119C100E022E028C0A3
:102F100090912C0D80912D0D981318C101E022E0A5
:102F200043E064E18CE30E9427410FEF22E043E09D
:102F300064E1D8C001E020E041E068E286E40E945C
:102F40001F1704C101E020E041E06AE08BE4F7CF05
:102F500001E020E041E06AE081E4F1CF01E020E01F
:102F600042E008C000E020E041E066E0E8CF01E098
:102F700020E041E06AE0E2CF01E020E041E03BC038
:102F800001E020E041E06EE1D9CF00E020E045E043
:102F90006AE082E30E94274120E045E06AE08AE59A
:102FA0000E94274122E044E065E08AC000E020E082
:102FB00041E06AE01BC001E020E040E066E016C0AE
:102FC00001E020E040E066E08AE7B9CF01E020E0E0
:102FD00040E066E08CE7B3CF01E023E005C001E00C
:102FE00022E002C001E021E043E06FE088E7A7CFE4
:102FF00001E021E049E164E1A1CF00E022E045E009
:103000006FE08AE598C000E022E045E06FE004C090
:1030100002E022E042E06AE084E68DC000E02AE0BF
:1030200042E065E08FE50E94274121E04AE065E04B
:103030008FE50E9427412AE042E065E08FE57BC0F2
:103040000FEF22E043E06AE080E50E94274101E0C3
:1030500022E043E06AE08CE30E94274100E020E0A8
:1030600041E06AE05DC000E021E041E065E086E427
:103070000E94274121E042E06FE082E30E94274165
:1030800021E042E06FE02EC000E022E041E065E098
:103090008EE60E94274123E041E065E08CE74BC0CB
:1030A00000E020E045E065E082E30E94274120E067
:1030B00045E065E08AE50E94274122E044E063E0C4
:1030C0008EE639C000E023E04AE065E080E50E943A
:1030D000274121E044E165E080E50E94274123E0AB
:1030E0004AE065E080E527C001E022E045E064E1D8
:1030F0008AE021C000E022E04AE064E082E30E942E
:10310000274121E044E168E086E40E94274122E073
:103110004AE068E082E30E94274121E044E164E064
:1031200086E409C000E02AE04AE003C000E022E0B3
:1031300042E365E088E70E94274108C0F0E0E13201
:10314000F10520F4EA5BFF4F0C94E3670F910895BB
:10315000AF92BF92CF92DF92EF92FF920F931F93A5
:10316000CF93DF93E12C0FEF27E147E161E28FE19D
:103170000E94712027E147E161E28BE40E94712007
:1031800043E06BE28AE20E941F2043E06CE289E2A6
:103190000E94793D43E06BE286E50E941F2043E0F8
:1031A0006CE285E50E94793D8091330824E0829F9E
:1031B000C0011124FC01E158F94EA491FC01E25830
:1031C000F94EE491B0E0AA0FBB1FAB53B74F2D915E
:1031D0003C9182E1829FB001839F700D112477FFA3
:1031E00002C06150784F60E27602612D770B1124A6
:1031F000719561957109665DF0E0EE0FFF1FEB536D
:10320000F74F2081318142E1429FC001439F900DE1
:10321000112497FF02C08150984F80E29802812DBF
:10322000990B1124C8E0EC2E0FEF25E045E0885DF6
:103230000E9471208091330890E0FC01EE0FFF1F87
:10324000EE0FFF1FE058F94EA491FC01EE0FFF1F97
:10325000EE0FFF1FEF57F94EE491B0E0AA0FBB1F2E
:10326000AB53B74F8D919C9122E1289FB001299FCC
:10327000700D112477FF02C06150784F60E2760232
:10328000612D770B1124719561957109665DF0E0F0
:10329000EE0FFF1FEB53F74F2081318142E1429F38
:1032A000C001439F900D112497FF02C08150984F99
:1032B00080E29802812D990B112438E0E32E0FEF64
:1032C00025E045E08C5A0E947120CFECD8E01AE34B
:1032D000C12C48E0D42EE12CF12C57E3A52EA99166
:1032E000B99126E130E00E944767785A8F4F9F4F8F
:1032F000A70196010E94C767B22EB3940A2D021B44
:103300004B2D602F812F0E941F204B2D602F812F6E
:103310008F5F0E941F204B2D602F812F8E5F0E9498
:103320001F201B5F1934D9F6DF91CF911F910F91A8
:10333000FF90EF90DF90CF90BF90AF900895BF9235
:10334000CF92DF92EF92FF920F931F93CF93DF9371
:103350008091920C84FD71C060E080917D0C0E9490
:103360007A3A81115BC08091940C811157C058C08A
:103370000E94DA3620E048EE50E060E080E00E94F3
:103380001E3D0E94911F80917A0C0E94BA1F0E94DC
:103390005D3CC0E20E94D61EC150E1F7D12CC0E0D6
:1033A000D0E08D2D0E946223092F10E0C00FD11FA5
:1033B000D39484E0D812F5CFF894C0902D08D09023
:1033C0002E08789480E7C81A8EEFD80A1DC00E9494
:1033D000D61EB12C00E010E08B2D0E946223E92E56
:1033E000F12C0E0D1F1DB39484E0B812F5CF86B3F7
:1033F00080958E7711F50C171D07F9F413C0809195
:10340000940C811116C017C0F89480912D089091EA
:103410002E087894C816D906D1F60FC0C79AA8CF3F
:10342000C798A6CF60E080917D0C0E947A3A8823ED
:1034300031F3C79AE9CFC798E7CFDF91CF911F91BA
:103440000F91FF90EF90DF90CF90BF9008952F9253
:103450003F924F925F926F927F928F929F92AF9224
:10346000BF92CF92DF92EF92FF920F931F93CF9371
:10347000DF9300D000D000D0CDB7DEB78C83E091D1
:10348000EC0BEE23B1F1A091C908B091CA084091AC
:10349000CD085091CE089D010E9433676B017C01DD
:1034A0009A01DA010E943367C60ED71EE81EF91E84
:1034B0006E2F70E080E090E01AE0660F771F881FA3
:1034C000991F1A95D1F724E630E040E050E00E94C1
:1034D000C767CA01B9010E9461676C157D058E0539
:1034E0009F0538F4C701B6010E940F239E838D8388
:1034F00002C01E821D822D813E81A4E6B0E00E94A2
:103500003B676B017C018DE49CE09A838983612C8D
:10351000712C1B82B2E38B2E912CA12CB12C862D09
:10352000843068F490913308F301A4E09A9FE00D91
:10353000F11D1124E258F94E54905A9401C0562CB2
:103540000E9462239C01E981FA8181919191FA8321
:10355000E983281B390BB901882777FD8095982FBF
:10356000AAE0660F771F881F991FAA95D1F7121638
:1035700013061CF4028D138D06C0A981BA811C9616
:103580000D911C911D970436110514F404E610E00A
:103590009801442737FD4095542F0E94C767890141
:1035A0002115BCEF3B072CF02130E4E03E0724F46A
:1035B00005C000E01CEF02C000E014E08091920C16
:1035C00080FF06C0F2E05F1203C01195019511095A
:1035D000252C312CF101EE0FFF1FE953F74F11831A
:1035E0000083C80117FF04C088279927801B910B0F
:1035F00054E0969587955A95E1F78230B0F48111A1
:1036000007C091E0022C01C0990F0A94EAF70AC0A2
:1036100081E090E0022C01C0880F0A94EAF79091B3
:103620002A0198232B81292B2B8383E0851508F40D
:1036300070C080913B01811148C0452D4F5E50E024
:1036400040515109A1E0B0E002C0AA0FBB1F4A954A
:10365000E2F7AD01416080912F0890913008482336
:103660005923452B09F0B8C030C0A42DAF73B0E08A
:10367000CD01880F991F8B53984FAD01440F551FF3
:103680004258534FDC012D913C91DA018D919C9170
:10369000281B390BA181BB27A7FDB0950E9433677A
:1036A000A50194010E94C76742944694469443E062
:1036B0004422842D90E08130910519F0029729F47D
:1036C00003C0020F131F01C08901ED81FE81EF2BA2
:1036D000C9F0F1E05F1619F023E0521213C02091F7
:1036E000EC0B30E0D8010E944767EAE0660F771FD5
:1036F000881F991FEA95D1F7A70196010E94C76715
:10370000022F132FF101EE0FFF1FED5CFE4F11830F
:1037100000838FEF681A780A97E06916710409F040
:10372000FECE6C8183E391E00E94A73A00917A0972
:1037300008706090920CA1E06A2220E034E0809151
:10374000370190913801281B390B6901EE24D7FC11
:10375000E094FE2C709037085BE2252E51E0352E68
:1037600010E0812C68E0962EA12CB12C6C81812F69
:103770000E94B824612F0E9485242C011230F9F494
:103780000023E9F0662019F0519441945108920108
:10379000442737FD4095542F23583F4F4F4F5F4FDD
:1037A000C701B6010E946167A50194010E94C76725
:1037B0002115B8E03B074105510521F402C0711005
:1037C00016C09201220F331FF101219331931F0183
:1037D0001F5F143059F60EC0F101EE0FFF1FEA57BC
:1037E000F34F4080842D807C09F03FCF6ECF412C79
:1037F000512CE7CF8B8126960FB6F894DEBF0FBE13
:10380000CDBFDF91CF911F910F91FF90EF90DF908F
:10381000CF90BF90AF909F908F907F906F905F9070
:103820004F903F902F900895FF920F931F93CF9347
:10383000DF93F62E10912B0D882309F44AC0812FB7
:103840000E94EA23EC01012FFF2011F0015001C07A
:103850000F5F188107FF09C0812F8C7009F46FC0BA
:10386000812F869586958D5F0BC00E3071F4812F68
:103870008C708C3009F463C0812F869586958F5F9C
:103880008370880F880F137F4FC0802F0E94EA2318
:10389000BC01FC01808118271C7011F48370B9F4FD
:1038A0009881892F869586958370FF2029F088233B
:1038B00009F445C08D5F04C0833009F440C08F5FB8
:1038C0008370880F880F937F982B98832FC044E0D4
:1038D00030C0812F0E94E223EC01012FFF2011F064
:1038E000015001C00F5F188107FF03C0812F8F7047
:1038F00012C0003219F4812F8F7011C0802F0E94E6
:10390000E223BC01FC01808181278F7089F0812F27
:103910008F70FF2021F0882391F0815F03C08F30EA
:1039200071F08F5F8F70107F182B1883C1E009C072
:1039300049E0CE010E944C2200932B0DF7CFC0E04E
:1039400003C082E00E9446228C2FDF91CF911F910D
:103950000F91FF900895682F86ED98E00E94F22164
:103960001092DC081092DB0808951F93CF93DF9329
:1039700000D0CDB7DEB7182F81E14A8369830E945A
:10398000AB1C10922F0769816295607F60933007AE
:103990001093D6084A81409337070F900F90DF911C
:1039A000CF911F910895CF92DF92EF92FF920F93E4
:1039B0001F93CF93DF937C016B01C0E0D0E0809137
:1039C000DC0890E086010C1B1D0B8017910708F4A2
:1039D0008C0197012C0F3D1FA80160E070E0C90128
:1039E0000E94FB67C00FD11F8091DC08801B809371
:1039F000DC0881113FC08091DB0890E0A6014C1BE0
:103A00005D0B8417950708F4AC01B7016C0F7D1F9F
:103A100086ED98E00E949537C80FD11D9091DB0884
:103A2000981B9093DB08911125C041E050E06BEDAD
:103A300078E086ED98E00E9495378130D9F4809146
:103A4000DB0887FF0FC0282F30E004E0359527956D
:103A50000A95E1F7277033272093DC088F70809355
:103A6000DB08ADCF86FFABCF8F738093DC0810925D
:103A7000DB08A5CFCE01DF91CF911F910F91FF9071
:103A8000EF90DF90CF9008959AE0ECE3F7E0DF014C
:103A90001D929A95E9F7803118F020E030E019C0C6
:103AA0008F5F0E94AB1C6AE070E08CE397E00E949D
:103AB000D31C0A9791F78091D60890E0FC01EE0F95
:103AC000FF1FE80FF91FE450F94F20818181382F43
:103AD0003F70C901089580E00E94AB1C61E070E076
:103AE0008CE49CE00E94D31C019709F015C08091E2
:103AF0004C0C8D3C89F412C081919191280F391F93
:103B00008CE0E536F807C1F781E04091770C5091E1
:103B1000780C4217530799F080E0089580E00E94E6
:103B2000AB1C6FE470E08CE49CE00E94D31C8035F9
:103B3000910590F7EDE4FCE020E030E0DDCF089562
:103B40007093DA076093D9079093D8078093D707CB
:103B50004F5F4093E908E39A80913707811102C0D3
:103B60000895A8958091E9081816DCF30895FC01E2
:103B7000808141FF02C0682B06C042FF03C06095F0
:103B8000682301C0682760830895EDE7F0E0808135
:103B9000857E808317981F9AAAE8B0E01C92109245
:103BA0008B0082E88C9380818062808308954F929D
:103BB0005F926F927F928F929F92AF92BF92CF92BD
:103BC000DF92EF92FF920F931F93CF93DF9300D07A
:103BD00000D0CDB7DEB78C01A0E0B0E089839A8336
:103BE000AB83BC832B01612C712C24E6822E912C9B
:103BF000A12CB12CA50194012419350946095709B6
:103C0000BC01CD010E9461676B017C0192E3C90E8A
:103C1000D11CE11CF11C9801D8010E943B679B015B
:103C2000AC0169817A818B819C810E9461679C01D2
:103C300044275527C301B2010E94616744E096956D
:103C40008795779567954A95D1F7C60ED71EE81EDA
:103C5000F91EC701B601A50194010E94A567C9011B
:103C60000F900F900F900F90DF91CF911F910F91B8
:103C7000FF90EF90DF90CF90BF90AF909F908F908C
:103C80007F906F905F904F9008951F9341E0262F93
:103C900030E0683050F440E055E0529FF001539F0F
:103CA000F00D1124EA5DF44F0AC02850310959E0A3
:103CB000529FF001539FF00D1124E25BF44F9C5F83
:103CC00097FD0DC0811528E0920784F0442319F078
:103CD00088E090E002C084E090E0E80FF91F2081C6
:103CE000332727FD3095322F222725C0442329F082
:103CF000492F9927880F991F03C0492F4695917026
:103D0000242F30E0E20FF31F608140E052E0481BB7
:103D1000590B5595479564039001659F300D11240B
:103D20001181BC01759567951603A001179F500D71
:103D30001124240F351FC90169E170E00E949167C9
:103D4000CB011F91089560912A0D0C94451EE5E268
:103D5000F2E020E0822F806487B9369A349BFECF50
:103D6000349A84B195B1880F991F819391932F5FF5
:103D7000283081F70895E5E2F2E040E0842F806486
:103D800087B954E080E090E0369A349BFECF349AB5
:103D900024B135B1820F931F5150B1F79695879595
:103DA000819391934F5F483049F70895A5E2B2E0BF
:103DB000E5E3F2E040E0842F806487B9369A2089F9
:103DC00031898D919C91119796958795820F931FBC
:103DD0008E7F11969C938E9380819181820F931F89
:103DE00096958795918B808B349BFECF349A84B1C6
:103DF00095B120813181820F931F9695879581938C
:103E000091934F5F12964830B1F6089580935A020D
:103E1000089540E450E060E070E087EF96E00C9495
:103E2000A01DFA0170E090E1899F600D711D1124C1
:103E30006F5F7F4F422F50E0CF010C94A01D41E0F7
:103E400050E062E070E089EF96E00C94A01D609372
:103E5000240290E1899FB001112441E050E084E206
:103E600092E00C94A01D93E0899FB00111246C5F37
:103E70007F4F282F30E0C901880F991F820F931FB1
:103E800043E050E08550994F0C94A01DCF92DF92F3
:103E9000EF920F931F93CF93DF931F92CDB7DEB7AF
:103EA000282F30E0D901AA0FBB1FA20FB31FA950C2
:103EB000B94F14968D919D91AC911697C62ED12C29
:103EC000F601EE0FFF1FEC0DFD1DE950F94FC48008
:103ED000D580E6801496CD92DD92EC9224833583D2
:103EE000468307E317E091E0F801908369830E941D
:103EF000331F6981862F0E94331FF80110820F90B3
:103F0000DF91CF911F910F91EF90DF90CF900895A7
:103F1000A998AB98AC988BBBAD9AAD98AB9AA99A7F
:103F200008951F93CF93DF9310E0C7E6D2E084E0BB
:103F30000E94881F80E10E94881F812F806B0E9451
:103F4000881FA998AB9AAC98CE0180589F4FFE016C
:103F500021912BBBAD9AAD98E817F907C9F7C05866
:103F6000DF4FAB9AA99A1F5F183009F7DF91CF9105
:103F70001F910895CF93C82F81E80E94881F8C2F2E
:103F8000CF910C94881F87FD59C047FF02C0640F72
:103F9000419567FF02C0460F60E0A42FBB27A7FD35
:103FA000B095A60FB11D67FDBA95A134B10514F007
:103FB00040E4461B253511F460FF2AEA362F35957B
:103FC00035953595E82FF0E050E83503E00DF11D0B
:103FD0001124E959FD4F6770B9F0A1E0B0E0062E59
:103FE00001C0AA0F0A94EAF7A195A2238081A8270D
:103FF000A083E058FF4F6850460F06C0808182279B
:104000008083E058FF4F48501416C4F3842F99273B
:1040100087FD9095089668E070E00E94916788237C
:1040200069F0E058F10941E050E001C0440F8A9581
:10403000EAF74195422380814827408308952FEF76
:104040000C94C31FCF92DF92FF920F931F93CF93D5
:10405000DF931F92CDB7DEB7142F6034C8F587FF0A
:1040600002C0180F80E0C82EDD24C7FCD094F601F2
:10407000E10FF11DE138F10514F010E8181B862F4F
:1040800086958695869590E8899FC00CD11C112451
:10409000E7E6F2E0CE0EDF1E677081E090E0F82EDA
:1040A00001C0FF0C6A95EAF711C020FF0AC0402F3B
:1040B0006F2DC60129830E94B71D2981269520688E
:1040C00001C026951150FFEFCF1ADF0A1111EDCF75
:1040D0000F90DF91CF911F910F91FF90DF90CF90C4
:1040E0000895DF92EF92FF920F931F93CF93DF9388
:1040F000C82F162FD42FD22EF02EE0FE17C080919D
:10410000270886FF13C023C0CF5FD250612F6150B4
:104110006D0D00E02F2D4D2F8C2F0E9422202F2D72
:104120004D2F612F8C2F0E94222011C02F2D4D2D3D
:10413000612F8C2F0E94C31F8C2F81502F2D4D2D4E
:10414000612F8D0F0E94C31FE3FEDECFDFCFDF9113
:10415000CF911F910F91FF90EF90DF900895262F40
:1041600026952695269590E030E8239F800D911D99
:10417000112489599D4F26E08736920750F4262F47
:10418000277061E070E001C0660F2A95EAF70C9491
:10419000B71D0895CF92DF92EF92FF920F931F9376
:1041A000CF93DF937C012EEE40E460E08EE50E9429
:1041B000C31F00E02EEE40E460E28EE30E94222066
:1041C000AFE3DA2EC0E2DCEFBFE3CB2E0FE310E06B
:1041D000CE01F70109959C5F97FD01969C013595ED
:1041E0002795C29EA001C39E500D1124452F55272F
:1041F00046954695B801641B750B42E08D2D0E94D3
:10420000AF20A096D394FEE7DF12E2CFDF91CF91EB
:104210001F910F91FF90EF90DF90CF900895CF9274
:10422000DF92EF92FF920F931F93CF93DF93362F7E
:1042300036953695369590E010E8319F800D911DAA
:104240001124DC01A959BD4F21FD08C020FD02C089
:10425000F12C06C03091270836FFFACFFF24F394E3
:1042600022FF51C0642F70E060527109C4E076955E
:104270006795CA95E1F730EA369FC001379F900DE8
:1042800011243AE0439F800D911D11248E569A4FC0
:1042900035E02870222319F0311103C097C0332371
:1042A00091F0FC01C491E056FF4F7491AC014F5F57
:1042B0005F4FFA01D491FC01EF55FF4F6491ED2F50
:1042C000FC2FCA0104C060E070E0E0E0F0E0FF20F5
:1042D00021F0F095E09570956095ED01CF57DF4F97
:1042E00016E0C736D10750F4FC931196EC93119762
:1042F000FD01E058FF4F708368831296019631509C
:1043000008F0C8CF63C023FF0DC0FF2011F02FEFCE
:1043100001C020E0FC01E959FD4F20831196EE24F5
:10432000E39401C0E12C35E0439FA0011124405BE0
:104330005B4F6770262F30E0EFEFF0E0CF01062EE5
:1043400001C0880F0A94EAF7D82ED09488E090E054
:10435000821B930B082E02C0F595E7950A94E2F7AD
:10436000CE2EC09475E0772329F0FA014F5F5F4F9E
:10437000C49101C0C0E0F110C095EE2011F074307E
:1043800019F1E6E0A736BE07F8F4D0E08E01022E60
:1043900001C0000F0A94EAF7FC91FD21F00FFC9395
:1043A000662389F0FD01E058FF4F16E0E736F1077C
:1043B00050F4082E02C0D595C7950A94E2F7D08133
:1043C000DC21DC0FD0831196715068F6DF91CF911C
:1043D0001F910F91FF90EF90DF90CF90089520E014
:1043E0000C940F21DC016C9312961C921E92119773
:1043F00070E0FB01EE0FFF1FE60FF71FE950F94FCA
:10440000848113968C93139714961C9210923807FC
:10441000089590E0FC01EE0FFF1FE80FF91FE9502F
:10442000F94F81E09481911101C080E00895EF92ED
:10443000FF920F931F93CF93DF93E62EF82EC0E1E8
:10444000D0E0082F10E08F2D992787FD9095EE2062
:1044500011F0419601C00F96BE010E949167F82E9F
:104460008F5F0E940922882349F02F2D332727FDD3
:1044700030952017310739F7FF24FA948F2DDF91FB
:10448000CF911F910F91FF90EF900895E5EDF8E027
:104490009081982B90830895DB01FC0104C08081FA
:1044A0009C9191938D934150D0F70895CF92DF92D4
:1044B000EF92FF920F931F93CF93DF9380917A092E
:1044C0008770909100019817C9F0809300010E94B5
:1044D000C51D1EBC80E49CE99BBD8ABD1DBC1CBCE7
:1044E00087B7837C87BF8CE386BF8FE380937C0094
:1044F00087B7806187BF1FBC8AE08EBD80917B0932
:1045000085FF03C060E075E002C060E074E0D09019
:104510007A09D594D594D594D594DD0C28E0D20EA3
:1045200080917C0944E68402C0011124885A9D4F81
:104530001091450C48EE53E014039001159F300D87
:10454000112428533045281B390BEAEEF8E0C12C22
:10455000A7E6B6E000271127061B170BC8E5D2E037
:10456000C81BD90B1EC0419151914017510724F02F
:10457000461757071CF403C0A80101C0AB01405AFD
:10458000564F7C01E40EF51E2E193F094C0F5D1F9E
:1045900011965C934E9313969C938E931297149658
:1045A000C394CD10E0CF44E0C49EF0011124E9593A
:1045B000F94F31832083938382831582148287E6A7
:1045C00096E09093030180930201DF91CF911F91B8
:1045D0000F91FF90EF90DF90CF9008950E945622A8
:1045E00087B7806187BF08952CE53DE0F9012F5F13
:1045F0003F4F80818535D1F39F012B553D40C90147
:1046000008952091C40732B78091C4072813F9CFC9
:10461000922F80E0AC01432B9A01C9010895CF92FB
:10462000DF92EF92FF92CF93DF936B017C01C0E1A9
:10463000D0E040E050E8E0E0F0E89A01DA010E94C2
:104640003B67C616D706E806F90610F44E275F2723
:10465000F695E795219719F04E2B5F2BEECFCA0107
:10466000DF91CF91FF90EF90DF90CF90089590E091
:10467000FC01EB5BF74F1082FC01EE0FFF1FDF0127
:10468000A15CB74FE80FF91FE659F64F2385348533
:104690002D933C93FC01ED5BF74F1082089580E071
:1046A0000E94372381E00C9437238EE587B9369A30
:1046B000349BFECF349A84B195B1909335088093A2
:1046C00034080895E82FF0E0E658F14FE491F0E067
:1046D000EE0FFF1FEB5DFD4F20813181C901089571
:1046E0001F93CF93DF939C016115710509F1132F7F
:1046F000111F1127111F19F031952195310977FFED
:104700000EC0719561957109C0E0D4E0CE01821BA5
:10471000930B0E94D71D9E01281B390B04C0C901B1
:104720000E94D71D9C01112319F031952195310963
:10473000C901DF91CF911F9108959C016330A1F0D1
:1047400034F4613051F064F4662391F120C0653097
:10475000A9F084F06630D9F416C097FF29C010C0C4
:10476000181619062CF50CC097FF22C0319521951B
:1047700031091EC018161906B4F002C097FD16C004
:1047800020E030E015C01816190684F40CC067FF4D
:1047900006C031952195310986E0861B682F675048
:1047A000C9010C94451E20E034E002C020E03CEF3B
:1047B000C901089595E0899F900111242256354F33
:1047C000C901089599E0899F900111242258364F1C
:1047D000C901089594E0899F900111242251354F19
:1047E000C90108951F93CF93DF93182F882311F0E9
:1047F000CDE001C0CFE1D0E08C2F112331F00E9439
:10480000EA23FC019081937005C00E94E223FC0121
:1048100096819F779111DF5FC150C7FFEDCF8D2F3C
:10482000DF91CF911F910895CF93C82F0E94F2235B
:10483000282F30E0C1110CC00FC082E59EE002C0FD
:1048400085E69EE09093BF078093BE0781E008C095
:104850002E30310594F703C0203231058CF780E00B
:10486000CF9108959DE0899F900111242351344FE9
:10487000C9010895EF92FF920F931F93CF93DF9397
:10488000EA01E62EF12C8701000F111FF801E45E0A
:10489000FE4F0190F081E02D309779F043383FEFE3
:1048A000530724F04D37510524F405C0C3E8DFEF6A
:1048B00002C0CDE7D0E0C0831FC00E943224FC01BB
:1048C000EE0DFF1D9E013595279535952795208383
:1048D00023E030E0002E01C0220F0A94EAF7209571
:1048E000FC0134812323C370DD2701C0CC0F0A955E
:1048F000EAF72C0FFC01248382E0DF91CF911F9116
:104900000F91FF90EF900C9446220F931F93CF933B
:10491000DF93062F10E0E801CC0FDD1FFE01E45EFF
:10492000FE4F0190F081E02D309729F02081332750
:1049300027FD309517C00E943224FC01E00FF11FC3
:104940004081FC012481332727FD309502C0359535
:104950002795CA95E2F72370332784E04802200D9B
:10496000311D1124C901DF91CF911F910F9108953D
:104970001F93CF93DF93182FC62FD5E0CC2389F058
:10498000612F8C2F0E948524853F21E092074CF0F7
:10499000982F955F9C1708F09F5FD150C92F71F732
:1049A000C0E08C2FDF91CF911F9108958823E1F013
:1049B00087FF06C0863E1CF0E0E6E81B16C0819526
:1049C0008B311CF4E82FE05C10C085321CF4E82F1A
:1049D000EB5E0BC0893244F4E82FFF27E7FDF0952A
:1049E000E35AF14FE49101C0E0E28E2F0895AF92B7
:1049F000BF92DF92EF92FF920F931F93CF93DF93BB
:104A00001F92CDB7DEB7182FE62E5A01F22E802F57
:104A100080738983F4E0DF2ED0222EC0E981E0315B
:104A200019F0E03249F403C0F501808107C0F501B7
:104A300080810E94D62402C0F5018491811103C0B7
:104A40001093280D1CC01B37D8F7803260F0202F40
:104A5000482F6E2D812F0E940F21D11002C01A5FA6
:104A600007C0155F05C0982F990F980F990F190F60
:104A7000FFEFAF1ABF0AFA94F110D0CFE1CF0F9039
:104A8000DF91CF911F910F91FF90EF90DF90BF903A
:104A9000AF9008950F93022F2FEF0E94F7240F91EC
:104AA0000895AB0120E0682F80E00C944A2520E0B7
:104AB0000C944A250F93FA0194914F5F5F4F929F98
:104AC000400D511D1124292F0E94F7240F910895A4
:104AD000FF920F931F93CF93DF93D82F162FC42FDE
:104AE000022F411104C020E043E251E12EC0A0E4B6
:104AF000FA2EF22226FD0AC0463111F421E003C04D
:104B00004A3E21F420E04CE151E11FC0C7FF08C03C
:104B10002EE548E0612F8D2F82500E94C31FC19562
:104B2000C6317CF0FF2011F085E101C086E1C81B91
:104B300007FD07C0202F4DE6612F8D2F8E5E0E944E
:104B40000F212C2F215047E054E1612F8D2F0E941F
:104B50005A25DF91CF911F910F91FF9008950F93E8
:104B60001F93CF93DF93D82F162FC42F022F47FF09
:104B700009C084E0841BC82F41E28D2F86500E941B
:104B80000F2108C0453034F4242F48E754E10E9437
:104B90005A250CC0202F20644C2F4450612F8D2F9C
:104BA000DF91CF911F910F910C946825DF91CF91E8
:104BB0001F910F9108950F934150022F242F4FEC16
:104BC00051E10E945A250F9108950F93222311F06D
:104BD00002E001C000E0242F4CE151E10E945A257F
:104BE0000F910895E091950CF0E0E957F14FE491B1
:104BF000F0E024E030E0281B3109220F331F02C00F
:104C0000F595E7952A95E2F7E370FF278E2F8F5FE2
:104C100008959C0145E0359527954A95E1F7280FC1
:104C2000391FAC01440F452F441F550B241B350B76
:104C3000892F990F990B8595280F391FC901089560
:104C40006F927F928F929F92AF92BF92CF92DF929C
:104C5000EF92FF920F931F93CF93DF93C82F00E142
:104C60002BE046E051E167E00E945C35882309F4BF
:104C70008CC022E048EF5EE060E080E00E944A25C0
:104C8000C0903208CA94C03611F0C43641F4C7FC53
:104C900006C0C0922A0D80E691E10E943013A12C3B
:104CA000912CBB24B39418E0DD24C7FCD09495E08C
:104CB000892E29E0722E2091C2072A0DE22EF12CB6
:104CC000CE14DF0411F402E001C000E06624639416
:104CD000283028F4612C87E08B1528F44FC0E6E0DB
:104CE000EB1508F44BC0911001C0902E2F5F40E0EF
:104CF0005FE0612F80E00E94AD3E662059F0F8E051
:104D0000EF1AF1087E9CE0017F9CD00D1124C25B5C
:104D1000D44F07C08E9CE0018F9CD00D1124CA5D3A
:104D2000D44F7E010CE2F70141917F01552747FDE9
:104D3000509520E0612F802F0E94C03F0B5E053907
:104D400091F788E0F82EF10E611003C0B3941F2D87
:104D500011C025960CE24991552747FD509520E05A
:104D60006F2D802F0E94C03F0B5E0038A1F7105FAF
:104D7000B394B394A394F7E0AF129DCF911005C004
:104D80008091C2078F5F8093C207DF91CF911F91FF
:104D90000F91FF90EF90DF90CF90BF90AF909F90DA
:104DA0008F907F906F9008950F9300E026E049E880
:104DB00054E162E00E945C35882349F122E043E03F
:104DC0005FE060E080E00E944A256BE07FE080E1E8
:104DD0000E9451256AE17FE088E10E9451256CE242
:104DE0007FE080E20E9451256DE37FE088E20E942F
:104DF00051256CE47FE088E30E94512540914C0CE2
:104E000020E850E068E380E30F910C94C03F0F91DD
:104E10000895CF92DF92EF92FF920F931F93CF935B
:104E2000DF931F92CDB7DEB700E026E049E854E1FA
:104E300063E00E945C35882309F482C022E045E5E6
:104E40005FE060E080E00E944A254EE0C42ED12C55
:104E500010E04C2D8C2D8E50012F843008F008501E
:104E6000C60149830E94A738F82E49814D5020E0A1
:104E7000602F80E30E946825FF2011F022E001C02E
:104E800020E04F2D405D602F84E40E940F21185FC9
:104E90008FEFC81AD80A1834E1F618E3C12CD12CC8
:104EA000C6010E94A738F82E00E02C2D48EE53E1F1
:104EB000612F80E00E945A254F2D405D2F2D612FDC
:104EC00080E20E940F21EFEFCE1ADE0A1850183050
:104ED00039F74AE55FE068E184E50E94572536E04E
:104EE000C32ED12C10E2202F4FE95EE0612F84E524
:104EF0000E941E3DC6010E94A738E82EC6010196F9
:104F00000E94A738F82EEE2011F022E001C020E028
:104F10004E2D405D612F8CE60E940F21FF2011F085
:104F200022E001C020E04F2D405D612F88E70E9404
:104F30000F210F5F185FF2E0CF0ED11C043099F6FD
:104F40000F90DF91CF911F910F91FF90EF90DF9025
:104F5000CF9008956F927F928F929F92AF92BF925F
:104F6000CF92DF92EF92FF920F931F93CF93DF9335
:104F70001F92CDB7DEB7982E01E026E049E854E154
:104F800064E00E945C35882309F494C022E042E684
:104F90005FE060E080E00E944A2567EC662E68E0F2
:104FA000762EB12C812CC12C74E0D72EE12CF12C63
:104FB000A82CA39400E02A2D46E65FE06B2D88E143
:104FC0000E94AD3E882D0E9462238C0194E495508E
:104FD000A8014F7055274A302CF0495C41341CF031
:104FE00028E002C0405D20E06B2D892F99830E944C
:104FF0000F2154E0169507955A95E1F79981903362
:1050000031F747E0841689F0F301A081B18124E6ED
:1050100030E00E944767A70196010E94C767422FB0
:105020006B2D86E60E940B400FC0809132088130C4
:1050300011F422E001C020E040913C0850913D086D
:105040006B2D86E60E94C63FF8E0BF0E42E0640E7C
:10505000711C8A2CAF12ACCF48E65FE068E282E7B1
:105060000E945725409134085091350820E060E3B4
:105070008EE70E94C03F87E00E94622323E2FC018A
:105080002E9FC0012F9F900D1124492F469520E29D
:1050900050E068E38EE70E94C03F80913208813083
:1050A00049F42FE741E860917C0C892D0E942E5C29
:1050B00080937C0C0F90DF91CF911F910F91FF9007
:1050C000EF90DF90CF90BF90AF909F908F907F90A8
:1050D0006F900895DF92EF92FF920F931F93CF93FB
:1050E000DF93F82E00E026E049E854E165E00E94F5
:1050F0005C35882309F4E1C022E04BE65FE060E024
:1051000080E00E944A25CAE4D7E010E0812F0E9487
:1051100062239C0148815981841795070CF4AC01E6
:10512000499359934C855D85421753070CF4A901A7
:105130005D874C871F5F173049F7C0915802C093B5
:10514000550220E2F21621F08FEBF8120CC009C0D4
:105150008C2F8F5F80935802833029F481E00E9466
:1051600046221092580280915802813061F020F05E
:10517000823009F099C02FC047E75FE068E182E123
:105180000E94572591C0CC2311F022E001C020E0FD
:1051900048E85FE060E18EE10E944A2543E95FE074
:1051A00068E182E10E945725CCE3D7E0D12C18E9D1
:1051B000E12E1AE3F12E08E615ECFF86EE861D8F30
:1051C0000C8F8D2D0E94622389939993D394E7E0ED
:1051D000DE12F3CF69C0CC2311F022E001C020E041
:1051E00044EA5FE060E182E10E944A2543E95FE032
:1051F00068E182E10E945725EAE4F7E00DE41CE053
:10520000D80161917191848595859B01281B390B8B
:1052100037FF03C03195219531092333310574F1EE
:105220009F0120513109E9014881598111965C9310
:105230004E939A01261B370BB90137FF02C0615C00
:105240007F4FD6E075956795DA95E1F7261B370B0A
:105250001F963C932E931E97841B950B9C0197FFE2
:1052600002C0215C3F4FC6E035952795CA95E1F70E
:10527000821B930B5D969C938E935C971296D7E05E
:10528000E835FD0709F0BDCF80E090E0F8012191FD
:1052900031918F01820F931FFCE005361F07B1F794
:1052A0009093780C8093770CDF91CF911F910F91A1
:1052B000FF90EF90DF900C94A818DF91CF911F9191
:1052C0000F91FF90EF90DF9008952F923F924F92B1
:1052D0005F926F927F928F929F92AF92BF92CF9286
:1052E000DF92EF92FF920F931F93CF93DF9300D043
:1052F0001F92CDB7DEB7382E69838091BE0790919B
:10530000BF07892B11F0712C01C07980172D1F71F7
:105310008091C007F72C882319F0113009F4FA9412
:10532000332019F041EE56E102C049EE5EE022E082
:1053300060E080E00E944A25832D0E94F223909134
:10534000280D20E0482F50E060E0892F815F0E9407
:10535000C03F332019F040EF5EE002C044EF5EE052
:1053600060E08091280D0E945725009101010150B5
:10537000332011F064E001C065E02BE046E051E12C
:105380008F2D0E945C35882309F449C4409032086F
:1053900023E6271598F082E6781608F009C1A1E205
:1053A0007A1689F1A71520F0B0E27B124AC155C0E8
:1053B000872D8254823008F044C1FAC0E5E8E71531
:1053C00060F0F4E87F1608F0A1C020E8721609F436
:1053D00072C081E8781235C106C0872D8E5B82309D
:1053E00008F02FC16FC08091C007882349F08091D9
:1053F000BD07811105C060912B0D832D0E94FD35E5
:1054000081E80E9487388091BD07882309F45AC03B
:105410008091C007813031F460912B0D832D0E9463
:10542000FD3516C061E08091BD0718160CF060E0F4
:10543000832D0E94141C8091BD0787FF02C08F5FDF
:1054400001C081508093BD078091BD078111EACFD3
:105450004090BC074092320835C08091290D8823C6
:1054600041F08091C007882331F18091BD078111FF
:1054700022C08091C007813011F482E001C081E038
:105480008093C00780912B0D80935602332041F00A
:105490000E94EA23DC018C9186958695837005C075
:1054A0000E94E223FC0180818F708F5F80935702FE
:1054B0004092BC07C6C0872D0E9487388091BD07E7
:1054C000882329F01092C0071092BD07BAC08091BE
:1054D000C00781111092290D8091290D882351F068
:1054E000832D0E9414248111ACC060912B0D832D5B
:1054F0000E944736332019F087E394E502C08EE11D
:1055000096E50E9430131092C00789C38091C007AE
:10551000882309F496C08091BD07811192C0832D24
:105520000E94142481118DC080912B0D332041F0F5
:105530000E94EA23DC018C9186958695837005C0D4
:105540000E94E223FC0180818F708F5F8093290D80
:10555000F4E87F1205C080912B0D8F5F80932B0D97
:1055600060912B0D832D0E944736332019F087E37D
:1055700094E502C08EE196E50E9430131092C007B8
:10558000872D0F900F900F90DF91CF911F910F916A
:10559000FF90EF90DF90CF90BF90AF909F908F9053
:1055A0007F906F905F904F903F902F900C94873832
:1055B0008091C007882309F444C09091BD07092F4A
:1055C000133011F4015001C00F5F91111FC08130E1
:1055D00071F5832D0E941424811133C060912B0D2D
:1055E000832D0E94015E123021F480912B0D8F5F7C
:1055F0001BC08091C207242D30E0281B31092630C2
:105600003105ECF08F5F8093C20719C001110FC004
:10561000813069F460912B0D832D0E94FD3513308C
:1056200071F480912B0D815080932B0D08C061E0A7
:10563000133009F060E0832D0E94141C8111009347
:10564000BD071092290D55245394212C11E0A0C2BE
:105650002DE0221508F4D2C2822D0E94EA235C01BB
:10566000DC012C91822F86958695837090E00196BF
:105670008C159D0509F0C2C2237009F0B4C2BEC2E8
:10568000BFE1B21508F4BAC2822D0E94E2234C0198
:10569000FC0180818F7090E001968C159D0509F0CA
:1056A000ADC2A4C2212F30E0281B310928303105BA
:1056B00074F4622F660F660F660F20E0452D80E0C0
:1056C000332019F00E943B3F02C00E946F3F622CC2
:1056D00003C05C014F01142F8091C0078823E1F1C2
:1056E000823081F58091C207811760F5E12FF0E0EB
:1056F000E81BF109E830F1052CF58091570285117E
:1057000021C02091BD072223E9F0862D90E0409131
:105710005602332727FD30952227330F221F3327C8
:10572000240F311D8217930769F46E2F660F660FE1
:10573000660F6150E12C05E529E04AE686E10E940A
:1057400071201F5F80912B0D86110BC010933208C2
:105750005092290D412E05C0411203C060922B0DBD
:10576000142D8091C207811708F06FC1212F30E0FE
:10577000281B3109283031050CF067C1F22EFF0CCF
:10578000FF0CFF0C862D332009F4B1C00E94EA23E0
:105790009B838A838091C007811102C0411611F05A
:1057A00000E001C002E0AA81BB8112964C914695AF
:1057B000202F50E06F2D82E20E94C03F002399F01D
:1057C000EA81FB816281669524E640E0872D0E9494
:1057D0001F5C880FAA81BB8112969C9112979170D1
:1057E000982B12969C93AA81BB811396EC914E2F15
:1057F000552747FD509520E06F2D87E30E94C03F5D
:10580000EA81FB818281418142954695477080FD06
:10581000419520E06F2D8CE30E94FA3EAA81BB8166
:1058200011964C91440F440F440F4595459545956D
:1058300020E06F2D82E50E946825EA81FB8180814E
:105840008370833049F0823011F44EE701C04FE796
:105850006F2D86E60E94EF21AA81BB812C91822FB9
:10586000807F79F022952F70822F90E00B9714F0B3
:1058700044E001C040E0420F20E06F2D8EE60E9420
:10588000D33E4091C007442309F4DFC0413021F0EA
:105890008091BD07811123C08091570285111FC0DF
:1058A000862D90E0509156022091BD07332727FDA9
:1058B00030952227330F221F3327250F311D8217E2
:1058C000930769F4413011F40FEF01C005E56F2D26
:1058D0006150E12C29E04EE682E10E947120141112
:1058E000B4C000E027E04CE66F2D83E1ACC00E941D
:1058F000E2239B838A83621469F0FC012281229552
:1059000026952695237000E04DE552E16F2D86E047
:105910000E945A25AA81BB8116964C914F7720E0B0
:105920006F2D8AE10E94643F8091C007811102C0FF
:10593000411611F000E001C002E0AA81BB8111967E
:10594000EC914E2F552747FD5095202F6F2D89E460
:105950000E94C03F002361F02DE743E8EA81FB810C
:105960006181872D0E941F5CAA81BB8111968C9357
:10597000EA81FB814381842F8F7349F0440F440FE8
:105980004595459520E06F2D8FE40E94D33EAA8176
:10599000BB8112964C91842F8F7349F0440F440FB2
:1059A0004595459520E06F2D86E60E946825EA81A1
:1059B000FB818581811102C040E201C043E5AA81DB
:1059C000BB8114968C91882329F0433511F44AE267
:1059D00001C044E420E06F2D8BE70E940F2140912D
:1059E000C007442391F1413021F08091BD0781111E
:1059F00023C08091570285111FC0862D90E05091E1
:105A000056022091BD07332727FD30952227330FFB
:105A1000221F3327250F311D8217930769F4413068
:105A200011F40FEF01C005E56F2D6150E12C29E065
:105A30004AE686E10E947120141107C000E027E0C9
:105A400048E66F2D87E10E941140412F4F5F63941C
:105A5000F4013996C50104963320A1F0BDE0B615D6
:105A6000F8F0D50114965C91252F26952695237084
:105A700030E02F5F3F4F2C153D0591F4537009F036
:105A800028CE0EC0BFE1B61558F0D40119962C915E
:105A90002F7030E02F5F3F4F2C153D0509F419CED4
:105AA0008091C007823009F070C08091C2078417CE
:105AB00008F06BC0E42FF0E0E81BF109E830F105D5
:105AC0000CF063C08091570285115FC0A62DB0E035
:105AD000809156022091BD07332727FD309522275C
