:100000000C94A60C0C94CE0C0C94CE0C0C94CE0C30
:100010000C94CE0C0C94CE0C0C94CE0C0C94CE0CF8
:100020000C94CE0C0C94CE0C0C94CE0C0C94CE0CE8
:100030000C94243E0C94CE0C0C94CE0C0C94DE3B11
:100040000C94053F0C94CE0C0C94ED3C0C94CE0C0F
:100050000C94CE0C0C94CE0C0C94F03D0C94CE0C65
:100060000C94CE0C0C948A3E0C94CE0C0C94CE0CBA
:100070000C94CE0C0C94CE0C0C94CE0C0C94CE0C98
:100080000C94CE0C0C94CE0C0C94CE0CD529D82903
:10009000EA29F229F829FE29022AFE29072A0C2A30
:1000A000102A152A262A2B2A302A362A3C2A3F2AA9
:1000B000422A482A4D2A532A582A5E2A702A832A1D
:1000C000942AA02AB22AC42ACA2AE22AE62A0000CE
:1000D0000000000000006F000007000700147F14FC
:1000E0007F14242A7F2A122313086462364955227A
:1000F000500005030000001C2241000041221C00AA
:1001000014083E081408083E08080050300000009B
:100110000808080800606000002010080402003E83
:1001200041413E0000427F40006251494600414942
:100130004936001814127F0027454539003E4949C9
:100140003200017905030036494936000649291E67
:100150000000363600000056360000081422411414
:10016000141414144122140800020151090606094E
:100170000906007E0909097E7F494949363E414109
:1001800041227F4141221C7F494949417F09090998
:10019000013E4149497A7F0808087F00417F4100BC
:1001A0002040413F017F081422417F404040407F72
:1001B000020C027F7F0408107F3E4141413E7F09CF
:1001C0000909063E4151215E7F0919294626494900
:1001D000493201017F01013F4040403F1F20402044
:1001E0001F3F4030403F631408146307087008073E
:1001F0006151494543007F4141000204081020003D
:1002000041417F000402010204404040404000019F
:1002100002040020545454787F48444438384444FD
:100220004420384444487F3854545418087E090107
:10023000020C5252523E7F0804047800447D400074
:100240002040443D007F1028440000417F40007C56
:10025000041804787C0804047838444444387C1436
:10026000141408081414187C7C0804040848545416
:100270005420043F4440203C4040207C1C2040202F
:100280001C3C4020403C44281028440C5050503C1A
:100290004464544C44000836410000007F000000D4
:1002A000413608000808221C08081C220808000023
:1002B000000000000000000000000000000000003E
:1002C00000000000000000000000FE71FE71000050
:1002D000000000000000000000003E007E00000062
:1002E00000007E003E000000000060066006FE7F09
:1002F000FE7F60066006FE7FFE7F60066006601877
:10030000F01898199819FE7FFE7F98199819180F00
:1003100018060C181E1C1E0E0C078003C001E030CE
:10032000707838781830781EFC3F8E71C663E667A7
:1003300076663C3C183C00660066000000006600E3
:1003400076003E001E0000000000000000000000DB
:100350000000E007F00F381C1C380E70066000002B
:1003600000000000000006600E701C38381CF00F02
:10037000E0070000000060066006C0038001F81F6F
:10038000F81F8001C00360066006800180018001C3
:100390008001F81FF81F80018001800180010000AA
:1003A000000000660076003E001E00000000000015
:1003B0000000000000000000800180018001800139
:1003C000800180018001000000000030007800788A
:1003D000003000000000000000000018001C000EAB
:1003E00000078003C001E000700038001800000022
:1003F0000000F81FFC3F0E70066006600E70FC3FA8
:10040000F81F0000000018601C60FE7FFE7F006087
:100410000060000000000000000018781C7C0E6ED8
:1004200006678663CE61FC607860000000000660AD
:100430000660866186618661CE73FC3F781E00008F
:1004400000008007C007E006700638061C06FE7F25
:10045000FE7F000000007E187E3866706660666071
:10046000E670C63F861F00000000F81FFC3F8E713B
:10047000866186618E731C3F181E00000000060016
:100480000600867FC67FE60076003E001E00000064
:100490000000781EFC3FCE7386618661CE73FC3F00
:1004A000781E000000007800FC00CE61867186395D
:1004B000CE1DFC0FF80700000000300C781E781EDF
:1004C000300C00000000000000000000000030665A
:1004D0007876783E301E000000000000000000002A
:1004E00000008001C003E007700E381C1C380E703D
:1004F00006606006600660066006600660066006CC
:1005000060066006600606600E701C38381C700EAF
:10051000E007C00380010000000018001C000E006E
:100520000600066606678603CE01FC0078007800A8
:10053000FC00CE0186018601CE01FC00780000009F
:100540000000E07FF07FB8019C018E018E019C01CC
:10055000B801F07FE07FFE7FFE7F86618661866165
:1005600086618661CE73FC3F781EF81FFC3F0E70DB
:1005700006600660066006600E701C381818FE7F64
:10058000FE7F0660066006600E701C38381CF00F97
:10059000E007FE7FFE7F86618661866186618661F7
:1005A000866106600660FE7FFE7F86018601860109
:1005B00086018601860106000600F81FFC3F0E70CA
:1005C00006608661866186618E719C7F983FFE7FA2
:1005D000FE7F800180018001800180018001FE7F1B
:1005E000FE7F0000000006600660FE7FFE7F066062
:1005F000066000000000001800380070006006600F
:100600000670FE3FFE1F06000600FE7FFE7F800193
:10061000C003E007700E381C1C380E700660FE7FA9
:10062000FE7F0060006000600060006000600060AD
:100630000060FE7FFE7F1C003800F001F0013800F2
:100640001C00FE7FFE7FFE7FFE7F7000E000C00189
:1006500080030007000EFE7FFE7FF81FFC3F0E7038
:1006600006600660066006600E70FC3FF81FFE7FA5
:10067000FE7F86018601860186018601CE01FC008F
:100680007800F81FFC3F0E7006600666066E063C9A
:100690000E38FC7FF867FE7FFE7F860186018607A5
:1006A000860F861DCE39FC7078607818FC38CE71C4
:1006B00086618661866186618E731C3F181E060006
:1006C000060006000600FE7FFE7F0600060006000C
:1006D0000600FE1FFE3F00700060006000600060CA
:1006E0000070FE3FFE1FFE07FE0F001C003800706A
:1006F00000700038001CFE0FFE07FE1FFE3F00705A
:100700000070003E003E00700070FE3FFE1F1E782D
:100710003E7C700EE007C003C003E007700E3E7C15
:100720001E787E00FE00C0018003007F007F8003F2
:10073000C001FE007E000678067C066E06678663B2
:10074000C661E66076603E601E6000000000FE7FCD
:10075000FE7F06600660066006600000000018006C
:1007600038007000E000C00180030007000E001C8C
:100770000018000000000660066006600660FE7F4C
:10078000FE7F000000006000700038001C000E00BA
:100790000E001C0038007000600000600060006007
:1007A00000600060006000600060006000600000A9
:1007B000000006000E001C00380070006000000001
:1007C00000000018003C607E6066606660666066DF
:1007D000E066C07F807FFE7FFE7F8061C061E06059
:1007E00060606060E070C03F801F801FC03FE070AD
:1007F0006060606060606060607000380018801F3A
:10080000C03FE07060606060E060C0618061FE7F5A
:10081000FE7F801FC03FE07660666066606660664F
:10082000E066C007800780018001F87FFC7F8E01B1
:10083000860106000E001C001800E001F003386776
:1008400018661866186618661876F83FF81FFE7F57
:10085000FE7F8001C001E00060006000E000C07F1A
:10086000807F0000000060606060E67FE67F0060DF
:100870000060000000000018003800700060606038
:100880006070E63FE61F00000000FE7FFE7F00066E
:10089000000F801FC039E0706060000000000000A1
:1008A000000006600660FE7FFE7F006000600000C2
:1008B0000000E07FE07F6000E000C007C007E000CC
:1008C000E000C07F807FE07FE07F8001C001E0002A
:1008D00060006000E000C07F807F801FC03FE0704C
:1008E0006060606060606060E070C03F801FE07FBB
:1008F000E07F60066006600660066006E007C003F1
:1009000080018001C003E007600660066006C00742
:100910008007E07FE07FE07FE07F8001C001E000B2
:1009200060006000E000C00180018061C063E0679A
:100930006066606660666066607E003C001860000D
:100940006000FE1FFE3F6070606000600070003855
:100950000018E01FE03F0070006000600070003889
:100960000018E07FE07FE007E00F001C0038007017
:1009700000700038001CE00FE007E01FE03F00704F
:1009800000700038003800700070E03FE01F6060C9
:10099000E070C039801F000F000F801FC039E07069
:1009A0006060E001E00300670066006600660066C4
:1009B0000076E03FE01F606060706078607C606E91
:1009C0006067E063E061E06060600000000080015B
:1009D000C003781E7C3E0E70066000000000000020
:1009E000000000000000FE7FFE7F0000000000000D
:1009F00000000000000006600E707C3E781EC00300
:100A00008001000000008001800180018001181831
:100A1000381CF00FE007C00380018001C003E0072D
:100A2000F00F381C181880018001800180014E6F82
:100A30002066726565206578706F21004E6F2066B4
:100A4000726565206D6978657221000301020004FA
:100A50000506075F2D2E2C001B1E272D36394B4E09
:100A6000636C7278878D939CB1B4C6C9D2D8E1E427
:100A70004D454E5553204F564552464C4F57004317
:100A800055525645004D6F646500535700000303EF
:100A90000303030303030303030303030303004CE0
:100AA000494D495453005472696D73203D3E204FA7
:100AB000666673657473000002435553544F4D20AE
:100AC000535749544348455300000246554E43206E
:100AD00053574954434845530000000000000000AC
:100AE00000000000000000000000000000FF0152B4
:100AF0004144494F20534554555000537065616B34
:100B00006572204D6F646500537065616B6572207E
:100B10004C656E67746800537065616B6572205038
:100B20006974636800436F6E74726173740042612C
:100B30007474657279205761726E696E6700496ED0
:100B4000616374697669747920616C61726D0046C5
:100B5000696C74657220414443005468726F747408
:100B60006C652072657665727365004D696E75748B
:100B7000652062656570004265657020636F756E03
:100B800074646F776E00466C617368206F6E2062CC
:100B9000656570004C696768742073776974636871
:100BA000004C69676874206F6666206166746572C0
:100BB0000053706C6173682073637265656E0054D6
:100BC00068726F74746C65205761726E696E67002D
:100BD000537769746368205761726E696E67004D60
:100BE000656D6F7279205761726E696E6700416C36
:100BF00061726D205761726E696E67005278204392
:100C000068616E6E656C204F7264005554432D54BC
:100C1000696D652020202020205361740054696D87
:100C200065720044617465004C6174697475646533
:100C30002020202020536174004C6F6E676974750A
:100C400064650047726E6453706565645B6B6E74B7
:100C50005D202053617400436F75727365206F7659
:100C600065722067726F756E640053505300804048
:100C70000000000000000000000000000000000074
:100C80000000000000000000000000000000000064
:100C90000000000000000000000000000000000054
:100CA0000000000000000000000000000000000044
:100CB0000000000000000000000000000000000034
:100CC0000000000000000000000000000000000024
:100CD0000000000000000000000000000000000014
:100CE0000000000000000000000000000000000004
:100CF000FCFCFCFCFCFCFCFCFCFCFCFCFCFCFCFC34
:100D0000FCFCFCFCFCFCFCFCFCFCFCFCFCFCFCFC23
:100D1000FCFCFCFCFCFCFCFCFCFCFCFCFCFCFCFC13
:100D2000FCFCFCFCFCFCFCFCFCFCFCFCFCFCFCFC03
:100D3000FCFCFCFCFCFCFCFCFCFCFCFCFCFCFCFCF3
:100D4000FCFCFCFCFCFCFCFCFCFCFCFCFCFCFCFCE3
:100D5000FCFCFCFCFCFCFCFCFCFCFCFCFCFCFCFCD3
:100D6000FCFCFCFCFCFCFCFCFCFCFCFCFCFCFCFCC3
:100D7000FFFFFFFFFFFFFFFFFF7F7F3F3F3F3F3F43
:100D80003F7F7FFFFFFFFFFFFFFFFF3F3F3F3F3FF3
:100D9000FF7F7F3F3F3F3F7FFFFFFFFFFFFFFFFFE3
:100DA000FF7F7F3F3F3F3F3F3F7F7FFFFFFFFFFFD3
:100DB000FFFFFFFF3F3F3F3F3FFF7F3F3F3F3F3F43
:100DC0007FFFFFFFFF7F0F07030181E0F0F0F0E0FE
:100DD000000101071FFFFFFFFFFFBF3F3F3F3F7FB6
:100DE000FFFFFFFFFF7F3F3F3F3F3FBFFFFFFFFF93
:100DF000FFFFFFFF3F07030100C0F0F8FCFCFCFC15
:100E0000F80000000103FFFFFF3F0100000080E049
:100E1000F8FCFCFCF80000000001FFFF3F070301A5
:100E2000000010181C1C1C1C180000000103FFFF10
:100E3000FFFF1F00000000C0F8FCFCFC10000000D9
:100E400000C0FFFFFFE0800000000F1F1F1F0F0307
:100E500000000000E0FFFFFFFFFFFFFEF8E00000E2
:100E60000107070180E0F0F8FCFEFFFFFFFFFFFF36
:100E7000FFFFFFFFE0C08000000F1F1F1F1F0F07B5
:100E80000180C0E0F0FEFFFF0700000000C00F1F60
:100E90001F1F0F07010080E0F0FEFFFFE0C0800091
:100EA000000E0E1E1E1E1E1E1E1E0ECEFEFEFFFF7E
:100EB0007F0300000080FCFFFFFF3F030000008075
:100EC000FCFFFF1F0F0F1F1F1E1E1E0E0E0781C0EF
:100ED000E0F0FCFFFFFFFF7F3F1F0F030180E0F00A
:100EE000F8E0800001071F7FFFFFFFFFFFFFFFFF0C
:100EF000FFFFFFFFFFFFFFFFFFFEFEFEFEFEFEFF08
:100F0000FFFFFFFFFFFF1F00000000C0FEFFFFFE0E
:100F1000FEFEFEFEFFFFFFFFFFFFFFFFFFFFFFFFE5
:100F2000FFFEFEFEFEFEFEFEFEFFFFFFFFFFFFFFD9
:100F3000FEFEFEFEFEFFFFFFFFFFFEFEFEFEFEFFCB
:100F4000FFFFFFFFFFFEFEFEFEFEFEFEFFFFFFFFB8
:100F5000FFFFFFFFFFFFFEFEFEFEFEFEFFFFFFFFA7
:100F6000FFFFFFFEFEFEFEFEFFFFFFFFFFFFFFFF96
:100F70001F1F1F1F1F1F1F1F1F1F1F1F1F1F1F1F81
:100F80001F1F1F1F1F1F1F1F1F1F1F1F1F1F1F1F71
:100F90001F1F1F1F1F1F1F1F1F1F1F1F1F1F1F1F61
:100FA0001F1F1F1F1F1F1F1F1F1F1F1F1F1F1F1F51
:100FB0001F1F1F1F1F1F1F1F1F1F1F1F1F1F1F1F41
:100FC0001F1F1F1F1F1F1F1F1F1F1F1F1F1F1F1F31
:100FD0001F1F1F1F1F1F1F1F1F1F1F1F1F1F1F1F21
:100FE0001F1F1F1F1F1F1F1F1F1F1F1F1F1F1F1F11
:100FF00000000000000000000000000000000000F1
:1010000000000000000000000000000000000000E0
:1010100000000000000000000000000000000000D0
:1010200000000000000000000000000000000000C0
:1010300000000000000000000000000000000000B0
:1010400000000000000000000000000000000000A0
:101050000000000000000000000000000000000090
:101060000000000000000000000000000000000080
:1010700053504500120800081C0808081C0800000E
:10108000082200490022080000000000227F220000
:101090000000082200490022080000082200490040
:1010A0002208000000227F22000000000008220029
:1010B000490022080000081C0808081C08004D49C7
:1010C000584552002F3134002F33320043555256C9
:1010D00045530043560056455253494F4E0056451E
:1010E00052533A2056322E30302D002053564E3A6D
:1010F000206F70656E39782D723434380044415455
:10110000453A20323031322D30332D3238005449B7
:101110004D453A2032333A31313A33360045455065
:10112000524F4D20760044494147005472696D2D5D
:10113000202B00414E4100410042470043414C49B1
:1011400042524154494F4E005B4D454E555D20542F
:101150004F20535441525400534554204D4944505C
:101160004F494E54005B4D454E555D205748454E06
:1011700020444F4E45004D4F564520535449434B54
:10118000532F504F5453004E616D6500A35775386F
:10119000E15CBC5DC05D7021102F7A24902327573D
:1011A000034F46464F4E20032D2D2D494E560434F5
:1011B00043482036434820384348203130434831A3
:1011C00032434831344348313643480651756965E6
:1011D0007420416C61726D734E6F4B657920416C68
:1011E0006C202020067853686F727453686F727495
:1011F000204E6F726D616C4C6F6E672020784C6F63
:101200006E67200453494E474F534D5046494C5446
:1012100004446F776E4F46462055702020036F665A
:1012200066202B3D203A3D03636831636832636872
:101230003363683406457870202020457846696E0F
:101240006546696E6520204D656469756D436F6103
:1012500072736501524554413132330550504D008F
:1012600020505858002044534D320050504D3136D4
:10127000465554002003504F534E4547032D2D2D06
:10128000783E30783C307C787C663E30663C307C02
:10129000667C0545444954205052534554412E54D0
:1012A0004852065765696768744578706F20204317
:1012B0007572766520506861736520537774636832
:1012C000205768656E2020202020202020084164BF
:1012D0006420202020204D756C7469706C795265F3
:1012E000706C61636520022B3D2A3D3A3D064F4EEE
:1012F000202020204F46462020204F6666736574CC
:10130000072D2D2D2D002020763E6F667320207630
:101310003C6F667320207C767C3E6F66737C767CA7
:101320003C6F6673414E44202020204F52202020E5
:101330002020584F522020202076313D3D7632200B
:101340007631213D76322076313E7632202076315C
:101350003C7632202076313E3D76322076313C3D5F
:101360007632200D536563757269747920002020F0
:1013700020547261696E6572200020202020496E21
:101380007374616E74205472696D20506C617920A1
:10139000536F756E640020205265736574002020C1
:1013A00020202020200654696D65723154696D65D6
:1013B0007232416C6C20202054656C656D2E06578E
:1013C00061726E31205761726E32204368656570BC
:1013D0002052696E672020536369466920526F620C
:1013E0006F742043686972702054616461202043E7
:1013F0007269636B74536972656E20416C6D436CE6
:101400006B5261746174615469636B202048617030
:10141000746331486170746332486170746333047B
:101420002D2D2D00546D7231546D723241310020DA
:10143000413200205478002052780020416C740022
:1014400052706D004675656C543100205432002096
:10145000537064004469737443656C6C41636358F2
:10146000416363594163635A48646700565370642B
:1014700041312D0041322D00416C742D416C742B93
:1014800052706D2B54312B0054322B005370642B4F
:101490004473742B4163630054696D650D436C653F
:1014A0006172204D69786573000053696D706C65D9
:1014B00020342D43482000542D43757420202020D3
:1014C00020202000562D5461696C202020202020EF
:1014D00000456C65766F6E5C44656C7461006543B5
:1014E00043504D202020202020200048656C69209A
:1014F0005365747570202000536572766F205465B3
:10150000737420200005204D656E75204578697440
:1015100020446F776E2020205570526967687420D0
:101520004C65667403544852525544454C454944F1
:101530003049443149443241494C47454154524E67
:1015400053573153573253573353573453573553F7
:1015500057365357375357385357395357415357C3
:10156000425357430452756420456C652054687299
:101570002041696C205031202050322020503320EF
:10158000204D41582033504F534359433143594321
:101590003243594333034F464641425354487354F0
:1015A00048255448740084251137C42FF92F9A30E8
:1015B0005A31408008042010020100290202000074
:1015C00000000006020153455455500054696D65F2
:1015D0007200452E4C696D69747300452E54726912
:1015E0006D73005472696D20496E6300542D5472FE
:1015F00061636500542D5472696D00426565702009
:101600004374720050726F746F00750050504D201B
:101610006672616D65006D73000002020202005483
:101620005241494E455200536C617665006D6F64BE
:1016300065032520737263004D756C7469706C6965
:1016400065720043616C0007414C45525400010231
:1016500003040103020404020301040302014261C2
:101660006420454570726F6D204461746100044DC3
:1016700045535341474500454550524F4D20466F15
:10168000726D617474696E6700454550524F4D200C
:101690006C6F77206D656D005468726F74746C6543
:1016A000206E6F742069646C6500526573657420E8
:1016B0007468726F74746C65005072657373206126
:1016C0006E79206B657920746F20736B697000539D
:1016D00077697463686573206E6F74206F66660047
:1016E000506C6561736520726573657420746865FC
:1016F0006D00416C61726D732044697361626C6549
:1017000064009C1432465A5A4632465AECEC003C6D
:10171000649CC4003C649C0000006420204750533B
:10172000204E4D45412064617461203F2F342020BC
:1017300000454550524F4D206F766572666C6F774D
:101740000004507265737320616E79204B657900D7
:10175000535441545300544D310D544D32005448AC
:10176000520D54482500544F5400444542554700FB
:10177000746D72314C6174206D61780475730074FE
:101780006D72314C6174206D696E04757300746DF7
:101790007231204A697474657204757300746D61E6
:1017A000696E206D6178066D730046726565205321
:1017B0007461636B206D696E0462005B4D454E552C
:1017C0005D20746F20726573657400416C74697478
:1017D000756465205361742020204D617800486F46
:1017E0006D65004C6966740042656570004F4E007F
:1017F0004F4646002F530063004650004D4F44456E
:101800004C0050504D004348005B4D454E555D0423
:101810005B455849545D0044522F4558504F005382
:1018200077697463680025000300464C49474854B3
:10183000205048415345005472696D7300466164FD
:101840006520496E0046616465204F7574005445FB
:101850004D504C41544553004D4F44454C53454C1D
:101860000044454C455445204D4F44454C00436F82
:101870007079696E67206D6F64656C2E2E2E004D39
:101880006F76696E67206D6F64656C2E2E2E004C2E
:101890006F6164696E67206D6F64656C2E2E2E001B
:1018A0006672656500494E53455254204D49582093
:1018B0000045444954204D49582000536F757263C8
:1018C00065005765696768740044696666657200FB
:1018D0004F6666736574005472696D004375727665
:1018E000657300462E5068617365005761726E69BA
:1018F0006E67004F4646004D756C74707800446505
:101900006C617920446F776E0044656C6179205575
:101910007000536C6F772020446F776E00536C6FAC
:10192000772020557000464C494748542050484184
:10193000534553002864656661756C7429004368DB
:1019400065636B055472696D73000A6A11241FBECA
:10195000CFEFD0E1DEBFCDBF11E0A0E0B1E0EAEF14
:10196000F5ED02C005900D92A031B107D9F71DE049
:10197000A0E1B1E001C01D92A339B107E1F719E17F
:10198000CCE4D9E104C02297FE010E94C56ACA34A2
:10199000D107C9F70E94AE600C94FB6A0C9400005A
:1019A000FC01808141FF02C0682B06C042FF03C0DA
:1019B0006095682301C068276083089590E0FC016A
:1019C000EE0FFF1FE80FF91FEB56F34F81E09481F4
:1019D000911101C080E008957093F2026093F102CA
:1019E0009093F0028093EF024F5F40934004E39A9C
:1019F0008091D50C811102C00895A8958091400472
:101A00001816DCF30895EDE7F0E08081857E808391
:101A100017981F9AAAE8B0E01C9210928B0082E8F7
:101A20008C9380818062808308954F925F926F9241
:101A30007F928F929F92AF92BF92CF92DF92EF925E
:101A4000FF920F931F93CF93DF9300D000D0CDB7B9
:101A5000DEB78C01A0E0B0E089839A83AB83BC83BE
:101A60002B01612C712C34E6832E912CA12CB12CEE
:101A7000A50194012419350946095709BC01CD0176
:101A80000E94416A6B017C0192E3C90ED11CE11CEA
:101A9000F11C9801D8010E941B6A9B01AC0169816D
:101AA0007A818B819C810E94416A9C014427552741
:101AB000C301B2010E94416A54E0969587957795DB
:101AC00067955A95D1F7C60ED71EE81EF91EC701B5
:101AD000B601A50194010E94856AC9010F900F907B
:101AE0000F900F90DF91CF911F910F91FF90EF908A
:101AF000DF90CF90BF90AF909F908F907F906F902E
:101B00005F904F9008951F93CF93DF939C016115D1
:101B1000710509F1132F111F1127111F19F03195AC
:101B20002195310977FF0EC0719561957109C0E06B
:101B3000D4E0CE01821B930B0E94150D9E01281B41
:101B4000390B04C0C9010E94150D9C01112319F025
:101B5000319521953109C901DF91CF911F910895E8
:101B60001F9341E0262F30E0683050F440E055E00C
:101B7000529FF001539FF00D1124EF57F94F0AC007
:101B80002850310959E0529FF001539FF00D112464
:101B9000E755F94F9C5F97FD0DC0811528E092072E
:101BA00084F0442319F088E090E002C084E090E0E3
:101BB000E80FF91F2081332727FD3095322F222788
:101BC00025C0442329F0492F9927880F991F03C066
:101BD000492F46959170242F30E0E20FF31F60816A
:101BE00040E052E0481B590B55954795640390011E
:101BF000659F300D11241181BC0175956795160301
:101C0000A001179F500D1124240F351FC90169E150
:101C100070E00E94716ACB011F9108956091940C4D
:101C20000C94B00DA998AB98AC988BBBAD9AAD98BD
:101C3000AB9AA99A089587FD59C047FF02C0640F67
:101C4000419567FF02C0460F60E0A42FBB27A7FDA8
:101C5000B095A60FB11D67FDBA95A134B10514F07A
:101C600040E4461B253511F460FF2AEA362F3595EE
:101C700035953595E82FF0E050E83503E00DF11D7E
:101C80001124EC56F74F6770B9F0A1E0B0E0062ED2
:101C900001C0AA0F0A94EAF7A195A2238081A82780
:101CA000A083E058FF4F6850460F06C0808182270E
:101CB0008083E058FF4F48501416C4F3842F9927AF
:101CC00087FD9095089668E070E00E94716A88230D
:101CD00069F0E058F10941E050E001C0440F8A95F5
:101CE000EAF74195422380814827408308952FEFEA
:101CF0000C941B0ECF92DF92FF920F931F93CF9302
:101D0000DF931F92CDB7DEB7142F6034C8F587FF7D
:101D100002C0180F80E0C82EDD24C7FCD094F60165
:101D2000E10FF11DE138F10514F010E8181B862FC2
:101D300086958695869590E8899FC00CD11C1124C4
:101D4000E4E9F8E0CE0EDF1E677081E090E0F82E47
:101D500001C0FF0C6A95EAF711C020FF0AC0402FAE
:101D60006F2DC60129830E94D00C298126952068F9
:101D700001C026951150FFEFCF1ADF0A1111EDCFE8
:101D80000F90DF91CF911F910F91FF90DF90CF9037
:101D90000895DF92EF92FF920F931F93CF93DF93FB
:101DA000C82F162FD42FD22EF02EE0FE17C0809110
:101DB0005D0386FF13C023C0CF5FD250612F6150F7
:101DC0006D0D00E02F2D4D2F8C2F0E947A0E2F2DA0
:101DD0004D2F612F8C2F0E947A0E11C02F2D4D2D6B
:101DE000612F8C2F0E941B0E8C2F81502F2D4D2D7B
:101DF000612F8D0F0E941B0EE3FEDECFDFCFDF9140
:101E0000CF911F910F91FF90EF90DF900895262FB3
:101E100026952695269590E030E8239F800D911D0C
:101E200011248C56974F2CE08439920750F4262FBA
:101E3000277061E070E001C0660F2A95EAF70C9404
:101E4000D00C0895CF92DF92EF92FF920F931F93E1
:101E5000CF93DF937C012EEE40E460E08EE50E949C
:101E60001B0E00E02EEE40E460E28EE30E947A0E4C
:101E70002FE3D22EC0E2DCEF3FE3C32E0FE310E0EE
:101E8000CE01F70109959C5F97FD01969C01359560
:101E90002795C29EA001C39E500D1124452F5527A2
:101EA00046954695B801641B750B42E08D2D0E9446
:101EB000070FA096D394FEE7DF12E2CFDF91CF9118
:101EC0001F910F91FF90EF90DF90CF900895CF92E8
:101ED000DF92EF92FF920F931F93CF93DF93362FF2
:101EE00036953695369590E010E8319F800D911D1E
:101EF0001124DC01AC56B74F20FF07C030915D03C1
:101F000036FF07C021FD07C098C021FBFF24F0F871
:101F100004C0F12C02C0FF24F39422FF2BC074E113
:101F2000479FA0011124425D5F4F3BE028702223B0
:101F300019F032301CF481C032303CF0FA01649167
:101F400031964E5F5F4FE49102C0E0E060E0FF2019
:101F500011F06095E095CD018F579F4F84599C40BB
:101F600030F46C93ED01C058DF4FE8831196315087
:101F7000F0F663C023FF0DC0FF2011F02FEF01C06A
:101F800020E0FC01EC56F74F20831196EE24E394F9
:101F900001C0E12C15E0419FA0011124425D5F4F7B
:101FA0006770262F30E0EFEFF0E0CF01062E01C082
:101FB000880F0A94EAF7D82ED09488E090E0821B2C
:101FC000930B082E02C0F595E7950A94E2F7CE2E02
:101FD000C09475E0772329F0FA014F5F5F4FC491F9
:101FE00001C0C0E0F110C095EE2011F0743019F17D
:101FF000ECE0A439BE07F8F4D0E08E01022E01C057
:10200000000F0A94EAF7FC91FD21F00FFC93662380
:1020100089F0FD01E058FF4F1CE0E439F10750F46E
:10202000082E02C0D595C7950A94E2F7D081DC212D
:10203000DC0FD0831196715068F6DF91CF911F911C
:102040000F91FF90EF90DF90CF90089520E00C94D7
:10205000670F8F5F0C94DE0CDC016C9312961C9260
:102060001E92119770E0FB01EE0FFF1FE60FF71FA6
:10207000EB56F34F848113968C93139714961C920E
:102080001092D60C089540E450E060E070E085E9DD
:102090009CE00C94EC0CFA0170E090E1899F600DDB
:1020A000711D11246F5F7F4F422F50E0CF010C94C0
:1020B000EC0C41E050E062E070E087E99CE00C94B9
:1020C000EC0C6093140190E1899FB001112441E070
:1020D00050E084E191E00C94EC0C93E0899FB00116
:1020E00011246C5F7F4F282F30E0C901880F991FA2
:1020F000820F931F43E050E08756934F0C94EC0CF3
:10210000EDE2F4E09081982B90830895DB01FC01CF
:1021100004C080819C9191938D934150D0F7089594
:10212000CF92DF92EF92FF920F931F93CF93DF93A3
:102130008091D5048770909100019817C9F0809321
:1021400000010E94030D1EBC80E49CE99BBD8ABD7A
:102150001DBC1CBC87B7837C87BF8CE386BF8FE325
:1021600080937C0087B7806187BF1FBC8AE08EBDEB
:102170008091D60485FF03C060E075E002C060E096
:1021800074E0D090D504D594D594D594D594DD0C35
:1021900028E0D20E8091D70444E68402C0011124C5
:1021A000885A9D4F1091A00748EE53E01403900108
:1021B000159F300D112428533045281B390BE1E4BD
:1021C000F4E0C12CAAE4B2E000271127061B170B8C
:1021D000C8E5D2E0C81BD90B1EC0419151914017F0
:1021E000510724F0461757071CF403C0A80101C08B
:1021F000AB01405A564F7C01E40EF51E2E193F09E3
:102200004C0F5D1F11965C934E9313969C938E9387
:1022100012971496C394CD10E0CF44E0C49EF00111
:102220001124E65BFD4F31832083938382831582E3
:1022300014828AE492E09093030180930201DF917B
:10224000CF911F910F91FF90EF90DF90CF90089565
:102250000E94901087B7806187BF089524E93DE010
:10226000F9012F5F3F4F80818535D1F39F012359BD
:102270003D40C90108952091DC0232B78091DC0213
:102280002813F9CF922F80E0AC01432B9A01C901AA
:10229000089590E0FC01E356FC4F1082FC01EE0F24
:1022A000FF1FDF01A956BC4FE80FF91FEB53FB4F8F
:1022B000238534852D933C93FC01E556FC4F108219
:1022C000089580E00E94491181E00C9449118EE547
:1022D00087B9369A349BFECF349A84B195B19093E6
:1022E0008D0380938C030895E5E1F1E020E0822FD7
:1022F000806487B9369A349BFECF349A84B195B105
:10230000880F991F819391932F5F283081F708954B
:10231000E5E1F1E040E0842F806487B954E080E09B
:1023200090E0369A349BFECF349A24B135B1820FB7
:10233000931F5150B1F796958795819391934F5F75
:10234000483049F70895A5E1B1E0E5E2F1E040E069
:10235000842F806487B9369A208931898D919C9128
:10236000119796958795820F931F8E7F11969C9358
:102370008E9380819181820F931F96958795918B83
:10238000808B349BFECF349A84B195B1208131810A
:10239000820F931F96958795819391934F5F129625
:1023A0004830B1F60895E82FF0E0E55BF54FE49191
:1023B000F0E0EE0FFF1FEB5EFE4F20813181C9017F
:1023C00008959C016330A1F034F4613051F064F45D
:1023D000662391F120C06530A9F084F06630D9F40D
:1023E00016C097FF29C010C0181619062CF50CC08E
:1023F00097FF22C03195219531091EC01816190684
:10240000B4F002C097FD16C020E030E015C01816E9
:10241000190684F40CC067FF06C031952195310977
:1024200086E0861B682F6750C9010C94B00D20E030
:1024300034E002C020E03CEFC9010895EAEAF7E089
:1024400020E030E081919191280F391F87E0E23C34
:10245000F807C1F7C901089595E0899F90011124FB
:1024600027503A4FC901089599E0899F900111249E
:1024700027523B4FC901089594E0899F9001112490
:10248000275B394FC90108951F93CF93DF93182F0E
:10249000882311F0CDE001C0CFE1D0E08C2F1123D3
:1024A00031F00E943C12FC019081937005C00E94A3
:1024B0003412FC0196819F779111DF5FC150C7FFF5
:1024C000EDCF8D2FDF91CF911F910895CF93C82F1E
:1024D0000E944412282F30E0C1110CC00FC08EE2C0
:1024E0009AE002C08CE39AE090935F0D80935E0DBA
:1024F00081E008C02E30310594F703C02032310549
:102500008CF780E0CF9108959DE0899F9001112480
:10251000285B384FC9010895EF92FF920F931F93E4
:10252000CF93DF93EA01E62EF12C8701000F111FF4
:10253000F801EF5AFE4F0190F081E02D309779F0CD
:1025400043383FEF530724F04D37510524F405C0BD
:10255000C3E8DFEF02C0CDE7D0E0C0831FC00E9418
:102560008412FC01EE0DFF1D9E01359527953595D2
:102570002795208323E030E0002E01C0220F0A942B
:10258000EAF72095FC0134812323C370DD2701C0C5
:10259000CC0F0A95EAF72C0FFC01248382E0DF912F
:1025A000CF911F910F91FF90EF900C9480100F939B
:1025B0001F93CF93DF93062F10E0E801CC0FDD1FB0
:1025C000FE01EF5AFE4F0190F081E02D309729F087
:1025D0002081332727FD309517C00E948412FC010B
:1025E000E00FF11F4081FC012481332727FD309546
:1025F00002C035952795CA95E2F72370332784E00A
:102600004802200D311D1124C901DF91CF911F9186
:102610000F9108951F93CF93DF93C82F162FD5E006
:10262000CC2381F0612F8C2F0E94D712853F21E0AF
:10263000920744F0855F8C1708F08F5FD150C82F48
:1026400079F7C0E08C2FDF91CF911F910895CF9340
:10265000C62F0E940A136C2FCF910C94D712882397
:10266000E1F087FF06C0863E1CF0E0E6E81B16C0DE
:1026700081958B311CF4E82FE05C10C085321CF48E
:10268000E82FEB5E0BC0893244F4E82FFF27E7FD0B
:10269000F095E25DF54FE49101C0E0E28E2F0895E0
:1026A000AF92BF92DF92EF92FF920F931F93CF935F
:1026B000DF931F92CDB7DEB7182FE62E5A01F22E08
:1026C000802F8073898324E0D22ED0222EC0E9810E
:1026D000E03119F0E03249F403C0F501808107C010
:1026E000F50180810E942F1302C0F50184918111B0
:1026F00003C01093620D1CC01B37D8F7803260F006
:10270000202F482F6E2D812F0E94670FD11002C0FD
:102710001A5F07C0155F05C0982F990F980F990F82
:10272000190FFFEFAF1ABF0AFA94F110D0CFE1CF23
:102730000F90DF91CF911F910F91FF90EF90DF905D
:10274000BF90AF9008950F93022F2FEF0E94501368
:102750000F910895AB0120E0682F80E00C94A31343
:1027600020E00C94A3130F93FA0194914F5F5F4FF5
:10277000929F400D511D1124292F0E9450130F913B
:102780000895FF920F931F93CF93DF93D82F162FA7
:10279000C42F022F411104C020E047EA51E12EC0AE
:1027A00030E4F32EF22226FD0AC0463111F421E076
:1027B00003C04A3E21F420E040EA51E11FC0C7FFB8
:1027C00008C02EE548E0612F8D2F82500E941B0E1D
:1027D000C195C6317CF0FF2011F085E101C086E192
:1027E000C81B07FD07C0202F4DE6612F8D2F8E5E81
:1027F0000E94670F2C2F215044E255E1612F8D2F4D
:102800000E94B313DF91CF911F910F91FF90089514
:102810000F931F93CF93DF93D82F162FC42F022F20
:1028200047FF09C084E0841BC82F41E28D2F8650EA
:102830000E94670F08C0453034F4242F45E955E164
:102840000E94B3130CC0202F20644C2F4450612FE2
:102850008D2FDF91CF911F910F910C94C113DF91B8
:10286000CF911F910F9108950F934150022F242F64
:1028700043E552E10E94B3130F910895DF92EF9266
:10288000FF920F931F93CF93DF931F92CDB7DEB7C5
:10289000E82ED62E142FF22E6F2D842F09830E943E
:1028A000D712202F853F31E093079CF0982F955F3A
:1028B000911708F09F5F492F405D6D2D8E2D0F9071
:1028C000DF91CF911F910F91FF90EF90DF900C94CB
:1028D000670F4F2D4F5F6D2D8E2D0F90DF91CF9194
:1028E0001F910F91FF90EF90DF900C9434140F9391
:1028F000222311F002E001C000E0242F40EA51E160
:102900000E94B3130F910895E091F207F0E0E85AA6
:10291000F54FE491F0E024E030E0281B3109220F6C
:10292000331F02C0F595E7952A95E2F7E370FF277C
:102930008E2F8F5F08958E30910574F4FC01EE0F99
:10294000FF1FE80FF91FED5CFC4F90819F7081E045
:102950009F3009F44DC04BC08231910559F17CF490
:102960008F309105E9F024F48E309105E1F535C002
:102970008031910579F081319105A9F515C0843137
:10298000910559F004F18531910521F186319105C8
:1029900051F526C091B1947027C093B3907824C0AC
:1029A00090916300917020C09091630093FB9927F0
:1029B00090F90DC08091630083FF15C091B196FB23
:1029C000992790F911C091B196FB992790F981E070
:1029D00098270AC091B1907107C093B3907404C056
:1029E00091B1907201C090E081E0911101C080E04E
:1029F0000895873038F4E82FF0E0EE0FFF1FE15E16
:102A0000FB4F48C0873009F44BC0883079F481E12E
:102A100090E00E949B14811140C082E190E00E94EE
:102A20009B148823E9F120E030E03CC08C30D8F3DF
:102A3000803190F4E82FF0E0DF01AA0FBB1FAB5309
:102A4000BD4FEE0FFF1FED53F84F2D913C9180814C
:102A50009181281B390B0AC0843158F4E82FF0E02B
:102A6000EE0FFF1FEB53FD4F20813181220F331FEB
:102A700019C0843238F4E82FF0E0EE0FFF1FE75C56
:102A8000FB4F08C0863278F6E82FF0E0EE0FFF1F0C
:102A9000E15BFC4F2081318105C020E03CEF02C0AA
:102AA00020E034E0C9010895EF92FF920F931F9345
:102AB000CF93DF93F82E811109C08091120190917C
:102AC0001301892F881F8827881FEFC0282F3327DD
:102AD00027FD309537FF03C0319521953109822FAD
:102AE000263109F4BFC02A3030F4C90199270D9668
:102AF0000E949B14B8C08A50282F30E0E901CC0F07
:102B0000DD1FC20FD31FCF50D94F9A81992309F4EB
:102B1000AFC09A81953008F4ADC09A81983008F41E
:102B2000B3C052E0E52EA7C02091100130911101F1
:102B30002023312381E0232B21F52EC02091120187
:102B400030911301202B312B30931301209312016C
:102B500088810E945415E82E89810E9454159A811B
:102B6000953019F0963049F403C0EE20A9F002C068
:102B7000E11006C0811104C00FC08E2569F001C0AC
:102B800081E02091100130911101202B312B3093E5
:102B900011012093100167C02091100130911101A3
:102BA0000095109502231323109311010093100137
:102BB00057C0898199E289029001112435952795A2
:102BC0003595279587FD815C86FB880F880B80F9FA
:102BD000281B310987FD33958A81823099F1833032
:102BE00019F0813039F42AC017FF27C011950195DB
:102BF000110923C017FF26C011950195110922C0A4
:102C0000898181500E94F9149C018A81893081F068
:102C100018F4883009F507C08A3079F08B3091F0CC
:102C20008C30D1F414C081E002171307E1F018C012
:102C300081E002171307B9F413C081E020173107B0
:102C400094F00EC081E0021713076CF009C081E018
:102C50000217130744F404C081E0201731071CF465
:102C600080E001C081E01F1404F191E089271DC0BC
:102C700080E01BC0E12C888181500E94F9148C01F6
:102C8000EE2009F496CFBCCF01E010E002C0000FA7
:102C9000111F8A95E2F72091120130911301202330
:102CA0003123232B09F040CF49CFDF91CF911F91E2
:102CB0000F91FF90EF900895362F37953327379572
:102CC00020E030931301209312010C94541560E01E
:102CD0008091DA070E945C16811106C08091F1078D
:102CE000811102C0C7980895C79A08950F931F9342
:102CF000CF93DF93C1E0D0E00DE01C2F0C9FF001DB
:102D00000D9FF00D1124E85BF84F8581882329F091
:102D100060E00E945C16811105C02196C530D10586
:102D200061F710E0812FDF91CF911F910F910895EE
:102D30007F928F929F92AF92BF92CF92DF92EF924B
:102D4000FF920F931F93CF93DF935C01862F98E040
:102D5000F501A5E4B1E001900D929A95E1F76F3F7E
:102D600011F40E947616782E739400E010E0882407
:102D70008A94F4E6CF2ED12CE12CF12CE801CC0F73
:102D8000DD1FCC0FDD1FC75BD94F498142954695AA
:102D900047702881822F837009F45FC0269526959D
:102DA000237030E0882D992787FD909528173907E3
:102DB00009F44DC0442341F08A8180FF03C074129E
:102DC00003C045C0741243C08981880F880F880FE3
:102DD00061E08595859585950E945C168823B9F1FB
:102DE0002881922E9694969483E09822A92DB0E0A3
:102DF000AA0FBB1FAB5BBE4F8D919C9197FF03C089
:102E000020FD03C024C021FF22C0892C6B817727BD
:102E100067FD70950E94830D688162956F7029F03F
:102E20006B3008F06C5F0E94E1112A81269530E03A
:102E3000DC010E94276AA70196010E94A76AF5019A
:102E400082E0989EE00DF11D1124208331830F5FF5
:102E50001F4F0E30110509F091CFDF91CF911F91D7
:102E60000F91FF90EF90DF90CF90BF90AF909F9029
:102E70008F907F900895CF92DF92EF92FF920F9301
:102E80001F93CF93DF93CDB7DEB728970FB6F89493
:102E9000DEBF0FBECDBF6C018091610D0E943C1260
:102EA0007C018E010F5F1F4F88E0F80111928A9517
:102EB000E9F7F7018081869586958370F80192E0A5
:102EC000899FE00DF11D1124D182C0826FEFC801EE
:102ED0000E949816F7018081869586958370F80187
:102EE00092E0899FE00DF11D112480819181289647
:102EF0000FB6F894DEBF0FBECDBFDF91CF911F910B
:102F00000F91FF90EF90DF90CF9008959C01A5E086
:102F100035952795AA95E1F7280F391FAC01440F85
:102F2000452F441F550B241B350B892F990F990BE7
:102F30008595280F391FC90108954F925F927F929E
:102F40008F929F92AF92BF92CF92DF92EF92FF92B9
:102F50000F931F93CF93DF931F92CDB7DEB7F090FF
:102F6000EB071F2D1F708038F9F060F4863230F4C3
:102F7000843238F5823208F479C035C0813609F0E0
:102F800075C054C0833809F443C038F4813809F45B
:102F90005EC0823809F06AC041C08538F1F0B8F0EF
:102FA0008F3B09F063C059C0E0918E03F0E0EE0F53
:102FB000FF1FE650F84F808191810E94844A80E88B
:102FC00053C0123009F052C080E18F251BC083EA44
:102FD00097E50E94844A84E847C084E895E20E940D
:102FE000844A85E841C0833229F4133041F0812FAF
:102FF0008F5F08C0112329F0812F815003C080E02A
:1030000001C083E08093EB0781E00E94801021C023
:1030100086EA99E40E94FB2A83E826C00E94BD4507
:103020008DE397E40E94FB2A82E81EC080919D03F5
:10303000823021F483E080939D030BC023E0F212E1
:1030400002C081E001C080E00E94491102C00E94DC
:10305000611183E00E94F82A09C081E00E9428469D
:1030600083E00E94284682E00E9428460E9476164D
:10307000982E3DE0839FA0011124425B584F00E24F
:1030800026E060E186E20E9450132091D80730E0EC
:1030900080919303909194038217930710F497E023
:1030A00001C094E004E02091D60745EC54E060E0D4
:1030B0008AE099830E9485539981292F2064409149
:1030C00093035091940360E183E20E94315446E5FA
:1030D00068E184E20E9426108091CF048823F9F0F1
:1030E00080919D03823011F427E001C024E04091DB
:1030F000970350919803022F60E18BE40E94D8530C
:103100004091CF04209197033091980337FD02C07E
:1031100088E301C081E320E868E10E9408144AE0E6
:10312000A42E41E0B42EC12CD12C5FE1752EEC2CE5
:1031300080918B03F60194E0899FE00DF11D11242D
:10314000E25BF94EE491F0E0EB5FFE4F80806C2D86
:10315000892D0E9427139C0123583F4F2B3F310597
:1031600010F408E001C00BE08039EFEF9E075CF03F
:10317000813791056CF497FD03962C015594479483
:103180005594479408C024EE422E55245A9403C007
:103190009CE1492E512CF50181915F0146E3882382
:1031A000D1F064E0882D0E94770EF2E0EF1204C0A7
:1031B0008091D50483FD0CC043E06EE1882D8150E1
:1031C0000E94770E43E06EE1882D8F5F0E94770E9C
:1031D000672D641913C06CE3882D8B510E94B85180
:1031E000E82CEA9443E06BE38E2D0E94B85143E053
:1031F0006DE38E2D0E94B851840C6CE36350E02E79
:103200000FEF27E047E0882D83500E94C90E2FEF73
:10321000C21AD20A34E0C316D10409F088CF1230A2
:1032200008F084C0B1E44B2EB4E05B2ED12C09E150
:10323000902E8BE1882EF201E190F1902F01113058
:1032400049F1C701F7FC4F96A5E095958795AA959A
:10325000E1F79701281B390BC901F7FE03C03FE7CF
:10326000E30EF11CA701440F452F441F550B480FD7
:10327000591F6D2D66956695660F660F660F685D22
:103280008D2D8370889D802D112420E28F5D0E94FA
:103290002B5447C083E08D1518F0E2E2AE2E02C039
:1032A0007EE5A72E8D2D8370C82ECC0CCC0CC80EBD
:1032B0009701F7FE04C0222733272E193F09929E5B
:1032C000A001939E500D11245E5F452F550F550BA5
:1032D00045954595B42E99E1941714F459E1B52E0E
:1032E0006C2D6A5D00E025E543E38A2D89510E943B
:1032F0007A0E6C2D6C5D45E08A2D0E94770E1E14AF
:103300001F0414F4A39401C0AB186C2D695D4B2D00
:103310008A2D0E94B8516C2D6B5D4B2D8A2D0E9419
:10332000B851D394E8E0DE1286CFF9C0123009F02C
:10333000CDC0F2E0FF1240C00E941C2D10E003E05F
:10334000412F133010F44F5F12C04C5F493079F4B5
:1033500060E084E00E945C1681110BC060E085E0B3
:103360000E945C16882341F089E045E007C0842F65
:1033700005C089E044E002C089E046E060E049839E
:103380000E945C164981882311F022E001C020E0F0
:10339000812F602F0E94516A990F990F990F905EAB
:1033A000133010F48AE001C085E6692F0E94C11332
:1033B0001F5F163029F6B3C001E514E02DE2A22EFE
:1033C000C12C38E0D32EE12CF12C48E3742EF80107
:1033D000A191B1918F0126E130E00E94276A785ACD
:1033E0008F4F9F4FA70196010E94A76A490137FDA1
:1033F00004C02631310524F406C0812C912C03C071
:1034000096E1892E912CB72CB818482D6B2D8A2D5A
:103410000E94770E482D6B2D8A2D8F5F0E94770EAC
:10342000482D6B2D8A2D8E5F0E94770E25E0A20E0F
:1034300035E5A312CCCFF12C06E083E0E82E8F2DEA
:10344000602F0E94516A192F933098F48F2D6E2DA2
:103450000E94516A990F990F990F905E85E08F1520
:1034600010F08AE001C08EE54AE85AE0692F0E9418
:10347000B01360E08F2D865F0E945C16882311F0E8
:1034800022E001C020E098E04F2D9F1510F04F5C26
:1034900001C0485C8F2D6E2D0E94516A990F990FC3
:1034A000990F905EE5E0EF1510F086E101C08AE625
:1034B000133010F430E001C036E0692F830F0E9412
:1034C000670FF394FCE0FF12BACF29C04091990333
:1034D00050919A0304E024E068E289E20E94D85304
:1034E0004091D2048091990390919A0397FD02C074
:1034F00086E101C08FE020E860E30F90DF91CF917B
:103500001F910F91FF90EF90DF90CF90BF90AF9001
:103510009F908F907F905F904F900C9408140F9025
:10352000DF91CF911F910F91FF90EF90DF90CF909F
:10353000BF90AF909F908F907F905F904F90089535
:1035400080918E038823D1F0815080938E0383E095
:103550000E94F82A10927903E0918E03F0E0DF01D7
:10356000A35BBE4F8C9180937A03EE0FFF1FE85050
:10357000F84F0190F081E02D8EEB099480E79AE0FE
:103580000C94724A4F925F926F927F928F929F92A9
:10359000AF92BF92CF92DF92EF92FF920F931F9361
:1035A000CF93DF9300D0CDB7DEB7182F22E04FE7DF
:1035B0005AE060E080E00E94A3134091940C50E038
:1035C0004F5F5F4F22E860E08FE10E942B548091B3
:1035D000940C282F30E0883078F02850310989E0A9
:1035E000829F3001839F700C112489EA96E0680E57
:1035F000791E09E0902E0CC085E0829F3001839FE8
:10360000700C1124A1E8B6E06A0E7B1EB5E09B2E7B
:10361000113609F46CC040F4153409F47EC010363C
:1036200071F01434D9F486C0153609F476C01F3B06
:1036300019F0143699F47EC010923A025FC080915E
:10364000DB0218165CF080917903813061F018F08C
:10365000823021F43FC081E08093DB0223017301BB
:1036600090EE00E097C080913A028F5F85300CF4B5
:1036700001C08CEF80933A0240913A02B2E34B02D0
:1036800070011124062D292D269530E031952195C4
:1036900031094203C001439F900D112422E3289F6A
:1036A0005001299FB00C1124F30120E030E0C92C17
:1036B000D12C81E0C81AD108C9018A0D9B1DB60121
:1036C0000E94716A61932E0D3F1D8E2F801B8915FC
:1036D00098F3C4CF8CE9D3018C93F301E90DF11D6C
:1036E000319784E6808381E080933B02B7CF81E607
:1036F0000E94284680913B02882319F010923B02D9
:10370000ADCF8091DB0218162CF410927903109241
:10371000DB02A4CF0E94A01AA1CF80913B028111AD
:103720009DCF80917903882309F498CF81508093AD
:10373000790394CF80913B02811190CF009179035E
:10374000E02EF12C8091DB0218162CF4292D30E0AC
:10375000215031091AC0E0918E03F0E0EE0FFF1FF7
:10376000EA50F84F208131812A5F3A4561F4809117
:10377000610D0E943C12FC0180818C70883019F42C
:1037800022E030E002C021E030E0E216F3060CF463
:10379000C2C064CF692F053018F4685D88E101C0AC
:1037A00080E32091DB02121624F420917903201784
:1037B00011F020E001C022E0D7014D917D01552795
:1037C00047FD50959A830E942B540F5F9A81985F12
:1037D000091500F345E85AE068E380E00E94B01361
:1037E0009091DB02191614F400E005C080913B02B1
:1037F0008111FACF02E081E019160CF480E02091EB
:103800007903829F202D112442E952E168E38CE183
:103810000E94B3138091DB0218167CF4892C8694E5
:10382000712CE12CF12CC12CD12CE8E3AE2EBB2461
:10383000BA94FEE96F2E610E1AC080913B0281118D
:10384000EDCF8EE09EE00F900F90DF91CF911F9112
:103850000F91FF90EF90DF90CF90BF90AF909F902F
:103860008F907F906F905F904F900C94220F4E2D11
:10387000C601682D772D0E94716AE62FD2012C9126
:10388000BFEFEB1AFB0AFFE32F0290011124C901DD
:103890008456974EB5010E94716A20913B02222303
:1038A00059F030E02E153F0561F5635C00E025E03E
:1038B00045E08E2F845C23C090917903941319C046
:1038C000635C00E025E045E08E2F845C0E947D541F
:1038D00081E0861520F4123411F0133491F424E6BB
:1038E0004CE9D2016C91812F0E94554EF2018083E8
:1038F00008C0625C00E023E043E08E2F835C0E94FE
:103900007D54F0E2CF0ED11C8FEF481A580AE9140B
:1039100008F4ADCF96CF0F5F009379039FCEAF929F
:10392000BF92CF92EF92FF920F931F93CF93DF93AB
:103930001F92CDB7DEB7982F862F5A0101151105BA
:1039400059F040917A033E2D4E1508F4342FF801BA
:10395000E30FF11DF49001C0F12CA114B10409F49E
:103960003FC030917A03311131C03091460231119C
:103970002DC0943659F0953611F0E82F14C08823E5
:1039800011F0E82F01C0E22FE1500DC0A82FB0E0E8
:10399000422F50E041505109A417B5071CF4E82FFD
:1039A000EF5F01C0E0E0FF27E7FDF095482F50E012
:1039B000E417F50769F0EE0FFF1FEA0DFB1D2591D7
:1039C0003491C9010E94FB2A80E00BC140E001C094
:1039D00042E010924602622F99830E944F549981CF
:1039E000903659F188F4933409F4AFC030F4913231
:1039F00099F1923409F0D5C088C0943409F448C0D4
:103A0000953409F0CEC069C0943609F44CC038F43E
:103A1000923609F47FC0933609F0C3C09AC091383A
:103A2000C1F09F3B21F0953609F0BBC05BC01092FE
:103A3000790310927A038FEF09C01F140CF0B1C004
:103A400081E09091DB0219160CF480E08093DB0298
:103A5000A8C01092DB020EC08091DB0218161CF485
:103A60001092DB029EC080917A03882319F0A11482
:103A7000B10419F40E94A01A94C085E00E94F82AAB
:103A80001092790310927A0380E680935D038BC0D5
:103A90002091790330E08F2D992787FD9095281785
:103AA000390709F47EC0012B09F47BC08091DB0249
:103AB00018160CF476C020917903822F90E0EF2D38
:103AC000FF27E7FDF0958E179F0724F42F5F2093C3
:103AD000790364C01092790361C0809179038823CF
:103AE00009F45FC0012B09F45CC08091DB02181659
:103AF0000CF457C080917903882321F08150809382
:103B000079034CC0F092790349C080917A038C15F7
:103B100009F447C08091DB0218160CF442C0809172
:103B20007A038C1510F48F5F01C080E00115110538
:103B300009F41DC0982FE81608F49E2DF801E90F2E
:103B4000F11DE491EF3F69F320C080917A0388234F
:103B500041F18091DB02181624F180917A038823C9
:103B600011F0815001C08C2D0115110521F48093B5
:103B70007A03E0E00CC0982FE81608F49E2DF801B7
:103B8000E90FF11DE491EF3F51F380937A038091A7
:103B900079038E1708F4E82FE093790380E6809389
:103BA0005D03AB2811F057E001C056E040917A0365
:103BB000411103C01092DA0213C0842F90E02091CB
:103BC000DA02821B9109252F30E02817390714F4F7
:103BD000451B04C0181619061CF041504093DA0228
:103BE00081E00F90DF91CF911F910F91FF90EF90A7
:103BF000CF90BF90AF9008952F923F924F925F92D7
:103C00006F927F928F929F92AF92BF92CF92DF92EC
:103C1000EF92FF920F931F93CF93DF93CDB7DEB751
:103C200060970FB6F894DEBF0FBECDBF182F0E946D
:103C3000734E9091760391111DC00091D804082312
:103C4000809159018095802319F08CE00E94F82A18
:103C50000093590110925201109251011092540197
:103C60001092530110925601109255011092580172
:103C70001092570180E4E1E8F4E0DF011D928A959B
:103C8000E9F710923203EAEBF1E0FB83EA832AE5DD
:103C900031E03E832D839AE7292E91E0392E00E012
:103CA000812C912C54019394212F30E0C90101966D
:103CB0009E878D87802F0E943412988B8F87DC011E
:103CC00016968C9116978F7709F4F1C2FD01208129
:103CD000822F807FD1F02595259525952595822FDA
:103CE000992787FD909512163CF42D853E8528175F
:103CF000390709F0AFC209C0919581959109AD8549
:103D0000BE85A817B90709F4A5C2EF85F889828195
:103D1000880F880F61E0859585950E945C16182FA5
:103D2000AF85B88916968C918F77B82FB150B9832B
:103D300090917603992371F0112309F48BC2B4306A
:103D400008F088C2B23009F050C08091D50483FDDC
:103D500081C24BC0E981E43040F4F0E0EE0FFF1F78
:103D6000E259FC4FC080D1803CC0982F9A529031CC
:103D700000F52981E22FF0E0AF0148525109AF85EB
:103D8000B8892C912F7030E02417350794F0EE0F8E
:103D9000FF1FEE0FFF1FE352FC4F60817181828194
:103DA000938124E630E040E050E00E94A76A690178
:103DB00018C0982F9A50953138F460E089500E94CD
:103DC0005C1681110BC059C2B981BA3010F086510E
:103DD00001C089810E94F9146C0103C0C12CA4E0C8
:103DE000DA2E112309F44DC002C0C12CD12CED8173
:103DF000FE81908180917603811181C081E0808372
:103E0000AF85B88914968C918F70F9F0911107C025
:103E1000B4E6B89FC0011124F10191838083D101E0
:103E20008D919C911197009781F02091C1042223DC
:103E300019F001978D939C93EF85F88982818F7398
:103E400009F008C2C12CFCEFDF2EAF85B8891396AC
:103E50008C91982F907C09F452C082958695869516
:103E6000837090E00197E1E0F0E002C0EE0FFF1FE9
:103E70008A95E2F7CF0190913203982B9093320309
:103E80003EC0AD81BE819C911C92EF85F8898481F2
:103E9000282F207F09F403C2992349F082958F705F
:103EA000F4E6F89FC0011124D1018D939C93F10198
:103EB00080819181009779F02091C104222319F02B
:103EC000019791838083AF85B88912968C918F7307
:103ED00009F4DEC114C0EF85F88982818F7309F47B
:103EE000DBC1DDC1982F907C903809F4B3C18F738A
:103EF00031F0C12CD12C03C08F7309F0ABC1AF8559
:103F0000B8891896BC91BC83BB23A9F0E9E2BE0234
:103F1000C001112495958795959587952B2FB7FD11
:103F2000215C26FB220F220B20F9821B910927FD21
:103F30009395C80ED91E109176031111D8C0AF8584
:103F4000B88915968C91882309F4D1C0EA81FB8148
:103F50004080518062807380C301B201A501940149
:103F60000E94A76A50954095309521953F4F4F4F3D
:103F70005F4FC601820F931F9C878B87892B09F4A3
:103F8000B6C08091C104EE24D7FCE094FE2C8823B7
:103F900009F473C0AF85B88911962C912223C1F022
:103FA000332727FD309537FF03C03195219531091F
:103FB000332727FD3095432F532F60E070E080E2D8
:103FC00093E00E94A76A2F83388749875A8708C0E1
:103FD00080E090E0A0E2B3E08F839887A987BA875A
:103FE000AF85B88915968C91EB85FC851E161F064A
:103FF000D4F48F7090E00097A9F1F4E6F89FA00147
:10400000F99F500D11249A01442737FD4095542FF4
:104010006F81788589859A850E94A76A240D351D50
:10402000461D571D23C082958F7090E00097D1F0F8
:1040300024E6289FA001299F500D11249A014427AE
:1040400037FD4095542F6F81788589859A850E9428
:10405000A76AD301C201821B930BA40BB50B9C0171
:10406000AD0104C05E2D4D2D3C2D2227AA81BB81C0
:104070002D933D934D935C931397EB85FC851E1612
:104080001F0684F4AA81BB816D917D918D919C91D5
:10409000A50194010E94A76AC216D306E406F5069C
:1040A00084F01AC0EA81FB816081718182819381F1
:1040B000A50194010E94A76A2C153D054E055F05D8
:1040C0005CF4FE2CED2CDC2CCC24AA81BB81CD929F
:1040D000DD92ED92FC921397EA81FB816081718100
:1040E00082819381A50194010E94A76A6901AF852D
:1040F000B88913966C91862F8F7341F0660F660F07
:1041000065956595C6010E94E1116C01B981B430D5
:1041100050F5123040F5EF85F8898781807C59F49D
:10412000EB2FF0E0EE0FFF1FEA59FC4F80819181E9
:10413000C80ED91E18C0111116C08038A1F4FC8118
:1041400028E0F202C00111240E9486176C01398117
:10415000E32FF0E0EE0FFF1FEF5AFE4F8F85988997
:10416000089691838083EF85F889A1819601BB270A
:10417000A7FDB0950E94136A9B01AC018681881F40
:104180008827881FA781AF73AA0FA82BAA0FA59510
:104190001A1654F457FF1BC082E390E08A1B910962
:1041A000A7FD9395DC010BC0AA2389F01216130614
:1041B0001406150664F4BB27A7FDB095D2960E949D
:1041C000396A22E330E040E050E00E94A76AAF8500
:1041D000B8896C916F7012968C91829586958695B0
:1041E000837090E0B4E06B9F7001112481309105E1
:1041F00031F0F701EF57FB4F029701F51AC0CA01E2
:10420000B90124E630E040E050E00E94A76AE1E80E
:10421000F4E0EE0EFF1ED7016D917D918D919C9182
:104220000E94416A20E034E040E050E00E94A76A2A
:10423000F70120833183428353830CC080819181B5
:10424000A281B381820F931FA41FB51F8083918326
:10425000A283B3830F5F2A813B812C5F3F4F3B8357
:104260002A838D819E8101969E838D8392E0290E03
:10427000311C003209F01ECD1AC0AF85B8891296E4
:104280008C918F73C12C3CEFD32E09F4FACDA9CDBC
:10429000C12C24E0D22E33CEC12C9CEFD92EEF8539
:1042A000F8899581907F828191111CCE25CE6096F0
:1042B0000FB6F894DEBF0FBECDBFDF91CF911F9137
:1042C0000F91FF90EF90DF90CF90BF90AF909F90B5
:1042D0008F907F906F905F904F903F902F900895B8
:1042E0002F923F924F925F926F927F928F929F9206
:1042F000AF92BF92CF92DF92EF92FF920F931F93F4
:10430000CF93DF93CDB7DEB7A2970FB6F894DEBF99
:104310000FBECDBF782E41E1C42E51E1E52E0DE850
:104320001AE02AE04CE851E165E00E948F1C8823E6
:1043300009F4DDC122E04FE95AE060E080E00E942C
:10434000A31360907A036A9418E0512C862C992468
:1043500087FC90940091DA02050D003109F0CBC082
:1043600020E1621202C002E001C000E080919603E9
:10437000882311F020E001C0202F46EA5AE0612F87
:1043800082E10E94A313002309F4B1C180E87812EE
:10439000AEC189E18093960380E80E9428460E947E
:1043A0007616982E82E080937603892D0E94FC1D5C
:1043B00021E8C22E24E0D22EEE24E394F12CEC0E60
:1043C000FD1E87015601812CD5014D915D916D91A6
:1043D0007D915D01882D0E942C2EF801819391938F
:1043E0008F018394F0E18F12EFCF81E08093760309
:1043F000892D0E94FC1D109276030BEF15E0B12C65
:10440000D6014D915D916D917D916D018B2D0E9435
:104410002C2EF701219131917F01821B930B9C017E
:10442000D80111964D915C9112978C91882319F0C7
:10443000319521953109240F351F2831BCEF3B07F9
:104440002CF0283EE3E03E0724F405C028E13CEFD1
:1044500002C028EE33E0D80112963C932E931197B8
:10446000B3940B5F1F4FB0E1BB12CACFF12CE2E057
:10447000FE1209C08091D50483FF05C0F394F4E0D7
:10448000FF12F5CF1AC06F2D892D0E9427138C01C2
:10449000E12C6F2D8E2D0E94D712853F21E09207CF
:1044A0003CF4AC01401B510B6F2D8E2D0E948C12E1
:1044B000E39485E0E812EDCFE1CF82E00E94801026
:1044C00089E0A2960FB6F894DEBF0FBECDBFDF9194
:1044D000CF911F910F91FF90EF90DF90CF90BF9001
:1044E000AF909F908F907F906F905F904F903F9094
:1044F0002F900C94F82A802F0E942C127C01DC0152
:1045000012968C91129713960D90BC91A02D882332
:1045100019F0B195A195B109C02ED12CF601EE0F7D
:10452000FF1FEF5BFB4F208131812A1B3B0B2333A5
:1045300031051CF0811109C0D8C02E3C3F4F1CF43E
:10454000882319F0D2C09DE201C09FE7402F4F5F42
:1045500020E0612F80E09AA30E94D05320E09AA12E
:10456000492F612F8DE40E94670F8091D60485FF4B
:1045700003C0EDE7E9A302C0F4E6F9A3412C29A0AA
:1045800021945601AA0CBB1C81E494E0A80EB91E2C
:104590008C149D0451F480917903841106C080919C
:1045A000DB0218162CF002E001C000E0312C03C041
:1045B00003E03324339492E0491609F459C0A3E090
:1045C0004A1609F470C0B1E04B16C1F1202F2062E9
:1045D000F70143815481612F80E30E942B543320E3
:1045E00089F0D70113966D917C91149702E028EE23
:1045F00033E048E15CEF872D0E94054DF70194837D
:10460000838369C0002309F466C0F0E87F1263C0A9
:10461000D501ED91FC91D70112968C91882319F068
:10462000F195E195F109D7011496FC93EE93139758
:104630001092DB0282E00E9480104DC0F7014081A1
:104640004456552747FD5095202F612F88E40E943E
:104650002B54332009F43FC0D7016C91645629A133
:10466000422D872D0E94554E8C59F701808333C00F
:10467000D70111964C914C59552747FD5095202F45
:10468000612F86E60E942B54332029F1F7016181C6
:104690006C5929A1422D872D0E94554E8456D70171
:1046A00011968C9318C0F701228147EA51E1612FDE
:1046B0008CE60E94B313332071F021E040E0D70173
:1046C00012966C91872D0E94554E91E0811101C088
:1046D00090E0F70192834394F4E04F1259CF539442
:1046E000185F27E0521236CE02C09EE72FCFA29667
:1046F0000FB6F894DEBF0FBECDBFDF91CF911F91F3
:104700000F91FF90EF90DF90CF90BF90AF909F9070
:104710008F907F906F905F904F903F902F90089573
:104720006F927F928F929F92AF92BF92CF92DF92C1
:10473000EF92FF920F931F93CF93DF93882E70E138
:10474000C72EEE24E39409EC1AE02AE04CE851E18C
:1047500068E00E948F1C882309F4BDC022E04BEC66
:104760005AE060E080E00E94A313A0907A03AA942C
:1047700018E0712CBB24A7FCB0948091DA02870D5D
:10478000803109F4A8C0E82EF12CE701CC0FDD1F21
:10479000CE0DDF1DCB5ED84F912CAE14BF0451F46B
:1047A00080917903891106C08091DB0218162CF0E4
:1047B00002E001C000E0612C03C003E066246394C2
:1047C00081E09816A9F082E0981609F440C0202FE5
:1047D0004881612F83E00E94C113662009F472C0F2
:1047E0002BE245ED6881882D0E94554E88836AC072
:1047F0008881882309F463C04981403140F44B5ECD
:10480000202F612F82E50E94A15320E00FC0453187
:1048100048F4403151F04051202F612F8CE40E9428
:10482000A15303C0242F235101C021E043E653E1EB
:10483000612F8CE10E94B313662009F443C027E185
:1048400040E06981882D0E94554E89833BC0888154
:104850008823A9F12A81C22ED12C8981863149F47D
:104860004EEB53E1612F8AE50E94B3132CE030E058
:104870000AC0873159F445EA53E1612F8AE50E9465
:10488000B31323E030E040E050E010C08031D0F4BA
:10489000C22EDD24C7FCD094202FA601612F8EE705
:1048A0000E942B542DE730E043E85FEF662051F083
:1048B00002E0B601882D0E94054D8A8303C00111D4
:1048C00010927903939483E0981267CF7394185FE2
:1048D00087E0781252CFDF91CF911F910F91FF9017
:1048E000EF90DF90CF90BF90AF909F908F907F9090
:1048F0006F900895BF92CF92DF92EF92FF920F9345
:104900001F93CF93DF93B82EBCE0CB2EEE24E3941D
:1049100007EB1AE02AE04CE851E167E00E948F1CA7
:10492000882309F4E7C022E049EB5AE060E080E028
:104930000E94A313E0907A03EA9418E0C12CFF24AC
:10494000E7FCF0940091DA020C0D0C3009F4D2C0AF
:10495000202F30E0E216F30639F48091DB021816BE
:104960002CF4A3E0DA2E04C0D12C02C0F2E0DF2E3A
:10497000E901CC0FDD1FC20FD31FCF50D94F4AE83A
:104980005AE0612F80E00E94B013093010F048E334
:1049900001C041E3400F612F8CE00E9426108091FE
:1049A0007903882311F000E001C00D2D2A8140E039
:1049B00053E1612F87E10E94B3139A8180917903BB
:1049C000953008F488C0983008F48FC089C02D2D28
:1049D0004881612F86E40E94A1538091790382303F
:1049E00011F020E001C02D2D4981552747FD50953C
:1049F000612F88E70E942B5400E09DE783E82DC0DB
:104A00002D2D4881612F86E40E94C1138091790386
:104A1000823011F020E001C02D2D4981612F86E602
:104A20000E94C11301E096E18AEE26E14AEE17C02A
:104A30002D2D4881612F86E40E94A1538091790336
:104A4000823011F020E001C02D2D4981612F86E6D2
:104A50000E94A15302E096E280E026E240E030911D
:104A6000DB02131694F5DD2081F1309179033130AA
:104A7000F9F018F0323049F521C02DE040E06A81AC
:104A80008B2D0E94554E8A83402F50E0853028F0B0
:104A9000883030F421E030E005C020E030E002C092
:104AA00022E030E04217530781F0188219820DC0CE
:104AB00068818B2D0E94554E888307C0292F482F6F
:104AC00069818B2D0E94554E8983C394185F87E0BE
:104AD000C81238CF0FC0813009F479CF20E078CFE9
:104AE000813009F4A5CF20E0A4CF813009F488CF2C
:104AF00020E087CFDF91CF911F910F91FF90EF9032
:104B0000DF90CF90BF900895CF92EF92FF920F93D6
:104B10001F93CF93DF93F82E95E1C92E25E1E22E66
:104B200009ED1AE026E046EA55E160E00E948F1C9C
:104B3000882309F4BDC322E04FEE5AE060E080E034
:104B40000E94A31310917A038091DA02811135C07B
:104B50006BEF7AE088E00E94AA13113011F402E0B2
:104B600001C000E02091EC07220F220F220F26FB4C
:104B7000220F220B20F92E5F4BEC51E168E08AE511
:104B80000E94B3131130D9F46091EC07660F660FE1
:104B9000660F66FB660F660B60F921E04EEF8F2D06
:104BA0000E94644E8370880F880F880F9091EC07E5
:104BB000977E982B9093EC0702C0C8E001C0C0E13B
:104BC0008091DA028230A0F568E07BE08C2F0E94B1
:104BD000AA13123011F402E001C000E02091F607A0
:104BE0002295220F207E259525952595259525959D
:104BF0002E5F44EE51E16C2F8AE50E94B313123010
:104C0000B1F46091F6076295660F607E65956595D3
:104C100065956595659522E04EEF8F2D0E94644E57
:104C200087709091F607987F982B9093F607C85F4E
:104C30008091DA028330E8F467E17BE08C2F0E94F8
:104C4000AA13133011F422E801C020E84091F707BD
:104C500050E06C2F86E60E942B54133049F424E672
:104C600040E06091F7078F2D0E94644E8093F70714
:104C7000C85F8091DA028430F8F465E27BE08C2F23
:104C80000E94AA13143011F422E801C020E84091D8
:104C9000D70750E06C2F86E60E942B54143059F44D
:104CA0002DE24AE06091D7078F2D0E94644E8093D9
:104CB000D7070E943447C85F8091DA028530E8F454
:104CC0006EE27BE08C2F0E94AA13153011F422E8CB
:104CD00001C020E84091D80750E06C2F86E60E9482
:104CE0003154153049F428E748E26091D8078F2DF8
:104CF0000E94644E8093D807C85F8091DA028630A4
:104D000038F56EE37BE08C2F0E94AA13163011F465
:104D100022E801C020E84091EE0750E06C2F86E6C3
:104D20000E942B544DE66C2F8091620D0E9426103C
:104D3000163069F46091EE0701E02AEF30E040E0C0
:104D400050E070E08F2D0E94054D8093EE07C85F04
:104D50008091DA02873008F56FE47BE08C2F0E94A7
:104D6000AA13173011F402E001C000E02091F0070F
:104D700043E052E16C2F86E60E94B313173049F4EA
:104D800022E040E06091F0078F2D0E94644E8093F6
:104D9000F007C85FC93308F08BC28091DA0288300F
:104DA00028F56AE57BE08C2F0E94AA13D1E0183029
:104DB00009F0D0E04091EF0741702D2F6C2F86E66F
:104DC0000E947714DD2371F06091EF07617021E09C
:104DD00040E08F2D0E94644E9091EF0780FB90F988
:104DE0009093EF07C85FC93308F062C28091DA027E
:104DF000893038F56BE67BE08C2F0E94AA13D1E056
:104E0000193009F0D0E04091EF07469541702D2F01
:104E10006C2F86E60E947714DD2379F06091EF070E
:104E20006695617021E040E08F2D0E94644E909164
:104E3000EF0780FB91F99093EF07C85FC93308F043
:104E400037C28091DA028A3048F567E77BE08C2F21
:104E50000E94AA13D1E01A3009F0D0E04091EF0788
:104E600042FB442740F92D2F6C2F86E60E947714D1
:104E7000DD2381F06091EF0762FB662760F921E096
:104E800040E08F2D0E94644E9091EF0780FB92F9D5
:104E90009093EF07C85FC93308F00AC28091DA0225
:104EA0008B3048F566E87BE08C2F0E94AA13D1E096
:104EB0001B3009F0D0E04091EF0743FB442740F955
:104EC0002D2F6C2F86E60E947714DD2381F06091F0
:104ED000EF0763FB662760F921E040E08F2D0E9419
:104EE000644E9091EF0780FB93F99093EF07C85FB2
:104EF000C93308F0DDC18091DA028C30F8F464E93E
:104F00007BE08C2F0E94AA131C3011F422E001C018
:104F100020E04091DA076C2F86E60E94C1131C3016
:104F200049F426E14AEE6091DA078F2D0E94644E23
:104F30008093DA07C85FC93308F0BAC18091DA02FA
:104F40008D30C0F561EA7BE08C2F0E94AA1340915E
:104F5000F1074423A1F01D3011F422E801C020E83C
:104F600085E0489FA00111246C2F86E60E942B54F7
:104F700043E76C2F8091620D0E9426100CC01D30FB
:104F800011F402E001C000E020E040EA51E16C2FA2
:104F900086E60E94B3131D3049F428E740E0609193
:104FA000F1078F2D0E94644E8093F107C85FC933CB
:104FB00008F07EC18091DA028E3048F58091EF07CB
:104FC00082958170D1E0D81B61EB7BE08C2F0E9431
:104FD000AA1301E01E3009F000E0202F4D2F6C2FA6
:104FE00086E60E947714002371F021E040E06D2FE7
:104FF0008F2D0E94644E91E0981B8091EF0790FBEB
:1050000084F98093EF07C85FC93308F051C18091DC
:10501000DA028F3038F5D091EC07D095D1706FEB74
:105020007BE08C2F0E94AA1301E01F3009F000E002
:10503000202F4D2F6C2F86E60E947714002371F0ED
:1050400021E040E06D2F8F2D0E94644E91E0981B6F
:105050008091EC0790FB80F98093EC07C85FC9331F
:1050600008F026C18091DA028031B0F560ED7BE076
:105070008C2F0E94AA13103111F402E001C000E04D
:105080002091EC072295220F207E26FB220F220B77
:1050900020F92F5F40E152E16C2F86E60E94B313A6
:1050A0001031B1F46091EC076295660F607E66FB8B
:1050B000660F660B60F921E04FEF8F2D0E94644E62
:1050C0008370880F9091EC07997F982B9093EC0751
:1050D000C85FC93308F0ECC08091DA02813150F525
:1050E0008091EC0786FB882780F9D1E0D81B6FED13
:1050F0007BE08C2F0E94AA1301E0113109F000E03F
:10510000202F4D2F6C2F86E60E947714002371F01C
:1051100021E040E06D2F8F2D0E94644E91E0981B9E
:105120008091EC0790FB86F98093EC07C85FC93348
:1051300008F0BEC08091DA02823150F58091EC0710
:1051400087FB882780F9D1E0D81B6EEE7BE08C2F9F
:105150000E94AA1301E0123109F000E0202F4D2F28
:105160006C2F86E60E947714002371F021E040E066
:105170006D2F8F2D0E94644E91E0981B8091EC075B
:1051800090FB87F98093EC07C85FC93308F090C0A3
:105190008091DA02833150F5133111F402E001C03D
:1051A00000E06CEF7BE08C2F0E94AA1386E6E82ECD
:1051B000D1E08D2F0E948414202F482F6C2F8E2D2C
:1051C0000E943414DF5F96E0E90ED53091F700239A
:1051D00049F027E140E06091F2078F2D0E94644E74
:1051E0008093F207C85FC93308F062C08091DA0289
:1051F000843108F05DC045E85AE06C2F86E00E94DB
:10520000B01304E2D0E02D2F44E750E16C2F802F43
:105210000E946C51DF5F085ED430A9F7D8E0ED2E14
:10522000EC0E88E38E1508F443C0153131F48091FB
:10523000DB02181624F423E003C020E001C022E0C2
:105240004091ED0743704F5C6E2D82E10E94670F25
:1052500004E2C0E0D0E08091ED078370FE0194E0AD
:10526000899FE00DF11D1124E25BF94E449120E08D
:105270006E2D802F0E94A1532196085E043859F7A5
:105280006091ED076370153189F48091DB02181687
:105290006CF423E040E08F2D0E94644E8370909167
:1052A000ED079C7F982B9093ED0702C060938B03D2
:1052B000DF91CF911F910F91FF90EF90CF900895C4
:1052C000CF92EF920F931F93C02EE12C00E010E0DD
:1052D0000E948F1C1F910F91EF90CF9008950F9314
:1052E000CF93C82F362F80913C02882339F0CC23EE
:1052F00029F09091F707965F9C0F01C090E0909382
:10530000660D9091F6079295990F907E95959595DB
:1053100095959595959597FF0BC0832F61E070E06B
:10532000691B710997FD739590E00E94716A06C030
:10533000632F992319F0939F600D11246093680DDA
:105340004093690D1092670D8091640D8093650DF7
:10535000222331F0215000E0632F8C2F0E94A455AE
:10536000CF910F9108950F93E82F862F9091EC071E
:105370009871983059F0911103C0E63038F402C0AA
:10538000903131F091E0E33020F002C091E001C0B3
:1053900090E090933C02E43108F420C12091640D28
:1053A0009091650D291322C119C100E022E028C0A7
:1053B0009091640D8091650D981318C101E022E071
:1053C00043E064E18CE30E94A4550FEF22E043E048
:1053D00064E1D8C001E020E041E068E286E40E9498
:1053E0006F2904C101E020E041E06AE08BE4F7CFDF
:1053F00001E020E041E06AE081E4F1CF01E020E05B
:1054000042E008C000E020E041E066E0E8CF01E0D3
:1054100020E041E06AE0E2CF01E020E041E03BC073
:1054200001E020E041E06EE1D9CF00E020E045E07E
:105430006AE082E30E94A45520E045E06AE08AE544
:105440000E94A45522E044E065E08AC000E020E02C
:1054500041E06AE01BC001E020E040E066E016C0E9
:1054600001E020E040E066E08AE7B9CF01E020E01B
:1054700040E066E08CE7B3CF01E023E005C001E047
:1054800022E002C001E021E043E06FE088E7A7CF1F
:1054900001E021E049E164E1A1CF00E022E045E044
:1054A0006FE08AE598C000E022E045E06FE004C0CC
:1054B00002E022E042E06AE084E68DC000E02AE0FB
:1054C00042E065E08FE50E94A45521E04AE065E0F6
:1054D0008FE50E94A4552AE042E065E08FE57BC09D
:1054E0000FEF22E043E06AE080E50E94A45501E06E
:1054F00022E043E06AE08CE30E94A45500E020E053
:1055000041E06AE05DC000E021E041E065E086E462
:105510000E94A45521E042E06FE082E30E94A4557E
:1055200021E042E06FE02EC000E022E041E065E0D3
:105530008EE60E94A45523E041E065E08CE74BC075
:1055400000E020E045E065E082E30E94A45520E011
:1055500045E065E08AE50E94A45522E044E063E06E
:105560008EE639C000E023E04AE065E080E50E9475
:10557000A45521E044E165E080E50E94A45523E0C4
:105580004AE065E080E527C001E022E045E064E113
:105590008AE021C000E022E04AE064E082E30E9469
:1055A000A45521E044E168E086E40E94A45522E08D
:1055B0004AE068E082E30E94A45521E044E164E00F
:1055C00086E409C000E02AE04AE003C000E022E0EF
:1055D00042E365E088E70E94A45508C0F0E0E132AC
:1055E000F10520F4EA5BFF4F0C94C36A0F91089514
:1055F00066E40C94B329FC01A0918E03B0E0AA0FDD
:10560000BB1FA850B84FED93FC938FEB099585E035
:105610000C94F82A0F93803601F130F4843271F043
:10562000853209F044C007C0823891F0833859F0C0
:105630008136E9F52AC083E89CE202C087EC97E452
:105640000E94FB2A34C00E94F54586EA99E4F8CF0F
:105650000E94F5458DE997E1F3CF809141028111D8
:1056600011C081E08093410280913D0290913E0201
:10567000A0913F02B0914002181619061A061B06A7
:10568000B4F00BC01092410212C0809141028130EF
:1056900071F480911203882351F00E942455609385
:1056A0003D0270933E0280933F02909340028091AE
:1056B0002003882361F00E94245560934202709376
:1056C000430280934402909345021092200341E0EC
:1056D00062E580E00E948E4549E062E581E00E943B
:1056E0008E4542E062E583E00E948E4547E067E434
:1056F00085E00E948E4581E30E94E5454BE05CE039
:1057000068E08CE00E94B0138091F602882351F18A
:1057100020E04091F50268E082E70E94670F04E113
:1057200022E046EF52E060E18CE00E94501324E05A
:105730004AE360E184E20E94670F22E048EF52E012
:1057400060E180E30E94501324E04AE360E188E4D2
:105750000E94670F22E04AEF52E060E184E50E9478
:10576000501307C024E14EE051E060E18CE00E945C
:10577000A313809141028130D9F48091F6028823ED
:10578000B9F04DE15CE060E28CE00E94B013409122
:1057900042025091430280913D0290913E02481B8B
:1057A000590B04E024E068E28EE10E94D85335C032
:1057B00043E25CE060E28CE00E94B013809104035D
:1057C000882319F104E122E044E053E068E28CE030
:1057D0000E94501324E04FE268E284E20E94670FC7
:1057E00022E046E053E068E280E30E94501324E0A8
:1057F0004FE268E288E40E94670F22E048E053E04D
:1058000068E284E50E94501308C024E14EE051E0B4
:1058100068E28CE00F910C94A3130F9108958532E8
:1058200049F018F48432B9F408C0823871F0833832
:1058300091F406C087EC97E40CC083E89CE209C0B1
:105840000E94F54586EA99E404C00E94F5458DE979
:1058500097E10E94FB2A47E062E580E00E948E45C6
:1058600048E062E581E00E948E4547E067E485E01C
:105870000E948E4583E30E94E54543E45CE068E0D6
:1058800080E00E94B0138091F602811107C019C018
:105890009E3211F413820AC08F5F01C080E0E82FAE
:1058A000F0E0EA50FD4F90819111F2CF8091F60225
:1058B000882319F046EF52E002C04EE051E024E1A7
:1058C00003C024E14EE051E060E18CE00E94A313AC
:1058D00020E04091F50268E082E70E94670F47E50B
:1058E0005CE060E286E00E94B013809104038823AC
:1058F00019F044E053E002C04EE051E024E168E2D8
:105900008CE00C94A3130F93853249F018F4843281
:10591000B9F408C0823871F0833891F406C08FE082
:105920009CE20CC08AE09BE209C00E94F54586EA31
:1059300099E404C00E94F5458DE997E10E94FB2A95
:1059400042E067E480E00E948E4543E067E483E044
:105950000E948E4544E067E481E00E948E4545E068
:1059600067E484E00E948E4547E067E485E00E949A
:105970008E4584E30E94E54548E25CE068E082E110
:105980000E94B0138091F602882311F120E040912B
:10599000F30268E08EE40E94670F20E04091F50278
:1059A00068E082E70E94670F04E122E046EF52E0E0
:1059B00060E186E00E94501320E040E460E18EE167
:1059C0000E94670F24E148EF52E060E184E205C0E5
:1059D00024E14EE051E060E18CE00E94A31349E332
:1059E0005CE060E282E10E94B0138091F6028823BD
:1059F000D9F020E04091F40260E28EE40E94670F4B
:105A000004E123E044E053E068E280E00E945013A8
:105A100020E040E468E284E20E94670F24E147E06E
:105A200053E068E28AE205C024E14EE051E068E21A
:105A30008CE00F910C94A313AF92BF92CF92DF92A0
:105A4000EF92FF920F931F93CF93DF93E12C0FEF11
:105A500027E147E161E28FE10E94C90E27E147E1BA
:105A600061E28BE40E94C90E43E06BE28AE20E948D
:105A7000770E43E06CE289E20E94B85143E06BE2AA
:105A800086E50E94770E43E06CE285E50E94B851FE
:105A900020918B0384E0289F90011124F901E15BA0
:105AA000F94EE491AE2FB0E0AA0FBB1FA35EBB4F2F
:105AB0008D919C914091EF0740FF03C0E33009F4C2
:105AC000B8C0F901E25BF94EE49122E1289FB001F0
:105AD000299F700D112477FF02C06150784F60E25A
