:100000000C94200C0C94480C0C94480C0C94480C48
:100010000C94480C0C94480C0C94480C0C94480C10
:100020000C94480C0C94480C0C94480C0C94480C00
:100030000C94F55D0C94480C0C94480C0C94574FA0
:100040000C946A500C94480C0C94B75C0C94480CBB
:100050000C94480C0C94480C0C94C15D0C94480C06
:100060000C94480C0C94D84E0C94480C0C94480CEE
:100070000C94480C0C94480C0C94480C0C94480CB0
:100080000C94480C0C94480C0C94480CCB0DE20DCD
:10009000E50DE80DEB0DF00DF50DFD0D000E040E58
:1000A0000B0E0D0E110E150E190E1E0E230E270E21
:1000B0002D0E350E490E4B0E4F0E550E670E7A0E55
:1000C0008B0E960EA80EBA0EC00ED80EDD0E4C6129
:1000D0007469747564652020202020536174004C7D
:1000E0006F6E6769747564650047726E64537065FE
:1000F00065645B6B6E745D202053617400436F75A3
:10010000727365206F7665722067726F756E64001A
:100110002020475053204E4D45412064617461209A
:100120003F2F342020005008000000000000000095
:100130006F000007000700147F147F14242A7F2A11
:10014000122313086462364955225000050300004B
:10015000001C2241000041221C0014083E08140823
:10016000083E080800503000000808080808006031
:100170006000002010080402003E41413E000042A1
:100180007F40006251494600414949360018141227
:100190007F0027454539003E494932000179050372
:1001A0000036494936000649291E0000363600004F
:1001B000005636000008142241141414141441226D
:1001C000140800020151090606090906007E090902
:1001D000097E7F494949363E414141227F414122C2
:1001E0001C7F494949417F090909013E4149497A32
:1001F0007F0808087F00417F41002040413F017F88
:10020000081422417F404040407F020C027F7F045F
:1002100008107F3E4141413E7F090909063E415198
:10022000215E7F09192946264949493201017F018A
:10023000013F4040403F1F2040201F3F4030403F93
:1002400063140814630708700807615149454300A7
:100250007F41410002040810200041417F00040258
:100260000102044040404040000102040020545478
:1002700054787F48444438384444442038444448FF
:100280007F3854545418087E0901020C5252523ED1
:100290007F0804047800447D40002040443D007FF6
:1002A0001028440000417F40007C041804787C083A
:1002B00004047838444444387C1414140808141492
:1002C000187C7C080404084854545420043F4440DB
:1002D000203C4040207C1C2040201C3C4020403CD6
:1002E00044281028440C5050503C4464544C440062
:1002F0000836410000007F00000041360800080871
:10030000221C08081C220808A06000000000000051
:100310000000000000000000FEFE000000000000E1
:100320003E7E00007E3E00006060FEFE6060FEFEDD
:10033000606060F09898FEFE989818180C1E1E0CCD
:1003400080C0E070381878FC8EC6E6763C18000055
:10035000000066763E1E000000000000E0F0381C41
:100360000E0600000000060E1C38F0E00000606081
:10037000C080F8F880C0606080808080F8F880805D
:10038000808000000000000000000000808080806D
:10039000808080808080000000000000000000005D
:1003A0000000000080C0E07038180000000000006D
:1003B000000000000000000071710000000000005B
:1003C000000000000000000006067F7F06067F7F19
:1003D0000606181819197F7F19190F06181C0E0721
:1003E0000301307878301E3F716367663C3C666677
:1003F000000000000000000000000000070F1C3893
:100400007060000000006070381C0F0700000606D6
:1004100003011F1F01030606010101011F1F010146
:100420000101000066763E1E00000000010101018E
:100430000101010101010000307878300000000066
:10044000181C0E070301000000000000F8FC0E0657
:10045000060EFCF80000181CFEFE00000000000064
:10046000181C0E0686CEFC7800000606868686CE10
:10047000FC78000080C0E070381CFEFE00007E7E2C
:10048000666666E6C6860000F8FC8E86868E1C18B8
:100490000000060686C6E6763E1E000078FCCE8684
:1004A00086CEFC78000078FCCE8686CEFCF8000074
:1004B000307878300000000000003078783000009C
:1004C0000000000080C0E070381C0E0660606060B4
:1004D000606060606060060E1C3870E0C0800000E4
:1004E000181C0E06060686CEFC7800001F3F7060C2
:1004F00060703F1F000060607F7F60600000000050
:10050000787C6E6763616060000060606161617348
:100510003F1E00000707060606067F7F000018380A
:10052000706060703F1F00001F3F716161733F1E6C
:10053000000000007F7F0000000000001E3F73618C
:1005400061733F1E000000006171391D0F0700003C
:100550000C1E1E0C00000000000066763E1E00000F
:10056000000000000103070E1C3870600606060636
:100570000606060606066070381C0E07030100001A
:100580000000000066670301000078FCCE8686CE7E
:10059000FC780000E0F0B89C8E8E9CB8F0E0FEFE87
:1005A0008686868686CEFC78F8FC0E060606060E43
:1005B0001C18FEFE0606060E1C38F0E0FEFE8686BF
:1005C000868686860606FEFE8686868686860606DB
:1005D000F8FC0E068686868E9C98FEFE80808080C3
:1005E0008080FEFE00000606FEFE060600000000FB
:1005F00000000606FEFE0606FEFE80C0E070381C07
:100600000E06FEFE0000000000000000FEFE1C388A
:10061000F0F0381CFEFEFEFE70E0C0800000FEFE22
:10062000F8FC0E060606060EFCF8000001010101AA
:10063000000000007F7F0101010101017F7F7F7FBA
:100640006161616161733F1E1F3F70606060607037
:1006500038187F7F60606070381C0F077F7F616192
:100660006161616160607F7F010101010101000042
:100670001F3F7060616161717F3F7F7F01010101F8
:1006800001017F7F000060607F7F6060000018389C
:10069000706060703F1F00007F7F0103070E1C38F1
:1006A00070607F7F60606060606060607F7F00007E
:1006B000010100007F7F7F7F00000103070E7F7F25
:1006C0001F3F7060606060703F1FFEFE86868686FA
:1006D00086CEFC78F8FC0E060606060EFCF8FEFE3A
:1006E0008686868686CEFC7878FCCE868686868E42
:1006F0001C1806060606FEFE06060606FEFE00009E
:1007000000000000FEFEFEFE000000000000FEFEF5
:10071000FEFE000000000000FEFE1E3E70E0C0C0B5
:10072000E0703E1E7EFEC080000080C0FE7E060699
:10073000060686C6E6763E1E0000FEFE0606060695
:100740000000183870E0C0800000000000000606BD
:100750000606FEFE00006070381C0E0E1C3870602D
:10076000000000000000000000007F7F0101010187
:10077000010100001F3F7060666E3C387F677F7F1D
:100780000101070F1D397060183871616161617373
:100790003F1E000000007F7F000000001F3F7060D0
:1007A000606060703F1F070F1C387070381C0F07A7
:1007B0001F3F70703E3E70703F1F787C0E07030332
:1007C000070E7C78000001037F7F03010000787C26
:1007D0006E6763616060606000007F7F6060606082
:1007E0000000000000000103070E1C1800006060FC
:1007F00060607F7F0000000000000000000000003B
:10080000606060606060606060600000060E1C38C0
:100810007060000000006060606060E0C080FEFE0C
:1008200080C0E06060E0C08080C0E06060606060C8
:10083000000080C0E06060E0C080FEFE80C0E0603C
:10084000606060E0C0808080F8FC8E86060E1C1818
:10085000E0F0381818181818F8F8FEFE80C0E060AC
:1008600060E0C08000006060E6E60000000000007C
:1008700000006060E6E60000FEFE000080C0E06070
:10088000000000000606FEFE00000000E0E060E060
:10089000C0C0E0E0C080E0E080C0E06060E0C08018
:1008A00080C0E060606060E0C08000000000000088
:1008B00000000000183C7E66666666667F7F7F7F6C
:1008C0006161606060703F1F1F3F706060606070BA
:1008D00038181F3F7060606061617F7F1F3F7666E0
:1008E00066666666070701017F7F01010000000060
:1008F00001036766666666763F1F7F7F0101000021
:1009000000007F7F000060607F7F6060000018381B
:10091000706060703F1F00007F7F060F1F3970609E
:100920000000000060607F7F606000007F7F00004B
:10093000070700007F7F7F7F0101000000007F7FAD
:100940001F3F7060606060703F1FE0E0606060604B
:1009500060E0C08080C0E0606060C080E0E0E0E017
:1009600080C0E06060E0C08080C0E0606060606087
:1009700000006060FEFE606000000000E0E000003B
:1009800000000000E0E0E0E0000000000000E0E027
:10099000E0E0000000000000E0E060E0C080000057
:1009A00080C0E060E0E0000000000000E0E0606087
:1009B00060606060E0E0E060000080C0787C0E066F
:1009C000000000000000FEFE000000000000060E17
:1009D0007C78C0800000808080801838F0E0C08083
:1009E00080C0E0F03818808080807F7F0606060691
:1009F0000607030101030706060607077F7F7F7FBF
:100A00000101000000000101616367666666667EA1
:100A10003C1800001F3F7060607038181F3F706006
:100A2000607038187F7F070F1C387070381C0F07F4
:100A30001F3F7070383870703F1F6070391F0F0F84
:100A40001F39706001036766666666763F1F6070D7
:100A5000787C6E6763616060000001031E3E706019
:100A60000000000000007F7F0000000000006070B8
:100A70003E1E0301000001010101181C0F070301C4
:100A80000103070F1C180101010103010200040505
:100A900006075F2D2E2C001B1E272D36394B4E636B
:100AA0006C7278878D939CB1B4C6C9D2D8E1E40149
:100AB00002030401030204040203010403020142CD
:100AC000616420454570726F6D2044617461004619
:100AD0006F726D61747461676520454550524F4D6A
:100AE000004D45535341474500535053008040004B
:100AF00000000000000000000000000000000000F6
:100B000000000000000000000000000000000000E5
:100B100000000000000000000000000000000000D5
:100B200000000000000000000000000000000000C5
:100B300000000000000000000000000000000000B5
:100B400000000000000000000000000000000000A5
:100B50000000000000000000000000000000000095
:100B6000000000000000000000000000000000FC89
:100B7000FCFCFCFCFCFCFCFCFCFCFCFCFCFCFCFCB5
:100B8000FCFCFCFCFCFCFCFCFCFCFCFCFCFCFCFCA5
:100B9000FCFCFCFCFCFCFCFCFCFCFCFCFCFCFCFC95
:100BA000FCFCFCFCFCFCFCFCFCFCFCFCFCFCFCFC85
:100BB000FCFCFCFCFCFCFCFCFCFCFCFCFCFCFCFC75
:100BC000FCFCFCFCFCFCFCFCFCFCFCFCFCFCFCFC65
:100BD000FCFCFCFCFCFCFCFCFCFCFCFCFCFCFCFC55
:100BE000FCFCFCFCFCFCFCFCFCFCFCFCFCFCFCFF42
:100BF000FFFFFFFFFFFFFFFF7F7F3F3F3F3F3F3F85
:100C00007F7FFFFFFFFFFFFFFFFF3F3F3F3F3FFFB4
:100C10007F7F3F3F3F3F7FFFFFFFFFFFFFFFFFFF64
:100C20007F7F3F3F3F3F3F3F7F7FFFFFFFFFFFFF54
:100C3000FFFFFF3F3F3F3F3FFF7F3F3F3F3F3F7F44
:100C4000FFFFFFFF7F0F07030181E0F0F0F0E000FE
:100C50000101071FFFFFFFFFFFBF3F3F3F3F7FFF38
:100C6000FFFFFFFF7F3F3F3F3F3FBFFFFFFFFFFF14
:100C7000FFFFFF3F07030100C0F0F8FCFCFCFCF89D
:100C80000000000103FFFFFF3F0100000080E0F8CB
:100C9000FCFCFCF80000000001FFFF3F070301001F
:100CA0000010181C1C1C1C180000000103FFFFFF93
:100CB000FF1F00000000C0F8FCFCFC10000000005A
:100CC000C0FFFFFFE0800000000F1F1F1F0F030089
:100CD000000000E0FFFFFFFFFFFFFEF8E000000163
:100CE00007070180E0F0F8FCFEFFFFFFFFFFFFFFBA
:100CF000FFFFFFE0C08000000F1F1F1F1F0F070135
:100D000080C0E0F0FEFFFF0700000000C00F1F1FC3
:100D10001F0F07010080E0F0FEFFFFE0C080000031
:100D20000E0E1E1E1E1E1E1E1E0ECEFEFEFFFF7F80
:100D30000300000080FCFFFFFF3F0300000080FC79
:100D4000FFFF1F0F0F1F1F1E1E1E0E0E0781C0E08C
:100D5000F0FCFFFFFFFF7F3F1F0F030180E0F0F873
:100D6000E0800001071F7FFFFFFFFFFFFFFFFFFF86
:100D7000FFFFFFFFFFFFFFFFFEFEFEFEFEFEFFFF89
:100D8000FFFFFFFFFF1F00000000C0FEFFFFFEFE91
:100D9000FEFEFEFFFFFFFFFFFFFFFFFFFFFFFFFF66
:100DA000FEFEFEFEFEFEFEFEFFFFFFFFFFFFFFFE5C
:100DB000FEFEFEFEFFFFFFFFFFFEFEFEFEFEFFFF4C
:100DC000FFFFFFFFFEFEFEFEFEFEFEFFFFFFFFFF3A
:100DD000FFFFFFFFFFFEFEFEFEFEFEFFFFFFFFFF29
:100DE000FFFFFEFEFEFEFEFFFFFFFFFFFFFFFF1FF8
:100DF0001F1F1F1F1F1F1F1F1F1F1F1F1F1F1F1F03
:100E00001F1F1F1F1F1F1F1F1F1F1F1F1F1F1F1FF2
:100E10001F1F1F1F1F1F1F1F1F1F1F1F1F1F1F1FE2
:100E20001F1F1F1F1F1F1F1F1F1F1F1F1F1F1F1FD2
:100E30001F1F1F1F1F1F1F1F1F1F1F1F1F1F1F1FC2
:100E40001F1F1F1F1F1F1F1F1F1F1F1F1F1F1F1FB2
:100E50001F1F1F1F1F1F1F1F1F1F1F1F1F1F1F1FA2
:100E60001F1F1F1F1F1F1F1F1F1F1F1F1F1F1F00B1
:100E70000000000000000000000000000000000072
:100E80000000000000000000000000000000000062
:100E90000000000000000000000000000000000052
:100EA0000000000000000000000000000000000042
:100EB0000000000000000000000000000000000032
:100EC0000000000000000000000000000000000022
:100ED0000000000000000000000000000000000012
:100EE00000000000000000000000000000000053AF
:100EF000504500454550524F4D206C6F77206D6531
:100F00006D0047617A207061732061207A65726F8D
:100F1000005265696E697469616C6973657A206CE9
:100F20006500537769746368657320656E636C65EB
:100F30006E63686573005265696E697469616C6996
:100F400073657A206C657300416C61726D65732006
:100F50004465736163746976656573004C494D49F6
:100F60005445530000030303030303030303030374
:100F70000303030303434F50494552205452494D44
:100F8000205B4D454E555D00434F55524245004D47
:100F90004F4445004D6178206578706F206174740E
:100FA00065696E7421004D6178206D6978616765AF
:100FB000732061747465696E7421004D454E5553FC
:100FC000204F564552464C4F5700414C45525445D0
:100FD00000546F7563686520706F757220636F6E63
:100FE00074696E756572004170707579657A2073E9
:100FF000757220746F7563686500416C74697475EF
:101000006465205361742020204D617800486F6D25
:1010100065004C6966740042656570004F4E004F74
:101020004646002F53005554432D54696D652020CA
:10103000202020205361740054696D657200446162
:1010400074650063005056004D4F44454C450050B8
:10105000504D00434800544D52004445425547000E
:10106000746D72314C6174206D6178202020207580
:101070007300746D72314C6174206D696E20202094
:1010800020757300746D7231204A69747465722022
:10109000202020757300746D61696E206D61782069
:1010A00020202020206D73004672656520537461F6
:1010B000636B206D696E2020202062005B4D454EE1
:1010C000555D706F75722072657365740053455479
:1010D0005550000009020200000000000602014312
:1010E00068726F6E6F00452E4C696D697465730090
:1010F000452E5472696D73005472696D20496E6398
:1011000000542D547261636500542D5472696D0052
:10111000426970204374720050726F746F007500E2
:1011200050504D206672616D65006D730045434FF0
:101130004C414745000002020202004573636C61A6
:101140007665006D6F646520202025207372630032
:101150004D756C7469706C696575720043616C00E3
:10116000434F555242455300435600504841534562
:101170005320444520564F4C0028646566617574C1
:101180002900566572696620202020205472696DFE
:10119000730056455253494F4E00564552533A201C
:1011A00056322E30302D002053564E3A206F706547
:1011B0006E39782D7232313300444154453A203231
:1011C0003031322D30322D30350054494D453A20E2
:1011D00031383A30363A333900454550524F4D2078
:1011E0007600414E410041004247004449414700DA
:1011F0005472696D2D202B00120800081C08080885
:101200001C0800000822004900220800000000001D
:10121000227F220000000822004900220800000866
:10122000220049002208000000227F220000000066
:1012300000082200490022080000081C0808081CB9
:101240000800434F4E46494720524144494F00420F
:10125000697065757200537065616B6572205069C5
:1012600074636800436F6E74726173746500416CDF
:1012700061726D6520426174746572696500416CCC
:1012800061726D6520696E61637469766974650069
:1012900046696C7472652041444300496E766572FC
:1012A00073696F6E2047617A0042697020742E6DF9
:1012B000696E7574657300426970202061207265E3
:1012C000626F75727300466C617368207175616E30
:1012D000642062697000496E7465722065636C6198
:1012E00069726167650045636C6169722E206F6683
:1012F0006620617072657300456372616E206427B9
:101300006163637565696C00416C65727465204743
:10131000617A00416C6572746520496E7465720073
:10132000416C65727465204D656D6F697265004131
:101330006C6572746520416C61726D65005041533B
:1013400020444520444F4E4E45455320416C617228
:101350006D65004F7264726520566F696573205227
:1013600078004D6F646500494E5345524552204DFB
:1013700049584147452000454449544552204D496C
:10138000584147452000536F757263650052617480
:10139000696F004F6666736574005472696D00432F
:1013A0006F7572626500502E566F6C00416C6572ED
:1013B0007465004F4646004D756C74707800526538
:1013C00074617264204261730052657461726420BA
:1013D000486175740052616C656E74697220486171
:1013E00075740052616C656E74697220426173009D
:1013F000535700446570617373656D656E74204565
:101400004550524F4D0044522F4558504F004F46C3
:10141000464F4E202D2D2D494E56344348203643FD
:101420004820384348203130434831324348313432
:101430004348313643485175696574204E6F4B659A
:1014400079207853686F7274436F757274204E6F91
:10145000726D20204C6F6E672020784C6F6E672075
:1014600053494E474F534D5046494C5442617320A7
:101470004F464620486175746F6666202B3D203AC2
:101480003D636831636832636833636834457870FC
:10149000202020457846696E2046696E2020204D28
:1014A0006F79656E2047726F732020524554413129
:1014B000323350504D2020505858202044534D3244
:1014C0002050504D3136504F534E45472D2D2D78DD
:1014D0003E30783C307C787C663E30663C307C66C2
:1014E0007C45444954205052534554412E47415A5B
:1014F000526174696F204578706F20205068617365
:101500006520496E746572204D6F64652020436FBD
:1015100075726265202020202020416A6F757465F5
:1015200072204D756C7469706C7952656D706C6168
:1015300063652B3D2A3D3A3D4F4E202020204F46EB
:10154000462020204F66667365742D2D2D2D20209A
:1015500020763E6F66732020763C6F667320207C79
:10156000767C3E6F66737C767C3C6F667345542058
:10157000202020204F552020202020584F5520206B
:10158000202076313D3D7632207631213D76322065
:1015900076313E7632202076313C7632202076310C
:1015A0003E3D76322076313C3D7632205365637580
:1015B00072697465200020202045636F6C61676547
:1015C0002000202020205472696D20696E737461A0
:1015D0006E74205472696D73324F666673657473EE
:1015E0004A6F75657220736F6E20202020576172DC
:1015F0006E31205761726E322043686565702052EB
:10160000696E672020536369466920526F626F7468
:1016100020436869727020546164612020437269BC
:10162000636B74536972656E20416C6D436C6B52D1
:1016300061746174615469636B20204861707463E4
:1016400031486170746332486170746333204D6552
:101650006E75204578697420204261732048617559
:101660007444726F6974476175636847415A4449AD
:101670005250524649443049443149443241494C20
:1016800047454154524E53573153573253573353B2
:101690005734535735535736535737535738535793
:1016A000395357415357425357434449522050529C
:1016B000462047415A2041494C2050312020503289
:1016C0002020503320204D41582046554C4C435942
:1016D000433143594332435943334F4646414253C2
:1016E000475A73475A25475A74005B4D454E555D1E
:1016F000202020205B455849545D00D0586C33634E
:1017000039CE4ED34E28206C3813522451408008D5
:10171000042010020144522F4558504F004D4958A3
:10172000455552002F3134002F333200496E746515
:1017300072004E6F6D00C33B16372639283B493A7D
:10174000145643414C4942524154494F4E005B4D5F
:10175000454E555D504F555220444542555400204A
:101760002020534554204E455554524520202000FA
:10177000205B4D454E555D5175616E64205052455C
:10178000540020424F55474552204D414E43484555
:10179000532F504F545320005354415400544D3153
:1017A00000544D320047415A0054482500544F54CC
:1017B00000494E5445525320464F4E4354494F4ED4
:1017C00053000002494E5445525320504552530095
:1017D0000002504841534520444520564F4C0006D6
:1017E00000035472696D73004661646520496E00A0
:1017F00046616465204F75740053454C4D4F444518
:10180000006C69627265005355505052494D455203
:10181000204D4F44454C4500436F7069652E2E2E78
:10182000004465706C6163656D656E742E2E2E00CC
:101830004368617267656D656E742E2E2E003C697B
:1018400011241FBECFEFD0E1DEBFCDBF11E0A0E07D
:10185000B1E0ECE1F4ED02C005900D92AA31B107C0
:10186000D9F71DE0AAE1B1E001C01D92A33DB10787
:10187000E1F718E1C0E4D8E104C02297FE010E941C
:10188000D669CE33D107C9F70E945A5E0C940C6A10
:101890000C940000982F8091D1028873803129F434
:1018A000892F63E00E9464690895883119F4892FB3
:1018B00086950895883219F4892F880F089580330A
:1018C00021F4892F880F890F0895892F0895EF92A9
:1018D000FF920F931F93CF93DF9300D0CDB7DEB766
:1018E0009091D102987349F1A091850AB0E0FD0171
:1018F00031961E2F17709091840A1917F1F08823E2
:1019000029F09091DB02965F980F01C090E084E887
:10191000E82E8AE0F82EEA0EFB1EF7019683862F4A
:101920002A8349830E944A0CF701868B4981468F9E
:101930002A8126A306871093850A0F900F90DF91C6
:10194000CF911F910F91FF90EF9008950F931F93E8
:10195000CF93DF9300D00F92CDB7DEB7182F8091D1
:10196000D102887321F1112329F08091DB02865F77
:10197000810F01C080E08093860A862F2B834A83E3
:1019800069830E944A0C8093880A4A814093890A9D
:101990001092870A8091840A8093850A2B8169813D
:1019A000222329F02150812F00E00E94670C0F9024
:1019B0000F900F90DF91CF911F910F91089541E00B
:1019C000262F30E0683058F440E0F901EE0FFF1F99
:1019D000EE0FFF1FE20FF31FEE58F34F0CC028501D
:1019E0003040F90153E0EE0FFF1F5A95E1F7E20F87
:1019F000F31FE656F34FBC0160507C4F77FD0DC0DE
:101A000088E06030780784F0442319F088E090E0A3
:101A100002C084E090E0E80FF91F4081552747FDA0
:101A20005095542F44272EC0272F442321F0707047
:101A3000660F771F02C026957170822F90E0E80F25
:101A4000F91F2081332727FD309580E092E0861B27
:101A5000970B95958795289FA001299F500D389F3A
:101A6000500D1124E181FF27E7FDF0959B0135958D
:101A70002795E29FC001E39F900DF29F900D1124E6
:101A8000480F591FCA0169E170E00E948469CB01C7
:101A90000895609174090E94DF0C0895EFE1F1E070
:101AA00020E0822F806487B9369A349BFECF349A27
:101AB00084B195B1880F991F819391932F5F28303E
:101AC00081F70895EFE1F1E040E0842F806487B969
:101AD00054E080E090E0369A349BFECF349A24B1F3
:101AE00035B1820F931F5150B1F796958795819329
:101AF00091934F5F483049F70895AFE1B1E0EFE2CD
:101B0000F1E040E0842F806487B9369A20893189DA
:101B10008D919C91119796958795820F931F8E7F3B
:101B200011969C938E9380819181820F931F96953D
:101B30008795918B808B349BFECF349A84B195B17D
:101B400020813181820F931F969587958193919380
:101B50004F5F12964830B1F608950F939091D102DD
:101B60009695969596959770843138F03091840AC1
:101B70002091850A321709F027C1E82FF0E0E13201
:101B8000F10508F021C1EA5BFF4FEE0FFF1F059042
:101B9000F491E02D09949091840A8091850A981718
:101BA00009F012C182E36AE045E020E000E00E9413
:101BB000670C8AE56AE045E020E00E94670C8EE64B
:101BC00065E0C3C086E46AE008C086E464E105C05D
:101BD00086E46EE102C086E468E241E020E03BC0BA
:101BE000913009F4F1C08BE404C0913009F4ECC0E9
:101BF00081E46AE041E020E034C0862F66E0FACF5D
:101C000086E46AE042E0EACF913009F4DDC086E480
:101C10006AE042E0F0CF88E7ECCF88E76AE041E095
:101C200019C08AE76AE041E00CC08CE76AE041E055
:101C300003C088E76FE043E023E00DC088E76FE072
:101C400043E022E008C088E76FE043E003C086E499
:101C500064E149E121E001E005C086E46AE042E098
:101C600022E000E00E94A60CAFC09091840A80910F
:101C7000850A981709F0A8C08CE364E143E022E0EC
:101C800001E00E94670C80E564E143E022E00FEF91
:101C900099C08AE501C084E66FE045E091C084E622
:101CA0006AE042E022E002E08DC08FE565E042E0BC
:101CB0002AE000E00E94670C8FE565E04AE021E041
:101CC0000E94670C8FE565E042E02AE07BC080E57A
:101CD0006AE043E022E00FEF0E94670C8CE36AE0C9
:101CE00043E022E001E00E94670C86E46AE041E004
:101CF00020E067C086E465E041E021E000E00E946A
:101D0000670C82E36FE042E021E00E94670C80E50F
:101D10006FE042E04BC08EE665E041E022E000E08B
:101D20000E94670C8CE765E041E022C082E365E039
:101D300045E020E000E00E94670C8AE565E045E0B0
:101D400020E00E94670C8EE663E044E022E03AC0A7
:101D500080E565E04AE023E000E00E94670C80E552
:101D600065E044E121E00E94670C80E565E04AE01F
:101D700023E028C08AE064E145E022E001E022C0DF
:101D800082E364E04AE022E000E00E94670C86E41F
:101D900068E044E121E00E94670C82E368E04AE0E9
:101DA00022E00E94670C86E464E044E121E00AC07E
:101DB00088E765E04AE02AE004C088E765E042E39E
:101DC00022E000E00E94670C0F91089566E40E94F3
:101DD000AD0D0895FC01A091B001B0E0AA0FBB1FAA
:101DE000A352BD4F8D939C938FEB099589E00E9480
:101DF000E60E0895EF92FF920F931F93CF93DF9318
:101E00007C01D0E000E010E020E030E01FC0CD32E7
:101E1000E1F08C2F80538A30C8F4C901B8012AE060
:101E200030E040E050E00E9445698B019C018C2F1E
:101E3000992787FD9095C097AA2797FDA095BA2F5F
:101E4000080F191F2A1F3B1F01C0D1E0F701C191E4
:101E50007F01CC23E1F6DD2339F0309520951095F4
:101E600001951F4F2F4F3F4FB801C901DF91CF910F
:101E70001F910F91FF90EF900895CF93DF93282F3C
:101E800030E0D901AC53B24F9C91E901C653D24F17
:101E9000961719F498819417F9F0833098F4C901D2
:101EA000880F991FFC0173E0EE0FFF1F7A95E1F791
:101EB000E81BF90BEC56F24F10822154324FF90116
:101EC000108205C02257324F8FE3F90180836C9353
:101ED000488381E08093C30DDF91CF91089554989A
:101EE000579808958F708E3068F490E0FC01EE0FE3
:101EF000FF1FE80FF91FEE57F64F83E682838081BC
:101F00008F7C808308958E3091057CF4FC01EE0F68
:101F1000FF1FE80FF91FEE57F64F90819F7081E089
:101F20009F3009F450C080E008958231910589F115
:101F3000833191058CF48F30910509F18031910541
:101F400024F48E309105D1F533C08031910589F0AC
:101F50008131910599F517C08431910569F084317B
:101F60009105FCF08531910501F18631910531F53E
:101F700022C091B1947023C093B3907820C0909107
:101F8000630091701CC08091630091E083FF17C0D3
:101F900015C08091630083FF11C091E00E990FC0BE
:101FA0000DC091E00E9B0BC009C091B1907107C0AC
:101FB00093B3907404C091B1907201C090E081E03D
:101FC000992309F480E00895EF92FF920F931F93F5
:101FD000CF93DF93F82E882349F480911C019091D0
:101FE0001D01892F881F8827881F83C1992787FD96
:101FF000909597FF03C0909581959F4F863109F486
:1020000071C18A3028F490E00D960E94830F6BC155
:102010008A50282F30E08901000F111F020F131F73
:102020000E51134FD80112969C911297992309F4DF
:102030005FC112969C911297953040F012969C9138
:102040001297983008F45CC122E001C020E0D8016A
:10205000EC91E150E73008F44BC054C020911A01D4
:1020600030911B012C233D2381E02115310541F5E1
:1020700032C080911C0190911D018C2B9D2B90935F
:102080001D0180931C01F80180810E94E40FE82E5D
:10209000D80111968C910E94E40FF801928195303D
:1020A00019F0963049F403C0EE20A9F002C0EE20EA
:1020B00031F4882321F40FC08E2569F001C081E03E
:1020C00020911A0130911B012C2B3D2B30931B01C9
:1020D00020931A0108C180911A0190911B01C095AB
:1020E000D095C823D923D0931B01C0931A01F8C0FF
:1020F000809173098823E9F5F0E0EE0FFF1FEE5B96
:10210000FD4F31C0E93090F1E03190F4F0E0DF01B3
:10211000AA0FBB1FAB56B64FEE0FFF1FE855FD4F82
:102120004D915C91119780819181481B590B09C099
:10213000E43150F4F0E0EE0FFF1FEB56F64F408114
:102140005181440F551F17C0E43230F4F0E0EE0F18
:10215000FF1FE059FC4F07C0E63258F4F0E0EE0FE5
:10216000FF1FEF58FE4F4081518105C040E054E011
:1021700002C040E050E0D8012223C9F58C9185329D
:102180004CF011962C911197332727FD30952E593D
:102190003F4F15C0F801818129E28202900111248C
:1021A000359527953595279587FD815C86FB880FAA
:1021B000880B80F9992787FD9095281B390BD8014A
:1021C00012968C911297823009F47CC0833019F0FA
:1021D000813039F473C057FF70C0509541955F4FFF
:1021E0006CC057FF6FC0509541955F4F6BC0119603
:1021F000EC911197E150E73058F4809173098823EE
:1022000009F03FC0F0E0EE0FFF1FEE5BFD4F33C063
:10221000E930A0F1E031A0F48E2F90E0FC01EE0F48
:10222000FF1FEB56F64FDC01AA0FBB1FA855BD4F91
:10223000208131818D919C911197281B390B09C008
:10224000E43150F4F0E0EE0FFF1FEB56F64F208123
:102250003181220F331F17C0E43230F4F0E0EE0F6B
:10226000FF1FE059FC4F07C0E63258F4F0E0EE0FD4
:10227000FF1FEF58FE4F2081318105C020E034E080
:1022800002C020E030E0F8018281893089F08A3094
:1022900018F4883009F507C08A3079F08B3091F056
:1022A0008C30D1F414C081E042175307C9F41BC02D
:1022B00081E042175307B9F413C081E024173507B2
:1022C00094F00EC081E0421753076CF009C081E022
:1022D0004217530744F404C081E0241735071CF467
:1022E00080E001C081E01F1424F091E0892701C043
:1022F00080E0DF91CF911F910F91FF90EF900895B3
:10230000C1E0D0E002C0CC0FDD1F8A95E2F78091DA
:102310001C0190911D018C239D23009709F09ECEF6
:10232000A8CE362F37953327379520E030931D01FF
:1023300020931C010E94E40F0895FF920F931F93B6
:10234000CF93DF93C1E0D0E00DE010E0FC2EC09F02
:10235000F001C19FF00DD09FF00D1124E75CF24F0A
:102360008581882329F060E00E949111882329F457
:102370002196C530D10551F7FF248F2DDF91CF91E4
:102380001F910F91FF90089570938F0D60938E0DA4
:1023900090938D0D80938C0D4F5F4093900DE39A39
:1023A00080915C01882311F40895A8958091900D87
:1023B0001816DCF3089590E0BC01660F771F680FD4
:1023C000791F6C5F7F4FCB01835A9E4F43E050E0F3
:1023D0000E94C4110895CF93DF9300D000D0CDB7F1
:1023E000DEB7282F30E0F901EE0FFF1FE20FF31FD9
:1023F000DE011196EF59FE4F93E001900D9291503E
:10240000E1F7462F50E0F901EE0FFF1FE20FF31F37
:102410009A01220F331FD901A40FB51FEF59FE4FA8
:10242000AF59BE4F93E00D9001929150E1F7F90141
:10243000E40FF51FEF59FE4FDE01119693E00D906A
:1024400001929150E1F791E090935C016C830E94BE
:10245000DB116C81862F0E94DB1110925C010F90C2
:102460000F900F900F90DF91CF91089560931E0110
:10247000682F70E084E0660F771F8A95E1F78EE1A0
:1024800091E041E050E00E94C41108958FE591E091
:1024900062E070E041E050E00E94C411089580E0E5
:1024A00094E0EFEFF4E0DF019C011D9221503040F9
:1024B000E1F70895A998AB98AC988BBBAD9AAD980D
:1024C000AB9AA99A08951F93CF93DF9310E0CFEFB3
:1024D000D4E084E00E945A1280E10E945A12812FB7
:1024E000806B0E945A12A998AB9AAC98FE0180E8C2
:1024F00091919BBBAD9AAD988150D1F7C058DF4FF9
:10250000AB9AA99A1F5F183021F7DF91CF911F91E5
:102510000895CF93C82F81E80E945A128C2F0E94F1
:102520005A12CF91089587FD5CC047FF02C0640F27
:10253000419567FF02C0460F60E0E62FFF27E7FDE9
:10254000F095A42FBB27A7FDB095EA0FFB1FE13440
:10255000F10514F040E4461BE62FE595E595E59579
:10256000FF27E7FDF095F695FE2FEE27F795E79507
:10257000E80FF11DE150FB4F6770C1F0A1E0B0E042
:10258000062E02C0AA0FBB1F0A94E2F7A195A22350
:102590008081A827A083E058FF4F6850460F06C0EF
:1025A000808182278083E058FF4F48501416C4F37F
:1025B000842F992787FD9095089668E070E00E9427
:1025C0008469882371F0E058F04041E050E002C097
:1025D000440F551F8A95E2F7419542238081482791
:1025E000408308952FEF0E9493120895E62FE695F9
:1025F000E695E695F0E0F695FE2FEE27F795E79540
:10260000E80FF11DE150FB4F88E0EF3FF807B8F409
:10261000677081E090E001C0880F6A95EAF741FF9A
:1026200004C09081982B9083089542FF05C0809547
:1026300090818923808308959081982790830895BD
:10264000FF920F931F93CF93DF93669566956695E0
:10265000C62FD0E0D695DC2FCC27D795C795C80FCD
:10266000D11DC150DB4F552747FD5095E22FF0E0BB
:1026700021FD09C020FF0AC08091AC09FF24F3941A
:1026800086FD05C003C0FF24F39401C0FF24E2FFD0
:102690005AC08A01000F111FCA01A3E0880F991FB9
:1026A000AA95E1F7080F191FCA01809760E170E051
:1026B0000E94846980EA90E0689F9001699F300DD4
:1026C000789F300D1124020F131F06531E4F85E013
:1026D000AF01487050704115510519F0882319F465
:1026E00061C0882381F0F8019491E056FF4F649116
:1026F00098012F5F3F4FF9017491F801EF55FF4F9B
:10270000E491890104C070E060E090E0E0E0FF2027
:1027100021F0909570956095E0959E012F573F4F61
:10272000F8E02F3F3F0748F498837983DE01A058F3
:10273000BF4F6C93D901EC9322960F5F1F4F8150CE
:1027400008F0C9CF2FC0E3FF08C0FF2011F08FEFC2
:1027500001C080E0899331E001C030E0CA01880FF8
:10276000991F880F991F840F951F88579F4F25E049
:10277000FC010196E491332311F0243039F0B8E0E4
:10278000CF3FDB0718F4F110E095E993215081F772
:10279000E8E0CF3FDE0730F4FF2011F08FEF01C0FB
:1027A00080E08883DF91CF911F910F91FF90089572
:1027B00020E00E9420130895CF93DF930F92CDB7AE
:1027C000DEB7682F70E084E0660F771F8A95E1F727
:1027D000CE01019641E050E00E94F36989810F909B
:1027E000DF91CF910895CF93DF93C82FD82F04C0E6
:1027F0008D2F0E94DC13D82F8D2F0E94DC1388238D
:10280000B9F78D2F60915F010E943612C0935F016E
:102810000E944612DF91CF91089590915002982B1B
:10282000909350020895AF92BF92CF92DF92EF92B1
:10283000FF920F931F93CF93DF938091C30A87700A
:1028400090910001981751F18093000180917D00D3
:10285000857E80937D0017981F9A10928A001092AF
:102860008B0082E880938A0080917D008062809353
:102870007D001EBC80E49CE99BBD8ABD1DBC1CBCC8
:1028800087B7837C87BF8CE386BF8FE380937C0010
:1028900087B7806187BF1FBC8AE08EBD8091C40A64
:1028A00085FF03C0C0E0D5E002C0C0E0D4E04091A5
:1028B000C30A4595459545954595440F485FE09178
:1028C000C50A84E6E802F0011124E85AFD4F809120
:1028D000890D992787FD909528EE33E0829FB001FE
:1028E000839F700D929F700D1124685370456E1B6D
:1028F0007F0B5EE6E52E52E0F52E50E0A4EFAA2E07
:10290000A9E0BA2ECC24DD24CC1ADD0A08E512E0B9
:102910000E1B1F0B24C09601D7018D919D917D0147
:102920008C159D0534F08C179D0714F49C0101C093
:102930009E01205A364FCF01820F931F681B790BDF
:10294000200F311FD50111963C932E931396FC93C3
:10295000EE93129784E090E0A80EB91E5F5F5417C3
:10296000D1F6A52FB0E0AA0FBB1FAA0FBB1FAC501A
:10297000B64F11967C936E931396FC93EE93129739
:1029800015961C921E92149784EF99E0909319016A
:1029900080931801DF91CF911F910F91FF90EF90DD
:1029A000DF90CF90BF90AF900895282F30E0F901CD
:1029B000E154FE4F1082882329F48091C10A90913E
:1029C000C20A04C08091C80A9091C90AF901EE0FA9
:1029D000FF1FE754FE4F9183808323543E4FF9013C
:1029E00010820895E82FF0E0E657F54FE491F0E00B
:1029F000EE0FFF1FE15EFE4F8081918108956330ED
:102A000031F1643028F4613051F0623090F408956F
:102A1000653039F1653008F1663051F525C049302F
:102A200029F497FD29C0805092400AC097FF2FC01B
:102A300029C0493041F4181619060CF180509E4FF8
:102A4000880F991F089518161906E4F020C097FF03
:102A50001EC0909581959F4F0895181619067CF019
:102A600011C097FF0FC008C01816190644F00DC01A
:102A700067500E94DF0C089580E09CEF089580E08D
:102A800094E0089580E090E0089580E09CEF089540
:102A90008823E1F087FF06C0863E1CF0E0E6E81BD5
:102AA00016C081958B311CF4E82FE05C10C0853294
:102AB0001CF4E82FEB5E0BC0893244F4E82FFF27AB
:102AC000E7FDF095E359F54FE49101C0E0E28E2F68
:102AD0000895AF92BF92CF92DF92EF92FF920F9341
:102AE0001F93CF93DF93C82F162F7A01D22F802FF9
:102AF00090E030E3C32ED12CC822D92264E0A62E68
:102B0000B12CA822B92225C080E1C816D10429F031
:102B1000E0E2CE16D10451F403C0F701408108C0B1
:102B2000F70180810E944815482F02C0F7014491A7
:102B3000442389F08C2F612F202F0E942013A11491
:102B4000B10411F4CA5F01C0C55F0894E11CF11C17
:102B5000D150DD23C9F6C0937D09DF91CF911F913C
:102B60000F91FF90EF90DF90CF90BF90AF900895BE
:102B70000F931F93CF93DF93D82FC62F142F022FBD
:102B8000442329F0463131F04A3E51F406C044E175
:102B900054E123C041E154E120C04EE054E11DC0A6
:102BA00047FF05C0825048E02EE50E949312E12FB6
:102BB000FF27E7FDF095F7FF03C0F095E195FF4F84
:102BC000FF27E7FDF0953197AF01440F551F4E0FDA
:102BD0005F1F4559594E8D2F6C2F23E00E946915B8
:102BE000DF91CF911F910F9108950F931F93CF9372
:102BF000DF93182FD62FC42F022F47FF09C084E080
:102C0000841BC82F812F865041E20E94201311C0DF
:102C100045307CF4E42FFF27E7FDF095AF01440F2A
:102C2000551F4E0F5F1F4652594E23E00E946915F3
:102C300019C04C2FCA313CF44450812F6D2F202FE6
:102C40000E94B8150FC04951812F6D2F202F0E946F
:102C5000B81507FD07C0812F8E5E6D2F4DE6202F22
:102C60000E942013DF91CF911F910F9108950F9330
:102C7000022F2FEF0E9469150F910895CF93C82F4F
:102C800080E060E040E151E022E00E94371680E6FB
:102C900060E04C2F22E00E942013CF91089520E0A5
:102CA0000E94371608950F93853251F0863218F43A
:102CB0008432B9F408C0823871F0833891F406C0C8
:102CC0008CEE96E10CC088E49FE209C00E946F0F71
:102CD0008BE790E504C00E946F0F82E594E40E94A8
:102CE000EA0E80E067E442E00E943D0F83E067E483
:102CF00043E00E943D0F81E067E444E00E943D0F05
:102D000084E067E445E00E943D0F85E067E447E02A
:102D10000E943D0F84E30E943E1682E168E04EEC83
:102D200050E00E944F168091940D882309F18EE4A3
:102D300068E04091910D20E00E94201382E768E056
:102D40004091930D20E00E94201386E060E144E969
:102D50005DE022E004E10E9469158EE160E140E45B
:102D600020E00E94201384E260E146E95DE004C0B7
:102D70008CE060E148E051E024E10E94371682E1F6
:102D800060E24FED50E00E944F168091940D882331
:102D9000D1F08EE460E24091920D20E00E94201379
:102DA00080E068E242EA5DE023E004E10E94691508
:102DB00084E268E240E420E00E9420138AE268E2B4
:102DC00045EA5DE004C08CE068E248E051E024E1BF
:102DD0000E9437160F910895853251F0863218F40B
:102DE0008432B9F408C0823871F0833891F406C097
:102DF0008EE19CE20CC083E596E109C00E946F0F52
:102E00008BE790E504C00E946F0F82E594E40E9476
:102E1000EA0E80E062E547E00E943D0F81E062E556
:102E200048E00E943D0F85E067E447E00E943D0FC7
:102E300083E30E943E1680E068E049EE50E00E9485
:102E40004F168091940D882339F41AC09E3211F4E4
:102E500013820AC08F5F01C080E0E82FF0E0EC56DB
:102E6000F24F9081992391F78091940D882319F066
:102E700044E95DE002C048E051E08CE060E104C05C
:102E80008CE060E148E051E024E10E94371682E7DF
:102E900068E04091930D20E00E94201386E060E2FC
:102EA0004DEF50E00E944F168091A20D882319F03B
:102EB00042EA5DE002C048E051E08CE068E224E1D3
:102EC0000E94371608950F93E42FF0E0AF01440FEE
:102ED000551F4E0F5F1F425F5B4E222311F002E031
:102EE00001C000E023E00E9469150F910895E09170
:102EF000D702F0E0E956F54FE491F0E024E030E04D
:102F0000281B3109220F331F02C0F595E7952A953A
:102F1000E2F78E2F83708F5F08953F924F925F92FA
:102F20006F927F928F929F92AF92BF92CF92DF92D9
:102F3000EF92FF920F931F93CF93DF93CDB7DEB73E
:102F400028970FB6F894DEBF0FBECDBF9E838D834A
:102F5000862FA5EFB4E02D813E8198E0F901019024
:102F60000D929150E1F78F3F11F40E949D111A824A
:102F700019820FEF282F30E02F5F3F4F3C832B83C8
:102F800089819A81880F991F880F991F865C934FBA
:102F900098878F83DC018C91982F937009F42EC150
:102FA00086958695837090E0202F332727FD3095F6
:102FB0008217930709F419C111968C911197982FD4
:102FC000907E79F012969C91129790FD0AC082959E
:102FD0008695877090E0EB81FC81E817F90709F08E
:102FE00004C1AF81B88511968C91880F880F880F26
:102FF00085958595859561E00E949111882309F456
:10300000F4C0EF81F8858081182F169516951370FE
:10301000E12FF0E0EE0FFF1FEB50FB4F20813181DD
:10302000837037FF03C080FD03C0DFC081FFDDC0B8
:10303000012FAF81B88513964C911397552747FD03
:1030400050954115510509F49DC0332E331C33248E
:10305000331C19F0309521953F4F57FF4EC080E04B
:1030600094E0821B930B4C01AA24BB248827992748
:10307000841B950B2C016624772424E630E040E085
:1030800050E02419350946095709C501B4010E94C9
:1030900045696B017C0182E390E0A0E0B0E0C80EDE
:1030A000D91EEA1EFB1EC501B401A50194010E94B0
:1030B00045690E944569BC0188279927A3019201AF
:1030C0000E944569DC01CB01E4E0B695A795979590
:1030D0008795EA95D1F7C80ED91EEA1EFB1EC701D7
:1030E000B60124E630E040E050E00E949769A0E09D
:1030F000B4E0A21BB30B9D0140C06901EE24FF2484
:103100002A016624772424E630E040E050E02419C8
:10311000350946095709C701B6010E9445694B01A7
:103120005C0182E390E0A0E0B0E0880E991EAA1E48
:10313000BB1EC701B601A70196010E9445690E9406
:103140004569BC0188279927A30192010E9445691E
:10315000DC01CB01F4E0B695A79597958795FA9594
:10316000D1F7880E991EAA1EBB1EC501B40124E624
:1031700030E040E050E00E949769332019F030952C
:1031800021953F4FAF81B8856C91862F807F69F084
:1031900062956F70862F90E08B3091050CF06C5F1C
:1031A000C90140E00E94FF149C01B901882777FD06
:1031B0008095982FEF81F8852281269530E040E0B8
:1031C00050E00E94456924E630E040E050E00E9473
:1031D000B969E12FFF27E7FDF095EE0FFF1F8D8105
:1031E0009E81E80FF91F20833183A981BA8111964E
:1031F000BA83A983AE30B10509F0C2CE28960FB6C6
:10320000F894DEBF0FBECDBFDF91CF911F910F911C
:10321000FF90EF90DF90CF90BF90AF909F908F90F6
:103220007F906F905F904F903F9008952F923F92C4
:103230004F925F926F927F928F929F92AF92BF92C6
:10324000CF92DF92EF92FF920F931F93CF93DF9372
:10325000282E8FE8482E82E0582E88249924332483
:1032600091E0A92EB12C882D843070F4E091D20227
:10327000F0E0EE0FFF1FEE0FFF1FE80DF91DE15507
:10328000F54FC491C15001C0C82D0E94F2149C0199
:10329000F201819191912F01281B390BC901AA27B5
:1032A00097FDA095BA2F1AE0880F991FAA1FBB1F80
:1032B0001A95D1F7121613061CF4228D338D02C015
:1032C000248535852436310514F424E630E044277E
:1032D00037FD4095542FBC01CD010E94B969790199
:1032E000FCEF21303F0734F020E0E21624E0F20644
:1032F0002CF407C0E12CDCEFFD2E03C0E12CB4E080
:10330000FB2E8091D40280FF06C0C23021F4F094DD
:10331000E194F108F3946C2E7724F301EE0FFF1F74
:10332000EE5BFD4FF182E082C7010F968F31910570
:1033300040F4C5010C2E02C0880F991F0A94E2F7D1
:10334000382AC43008F05DC080917309882309F0E1
:1033500058C0CF5E8C2F90E04097F50102C0EE0F71
:10336000FF1F8A95E2F7CF01816020919D01309186
:103370009E0182239323009709F443C0E301CC0FFD
:10338000DD1FC853DD4FD8808D2D807CD1F18D2D70
:103390008F7390E0DC01AA0FBB1FA355B64FFC0151
:1033A000EE0FFF1FE054FD4F6D917C9111978081CE
:1033B0009181681B790B882777FD8095982F29814B
:1033C000332727FD3095432F532F0E94456922E371
:1033D00030E040E050E00E94B96989019A01D2943E
:1033E000D694D69473E0D7228D2D90E0813091054C
:1033F00021F08230910529F403C0E00EF11E01C0D6
:103400007801F301EE0FFF1FE55DF64FF182E082D8
:103410000894811C911CF7E08F16910409F023CFCA
:103420008BE299E0622D0E948D171BE2C12E19E0FC
:10343000D12E03E2602E09E0702EC0E0412C24E082
:10344000522E812C38E0932EA12CB12CF601019143
:1034500011916F018C2F622D0E943E286C2F0E94CB
:1034600008287C01C23079F58091C30A83FF2BC004
:103470008091D40280FF04C0F094E194F108F394A9
:10348000C701AA2797FDA095BA2F83589F4FAF4F2A
:10349000BF4F9201201B310B442737FD4095542F1D
:1034A000BC01CD010E944569A50194010E94B96942
:1034B00089019A010030F8E01F07F0E02F07F0E0E3
:1034C0003F0731F404C08091B1018823F9F48701EA
:1034D000000F111FF301019311933F01CF5FC4301F
:1034E00009F0B4CF832DDF91CF911F910F91FF9001
:1034F000EF90DF90CF90BF90AF909F908F907F9094
:103500006F905F904F903F902F900895EE24FF248E
:10351000DECF2F923F924F925F926F927F928F9267
:103520009F92AF92BF92CF92DF92EF92FF920F9352
:103530001F93CF93DF93CDB7DEB72C970FB6F894D8
:10354000DEBF0FBECDBF89879A87062F862F0E94C8
:103550001619C090C60AC8228091D40380958C2188
:1035600019F081E00E94E60EC092D40380E094E05E
:1035700090933A098093390990933C0980933B09D1
:10358000809173098823F1F18091D20290E08170DB
:10359000907022E030E0281B390BEBE2F9E080E08C
:1035A00090E02817390711F01182108201963296A7
:1035B00084309105B1F7109244091092430910929A
:1035C0004609109245091092480910924709109235
:1035D0004A091092490910924C0910924B09109215
:1035E0004E0910924D091092500910924F091092F5
:1035F000520910925109E5EDF3E0A3E5B9E084E149
:103600009F0142C0EDEAF9E0A0ECB2E063E479E0AA
:1036100040E06F01F601819191916F012D913D91F3
:10362000821B930B880F991FFB0181939193BF011C
:103630004F5F443079F78091B5099091B609880FB2
:10364000991F90934C0980934B098091B7099091F1
:10365000B809880F991F90934E0980934D09809166
:10366000B9099091BA09880F991F909350098093D6
:103670004F098091BB099091BC09880F991F9093C5
:10368000520980935109B7CF419151916191719144
:103690004D935D938F5F8432B9F780E4D9011D9219
:1036A0008A95E9F71092B9031092B8031092BB0300
:1036B0001092BA031092BD031092BC031092BF0384
:1036C0001092BE0310928109E5E1F4E0FC83EB83E4
:1036D00045E3242E44E0342E25EB34E03E832D8355
:1036E0001A821982C02EDD2496012F5F3F4F388742
:1036F0002F83098169807A8093E0660C771C9A9504
:10370000E1F7C980DA806C0C7D1C2AECE22E2AE0FD
:10371000F22E6E0C7F1CD3018C918F7121F090E002
:10372000813191059CF085ED482E83E0582EE8E923
:10373000F3E0FE83ED83C984CB82DA84DC822FE957
:1037400031E038872F831A821982B8C2D3011796C5
:103750002C911797822F807FD1F02595259525955F
:103760002595822F992787FD909512163CF4CF80DE
:10377000D884C816D90609F087C209C090958195EA
:103780009F4FEF80F884E816F90609F47DC2D30153
:1037900013968C9161E00E9491118823D9F4EB81FA
:1037A000FC8140811082D30111969C911197892F41
:1037B0008850823008F068C217968C9117978C70E9
:1037C000883009F461C2993009F053C0C12C0CEF64
:1037D000D02E51C041E0EB81FC818081811140E01D
:1037E00081E0AB81BC818C93F3012181322F315078
:1037F000832F90E0FC01EE0FFF1FE55DF64FC080C8
:10380000D180343158F0301748F4FC01EE0FFF1F1F
:10381000EE0FFF1FEB52FC4FC080D180D3018C9183
:10382000982F907E91F082958695877090E0019711
:10383000E1E0F0E002C0EE0FFF1F8A95E2F7CF0152
:1038400090918109982B90938109D30117968C91BF
:1038500017978370823079F4253068F4E22FF0E016
:10386000EE0FFF1FEA54FC4FC3010896918380833B
:1038700002C0CC24DD24F30180858823B1F0F9E275
:103880008F0290011124359527953595279587FD51
:10389000815C86FB880F880B80F9992787FD9095BE
:1038A0007901E81AF90ACE0CDF1CD30116968C9127
:1038B0001697882331F415968C911597882309F46F
:1038C00068C1F1016081718182819381442399F4FF
:1038D00020E031E040E050E00E94B96989019A019E
:1038E00030952095109501951F4F2F4F3F4F260182
:1038F000400E511E65C0D30117968C9117978C709E
:10390000883071F5EC91EF71F0E0EE0FFF1FEF5A88
:10391000F64F80819181AA2797FDA095BA2F66273F
:10392000782F892F9A2F24E630E040E050E00E9463
:103930004569F1016083718382839383D301129679
:103940002C911297222361F0332727FD3095432FC6
:10395000532F0E94B969F10120833183428353833D
:10396000D1016D917D918D919C91139720E031E073
:1039700040E050E00E94B96989019A013095209594
:10398000109501951F4F2F4F3F4F2601400E511E9E
:1039900041145104A9F0F301858157FE82958F707F
:1039A00090E024E6E22EF12C8E9D90018F9D300D4B
:1039B0009E9D300D1124AD81BE8111963C932E93B6
:1039C000ED81FE81808191810097A1F020916402B8
:1039D000222319F0019791838083AD81BE818D915F
:1039E0009C911197009731F0F10160817181828182
:1039F0009381BEC04114510409F4CBC0D301169683
:103A00008C9116974601AA2497FCA094BA2C88237F
:103A100009F4B6C080916402882309F475C0129637
:103A20008C9112978823B9F0992787FD909597FF7D
:103A300003C0909581959F4F282F332727FD309500
:103A4000432F532F60E070E080E293E00E94B96959
:103A500069017A0106C0C12CD12C90E2E92E93E0D5
:103A6000F92EF30186811414150414F58F7090E07B
:103A7000009709F440C044E650E0849F9001859F80
:103A8000300D949F300D1124442737FD4095542F5D
:103A9000C701B6010E94B96989019A01F1018081CB
:103AA0009181A281B381080F191F2A1F3B1F27C0D4
:103AB00082958F7090E00097F1F044E650E0849F8B
:103AC0009001859F300D949F300D1124442737FDC0
:103AD0004095542FC701B6010E94B96969017A0166
:103AE000D1010D911D912D913C9113970C191D0938
:103AF0002E093F0904C03A2D292D182D0027F10168
:103B000000831183228333831414150494F4D101A8
:103B10006D917D918D919C91139720E031E040E073
:103B200050E00E94B96982169306A406B5068CF08F
:103B300019C0F101608171818281938120E031E0BF
:103B400040E050E00E94B969281539054A055B0537
:103B50004CF4BA2DA92D982D8827F10180839183EB
:103B6000A283B383D1016D917D918D919C91139727
:103B700020E031E040E050E00E94B969690109C0ED
:103B8000BA2DA92D982D8827F10180839183A283D6
:103B9000B383D30114966C911497662331F0C60158
:103BA00011964C910E94FF146C01F3018781837080
:103BB00071F4E181EE2359F0E53048F4F0E0EE0FC6
:103BC000FF1FEF5DF64F80819181C80ED91EB601AF
:103BD000882777FD8095982FD30112962C91129704
:103BE000332727FD3095432F532F0E944569AB01A2
:103BF000BC01F30100810F7110E00150104087817A
:103C000086958695837090E0000F111F000F111F9D
:103C10008130910559F0F801EB52FC4F823091054B
:103C200039F540835183628373832EC0CB01BA017F
:103C300024E630E040E050E00E94B9690B521C4F8E
:103C4000D801CD90DD90ED90FC901397B901CA0199
:103C5000A70196010E94456920E034E040E050E071
:103C60000E94B969F80120833183428353830CC0D9
:103C700080819181A281B381840F951FA61FB71FF8
:103C800080839183A283B38329813A812F5F3F4F41
:103C90003A8329834B815C814F5F5F4F5C834B8309
:103CA00064E070E0260E371E8D819E8102969E8311
:103CB0008D832032310509F01CCD35CDD2018D9098
:103CC0009D90AD90BC90C501B40124E630E040E089
:103CD00050E00E94B969F20120833183428353830B
:103CE000AD81BE812D933D93BE83AD8329803A8003
:103CF000E6EBFAE02E0E3F1EF101E95CFE4F20815B
:103D00003181F101EB5CFE4F8081992787FD909511
:103D10003C01660C771C03E0880F991F0A95E1F7B8
:103D2000680E791E48EEC42E43E0D42E6C0C7D1C28
:103D3000F101EC5CFE4F8081992787FD90957C0115
:103D4000EE0CFF1C63E0880F991F6A95E1F7E80EFF
:103D5000F91EA701485E53405C874B87962D872D3F
:103D60002615370514F4922F832F092F182FCB8493
:103D7000DC840C151D050CF4860181149104A1044A
:103D8000B10479F1C801AA2797FDA095BA2F18149C
:103D900019041A041B0454F49301442737FD409579
:103DA000542F281B390B4A0B5B0B0FC0EB84FC8490
:103DB000A701662757FD6095762F6C017D01C41A17
:103DC000D50AE60AF70AA7019601C501B4010E94C7
:103DD000456920EA36E841E050E00E94B9694901AE
:103DE0005A019801F5E035952795FA95E1F7200FEE
:103DF000311FC801880F892F881F990B281B390B89
:103E0000C801892F990F990B8595280F391F6901D2
:103E1000EE24D7FCE094FE2C930145E035952795E0
:103E20004A95E1F7260D371DC301880F892F881F9A
:103E3000990B4B855C8565E0559547956A95E1F74B
:103E40006B857C85460F571F660F672F661F770BA4
:103E5000281B390BC301892F990F990B8595280FC2
:103E6000391FC901AA2797FDA095BA2FC80CD91CE4
:103E7000EA1CFB1C8C159D05AE05BF0514F46C01F6
:103E80007D01461B570BCB01959587959595879599
:103E9000480F591F662757FD6095762FD701C60139
:103EA000C416D506E606F70614F4DB01CA01F101D3
:103EB000EA5CFE4F2081222339F0B095A0959095C1
:103EC00081959F4FAF4FBF4FEF81F8854191F887A4
:103ED000EF834038D1F0F9E24F029001112435957B
:103EE000279535952795842F47FD815C86FB880FA4
:103EF000880B80F9992787FD90956901C81AD90A1E
:103F0000C601AA2797FDA095BA2FEB81FC8181936A
:103F10009193FC83EB8324E0C22ED12C4C0C5D1CCE
:103F200029813A812B5F3F4F3A8329832035310520
:103F300009F0C4CE2C960FB6F894DEBF0FBECDBFED
:103F4000DF91CF911F910F91FF90EF90DF90CF9075
:103F5000BF90AF909F908F907F906F905F904F90A9
:103F60003F902F900895CF92DF92EF92FF920F93A0
:103F70001F93CF93DF93CDB7DEB7A0970FB6F8941A
:103F8000DEBF0FBECDBF81E0809373090E949D11FB
:103F9000682FCE0101960E94891A10927309DE01E2
:103FA0001196EDEEFBE020E18D919D913CEF883183
:103FB00093072CF033E0883E930724F405C088E192
:103FC0009CEF02C088EE93E0918380832150359668
:103FD000222351F700E010E082E0C82ED12CF02E11
:103FE0008091D20290E0817090709601281B390B6D
:103FF0002017310799F0EE248E2D6F2D0E9408288E
:1040000031E0853F930734F48E2D6F2D40E050E072
:104010000E94C027E39485E0E81671F70F5F1F4FF9
:1040200004301105E1F682E00E940D1481E00E9447
:10403000E60EA0960FB6F894DEBF0FBECDBFDF919F
:10404000CF911F910F91FF90EF90DF90CF90089547
:104050004F925F926F927F928F929F92AF92BF9298
:10406000CF92DF92EF92FF920F931F93CF93DF9344
:10407000D82E80E060E04CE55FE022E00E94371639
:104080008D2D65E04BEF56E129E004E61FE0E0E10D
:10409000EE2EF1E1CF2E0E942231882309F439C19E
:1040A000B0907C09BA9478E0E72ECC24AA24A3949B
:1040B0004B2C552447FC5094409177094C0D4031CE
:1040C00019F530E1B31611F4C2E001C0C0E08091EF
:1040D000B801882311F020E001C02C2F82E16E2D61
:1040E00045E75FE00E943716CC2309F412C180E84F
:1040F000D81609F00EC189E18093B80180E80E94CA
:10410000720F0E94B31F05C1842E9924E401CC0FC5
:10411000DD1FCC0FDD1FC80DD91DC651D44F2A811C
:104120008B819C81222329F066277727681B790BD6
:1041300001C0BC01F401EE0FFF1FE259FD4F808169
:104140009181861B970B84010C531C4F833391057F
:104150002CF4FFEF8E3C9F071CF42A25F8012083E6
:104160004F5F80E06E2D20E00E94F12EF8018081EB
:10417000882311F04FE701C04EE78BE46E2D20E05D
:104180000E942013FF243401660C771C8EE692E017
:10419000680E791E4814590449F48091C3038F15A1
:1041A00029F48091C203181624F0AAC000E010E0A0
:1041B00002C001E011E092E0F91609F458C0E3E012
:1041C000FE1609F475C0F1E0FF1679F14B815C81B0
:1041D000202F206580E36E2D0E945530112369F059
:1041E0006B817C818D2D48E15CEF28EE33E002E0AD
:1041F0000E94A12A9C838B8376C0002309F473C09C
:1042000030E8D31609F06FC0F301808191812A81D3
:10421000222319F0909581959F4F9C838B83109258
:10422000C20382E00E940D145EC0488144565527A7
:1042300047FD509588E46E2D202F0E9455301123A4
:1042400009F451C06881645668838091C40A85FF6F
:1042500004C08D2D43E82DE703C08D2D4CE924E6E5
:104260000E940F2C888388818C5988833CC04981A7
:104270004C59552747FD509586E66E2D202F0E94FC
:104280005530112381F169816C5969838091C40A89
:1042900085FF04C08D2D43E82DE703C08D2D4CE92B
:1042A00024E60E940F2C89838981845689831BC050
:1042B0008A8190E0AC01440F551F480F591F4C5E96
:1042C0005B4E8CE66E2D23E00E946915112359F098
:1042D0008D2D6A8140E021E00E940F2C91E088231F
:1042E00009F490E09A83F394F4E0FF1609F052CFBA
:1042F000C39438E0E30E87E0C81609F0DDCE09C0AC
:104300008091C0039091C10302E0009709F052CF61
:104310004ECFDF91CF911F910F91FF90EF90DF90E3
:10432000CF90BF90AF909F908F907F906F905F9055
:104330004F900895AF92BF92CF92DF92EF92FF928B
:104340000F931F93CF935C018EE560E040E42EEE67
:104350000E9493128EE360E240E42EEE00E00E94A1
:10436000DE23CFE300E21CEF82E0C82ED12C2FE346
:10437000E22EF12CC801F501099580509C4FB60141
:104380000E948469CB01A6E0880F991FAA95E1F7E6
:10439000861B970B892F992786958695B701681BF1
:1043A000790B8C2F42E00E94F612005E1F4FCF5F08
:1043B000CE3701F7CF911F910F91FF90EF90DF90D3
:1043C000CF90BF90AF9008958F929F92AF92BF927F
:1043D000CF92DF92EF92FF920F931F93CF93DF93D1
:1043E000D82E80E060E048E85FE022E00E943716C7
:1043F0004091740950E04F5F5F4F8FE160E022E829
:104400000E94553089E70E941D2E20917409822F49
:1044100090E0283080F008975C0113E0AA0CBB1CE8
:104420001A95E1F7A80EB91E8AE99CE0A80EB91EFC
:1044300009E0C02E0DC05C01AA0CBB1CAA0CBB1C61
:10444000A80EB91EA2E7BCE0AA0EBB1ED5E0CD2E79
:10445000B1E6DB1609F47CC0BD1558F0E5E4DE16C4
:1044600009F48CC0F0E6DF1691F024E4D216F9F4DA
:1044700093C045E6D41609F481C08FEBD81621F01D
:1044800094E6D916A1F488C01092FD0468C080910A
:10449000C203181664F08091C303813061F081304B
:1044A00018F0823021F448C081E08093C203750186
:1044B00010EED0E0B3C08091FD048F5F8093FD04C7
:1044C00085301CF08CEF8093FD048C2D869590E058
:1044D0004091FD04242F332727FD309552E34502F8
:1044E000400111241A2DCA2DDB2DE0E0F0E090955B
:1044F00081959F4F829FA001839F500D929F500DE9
:10450000112482E390E0489F7001499FF00C589F6E
:10451000F00C11242C2D30E021503040CF018E0DB5
:104520009F1DB9010E9484696993E80DF91D8C2FC4
:10453000811B8C1598F3BBCF8CE9F5018083EC0DC2
:10454000F11D319784E6808381E08093FE04AFCF34
:1045500081E60E94720F8091FE04882319F0109268
:10456000FE04A5CF8091C20318162CF41092C30349
:104570001092C2039CCF0E943A2999CF8091FE04E9
:10458000882309F094CF8091C303882309F48FCF47
:1045900081508093C3038BCF8091FE04882309F060
:1045A00086CF4091C303642F70E08091C203181638
:1045B00024F48C2D90E001972CC0E091B001F0E044
:1045C000EE0FFF1FE552FD4F80819181F2E48338A9
:1045D0009F07D1F42091D20230E02170307082E048
:1045E00090E0821B930BE0917A09F0E0EE0FFF1F41
:1045F000EE0FFF1FE65CF34F208126952695237072
:1046000030E08217930719F081E090E002C082E069
:1046100090E0681779070CF4CDC049CF612FD530F1
:1046200018F4685D88E101C080E3C091C2031C16E4
:1046300024F49091C3039D1711F020E001C022E003
:10464000D7014D917D01552747FD50950E9455306A
:10465000DF5F185FDC1510F380E068E34FE85FE090
:104660000E944F161C161CF025E030E002C020E02E
:1046700030E08091C30390E0289FA001299F500D56
:10468000389F500D11244F515B4E1C1624F0809121
:10469000FE04882311F000E001C002E08CE168E331
:1046A00025E00E9469151C164CF4DC2DD69510E00F
:1046B000C0E068E3862E6FEF962E05C08091FE0461
:1046C000882399F766C0EC2FF0E0CF0135E0880F22
:1046D000991F3A95E1F76D2F712F0E948469462F3B
:1046E0007501EE0EFF1ED7012C91332727FD309563
:1046F000C90156E0880F991F5A95E1F7821B930B69
:104700008456974EB4010E9484692091FE042223AE
:1047100061F030E0CF01019628173907B1F5635CED
:10472000842F845C45E025E02DC08091C3038C1765
:1047300021F5635C842F845C45E025E000E00E9465
:10474000E92D8091C0039091C103009761F4B2E616
:10475000DB1649F0E3E6DE1631F0F2E4DF1619F07D
:1047600023E4D21691F48D2DD7016C914CE924E607
:104770000E940F2CF701808308C0625C842F835C49
:1047800043E023E000E00E94E92DCF5FCC1508F460
:104790009ACF89E49DE00E949A21DF91CF911F91E9
:1047A0000F91FF90EF90DF90CF90BF90AF909F90D0
:1047B0008F9008954F5F4093C30379CE0F931F935B
:1047C000603408F048C087FF02C0480F80E0A82F7F
:1047D000BB27A7FDB095FD01E40FF11DE138F10500
:1047E00014F040E8481BE62FE695E695E695F0E0E4
:1047F000F695FE2FEE27F795E795EA0FFB1FE150A0
:10480000FB4F677081E090E0582F01C0550F6A950B
:10481000EAF710E0C8018270907004701070752F74
:10482000709517C030E020FF10C06081009711F034
:10483000652B06C00115110511F0672301C065271E
:10484000608335952795206802C03595279541509E
:104850003196442339F71F910F9108950F93022F3A
:104860002FEF0E94DE230F9108952F923F924F92D7
:104870005F926F927F928F929F92AF92BF92CF92F0
:10488000DF92EF92FF920F931F93CF93DF9300D0AD
:104890000F92CDB7DEB7382FC62E4A012B83822F59
:1048A000992787FD909580779070A4E095958795DE
:1048B000AA95E1F7E82F282F24508B8183FF03C0AE
:1048C00088508B8309C057FF07C09094819491084A
:1048D00093947724739401C077242D3FE9F0C401A9
:1048E0006AE070E00E947069CB0101E0FAE0EF2E0F
:1048F000F12C05C00F5FB7010E947069CB010097D2
:10490000C9F7402F50E0822F992787FD9095841793
:10491000950714F00E2F0350EB81E2FD06C0E7FF70
:1049200007C012162CF43E5F03C06AE0E62E02C0F8
:1049300055E0E52EFB81F7FF06C0E09E802D112497
:10494000380F71103B5F30937D098E2D8095830F5A
:104950008A83DD24D39492E0F92E10E03AE0432ECE
:10496000512C222E332427FC309446E0642E6C0C0C
:1049700063C0C401B2010E947069A82E382F305D57
:10498000313351F4EB81E2FF07C0D01629F4FA81EC
:10499000FE5FFA83E860EB838A816C2D432F2B81C5
:1049A00039830E9420138D2D90E039812816390615
:1049B000D1F52B812F792B83B22E22FF19C08A2D9E
:1049C0008150833008F4F394C401B2010E947069ED
:1049D000CB01B2010E9470691A81823011F08430DB
:1049E00011F5343311F41F5F1EC01150F3941BC036
:1049F0008EEFA82E8A81A80E982F9150892F662DB0
:104A000040E099830E94F6129981B1FC06C0B0FE85
:104A100009C08091AC0986FF05C0892F6C2D48E044
:104A20000E94F212AA82C401B2010E9470694B0175
:104A3000EA81EE19EA83D3940D1508F09ACF112379
:104A400071F06C2D635F812F4F2D20E00E942E248A
:104A50006C2D625F812F4F2D20E00E942E24772045
:104A600061F08A816C2D4DE22B810E9420136C2D08
:104A70006D5F8A8140E00E94F6120F900F900F90B8
:104A8000DF91CF911F910F91FF90EF90DF90CF902A
:104A9000BF90AF909F908F907F906F905F904F905E
:104AA0003F902F900895AF92BF92CF92DF92EF92F6
:104AB000FF920F931F93CF93DF930F92CDB7DEB783
:104AC0008C015B01FC01808190E0FC01EE0FFF1F77
:104AD000E80FF91FEE59FE4F20818181382F3F707A
:104AE000F80181819281B901681B790B6A01641711
:104AF000750708F46B01760126C0F801638166230F
:104B000029F184818F5F848370E0B4E0660F771FA2
:104B1000BA95E1F7680F711DCE01019641E050E0B2
:104B20000E94F3698981F50181935F01F801848115
:104B30008F3030F0148283810E94DC13F80183836C
:104B40000894E108F108E114F104B9F6F801818153
:104B500092818C0D9D1D8E199F09928381838C2DCE
:104B60008E190F90DF91CF911F910F91FF90EF90D1
:104B7000DF90CF90BF90AF900895AF92BF92CF9249
:104B8000DF92FF920F931F93CF93DF936C015B0132
:104B900000E010E08091570290E0A501401B510B0E
:104BA0008417950708F4AC01F42EC42FD0E0C60199
:104BB000800F911F60E070E050E00E94EC690C0FE4
:104BC0001D1F809157028F1980935702882309F087
:104BD0003FC08091560290E0B601600F711FA501A1
:104BE000401B510B8417950708F4AC0181E592E056
:104BF00050E00E945325080F111D90915602981BFA
:104C000090935602992321F581E592E066E572E0E2
:104C100041E050E00E9453258130D1F420915602AA
:104C2000822F90E027FF0CC034E0959587953A9548
:104C3000E1F78770809357022F7020935602AACF16
:104C400026FFA8CF2F732093570210925602A2CFAF
:104C5000C801DF91CF911F910F91FF90DF90CF900E
:104C6000BF90AF900895809351021092530210921A
:104C7000520290E0FC01EE0FFF1FE80FF91FE35A0C
:104C8000FE4F848180935402109255021092EF09D6
:104C900010925702109256020895CF93DF9300D0DE
:104CA000CDB7DEB7E62FF72F2AE0DF011D922A9558
:104CB000E9F78031F0F48F5F69837A830E943326AD
:104CC0006981862F9A816AE070E00E94BD258A3052
:104CD000910579F48091510290E0FC01EE0FFF1FE5
:104CE000E80FF91FEE59FE4F80812181922F9F70AE
:104CF00002C080E090E00F900F90DF91CF91089577
:104D0000462F50E0882311F1CA01880F991F880FA0
:104D1000991F6F5F70E0660F771F660F771F665CE5
:104D2000734F40955095425F5F4F440F551F440F9E
:104D3000551F865C934F0E94DA6910926E0C109298
:104D40006F0C1092700C1092710C2DC09A0173E0D0
:104D5000220F331F7A95E1F7240F351F6F5F862FDF
:104D600090E0BC01E3E0660F771FEA95E1F7680F7A
:104D7000791F6653754FCA01809590958096AC0156
:104D8000F3E0440F551FFA95E1F7480F591FC90189
:104D90008653954F0E94DA6989E0E1EEFBE0DF017E
:104DA0001D928A95E9F782E00E940D140895CF9331
:104DB000DF93462F50E0EA01882319F1CC0FDD1F65
:104DC000CC0FDD1FC65CD34F40955095425F5F4FBF
:104DD000440F551F440F551FCE010496BE010E947B
:104DE000DA69188219821A821B82809178098150AF
:104DF0008370880F880F836088838A818170886CB4
:104E000029C033E0CC0FDD1F3A95E1F7C40FD51F61
:104E1000C653D54FCA01809590958096AC0163E04A
:104E2000440F551F6A95E1F7480F591FCE010996A7
:104E3000BE010E94DA6989E0FE0111928A95E9F7C4
:104E400090917809292F2F718881807E822B888309
:104E5000998384E68A8382E00E940D14DF91CF91CA
:104E60000895CF92DF92FF920F931F93CF93DF931A
:104E70000F92CDB7DEB786ED92E0E6EBFAE0DF0108
:104E80009C011D9221503040E1F791E000E010E0DC
:104E9000A4E6FA2E6801F3E0CC0CDD1CFA95E1F7EC
:104EA000C00ED11EAAECBAE0CA0EDB1E292F2F714C
:104EB000F6018081807E822B8083F282802F8F5F3B
:104EC00099830E947717D60111968C9311970F5FE3
:104ED0001F4F99819F5F9F719530E1F682E00E949C
:104EE0000D140F90DF91CF911F910F91FF90DF90E4
:104EF000CF900895582F882311F04DE001C04FE165
:104F000080E0242F30E0F901552349F0EE0FFF1F18
:104F1000EE0FFF1FE65CF34F908193700BC0B3E080
:104F2000EE0FFF1FBA95E1F7E20FF31FE653F54FBF
:104F300090819F7191118F5F415047FFE2CF08959B
:104F4000CF93C82F0E947A27482F50E0CC2319F026
:104F50002EE030E002C020E230E0421753076CF050
:104F6000CC2319F084E99FE002C086EA9FE0909389
:104F7000800980937F0981E001C080E0CF9108958E
:104F8000A62FB0E0BD01660F771FFB01E854FC4F70
:104F90000190F081E02D309779F08FEF433858077A
:104FA00024F04D37510524F405C043E85FEF02C0FB
:104FB0004DE750E0408328C090E02DE030E0829F34
:104FC000F001839FF00D929FF00D1124E75CF24FEA
:104FD000AE0FBF1FCA0195958795959587958C93C0
:104FE00083E090E0062E02C0880F991F0A94E2F732
:104FF0008095948189234370507002C0440F551FDF
:105000006A95E2F7840F848382E00E940D1408956C
:1050100070E0AB01440F551FFA01E854FC4F0190BA
:10502000F081E02D309729F08081992787FD9095B8
:10503000089590E02DE030E0829FF001839FF00D15
:10504000929FF00D1124E75CF24F6E0F7F1FDB0182
:105050008C91992787FD9095880F991F880F991F2C
:105060002481332727FD309502C0359527954A9531
:10507000E2F723703070820F931F08951F93CF9330
:10508000DF93182FC62FD5E001C0C82FCC2389F09D
:105090008C2F612F0E9408289C0181E0253F380752
:1050A00044F0822F855F8C1708F08F5FD15069F72D
:1050B000C0E08C2FDF91CF911F910895FC0180817A
:1050C000982F990F9E70807F892B8083662321F013
:1050D0009160807F892B808381818F5F8183928122
:1050E000992391F020812F7079F4933659F0242F71
:1050F00020622093AF01903111F4803118F080814B
:105100008F7C8083118212828281883009F44DC0A5
:10511000893060F4813009F450C08130A8F08230C9
:1051200009F443C0843009F05BC03FC08F3591F172
:10513000803620F4803109F053C037C0813691F0B9
:10514000823609F04DC046C08081982F9F709F30F5
:1051500009F046C091E692839181913120F18F7CD4
:10516000808321C040664093AF011092B20110923B
:10517000B3011092B4011092B5019081892F8295EC
:105180008F708F5F83708295807F9F7C982B908338
:105190008FE508C08181883111F4406818C08832D9
:1051A000F9F480E18283118208959181903328F08F
:1051B00090E09595879582831182828190E0019796
:1051C000218130E082239323009751F4406440937F
:1051D000AF0108958181803418F088E082831182C4
:1051E000089586B380958E77E1F71092AF01089508
:1051F0001F93CF93DF93EC01162F0E944F1282E290
:1052000060E04AEC5FE024E00E94371680E060E254
:10521000AE010E944F1681E068E341ED5FE00E941D
:105220004F160E946312112319F48091BC0201C031
:1052300089E10E94891284E00E94E60E0E94F12812
:1052400086B380958E7791F48091BF0260E00E94D2
:105250009111882331F48091D602882311F411230F
:1052600019F0C79AA895ECCFC798FCCFDF91CF91E2
:105270001F9108958091B0018823D9F081508093C7
:10528000B00185E00E94E60E1092C303E091B001E8
:10529000F0E0DF01A150B74F8C9180937C09EE0FB5
:1052A000FF1FE352FD4F0190F081E02D8EEB099539
:1052B00008958BEB9FE060E00E94F8280895CF935B
:1052C000DF93EC018091B001E82FF0E0E150F74F5F
:1052D00090917C099083982F9F5F9093B0019530B7
:1052E00040F08093B0018BEB9FE060E00E94F828D3
:1052F0000FC089E00E94E60EE091B001F0E0EE0FF1
:10530000FF1FE352FD4FD183C0838FEBFE01099550
:10531000DF91CF9108950F931F93CF93DF938C016B
:10532000EB010E944F1282E260E04AEC5FE024E071
:105330000E94371680E060E2A8010E944F1680E0CC
:1053400068E2AE010E944F1680E060E347EE5FE046
:105350000E944F160E9463128091BC020E94891223
:105360000E94F128DF91CF911F910F910895DF9254
:10537000EF92FF920F931F93CF93DF93FA017491F3
:10538000EA0122963196E491F0E0379633E0F59504
:10539000E7953A95E1F7279F90011124DE2EE29FD1
:1053A000A001E39F500DF29F500D1124C40FD51F93
:1053B00066956695669500E010E040E0262F30E0A7
:1053C0003695322F222737952795280F311DE72E46
:1053D000FF2414C0D901A00FB11FA150BB4FCE01B3
:1053E00004C0FC010196E491ED93582F5C1B571704
:1053F000C0F3CE0DDF1D4F5F00581F4F4D1550F30A
:10540000DF91CF911F910F91FF90EF90DF90089562
:105410008F929F92AF92BF92CF92DF92EF92FF92C4
:105420006091B00D662309F47EC0772767FD709503
:10543000872F972F2AE030E040E050E00E94456936
:10544000DC01CB01805E9140A040B0404091B10DA5
:10545000552747FD509540535040662757FD6095AE
:10546000762F840F951FA61FB71FBC01CD0120E129
:105470003EE040E050E00E9445696B017C01609194
:10548000B20D772767FD7095872F972F28E532E0BB
:1054900040E050E00E9445694B015C016091B30D12
:1054A000772767FD7095872F972F2CE330E040E03A
:1054B00050E00E944569DC01CB01880E991EAA1EAE
:1054C000BB1E80E494E8AFEFBFEF880E991EAA1EC2
:1054D000BB1EC80CD91CEA1CFB1C6091B40D7727BD
:1054E00067FD7095872F972F2AE030E040E050E06D
:1054F0000E944569DC01CB01805E9140A040B04034
:10550000C80ED91EEA1EFB1E8091B50D992787FD96
:105510009095C097AA2797FDA095BA2FC80ED91EBF
:10552000EA1EFB1E03C0CC24DD247601B601C701B0
:10553000FF90EF90DF90CF90BF90AF909F908F90B3
:1055400008958F929F92AF92BF92CF92DF92EF9287
:10555000FF920F931F93CF93DF93182F7B014A0184
:10556000690184FF07C01F701066A4E0AA2EB5E091
:10557000BB2E04C0E5E0AE2EF4E0BF2E8B2D80667E
:10558000181761F08B2D8064181741F08091C203C9
:1055900018165CF4133611F0133439F4E701219630
:1055A00085E00E94E60E8A2D14C09A2D9066191788
:1055B00051F09A2D9064191731F018168CF41236A8
:1055C00011F0123469F4E701219786E00E94E60E9B
:1055D0008B2D90E00E94830F882309F069C001C0E1
:1055E000E7018114910491F481E0C816D10471F4AB
:1055F000103661F41092C203C1E0D0E0E114F1046E
:1056000011F0C0E0D0E080E60E94720F8091C003EC
:105610009091C103C81BD90BCC16DD063CF4812F39
:105620000E94720F82E00E94E60EE601C815D905BD
:105630003CF4812F0E94720F82E00E94E60EE4018A
:10564000CE15DF0529F12097B1F41F701E3060F4EC
:10565000812F90E0FC01EE0FFF1FE80FF91FEE57BE
:10566000F64F82E682831182F7FE02C085E001C018
:1056700086E00E94E60E802F83700E940D14EC16C7
:10568000FD0614F481E001C08FEF8093C20902C0CF
:105690001092C209CE01DF91CF911F910F91FF901F
:1056A000EF90DF90CF90BF90AF909F908F90089534
:1056B000CC27DD27CE19DF098A2D0E94720F8B2D92
:1056C0000E94720F8ECFCF92DF92EF92FF920F93D4
:1056D0001F93CF93DF93F82E162F6A01C02FEE2071
:1056E00011F18091C2031816D4F4043251F005323E
:1056F000D1F48091C3038823B1F081508093C30318
:1057000012C03091C303432F50E0822F90E00197E5
:105710004817590744F43F5F3093C30304C0109205
:10572000C30302E201C000E28F2D612FA6010E9497
:105730006915EE2009F45BC08091C20318160CF0C5
:1057400056C08091C303F601E80FF11DD08180910E
:10575000C0039091C103009741F4C23631F0C336C3
:1057600021F0C23411F0C334D9F46D2F772767FDCF
:10577000709577FF03C0709561957F4F772767FD20
:1057800070958C2F40E050E028E230E000E00E946D
:10579000A12A082FD7FD019582E00E940D14D02F79
:1057A0008D2F865E853368F48C2F8458823048F4C0
:1057B000D19582E00E940D14C53819F485E00E944D
:1057C000720F8091C303F601E80FF11DD083809121
:1057D000C303C82FCC0FC80FCC0FCF0D8D2F0E9445
:1057E0004815482F8C2F612F22E00E942013DF9153
:1057F000CF911F910F91FF90EF90DF90CF90089580
:105800000F93772767FD7095552747FD50953327F0
:1058100027FD309501E00E94A12A0F9108950F9372
:10582000772767FD7095552747FD5095332727FD4E
:10583000309502E00E94A12A0F910895CF92DF9245
:10584000EF92FF920F93813809F48EC0823870F482
:105850008432E9F0853220F4803209F090C036C0FD
:10586000853271F0803809F08AC062C08338C1F097
:105870008338D8F0843821F1853809F080C01AC007
:1058800080910909813031F188E49FE206C080915E
:1058900009098130F9F08CEE96E10E94EA0E6FC0A2
:1058A0000E946F0F8BE790E5F8CF0E946F0F82E5A3
:1058B00094E4F3CF81E08093090910924F015CC01A
:1058C00081E08093090980934F0156C080910909B6
:1058D000813019F41092090952C04091540150913D
:1058E0005501609156017091570180910A0990917C
:1058F0000B09A0910C09B0910D09411551056105E5
:10590000710549F48093540190935501A093560179
:10591000B093570108C01092540110925501109293
:105920005601109257010097A105B10529F503C052
:1059300081E08093090980910E0990910F09A0914F
:105940001009B09111098093540190935501A093CF
:105950005601B093570180930A0990930B09A093C5
:105960000C09B0930D0908C0109212091092130986
:10597000109214091092150989E00E94E60E82E344
:105980000E943E1686E068E04AEF5FE00E944F16F4
:1059900080E668E14DE050E10E944F168CE060E245
:1059A00042E150E10E944F1680E668E247E150E193
:1059B0000E944F1680914F01813029F48CE660E3FC
:1059C0004CE150E104C086E660E34FE150E10E9403
:1059D0004F16409154015091550188E760E220E54F
:1059E00006E00E9435248091C40D873411F0109296
:1059F000BE0D80E067E449E00E943D0F81E067E46E
:105A00004BE00E943D0F83E067E44AE00E943D0FB7
:105A100084E067E446E00E943D0F85E067E447E0EC
:105A20000E943D0F8091BE0D882309F46EC0109234
:105A3000BE0D84E99DE00E94FA0E6B017C0182EAB2
:105A40009DE00E94FA0EDC01CB01C81AD90AEA0ACD
:105A5000FB0AC0920E09D0920F09E0921009F09251
:105A600011098091120990911309A0911409B09124
:105A700015098C159D05AE05BF0544F4C0921209A9
:105A8000D0921309E0921409F09215098091540103
:105A900090915501A0915601B0915701C81AD90AA9
:105AA000EA0AFB0AC0925801D0925901E0925A01C9
:105AB000F0925B018091160990911709A091180945
:105AC000B0911909A7019601281B390B4A0B5B0BF2
:105AD00020931A0930931B0940931C0950931D0908
