:100000000C94DC0B0C94F90B0C94F90B0C94F90B7D
:100010000C94F90B0C94F90B0C94F90B0C94F90B50
:100020000C94F90B0C94F90B0C94F90B0C9465429D
:100030000C948B410C94F90B0C94F90B0C945D40CF
:100040000C9411430C94F90B0C94F90B0C94F90BD0
:100050000C94F90B0C94F90B0C9431420C94F90BA1
:100060000C94F5410C9492420C94F90B0C94F90BFE
:100070000C94F90B0C94F90B0C94F90B0C94F90BF0
:100080000C94F90B0C94F90B0C94F90B010203047A
:10009000010302040402030104030201426164201B
:1000A000454570726F6D204461746100466F726DDA
:1000B00061747461676520454550524F4D004D4550
:1000C0005353414745005350530080400000000007
:1000D0000000000000000000000000000000000020
:1000E0000000000000000000000000000000000010
:1000F0000000000000000000000000000000000000
:1001000000000000000000000000000000000000EF
:1001100000000000000000000000000000000000DF
:1001200000000000000000000000000000000000CF
:1001300000000000000000000000000000000000BF
:10014000000000000000000000000000FCFCFCFCBF
:10015000FCFCFCFCFCFCFCFCFCFCFCFCFCFCFCFCDF
:10016000FCFCFCFCFCFCFCFCFCFCFCFCFCFCFCFCCF
:10017000FCFCFCFCFCFCFCFCFCFCFCFCFCFCFCFCBF
:10018000FCFCFCFCFCFCFCFCFCFCFCFCFCFCFCFCAF
:10019000FCFCFCFCFCFCFCFCFCFCFCFCFCFCFCFC9F
:1001A000FCFCFCFCFCFCFCFCFCFCFCFCFCFCFCFC8F
:1001B000FCFCFCFCFCFCFCFCFCFCFCFCFCFCFCFC7F
:1001C000FCFCFCFCFCFCFCFCFCFCFCFCFFFFFFFF63
:1001D000FFFFFFFFFF7F7F3F3F3F3F3F3F7F7FFFAF
:1001E000FFFFFFFFFFFFFF3F3F3F3F3FFF7F7F3F9F
:1001F0003F3F3F7FFFFFFFFFFFFFFFFFFF7F7F3F8F
:100200003F3F3F3F3F7F7FFFFFFFFFFFFFFFFFFFBE
:100210003F3F3F3F3FFF7F3F3F3F3F3F7FFFFFFF6E
:10022000FF7F0F07030181E0F0F0F0E0000101071C
:100230001FFFFFFFFFFFBF3F3F3F3F7FFFFFFFFF6E
:10024000FF7F3F3F3F3F3FBFFFFFFFFFFFFFFFFF3E
:100250003F07030100C0F0F8FCFCFCFCF8000000C4
:100260000103FFFFFF3F0100000080E0F8FCFCFC01
:10027000F80000000001FFFF3F0703010000101815
:100280001C1C1C1C180000000103FFFFFFFF1F00C7
:10029000000000C0F8FCFCFC1000000000C0FFFFE4
:1002A000FFE0800000000F1F1F1F0F030000000071
:1002B000E0FFFFFFFFFFFFFEF8E00000010707017E
:1002C00080E0F0F8FCFEFFFFFFFFFFFFFFFFFFFFF6
:1002D000E0C08000000F1F1F1F1F0F070180C0E03C
:1002E000F0FEFFFF0700000000C00F1F1F1F0F07D9
:1002F000010080E0F0FEFFFFE0C08000000E0E1E57
:100300001E1E1E1E1E1E0ECEFEFEFFFF7F030000E1
:100310000080FCFFFFFF3F0300000080FCFFFF1F89
:100320000F0F1F1F1E1E1E0E0E0781C0E0F0FCFFE8
:10033000FFFFFF7F3F1F0F030180E0F0F8E0800028
:1003400001071F7FFFFFFFFFFFFFFFFFFFFFFFFF13
:10035000FFFFFFFFFFFEFEFEFEFEFEFFFFFFFFFFB3
:10036000FFFF1F00000000C0FEFFFFFEFEFEFEFEBE
:10037000FFFFFFFFFFFFFFFFFFFFFFFFFFFEFEFE90
:10038000FEFEFEFEFEFFFFFFFFFFFFFFFEFEFEFE86
:10039000FEFFFFFFFFFFFEFEFEFEFEFFFFFFFFFF73
:1003A000FFFEFEFEFEFEFEFEFFFFFFFFFFFFFFFF64
:1003B000FFFFFEFEFEFEFEFEFFFFFFFFFFFFFFFE54
:1003C000FEFEFEFEFFFFFFFFFFFFFFFF1F1F1F1FC1
:1003D0001F1F1F1F1F1F1F1F1F1F1F1F1F1F1F1F2D
:1003E0001F1F1F1F1F1F1F1F1F1F1F1F1F1F1F1F1D
:1003F0001F1F1F1F1F1F1F1F1F1F1F1F1F1F1F1F0D
:100400001F1F1F1F1F1F1F1F1F1F1F1F1F1F1F1FFC
:100410001F1F1F1F1F1F1F1F1F1F1F1F1F1F1F1FEC
:100420001F1F1F1F1F1F1F1F1F1F1F1F1F1F1F1FDC
:100430001F1F1F1F1F1F1F1F1F1F1F1F1F1F1F1FCC
:100440001F1F1F1F1F1F1F1F1F1F1F1F0000000038
:10045000000000000000000000000000000000009C
:10046000000000000000000000000000000000008C
:10047000000000000000000000000000000000007C
:10048000000000000000000000000000000000006C
:10049000000000000000000000000000000000005C
:1004A000000000000000000000000000000000004C
:1004B000000000000000000000000000000000003C
:1004C0000000000000000000000000005350450044
:1004D000454550524F4D206C6F77206D656D00473C
:1004E000617A207061732061207A65726F005265B5
:1004F000696E697469616C6973657A206C65005313
:100500007769746368657320656E636C656E636894
:100510006573005265696E697469616C6973657AA7
:10052000206C657300416C61726D65732044657366
:100530006163746976656573000101020A3C01011B
:100540000414500101081E6402020F287805051EDC
:1005500032960003030303030303030303030303AC
:100560000303034C494D49544553000002494E547E
:100570004552532050455253000002494E544552B3
:100580005320464F4E4354494F4E53000000000045
:10059000000000000000000000000000000000005B
:1005A00000FF01434F4E46494720524144494F0006
:1005B000426565706572204D6F64650042656570C7
:1005C0006572204C656E677468004D6F64652056D7
:1005D00069627265757200466F7263652056696262
:1005E0007265757200436F6E747261737465004159
:1005F0006C61726D65204261747465726965004159
:100600006C61726D6520496E6163746976697465A9
:100610000046696C7472652041444300496E7665FA
:100620007273696F6E2047617A0042697020742E80
:100630006D696E7574657300426970206120726522
:10064000626F75727300466C617368207175616EBC
:10065000642062697000496E7465722065636C6124
:1006600069726167650045636C6169722E206F660F
:100670006620617072657300456372616E20642745
:100680006163637565696C00416C657274652047D0
:10069000617A00416C6572746520496E7465720000
:1006A000416C65727465204D656D6F6972650041BE
:1006B0006C6572746520416C61726D65004F726487
:1006C000726520566F696573205278001208000821
:1006D0001C0808081C080000082200490022080025
:1006E00000000000227F22000000082200490022B2
:1006F00008000008220049002208000000227F2292
:100700000000000000082200490022080000081C28
:100710000808081C08004D4958455552002F31342F
:10072000002F333200434F55524245530043560089
:1007300056455253494F4E00564552533A20563271
:100740002E30302D002053564E3A206F70656E3992
:10075000782D7233363400444154453A20323031DA
:10076000322D30332D31340054494D453A2030314B
:100770003A30313A333800454550524F4D207600DB
:1007800044494147005472696D2D202B00414E4170
:100790000041004247004D6F646500034F46464FDD
:1007A0004E20032D2D2D494E560434434820364308
:1007B00048203843482031304348313243483134AF
:1007C00043483136434806517569657420416C6170
:1007D000726D734E6F4B657920546F7574202006CF
:1007E0007853686F727453686F7274204E6F726DB5
:1007F000616C4C6F6E672020784C6F6E67200453DD
:10080000494E474F534D5046494C54044261732062
:100810004F46462048617574036F6666202B3D2065
:100820003A3D036368316368326368336368340652
:10083000457870202020457846696E2046696E20F4
:1008400020204D6F79656E2047726F732020015212
:100850004554413132330550504D202050585820D6
:100860002044534D322050504D313603504F534E9B
:100870004547032D2D2D783E30783C307C787C66C2
:100880003E30663C307C667C0545444954205052DD
:10089000534554412E47415A06526174696F2045B1
:1008A00078706F2020436F75726265506861736560
:1008B00020496E746572204D6F64652020202020D1
:1008C00020202008416A6F75746572204D756C7424
:1008D00069706C7952656D706C616365022B3D2A9D
:1008E0003D3A3D064F4E202020204F4646202020F6
:1008F0004F6666736574072D2D2D2D002020763EE2
:100900006F66732020763C6F667320207C767C3E79
:100910006F66737C767C3C6F6673414E442020206A
:10092000204F522020202020584F52202020207677
:10093000313D3D7632207631213D76322076313E92
:100940007632202076313C7632202076313E3D765C
:10095000322076313C3D7632200D536563757269E5
:100960007465200020202045636F6C61676520005E
:10097000202020205472696D20696E7374616E743A
:100980002042656570002020202020202020526514
:1009900073657420202020202020200654696D6576
:1009A000723154696D657232416C6C20202054653F
:1009B0006C656D2E065761726E31205761726E3212
:1009C0002043686565702052696E67202053636913
:1009D000466920526F626F742043686972702054B8
:1009E0006164612020437269636B74536972656E40
:1009F00020416C6D436C6B52617461746154696326
:100A00006B202048617074633148617074633248B0
:100A1000617074633305204D656E75204578697487
:100A20002020426173204861757444726F69744775
:100A3000617563680347415A4449525052464944DC
:100A40003049443149443241494C47454154524E62
:100A500053573153573253573353573453573553F2
:100A600057365357375357385357395357415357BE
:100A70004253574304446972205072662047617A9A
:100A80002041696C205031202050322020503320EA
:100A9000204D41582033504F53435943314359431C
:100AA0003243594333034F4646414253475A7347F3
:100AB0005A25475A74074C50342F4C503544534DE7
:100AC0006F6E6C7944534D5820202000002902029B
:100AD00000000000000602015345545550004368D1
:100AE000726F6E6F00452E4C696D697465730045B9
:100AF0002E5472696D73005472696D20496E6300E3
:100B0000542D547261636500542D5472696D004216
:100B10006970204374720050726F746F00750050DA
:100B2000504D206672616D65006D730052784E7590
:100B30006D00434F5552424500000202020200453B
:100B4000434F4C414745004573636C617665006DCA
:100B50006F6465032520737263004D756C74697052
:100B60006C696575720043616C004D454E555320AC
:100B70004F564552464C4F5700446570617373653C
:100B80006D656E7420454550524F4D00414C4552A5
:100B9000544500546F7563686520706F75722063EB
:100BA0006F6E74696E756572004170707579657AE3
:100BB0002073757220746F7563686500630050560A
:100BC000004D4F44454C450050504D0043480054A3
:100BD0004D5200535441545300544D310D544D3235
:100BE000005448520D54482500544F540044454287
:100BF000554700746D72314C6174206D61780475D5
:100C00007300746D72314C6174206D696E0475737C
:100C100000746D7231204A697474657204757300D2
:100C2000746D61696E206D6178066D730046726542
:100C30006520537461636B206D696E0462005B4DC7
:100C4000454E555D706F7572207265736574005303
:100C50005700AF18F225AD1DE11D711EEC3B408021
:100C600008042010020143414C4942524154494F6B
:100C70004E005B4D454E555D504F55522044454208
:100C8000555400534554204E4555545245005B4D34
:100C9000454E555D5175616E642050524554004279
:100CA0004F55474552204D414E434845532F504FD5
:100CB00054532000500800000000000000006F00A6
:100CC0000007000700147F147F14242A7F2A1223B0
:100CD0001308646236495522500005030000001CC9
:100CE0002241000041221C0014083E081408083E5E
:100CF0000808005030000000080808080060600084
:100D0000002010080402003E41413E0000427F40A6
:100D100000625149460041494936001814127F00CB
:100D200027454539003E494932000179050300361F
:100D3000494936000649291E000036360000005693
:100D4000360000081422411414141414412214080B
:100D500000020151090606090906007E0909097EFB
:100D60007F494949363E414141227F4141221C7F12
:100D7000494949417F090909013E4149497A7F08AA
:100D800008087F00417F41002040413F017F081457
:100D900022417F404040407F020C027F7F040810C8
:100DA0007F3E4141413E7F090909063E4151215E96
:100DB0007F09192946264949493201017F01013F2E
:100DC0004040403F1F2040201F3F4030403F6314C1
:100DD00008146307087008076151494543007F41C3
:100DE000410002040810200041417F00040201027A
:100DF0000440404040400001020400205454547814
:100E00007F484444383844444420384444487F3878
:100E100054545418087E0901020C5252523E7F0865
:100E200004047800447D40002040443D007F1028A9
:100E3000440000417F40007C041804787C080404CE
:100E40007838444444387C14141408081414187C6A
:100E50007C080404084854545420043F4440203C77
:100E60004040207C1C2040201C3C4020403C44282A
:100E70001028440C5050503C4464544C44000836F4
:100E8000410000007F000000413608000808221CD5
:100E900008081C220808A0600000000000000000F4
:100EA000000000000000FEFE0000000000003E7E8A
:100EB00000007E3E00006060FEFE6060FEFE60603E
:100EC00060F09898FEFE989818180C1E1E0C80C0B2
:100ED000E070381878FC8EC6E6763C1800000000FA
:100EE00066763E1E000000000000E0F0381C0E0692
:100EF00000000000060E1C38F0E000006060C080BA
:100F0000F8F880C0606080808080F8F88080808001
:100F10000000000000000000000000000080808051
:100F200080808080000000000000000000000000C1
:100F3000000080C0E07038180000000000000000D1
:100F400000000000000071710000000000000000BF
:100F500000000000000006067F7F06067F7F060671
:100F6000181819197F7F19190F06181C0E0703018D
:100F7000307878301E3F716367663C3C66660000DF
:100F800000000000000000000000070F1C38706027
:100F9000000000006070381C0F0700000606030107
:100FA0001F1F01030606010101011F1F01010101AD
:100FB000000066763E1E00000000000000010101F6
:100FC0000101010100003078783000000000181C99
:100FD0000E070301000000000000F8FC0E06060EDC
:100FE000FCF80000181CFEFE000000000000181CA9
:100FF0000E0686CEFC7800000606868686CEFC7835
:10100000000080C0E070381CFEFE00007E7E666638
:1010100066E6C6860000F8FC8E86868E1C180000E8
:10102000060686C6E6763E1E000078FCCE8686CE94
:10103000FC78000078FCCE8686CEFCF80000307884
:1010400078300000000000003078783000000000A8
:10105000000080C0E070381C0E0660606060606058
:1010600060606060060E1C3870E0C0800000181CD4
:101070000E06060686CEFC7800001F3F706060708A
:101080003F1F000060607F7F606000000000787C90
:101090006E676361606000006060616161733F1E44
:1010A00000000707060606067F7F000018387060FC
:1010B00060703F1F00001F3F716161733F1E0000A1
:1010C00000007F7F0000000000001E3F736161731D
:1010D0003F1E000000006171391D0F0700000C1E4B
:1010E0001E0C00000000000066763E1E000000009E
:1010F00000000103070E1C3870600606060606068F
:10110000060606066070381C0E070301000000008A
:10111000000066670301000078FCCE8686CEFC786E
:101120000000E0F0B89C8E8E9CB8F0E0FEFE868653
:10113000868686CEFC78F8FC0E060606060E1C187F
:10114000FEFE0606060E1C38F0E0FEFE868686864B
:1011500086860606FEFE8686868686860606F8FC57
:101160000E068686868E9C98FEFE8080808080801B
:10117000FEFE00000606FEFE06060000000000005F
:101180000606FEFE0606FEFE80C0E070381C0E0657
:10119000FEFE0000000000000000FEFE1C38F0F023
:1011A000381CFEFEFEFE70E0C0800000FEFEF8FC73
:1011B0000E060606060EFCF8000001010101000003
:1011C00000007F7F0101010101017F7F7F7F61615D
:1011D000616161733F1E1F3F70606060607038180E
:1011E0007F7F60606070381C0F077F7F6161616185
:1011F000616160607F7F01010101010100001F3F0B
:101200007060616161717F3F7F7F010101010101B8
:101210007F7F000060607F7F606000001838706032
:1012200060703F1F00007F7F0103070E1C38706055
:101230007F7F60606060606060607F7F00000101B0
:1012400000007F7F7F7F00000103070E7F7F1F3F2D
:101250007060606060703F1FFEFE8686868686CE68
:10126000FC78F8FC0E060606060EFCF8FEFE8686E6
:10127000868686CEFC7878FCCE868686868E1C187E
:1012800006060606FEFE06060606FEFE0000000036
:101290000000FEFEFEFE000000000000FEFEFEFE5E
:1012A000000000000000FEFE1E3E70E0C0C0E070C6
:1012B0003E1E7EFEC080000080C0FE7E0606060642
:1012C00086C6E6763E1E0000FEFE06060606000006
:1012D000183870E0C0800000000000000606060616
:1012E000FEFE00006070381C0E0E1C38706000009E
:1012F00000000000000000007F7F010101010101EA
:1013000000001F3F7060666E3C387F677F7F010181
:10131000070F1D39706018387161616161733F1E7C
:10132000000000007F7F000000001F3F70606060D1
:1013300060703F1F070F1C387070381C0F071F3F6D
:1013400070703E3E70703F1F787C0E070303070EDF
:101350007C78000001037F7F03010000787C6E67CA
:1013600063616060606000007F7F606060600000BB
:10137000000000000103070E1C18000060606060A0
:101380007F7F00000000000000000000000060609F
:1013900060606060606060600000060E1C38706015
:1013A000000000006060606060E0C080FEFE80C001
:1013B000E06060E0C08080C0E0606060606000006D
:1013C00080C0E06060E0C080FEFE80C0E0606060E1
:1013D00060E0C0808080F8FC8E86060E1C18E0F06D
:1013E000381818181818F8F8FEFE80C0E06060E0A1
:1013F000C08000006060E6E6000000000000000021
:101400006060E6E60000FEFE000080C0E0600000D4
:1014100000000606FEFE00000000E0E060E0C0C044
:10142000E0E0C080E0E080C0E06060E0C08080C0BC
:10143000E060606060E0C08000000000000000002C
:101440000000183C7E66666666667F7F7F7F61610E
:10145000606060703F1F1F3F706060606070381890
:101460001F3F7060606061617F7F1F3F76666666C8
:101470006666070701017F7F01010000000001038C
:101480006766666666763F1F7F7F01010000000089
:101490007F7F000060607F7F6060000018387060B0
:1014A00060703F1F00007F7F060F1F3970600000D3
:1014B000000060607F7F606000007F7F00000707A2
:1014C00000007F7F7F7F0101000000007F7F1F3FC2
:1014D0007060606060703F1FE0E06060606060E0CE
:1014E000C08080C0E0606060C080E0E0E0E080C07C
:1014F000E06060E0C08080C0E0606060606000002C
:101500006060FEFE606000000000E0E0000000009F
:101510000000E0E0E0E0000000000000E0E0E0E0CB
:10152000000000000000E0E060E0C080000080C03B
:10153000E060E0E0000000000000E0E0606060606B
:101540006060E0E0E060000080C0787C0E06000093
:1015500000000000FEFE000000000000060E7C7887
:10156000C0800000808080801838F0E0C08080C09B
:10157000E0F03818808080807F7F06060606060728
:10158000030101030706060607077F7F7F7F01012E
:10159000000000000101616367666666667E3C18B4
:1015A00000001F3F7060607038181F3F70606070EF
:1015B00038187F7F070F1C387070381C0F071F3FCB
:1015C0007070383870703F1F6070391F0F0F1F39EF
:1015D000706001036766666666763F1F6070787CA0
:1015E0006E6763616060000001031E3E7060000072
:1015F000000000007F7F00000000000060703E1EC1
:101600000301000001010101181C0F070301010380
:10161000070F1C18010101014D6178206578706F7A
:10162000732061747465696E7421004D6178206D5A
:101630006978616765732061747465696E742100EF
:1016400003010200040506075F2D2E2C001B1E2738
:101650002D36394B4E636C7278878D939CB1B4C62E
:10166000C9D2D8E1E4294BCE27B64E944F994F7595
:1016700015F41C84179F16496E746572004E6F6DC9
:10168000005B4D454E555D045B515549545D00531B
:10169000454C4D4F4445005355505052494D4552CD
:1016A000204D4F44454C4500436F7069652E2E2EEA
:1016B000004465706C6163656D656E742E2E2E003E
:1016C0004368617267656D656E742E2E2E006C69BD
:1016D000627265002500030050484153452044458F
:1016E00020564F4C005472696D730046616465204A
:1016F000496E0046616465204F75740044522F4561
:1017000058504F00494E5345524552204D4958417B
:1017100047452000454449544552204D49584147CA
:10172000452000536F7572636500526174696F00E4
:10173000446966666572004F66667365740054722C
:10174000696D00436F7572626500502E566F6C00B4
:10175000416C65727465004F4646004D756C74703F
:10176000780052657461726420426173005265743E
:1017700061726420486175740052616C656E7469B1
:101780007220486175740052616C656E74697220D4
:101790004261730050484153455320444520564F01
:1017A0004C00286465666175742900566572696627
:1017B000055472696D73000011241FBECFEFD0E194
:1017C000DEBFCDBF11E0A0E0B1E0E2EDFFEB02C073
:1017D00005900D92A432B107D9F71DE0A4E2B1E063
:1017E00001C01D92A231B107E1F70E94E3530C94AE
:1017F000E75F0C9400008093E9010895CF93DF9395
:101800000F92CDB7DEB7282F30E084E0220F331FD0
:101810008A95E1F7260F311DCE010196B90141E00D
:1018200050E00E94D75F89810F90DF91CF9108959A
:1018300060E00E94FE0B089590914B0698719830DD
:1018400049F0992319F4882329F408959831E9F48B
:101850008330D8F0209155062295220F207E2595C1
:101860002595259525952595332727FD3095F90153
:10187000EE0FFF1FEE0FFF1FE20FF31FE80FF11D2A
:10188000ED5BFA4FE491E093ED010895FC01A09126
:10189000EE01B0E0AA0FBB1FA95AB94F8D939C93DC
:1018A0008FEB099580E00E941C0C08958F708E309C
:1018B00068F490E0FC01EE0FFF1FE80FF91FE256FD
:1018C000F34F83E6828380818F7C808308958E30FE
:1018D00091057CF4FC01EE0FFF1FE80FF91FE256A3
:1018E000F34F90819F7081E09F3009F44FC080E0FA
:1018F00008958231910581F1833191058CF48F3007
:10190000910509F18031910524F48E309105C9F5D6
:1019100032C08031910589F08131910591F516C071
:101920008431910569F084319105F4F08531910598
:10193000F9F08631910529F521C091B1947022C04A
:1019400091B192701FC09091630016C080916300A6
:1019500091E083FF17C015C08091630083FF11C021
:1019600091E00E990FC00DC091E00E9B0BC009C015
:1019700091B1907107C091B1917004C091B1907212
:1019800001C090E081E0992309F480E008958F92EE
:101990009F92AF92BF92CF92DF92EF92FF920F93FE
:1019A0001F93CF93DF93C82F7B014A016901B02EAB
:1019B00084FF06C0CF70C06674E0A72ED5E003C0D8
:1019C00065E0A62ED4E08D2F8066C81761F08D2FBC
:1019D0008064C81741F08091060D181664F4C33670
:1019E00011F0C33441F487010F5F1F4F80E00E9464
:1019F0001C0C8A2D15C09A2D9066C91751F09A2D8E
:101A00009064C91731F0181694F4C23611F0C2343C
:101A100071F487010150104080E00E941C0C8D2F52
:101A200090E00E94670C882309F060C001C0870124
:101A30008114910499F481E0C816D10479F4C03678
:101A400069F41092060D01E010E0E114F10411F0C8
:101A500000E010E080E60E94560C14C0C016D106CB
:101A60003CF48C2F0E94560C82E00E941C0C8601D4
:101A7000081519053CF48C2F0E94560C82E00E9438
:101A80001C0C84010E151F0509F10115110589F4BF
:101A9000CF70CE3058F4D0E0FE01EE0FFF1FEC0FF8
:101AA000FD1FE256F34F82E68283118280E00E949E
:101AB0001C0C8B2D83700E947146E016F10614F405
:101AC00081E001C08FEF8093020D02C01092020DE1
:101AD000C801DF91CF911F910F91FF90EF90DF90A0
:101AE000CF90BF90AF909F908F90089500271127BF
:101AF0000E191F098A2D0E94560C8D2F0E94560C1C
:101B000097CF0F93772767FD7095552747FD509521
:101B1000332727FD309502E00E94C70C0F910895EE
:101B20000F93772767FD7095552747FD509533270D
:101B300027FD309501E00E94C70C0F910895AF92E8
:101B4000BF92CF92DF92EF92FF920F931F93CF93AA
:101B5000DF9380913203877090910701981709F401
:101B60003FC080930701823021F50E9482461EBC4F
:101B700088EC90E090937900809378008CE291E07B
:101B80009DBD8CBD80EE9BEA97BD86BD87B7837CEB
:101B900087BF8CE386BF8FE380937C0087B780622A
:101BA00087BF80917D00816080937D001FBC8AE1AA
:101BB00016C00E9482461EBC80E49CE99BBD8ABD83
:101BC0001DBC1CBC87B7837C87BF8CE386BF8FE3BB
:101BD00080937C0087B7806187BF1FBC8AE08EBD81
:101BE000809132038770823009F082C0789484EE4D
:101BF0009BE09093180180931701809108018774EE
:101C000089F080913203859585958595859519F0A4
:101C1000813029F402C080E803C080E901C088E96E
:101C200080930801C0910801C7FF07C086E190E0DA
:101C30000E94670C882309F4E2C08091FF0580931D
:101C40000901C2EAD2E0ABE0B1E020E089919991CC
:101C50009595879580509E4F97FD05C033E08F3F47
:101C6000930724F405C080E090E002C08FEF93E07A
:101C7000FD013197322F330F330F392B30838C9383
:101C80002F5F1296263011F748E0E42E41E0F42E43
:101C90005EE0C52ED7010D917D0139E0D32E80E1A4
:101CA00090E010E0E801C170D0709C1711F4805FE3
:101CB00005C081500E9494469C2F80E115950795A0
:101CC0000068DA9471F7815F0E949446CA9411F714
:101CD00080911701909118010197909318018093BA
:101CE00017018FEF0E94944680E00E94944676C0D0
:101CF0008091330385FF03C0C0E0D5E002C0C0E09F
:101D0000D4E0409132034595459545954595440F5E
:101D1000485FE091340384E6E802F0011124E85AB8
:101D2000FD4F8091FD05992787FD909528EE33E0C2
:101D3000829FB001839F700D929F700D1124685394
:101D400070456E1B7F0B12EAE12E12E0F12E50E07F
:101D500004EEA02E0BE0B02ECC24DD24CC1ADD0A3C
:101D600008E512E00E1B1F0B24C09601D7018D91D0
:101D70009D917D018C159D0534F08C179D0714F401
:101D80009C0101C09E01205A364FCF01820F931F44
:101D9000681B790B200F311FD50111963C932E93B0
:101DA0001396FC93EE93129724E030E0A20EB31E3C
:101DB0005F5F5417D1F6A52FB0E0AA0FBB1FAA0F83
:101DC000BB1FAC51B44F11967C936E931396FC934A
:101DD000EE93129715961C921E92149784EE9BE038
:101DE00090931A0180931901DF91CF911F910F9168
:101DF000FF90EF90DF90CF90BF90AF900895CF7796
:101E0000C09308011ACF873038F4E82FF0E0EE0FC6
:101E1000FF1FE158FD4F48C0873009F44BC08830A0
:101E200071F481E190E00E94670C882309F03FC0C3
:101E300082E190E00E94670C8823E1F13EC08C3083
:101E4000E0F1803198F4E82FF0E0DF01AA0FBB1F2A
:101E5000A159B34FEE0FFF1FEE5DF94F8D919C918D
:101E6000119720813181821B930B0AC0843158F471
:101E7000E82FF0E0EE0FFF1FE159F34F80819181D1
:101E8000880F991F0895843238F4E82FF0E0EE0FA0
:101E9000FF1FE656FD4F08C0863290F4E82FF0E0B1
:101EA000EE0FFF1FE355FE4F80819181089580E082
:101EB0009CEF089580E094E0089580E090E008951C
:101EC00080E090E00895EF92FF920F931F93CF93DD
:101ED000DF93F82E882349F48091E7069091E80675
:101EE000892F881F8827881FE6C0992787FD90952E
:101EF00097FF03C0909581959F4F863109F4D4C018
:101F00008A3028F490E00D960E94670CCEC08A506B
:101F1000282F30E0E901CC0FDD1FC20FD31FC25BB9
:101F2000DA4F9A81992309F4C5C09A81953038F027
:101F30009A81983008F4C6C052E0E52E01C0EE2424
:101F4000888181500E94030F8C01EE2009F447C064
:101F500078C02091E5063091E6062023312381E008
:101F60002115310521F52EC08091E7069091E806F4
:101F7000802B912B9093E8068093E70688810E943E
:101F8000630FE82E89810E94630F9A81953019F0C2
:101F9000963049F403C0EE20A9F002C0EE2031F4DF
:101FA000882321F40FC08E2569F001C081E02091C3
:101FB000E5063091E606202B312B3093E606209380
:101FC000E50673C08091E5069091E60600951095B0
:101FD000082319231093E6060093E50663C0888161
:101FE00085323CF02981332727FD30952E593F4F0C
:101FF00014C0898129E28202900111243595279528
:102000003595279587FD815C86FB880F880B80F9C5
:10201000992787FD9095281B390B8A818230A1F181
:10202000833019F0813039F42BC017FF28C0109588
:1020300001951F4F24C017FF27C0109501951F4F12
:1020400023C0898181500E94030F9C018A818930BD
:1020500089F08A3018F4883009F507C08A3079F0A1
:102060008B3091F08C30D1F414C081E0021713074B
:10207000C9F41BC081E002171307B9F413C081E053
:102080002017310794F00EC081E0021713076CF09F
:1020900009C081E00217130744F404C081E020174F
:1020A00031071CF480E001C081E01F1424F091E0AE
:1020B000892701C080E0DF91CF911F910F91FF90A0
:1020C000EF90089501E010E002C0000F111F8A9503
:1020D000E2F78091E7069091E8068023912300972C
:1020E00009F037CF41CF362F37953327379520E08A
:1020F0003093E8062093E7060E94630F0895FF924D
:102100000F931F93CF93DF93C1E0D0E00DE010E079
:10211000FC2EC09FF001C19FF00DD09FF00D112447
:10212000EB55FA4F8581882329F060E00E947310F7
:10213000882329F42196C530D10551F7FF248F2D2E
:10214000DF91CF911F910F91FF9008952F923F92B1
:102150004F925F926F927F928F929F92AF92BF92B7
:10216000CF92DF92FF920F931F93CF93DF931C01C7
:10217000862FA9EEB6E0F10198E001900D92915002
:10218000E1F78F3F11F40E947F10CC24DD24FF245F
:10219000FA94C4E64C2E512C612C712CA12CD4E065
:1021A000BD2E882E99240894811C911CE601CC0F29
:1021B000DD1FCC0FDD1FCA55DB4F8881982F937030
:1021C00009F496C086958695837090E02F2D33276D
:1021D00027FD30958217930709F482C08981982FD3
:1021E000907E59F09A8190FD08C0829586958770FF
:1021F00090E08816990609F073C08981880F880FCE
:10220000880F85958595859561E00E9473108823D8
:1022100009F466C08881182F169516951370E12F62
:10222000F0E0EE0FFF1FE751F94F208131818370FD
:1022300037FF03C080FD03C053C081FF51C0F12EA2
:102240006B81772767FD709561157105F9F0032F94
:10225000001F0027001F19F0309521953F4F77FF91
:102260000CC0709561957F4FC501821B930B0E9436
:10227000D9469501281B390B04C0C9010E94D946D3
:102280009C01002319F0309521953F4F6881862FDE
:10229000807F61F062956F70862F90E08B309105A2
:1022A0000CF06C5FC9010E9431479C01B90188277D
:1022B00077FD8095982F2A81269530E040E050E008
:1022C0000E94265FA30192010E949A5FE12FFF27DF
:1022D000E7FDF095EE0FFF1FE20DF31D2083318324
:1022E0000894C11CD11C8EE0C816D10409F05ECF41
:1022F000DF91CF911F910F91FF90DF90CF90BF9012
:10230000AF909F908F907F906F905F904F903F9095
:102310002F9008952F923F924F925F926F927F92EB
:102320008F929F92AF92BF92CF92DF92EF92FF92E5
:102330000F931F93CF93DF9300D00F92CDB7DEB7EB
:102340008A8369E0E62E66E0F62E4424552419823D
:1023500071E0272E312C842D843070F4E091EB0154
:10236000F0E0EE0FFF1FEE0FFF1FE40DF51DE45729
:10237000FF4F0491015001C0042D0E94CC469C01E6
:10238000D7018D919D917D01281B390BC901AA2789
:1023900097FDA095BA2F4AE0880F991FAA1FBB1F6F
:1023A0004A95D1F7F701121613061CF4228D338DCE
:1023B00002C0248535852436310514F424E630E046
:1023C000442737FD4095542FBC01CD010E949A5FF0
:1023D0006901FCEF20303F0734F021E0C21624E011
:1023E000D2062CF407C0C12C8CEFD82E03C0C12C10
:1023F00014E0D12E80914E0680FF06C0023021F4F9
:10240000D094C194D108D394802E9924F401EE0F76
:10241000FF1FE158FD4FD182C082C601D7FE04C024
:10242000882799278C199D09A4E096958795AA95E8
:10243000E1F78230B8F4882341F4C101082C02C0CE
:10244000880F991F0A94E2F70AC09101082C02C074
:10245000220F331F0A94E2F78091FF06822339810D
:10246000382B3983043008F067C08091840C8823AE
:1024700009F05BC00F5E802F90E04097D10102C051
:10248000AA0FBB1F8A95E2F7CD0181602091E5017B
:102490003091E60182239323009709F446C094010A
:1024A000220F331F2E5B394FF901A0808A2D807CCB
:1024B000E1F18A2D8F7390E0DC01AA0FBB1FA957B1
:1024C000B34FFC01EE0FFF1FE65CF94F6D917C915D
:1024D00080819181681B790B882777FD8095982FE3
:1024E000D90111962C911197332727FD3095432F51
:1024F000532F0E94265F22E330E040E050E00E942C
:102500009A5F89019A01A294A694A694E3E0AE2270
:102510008A2D90E08130910521F08230910529F4D7
:1025200003C0C00ED11E01C06801F401EE0FFF1FF1
:10253000E458F34FD182C0820894411C511CB7E08B
:102540004B16510409F007CF8CE79CE06A810E948A
:10255000A61024E7822E2CE0922E1B82212C34E040
:10256000332E412C48E0542E612C712C8B816A81D2
:102570000E9458486B810E9423485C01EB81E23045
:10258000B9F58091320383FF33C080914E0680FFFE
:1025900004C0B094A194B108B3946501EE24D7FCB3
:1025A000E094FE2C8DE790E0A0E0B0E0C80ED91ECC
:1025B000EA1EFB1E8091800C9091810C9101281BDA
:1025C000390B442737FD4095542FC701B6010E94AF
:1025D000265FA30192010E949A5F89019A0100304F
:1025E00098E0190790E0290790E0390731F404C01A
:1025F0008091EF01882321F58501000F111FD4017F
:102600000D931D934D01BB81BF5FBB83B43009F0B7
:10261000ADCF89810F900F900F90DF91CF911F91D7
:102620000F91FF90EF90DF90CF90BF90AF909F9071
:102630008F907F906F905F904F903F902F90089574
:10264000AA24BB24D9CFCF92DF92EF92FF920F93AF
:102650001F93CF93DF93CDB7DEB728970FB6F894CB
:10266000DEBF0FBECDBF6C018091030D0E947E477F
:102670007C018E010F5F1F4F88E0D8011D928A9563
:10268000E9F7D701EC91E695E695E370F0E0EE0FFF
:10269000FF1FE00FF11FD182C082C8016FEF0E94BF
:1026A000A610D701EC91E695E695E370F0E0EE0F09
:1026B000FF1FE00FF11F8081918128960FB6F894DB
:1026C000DEBF0FBECDBFDF91CF911F910F91FF9065
:1026D000EF90DF90CF9008950F931F93CF93DF93E8
:1026E0000F92CDB7DEB78C01FC018081982F990F36
:1026F0009E70807F892B8083662321F09160807F8C
:10270000892B8083F80181818F5F81839281992356
:10271000C9F080818F70B1F4933689F0842F806284
:1027200049830E94FB0BF80182814981803119F4B1
:102730008181803120F0F80180818F7C8083F801D5
:1027400011821282F8012281283009F454C0293004
:1027500060F4213009F458C02130A8F0223009F487
:102760004AC0243009F068C046C02F35B1F1203688
:1027700020F4203109F060C03EC02136A1F022369D
:1027800009F05AC052C0F8018081982F9F709F3085
:1027900009F052C091E692839181913110F08F7CC3
:1027A0008083F80148C0842F80660E94FB0B109242
:1027B000F0011092F1011092F2011092F301F80170
:1027C0009081892F82958F708F5F83708295807F33
:1027D0009F7C982B90838FE52DC0F80181818831F3
:1027E00021F4842F80680E94FB0BF80181818832DC
:1027F00019F580E11FC0F8018181803328F030E0B5
:102800003595279522831182F801228130E02150ED
:102810003040618170E0262337232115310561F4B2
:10282000842F80640E94FB0B07C0F80181818034F3
:1028300018F088E0828311820F90DF91CF911F9171
:102840000F91089586B380958E77E1F70E94FB0B78
:10285000089570939A0C6093990C9093980C8093C0
:10286000970C4F5F4093A102E39A8091E401882383
:1028700011F40895A8958091A1021816DCF308952B
:1028800084EA91E060E070E040E450E00E942914A6
:10289000089586EA91E062E070E041E050E00E9435
:1028A000291408956093F106682F70E0E4E0660F44
:1028B000771FEA95E1F781EF96E041E050E00E9452
:1028C0002914089590E0BC01660F771F680F791FE7
:1028D0006C5F7F4FCB018C559E4F43E050E00E94D0
:1028E00029140895CF93DF9300D000D0CDB7DEB781
:1028F000282F30E0F901EE0FFF1FE20FF31FDE017A
:102900001196E855FE4F93E001900D929150E1F73A
:10291000462F50E0F901EE0FFF1FE20FF31F9A015F
:10292000220F331FD901A40FB51FE855FE4FA8553C
:10293000BE4F93E00D9001929150E1F7F901E40F41
:10294000F51FE855FE4FDE01119693E00D900192C0
:102950009150E1F791E09093E4016C830E9462143E
:102960006C81862F0E9462141092E4010F900F90E8
:102970000F900F90DF91CF910895A998AB98AC98E4
:102980008BBBAD9AAD98AB9AA99A08951F93CF933C
:10299000DF9310E0C4EED7E084E00E94BD1480E134
:1029A0000E94BD14812F806B0E94BD14A998AB9A20
:1029B000AC98FE0180E891919BBBAD9AAD98815097
:1029C000D1F7C058DF4FAB9AA99A1F5F183021F793
:1029D000DF91CF911F910895CF93C82F81E80E9476
:1029E000BD148C2F0E94BD14CF910895EF92FF92D9
:1029F0000F931F93CF93DF93E82EF62E142F022F01
:102A0000442319F442EA57E011C0E22FF0E0EF014D
:102A1000C074D07026FD0CC0463121F44BE957E05C
:102A200021E027C04A3E21F44BE957E020E021C0D5
:102A300017FF08C08E2D82506F2D48E02EE50E94B2
:102A4000FE43119516317CF0209711F085E101C00D
:102A500086E1181B07FD07C08E2D8E5E6F2D4DE69B
:102A6000202F0E945845212F21508E2D6F2D44E399
:102A70005AE00E940549DF91CF911F910F91FF907D
:102A8000EF9008950F931F93CF93DF93182FD62FB6
:102A9000C42F022F47FF09C084E0841BC82F812F59
:102AA000865041E20E94584508C0453034F445EA5A
:102AB0005AE02C2F0E94054908C04C2F4450202F6B
:102AC0002064812F6D2F0E94F614DF91CF911F910A
:102AD0000F9108950F93942F022F91504EE458E0D8
:102AE000292F0E9405490F9108954F925F926F928E
:102AF0007F928F929F92AF92BF92CF92DF92EF928E
:102B0000FF920F931F93CF93DF93D82E65E045E696
:102B100056E129E002E515E0F0E1EF2EA0E1CA2E32
:102B20000E94AA37882309F4F9C080E060E043E6F8
:102B300055E022E00E94F2484090E8014A94E8E023
:102B4000EE2EAA24552447FC50944091050D4A0DC1
:102B5000842E9924E401CC0FDD1FCC0FDD1FC80D9E
:102B6000D91DCA5ADB4F5A818B819C81552329F08C
:102B700022273327281B390B01C09C01F401EE0FDB
:102B8000FF1FEE55FD4F80819181821B930B833394
:102B900091051CF0552351F4BFC02FEF8E3C9207D6
:102BA0001CF4552319F0B8C01DE201C01FE74F5FA8
:102BB00080E06E2D20E00E946E368DE46E2D412F58
:102BC00020E00E9458458091330385FF03C02DE724
:102BD000C22E02C094E6C92E10E0BC2CB194340180
:102BE000660C771C82EA92E0680E791E481459043C
:102BF00051F48091E701811731F48091060D181688
:102C00002CF002E001C000E0FF2403C003E0FF2439
:102C1000F394123009F44AC0133009F45DC0113046
:102C200079F14B815C81202F206280E36E2D0E9420
:102C30005937FF2069F06B817C818D2D48E15CEF75
:102C400028EE33E002E00E94C70C9C838B8358C0BF
:102C5000002309F455C090E8D91609F051C0F301DA
:102C6000808191812A81222319F0909581959F4F2F
:102C70009C838B831092060D82E00E94714640C0B7
:102C800048814456552747FD509588E46E2D202FE6
:102C90000E945937FF20A1F1688164568D2D4B2D7C
:102CA0002C2D0E94810D8C5988832AC049814C5952
:102CB000552747FD509586E66E2D202F0E945937E7
:102CC000FF20F1F069816C598D2D4B2D2C2D0E9428
:102CD000810D8456898314C08CE66E2D42EA57E03C
:102CE0002A810E940549FF2059F08D2D6A8140E01C
:102CF00021E00E94810D91E0882309F490E09A83FD
:102D00001F5F143009F072CFA394F8E0EF0E27E0B4
:102D1000A21609F01ACF02C01EE749CFDF91CF916A
:102D20001F910F91FF90EF90DF90CF90BF90AF90E9
:102D30009F908F907F906F905F904F9008954F92EB
:102D40005F926F927F928F929F92BF92CF92DF920B
:102D5000EF92FF920F931F93CF93DF93B82E68E00B
:102D600045E656E129E009E715E0EE24E394C0E1E9
:102D7000CC2E0E94AA37882309F4B6C080E060E018
:102D80004BE755E022E00E94F2484090E8014A9467
:102D900018E0DD24552447FC50948091050D8D0DDD
:102DA000803109F4A1C0682E7724E301CC0FDD1F28
:102DB000C60DD71DCE58DA4FFF244614570451F4E0
:102DC0008091E7018F1531F48091060D18162CF0D3
:102DD00002E001C000E0EE2403C003E0EE24E3942F
:102DE00081E0F816A9F082E0F81609F43FC083E00C
:102DF000612F4881202F0E94F614EE2009F469C04B
:102E00008B2D688145ED2BE20E94810D888361C086
:102E10008881882309F459C04981403140F44B5ED0
:102E200082E5612F202F0E94393620E00FC0453106
:102E300048F4403151F040518CE4612F202F0E9422
:102E4000393603C0242F235101C021E08CE1612FCA
:102E500049E559E00E940549EE20D9F18B2D6981A1
:102E600040E027E10E94810D898333C08881882357
:102E700061F12A818981863161F1873169F4822E7D
:102E800099248AE5612F4BE959E00E94054923E026
:102E900030E040E050E010C08031D8F4822E992418
:102EA00087FC90948EE7612FA401202F0E94593750
:102EB0002DE730E043E85FEFEE2059F08B2DB401B1
:102EC00002E00E94C70C8A8304C0002311F0109214
:102ED000E701F39483E0F81609F06FCFD394185FFD
:102EE00087E0D81609F059CFDF91CF911F910F914C
:102EF000FF90EF90DF90CF90BF909F908F907F904A
:102F00006F905F904F900895AF92BF92CF92DF92F3
:102F1000EF92FF920F931F93CF93DF93D82E67E02A
:102F200045E656E129E00BE615E0EE24E3947CE06B
:102F3000C72E0E94AA37882309F406C180E060E00A
:102F40004DE655E022E00E94F248A090E801AA94E4
:102F500038E0F32EEE24BB24A7FCB0940091050DBD
:102F60000E0D0C3009F4F0C0802F90E0A816B906C1
:102F700031F42091060D121624F413E003C010E082
:102F800001C012E0EC01CC0FDD1FC80FD91FC25BDE
:102F9000DA4F80E06F2D4FE45CE00E940149093078
:102FA00010F048E301C041E3400F8CE06F2D0E9418
:102FB0004B462A818091E701882311F000E001C08F
:102FC000012F87E16F2D46EF58E00E9405499A8155
:102FD0008091E7014881953020F0983008F4AAC02C
:102FE000AEC0813011F020E001C0212F86E46F2DAA
:102FF0000E94393698818091E7014981552747FD24
:103000005095953284F04E595F4F823011F000E0B8
:1030100001C0012F86E66F2D202F0E94763600E03A
:103020009FE730E838C0823011F020E001C0212F46
:1030300088E76F2D0E94593700E09DE733E82BC0E9
:10304000212F86E46F2D0E94F61449818091E701BB
:10305000823011F020E001C0212F86E66F2D0E9402
:10306000F61401E096E13AEE26E14AEE16C0212F71
:1030700086E46F2D0E94393649818091E7018230C4
:1030800011F020E001C0212F86E66F2D0E94393615
:1030900002E096E230E026E240E08091060D18164C
:1030A0000CF040C01123F1F18091E7018130F9F07B
:1030B000813018F08230B1F52EC08D2D6A8140E04C
:1030C0002DE00E94810D8A83202F30E0853028F08A
:1030D000883030F481E090E005C080E090E002C0EC
:1030E00082E090E028173907E9F0188212C01881B1
:1030F0008D2D612F0E94810D8883002399F48532E4
:1031000021F415327CF48EE90CC0843259F4153266
:103110004CF0198207C08D2D6981432F292F0E9401
:10312000810D8983E39488E0F80E87E0E81609F0C2
:1031300015CF0AC0813009F483CF20E082CF8130DF
:1031400009F495CF20E094CFDF91CF911F910F919B
:10315000FF90EF90DF90CF90BF90AF900895CF9207
:10316000EF92FF920F931F93CF93DF93F82E60E0BF
:1031700042E55CE026E00CE815E076E1E72EE6E1CA
:10318000CE2E0E94AA37882309F417C480E060E09D
:1031900043EA55E022E00E94F248D091E801809194
:1031A000050D8823A9F588E060EB75E00E94F948D9
:1031B00020914B06220F220F220F26FB220F220BFB
:1031C00020F92E5FD13011F402E001C000E08AE561
:1031D00068E046EC57E00E940549D130D9F460918F
:1031E0004B06660F660F660F66FB660F660B60F98F
:1031F0008F2D4EEF21E00E94900D8370880F880F75
:10320000880F90914B06977E982B90934B0602C0A7
:10321000C8E001C0C0E18091050D8230A0F58C2F7F
:103220006CEB75E00E94F948209155062295220F1B
:10323000207E259525952595259525952E5FD230BF
:1032400011F402E001C000E08AE56C2F4FED57E079
:103250000E940549D230B1F4609155066295660F1F
:10326000607E659565956595659565958F2D4EEFA5
:1032700022E00E94900D877090915506987F982BC0
:1032800090935506C85F8091050D833078F58C2F9B
:103290006AEC75E00E94F94820914E0626FB220F49
:1032A000220B20F92E5FD33011F402E001C000E0C0
:1032B0008AE56C2F46EC57E00E940549D330A9F40B
:1032C00060914E0666FB660F660B60F98F2D4EEF20
:1032D00021E00E94900D8295880F880F807C90914C
:1032E0004E069F73982B90934E06C85F8091050DF4
:1032F000843068F58C2F67ED75E00E94F9484091A5
:1033000055064695469546954770D43011F422E807
:1033100001C020E886E66C2F50E00E945937D43077
:10332000A9F46091550666956695669567708F2D30
:1033300040E025E00E94900D8770880F880F880F6D
:1033400090915506977C982B90935506C85F809175
:10335000050D8530F8F48C2F65EE75E00E94F94874
:1033600040913606D53011F422E801C020E886E607
:103370006C2F50E00E945937D53059F48F2D609151
:1033800036064AE02DE20E94900D809336060E9498
:10339000EC14C85F8091050D8630E8F48C2F6FEE39
:1033A00075E00E94F94840913706D63011F422E8C2
:1033B00001C020E886E66C2F50E00E945F37D630CF
:1033C00049F48F2D6091370648E228E70E94900D5E
:1033D00080933706C85F8091050D873050F58C2F9C
:1033E0006FEF75E00E94F94840914D06D73011F417
:1033F00022E801C020E886E66C2F50E00E94593791
:103400008091100D6C2F4DE60E944B46D73069F429
:1034100060914D068F2D70E040E050E02AEF30E0E3
:1034200001E00E94C70C80934D06C85FC93308F0C5
:10343000C4C28091050D883008F58C2F61E176E0DB
:103440000E94F94820914F06D83011F402E001C0E3
:1034500000E086E66C2F4EEF57E00E940549D83019
:1034600049F48F2D60914F0640E022E00E94900DBC
:1034700080934F06C85FC93308F09FC28091050D45
:10348000893028F58C2F6CE176E00E94F948409154
:103490004E06417021E0D93009F020E086E66C2F1D
:1034A0000E941449D93079F460914E0661708F2DD5
:1034B00040E021E00E94900D817090914E069E7F29
:1034C000982B90934E06C85FC93308F076C280915E
:1034D000050D8A3040F58C2F6AE276E00E94F948AB
:1034E00040914E064695417021E0DA3009F020E027
:1034F00086E66C2F0E941449DA3089F460914E06FA
:10350000669561708F2D40E021E00E94900D8170E2
:10351000880F90914E069D7F982B90934E06C85F22
:10352000C93308F04AC28091050D8B3058F58C2FB5
:1035300068E376E00E94F94840914E06469546952C
:10354000417021E0DB3009F020E086E66C2F0E941C
:103550001449DB3099F460914E066695669561706A
:103560008F2D40E021E00E94900D8170880F880F20
:1035700090914E069B7F982B90934E06C85FC9335F
:1035800008F01BC28091050D8C3070F58C2F66E41D
:1035900076E00E94F94840914E064695469546953C
:1035A000417021E0DC3009F020E086E66C2F0E94BB
:1035B0001449DC30A9F460914E06669566956695CF
:1035C00061708F2D40E021E00E94900D8170880F86
:1035D000880F880F90914E06977F982B90934E06F8
:1035E000C85FC93308F0E9C18091050D8D30F8F44A
:1035F0008C2F66E576E00E94F94840913906DD306F
:1036000011F422E001C020E086E66C2F0E94F6143F
:10361000DD3049F48F2D609139064AEE26E10E9493
:10362000900D80933906C85FC93308F0C6C18091F8
:10363000050D8E30E8F58C2F66E676E00E94F9489D
:10364000209150062223C9F030E0C901880F991F4C
:10365000880F991F820F931FAC01DE3011F422E80E
:1036600001C020E886E66C2F0E9459378091100D2A
:103670006C2F43E70E944B460CC0DE3011F402E091
:1036800001C000E086E66C2F4BE957E020E00E9485
:103690000549DE3049F48F2D6091500640E028E75F
:1036A0000E94900D80935006C85FC93308F085C111
:1036B0008091050D8F3050F500914E0602950F70E8
:1036C000009501708C2F68E776E00E94F94821E0B0
:1036D000DF3009F020E086E66C2F402F0E9414496D
:1036E000DF3081F48F2D602F40E021E00E94900DAB
:1036F000809581708295807F90914E069F7E982B59
:1037000090934E06C85FC93308F057C18091050DEC
:10371000803130F500914B06009501708C2F68E8E0
:1037200076E00E94F94821E0D03109F020E086E6F9
:103730006C2F402F0E941449D03171F48F2D602FCF
:1037400040E021E00E94900D8095817090914B06A1
:103750009E7F982B90934B06C85FC93308F02DC10C
:103760008091050D8131B0F58C2F63E976E00E94E0
:10377000F94820914B062295220F207E26FB220F2E
:10378000220B20F92F5FD13111F402E001C000E0DB
:1037900086E66C2F4BE058E00E940549D131B1F428
:1037A00060914B066295660F607E66FB660F660B46
:1037B00060F98F2D4FEF21E00E94900D8370880FEC
:1037C00090914B06997F982B90934B06C85FC93315
:1037D00008F0F3C08091050D823170F500914B0621
:1037E0000295069506950370009501708C2F60EA8E
:1037F00076E00E94F94821E0D23109F020E086E627
:103800006C2F402F0E941449D23191F48F2D602FDC
:1038100040E021E00E94900D809581708295880F94
:10382000880F807C90914B069F7B982B90934B0642
:10383000C85FC93308F0C1C08091050D833158F5C8
:1038400080914B06881F8827881F01E0081B8C2F5A
:103850006FEA76E00E94F94821E0D33109F020E0D8
:1038600086E66C2F402F0E941449D33181F48F2DAE
:10387000602F40E021E00E94900D80958795882779
:10388000879590914B069F77982B90934B06C85F36
:10389000C93308F092C08091050D843150F5D431C0
:1038A00011F412E001C010E08C2F6DEB76E00E9465
:1038B000F94806E6E02E01E0802F0E942249482FB9
:1038C0008E2D6C2F212F0E946A150F5F86E0E80E67
:1038D000053091F7112349F08F2D6091510640E09A
:1038E00027E10E94900D80935106C85FC93308F00C
:1038F00064C08091050D853108F05FC086E06C2FB3
:1039000046E957E00E94014914E200E0812F6C2F44
:103910004CEC56E0202F0E94D3390F5F185E043024
:10392000A9F7B8E0EB2EEC0E88E38E1508F445C03D
:1039300040914C0643704F5CD63131F48091060DB6
:10394000181624F423E003C020E001C022E082E145
:103950006E2D0E945845C4E200E010E0E0914C0654
:10396000E370F0E0EE0FFF1FEE0FFF1FE00FF11FFF
:10397000E457FF4F44918C2F6E2D20E00E94393682
:103980000F5F1F4FC85EC43849F760914C066370E3
:10399000D63189F48091060D18166CF48F2D40E015
:1039A00023E00E94900D837090914C069C7F982B91
:1039B00090934C0602C06093EB01DF91CF911F9171
:1039C0000F91FF90EF90CF900895CF92EF920F93C9
:1039D0001F93C02E00E010E0EE240E94AA371F9132
:1039E0000F91EF90CF9008956F927F929F92AF9238
:1039F000BF92CF92DF92EF92FF920F931F93CF93DC
:103A0000DF93C82F66E045E656E129E000E10E9419
:103A1000E51C882309F493C080E060E045E257E0AC
:103A200022E00E94F2486090E8016A94C03611F0EA
:103A3000C43641F467FC06C06092F4068EE094E25E
:103A40000E942031BB249924DD24D39438E0C32E76
:103A5000772467FC70942091050D2B0DE22EFF2436
:103A60006E147F0411F402E001C000E0AA24A394C4
:103A7000283028F4AA2487E08D1528F459C0E6E000
:103A8000ED1508F455C0992009F4902E2F5F80E0C1
:103A90006C2D4DE257E00E94B035AA2069F0C701B5
:103AA0000897EC0123E0CC0FDD1F2A95E1F7C80F42
:103AB000D91FCA5FDA4F09C0E701CC0FDD1FCC0F59
:103AC000DD1FCE0DDF1DC252DB4F7E011CE2F70170
:103AD00041917F01552747FD5095812F6C2D20E0A6
:103AE0000E9459371B5E153991F788E0E82EEC0CDF
:103AF000AA2019F4D394CE2C16C08E010B5F1F4F51
:103B0000CCE2F80141918F01552747FD50958C2F4C
:103B10006E2D20E00E945937CB5EC03891F7F0E15E
:103B2000CF0E82E0D80EB394E7E0BE1609F093CF33
:103B3000992029F48091050D8F5F8093050DDF9109
:103B4000CF911F910F91FF90EF90DF90CF90BF909A
:103B5000AF909F907F906F9008950F9362E042E541
:103B60005CE026E000E00E94E51C882341F180E053
:103B700060E040E357E022E00E94F24880E168E321
:103B800077E00E94F94888E165E477E00E94F9480F
:103B900080E267E577E00E94F94888E268E677E02E
:103BA0000E94F94888E367E777E00E94F94840916E
:103BB000080680E368E350E020E80E9459370F913F
:103BC0000895EF92FF920F931F93CF93DF9363E0DB
:103BD00042E55CE026E000E00E94E51C882309F451
:103BE00079C080E060E040E857E022E00E94F248BF
:103BF000CEE0D0E010E0143020F048EFF42EF00ECC
:103C000001C0F02ECE010E94670CE82E1F5F80E3FA
:103C10006F2D412F20E00E94F6144E2D405DEE20C6
:103C200011F022E001C020E084E46F2D0E9458458D
:103C3000085F21961930F9F6D8E3C0E08C2F90E0A8
:103C40000E94670C182F80E06D2F45E15AE02C2F61
:103C500000E00E940549412F405D80E26D2F212F39
:103C60000E945845CF5FD850C63041F784E568E1DF
:103C700045E857E00E940149C6E0D0E010E284E543
:103C8000612F4CEC56E0202F0E94D339CE010E94C8
:103C9000670CE82ECE0101960E94670CF82E4E2D7F
:103CA000405DEE2011F022E001C020E08CE6612FA3
:103CB0000E9458454F2D405DFF2011F022E001C0C9
:103CC00020E088E7612F0E9458450F5F185F229619
:103CD0000430A9F6DF91CF911F910F91FF90EF90E3
:103CE00008956F927F928F929F92AF92BF92CF92E0
:103CF000DF92EF92FF920F931F93CF93DF930F9278
:103D0000CDB7DEB7E82E64E042E55CE026E001E0F6
:103D10000E94E51C882309F4A0C080E060E04DE823
:103D200057E022E00E94F2486FE7C62E62E0D62EEE
:103D300077246624812C74E0972EA12CB12C01C02D
:103D40006F2CF62CF39488E1672D41E957E02F2D75
:103D500000E00E94B035862D0E94CC468C0194E490
:103D60009550402F4F704A3014F0495C01C0405DBF
:103D7000413414F028E001C020E0892F672D998399
:103D80000E94584554E0169507955A95E1F7998198
:103D9000903331F747E06416B9F0F6016081718124
:103DA000882777FD8095982F24E630E040E050E0AA
:103DB0000E94265FA50194010E949A5F86E6672D06
:103DC000422F0E9439390FC04091F4015091F50102
:103DD0008091E801813011F422E001C020E086E604
:103DE000672D0E945F37F8E07F0E42E050E0C40E7E
:103DF000D51EFF1609F0A4CF82E768E243E957E039
:103E00000E94014940910306509104068EE760E349
:103E100020E00E94593787E00E94CC4623E230E040
:103E2000FC01E29FC001E39F900DF29F900D1124D1
:103E3000492F46958EE768E350E020E20E9459370B
:103E40008091E801813049F48E2D6091380641E877
:103E50002FE70E94900D809338060F90DF91CF914D
:103E60001F910F91FF90EF90DF90CF90BF90AF9098
:103E70009F908F907F906F9008952F923F924F92D6
:103E80005F926F927F928F929F92AF92BF92CF92EA
:103E9000DF92EF92FF920F931F93CF93DF9300D0A7
:103EA0000F92CDB7DEB7D82E69838091090D90911E
:103EB0000A0D009711F0BB2401C0B9803FE1F32E39
:103EC000FB2080910B0D882331F021E01B2DF21691
:103ED00019F4115001C01B2DDD2019F04CEF56E1F3
:103EE00002C046E157E080E060E022E00E94F24834
:103EF0008D2D0E948647482F8091100D815F60E0D4
:103F000050E020E00E9459378091100DDD2019F01B
:103F10004DE157E002C041E257E060E00E940149F4
:103F2000DD2011F063E001C064E000911601015052
:103F3000812F45E656E129E00E94E51C882309F41B
:103F400057C49090E80183E68B15A0F0E2E6BE1618
:103F500008F0FBC0F1E2BF1699F1FB1528F020E252
:103F6000B21609F068C156C08B2D8254823008F019
:103F700062C1EBC085E88B1568F0E4E8BE1608F076
:103F8000A4C0F0E8BF1609F473C021E8B21609F026
:103F900052C106C08B2D8E5B823008F04CC16FC0C1
:103FA00080910B0D882349F08091080D882329F416
:103FB0008D2D6091030D0E94762C81E80E94560C95
:103FC0008091080D882309F45AC080910B0D81302F
:103FD00031F48D2D6091030D0E94762C16C061E0A6
:103FE0008091080D18160CF060E08D2D0E94BE2BFC
:103FF0008091080D87FF02C08F5F01C081508093C0
:10400000080D8091080D882351F79090070D90922C
:10401000E80135C08091110D882341F080910B0D8E
:10402000882331F18091080D882311F580910B0DC3
:10403000813011F482E001C081E080930B0D80910A
:10404000030D8093F206DD2041F00E947E47FC01C3
:10405000808186958695837005C00E947147FC011A
:1040600080818F708F5F8093F3069092070DE3C07D
:104070008B2D0E94560C8091080D882329F01092F8
:104080000B0D1092080DD7C080910B0D882311F0F5
:104090001092110D8091110D882359F08D2D0E94E1
:1040A000A847882309F0C7C08D2D6091030D0E9499
:1040B000C92CDD2019F088EA9FE402C08EE591E565
:1040C0000E94203110920B0D93C380910B0D882319
:1040D00009F4B1C08091080D882309F0ACC08D2D82
:1040E0000E94A847882309F0A6C08091030DDD2017
:1040F00041F00E947E47FC01808186958695837001
:1041000005C00E947147FC0180818F708F5F809392
:10411000110DF4E8BF1629F48091030D8F5F809391
:10412000030D8D2D6091030D0E94C92CDD2019F027
:1041300088EA9FE402C08EE591E50E94203110924A
:104140000B0D8B2D0E94560C53C380910B0D8823B1
:1041500009F471C09091080D23E0192FF21611F4A3
:10416000115001C01F5F992309F048C0813009F048
:1041700045C08D2D0E94A847882309F05CC000919E
:10418000030D802FDD2079F00E947E47BC01402F77
:1041900050E040955095425F5F4F440F551F440FCC
:1041A000551F049612C00E947147BC01802F90E0F9
:1041B000809590958096AC0103E0440F551F0A95B9
:1041C000E1F7480F591FCB0109960E94B55F82E0C5
:1041D0000E94714682E0F81621F48091030D8F5FF2
:1041E0001CC02091050D892D90E0821B910986301D
:1041F0009105FCF02F5F2093050D1BC0112381F466
:10420000813071F48D2D6091030D0E94762CE3E0D6
:10421000FE1679F48091030D81508093030D09C03F
:1042200061E0F3E0FF1260E08D2D0E94BE2B882339
:1042300011F01093080D1092110DAA24A394CC2410
:10424000FF24F39497C2DD20B1F02DE02C1530F15E
:104250008C2D0E947E472C01FC012081822F8695A7
:104260008695837090E0019682159305B9F42370CA
:1042700009F0B3C213C0FFE1FC1580F08C2D0E9441
:1042800071473C01FC0186818F7741F080818F70FE
:1042900090E001968215930509F4A2C29F1409F0DB
:1042A00032C229C26F2D70E0681B71096830710538
:1042B0006CF4660F660F660F80E04A2D20E0DD206B
:1042C00019F00E94393602C00E946E36882403C05D
:1042D0002B013A01F22E80910B0D8823D9F1823007
:1042E00079F58091050D8F1558F56F2D70E0681BDD
:1042F00071096830710524F58091F3068A1501F57E
:104300008091080D8823E1F02C2D30E04091F206D9
:10431000992787FD90958827990F881F9927840FE3
:10432000911D2817390761F4660F660F660F6150FB
:1043300086E14AE629E005E5EE240E94B444F394C0
:104340008091030D8C1559F4F092E801A092110DA3
:104350009F2C05C09F1419F4C092030DF92C2091D5
:10436000050D2F1508F062C18F2D90E0821B910979
:10437000883091050CF05AC1182F110F110F110F31
:104380008C2DDD2009F4AAC00E947E479B838A837E
:1043900080910B0D882311F49F1411F000E001C0EF
:1043A00002E0EA81FB814281469582E2612F50E082
:1043B000202F0E945937002381F0EA81FB8162811E
:1043C00066958B2D40E024E60E94810D880FEA81DE
:1043D000FB8192819170982B9283EA81FB814381CA
:1043E000552747FD509587E3612F20E00E945937FC
:1043F000EA81FB818281418142954695477080FD2B
:1044000041958CE3612F20E00E94FA35EA81FB811F
:104410004181440F440F440F45954595459582E5EC
:10442000612F20E00E94F614EA81FB818081837075
:10443000833049F0823011F44EE701C04FE786E641
:10444000612F0E944B46EA81FB814081842F807F4F
:1044500081F042954F70842F90E08B30910514F0DD
:1044600084E001C080E0480F8EE6612F20E00E94CA
:10447000D23540910B0D442309F4D8C0413021F0CE
:104480008091080D882319F58091F3068A15F9F4B7
:104490002C2D30E05091F2068091080D992787FD70
:1044A00090958827990F881F9927850F911D2817A8
:1044B000390769F4612F6150413011F40FEF01C0E9
:1044C00005E582E14EE629E0EE240E94B444F914A9
:1044D00009F0ACC083E1612F4CE6A4C00E94714793
:1044E0009B838A83882069F0FC012281229526958E
:1044F0002695237086E0612F4CED58E000E00E9485
:104500000549EA81FB8146814F778AE1612F20E0EE
:104510000E94623680910B0D882311F49F1411F0D4
:1045200000E001C002E0EA81FB814181552747FD9F
:10453000509589E4612F202F0E945937002359F0AC
:104540008B2DEA81FB81618143E82DE70E94810D7B
:10455000EA81FB818183EA81FB814381842F8F7310
:1045600049F0440F440F459545958FE4612F20E0B5
:104570000E94D235EA81FB814281842F8F7349F0FA
:10458000440F440F4595459586E6612F20E00E9433
:10459000F614EA81FB818581882311F440E201C091
:1045A00043E5EA81FB818481882329F0433511F4B6
:1045B0004AE201C044E48BE7612F20E00E945845A5
:1045C00040910B0D442391F1413021F08091080D71
:1045D000882319F58091F3068A15F9F42C2D30E023
:1045E0005091F2068091080D992787FD90958827B4
:1045F000990F881F9927850F911D2817390769F48E
:10460000612F6150413011F40FEF01C005E586E1E3
:104610004AE629E0EE240E94B444F91439F487E113
:10462000612F48E627E000E00E94EF332F2D2F5F37
:104630008394C394A301475F5F4FB2016C5F7F4FC8
:10464000DD2091F0FDE0FC15F0F0F2013481832FC4
:1046500086958695837090E001968215930599F46E
:10466000337009F035CE0FC0FFE1FC1560F0F301A7
:1046700087858F7741F081858F7090E00196821554
:10468000930509F425CE80910B0D823009F070C09E
:104690008091050D821708F06BC0622F70E0681BD7
:1046A0007109683071050CF063C08091F3068A15BA
:1046B00009F05EC04C2D50E03091F2068091080D5B
:1046C000992787FD90958827990F881F9927830F31
:1046D000911D4817590709F04BC0660F660F660F0A
:1046E000615086E14AE629E005E5EE240E94B444E3
:1046F0002F2D2E5F3DC0C092030DA092110D809111
:104700000B0D882311F020E001C022E08091050DFF
:104710008F1560F50F2D10E0B801681B7109683026
:10472000710524F5660F660F660F80E04A2DDD20C7
:1047300019F00E94393602C00E946E3680910B0D2E
:104740008230A1F48091F3068A1581F48091050DE1
:10475000B801681B7109660F660F660F615086E12C
:104760004AE629E005E5EE240E94B4442F2D2F5F90
:10477000A394F22E2A2C3324DD2019F084E090E05B
:1047800002C080E190E0821593050CF05CCDF092C0
:104790001601292D30E08F2D90E001972817390759
:1047A0001CF0FA94F092E8018091090D90910A0DA5
:1047B0000097F1F00E945F3480E168E248E856E13A
:1047C0000E940149F981F13699F481E60E94560C64
:1047D00010920A0D1092090D0BC06624772402C0B6
:1047E000442455248091050D8F1508F45BCD6ECDC2
:1047F0000F900F900F90DF91CF911F910F91FF902D
:10480000EF90DF90CF90BF90AF909F908F907F9070
:104810006F905F904F903F902F9008954F925F92CE
:104820006F927F928F929F92AF92BF92CF92DF92C0
:10483000EF92FF920F931F93CF93DF9300D0CDB7EA
:10484000DEB7182F80E060E042E35BE022E00E94E8
:10485000F2480091F406C02EDD24A6014F5F5F4FA1
:104860008FE160E022E80E94593789E70E942734EF
:10487000083088F0C60108977C0123E0EE0CFF1C8D
:104880002A95E1F7E80EF91E86E095E0E80EF91E9C
:1048900039E0B32E0DC07601EE0CFF1CEE0CFF1CB0
:1048A000EC0CFD1CAEEDB4E0EA0EFB1E05E0B02EF4
:1048B000113609F477C0123640F4153409F488C073
:1048C000103671F01434E1F491C0153609F480C04B
:1048D0001F3B19F01436A1F489C01092F50669C087
:1048E0008091060D181664F08091E701813061F027
:1048F000813018F0823021F449C081E08093060DA8
:10490000670130EE00E0A6C08091F5068F5F8093CE
:10491000F50685301CF08CEF8093F5068B2D86957F
:1049200090E04091F506242F332727FD309552E380
:10493000450230011124CE2C2701E0E0F0E09095F3
:1049400081959F4F829FA001839F500D929F500D94
:10495000112482E390E0489F4001499F900C589FAA
:10496000900C11242B2D30E021503040CF01880DC8
:10497000991DB9010E94655FD2016D932D01E60D6D
:10498000F71D8A2F8C198B1588F3BACF8CE9F701A4
:104990008083EB0DF11D319784E6808381E0809365
:1049A000F606AECF81E60E94560C8091F60688236B
:1049B00019F01092F606A4CF8091060D18162CF46B
:1049C0001092E7011092060D9BCF0E94FB3098CF0A
:1049D0008091F606882309F093CF8091E701882320
:1049E00009F48ECF81508093E7018ACF8091F6063B
:1049F000882309F085CF0091E701C02EDD24809146
:104A0000060D181624F48B2D90E001971BC0E09141
:104A1000EE01F0E0EE0FFF1FEB5AF94F808191811C
:104A2000FFE4883A9F0749F48091030D0E947E4776
:104A3000DC018C918C70883019F081E090E002C02C
:104A400082E090E0C816D9060CF05ACF0F5F0093B1
:104A5000E70156CF632F053018F4685D88E101C087
:104A600080E39091060D191624F49091E7019017B8
:104A700011F020E001C022E0F60141916F015527BD
:104A800047FD50953A830E9459370F5F3A81385F4E
:104A90000B1500F380E068E346E957E00E94014906
:104AA0008091060D91E018160CF490E02091E7013A
:104AB000929F202D1124181624F08091F606882349
:104AC00011F000E001C002E08CE168E348E858E042
:104AD0000E9405498091060D18166CF48B2D869561
:104AE000782EAA24662468E3862E6FEF962E7EE940
:104AF000472E410E05C08091F606882379F75BC0EA
:104B0000E62DF0E0CF0125E0880F991F2A95E1F707
:104B1000672D7A2D0E94655F462F6701CE0EDF1E3E
:104B2000D6012C91332727FD3095C90156E0880F17
:104B3000991F5A95E1F7821B930B8456974EB40147
:104B40000E94655F2091F606222361F030E0CF01DC
:104B500001962817390759F5635C842F845C45E07A
:104B600025E022C08091E7018615C9F4635C842F9B
:104B7000845C45E025E000E00E94EF33B1E0B4152D
:104B800020F4123411F0133491F4812FF601608176
:104B90004CE924E60E94810DD6018C9308C0625C2A
:104BA000842F835C43E023E000E00E94EF336394B2
:104BB0006B1408F4A5CF8AE993E40E940E450F9088
:104BC0000F90DF91CF911F910F91FF90EF90DF90A9
:104BD000CF90BF90AF909F908F907F906F905F909D
:104BE0004F9008956F927F928F929F92BF92CF9233
:104BF000DF92EF92FF920F931F93CF93DF93D82E04
:104C000061E042E55CE026E009E31BE0D5E0ED2E43
:104C100096E0C92E0E94AA37882309F414C180E0C7
:104C200060E04FE35BE022E00E94F2488091630085
:104C300081FF07C08AE268E147E45BE00E94014926
:104C400002C182E168E04FE45BE00E94014980918B
:104C5000060D18161CF4C3E0CC2E02C0B2E0CB2E19
:104C6000BB24B394A0E1EA2E8B2D0E942249482F49
:104C7000C82FD0E0CC0FDD1FC05CD94F80E06E2D77
:104C800020E00E94393610E08091E8018B1551F444
:104C90008091E701811731F48091060D18162CF0F0
:104CA00081E001C080E0FF2403C081E0FF24F39491
:104CB000113031F128811230D1F1229526952695B7
:104CC0002370882311F400E001C00C2D88E16E2DC3
:104CD00048E158E00E940549FF2009F442C068817C
:104CE00062956695669563708D2D40E022E00E9486
:104CF000900D8295880F880F807C98819F732FC0BC
:104D00004981552747FD5095882311F420E001C0C3
:104D10002C2D82E46E2D0E945937FF2011F16981FC
:104D20008D2D4CE924E60E94900D89831AC02F73C3
:104D3000882311F400E001C00C2D88E46E2D42E2BE
:104D400058E00E940549FF2061F068816F738D2D46
:104D500040E023E00E94900D8F739881907C982B07
:104D600098831F5F133009F08FCF88E0E80EC1E011
:104D70008091E801853009F0C0E080E060E34AE519
:104D80005BE00E94014940915206552747FD50952E
:104D9000465F5F4FCC2311F022E201C020E28EE497
:104DA00060E30E945937CC2349F08D2D6091520663
:104DB00046EF28E20E94900D8093520611E0809108
:104DC000E801863019F010E020E001C022E080E028
:104DD00068E346E65BE00E94F24877E8872E7CE0D5
:104DE000972EEAE36E2EE6E07E2EC0E3F4014191B9
:104DF00051914F01F301819191913F01481B590B52
:104E0000440F551F8C2F68E320E20E945937C85E7B
:104E1000C03961F7112391F0F0E6DF1679F4AAE3C7
:104E2000B6E0E7E8FCE088E001900D928150E1F700
:104E300081E00E94714680E00E941C0CB39480E3E4
:104E4000E81609F011CFDF91CF911F910F91FF90DC
:104E5000EF90DF90CF90BF909F908F907F906F905A
:104E60000895AF92BF92CF92DF92EF92FF920F938D
:104E70001F93CF93DF93B82EA62E6A01F22EC02F78
:104E8000EE2021F08091060D181614F400E201C006
:104E900002E28B2D6A2DA6012F2D0E949948EE204B
:104EA00009F471C08091060D18160CF06AC01091BB
:104EB000E701F601E10FF11DD0818C2F825682307F
:104EC00020F0C23411F0C334D9F46D2F772767FD79
:104ED000709577FF03C0709561957F4F772767FDC9
:104EE00070958C2F40E050E028E230E000E00E9416
:104EF000C70CE82ED7FDE19482E00E947146DE2DBA
:104F0000C53251F0C63218F4C43211F509C08C2FE5
:104F100084588230E8F40FC01123D1F0115018C02A
:104F2000812F90E02F2D30E02150304082179307E1
:104F30007CF41F5F0DC08D2F865E853348F4D195BC
:104F400082E00E947146C53819F485E00E94560C33
:104F50008091E701F601E80FF11DD0838091E70110
:104F6000C82FCC0FC80FCC0FCB0D8D2F0E947848C7
:104F7000482F8C2F6A2D22E00E9458451093E7019C
:104F800002C01092E701DF91CF911F910F91FF9026
:104F9000EF90DF90CF90BF90AF9008954F925F92C7
:104FA0006F927F928F929F92BF92CF92DF92EF92F9
:104FB000FF920F931F93CF93DF93F82E4091350606
:104FC00050E04F5F5F4F8AE260E022E102E00E9422
:104FD0008F3480913203877021F0823011F081305C
:104FE00011F49BE001C09AE08F2D61E045E656E1A7
:104FF00029E00CEC1AE07BE0E72EC92E0E94AA37CC
:10500000882309F4ABC380E060E048ED5AE022E079
:105010000E94F248D091E8018091050D8823A1F407
:1050200068E04DE756E10E940149EE24E394D13057
:1050300009F0EE2488E368E042E253E02AE00F2D15
:105040000E943127C0E101C0C8E08824992452E0C1
:10505000B52E6CE3662E712C8091050D8B1508F032
:1050600093C06401CC0CDD1CC80CD91C8CE293E00D
:10507000C80ED91E282D2F5F80E06C2F4EED5AE010
:1050800000E00E94B035F6014081DB1551F48091BB
:10509000E701882331F48091060D181624F423E0EB
:1050A00003C020E001C022E088E36C2F0E9442157B
:1050B000F60141815281DB1509F04BC38091E70174
:1050C000813009F043C38091060D18160CF043C3DC
:1050D00023E042C38091060D20E0181614F403E08B
:1050E00001C002E084E56C2F0E947636DB1509F0E2
:1050F00047C08091060D18160CF042C0F6010181E0
:1051000012818091E701813079F0813018F082308E
:10511000A1F51BC08F2DF601608146ED2EE20E94A5
:10512000810DF601808329C0C801B3010E94515F3F
:105130002C018F2D40E02BE30E94810DFCE38F02B8
:1051400080011124040D151D18C0C801B3010E946F
:10515000515F32E0E32EE80E8F2D6E2D41E02EE3FD
:105160000E94810DE81A6E2D772767FD7095061B4A
:10517000170B17FF02C000E010E0F6011283018355
:10518000C85FC93308F0EAC2B3940894811C911C2B
:10519000F4E0BF1609F060CF8091050D843060F512
:1051A0008C2F65EE7AE00E94F948409133034295D6
:1051B0004695417021E0D43009F020E088E36C2F5F
:1051C0000E941449D430A1F460913303629566952E
:1051D00061708F2D40E021E00E94810D81708295E9
:1051E000880F807E909133039F7D982B909333039B
:1051F000C85FC93308F0B2C28091050D853078F5DB
:105200008C2F6FEE7AE00E94F9484091330342956B
:1052100046954695417021E0D53009F020E088E3BD
:105220006C2F0E941449D530B1F46091330362951C
:105230006695669561708F2D40E021E00E94810D9A
:1052400081708295880F880F807C909133039F7BBB
:10525000982B90933303C85FC93308F07FC28091C5
:10526000050D863040F58C2F67EF7AE00E94F948F3
:10527000209133032770D63011F402E001C000E022
:1052800088E36C2F4FE258E00E940549D63079F44C
:105290006091330367708F2D40E024E00E94810D00
:1052A000877090913303987F982B90933303C85F56
:1052B000C93308F053C28091050D873040F58C2F1B
:1052C00060E07BE00E94F9484091FE05443010F018
:1052D0004F5E05C0442311F04C5F01C043E0D7305E
:1052E00011F422E001C020E088E36C2F0E943936DF
:1052F000D73049F48F2D6091FE0540E023E10E94F4
:10530000810D8093FE05C85FC93308F027C28091E4
:10531000050D883088F58C2F68E07BE00E94F94805
:10532000409132034695469546954170D83021F418
:1053300021E08091E701811120E088E36C2F0E9439
:105340001449D830A9F46091320366956695669544
:1053500061708F2D40E021E00E94810D8170880FE7
:10536000880F880F90913203977F982B9093320388
:10537000C85FC93308F0F2C18091050D893008F08B
:1053800049C08C2F6FE07BE00E94F94818E3CC24E1
:10539000DD242C2D8091E7018C1511F4D93069F0B2
:1053A0004091350350E00C2C02C0559547950A9466
:1053B000E2F740FF04C002E003C003E001C000E0E8
:1053C000812F6C2F4EE458E00E9405490894C11CBF
:1053D000D11C1A5F1236E9F6D930C1F480E6F8160E
:1053E000A9F40E94560C1092060D81E090E0009006
:1053F000E70102C0880F991F0A94E2F790913503E4
:1054000098279093350382E00E947146C85FC933A4
:1054100008F0A4C18091050D8A3008F0E6C08C2FF9
:1054200067E17BE00E94F948209132032770DA306F
:1054300051F48091E701882331F48091060D18160C
:1054400024F403E003C000E001C002E088E36C2F15
:1054500046E558E00E94054920913203822F87706B
:10546000E1F525952595259525952E5FDA3051F4A2
:105470008091E701813031F48091060D181624F4F3
:1054800003E003C000E001C002E080E56C2F49EAC0
:1054900057E00E9405498AE76C2F4DE15BE00E94CE
:1054A00001494091340382E34802A0011124445D84
:1054B0005E4FDA3051F48091E701823031F480910F
:1054C000060D181624F423E003C020E001C022E0FA
:1054D0008AE76C2F0E9459373CC08230A1F5809139
:1054E000E701823018F081E08093E70120913203D8
:1054F000259525952595259527FD03C023301CF47A
:1055000003C020E001C022E0922F9295907F80910D
:1055100032038F70892B80933203DA3051F48091FB
:10552000E701813031F48091060D181624F403E070
:1055300003C000E001C002E086E56C2F45EB5AE0B5
:105540000E94054906C0DA3009F04BC01092E7010D
:1055500003C0DA3009F045C08091060D181634F00A
:10556000809132038770E9F18230D9F18091E701AF
:10557000813091F0813018F0823099F529C0609126
:10558000320367708F2D40E023E00E94810D877009
:1055900090913203987F14C060913203862F8770F8
:1055A0006595659565956595823071F48F2D40E020
:1055B00022E00E94810D8295807F909132039F703E
:1055C000982B909332030DC08F2D4EEF24E0F1CF36
:1055D0008F2D609134034CEF2AE00E94810D80935F
:1055E0003403C85FC93308F0B9C08091050D8B3012
:1055F00008F0B4C080913203877009F06CC08C2F22
:105600006FE17BE00E94F9488AE46C2F49E25BE09D
:105610000E9401498091FD05992787FD9095AC0175
:10562000440F551F440F551F480F591F4F515F4FCF
:10563000DB3051F48091E701882331F48091060D2D
:10564000181624F423EA03C020EA01C022EA88E302
:105650006C2F0E9459372091330322952170DB3043
:1056600021F48091E701813011F000E001C002E0F7
:105670008CE56C2F4BE658E00E940549DB3009F0C1
:105680006DC08091060D18160CF068C08091E7017E
:10569000882321F0813009F061C00AC08F2D60910C
:1056A000FD054CEE24E10E94810D8093FD0556C05E
:1056B00060913303629561708F2D40E021E00E947C
:1056C000810D81708295807F909133039F7E982B0E
:1056D0009093330343C08150823008F03FC08C2F39
:1056E0006CE27BE00E94F94880913203877082303F
:1056F00011F488E301C086E24091FF05DB3051F4EC
:105700009091E701992331F49091060D191624F434
:1057100023E903C020E901C022E96C2F50E002E038
:105720000E948F34DB30D1F48091060D1816B4F44A
:105730008091E701882391F48F2D6091FF0540E06F
:1057400023E60E94810D8093FF0508C0823009F492
:10575000C1CC20E001C022E000E0C4CCDF91CF91B9
:105760001F910F91FF90EF90DF90CF90BF909F908F
:105770008F907F906F905F904F900895EF92FF927F
:105780000F931F93CF93DF930F92CDB7DEB7062F02
:105790001091030D882309F459C0812F0E947E4780
:1057A0007C01002311F0115001C01F5FD7012C9123
:1057B00017FF0DC0822F8C7009F48EC0822F869542
:1057C00086958D5F8370880F880F237F52C01E30AF
:1057D00071F4822F8C708C3009F47EC0822F8695F4
:1057E00086958F5F8370880F880F237F65C0812F18
:1057F00029830E947E47FC018081298128272C7003
:1058000011F48370F9F4D7019C91892F86958695C0
:105810008370002359F0882309F45EC08D5F837084
:10582000880F880F937F982B9C9349C0833009F48D
:1058300053C08F5F8370880F880F937F982BF70179
:1058400090833DC0C701BF0144E041C0812F0E9449
:1058500071477C01002311F0115001C01F5FD70177
:105860002C9117FF09C0822F8F70B1F1815F8F706B
:10587000207F282B2C9323C0103219F4822F8F7095
:1058800016C0812F29830E947147FC0180812981E4
:1058900082278F70C9F0822F8F70002341F08823F8
:1058A000D9F0815F8F70207F282BD701E3CF8F3015
:1058B00099F08F5F8F70207F282BF701208311E0F4
:1058C00082E00E94714609C0C701BF0149E00E9401
:1058D00077461093030DF3CF10E0812F0F90DF91E7
:1058E000CF911F910F91FF90EF9008950F931F9309
:1058F000CF93DF93162F062F0F5F882301F1862F9A
:105900000E947E47EC01802F0E947E479C01412F20
:1059100050E040955095425F5F4F440F551F440F34
:10592000551FCE01B9010E94B55F8DE00E947E47F0
:10593000DC011D921D921D921C92139722C0862F8E
:105940000E947147EC01802F0E9471479C01812FBA
:1059500090E0809590958096AC0163E0440F551FD0
:105960006A95E1F7480F591FCE01B9010E94B55F52
:105970008FE10E947147FC0189E0DF011D928A9549
:10598000E9F782E00E947146DF91CF911F910F915C
:1059900008951F93CF93DF93162F882329F1862F25
:1059A0000E947E47EC01412F50E040955095425FA8
:1059B0005F4F440F551F440F551F0496BE010E94B0
:1059C000B55F188219821A821B8293E098838091B6
:1059D000110D81508370880F880F892B88838A81ED
:1059E0008170886C8A832FC0862F0E947147EC01DA
:1059F000812F90E0809590958096AC01E3E0440F74
:105A0000551FEA95E1F7480F591FCE010996BE01CF
:105A10000E94B55F89E0FE0111928A95E9F78091B5
:105A2000110D282F21502F709881907F922B9883F1
:105A3000853014F40E9422498F779E819078982BAC
:105A40009E8384E6898382E00E947146DF91CF9134
:105A50001F9108952F923F924F925F926F927F9283
:105A60008F929F92AF92BF92CF92DF92EF92FF926E
:105A70000F931F93CF93DF93CDB7DEB72B970FB65E
:105A8000F894DEBF0FBECDBFC82E0E948A110091D0
:105A9000350308238091FF068095802319F082E06A
:105AA0000E941C0C0093FF0680E4E2EEF2E0DF01AE
:105AB0001D928A95E9F71092F8061092F706109257
:105AC000FA061092F9061092FC061092FB0610924C
:105AD000FE061092FD0610929D0C40E6242E47E033
