:100000000C948D0C0C94AA0C0C94AA0C0C94AA0CB5
:100010000C94AA0C0C94AA0C0C94AA0C0C94AA0C88
:100020000C94AA0C0C94AA0C0C94AA0C0C94AA0C78
:100030000C94F3350C94AA0C0C94AA0C0C94B534C3
:100040000C94D4360C94AA0C0C94AA0C0C94AA0C04
:100050000C94AA0C0C94AA0C0C94BF350C94AA0C0A
:100060000C94AA0C0C9459360C94AA0C0C94AA0C5F
:100070000C94AA0C0C94AA0C0C94AA0C0C94AA0C28
:100080000C94AA0C0C94AA0C0C94AA0C414C45524A
:1000900054450001020304010302040402030104A5
:1000A00003020142616420454570726F6D20446116
:1000B0007461004D45535341474500466F726D6171
:1000C000747461676520454550524F4D005350533D
:1000D0000080400000000000000000000000000060
:1000E0000000000000000000000000000000000010
:1000F0000000000000000000000000000000000000
:1001000000000000000000000000000000000000EF
:1001100000000000000000000000000000000000DF
:1001200000000000000000000000000000000000CF
:1001300000000000000000000000000000000000BF
:1001400000000000000000000000000000000000AF
:10015000000000FCFCFCFCFCFCFCFCFCFCFCFCFCD3
:10016000FCFCFCFCFCFCFCFCFCFCFCFCFCFCFCFCCF
:10017000FCFCFCFCFCFCFCFCFCFCFCFCFCFCFCFCBF
:10018000FCFCFCFCFCFCFCFCFCFCFCFCFCFCFCFCAF
:10019000FCFCFCFCFCFCFCFCFCFCFCFCFCFCFCFC9F
:1001A000FCFCFCFCFCFCFCFCFCFCFCFCFCFCFCFC8F
:1001B000FCFCFCFCFCFCFCFCFCFCFCFCFCFCFCFC7F
:1001C000FCFCFCFCFCFCFCFCFCFCFCFCFCFCFCFC6F
:1001D000FCFCFCFFFFFFFFFFFFFFFFFF7F7F3F3FB8
:1001E0003F3F3F3F7F7FFFFFFFFFFFFFFFFF3F3F9F
:1001F0003F3F3FFF7F7F3F3F3F3F7FFFFFFFFFFFCF
:10020000FFFFFFFF7F7F3F3F3F3F3F3F7F7FFFFF7E
:10021000FFFFFFFFFFFFFF3F3F3F3F3FFF7F3F3FAE
:100220003F3F3F7FFFFFFFFF7F0F07030181E0F0AC
:10023000F0F0E0000101071FFFFFFFFFFFBF3F3F9E
:100240003F3F7FFFFFFFFFFF7F3F3F3F3F3FBFFF3E
:10025000FFFFFFFFFFFFFF3F07030100C0F0F8FCB7
:10026000FCFCFCF80000000103FFFFFF3F01000061
:100270000080E0F8FCFCFCF80000000001FFFF3FFC
:10028000070301000010181C1C1C1C1800000001B2
:1002900003FFFFFFFF1F00000000C0F8FCFCFC1084
:1002A00000000000C0FFFFFFE0800000000F1F1FE4
:1002B0001F0F0300000000E0FFFFFFFFFFFFFEF83D
:1002C000E000000107070180E0F0F8FCFEFFFFFFFF
:1002D000FFFFFFFFFFFFFFE0C08000000F1F1F1F99
:1002E0001F0F070180C0E0F0FEFFFF0700000000C5
:1002F000C00F1F1F1F0F07010080E0F0FEFFFFE08F
:10030000C08000000E0E1E1E1E1E1E1E1E0ECEFEE5
:10031000FEFFFF7F0300000080FCFFFFFF3F0300A4
:10032000000080FCFFFF1F0F0F1F1F1E1E1E0E0E62
:100330000781C0E0F0FCFFFFFFFF7F3F1F0F0301BD
:1003400080E0F0F8E0800001071F7FFFFFFFFFFF64
:10035000FFFFFFFFFFFFFFFFFFFFFFFFFEFEFEFEB1
:10036000FEFEFFFFFFFFFFFFFF1F00000000C0FEBB
:10037000FFFFFEFEFEFEFEFFFFFFFFFFFFFFFFFF92
:10038000FFFFFFFFFEFEFEFEFEFEFEFEFFFFFFFF85
:10039000FFFFFFFEFEFEFEFEFFFFFFFFFFFEFEFE75
:1003A000FEFEFFFFFFFFFFFFFEFEFEFEFEFEFEFF66
:1003B000FFFFFFFFFFFFFFFFFFFEFEFEFEFEFEFF53
:1003C000FFFFFFFFFFFFFEFEFEFEFEFFFFFFFFFF42
:1003D000FFFFFF1F1F1F1F1F1F1F1F1F1F1F1F1F8D
:1003E0001F1F1F1F1F1F1F1F1F1F1F1F1F1F1F1F1D
:1003F0001F1F1F1F1F1F1F1F1F1F1F1F1F1F1F1F0D
:100400001F1F1F1F1F1F1F1F1F1F1F1F1F1F1F1FFC
:100410001F1F1F1F1F1F1F1F1F1F1F1F1F1F1F1FEC
:100420001F1F1F1F1F1F1F1F1F1F1F1F1F1F1F1FDC
:100430001F1F1F1F1F1F1F1F1F1F1F1F1F1F1F1FCC
:100440001F1F1F1F1F1F1F1F1F1F1F1F1F1F1F1FBC
:100450001F1F1F000000000000000000000000003F
:10046000000000000000000000000000000000008C
:10047000000000000000000000000000000000007C
:10048000000000000000000000000000000000006C
:10049000000000000000000000000000000000005C
:1004A000000000000000000000000000000000004C
:1004B000000000000000000000000000000000003C
:1004C000000000000000000000000000000000002C
:1004D00000000053504500454550524F4D206C6F71
:1004E00077206D656D0047617A207061732061200F
:1004F0007A65726F005265696E697469616C6973BF
:10050000657A206C6500546F7563686520706F753F
:10051000722069676E6F72657200537769746368E1
:10052000657320656E636C656E6368657300526504
:10053000696E697469616C6973657A206C657300B2
:10054000416C61726D657320446573616374697693
:100550006565730063005056004D4F44454C45009F
:1005600050504D00434800535441545300544D31B2
:100570000D544D32005448520D54482500544F54E8
:1005800000444542554700746D72314C6174206DD2
:10059000617804757300746D72314C6174206D69FB
:1005A0006E04757300746D7231204A6974746572DB
:1005B00004757300746D61696E206D6178066D73EA
:1005C000004672656520537461636B206D696E042B
:1005D00062005B4D454E555D706F7572207265739C
:1005E000657400434F555242450044657061737312
:1005F000656D656E7420454550524F4D009C143218
:10060000465A5A4632465AECEC003C649CC4003CC4
:10061000649C0000006400000000000000006F0007
:100620000007000700147F147F14242A7F2A122356
:100630001308646236495522500005030000001C6F
:100640002241000041221C0014083E081408083E04
:10065000080800503000000008080808006060002A
:10066000002010080402003E41413E0000427F404D
:1006700000625149460041494936001814127F0072
:1006800027454539003E49493200017905030036C6
:10069000494936000649291E00003636000000563A
:1006A00036000008142241141414141441221408B2
:1006B00000020151090606090906007E0909097EA2
:1006C0007F494949363E414141227F4141221C7FB9
:1006D000494949417F090909013E4149497A7F0851
:1006E00008087F00417F41002040413F017F0814FE
:1006F00022417F404040407F020C027F7F0408106F
:100700007F3E4141413E7F090909063E4151215E3C
:100710007F09192946264949493201017F01013FD4
:100720004040403F1F2040201F3F4030403F631467
:1007300008146307087008076151494543007F4169
:10074000410002040810200041417F000402010220
:1007500004404040404000010204002054545478BA
:100760007F484444383844444420384444487F381F
:1007700054545418087E0901020C5252523E7F080C
:1007800004047800447D40002040443D007F102850
:10079000440000417F40007C041804787C08040475
:1007A0007838444444387C14141408081414187C11
:1007B0007C080404084854545420043F4440203C1E
:1007C0004040207C1C2040201C3C4020403C4428D1
:1007D0001028440C5050503C4464544C440008369B
:1007E000410000007F000000413608000808221C7C
:1007F00008081C220808000000000000000000009B
:1008000000000000000000000000000000000000E8
:100810000000FE71FE7100000000000000000000FA
:1008200000003E007E00000000007E003E00000050
:10083000000060066006FE7FFE7F60066006FE7FA9
:10084000FE7F600660066018F01898199819FE7F00
:10085000FE7F98199819180F18060C181E1C1E0EEA
:100860000C078003C001E030707838781830781EAB
:10087000FC3F8E71C663E66776663C3C183C0066BA
:10088000006600000000660076003E001E000000CA
:1008900000000000000000000000E007F00F381C1E
:1008A0001C380E70066000000000000000000660AA
:1008B0000E701C38381CF00FE007000000006006C6
:1008C0006006C0038001F81FF81F8001C0036006A6
:1008D00060068001800180018001F81FF81F8001FF
:1008E0008001800180010000000000660076003E6B
:1008F000001E0000000000000000000000000000DA
:100900008001800180018001800180018001000060
:100910000000003000780078003000000000000087
:1009200000000018001C000E00078003C001E0005A
:1009300070003800180000000000F81FFC3F0E7027
:10094000066006600E70FC3FF81F00000000186093
:100950001C60FE7FFE7F0060006000000000000061
:10096000000018781C7C0E6E06678663CE61FC6002
:10097000786000000000066006608661866186611E
:10098000CE73FC3F781E000000008007C007E00621
:10099000700638061C06FE7FFE7F000000007E18F1
:1009A0007E38667066606660E670C63F861F00002F
:1009B0000000F81FFC3F8E71866186618E731C3FBC
:1009C000181E0000000006000600867FC67FE600B5
:1009D00076003E001E0000000000781EFC3FCE7333
:1009E00086618661CE73FC3F781E000000007800AF
:1009F000FC00CE6186718639CE1DFC0FF807000021
:100A00000000300C781E781E300C00000000000042
:100A100000000000000030667876783E301E00004E
:100A2000000000000000000000008001C003E0079B
:100A3000700E381C1C380E7006606006600660067A
:100A40006006600660066006600660066006066076
:100A50000E701C38381C700EE007C00380010000C7
:100A6000000018001C000E000600066606678603DC
:100A7000CE01FC0078007800FC00CE0186018601E2
:100A8000CE01FC00780000000000E07FF07FB8019C
:100A90009C018E018E019C01B801F07FE07FFE7FFA
:100AA000FE7F86618661866186618661CE73FC3FCA
:100AB000781EF81FFC3F0E70066006600660066038
:100AC0000E701C381818FE7FFE7F066006600660F8
:100AD0000E701C38381CF00FE007FE7FFE7F866129
:100AE0008661866186618661866106600660FE7F3A
:100AF000FE7F860186018601860186018601060049
:100B00000600F81FFC3F0E700660866186618661F4
:100B10008E719C7F983FFE7FFE7F80018001800167
:100B2000800180018001FE7FFE7F000000000660E2
:100B30000660FE7FFE7F0660066000000000001871
:100B400000380070006006600670FE3FFE1F060061
:100B50000600FE7FFE7F8001C003E007700E381C98
:100B60001C380E700660FE7FFE7F00600060006033
:100B700000600060006000600060FE7FFE7F1C007F
:100B80003800F001F00138001C00FE7FFE7FFE7F80
:100B9000FE7F7000E000C00180030007000EFE7FB2
:100BA000FE7FF81FFC3F0E70066006600660066060
:100BB0000E70FC3FF81FFE7FFE7F860186018601D6
:100BC00086018601CE01FC007800F81FFC3F0E7004
:100BD00006600666066E063C0E38FC7FF867FE7FF0
:100BE000FE7F860186018607860F861DCE39FC7042
:100BF00078607818FC38CE7186618661866186617E
:100C00008E731C3F181E0600060006000600FE7FBD
:100C1000FE7F0600060006000600FE1FFE3F007075
:100C200000600060006000600070FE3FFE1FFE0775
:100C3000FE0F001C0038007000700038001CFE0F12
:100C4000FE07FE1FFE3F00700070003E003E007079
:100C50000070FE3FFE1F1E783E7C700EE007C00352
:100C6000C003E007700E3E7C1E787E00FE00C001CF
:100C70008003007F007F8003C001FE007E000678B5
:100C8000067C066E06678663C661E66076603E6037
:100C90001E6000000000FE7FFE7F066006600660AA
:100CA000066000000000180038007000E000C0017D
:100CB00080030007000E001C001800000000066002
:100CC000066006600660FE7FFE7F00000000600098
:100CD000700038001C000E000E001C003800700070
:100CE0006000006000600060006000600060006004
:100CF0000060006000600000000006000E001C00A4
:100D0000380070006000000000000018003C607EA9
:100D10006066606660666066E066C07F807FFE7FBA
:100D2000FE7F8061C061E06060606060E070C03F35
:100D3000801F801FC03FE070606060606060606026
:100D4000607000380018801FC03FE0706060606015
:100D5000E060C0618061FE7FFE7F801FC03FE07663
:100D60006066606660666066E066C0078007800156
:100D70008001F87FFC7F8E01860106000E001C00BA
:100D80001800E001F00338671866186618661866E0
:100D90001876F83FF81FFE7FFE7F8001C001E0005B
:100DA00060006000E000C07F807F000000006060A5
:100DB0006060E67FE67F00600060000000000018D1
:100DC00000380070006060606070E63FE61F000061
:100DD0000000FE7FFE7F0006000F801FC039E0701C
:100DE0006060000000000000000006600660FE7FFA
:100DF000FE7F0060006000000000E07FE07F600098
:100E0000E000C007C007E000E000C07F807FE07F17
:100E1000E07F8001C001E00060006000E000C07F72
:100E2000807F801FC03FE0706060606060606060D5
:100E3000E070C03F801FE07FE07F600660066006D4
:100E400060066006E007C00380018001C003E00780
:100E5000600660066006C0078007E07FE07FE07FF5
:100E6000E07F8001C001E00060006000E000C001A0
:100E700080018061C063E06760666066606660668E
:100E8000607E003C001860006000FE1FFE3F607046
:100E900060600060007000380018E01FE03F0070E4
:100EA00000600060007000380018E07FE07FE0071D
:100EB000E00F001C0038007000700038001CE00FCC
:100EC000E007E01FE03F007000700038003800705D
:100ED0000070E03FE01F6060E070C039801F000FCD
:100EE000000F801FC039E0706060E001E003006720
:100EF00000660066006600660076E03FE01F606006
:100F000060706078607C606E6067E063E061E06004
:100F10006060000000008001C003781E7C3E0E70FF
:100F20000660000000000000000000000000FE7FDE
:100F3000FE7F0000000000000000000000000660CE
:100F40000E707C3E781EC00380010000000080010E
:100F50008001800180011818381CF00FE007C003E1
:100F600080018001C003E007F00F381C18188001D1
:100F70008001800180014D6178206578706F732059
:100F800061747465696E7421004D6178206D6978B3
:100F9000616765732061747465696E742100030173
:100FA0000200040506075F2D2E2C001B1E272D3680
:100FB000394B4E636C7278878D939CB1B4C6C9D29D
:100FC000D8E1E45B4D454E555D045B515549545D98
:100FD0000050484153455320444520564F4C00286B
:100FE0006465666175742900566572696605547298
:100FF000696D7300434F4E462E48454C4900547965
:10100000706520646520506C617465617500436F84
:101010006C6C65637469660053776173682052690C
:101020006E6700446972656374696F6E2050524642
:1010300000446972656374696F6E2041494C0044D5
:101040006972656374696F6E20434F4C004D495857
:10105000455552002F3134002F333200434F555243
:101060004245530043560056455253494F4E005691
:101070004552533A2056322E30302D4800205356D8
:101080004E3A206F70656E39782D723438330044D3
:101090004154453A20323031322D30342D30350034
:1010A00054494D453A2032323A31303A32370045D0
:1010B0004550524F4D207600496E74657200653779
:1010C0001530FB27F726EB2DEF2D0049F32D004CB3
:1010D000204BE936034F46464F4E20032D2D2D4918
:1010E0004E56043443482036434820384348203184
:1010F000304348313243483134434831364348065F
:10110000517569657420416C61726D734E6F4B65EA
:101110007920546F75742020067853686F72745369
:10112000686F7274204E6F726D616C4C6F6E6720C9
:1011300020784C6F6E67200453494E474F534D50F3
:1011400046494C5404426173204F4646204861751D
:1011500074036F6666202B3D203A3D03636831635C
:101160006832636833636834064578702020204510
:101170007846696E2046696E2020204D6F79656E35
:101180002047726F7320200152455441313233059C
:1011900050504D0020505858002044534D320050BC
:1011A000504D3136465554002003504F534E45475D
:1011B000032D2D2D783E30783C307C787C663E3097
:1011C000663C307C667C054544495420505253456A
:1011D00054412E47415A06526174696F2045787018
:1011E0006F2020436F757262655068617365204996
:1011F0006E746572204D6F646520202020202020B1
:101200002008416A6F75746572204D756C74697041
:101210006C7952656D706C616365022B3D2A3D3AB5
:101220003D064F4E202020204F46462020204F666E
:1012300066736574072D2D2D2D002020763E6F6678
:10124000732020763C6F667320207C767C3E6F6630
:10125000737C767C3C6F6673414E44202020204F87
:10126000522020202020584F522020202076313D2F
:101270003D7632207631213D76322076313E76320F
:10128000202076313C7632202076313E3D76322069
:1012900076313C3D7632200D536563757269746515
:1012A000200020202045636F6C61676520002020AE
:1012B00020205472696D20696E7374616E742042CF
:1012C0006565700020202020202020205265736555
:1012D0007400202020202020200654696D65723182
:1012E00054696D657232416C6C20202054656C65C8
:1012F0006D2E065761726E31205761726E32204337
:10130000686565702052696E67202053636946697D
:1013100020526F626F742043686972702054616458
:10132000612020437269636B74536972656E20415A
:101330006C6D436C6B5261746174615469636B20B2
:101340002048617074633148617074633248617021
:10135000746333042D2D2D00546D7231546D72322F
:101360004131002041320020547800205278002082
:10137000416C740052706D004675656C54310020EC
:1013800054320020537064004469737443656C6C7C
:1013900041636358416363594163635A486467001A
:1013A0005653706441312D0041322D00416C742D33
:1013B000416C742B52706D2B54312B0054322B0026
:1013C0005370642B4473742B4163630054696D65DF
:1013D0000F5375707072204D6978616765730000F6
:1013E0003420566F6965732073696D706C650043B6
:1013F0006F75707572652047617A20202000456DF9
:1014000070656E6E616765205620202000456C6512
:10141000766F6E5C44656C746120200065434350B8
:101420004D20202020202020202000436F6E662E9B
:101430002048656C69636F202000536572766F20C9
:10144000546573742020202000042D2D2D2031326E
:1014500030203132305831343020393020200520CE
:101460004D656E752045786974202042617320486F
:1014700061757444726F69744761756368034741AD
:101480005A44495250524649443049443149443201
:1014900041494C47454154524E53573153573253AB
:1014A000573353573453573553573653573753578A
:1014B000385357395357415357425357430444699C
:1014C00072205072662047617A2041696C20503149
:1014D000202050322020503320204D4158203350BE
:1014E0004F53435943314359433243594333034FD5
:1014F0004646414253475A73475A25475A7400D5C6
:1015000050B12EC627194DBA4D7A4E40800804209E
:10151000100201002902020000000000060201532F
:1015200045545550004E6F6D004368726F6E6F00EA
:10153000452E4C696D6974657300452E5472696D52
:1015400073005472696D20496E6300542D547261AA
:10155000636500542D5472696D00426970204374B4
:10156000720050726F746F00750050504D2066729B
:10157000616D65006D7300250003005048415345BF
:1015800020444520564F4C005472696D73004661EB
:10159000646520496E0046616465204F75740000E3
:1015A000020202020045434F4C4147450045736328
:1015B0006C617665006D6F6465032520737263004E
:1015C0004D756C7469706C696575720043616C006F
:1015D00044522F4558504F004741424152495453BD
:1015E0000053454C4D4F4445005355505052494DC2
:1015F0004552204D4F44454C4500436F7069652E60
:101600002E2E004465706C6163656D656E742E2EC0
:101610002E004368617267656D656E742E2E2E0014
:101620006C6962726500494E5345524552204D49DE
:10163000584147452000454449544552204D49589A
:101640004147452000536F757263650052617469AC
:101650006F00446966666572004F66667365740064
:101660005472696D00436F7572626500502E566F3B
:101670006C00416C65727465004F4646004D756C98
:101680007470780052657461726420426173005214
:10169000657461726420486175740052616C656E96
:1016A00074697220486175740052616C656E74696A
:1016B000722042617300535700120800081C08088A
:1016C000081C080000082200490022080000000051
:1016D00000227F22000000082200490022080000AA
:1016E00008220049002208000000227F220000009A
:1016F0000000082200490022080000081C08080811
:101700001C080044494147005472696D2D202B008C
:10171000414E4100410042470043414C4942524141
:1017200054494F4E005B4D454E555D504F5552202C
:10173000444542555400534554204E455554524556
:10174000005B4D454E555D5175616E6420505245AC
:101750005400424F55474552204D414E4348455352
:101760002F504F54532000000303030303030303CC
:101770000303030303030303004C494D495445533A
:10178000005472696D73203D3E204F666673657428
:1017900073000002494E54455253205045525300A5
:1017A0000002494E5445525320464F4E4354494F30
:1017B0004E53004D6F646500000000000000000003
:1017C0000000000000000000000000FF01434F4E39
:1017D00046494720524144494F0042656570657251
:1017E000204D6F646500426565706572204C656EC2
:1017F00067746800436F6E74726173746500416C46
:1018000061726D6520426174746572696500416C36
:1018100061726D6520496E616374697669746500F3
:1018200046696C7472652041444300496E76657266
:1018300073696F6E2047617A0042697020742E6D63
:10184000696E75746573004269702061207265620B
:101850006F75727300466C617368207175616E6498
:101860002062697000496E7465722065636C6169FD
:10187000726167650045636C6169722E206F6666F0
:1018800020617072657300456372616E2064276128
:1018900063637565696C00416C65727465204761AE
:1018A0007A00416C6572746520496E7465720041FE
:1018B0006C65727465204D656D6F69726500416C71
:1018C0006572746520416C61726D65004F7264725F
:1018D0006520566F696573205278004D454E55530B
:1018E000204F564552464C4F5700546F75636865FC
:1018F00020706F757220636F6E74696E756572000B
:101900000101020A3C01010414500101081E640295
:10191000020F287805051E32960011241FBECFEF56
:10192000D0E1DEBFCDBF11E0A0E0B1E0EEEBF9EC1D
:1019300002C005900D92AE30B107D9F71DE0AEE0C0
:10194000B1E001C01D92A530B107E1F70E94B05986
:101950000C94DD640C9400004F925F926F927F9222
:101960008F929F92AF92BF92CF92DF92EF92FF92AF
:101970000F931F93CF93DF9300D0CDB7DEB7182F0F
:1019800022E043EE55E060E080E00E948023409139
:10199000050C50E04F5F5F4F22E860E08FE10E944E
:1019A0006C168091050C282F30E0883078F0285094
:1019B000310989E0829F3001839F700C11248BE2F2
:1019C00095E0680E791E49E0942E0CC085E0829F58
:1019D0003001839F700C1124A3E0B5E06A0E7B1EDA
:1019E00035E0932E113609F46CC040F4153409F437
:1019F0007EC0103671F01434D9F486C0153609F45F
:101A000076C01F3B19F0143699F47EC01092F50A87
:101A10005FC08091B90B18165CF08091F4018130A1
:101A200061F018F0823021F43FC081E08093B90B5F
:101A30002301730190EE00E097C08091F50A8F5F5B
:101A400085300CF401C08CEF8093F50A4091F50AC3
:101A5000B2E34B0270011124062D292D269530E0AA
:101A60003195219531094203C001439F900D112406
:101A700022E3289F5001299FB00C1124F30120E09C
:101A800030E0C92CD12C81E0C81AD108C9018A0DD7
:101A90009B1DB6010E944E6461932E0D3F1D8E2F3B
:101AA000801B891598F3C4CF8CE9D3018C93F30183
:101AB000E90DF11D319784E6808381E08093F60A79
:101AC000B7CF81E60E949D558091F60A882319F0D0
:101AD0001092F60AADCF8091B90B18162CF4109223
:101AE000F4011092B90BA4CF0E94CB57A1CF8091E3
:101AF000F60A81119DCF8091F401882309F498CFD3
:101B000081508093F40194CF8091F60A811190CF97
:101B10000091F401E02EF12C8091B90B18162CF4F1
:101B2000292D30E0215031091AC0E0910B02F0E07C
:101B3000EE0FFF1FE858F94F20813181275D3A43AE
:101B400061F48091B70B0E941922FC0180818C7096
:101B5000883019F422E030E002C021E030E0E216E3
:101B6000F3060CF4C2C064CF692F053018F4685D29
:101B700088E101C080E32091B90B121624F4209172
:101B8000F401201711F020E001C022E0D7014D91AF
:101B90007D01552747FD50959A830E946C160F5F73
:101BA0009A81985F091500F343EB57E168E380E001
:101BB0000E948D239091B90B191614F400E005C012
:101BC0008091F60A8111FACF02E081E019160CF437
:101BD00080E02091F401829F202D112446EC51E1F8
:101BE00068E38CE10E9490238091B90B18167CF475
:101BF000892C8694712CE12CF12CC12CD12C88E3FA
:101C0000A82EBB24BA949EE9692E610E1AC0809159
:101C1000F60A8111EDCF8BEC9EE10F900F90DF91D2
:101C2000CF911F910F91FF90EF90DF90CF90BF90D9
:101C3000AF909F908F907F906F905F904F900C949B
:101C40006B594E2DC601682D772D0E944E64E62FEC
:101C5000D2012C91BFEFEB1AFB0AFFE32F02900198
:101C60001124C9018456974EB5010E944E642091FB
:101C7000F60A222359F030E02E153F0561F5635C2A
:101C800000E025E045E08E2F845C23C09091F401B4
:101C9000941319C0635C00E025E045E08E2F845C5E
:101CA0000E94781681E0861520F4123411F0133466
:101CB00091F424E64CE9D2016C91812F0E946A567E
:101CC000F201808308C0625C00E023E043E08E2FD5
:101CD000835C0E947816F0E2CF0ED11C8FEF481A79
:101CE000580AE91408F4ADCF96CF0F5F0093F401C2
:101CF0009FCECF93C82F22E041E855E060E080E01E
:101D00000E948023C236B1F028F4C03631F0C136CB
:101D1000C1F413C0C336A9F410C08FEF8093CB0B6E
:101D20001092CC0B109243031092420380E00E9469
:101D30005D5507C08DE294E102C08AE490E40E9400
:101D40008E5567E875E088E00E9487234091CC0BB0
:101D5000469568E08AE50E94721666E975E080E1C2
:101D60000E9487234091CB0B469560E18AE50E9453
:101D7000721665EA75E088E10E9487234091CC0BDA
:101D800050E08091CB0B481B510957FF02C04F5FB9
:101D90005F4F5595479568E18AE50E94721664EB9E
:101DA00075E080E20E948723809142039091430373
:101DB00024E6289FA001299F500D112474E0569518
:101DC00047957A95E1F720E360E28AE50E946C1678
:101DD00041EC55E060E380E00E948D2386E09DE0C9
:101DE000FC01019620812535D9F3AF0145505D40B6
:101DF00028E060E38BE60E946C1642ED55E068E354
:101E000082E1CF910C948D232F923F924F925F925B
:101E10006F927F928F929F92AF92BF92CF92DF92FA
:101E2000EF92FF920F931F93CF93DF9300D000D0D8
:101E300000D0CDB7DEB78C83E091C905EE23B1F1B8
:101E4000A0919F02B091A0024091A3025091A402E0
:101E50009D010E94FB636B017C019A01DA010E94E3
:101E6000FB63C60ED71EE81EF91E6E2F70E080E0E1
:101E700090E00AE0660F771F881F991F0A95D1F737
:101E800024E630E040E050E00E948464CA01B901D9
:101E90000E941E646C157D058E059F0538F4C701F0
:101EA000B6010E942E219E838D8302C01E821D8258
:101EB0002D813E81A4E6B0E00E9403646B017C01A9
:101EC0008CE296E09A838983612C712C1B8212E349
:101ED000812E912CA12CB12C862D843068F4909108
:101EE0000802F301A4E09A9FE00DF11D1124ED56C4
:101EF000FF4F54905A9401C0562C0E94B8219C0167
:101F0000E981FA8181919191FA83E983281B390B48
:101F1000B901882777FD8095982FBAE0660F771F63
:101F2000881F991FBA95D1F7121613061CF4028D5B
:101F3000138D06C0A981BA811C960D911C911D9725
:101F40000436110514F404E610E09801442737FD27
:101F50004095542F0E94846489012115BCEF3B07F2
:101F60002CF02130E4E03E0724F405C000E01CEF33
:101F700002C000E014E08091710680FF06C0F2E02C
:101F80005F1203C0119501951109252C312CF10127
:101F9000EE0FFF1FE356FD4F11830083C80117FFAB
:101FA00004C088279927801B910BE4E096958795BC
:101FB000EA95E1F78230B0F4811107C091E0022C7C
:101FC00001C0990F0A94EAF70AC081E090E0022C60
:101FD00001C0880F0A94EAF790911E0C98232B8178
:101FE000292B2B8383E0851508F470C08091F101C3
:101FF000811148C0452D4F5E50E040515109A1E08C
:10200000B0E002C0AA0FBB1F4A95E2F7AD014160E4
:102010008091F2019091F30148235923452B09F057
:10202000B5C030C0A42DAF73B0E0CD01880F991FAB
:102030008554944FAD01440F551F435A594FDC014D
:102040002D913C91DA018D919C91281B390BA18136
:10205000BB27A7FDB0950E94FB63A50194010E94D8
:10206000846442944694469473E04722842D90E021
:102070008130910519F0029729F403C0020F131F54
:1020800001C08901ED81FE81EF2BC9F0F1E05F16FF
:1020900019F023E0521213C02091C90530E0D80195
:1020A0000E940F642AE0660F771F881F991F2A95E8
:1020B000D1F7A70196010E948464022F132FF1012A
:1020C000EE0FFF1FE751FE4F118300838FEF681A59
:1020D000780A97E06916710409F0FECE6C8189EEEA
:1020E00091E00E94C6250091570308706090710628
:1020F000A1E06A2220E034E08091ED019091EE01B0
:10210000281B390B6901EE24D7FCE094FE2C70905B
:10211000120211EE212E11E0312E10E0812C88E008
:10212000982EA12CB12C612F8C810E9404232C01AC
:102130001230F9F40023E9F0662019F0519441942B
:1021400051089201442737FD4095542F23583F4FA3
:102150004F4F5F4FC701B6010E941E64A501940155
:102160000E9484642115B8E03B074105510521F424
:1021700002C0711016C09201220F331FF10121938A
:1021800031931F011F5F143071F60EC0F101EE0F85
:10219000FF1FEB59F94F4080842D807C09F042CF1E
:1021A00071CF412C512CE7CF8B8126960FB6F89436
:1021B000DEBF0FBECDBFDF91CF911F910F91FF907A
:1021C000EF90DF90CF90BF90AF909F908F907F90D7
:1021D0006F905F904F903F902F900895FF920F93D4
:1021E0001F93CF93DF93F62E1091B70B882309F43A
:1021F0004AC0812F0E941922EC01012FFF2011F00B
:10220000015001C00F5F188107FF09C0812F8C703A
:1022100009F46FC0812F869586958D5F0BC00E30B7
:1022200071F4812F8C708C3009F463C0812F8695F6
:1022300086958F5F8370880F880F137F4FC0802F24
:102240000E941922BC01FC01808118271C7011F426
:102250008370B9F49881892F869586958370FF20C5
:1022600029F0882309F445C08D5F04C0833009F448
:1022700040C08F5F8370880F880F937F982B98835F
:102280002FC044E030C0812F0E941122EC01012FA9
:10229000FF2011F0015001C00F5F188107FF03C03C
:1022A000812F8F7012C0003219F4812F8F7011C0EE
:1022B000802F0E941122BC01FC01808181278F7038
:1022C00089F0812F8F70FF2021F0882391F0815FAA
:1022D00003C08F3071F08F5F8F70107F182B1883C1
:1022E000C1E009C049E0CE010E946D200093B70B08
:1022F000F7CFC0E003C082E00E9467208C2FDF91FF
:10230000CF911F910F91FF900895682F8CEA92E072
:102310000E940A201092B2021092B10208951F93F7
:10232000CF93DF9300D0CDB7DEB7182F81E14A837A
:1023300069830E9485111092C60169816295607F50
:102340006093C7011093AC024A814093CE010F9075
:102350000F90DF91CF911F910895EF92FF920F930D
:10236000CF93DF93EA017901402F0E948F1180E122
:102370008093B402D093B802C093B702F092B60231
:10238000E092B5021092B9020E94BC178091CE0172
:10239000882341F08091B402882321F08091060CBB
:1023A000882391F3DF91CF910F91FF90EF900895E3
:1023B0000F93CF93C82F81110E9466198091AB02B1
:1023C00080FD05C08091AB0281FF1DC00FC0815010
:1023D0008093AB020C2F2FE430E04BE256E061E03B
:1023E00080E00E94AD11C111EDCF0DC01092AB0283
:1023F000809158060C2F24EE32E047E453E062E06F
:102400008F5F0E94AD11CF910F910895CF92DF920F
:10241000EF92FF920F931F93CF93DF937C016B0199
:10242000C0E0D0E08091B20290E086010C1B1D0B51
:102430008017910708F48C0197012C0F3D1FA8010C
:1024400060E070E0C9010E94BD64C00FD11F80919F
:10245000B202801B8093B20281113FC08091B10211
:1024600090E0A6014C1B5D0B8417950708F4AC01A6
:10247000B7016C0F7D1F8CEA92E00E94B454C80F24
:10248000D11D9091B102981B9093B102911125C07A
:1024900041E050E061EB72E08CEA92E00E94B454BB
:1024A0008130D9F48091B10287FF0FC0282F30E02E
:1024B00094E0359527959A95E1F727703327209377
:1024C000B2028F708093B102ADCF86FFABCF8F7316
:1024D0008093B2021092B102A5CFCE01DF91CF91CD
:1024E0001F910F91FF90EF90DF90CF9008959AE0A9
:1024F000EEE0F1E0DF011D929A95E9F7803118F0E6
:1025000020E030E019C08F5F0E9485116AE070E022
:102510008EE091E00E9406120A9791F78091AC023A
:1025200090E0FC01EE0FFF1FE80FF91FED56FE4F84
:1025300020818181382F3F70C9010895CF93C82F22
:102540008031B0F48F5F0E94851164EE72E087E401
:1025500093E00E9406128F3F910509F030F48C2F12
:102560000E94831D81E00E94D811CF910C946E21AE
:10257000CF910895FF920F931F93CF93DF93FA01AA
:102580000491DA0112963196449150E0495F5F4F11
:1025900033E0559547953A95E1F7F42E209F900149
:1025A0001124249FF001259FF00D349FF00D11247C
:1025B000AE0FBF1F66956695669590E0F0E86F9F39
:1025C000800D911D112440E050E010E0602F70E07C
:1025D00015C0EA01C80FD91FCB50D94F9D0105C0C6
:1025E000F9012F5F3F4FE491E993E22FEA1BE017D7
:1025F000B8F3A60FB71F1F5F40585F4F1F1548F372
:10260000DF91CF911F910F91FF9008950F93262F87
:10261000442311F002E001C000E04BED50E1682FCF
:1026200084E50E9490230F9108950F931F93CF93F9
:10263000DF93C62F122FD02F202F2F7E0E948023B2
:10264000202F206802E0412F50E06C2F8091030C76
:102650000E941B15D7FF0AC04AE36C2F8091030C20
:10266000DF91CF911F910F910C94F81FDF91CF91C3
:102670001F910F9108950F931F93CF93DF93D82F3E
:10268000162FC42F022F47FF07C041E286500E9439
:10269000391F86E08C1BC82F2C2FC7303CF440EB31
:1026A00051E1612F8D2F0E94902307C0265044E5F1
:1026B00055E0612F8D2F0E941513DF91CF911F914F
:1026C0000F9108950F931F93CF93DF93D82F162F59
:1026D000C42F022F411106C020E04BED50E10E94B3
:1026E000902310C047FF06C02EE548E082500E94AC
:1026F0005B58C1952C2F215046E555E0612F8D2F59
:102700000E941513DF91CF911F910F9108950F93A0
:10271000FA013A969AE03291332381F00CC00061BD
:102720002F5F49E555E00E9415130BC000622AE0B7
:102730000E942D2306C09111F9CFF1CF915079F36A
:10274000EACF0F9108950F93022F411104C020E0AA
:102750004BED50E118C0242F4D3020F421504DEBAB
:1027600054E111C0453120F42C5040E655E005C03D
:10277000453230F4245144E655E00E94151305C05B
:10278000245243E553E10E9490230F9108954A306B
:1027900008F406C04F3118F449500C94B75845510D
:1027A0000C94A313942F9150903118F44C5E0C9418
:1027B000A3130895CF92DF92EF92FF920F931F938E
:1027C000CF93DF931F92CDB7DEB7382FF62E6A0175
:1027D000122FE02E27FD3E5ED7FE12C012FF02C070
:1027E00087E001C085E0212F4DE26F2D932F981BCC
:1027F000892F39830E94391FD194C194D10839811E
:10280000212F2069C6016CE370E00E944E64AB0189
:102810006C0102E06F2D832F0E941B152E2D2123AA
:1028200012FB112710F98091030C4AE36F2D811BD5
:102830000E94391F2E2D20698091030CA6016F2D57
:102840008A5F0E941B150F90DF91CF911F910F910E
:10285000FF90EF90DF90CF9008950F931F93CF9349
:10286000DF93C82F22E047E655E060E080E00E9459
:102870008023C13658F0C33628F0C33639F489E7CF
:102880009EE002C08AE490E40E948E554DE655E039
:1028900068E086E00E948D23409115025091160257
:1028A00000E020E068E08EE10E94DA134091170218
:1028B0005091180220E068E088E40E94DA1345E7AE
:1028C00055E060E186E00E948D234091970250918F
:1028D000980220E060E18EE10E94DA1340919902B3
:1028E00050919A0264E0569547956A95E1F720E089
:1028F00060E188E40E94DA134DE755E060E086E687
:102900000E948D2340919B0250919C0220E060E048
:1029100088E40E94DA13C0911D02CC0FCC0B809189
:102920009602C8234EE76CE382E00E94141543E24E
:102930006CE185E00E946859DBE043E06BE38D2F9A
:102940000E946859DA5FD338C1F7D6E01CE3EC2F58
:10295000F0E0E25EFD4F4081612F641B8D2F0E94ED
:102960006859CF5FC83708F0C0E080919602C81759
:1029700019F0DF5FDE3759F7DF91CF911F910F918B
:102980000895CF93DF93D62FC22F922F9073903359
:1029900011F420E001C020E22C2B2F7B6D2F0E9430
:1029A0006C16C6FD09C02C2F46E76D2F8091030CD5
:1029B000DF91CF910C94391FDF91CF9108951F9330
:1029C000CF93DF93182FD62FC42F242F462F50E0FC
:1029D00060E080E80E946C16DA3010F08FE601C0EB
:1029E00085E72C2F4FE260E00E94391FE12FF0E0D5
:1029F000AF014F5F5F4FDA3010F08FE601C085E71F
:102A00002C2F60E0DF91CF911F910C946C1680E227
:102A100091E0EBE5F3E0DF019C011D922150304095
:102A2000E1F782E00C9467200F9300E02FEF0E9403
:102A3000CF1E0F9108952F923F924F925F926F9207
:102A40007F928F929F92AF92BF92CF92DF92EF923E
:102A5000FF920F931F93CF93DF9300D000D0CDB799
:102A6000DEB7382FB62E5C834B83122FA02E822F19
:102A70008073E82EF12C20E1E21AF10874E0F5945D
:102A8000E7947A95E1F72E2D12FB882480F813FF46
:102A900002C018500CC04B815C8157FF08C0519593
:102AA000419551095C834B839924939401C0912CE7
:102AB0002223F1F08B819C816AE070E00E943A64ED
:102AC000AA24A394EAE0F0E005C0A394CB01BF01DF
:102AD0000E943A6461157105C1F7EA2DF0E0422FBA
:102AE000552747FD50954E175F0714F0AE2CA39461
:102AF000811006C017FF07C012162CF43E5F03C0FA
:102B00006AE0662E02C055E0652E17FF0BC06A9C76
:102B1000300D1124992031F0882011F087E001C098
:102B200085E0380F3093030C062D0095030F5524D4
:102B3000539432E0732E212C4AE0C42ED12C5B2D0D
:102B40005A5F598378C08B819C81B6010E943A6498
:102B5000982F20E3322E380E8820D1F081E33812EE
:102B60000EC05A100CC0A22DB0E0E02FF0E03A9653
:102B7000EA17FB0724F40E5F212F286001C0212FE4
:102B8000AB81BC81A83EB34024F00B5F2B7F01C01A
:102B9000212F432D6B2D802F9A830E94391FE52D05
:102BA000F0E09A81EE16FF0689F58FEC482E41225F
:102BB0008820D9F09150933008F473948B819C81D4
:102BC000B6010E943A64CB01B6010E943A64823099
:102BD00019F0843009F066C0F4E3202E3F1202C0E1
:102BE000239461C02A9473945EC0015040E06981CF
:102BF000802F0E941E1F11FF06C010FF4DC0809144
:102C0000FC0B86FD49C00150142D0CC0882051F0EA
:102C10004B815C81483E83E0580724F040315742A5
:102C20000CF402508B819C81B6010E943A647C8333
:102C30006B8306195394A51408F085CF222071F0F8
:102C4000A8EFBA226B2D635F472D822D0E941415C9
:102C50006B2D625F472D822D0E941415992029F15A
:102C6000212F4DE26B2D802F0F900F900F900F9022
:102C7000DF91CF911F910F91FF90EF90DF90CF9058
:102C8000BF90AF909F908F907F906F905F904F908C
:102C90003F902F900C94391F48E06B2D802F0E949D
:102CA0006859B1CF202E142DB3CF0F900F900F90F5
:102CB0000F90DF91CF911F910F91FF90EF90DF90D8
:102CC000CF90BF90AF909F908F907F906F905F90CC
:102CD0004F903F902F9008950F9300E00E941B1596
:102CE0000F910895552747FD509520E00C946C16E0
:102CF0009F92AF92BF92CF92DF92EF92FF920F938B
:102D00001F93CF93DF93B82E162FA42E902EC0E0E2
:102D1000D0E0E62EFF24E7FCF0946701C20ED11C40
:102D20000BC06C2F610F603430F4092D2FEF4A2D4A
:102D30008B2D0E94CF1E21969E012E0D3F1D2C151E
:102D40003D057CF3DF91CF911F910F91FF90EF90A4
:102D5000DF90CF90BF90AF909F900895EF920F9328
:102D600004E028E24CE660E18AE00E947816E12C5B
:102D70000FEF28E24CE660E18AE00E942A59409178
:102D80000E0C50910F0C68E180E10F91EF900C94C4
:102D90008D230F93CF93C82F10920D0C0E94AE1667
:102DA0004091080C5091090C4115510539F000E291
:102DB0002091070C60E280E10E942D2343EC5FE04C
:102DC00068E280E10E948D23C03619F0C13659F4C3
:102DD00003C081E080930D0C8C2F0E949D551092B2
:102DE0000F0C10920E0CCF910F910895CF93DF939B
:102DF000CEE0DCE0998388830E94AE1619821882A7
:102E0000DF91CF910C944F57BF92CF92DF92EF9208
:102E1000FF920F931F93CF93DF93D82EC62EEA0114
:102E2000B22E102FE11002C000E205C08091B90B54
:102E30001816D4F302E22B2DAE016C2D8D2D0E94BD
:102E40002D23EE2009F472C08091B90B18160CF0F6
:102E50006BC0E090F401FE01EE0DF11DF080812FBA
:102E60008256823020F0123411F01334F1F4EF2D39
:102E7000FF27E7FDF095F7FF03C0F195E195F10914
:102E80006E2F772767FD709500E028E230E040E084
:102E900050E0812F0E94AE55F7FC02C0F82E02C010
:102EA000F82EF19482E00E946720153249F018F460
:102EB000143211F509C0812F84588230E8F40FC014
:102EC000EE20D1F0EA9418C04E2D50E02B2D30E0CA
:102ED00021503109421753077CF4E3940DC08F2D24
:102EE000865E853348F4F19482E00E9467201538AD
:102EF00019F485E00E949D558091F401C80FD11D01
:102F0000F8828F2D0E940C232091F401922F990FAB
:102F1000920F990F22E0482F6C2D8D2D890F0E9462
:102F2000391FE092F40102C01092F401DF91CF91B9
:102F30001F910F91FF90EF90DF90CF90BF90089579
:102F40006093BB029093BD028093BC020E94B618AE
:102F50008091CE01882341F08091BB02882321F02B
:102F60008091060C882391F308958093BA0261E062
:102F70008AEB92E00C94A017CF93DF936091B90293
:102F8000E091B702F091B802662371F0CF01860F8D
:102F9000911D9093B8028093B7021092B902CF01AD
:102FA000DF91CF910C94A01780812091B5023091D0
:102FB000B6022115310509F45CC071E0811170E0A1
:102FC00041E050E090E081E0DF01A40FB51F61E037
:102FD000AC91A11160E067130BC08F3309F4C0C03E
:102FE000992319F08F3009F4BBC042175307E1F55C
:102FF0007723B1F0883080F0482F50E0E40FF51FC0
:10300000F093B802E093B702241B350B3093B6025D
:103010002093B502806422C04217530719F5ECCF04
:10302000492F50E0E40FF51FF093B802E093B70288
:10303000BA01680F711D261B370B3093B60220931F
:10304000B5028093B902992349F09A01F4E0220F66
:10305000331FFA95E1F720683F6F822BDF91CF9104
:103060000C94B517982F80E08F5F4F5F5F4F762FDE
:10307000ABCF8091B402803309F466C030F4803164
:1030800051F0803209F06FC055C08034E9F08035CE
:1030900009F069C048C08091AF028823A9F00E945E
:1030A000B154C82F811157C00FC08C2F0E94B1544A
:1030B000C82F8C2F0E94B1548111F7CF80E28093EA
:1030C000B4026D2F8C2F3CC09091C5019093AF023C
:1030D0008091AC02482F50E09A01220F331F240F39
:1030E000351FF901E257FE4F44814093C501948397
:1030F000F901ED56FE4F9091AD0290834091AE02E2
:103100004F709181907F942B91834091C701F90179
:10311000EC56FE4F407F90819F70942B908390E5FA
:103120009093B40203C01092B40281E1DF91CF9179
:103130000C94542080E38093B40260E08091AF024D
:10314000DF91CF910C94482080E48093B402DF910A
:10315000CF910C944020D091900180939001A9CF01
:1031600061114ACF5DCFDF91CF9108958091AF0279
:10317000811116C08091AD029091AE02892B81F42D
:10318000809190018093AF028093C501882341F024
:103190000E94B154809390018091B40281603CC040
:1031A0008091B402982F9F70913009F078C08150BF
:1031B00038C08091AF02811101C03BC09091B00234
:1031C0009F30B0F01092B0020E94B15481110EC035
:1031D00060919001611101C02CC08091B4028E5F9A
:1031E0008093B4028091AF020C9448208093AF0288
:1031F0008091B402982F9F70923019F09330A9F407
:103200000FC0809190018093AF020E94B1548093CF
:1032100090018091B4028F5F8093B4020C9440209F
:1032200083508093B40260E0DDCFE091AF02E11102
:1032300004C081E08093060C36C06091B0024FE07C
:103240005091BB02461B541708F4452F242F30E041
:103250008091BC029091BD02820F931F9093BD029A
:103260008093BC02541B5093BB02460F4093B002A4
:103270004091AD025091AE02420F531F5093AE02E7
:103280004093AD0270E040E1E49F600D711D112498
:103290006F5F7F4FA901821B930B0C9421208091BB
:1032A000BB02811186CF8091060C813041F48AEEF9
:1032B00095E00E94B9571092B4021092BB0280911F
:1032C000CE01811102C00C94BC17089501C0A895CD
:1032D0008091BE021816DCF381E08093CE018091CC
:1032E000BB02882321F08091060C882349F080914D
:1032F000B402882341F08091060C882339F003C082
:103300000E94B618ECCF1092CE0108950E94BC170F
:10331000EECFAF92BF92CF92DF92EF920F931F93B7
:10332000CF93DF9300D000D0CDB7DEB7282F30E0A9
:10333000D901AA0FBB1FA20FB31FFD01EE56FE4F0E
:1033400020813181428129833A834B83062F10E00B
:10335000F801EE0FFF1FE00FF11F8F010E561E4FF9
:103360005EE8A52E51E0B52EAA0EBB1ED801CD9069
:10337000DD90EC90D5011496CD92DD92EC92E2575F
:10338000FE4F2483358346830EEC11E091E0F80173
:1033900090836C830E9454206C81862F0E9454205D
:1033A000D8011C920F900F900F900F90DF91CF914A
:1033B0001F910F91EF90DF90CF90BF90AF90089545
:1033C0001F93CF93DF93162F962F9F5F8823F1F0E3
:1033D000892F0E941922EC01812F0E941922412F6E
:1033E00050E040955095425F5F4F440F551F440F8A
:1033F000551FBE010E94AB648DE00E941922DC01C2
:103400001D921D921D921C9213971EC0892F0E941F
:103410001122EC01812F0E941122412F50E0409592
:1034200050959A01205E3F4F19E0129FA001139F13
:10343000500D1124BE010E94AB648FE10E94112245
:10344000DC011D921A95E9F782E0DF91CF911F917F
:103450000C946720EF92FF920F931F93CF93DF930B
:10346000E82E062F10E0F9E0FF2EC82FD0E00CC0A8
:103470002C173D0729F4612F80E00E94E01901C05C
:103480001F5F103208F046C0F19E90011124F9012F
:10349000EF59FC4F80818F77E9F1F901E55AFC4F34
:1034A00020812F7030E0C217D3078CF533C0612F15
:1034B00070E0E9E0FE2EF69E8001F79E100D1124CB
:1034C000E801C55ADC4F9B0120953095205E3F4FA7
:1034D000F29EA001F39E500D11246F5F7F4FF69E68
:1034E000C001F79E900D1124BE01855A9C4F0E9489
:1034F000AB64FE011192FA94E9F78E2D8F709881DA
:10350000907F982B988309C0CBE5D3E006C00111CA
:10351000AFCFB6CF103259F6F7CFCE01DF91CF91B2
:103520001F910F91FF90EF900895CF92DF92EF924D
:10353000FF920F931F93CF93DF9300D000D01F9281
:10354000CDB7DEB7982F19821A821B821C82C12C3C
:1035500018C08D2D9D830E94AB23282F30E09D81C4
:103560002017310711F4D701CC920F5F1F4FBFEF27
:10357000EB1AFB0A0530110561F7E4E0DE1659F09D
:10358000CD2CEE24E394F12CEC0EFD1E01E010E0B6
:10359000DC2CD394DECF933009F44CC020F491306E
:1035A00089F0D0F50CC0953009F49EC008F46FC0C6
:1035B000963009F4F0C0973009F095C27AC20E94A3
:1035C000071591C20E94071560E089810E942A1A9E
:1035D000FC01868180788160868314E6118360E037
:1035E0008A810E942A1AFC01868180788260868303
:1035F000118360E08B810E942A1AFC018681807809
:1036000083608683118360E08C810E942A1AFC010A
:1036100086818078846038C060E08B810E942A1A9D
:10362000FC0186818078886086838CE9818381E8CB
:10363000828359C2098161E0802F0E942A1AFC010D
:10364000968190789160968314E6118360E0802FD4
:103650000E942A1AFC0186818078826086838CE928
:1036600081830A8161E0802F0E942A1AFC019681E1
:10367000907891609683118360E0802F0E942A1ACF
:10368000FC01868180788260868311832CC20A8146
:1036900061E0802F0E942A1AFC0196819078926046
:1036A000968314E6118360E0802F0E942A1AFC01A1
:1036B000868180788460868311830C8161E0802F0D
:1036C0000E942A1AFC019681907892609683118359
:1036D00060E0802F0E942A1AFC0186818078846035
:1036E00086838CE98183FFC11A8161E0812F0E946A
:1036F0002A1AFC01968190789260968388E48183EF
:1037000060E0812F0E942A1AFC0186818078836004
:10371000868317E311830C8161E0802F0E942A1AAF
:10372000FC0196819078926096839CEDF92EF1824F
:1037300060E0802F0E942A1AFC01968190789460A4
:1037400096838EE3818360E0802F0E942A1AFC0119
:103750008681807883608683118361E085E00E94A2
:103760002A1AFC018681807882608683F18260E07B
:1037700085E00E942A1AFC01868180788460868315
:1037800082EC818360E085E00E942A1AFC01868138
:103790008078836079CF0E940715A8E2FA2EE3E0D3
:1037A000F5E0DF018F2D1D928A95E9F788E4EBE2C1
:1037B000F5E0DF011D928A95E9F71C8160E0812F19
:1037C0000E942A1AFC019681907892639683B2E354
:1037D000EB2EE18260E0812F0E942A1AFC01968183
:1037E0009078936396830CE9018360E0812F0E94B7
:1037F0002A1AFC01868180788463868314E611830B
:1038000087818F7380648783DA8060E08D2D0E94CA
:103810002A1AFC019681907892639683018360E076
:103820008D2D0E942A1AFC0186818078846386830C
:10383000118387818F7380648783DB8060E08D2DA7
:103840000E942A1AFC018681807883608683118316
:103850008281807C846082838381807C8760838393
:1038600087818F738064878360E08D2D0E942A1A80
:10387000FC01968190789360968311839281907C6D
:10388000956092839381907C9860938397819F73D6
:103890009064978360E08D2D0E942A1AFC01968126
:1038A0009078936096838EE681839281907C966077
:1038B00092839381907C9860938397819F739064A7
:1038C000978360E08D2D0E942A1AFC018681807802
:1038D0008860868383E8818381E8828387818F7310
:1038E0008064878360E089810E942A1AFC018681B6
:1038F000807881608683118360E084E00E942A1AC8
:10390000FC018681807888608683E1828281807C68
:103910008863828387818F738064878360E084E01B
:103920000E942A1AFC0186818078886086838EEC4A
:10393000E82EE1828281807C8860828387818F7318
:103940008064878360E084E00E942A1AFC018681FB
:10395000807887608683F18287818F738064878314
:1039600060E085E00E942A1AFC01868180788263EB
:103970008683E18260E085E00E942A1AFC0186814C
:10398000807883638683018360E085E00E942A1A41
:10399000FC018681807884638683018387818F73AD
:1039A0008064878360E088E00E942A1AFC01868197
:1039B0008078826086838CE3818360E089E00E9466
:1039C0002A1AFC0186818078846086838CEC81834E
:1039D00060E08AE00E942A1AFC0186818078836078
:1039E000868306E401838281807C84608283838174
:1039F000807C8960838387818F738064878360E0A4
:103A00008AE00E942A1AFC0186818078836086837E
:103A100001838281807C856082838381807C8A604F
:103A2000838387818F738064878360E08AE00E944C
:103A30002A1AFC01868180788360868301838281D3
:103A4000807C866082838381807C8A608383878197
:103A50008F738064878360E08AE00E942A1AFC01E9
:103A6000868180788360868311838381807C8B60EC
:103A7000838387818F738064878381E882836DEF7E
:103A800075E080E00E942B5562E076E081E00E94C4
:103A90002B5567E076E082E00E942B556CE076E0E3
:103AA00083E00E942B5561E176E084E00E942B5573
:103AB0001AC061E08FE00E942A1AFC01868180789A
:103AC000836186838EE6818382818F73828386E61B
:103AD000848388E8858382E08093750584E28093FF
:103AE00073051092740582E00F900F900F900F9065
:103AF0000F90DF91CF911F910F91FF90EF90DF908A
:103B0000CF900C94672084EE92E0E7E4F3E0DF01CD
:103B10009C011D9221503040E1F781E00C94951AF0
:103B2000FF920F931F93CF93DF93062F10E088230C
:103B300021F1862F0E941922EC01A8014095509591
:103B4000425F5F4F440F551F440F551FBC01049641
:103B50000E94AB64188219821A821B8293E09883B8
:103B60008091040C81508370880F880F892B888383
:103B70008A818170886C8A832CC0862F0E941122D2
:103B8000EC0100951095005E1F4F39E0F32EF09E7A
:103B9000A001F19E500D1124BC0109960E94AB6456
:103BA000FE011192FA94E9F78091040C282F21501C
:103BB0002F709881907F922B988385300CF002C0F3
:103BC0000E94AB238F779E819078982B9E8384E60A
:103BD000898382E0DF91CF911F910F91FF900C9428
:103BE0006720FC01808141FF02C0682B06C042FFB4
:103BF00003C06095682301C06827608308954F92D1
:103C00005F926F927F928F929F92AF92BF92CF926C
:103C1000DF92EF92FF920F931F93CF93DF9300D029
:103C200000D0CDB7DEB78C01A0E0B0E089839A83E5
:103C3000AB83BC832B01612C712C24E6822E912C4A
:103C4000A12CB12CA5019401241935094609570965
:103C5000BC01CD010E941E646B017C0192E3C90E80
:103C6000D11CE11CF11C9801D8010E9403649B0146
:103C7000AC0169817A818B819C810E941E649C01C8
:103C800044275527C301B2010E941E6444E0969563
:103C90008795779567954A95D1F7C60ED71EE81E8A
:103CA000F91EC701B601A50194010E946264C90111
:103CB0000F900F900F900F90DF91CF911F910F9168
:103CC000FF90EF90DF90CF90BF90AF909F908F903C
:103CD0007F906F905F904F9008951F9341E0262F43
:103CE00030E0683050F440E055E0529FF001539FBF
:103CF000F00D1124ED5FFA4F0AC02850310959E048
:103D0000529FF001539FF00D1124E55DFA4F9C5F27
:103D100097FD0DC0811528E0920784F0442319F027
:103D200088E090E002C084E090E0E80FF91F208175
:103D3000332727FD3095322F222725C0442329F031
:103D4000492F9927880F991F03C0492F46959170D5
:103D5000242F30E0E20FF31F608140E052E0481B67
:103D6000590B5595479564039001659F300D1124BB
:103D70001181BC01759567951603A001179F500D21
:103D80001124240F351FC90169E170E00E944E64BF
:103D9000CB011F9108956091050C0C946D1ECF927C
:103DA000DF92FF920F931F93CF93DF931F92CDB7B4
:103DB000DEB7142F6034C8F587FF02C0180F80E00B
:103DC000C82EDD24C7FCD094F601E10FF11DE138C7
:103DD000F10514F010E8181B862F869586958695B8
:103DE00090E8899FC00CD11C1124E5EFF6E0CE0EBF
:103DF000DF1E677081E090E0F82E01C0FF0C6A952D
:103E0000EAF711C020FF0AC0402F6F2DC601298399
:103E10000E94F11D29812695206801C02695115028
:103E2000FFEFCF1ADF0A1111EDCF0F90DF91CF9185
:103E30001F910F91FF90DF90CF900895262F269528
:103E40002695269590E030E8239F800D911D112442
:103E50008B50994F2AE0853F920750F4262F277008
:103E600061E070E001C0660F2A95EAF70C94F11D3D
:103E70000895CF92DF92EF92FF920F931F93CF930B
:103E8000DF93362F36953695369590E010E8319FC2
:103E9000800D911D1124DC01AB50B94F20FF07C0EC
:103EA0003091FC0B36FF07C021FD07C098C021FBF5
:103EB000FF24F0F804C0F12C02C0FF24F39422FF89
:103EC0002BC074E1479FA00111244A585A4F3BE090
:103ED0002870222319F032301CF481C032303CF0BB
:103EE000FA01649131964E5F5F4FE49102C0E0E0C9
:103EF00060E0FF2011F06095E095CD018F579F4F56
:103F0000855F9A4030F46C93ED01C058DF4FE88331
:103F100011963150F0F663C023FF0DC0FF2011F061
:103F20002FEF01C020E0FC01EB50F94F20831196E8
:103F3000EE24E39401C0E12C15E0419FA00111247F
:103F40004A585A4F6770262F30E0EFEFF0E0CF016C
:103F5000062E01C0880F0A94EAF7D82ED09488E084
:103F600090E0821B930B082E02C0F595E7950A940A
:103F7000E2F7CE2EC09475E0772329F0FA014F5F67
:103F80005F4FC49101C0C0E0F110C095EE2011F068
:103F9000743019F1EAE0A53FBE07F8F4D0E08E01D5
:103FA000022E01C0000F0A94EAF7FC91FD21F00FE8
:103FB000FC93662389F0FD01E058FF4F1AE0E53FCE
:103FC000F10750F4082E02C0D595C7950A94E2F780
:103FD000D081DC21DC0FD0831196715068F6DF911F
:103FE000CF911F910F91FF90EF90DF90CF900895A8
:103FF00020E00C94391F8F5F90E0FC01EE0FFF1F53
:10400000E80FF91FE257FE4F81E09481911101C042
:1040100080E00895DC016C9312961C921E92119719
:1040200070E0FB01EE0FFF1FE60FF71FE257FE4F98
:10403000848113968C93139714961C921092060CFD
:1040400008957093D00B6093CF0B9093CE0B809319
:10405000CD0B4F5F4093BE02E39A8091CE01811158
:1040600002C00895A8958091BE021816DCF3089549
:1040700040E450E060E070E08EE891E00C94212094
:1040800041E050E062E070E080E991E00C94212092
:104090006093FB0A90E1899FB001112441E050E058
:1040A0008BEF9AE00C94212093E0899FB0011124BA
:1040B0006C5F7F4F282F30E0C901880F991F820F56
:1040C000931F43E050E08E569E4F0C942120EBEA64
:1040D000F2E09081982B90830895DB01FC0104C0ED
:1040E00080819C9191938D934150D0F70895CF9208
:1040F000DF92EF92FF920F931F93CF93DF93809104
:104100005703877090910101981751F18093010135
:1041100080917D00857E80937D0017981F9A109274
:104120008A0010928B0082E880938A0080917D0043
:10413000806280937D001EBC80E49CE99BBD8ABDAB
:104140001DBC1CBC87B7837C87BF8CE386BF8FE315
:1041500080937C0087B7806187BF1FBC8AE08EBDDB
:104160008091580385FF03C060E075E002C060E005
:1041700074E0D0905703D594D594D594D594DD0CA4
:1041800028E0D20E8091590344E68402C001112434
:10419000885A9D4F1091220648EE53E01403900177
:1041A000159F300D112428533045281B390BEFEB98
:1041B000F2E0C12CA6E2BBE000271127061B170B7B
:1041C000C8E5D2E0C81BD90B1EC0419151914017E0
:1041D000510724F0461757071CF403C0A80101C07B
:1041E000AB01405A564F7C01E40EF51E2E193F09D3
:1041F0004C0F5D1F11965C934E9313969C938E9378
:1042000012971496C394CD10E0CF44E0C49EF00101
:104210001124EA5DF44F31832083938382831582D6
:10422000148286E29BE09093040180930301DF9166
:10423000CF911F910F91FF90EF90DF90CF90089555
:104240002091BA0B32B78091BA0B2813F9CF922F75
:1042500080E0AC01432B9A01C9010895CF92DF920F
:10426000EF92FF92CF93DF936B017C01C0E1D0E02E
:1042700040E050E8E0E0F0E89A01DA010E940364CF
:10428000C616D706E806F90610F44E275F27F695FE
:10429000E795219719F04E2B5F2BEECFCA01DF91E6
:1042A000CF91FF90EF90DF90CF90089590E0FC01C8
:1042B000E55EFD4F1082FC01EE0FFF1FDF01AB5EDC
:1042C000BD4FE80FF91FE95BFC4F238534852D9323
:1042D0003C93FC01E75EFD4F1082089580E00E9450
:1042E000562181E00C945621EFECF1E020E0822F82
:1042F000806487B9369A349BFECF349A84B195B1E5
:10430000880F991F819391932F5F283081F708952B
:10431000AFECB1E0ECEFFAE040E0842F806487B9C5
:10432000369A208931898D919C9111979695879520
:10433000820F931F8E7F11969C938E938081918123
:10434000820F931F96958795918B808B349BFECF20
:10435000349A84B195B120813181820F931F969553
:104360008795819391934F5F12964830B1F60895E7
:10437000E82FF0E0E256F04FE491F0E0EE0FFF1F7F
:10438000E153FE4F20813181C90108959C016330C2
:10439000A1F034F4613051F064F4662391F120C04F
:1043A0006530A9F084F06630D9F416C097FF29C0B3
:1043B00010C0181619062CF50CC097FF22C03195B5
:1043C000219531091EC018161906B4F002C097FDD8
:1043D00016C020E030E015C01816190684F40CC091
:1043E00067FF06C031952195310986E0861B682F4D
:1043F0006750C9010C946D1E20E034E002C020E03B
:104400003CEFC9010895ECE2F6E020E030E0819154
:104410009191280F391F86E0E434F807C1F7C901EC
:10442000089599E0899F90011124255A3C4FC901B4
:10443000089594E0899F9001112425533B4FC901B1
:1044400008951F93CF93DF93182F882311F0CDE0A9
:1044500001C0CFE1D0E08C2F112331F00E9419224E
:10446000FC019081937005C00E941122FC0196818D
:104470009F779111DF5FC150C7FFEDCF8D2FDF9187
:10448000CF911F910895CF93C82F0E942122282FEA
:1044900030E0C1110CC00FC086E79FE002C089E880
:1044A0009FE090930F0C80930E0C81E008C02E309B
:1044B000310594F703C0203231058CF780E0CF91AD
:1044C00008959DE0899F9001112426533A4FC90118
:1044D0000895EF92FF920F931F93CF93DF93EA011A
:1044E000E62EF12C8701000F111FF801E05FF34F5A
:1044F0000190F081E02D309779F043383FEF53077A
:1045000024F04D37510524F405C0C3E8DFEF02C0A5
:10451000CDE7D0E0C0831FC00E946122FC01EE0DF8
:10452000FF1D9E013595279535952795208323E01E
:1045300030E0002E01C0220F0A94EAF72095FC011A
:1045400034812323C370DD2701C0CC0F0A95EAF71D
:104550002C0FFC01248382E0DF91CF911F910F91FA
:10456000FF90EF900C9467200F931F93CF93DF93EE
:10457000062F10E0E801CC0FDD1FFE01E05FF34FD6
:104580000190F081E02D309729F02081332727FD1D
:10459000309517C00E946122FC01E00FF11F40819D
:1045A000FC012481332727FD309502C035952795DE
:1045B000CA95E2F72370332784E04802200D311DAD
:1045C0001124C901DF91CF911F910F9108951F937D
:1045D000CF93DF93C82F162FD5E0CC2381F0612F26
:1045E0008C2F0E94B422853F21E0920744F0855F22
:1045F0008C1708F08F5FD150C82F79F7C0E08C2F4F
:10460000DF91CF911F910895CF93C62F0E94E7228B
:104610006C2FCF910C94B4228823E1F087FF06C061
:10462000863E1CF0E0E6E81B16C081958B311CF439
:10463000E82FE05C10C085321CF4E82FEB5E0BC065
:10464000893244F4E82FFF27E7FDF095EF57F04F4C
:10465000E49101C0E0E28E2F0895AF92BF92DF9205
:10466000EF92FF920F931F93CF93DF931F92CDB7DB
:10467000DEB7182FE62E5A01F22E802F8073898321
:1046800024E0D22ED0222EC0E981E03119F0E032B0
:1046900049F403C0F501808107C0F50180810E94C3
:1046A0000C2302C0F5018491811103C01093030C07
:1046B0001CC01B37D8F7803260F0202F482F6E2D9A
:1046C000812F0E94391FD11002C01A5F07C0155FE9
:1046D00005C0982F990F980F990F190FFFEFAF1A78
:1046E000BF0AFA94F110D0CFE1CF0F90DF91CF91B4
:1046F0001F910F91FF90EF90DF90BF90AF900895C2
:104700000F93022F2FEF0E942D230F910895AB01DD
:1047100020E0682F80E00C94802320E00C9480231C
:104720000F93FA0194914F5F5F4F929F400D511D7F
:104730001124292F0E942D230F9108950F932223D6
:1047400011F002E001C000E0242F44ED50E10E948E
:1047500090230F910895E0917406F0E0E555F04F35
:10476000E491F0E024E030E0281B3109220F331FF0
:1047700002C0F595E7952A95E2F7E370FF278E2FA3
:104780008F5F08958E30910574F4FC01EE0FFF1FCA
:10479000E80FF91FEE52F44F90819F7081E09F3037
:1047A00009F44CC04AC08231910551F17CF48F303C
:1047B0009105E9F024F48E309105D9F534C08031AB
:1047C000910579F081319105A1F514C084319105ED
:1047D00059F0FCF08531910519F18631910549F5C3
:1047E00025C091B1947026C091B1927023C0909170
:1047F00063001AC09091630093FB992790F90DC054
:104800008091630083FF15C091B196FB992790F9C1
:1048100011C091B196FB992790F981E098270AC0C1
:1048200091B1907107C091B1917004C091B1907233
:1048300001C090E081E0911101C080E008958730CF
:1048400038F4E82FF0E0EE0FFF1FE356FD4F50C0A5
:10485000873009F453C0883081F481E190E00E94F0
:10486000C223811148C082E190E00E94C2238823C4
:1048700009F444C020E030E043C08C3038F4E82F25
:10488000F0E0EE0FFF1FEA5FF34F32C0803190F48B
:10489000E82FF0E0DF01AA0FBB1FAD55B44FEE0FBC
:1048A000FF1FEB5BF94F2D913C9180819181281B7B
:1048B000390B0AC0843158F4E82FF0E0EE0FFF1FE7
:1048C000ED55F44F20813181220F331F19C08432FE
:1048D00038F4E82FF0E0EE0FFF1FE954FD4F08C059
:1048E000863240F6E82FF0E0EE0FFF1FE353FE4F55
:1048F0002081318105C020E03CEF02C020E034E09F
:10490000C9010895EF92FF920F931F93CF93DF9306
:10491000F82E811109C08091F90A9091FA0A892F25
:10492000881F8827881FEFC0282F332727FD309541
:1049300037FF03C0319521953109822F263109F4C3
:10494000BFC02A3030F4C90199270D960E94C223B6
:10495000B8C08A50282F30E0E901CC0FDD1FC20F0C
:10496000D31FCD58DA4F9A81992309F4AFC09A81A9
:10497000953008F4ADC09A81983008F4B3C052E085
:10498000E52EA7C02091F70A3091F80A20233123A1
:1049900081E0232B21F52EC02091F90A3091FA0AEB
:1049A000202B312B3093FA0A2093F90A88810E9438
:1049B0008224E82E89810E9482249A81953019F000
:1049C000963049F403C0EE20A9F002C0E11006C001
:1049D000811104C00FC08E2569F001C081E02091D3
:1049E000F70A3091F80A202B312B3093F80A2093E4
:1049F000F70A67C02091F70A3091F80A00951095E0
:104A0000022313231093F80A0093F70A57C08981F1
:104A100099E28902900111243595279535952795BE
:104A200087FD815C86FB880F880B80F9281B310984
:104A300087FD33958A81823099F1833019F0813076
:104A400039F42AC017FF27C011950195110923C019
:104A500017FF26C011950195110922C08981815047
:104A60000E941F249C018A81893081F018F48830CB
:104A700009F507C08A3079F08B3091F08C30D1F491
:104A800014C081E002171307E1F018C081E002179B
:104A90001307B9F413C081E02017310794F00EC05A
:104AA00081E0021713076CF009C081E002171307B9
:104AB00044F404C081E0201731071CF480E001C0F9
:104AC00081E01F1404F191E089271DC080E01BC024
:104AD000E12C888181500E941F248C01EE2009F472
:104AE00096CFBCCF01E010E002C0000F111F8A95E5
:104AF000E2F72091F90A3091FA0A20233123232B7F
:104B000009F040CF49CFDF91CF911F910F91FF90D6
:104B1000EF900895362F37953327379520E030935F
:104B2000FA0A2093F90A0C94822460E080915C06D2
:104B30000E948A25811106C080917306811102C0EE
:104B4000C7980895C79A08950F931F93CF93DF9343
:104B5000C1E0D0E00DE01C2F0C9FF0010D9FF00D87
:104B60001124E653FA4F8581882329F060E00E94E2
:104B70008A25811105C02196C530D10561F710E065
:104B8000812FDF91CF911F910F9108954F925F92E6
:104B90006F927F928F929F92AF92BF92CF92DF924D
:104BA000EF92FF920F931F93CF93DF935C01862FB9
:104BB00098E0F501ACE1BBE001900D929A95E1F728
:104BC0006F3F11F40E94A425582E539400E010E08A
:104BD00088248A94F4E6CF2ED12CE12CF12C612C80
:104BE000A4E07A2EE801CC0FDD1FCC0FDD1FC553EA
:104BF000DB4F49814295469547702881822F83700B
:104C000009F482C026952695237030E0882D9927D7
:104C100087FD90952817390709F470C0442341F0A7
:104C20008A8180FF03C0541203C068C0541266C05A
:104C30008981880F880F880F61E085958595859516
:104C40000E948A25882309F459C08881982E969459
:104C5000969493E09922A92DB0E0AA0FBB1FA45E01
:104C6000B44F0D90BC91A02DB7FF03C080FD03C0D1
:104C700045C081FF43C0892C6B81772767FD709504
:104C800061157105F9F04B2E441C4424441C19F0A5
:104C9000B195A195B10977FF0CC071956195710926
:104CA000C3018A1B9B0B0E94FF1DD301A81BB90BDC
:104CB00004C0CD010E94FF1DDC01442019F0B19514
:104CC000A195B109688162956F7039F06B3008F079
:104CD0006C5FCD010E94C621DC012A81269530E05F
:104CE0000E940F64A70196010E948464F50182E08E
:104CF000989EE00DF11D1124208331830F5F1F4F1B
:104D00000E30110509F06ECFDF91CF911F910F91F9
:104D1000FF90EF90DF90CF90BF90AF909F908F90DB
:104D20007F906F905F904F900895CF92DF92EF92B7
:104D3000FF920F931F93CF93DF93CDB7DEB72897E2
:104D40000FB6F894DEBF0FBECDBF6C018091B70BDC
:104D50000E9419227C018E010F5F1F4F88E0F8012D
:104D600011928A95E9F7F70180818695869583707F
:104D7000F80192E0899FE00DF11D1124D182C082DB
:104D80006FEFC8010E94C625F70180818695869540
:104D90008370F80192E0899FE00DF11D112480815C
:104DA000918128960FB6F894DEBF0FBECDBFDF917C
:104DB000CF911F910F91FF90EF90DF90CF900895CA
:104DC0009C01B5E035952795BA95E1F7280F391F75
:104DD000AC01440F452F441F550B241B350B892F65
:104DE000990F990B8595280F391FC90108956F9266
:104DF0007F929F92AF92BF92CF92DF92EF92FF92FB
:104E00000F931F93CF93DF931F92CDB7DEB7182F69
:104E100006E02BE04EEB50E163E00E940A4D882350
:104E200009F4A5C022E041ED5FE060E080E00E946F
:104E30008023B090F501BA94103619F0143699F425
:104E400009C085E0B81206C01092B90B88EC8093B7
:104E5000120209C0E4E0EB1530F0B092B70B8EE718
:104E600093E30E94ED5718E0612C712CCB2CDD24CC
:104E7000C7FCD094A62C6C147D0411F422E001C070
:104E800020E08A2D29830E9461227C014A2D4F5FF8
:104E90002981612F80E00E946213A7014A5F5F4F62
:104EA00000E226E0612F88E10E942D23A11007C0B7
:104EB0004FED5FE0612F85E40E948D2317C020E055
:104EC000F7014581612F85E40E94B7589DE5912C3B
:104ED00000E0292D4A2D612F892F99830E942258A5
:104EE000939499819A5FF4E09F12F2CFF701848541
:104EF000882371F0982F9F7021F0807F21F04AE283
:104F000003C04FE401C049E4612F8AE70E94F81F03
:104F1000FFEF6F1A7F0A185F103309F0ABCF85E0FF
:104F2000B81206C080911202811102C012E001C0C5
:104F300010E0212F48EE5FE068E380E00E948023CC
:104F40000E94A425482F4F5F212F68E384E20F9031
:104F5000DF91CF911F910F91FF90EF90DF90CF9055
:104F6000BF90AF909F907F906F900C9462130F90C2
:104F7000DF91CF911F910F91FF90EF90DF90CF9035
:104F8000BF90AF909F907F906F9008950F9300E037
:104F900026E04FEF54E162E00E940A4D882349F178
:104FA00022E047E650E160E080E00E9480236FE667
:104FB00070E180E10E9487236DE770E188E10E9443
:104FC00087236FE870E180E20E94872360EA70E146
:104FD00088E20E9487236FEA70E188E30E948723BA
:104FE00040912B0620E850E068E380E30F910C9499
:104FF0006C160F9108950F931F93CF93DF93182F83
:1050000006E02BE04EEB50E162E00E940A4D88235F
:1050100009F4F0C022E044EF5FE060E080E00E942D
:105020008023D091F5018091B80B81112BC06EEFD8
:105030007FE088E00E948723D13011F402E001C0B4
:1050400000E02091C70526952695269549E454E170
:1050500068E084E50E949023D130B1F46091C705E7
:1050600066956695669524E040E0812F0E946A5619
:10507000880F880F880F9091C7059770982B909391
:10508000C70502C0C8E001C0C0E18091B80B823002
:10509000E0F46EE070E18C2F0E948723D23011F48F
:1050A00022E001C020E04091C8056C2F84E50E94F9
:1050B000A313D23049F424E240E06091C805812F67
:1050C0000E946A568093C805C85F8091B80B8330F0
:1050D000E8F468E170E18C2F0E948723D33011F44B
:1050E00022E801C020E84091C90550E06C2F84E51A
:1050F0000E946C16D33049F424E640E06091C90563
:10510000812F0E946A568093C905C85F8091B80BB1
:10511000843008F563E270E18C2F0E94872301E060
:10512000D43009F000E06091C7056170402F8C2FEA
:105130000E940613002371F06091C705617021E0A1
:1051400040E0812F0E946A569091C70580FB90F93C
:105150009093C705C85F8091B80B853018F561E35F
:1051600070E18C2F0E94872301E0D53009F000E028
:105170006091C70566956170402F8C2F0E940613C1
:10518000002379F06091C7056695617021E040E0E9
:10519000812F0E946A569091C70580FB91F99093E8
:1051A000C705C85F8091B80B863020F56FE370E1CA
:1051B0008C2F0E94872301E0D63009F000E0609137
:1051C000C70562FB662760F9402F8C2F0E940613EB
:1051D000002381F06091C70562FB662760F921E03A
:1051E00040E0812F0E946A569091C70580FB92F99A
:1051F0009093C705DF91CF911F910F9108952F9242
:105200003F924F925F926F927F928F929F92AF9256
:10521000BF92CF92DF92EF92FF920F931F93CF93A3
:10522000DF9300D01F92CDB7DEB7382E698380910F
:105230000E0C90910F0C892B11F010E001C0198118
:10524000BFE1FB2EF12280910C0C882331F021E08C
:10525000D12EF21203C0DA9401C0D12E332019F0FE
:1052600040ED55E102C04DE450E122E060E080E015
:105270000E948023832D0E9421229091030C20E024
:10528000482F50E060E0892F815F0E946C16332028
:1052900019F044E550E102C048E550E160E080913A
:1052A000030C0E948D23009102010150332011F064
:1052B00064E001C065E02BE04EEB50E18D2D0E94D3
:1052C0000A4D882309F471C44090F501143680F426
:1052D000123608F003C1113269F120F4103209F0DE
:1052E0006DC152C0812F8254823008F067C1F6C070
:1052F000163850F4143808F0A0C0103809F472C001
:10530000113809F05BC106C0812F8E5B823008F036
:1053100055C16FC080910C0C882349F080910B0C13
:10532000811105C06091B70B832D0E94E01981E8BF
:105330000E949D5580910B0C882309F45AC08091DE
:105340000C0C813031F46091B70B832D0E94E01971
:1053500016C061E080910B0C18160CF060E0832DF4
:105360000E94EE1080910B0C87FF02C08F5F01C07E
:10537000815080930B0C80910B0C8111EACF4090EF
:105380000A0C4092F50135C08091040C882341F04D
:1053900080910C0C882331F180910B0C811122C07B
:1053A00080910C0C813011F482E001C081E0809387
:1053B0000C0C8091B70B8093240B332041F00E949A
:1053C0001922DC018C9186958695837005C00E9418
:1053D0001122FC0180818F708F5F8093250B40929A
:1053E0000A0CECC0812F0E949D5580910B0C8823E4
:1053F00029F010920C0C10920B0CE0C080910C0C58
:1054000081111092040C8091040C882351F0832D9B
:105410000E9443228111D2C06091B70B832D0E945C
:10542000901D332019F087ED9AE302C08EEB9CE3C8
:105430000E94ED5710920C0CB8C380910C0C88237D
:1054400009F4BCC080910B0C8111B8C0832D0E945F
:1054500043228111B3C08091B70B332041F00E94E9
:105460001922DC018C9186958695837005C00E9477
:105470001122FC0180818F708F5F8093040C14389F
:1054800029F48091B70B8F5F8093B70B6091B70BB6
:10549000832D0E94901D332019F087ED9AE302C0FE
:1054A0008EEB9CE30E94ED5710920C0C812F0F9015
:1054B0000F900F90DF91CF911F910F91FF90EF9080
:1054C000DF90CF90BF90AF909F908F907F906F9024
:1054D0005F904F903F902F900C949D5580910C0CB5
:1054E000882309F46BC090910B0CF3E0092FFF1295
:1054F00002C0015001C00F5F911144C0813009F01A
:1055000053C0832D0E944322811158C08091B70B54
:10551000C82ED12C332071F00E941922A60140958B
:105520005095425F5F4F440F551F440F551FBC01FC
:1055300004960FC00E941122C094D09420E2C20EA3
:10554000D11C29E02C9DA0012D9D500D1124BC01E2
:1055500009960E94AB6482E00E94672082E0F81204
:1055600004C08091B70B8F5F1CC08091B80B242DB5
:1055700030E0281B310926303105F4F08F5F80932D
:10558000B80B1AC0011110C0813071F46091B70BD3
:10559000832D0E94E019A3E0FA120EC08091B70B90
:1055A00081508093B70B08C061E0B3E0FB1260E06C
:1055B000832D0E94EE10811100930B0C1092040CAD
:1055C00055245394212CFF24F394A8C2EDE0E21556
:1055D00008F4DAC2822D0E9419224C01DC012C91C0
:1055E000822F86958695837090E001968A159B059B
:1055F00009F0CAC2237009F0BCC2C6C2BFE1B2152D
:1056000008F4C2C2822D0E9411226C01FC01868125
:105610008F7709F4B9C280818F7090E001968A1566
:105620009B0509F0B1C2A8C22F2D30E0281B31091B
:105630002830310574F4622F660F660F660F20E084
:10564000452D80E0332019F00E94A31302C00E9470
:10565000D213622C03C04C016B01F42E80910C0C10
:105660008823E1F1823081F58091B80B8F1560F5C8
:10567000EF2DF0E0E81BF109E830F1052CF5809101
:10568000250B851121C020910B0C2223E9F0862DDA
:1056900090E04091240B332727FD30952227330FCC
:1056A000221F3327240F311D8217930769F46E2FB1
:1056B000660F660F660F6150E12C05E529E04AE6AA
:1056C00086E10E942A59F3948091B70B86110BC092
:1056D000F092F5015092040C4F2C05C04F1003C0FE
:1056E0006092B70BF42C8091B80B8F1508F06FC146
:1056F0002F2D30E0281B3109283031050CF067C10F
:10570000722E770C770C770C862D332009F4B1C0FC
:105710000E9419229B838A8380910C0C811102C004
:105720004F1411F000E001C002E0AA81BB81129683
:105730004C914695202F50E0672D82E20E946C1616
:10574000002399F0EA81FB816281669524E640E0BE
:10575000812F0E946A56880FAA81BB8112969C9164
:1057600012979170982B12969C93AA81BB811396E5
:10577000EC914E2F552747FD509520E0672D87E38C
:105780000E946C16EA81FB81828141814295469597
:10579000477080FD419520E0672D8CE30E946213E5
:1057A000AA81BB8111964C91440F440F440F45953B
:1057B0004595459520E0672D82E50E94B758EA811E
:1057C000FB8180818370833049F0823011F44EE791
:1057D00001C04FE7672D86E60E94F81FAA81BB81B2
:1057E0002C91822F807F79F022952F70822F90E06C
:1057F0000B9714F044E001C040E0420F20E0672D19
:105800008EE60E943B1340910C0C442309F4DFC048
:10581000413021F080910B0C811123C08091250B28
:1058200085111FC0862D90E05091240B20910B0C08
:10583000332727FD30952227330F221F3327250FCB
:10584000311D8217930769F4413011F40FEF01C045
:1058500005E5672D6150E12C29E04EE682E10E94CA
:105860002A59F410B4C000E027E04CE6672D83E12C
:10587000ACC00E9411229B838A83621469F0FC01F0
:105880002281229526952695237000E04AE152E177
:10589000672D86E00E949023AA81BB8116964C91C9
:1058A0004F7720E0672D8AE10E94C71380910C0C8E
:1058B000811102C04F1411F000E001C002E0AA8182
:1058C000BB811196EC914E2F552747FD5095202F07
:1058D000672D89E40E946C16002361F02DE743E8F0
:1058E000EA81FB816181812F0E946A56AA81BB8176
:1058F00011968C93EA81FB814381842F8F7349F049
:10590000440F440F4595459520E0672D8FE40E9494
:105910003B13AA81BB8112964C91842F8F7349F05F
:10592000440F440F4595459520E0672D86E60E947B
:10593000B758EA81FB818581811102C040E201C034
:1059400043E5AA81BB8114968C91882329F04335C5
:1059500011F44AE201C044E420E0672D8BE70E9485
:10596000391F40910C0C442391F1413021F080917A
:105970000B0C811123C08091250B85111FC0862D32
:1059800090E05091240B20910B0C332727FD30958C
:105990002227330F221F3327250F311D821793072C
:1059A00069F4413011F40FEF01C005E5672D615036
:1059B000E12C29E04AE686E10E942A59F41007C04A
:1059C00000E027E048E6672D87E10E9478164F2D1A
:1059D0004F5F6394B601675F7F4FC4010496332025
:1059E00099F0BDE0B61510F1F4015481252F2695EC
:1059F0002695237030E02F5F3F4F2A153B05B1F409
:105A0000537009F028CE12C0FFE1F61578F0D601E8
:105A10001F962C911F972F7749F01996EC91EF70F4
:105A2000F0E03196EA15FB0509F415CE80910C0CD7
:105A3000823009F070C08091B80B841708F06BC0F9
:105A4000E42FF0E0E81BF109E830F1050CF063C049
:105A50008091250B85115FC0A62DB0E08091240BAD
:105A600020910B0C332727FD30952227330F221F5F
:105A70003327280F311DA217B30709F04CC06E2F32
:105A8000660F660F660F6150E12C05E529E04AE6D6
:105A900086E10E942A594F2D4E5F3DC02092B70BE0
:105AA0005092040C80910C0C811171C022E0809105
:105AB000B80B8F1568F5CF2CD12CF601E81BF10936
:105AC000E830F1052CF56E2F660F660F660F452D39
:105AD00080E0332019F00E94A31302C00E94D21369
