:100000000C94540D0C94710D0C94710D0C94710D95
:100010000C94710D0C94710D0C94710D0C94710D68
:100020000C94710D0C94710D0C94710D0C94525430
:100030000C9478530C94710D0C94710D0C942951FF
:100040000C941C550C94710D0C944E530C947F54CD
:100050000C94710D0C94710D0C941E540C94710D34
:100060000C94E2530C949D540C94710D0C94710DEE
:100070000C94710D0C94710D0C94710D0C94710D08
:100080000C94710D0C94710D0C94710D50080000BE
:100090000000000000006F000007000700147F143C
:1000A0007F14242A7F2A12231308646236495522BA
:1000B000500005030000001C2241000041221C00EA
:1000C00014083E081408083E0808005030000000DC
:1000D0000808080800606000002010080402003EC4
:1000E00041413E0000427F40006251494600414983
:1000F0004936001814127F0027454539003E49490A
:100100003200017905030036494936000649291EA7
:100110000000363600000056360000081422411454
:10012000141414144122140800020151090606098E
:100130000906007E0909097E7F494949363E414149
:1001400041227F4141221C7F494949417F090909D8
:10015000013E4149497A7F0808087F00417F4100FC
:100160002040413F017F081422417F404040407FB2
:10017000020C027F7F0408107F3E4141413E7F090F
:100180000909063E4151215E7F0919294626494940
:10019000493201017F01013F4040403F1F20402084
:1001A0001F3F4030403F631408146307087008077E
:1001B0006151494543007F4141000204081020007D
:1001C00041417F00040201020440404040400001E0
:1001D00002040020545454787F484444383844443E
:1001E0004420384444487F3854545418087E090148
:1001F000020C5252523E7F0804047800447D4000B5
:100200002040443D007F1028440000417F40007C96
:10021000041804787C0804047838444444387C1476
:10022000141408081414187C7C0804040848545456
:100230005420043F4440203C4040207C1C2040206F
:100240001C3C4020403C44281028440C5050503C5A
:100250004464544C44000836410000007F00000014
:10026000413608000808221C08081C2208082054EF
:10027000565478205654567838464446387C1313E2
:10028000127C7C1312137C3C4342433CA060000070
:10029000000000000000000000000000FEFE000062
:1002A000000000003E7E00007E3E00006060FEFE1A
:1002B0006060FEFE606060F09898FEFE98981818E6
:1002C0000C1E1E0C80C0E070381878FC8EC6E676D6
:1002D0003C180000000066763E1E00000000000092
:1002E000E0F0381C0E0600000000060E1C38F0E09E
:1002F00000006060C080F8F880C06060808080800E
:10030000F8F88080808000000000000000000000FD
:10031000000000808080808080800000000000005D
:10032000000000000000000080C0E07038180000ED
:1003300000000000000000000000000071710000DB
:1003400000000000000000000000000006067F7FA3
:1003500006067F7F0606181819197F7F19190F06E0
:10036000181C0E070301307878301E3F71636766F2
:100370003C3C666600000000000000000000000039
:10038000070F1C387060000000006070381C0F07F9
:100390000000060603011F1F0103060601010101FB
:1003A0001F1F01010101000066763E1E00000000D3
:1003B00000000001010101010101000030787830E6
:1003C00000000000181C0E070301000000000000E0
:1003D000F8FC0E06060EFCF80000181CFEFE0000DD
:1003E00000000000181C0E0686CEFC7800000606F1
:1003F000868686CEFC78000080C0E070381CFEFE49
:1004000000007E7E666666E6C6860000F8FC8E8684
:10041000868E1C180000060686C6E6763E1E000084
:1004200078FCCE8686CEFC78000078FCCE8686CE20
:10043000FCF80000307878300000000000003078D0
:10044000783000000000000080C0E070381C0E060C
:1004500060606060606060606060060E1C3870E024
:10046000C0800000181C0E06060686CEFC78000030
:100470001F3F706060703F1F000060607F7F6060A2
:1004800000000000787C6E6763616060000060605F
:10049000616161733F1E00000707060606067F7F45
:1004A00000001838706060703F1F00001F3F7161CE
:1004B00061733F1E000000007F7F0000000000000D
:1004C0001E3F736161733F1E000000006171391DA2
:1004D0000F0700000C1E1E0C0000000000006676D6
:1004E0003E1E0000000000000103070E1C38706073
:1004F000060606060606060606066070381C0E0787
:10050000030100000000000066670301000078FCA2
:10051000CE8686CEFC780000E0F0B89C8E8E9CB82B
:10052000F0E0FEFE8686868686CEFC78F8FC0E0617
:100530000606060E1C18FEFE0606060E1C38F0E027
:10054000FEFE8686868686860606FEFE868686866B
:1005500086860606F8FC0E068686868E9C98FEFE2B
:10056000808080808080FEFE00000606FEFE06067B
:100570000000000000000606FEFE0606FEFE80C02B
:10058000E070381C0E06FEFE0000000000000000B7
:10059000FEFE1C38F0F0381CFEFEFEFE70E0C0804F
:1005A0000000FEFEF8FC0E060606060EFCF8000033
:1005B00001010101000000007F7F01010101010133
:1005C0007F7F7F7F6161616161733F1E1F3F70604C
:1005D0006060607038187F7F60606070381C0F0743
:1005E0007F7F61616161616160607F7F0101010105
:1005F000010100001F3F7060616161717F3F7F7F7B
:100600000101010101017F7F000060607F7F606068
:1006100000001838706060703F1F00007F7F01038A
:10062000070E1C3870607F7F606060606060606093
:100630007F7F0000010100007F7F7F7F00000103BA
:10064000070E7F7F1F3F7060606060703F1FFEFE7F
:100650008686868686CEFC78F8FC0E060606060E92
:10066000FCF8FEFE8686868686CEFC7878FCCE86F2
:100670008686868E1C1806060606FEFE06060606FA
:10068000FEFE000000000000FEFEFEFE0000000076
:100690000000FEFEFEFE000000000000FEFE1E3E0A
:1006A00070E0C0C0E0703E1E7EFEC080000080C0D2
:1006B000FE7E0606060686C6E6763E1E0000FEFEA6
:1006C000060606060000183870E0C0800000000032
:1006D000000006060606FEFE00006070381C0E0EC6
:1006E0001C387060000000000000000000007F7FE8
:1006F00001010101010100001F3F7060666E3C387E
:100700007F677F7F0101070F1D39706018387161A5
:10071000616161733F1E000000007F7F00000000E8
:100720001F3F7060606060703F1F070F1C38707063
:10073000381C0F071F3F70703E3E70703F1F787C63
:100740000E070303070E7C78000001037F7F03017F
:100750000000787C6E6763616060606000007F7F8E
:10076000606060600000000000000103070E1C18BC
:100770000000606060607F7F0000000000000000FB
:1007800000000000606060606060606060600000A9
:10079000060E1C387060000000006060606060E061
:1007A000C080FEFE80C0E06060E0C08080C0E0608D
:1007B00060606060000080C0E06060E0C080FEFEBD
:1007C00080C0E060606060E0C0808080F8FC8E8661
:1007D000060E1C18E0F0381818181818F8F8FEFE65
:1007E00080C0E06060E0C08000006060E6E600007D
:1007F0000000000000006060E6E60000FEFE000071
:1008000080C0E060000000000606FEFE0000000060
:10081000E0E060E0C0C0E0E0C080E0E080C0E06018
:1008200060E0C08080C0E060606060E0C080000088
:100830000000000000000000183C7E6666666666E8
:100840007F7F7F7F6161606060703F1F1F3F7060CE
:100850006060607038181F3F7060606061617F7F0A
:100860001F3F766666666666070701017F7F0101A6
:100870000000000001036766666666763F1F7F7FA3
:100880000101000000007F7F000060607F7F6060EA
:1008900000001838706060703F1F00007F7F060FF7
:1008A0001F3970600000000060607F7F60600000A2
:1008B0007F7F0000070700007F7F7F7F010100002E
:1008C00000007F7F1F3F7060606060703F1FE0E04E
:1008D0006060606060E0C08080C0E0606060C08098
:1008E000E0E0E0E080C0E06060E0C08080C0E06008
:1008F0006060606000006060FEFE606000000000FC
:10090000E0E0000000000000E0E0E0E000000000A7
:100910000000E0E0E0E0000000000000E0E060E057
:10092000C080000080C0E060E0E000000000000047
:10093000E0E0606060606060E0E0E060000080C077
:10094000787C0E06000000000000FEFE00000000A3
:100950000000060E7C78C0800000808080801838FF
:10096000F0E0C08080C0E0F03818808080807F7F19
:100970000606060606070301010307060606070723
:100980007F7F7F7F010100000000010161636766D6
:100990006666667E3C1800001F3F70606070381805
:1009A0001F3F7060607038187F7F070F1C387070B1
:1009B000381C0F071F3F7070383870703F1F607011
:1009C000391F0F0F1F397060010367666666667610
:1009D0003F1F6070787C6E67636160600000010398
:1009E0001E3E70600000000000007F7F00000000DD
:1009F000000060703E1E0301000001010101181C8F
:100A00000F0703010103070F1C180101010100007A
:100A100060606E6A6EE0C08000006C6C60606CECC0
:100A2000C08080C0EC6C60606CECC080E0F0B89E70
:100A30009A9A9EB8F0E0E0F6BA9C8E8E9CBAF6E0E8
:100A4000E0F6361818181836F6E00000000000002E
:100A50000000000000000000000000000000000096
:100A60000000000000000000000000000000000086
:100A70000000000000000000000000000000000076
:100A80000000000000000000000000000000000066
:100A90000000000000000000000000000000000056
:100AA0000000000000000000000000000000183CF2
:100AB0007E66666666667F7F183C7E6666666666EC
:100AC0007F7F1F3F7060606060703F1F7F7F01010C
:100AD000010101017F7F7F7F0101010101017F7F12
:100AE0001F3F7060606060703F1F000000000000EA
:100AF00000000000000000000000000000000000F6
:100B000000000000000000000000000000000000E5
:100B100000000000000000000000000000000000D5
:100B200000000000000000000000000000000000C5
:100B300000000000000000000000000000000000B5
:100B400000000000000000000000000000004578E8
:100B5000706F2073616B6E617321004D69786572EF
:100B60002073616B6E6173210003010200040506AE
:100B7000075F2D2E2C001B1E272D36394B4E636C24
:100B80007278878D939CB1B4C6C9D2D8E1E40102D2
:100B900003040103020404020301040302014545A6
:100BA00070726F6D204461746166656C2000466FE1
:100BB000726D61746572617220454570726F6D006F
:100BC0004D454444454C414E4445005350530080EC
:100BD00040000000000000000000000000000000D5
:100BE0000000000000000000000000000000000005
:100BF00000000000000000000000000000000000F5
:100C000000000000000000000000000000000000E4
:100C100000000000000000000000000000000000D4
:100C200000000000000000000000000000000000C4
:100C300000000000000000000000000000000000B4
:100C400000000000000000000000000000000000A4
:100C500000FCFCFCFCFCFCFCFCFCFCFCFCFCFCFCD0
:100C6000FCFCFCFCFCFCFCFCFCFCFCFCFCFCFCFCC4
:100C7000FCFCFCFCFCFCFCFCFCFCFCFCFCFCFCFCB4
:100C8000FCFCFCFCFCFCFCFCFCFCFCFCFCFCFCFCA4
:100C9000FCFCFCFCFCFCFCFCFCFCFCFCFCFCFCFC94
:100CA000FCFCFCFCFCFCFCFCFCFCFCFCFCFCFCFC84
:100CB000FCFCFCFCFCFCFCFCFCFCFCFCFCFCFCFC74
:100CC000FCFCFCFCFCFCFCFCFCFCFCFCFCFCFCFC64
:100CD000FCFFFFFFFFFFFFFFFFFF7F7F3F3F3F3F27
:100CE0003F3F7F7FFFFFFFFFFFFFFFFF3F3F3F3F94
:100CF0003FFF7F7F3F3F3F3F7FFFFFFFFFFFFFFF44
:100D0000FFFF7F7F3F3F3F3F3F3F7F7FFFFFFFFF73
:100D1000FFFFFFFFFF3F3F3F3F3FFF7F3F3F3F3F23
:100D20003F7FFFFFFFFF7F0F07030181E0F0F0F03F
:100D3000E0000101071FFFFFFFFFFFBF3F3F3F3FF5
:100D40007FFFFFFFFFFF7F3F3F3F3F3FBFFFFFFFB3
:100D5000FFFFFFFFFF3F07030100C0F0F8FCFCFCB2
:100D6000FCF80000000103FFFFFF3F0100000080CE
:100D7000E0F8FCFCFCF80000000001FFFF3F070367
:100D800001000010181C1C1C1C180000000103FFAF
:100D9000FFFFFF1F00000000C0F8FCFCFC1000007B
:100DA0000000C0FFFFFFE0800000000F1F1F1F0FAB
:100DB0000300000000E0FFFFFFFFFFFFFEF8E00080
:100DC000000107070180E0F0F8FCFEFFFFFFFFFFD6
:100DD000FFFFFFFFFFE0C08000000F1F1F1F1F0F5E
:100DE000070180C0E0F0FEFFFF0700000000C00F19
:100DF0001F1F1F0F07010080E0F0FEFFFFE0C08013
:100E000000000E0E1E1E1E1E1E1E1E0ECEFEFEFF1D
:100E1000FF7F0300000080FCFFFFFF3F0300000096
:100E200080FCFFFF1F0F0F1F1F1E1E1E0E0E0781CF
:100E3000C0E0F0FCFFFFFFFF7F3F1F0F030180E0DA
:100E4000F0F8E0800001071F7FFFFFFFFFFFFFFFBB
:100E5000FFFFFFFFFFFFFFFFFFFFFEFEFEFEFEFEA8
:100E6000FFFFFFFFFFFFFF1F00000000C0FEFFFFAE
:100E7000FEFEFEFEFEFFFFFFFFFFFFFFFFFFFFFF87
:100E8000FFFFFEFEFEFEFEFEFEFEFFFFFFFFFFFF7A
:100E9000FFFEFEFEFEFEFFFFFFFFFFFEFEFEFEFE6C
:100EA000FFFFFFFFFFFFFEFEFEFEFEFEFEFFFFFF59
:100EB000FFFFFFFFFFFFFFFEFEFEFEFEFEFFFFFF48
:100EC000FFFFFFFFFEFEFEFEFEFFFFFFFFFFFFFF37
:100ED000FF1F1F1F1F1F1F1F1F1F1F1F1F1F1F1F42
:100EE0001F1F1F1F1F1F1F1F1F1F1F1F1F1F1F1F12
:100EF0001F1F1F1F1F1F1F1F1F1F1F1F1F1F1F1F02
:100F00001F1F1F1F1F1F1F1F1F1F1F1F1F1F1F1FF1
:100F10001F1F1F1F1F1F1F1F1F1F1F1F1F1F1F1FE1
:100F20001F1F1F1F1F1F1F1F1F1F1F1F1F1F1F1FD1
:100F30001F1F1F1F1F1F1F1F1F1F1F1F1F1F1F1FC1
:100F40001F1F1F1F1F1F1F1F1F1F1F1F1F1F1F1FB1
:100F50001F00000000000000000000000000000072
:100F60000000000000000000000000000000000081
:100F70000000000000000000000000000000000071
:100F80000000000000000000000000000000000061
:100F90000000000000000000000000000000000051
:100FA0000000000000000000000000000000000041
:100FB0000000000000000000000000000000000031
:100FC0000000000000000000000000000000000021
:100FD0000053504500454550524F4D206C6F7720CF
:100FE0006D656D00476173656E20656A206176737B
:100FF00074816E67642100536C8020617620676184
:1010000073656E0042727974617265205080736CF2
:1010100061676E6121005374816E67206176206480
:10102000656D00416C61726D656E204176737481EF
:101030006E6764612100416C743A00120800081C5C
:101040000808081C080000082200490022080000C7
:10105000000000227F220000000822004900220830
:10106000000008220049002208000000227F220020
:1010700000000000082200490022080000081C08A7
:1010800008081C080048454C494B4F505445520035
:101090005377617368747970004B6F6C6C656B7417
:1010A000697600537761736872696E670048854A94
:1010B000442052696B746E696E6700534B4556202D
:1010C00052696B746E696E67004B4F4C4C205269CD
:1010D0006B746E696E67004D49584552002F31346C
:1010E000002F3332004B5552564F52004B5500568D
:1010F000455253494F4E00564552533A2056322ED0
:1011000030302D465748002053564E3A20747275A1
:101110006E6B2D7233363100444154453A203230E3
:1011200031322D30332D31330054494D453A203280
:10113000303A30383A303900454550524F4D2076DC
:1011400000444941474E4F53005472696D2D202B86
:10115000004F66667365740044522F4558504F0027
:101160004D6F64004B5552564100000202020200CE
:10117000545241494E4552202850504D20494E2945
:1011800000536C617600656666656B742025206B84
:10119000816C6C6100468272737481726B6E2E007A
:1011A00043616C00414444455241204D495800453B
:1011B000444954455241204D4958004B816C6C6163
:1011C0000056696B7400446966666572656E746981
:1011D000616C005472696D004B7572766F720046D7
:1011E0006C7967666173005661726E696E67004163
:1011F0005620004D756C747078004682726472825D
:101200006A6E2E204E6564004682726472826A6E37
:101210002E205570700054728267686574204E6588
:101220006400547282676865742055707000464C83
:1012300059474641534552005374616E646172646C
:10124000004B6F6C6C61055472696D6D6172005476
:1012500040313A075440323A00524D503A065461F8
:101260006E6B3A004163633A005370643A00447312
:10127000743A004C61743A004C6F6E3A00486467EF
:101280003A004E4F20444154410063004646004D11
:101290004F44454C4C0050504D004B4E00544D5265
:1012A000005354415453495354494B00544D310D4C
:1012B000544D32005448520D54482500544F5400A8
:1012C000444542554700746D72314C6174206D6124
:1012D0007804757300746D72314C6174206D696EA1
:1012E00004757300746D7231204A697474657204F8
:1012F000757300746D61696E206D6178066D7300A1
:101300004672656520537461636B206D696E04627B
:10131000005B4D454E555D204E4F4C4C41522020B8
:101320000050726F746F6B6F6C6C000341562050ED
:101330008320032D2D2D494E560434434820364B2F
:101340004E20384B4E2031304B4E31324B4E3134E3
:101350004B4E31364B4E06547973742020416C61EC
:10136000726D20456A204B6E70416C6C61202006C6
:10137000784B6F7274204B6F727420204E6F726DB9
:10138000616C4C806E672020784C806E672004531F
:10139000494E474F534D5046494C54044E656420C6
:1013A000415620205570702003204156202B3D20AF
:1013B0003A3D036B6E316B6E326B6E336B6E34067F
:1013C0004578702020207846696E202046696E207E
:1013D00020204D656469756D47726F76202001523B
:1013E0004554413132330550504D2020505858203B
:1013F0002044534D322050504D313603504F534E00
:101400004547032D2D2D783E30783C307C787C6626
:101410003E30663C307C667C054544495420505241
:10142000534554412E5448520656696B742020454A
:1014300078706F20204B7572766120466173202092
:10144000204272797461724E817220202020202007
:1014500020202008416464657261202046827273F6
:101460007481726B4572738174742020022B3D2A43
:101470003D3A3D0650832020202041562020202048
:101480004F6666736574072D2D2D2D002020763E46
:101490006F66732020763C6F667320202876293E85
:1014A0006F66732876293C6F6673414E4420202076
:1014B000204F522020202020584F522020202076DC
:1014C000313D3D7632207631213D76322076313EF7
:1014D0007632202076313C7632202076313E3D76C1
:1014E000322076313C3D7632200D53816B65726837
:1014F00065742000202020547261696E657220009E
:1015000020202020496E7374616E74205472696DBE
:1015100020506970200020202020202020205265AB
:1015200073657420202020202020200654696D65DA
:10153000723154696D657232416C6C2020205465A3
:101540006C656D2E065661726E31205661726E3278
:101550002046807220202052696E672020536369E4
:10156000466920526F626F742050697020202054A9
:101570006164612020537972736120536972656ED2
:1015800020416C61726D20526174617461546963B1
:101590006B20205669627231205669627232205681
:1015A0006962723320042D2D2D004131002041321B
:1015B000002048854A445641525654414E4B5431BE
:1015C0000020543200204641525442415454037684
:1015D00000204100202D00206B74736B6D684D2F2F
:1015E000686D00204000202500032D2D2D47756CCF
:1015F0004F7261528264013C3E042D2D2D204875AE
:101600006220575348480441443120414432204825
:10161000854A445641525654414E4B544031205411
:101620004032204641525442415454042D2D2D2025
:1016300031323020313230583134302039302020AE
:1016400005204D454E55204558495420204E65648F
:101650002020557070488267657256816E737403DE
:1016600047415353494448854A49443049443149E4
:101670004432534B454C414E54524E4252314252E9
:10168000324252334252344252354252364252373B
:10169000425238425239425241425242425243042B
:1016A0005349442048854A2047415320534B452005
:1016B0005031202050322020503320204D415820DE
:1016C00046554C4C43594B3143594B3243594B339C
:1016D000034156204142535448735448255448749A
:1016E000074C50342F4C503544534D6F6E6C794439
:1016F000534D582020200000290202000000000065
:101700000602014B4F4E462E0054696D657200472C
:1017100072816E7365722B2B005472696D6D6172EC
:101720002B2B005472696D826B6E2E0046826C6AA0
:1017300020476173004761735472696D0043656EA1
:1017400074657270697000750050504D206672614A
:101750006D65006D730052784E756D0046454C20E6
:1017600049204D454E550046656C20692045457021
:10177000726F6D00204F425300547279636B206E7C
:10178000656420656E206B6E6170700054727963C1
:101790006B206E656420656E206B6E617070000159
:1017A00001020A3C01010414500101081E640202F6
:1017B0000F287805051E3296425200F7565A2D1B07
:1017C00025E42A7065BC4C40800804201002014BBF
:1017D000414C4942524552494E47005B4D454E559A
:1017E0005D2053544152544152002043454E5452BF
:1017F00045524120005B4D454E555D204156534CAE
:101800005554415200528552205350414B41522F62
:1018100052415454415200000000000000000000FA
:101820000000000000000000000000000000FF01B8
:10183000494E5354844C4C4E494E474152005375C7
:101840006D6D6572206C8167650053756D6D657295
:1018500020746964005669627261746F72206C81D1
:101860006765005669627261746F72204E69768096
:10187000004B6F6E747261737400426174746572B0
:10188000697661726E696E6700496E616B74697624
:1018900069746574736C61726D004144432D6669AF
:1018A0006C74657200496E7665727465726164204D
:1018B000476173004D696E7574706970004E6564A0
:1018C00072816B6E696E6773706970005069702009
:1018D00076696420626C696E6B004C6A7573627223
:1018E0007974617265004C6A757320617620656653
:1018F0007465720042696C64207669642073746157
:101900007274004761737661726E696E670042722D
:10191000797461727661726E696E67004D696E6E80
:1019200065737661726E696E6700416C61726D7687
:1019300061726E696E67004E4F20444154412056DB
:1019400061726E696E670054696D65205A6F6E65CD
:10195000004B616E616C6F72646E696E67205258E5
:1019600000735ECD3B1424992E212A262AFF612B79
:101970002A0E6429633C6642727974617265004E76
:10198000616D6E005B4D454E555D045B4558495495
:101990005D004D4F44454C4C00524144455241205E
:1019A0004D4F44454C4C004B6F706965726172201D
:1019B0004D6F64656C6C00466C7974746172204D77
:1019C0006F64656C6C004C6164646172204D6F647F
:1019D000656C6C004C656469677400250003004603
:1019E0004C5947464153005472696D6D6172005401
:1019F0006F6E6120496E00546F6E61205574004116
:101A00004E41004100424700000303030303030368
:101A10000303030303030303034752844E53455256
:101A2000000002535045432E425259544152450042
:101A3000000246554E4B2E425259544152450054D5
:101A4000783A0052783A0000FF01000202FF0100DC
:101A50000202FF0101FF0000FF0202020254454C96
:101A6000454D455452490041026B616E616C202026
:101A7000004F6D7280646500416C61726D0052535D
:101A8000534900416E76816E6461726461746100D5
:101A9000426C616400537461706C617220736F6D8D
:101AA000207669736173000011241FBECFEFD0E16F
:101AB000DEBFCDBF11E0A0E0B1E0E2E2FFEE02C088
:101AC00005900D92A632B107D9F71DE0A6E2B1E06C
:101AD00001C01D92A13CB107E1F70E94696B0C9413
:101AE0008F770C940000809335020895FC0180816B
:101AF00041FF02C0682B06C042FF03C06095682307
:101B000001C06827608308954F925F926F927F9221
:101B10008F929F92AF92BF92CF92DF92EF92FF92FD
:101B20004C01AA24BB242B016624772464E670E0D0
:101B300080E090E06419750986099709A501940170
:101B40000E94CE766B017C0182E390E0A0E0B0E0E1
:101B5000C80ED91EEA1EFB1EC501B4010E94CE7636
:101B60000E94CE76BC0188279927A30192010E948A
:101B7000CE76DC01CB01F4E0B695A79597958795D5
:101B8000FA95D1F7C80ED91EEA1EFB1EC701B60191
:101B900024E630E040E050E00E942077C901FF9049
:101BA000EF90DF90CF90BF90AF909F908F907F90FD
:101BB0006F905F904F90089541E0262F30E068309D
:101BC00058F440E0F901EE0FFF1FEE0FFF1FE20F88
:101BD000F31FE65DFA4F0CC028503040F90153E086
:101BE000EE0FFF1F5A95E1F7E20FF31FEE5AFA4F7F
:101BF000BC0160507C4F77FD0DC088E060307807F5
:101C000084F0442319F088E090E002C084E090E082
:101C1000E80FF91F4081552747FD5095542F442761
:101C20002EC0272F442321F07070660F771F02C04B
:101C300026957170822F90E0E80FF91F20813327DD
:101C400027FD309580E092E0861B970B9595879550
:101C5000289FA001299F500D389F500D1124E1812C
:101C6000FF27E7FDF0959B0135952795E29FC00181
:101C7000E39F900DF29F900D1124480F591FCA0148
:101C800069E170E00E940D77CB0108956091240C0A
:101C90000E94DC0D0895E3E3F1E020E0822F8064F0
:101CA00087B9369A349BFECF349A84B195B1880FA8
:101CB000991F819391932F5F283081F70895E3E373
:101CC000F1E040E0842F806487B954E080E090E048
:101CD000369A349BFECF349A24B135B1820F931FCC
:101CE0005150B1F796958795819391934F5F483006
:101CF00049F70895A3E3B1E0E3E4F1E040E0842F85
:101D0000806487B9369A208931898D919C91119789
:101D100096958795820F931F8E7F11969C938E9335
:101D200080819181820F931F96958795918B808BEF
:101D3000349BFECF349A84B195B120813181820FDA
:101D4000931F96958795819391934F5F1296483094
:101D5000B1F608958E3091057CF4FC01EE0FFF1F63
:101D6000E80FF91FED58F24F90819F7081E09F308E
:101D700009F450C080E008958231910589F18331E2
:101D800091058CF48F30910509F18031910524F48F
:101D90008E309105D1F533C08031910589F08131C4
:101DA000910599F517C08431910569F08431910549
:101DB000FCF08531910501F18631910531F522C0A4
:101DC00091B1947023C093B3907820C09091630038
:101DD00091701CC08091630091E083FF17C015C013
:101DE0008091630083FF11C091E00E990FC00DC078
:101DF00091E00E9B0BC009C091B1907107C093B3E5
:101E0000907404C091B1907201C090E081E0992378
:101E100009F480E00895873038F4E82FF0E0EE0F01
:101E2000FF1FE553FD4F52C0873009F494C088303E
:101E300089F481E190E00E94AA0E882309F088C00D
:101E400082E190E00E94AA0E882309F484C080E019
:101E500090E008958C3038F4E82FF0E0EE0FFF1F8B
:101E6000E95DF84F33C0803198F4E82FF0E0DF01EE
:101E7000AA0FBB1FAE5BB24FEE0FFF1FE259F94F27
:101E80008D919C91119720813181821B930B0AC007
:101E9000843158F4E82FF0E0EE0FFF1FEE5BF24FB5
:101EA00080819181880F991F0895843238F4E82F3A
:101EB000F0E0EE0FFF1FEA51FD4F08C0863248F4F4
:101EC000E82FF0E0EE0FFF1FE750FE4F8081918179
:101ED0000895883258F490E08697FC01EE0FFF1FBA
:101EE000E80FF91FED56F34F808130C0883229F496
:101EF00080914F0C9091500C0895893239F4809163
:101F0000350C9091360C9695879508958A3229F470
:101F10008091370C9091380C08958B3229F4809180
:101F2000330C9091340C08958C3229F48091390C43
:101F300090913A0C08958D3229F48091610C909122
:101F4000620C08958E3251F480917E0C90E00895D9
:101F500080E09CEF089580E094E0089580E090E0B8
:101F60000895EF92FF920F931F93CF93DF93F82E74
:101F7000882349F48091280190912901892F881F95
:101F80008827881F18C1992787FD909597FF03C060
:101F9000909581959F4F863109F406C18A3028F4C7
:101FA00090E00D960E94AA0E00C18A50282F30E0C2
:101FB000E901CC0FDD1FC20FD31FC656DA4F9A813D
:101FC000992309F4F7C09A81953038F09A819830B6
:101FD00008F4F8C062E0E62E01C0EE24888181504A
:101FE0000E940B0F8C01EE2009F447C0AAC020917B
:101FF0002601309127012023312381E0211531056D
:1020000021F52EC08091280190912901802B912BE0
:10201000909329018093280188810E94B10FE82EB6
:1020200089810E94B10F9A81953019F0963049F458
:1020300003C0EE20A9F002C0EE2031F4882321F481
:102040000FC08E2569F001C081E0209126013091FA
:102050002701202B312B3093270120932601A5C087
:10206000809126019091270100951095082319234E
:10207000109327010093260195C0888189324CF086
:10208000E8818981FF27E7FDF095E250F44F805801
:10209000808388818B32E4F488818A3244F02981FC
:1020A00089E12802900111242058334F36C08881DD
:1020B00089325CF02981332727FD309520583F4F26
:1020C000220F331F220F331F28C0888187323CF034
:1020D0002981332727FD309520583F4F1EC0888126
:1020E00085323CF02981332727FD30952E593F4F0B
:1020F00014C0898129E28202900111243595279527
:102100003595279587FD815C86FB880F880B80F9C4
:10211000992787FD9095281B390B8A818230A1F180
:10212000833019F0813039F42BC017FF28C0109587
:1021300001951F4F24C017FF27C0109501951F4F11
:1021400023C0898181500E940B0F9C018A818930B4
:1021500089F08A3018F4883009F507C08A3079F0A0
:102160008B3091F08C30D1F414C081E0021713074A
:10217000C9F41BC081E002171307B9F413C081E052
:102180002017310794F00EC081E0021713076CF09E
:1021900009C081E00217130744F404C081E020174E
:1021A00031071CF480E001C081E01F1424F091E0AD
:1021B000892701C080E0DF91CF911F910F91FF909F
:1021C000EF90089501E010E002C0000F111F8A9502
:1021D000E2F78091280190912901802391230097B3
:1021E00009F005CF0FCF362F37953327379520E0ED
:1021F00030932901209328010E94B10F0895FF9286
:102200000F931F93CF93DF93C1E0D0E00DE010E078
:10221000FC2EC09FF001C19FF00DD09FF00D112446
:10222000EF50FA4F8581882329F060E00E94F31077
:10223000882329F42196C530D10551F7FF248F2D2D
:10224000DF91CF911F910F91FF9008950F931F93EE
:10225000CF93DF930F92CDB7DEB78C01FC01808165
:10226000982F990F9E70807F892B8083662321F0A1
:102270009160807F892B8083F80181818F5F8183CA
:1022800092819923C9F080818F70B1F4933689F0DF
:10229000842F806249830E94730DF80182814981F5
:1022A000803119F48181803120F0F80180818F7CA8
:1022B0008083F80111821282F8012281283009F40A
:1022C00054C0293060F4213009F458C02130A8F0FE
:1022D000223009F44AC0243009F068C046C02F35C6
:1022E000B1F1203620F4203109F060C03EC0213623
:1022F000A1F0223609F05AC052C0F8018081982F0F
:102300009F709F3009F052C091E692839181913184
:1023100010F08F7C8083F80148C0842F80660E9473
:10232000730D10923C0210923D0210923E021092E8
:102330003F02F8019081892F82958F708F5F8370A3
:102340008295807F9F7C982B90838FE52DC0F8012C
:102350008181883121F4842F80680E94730DF801F7
:102360008181883219F580E11FC0F80181818033B5
:1023700028F030E03595279522831182F8012281DB
:1023800030E021503040618170E026233723211551
:10239000310561F4842F80640E94730D07C0F80139
:1023A0008181803418F088E0828311820F90DF9160
:1023B000CF911F910F91089586B380958E77E1F7A5
:1023C0000E94730D089570936D0D60936C0D909342
:1023D0006B0D80936A0D4F5F4093ED02E39A8091FD
:1023E0003002882311F40895A8958091ED02181603
:1023F000DCF3089580EF91E060E070E040E450E0AD
:102400000E94E311089582EF91E062E070E041E004
:1024100050E00E94E311089560933201682F70E04C
:10242000B4E0660F771FBA95E1F782E391E041E0EF
:1024300050E00E94E311089590E0BC01660F771F01
:10244000680F791F6C5F7F4FCB0180519E4F43E037
:1024500050E00E94E3110895CF93DF9300D000D0A5
:10246000CDB7DEB7282F30E0F901EE0FFF1FE20FE6
:10247000F31FDE011196EC50FE4F93E001900D9298
:102480009150E1F7462F50E0F901EE0FFF1FE20FE8
:10249000F31F9A01220F331FD901A40FB51FEC506F
:1024A000FE4FAC50BE4F93E00D9001929150E1F77A
:1024B000F901E40FF51FEC50FE4FDE01119693E099
:1024C0000D9001929150E1F791E0909330026C836E
:1024D0000E941C126C81862F0E941C1210923002E6
:1024E0000F900F900F900F90DF91CF910895A998C2
:1024F000AB98AC988BBBAD9AAD98AB9AA99A08955E
:102500001F93CF93DF9310E0C0E4D7E084E00E94F4
:10251000771280E10E947712812F806B0E947712E0
:10252000A998AB9AAC98FE0180E891919BBBAD9ABB
:10253000AD988150D1F7C058DF4FAB9AA99A1F5F71
:10254000183021F7DF91CF911F910895CF93C82FB5
:1025500081E80E9477128C2F0E947712CF91089504
:1025600087FD60C047FF02C0640F419567FF02C04E
:10257000460F60E0E62FFF27E7FDF095A42FBB276D
:10258000A7FDB095EA0FFB1FE134F10514F040E41C
:10259000461B253511F460FF2AEAE62FE595E595FF
:1025A000E595FF27E7FDF095F695FE2FEE27F795C9
:1025B000E795E80FF11DE05CF84F6770C1F0A1E00E
:1025C000B0E0062E02C0AA0FBB1F0A94E2F7A19545
:1025D000A2238081A827A083E058FF4F6850460FB0
:1025E00006C0808182278083E058FF4F4850141630
:1025F000C4F3842F992787FD9095089668E070E0D2
:102600000E940D77882371F0E058F04041E050E0DF
:1026100002C0440F551F8A95E2F7419542238081FD
:102620004827408308952FEF0E94B0120895DF924B
:10263000EF92FF920F931F93CF93DF93F42EE02E30
:102640006034E0F587FF02C0F80E80E0482F552780
:1026500047FD5095FA01EF0DF11DE138F1051CF031
:10266000E0E8FE2EF81A062F06950695069510E06E
:102670001695102F002717950795040F151F005C5E
:10268000184F677081E090E0D82E01C0DD0C6A958C
:10269000EAF712C030E0E901D595C79520FF08C0E0
:1026A000C8016D2D4E2D0E94760D2C2F206801C083
:1026B0002C2FFA940F5F1F4FFF2061F7DF91CF910E
:1026C0001F910F91FF90EF90DF9008958F929F924E
:1026D000AF92BF92CF92DF92EF92FF920F931F9330
:1026E000CF93DF93B82EA42E102FF62ECC24DD240A
:1026F000862E992487FC9094E401C20FD11D11C04D
:102700008FE38F1538F08B2D6F2D4A2D212F0E2D35
:102710000E9417131F3F09F01095F3940894C11CF1
:10272000D11CC601880D991D8C179D074CF3DF91B4
:10273000CF911F910F91FF90EF90DF90CF90BF90BE
:10274000AF909F908F900895DF92EF92FF920F933A
:102750001F93CF93DF93C82FF62ED42FD22E102F96
:10276000E0FE04C080919D0D86FD21C08C2F6F2D51
:102770004D2D212F0E94B0128C2F81508D0F6F2D67
:102780004D2D212F0E94B012E3FC02C0CF5FD2502A
:102790006F2D61506D0D8C2F4D2F212F00E00E9469
:1027A00017138C2F6F2D4D2F212F0E941713DF91A0
:1027B000CF911F910F91FF90EF90DF900895262FFA
:1027C00026952695269530E03695322F2227379587
:1027D0002795280F311D205C384F8BE020343807B7
:1027E00060F4862F877061E070E002C0660F771F8B
:1027F0008A95E2F7C9010E94760D0895AF92BF92C3
:10280000CF92DF92EF92FF920F931F93CF935C01D1
:102810008EE560E040E42EEE0E94B0128EE360E2AE
:1028200040E42EEE00E00E941713CFE300E21CEF1D
:1028300082E0C82ED12C2FE3E22EF12CC801F50145
:10284000099580509C4FB6010E940D77CB01A6E000
:10285000880F991FAA95E1F7861B970B892F992757
:1028600086958695B701681B790B8C2F42E00E94F4
:10287000DF13005E1F4FCF5FCE3701F7CF911F915F
:102880000F91FF90EF90DF90CF90BF90AF900895A1
:10289000DF92EF92FF920F931F93CF93DF93E22F7C
:1028A000F0E020FF07C090919D0D96FF06C021FD2E
:1028B00006C0D9C011E021FD03C010E001C011E045
:1028C000C62FC695C695C695D0E0D695DC2FCC27E9
:1028D000D795C795C80FD11DC05CD84FE2FF5DC02A
:1028E000842F90E0BC01660F771FB3E0880F991F1B
:1028F000BA95E1F7680F791F50E04052504004E06C
:10290000569547950A95E1F780EA90E0489F900137
:10291000499F300D589F300D1124620F731F625B69
:102920007E4F85E0AF01487050704115510519F098
:10293000882319F498C0882389F0FB019491E0560C
:10294000FF4FB4919B012F5F3F4FF901A4916F5549
:102950007F4FFB010491EB2EB90104C000E0EE248F
:10296000A0E090E0112321F09095A095E0940095CF
:10297000FE01EF57FF4F2BE0E034F20740F498835D
:10298000A983DE01A058BF4FEC92008322966F5FAF
:102990007F4F815008F0C9CF66C0E3FF08C0112304
:1029A00011F08FEF01C080E0899371E001C070E009
:1029B00050E09A01220F331F220F331F240F351FBF
:1029C000225130406770E62EFF244FEF50E0CA01DD
:1029D000062E02C0880F991F0A94E2F7082F00956F
:1029E000A8E0B0E0AE19BF09CA010A2E02C0959551
:1029F00087950A94E2F7D82ED09485E0882329F0B1
:102A0000F9012F5F3F4FE49101C0E0E01111E09523
:102A1000772311F0843029F14BE0C034D40708F556
:102A20004E2F50E0FA010E2C02C0EE0FFF1F0A9449
:102A3000E2F7F881F023FE0FF883662389F0FE01A8
:102A4000E058FF4F9BE0E034F90750F40A2E02C033
:102A5000559547950A94E2F750815D21540F5083B4
:102A60002196815058F6DF91CF911F910F91FF90E1
:102A7000EF90DF90089520E00E9448140895FC0133
:102A800060831282118270E0DB01AA0FBB1FA60FC8
:102A9000B71FA051BE4F14968C9114978383148254
:102AA0001092B50D089590E0FC01EE0FFF1FE80FA6
:102AB000F91FE051FE4F81E09481992309F480E0F1
:102AC00008959091D902982B9093D9020895DB0133
:102AD000FC0105C080819C9191938D9341504423CA
:102AE000C9F70895EDE7F0E08081857E808317982F
:102AF0001F9AAAE8B0E01C9210928B0082E88C9397
:102B00008081806280830895E0911701F09118011F
:102B10008193F0931801E093170108959091590D56
:102B200082B72091590D9217C9F7392F20E090E014
:102B3000822B932B08958F929F92AF92BF92EF9228
:102B4000FF920F931F93CF93DF934B015C0150E1F2
:102B5000E52EF12CC0E0D0E800E010E89E0140E056
:102B600050E0CA01B9010E94CE76DC01CB01881683
:102B70009906AA06BB0610F4C027D127169507951B
:102B80000894E108F108E114F10461F4CE01DF9149
:102B9000CF911F910F91FF90EF90BF90AF909F90BA
:102BA0008F900895C02BD12BD9CF90E0FC01E75B2B
:102BB000FD4F1082DC01AA0FBB1FFD01ED5BFD4F35
:102BC000A80FB91FA259BC4F1B962D913C911C9781
:102BD00031832083895B9D4FFC0110820895E82F8B
:102BE000F0E0E759F44FE491F0E0EE0FFF1FED5CE9
:102BF000FE4F8081918108956330B9F064303CF4D8
:102C0000613061F062306CF46623A9F123C0653055
:102C1000B1F0653084F06630E9F416C097FF2BC040
:102C200025C01816190614F126C097FF24C09095E8
:102C300081959F4F0895181619064CF017C097FFFD
:102C400015C080E09CEF08951816190694F480E0F2
:102C500094E0089567FF06C0909581959F4F26E008
:102C6000261B622F67500E94DC0D089580E090E0E3
:102C7000089580E09CEF08952F923F924F925F92CB
:102C80006F927F928F929F92AF92BF92CF92DF927C
:102C9000FF920F931F93CF93DF931C01862FAAE21D
:102CA000B1E0F10198E001900D929150E1F78F3F72
:102CB00011F40E94FF10CC24DD24FF24FA9404E6D2
:102CC000402E512C612C712CA12C94E0B92E882E11
:102CD00099240894811C911CE601CC0FDD1FCC0FB8
:102CE000DD1FCE50DB4F8881982F937009F496C07A
:102CF00086958695837090E02F2D332727FD30959C
:102D00008217930709F482C08981982F907E59F029
:102D10009A8190FD08C082958695877090E088160C
:102D2000990609F073C08981880F880F880F8595EF
:102D30008595859561E00E94F310882309F466C0AB
:102D40008881182F169516951370E12FF0E0EE0F7D
:102D5000FF1FE65DFE4F20813181837037FF03C086
:102D600080FD03C053C081FF51C0F12E6B817727D6
:102D700067FD709561157105F9F0032F001F00279D
:102D8000001F19F0309521953F4F77FF0CC07095CB
:102D900061957F4FC501821B930B0E94840D9501A5
:102DA000281B390B04C0C9010E94840D9C0100231B
:102DB00019F0309521953F4F6881862F807F61F013
:102DC00062956F70862F90E08B3091050CF06C5FF0
:102DD000C9010E94FC159C01B901882777FD8095E7
:102DE000982F2A81269530E040E050E00E94CE7670
:102DF000A30192010E944277E12FFF27E7FDF095A2
:102E0000EE0FFF1FE20DF31D208331830894C11CD8
:102E1000D11C8EE0C816D10409F05ECFDF91CF91AE
:102E20001F910F91FF90DF90CF90BF90AF909F9038
:102E30008F907F906F905F904F903F902F9008956C
:102E4000282F30E0C90143E0880F991F4A95E1F728
:102E5000820F931F8E579C4F089590E0880F991F03
:102E6000880F991F8E509B4F08951F93CF93DF9328
:102E7000182F882311F0CDE001C0CFE1D0E08C2FD6
:102E8000112331F00E942D17FC018081837005C051
:102E90000E942017FC0186818F778111DF5FC1506E
:102EA000C7FFEDCF8D2FDF91CF911F910895CF9365
:102EB000C82F0E943517482F50E0CC2319F02EE080
:102EC00030E002C020E230E0421753076CF0CC2320
:102ED00019F08EE49BE002C08BE59BE09093BB0D64
:102EE0008093BA0D81E001C080E0CF910895482F12
:102EF00050E02DE030E0429FC001439F900D529F73
:102F0000900D11248F509A4F0895EF92FF920F93D6
:102F10001F93CF93DF93EA01062F10E07801EE0CA8
:102F2000FF1CF701EF5CF84F0190F081E02D309726
:102F300079F08FEF4338580724F04D37510524F4CA
:102F400005C0C3E8DFEF02C0CDE7D0E0C08320C0FA
:102F50000E947717FC01DC01A00FB11FCE019595EF
:102F60008795959587958C9383E090E00E2C02C011
:102F7000880F991F0A94E2F7809594818923C37082
:102F8000D07002C0CC0FDD1FEA94E2F78C0F84836F
:102F900082E00E946115DF91CF911F910F91FF9008
:102FA000EF9008950F931F93CF93DF93C62FD0E038
:102FB0008E01000F111FF801EF5CF84F0190F081B6
:102FC000E02D309729F08081992787FD90951AC0D0
:102FD0000E947717FC01C80FD91F8881992787FDA8
:102FE0009095880F991F880F991F2481332727FDFB
:102FF000309502C0359527950A95E2F72370307019
:10300000820F931FDF91CF911F910F9108951F930E
:10301000CF93DF93182FC62FD5E001C0C82FCC2344
:1030200089F08C2F612F0E94D2179C0181E0253FEF
:10303000380744F0822F855F8C1708F08F5FD150DE
:1030400069F7C0E08C2FDF91CF911F9108958823FD
:1030500009F187FF06C0863E1CF0E0E6E81B1BC0B6
:1030600081958B311CF4E82FE05C15C085321CF48F
:10307000E82FEB5E10C0893244F4E82FFF27E7FD0C
:10308000F095E45BF44FE49106C08F321CF4E82F16
:10309000E95A01C0E0E28E2F0895AF92BF92CF921D
:1030A000DF92EF92FF920F931F93CF93DF93C82F7E
:1030B000162F7A01D22F802F90E020E3C22ED12C40
:1030C000C822D92234E0A32EB12CA822B9222FC0C5
:1030D00080E1C816D10429F0E0E2CE16D10451F403
:1030E00003C0F701408108C0F70180810E942718C2
:1030F000482F02C0F70144914423D9F0CB37C8F4DC
:10310000403260F08C2F612F202F0E944814A114B0
:10311000B10411F4CA5F07C0C55F05C0842F880FD2
:10312000840F880FC80F0894E11CF11CD150DD23D7
:1031300079F6C093220CDF91CF911F910F91FF90F0
:10314000EF90DF90CF90BF90AF9008950F93022F34
:103150002FEF0E944D180F910895982FAB0180E03A
:10316000692F20E00E94A618089520E00E94A6186A
:103170000895EF920F938AE060E14CE628E20FEFAA
:1031800054E0E52E0E9466138AE060E14CE628E2F6
:10319000EE240E94A4134091BA0D5091BB0D80E122
:1031A00068E10E94B5180F91EF9008959093BB0DC0
:1031B0008093BA0D0E94B9181092BB0D1092BA0DEF
:1031C0000E94801208950F93FA0194914F5F5F4F10
:1031D000929FF00111244E0F5F1F292F0E944D185E
:1031E0000F910895EF92FF920F931F93CF93DF9368
:1031F000E82EF62E142F022F442319F442E353E154
:1032000011C0E22FF0E0EF01C074D07026FD0CC0B9
:10321000463121F44BE253E121E027C04A3E21F43C
:103220004BE253E120E021C017FF08C08E2D8250F1
:103230006F2D48E02EE50E94B012119516317CF0FA
:10324000209711F085E101C086E1181B07FD07C03A
:103250008E2D8E5E6F2D4DE6202F0E944814212F5B
:1032600021508E2D6F2D4FE556E10E94E318DF911E
:10327000CF911F910F91FF90EF9008950F931F939F
:10328000CF93DF93182FD62FC42F022F47FF09C0EB
:1032900084E0841BC82F812F865041E20E9448148D
:1032A00008C0453034F440ED56E12C2F0E94E3185D
:1032B00008C04C2F4450202F2064812F6D2F0E9476
:1032C000F218DF91CF911F910F9108950F93942FD2
:1032D000022F91504EED53E1292F0E94E3180F91D8
:1032E00008950F93942F222311F002E001C000E013
:1032F0004BE253E1292F0E94E3180F910895E091CA
:103300009D06F0E0EA58F44FE491F0E024E030E06C
:10331000281B3109220F331F02C0F595E7952A9526
:10332000E2F78E2F83708F5F08959C0175E03595CD
:1033300027957A95E1F7280F391FAC01440F452FE7
:10334000441F550B241B350B892F990F990B85951D
:10335000280F391FC90108950F932FEF00E00E9435
:1033600017130F9108952F923F924F925F926F9291
:103370007F928F929F92AF92BF92CF92DF92EF9205
:10338000FF920F931F93CF93DF9300D00F92CDB78F
:10339000DEB7382FC62E4A012B83F02E822F9927B5
:1033A00087FD9095807390704097E4E095958795A0
:1033B000EA95E1F7282F4B8143FF03C048504B8328
:1033C00009C097FE07C09094819491089394552466
:1033D000539401C055242223E9F0C4016AE070E04F
:1033E0000E94F976CB01FF24F394EAE0F0E005C0F7
:1033F000F394BF010E94F976CB010097C9F74F2DD6
:1034000050E0822F992787FD90958417950714F037
:10341000F22EF394EB818E2F90E0AC01447050704B
:10342000E2FD06C0E7FF07C012162CF43E5F03C0A2
:103430007AE0E72E02C065E0E62EFB81F7FF0DC0C3
:10344000EF9C802D1124380F552039F0411551057E
:1034500011F087E001C085E0380F3093220C4E2D2B
:103460004095430F4A83DD24D39402E010E09AE0B4
:10347000692E712C222E332427FC309426E0422E14
:103480004C0C63C0C401B3010E94F976A82E382FFA
:10349000305D313351F48B8182FF07C0DF1429F492
:1034A000EA81EE5FEA8388608B838A816C2D432FEB
:1034B0002B8139830E9448148D2D90E03981281684
:1034C0003906D1F5FB81FF7CFB83BF2EF2FF19C0CB
:1034D0008A2D8150833008F40F5FC401B3010E942C
:1034E000F976CB01B3010E94F9761A81823011F08E
:1034F000843011F5343311F41F5F1EC011500F5F7B
:103500001BC08EEFA82E2A81A20E922F9150892FD8
:10351000642D40E099830E94DF139981B1FE0BC0B6
:10352000B0FE04C080919D0D86FF05C0892F6C2DD3
:1035300048E00E941313AA82C401B3010E94F976E5
:103540004B014A814E194A83D394FD1408F09ACF57
:10355000112361F06C2D635F812F402F0E94AC1905
:103560006C2D625F812F402F0E94AC19552031F0E5
:103570008A816C2D4DE22B810E9448140F900F9090
:103580000F90DF91CF911F910F91FF90EF90DF90FF
:10359000CF90BF90AF909F908F907F906F905F90F3
:1035A0004F903F902F9008950F9300E00E94B31921
:1035B0000F9108950F931F93CF93DF93C62FD22FB0
:1035C000202F102F02FD68500E94D41A13FD0CC04A
:1035D000D23051F08091220C8F5F6C2F4EEC55E170
:1035E0002D2F00E00E94E318DF91CF911F910F91E2
:1035F00008950F93CF93DF93C82FD62F66E370E122
:103600000E94AD18DD2339F04091310C5091320CFD
:103610008DE304E006C040914F0C5091500C88E1BE
:1036200004E86C2F26E00E94DA1A84E56C2F4EE342
:103630000E943B1540918D0C50918E0C8AE56C2FA9
:1036400026E000E80E94DA1ADF91CF910F910895E9
:103650000F931F93CF93DF93062F122FC22FD0E02B
:10366000FE01E073F070E033F10511F420E001C0D9
:1036700020E2212B602F0E94D41AC3FD07C0809145
:10368000220C602F46E7212F0E944814DF91CF9132
:103690001F910F910895AF92BF92CF92DF92EF9258
:1036A000FF920F93CF93DF93C82FD62F443009F4A6
:1036B0008BC0453038F4423009F471C0433008F013
:1036C00075C00AC0473009F485C0473008F47FC090
:1036D000483009F08CC085C0842F90E06901EE2449
:1036E000D7FCE094FE2CAC01440F551F480F591F26
:1036F000440F551FEEE6AE2EE3E0BE2EA40EB51E1F
:10370000F501E753FD4F8081992787FD9095A92FFB
:10371000B92FC80ED91EEA1EFB1EF501EC53FD4F52
:10372000208130E0FA01EA5CF94F8081829586952C
:103730008695837002C0220F331F8A95E2F74427D3
:1037400037FD4095542FC701B6010E94CE76660F13
:10375000771F881F991F23E330E040E050E00E946C
:103760004277A901F501EB53FD4F2081223038F05B
:10377000CA016AE070E00E940D77AB010DC083E0E2
:10378000483E580714F4006307C0CA016AE070E0BD
:103790000E940D77AB0100628C2F6D2F1FC0A90115
:1037A000440F551F440F551F26E018C082E390E0D8
:1037B000289FA001299F500D389F500D11248C2F58
:1037C000202F0E94D41A13C0A90128E007C0A90124
:1037D00027E004C0A901440F551F24E00E94DA1A13
:1037E00006C0A901440F551F202F0E94281BDF91FE
:1037F000CF910F91FF90EF90DF90CF90BF90AF905F
:103800000895242FE0914002F0914102AF010E94FF
:10381000281B08951F93CF93DF93182FD62FC42F03
:1038200080E860E04D2F50E02C2F0E94D41ADA304F
:1038300010F08FE601C085E760E04FE22C2F0E9478
:103840004814DA3010F08FE601C085E7E12FF0E090
:10385000319660E0AF012C2F0E94D41ADF91CF91F6
:103860001F910895552747FD509520E00E94D41AD6
:1038700008950F93982F262F442311F002E001C0E2
:1038800000E084E5692F42E353E10E94E3180F91C1
:103890000895DF92EF92FF920F931F93CF93DF93E0
:1038A000FA017491EA0122963196E491F0E037969C
:1038B000A3E0F595E795AA95E1F7279F90011124DC
:1038C000DE2EE29FA001E39F500DF29F500D1124C8
:1038D000C40FD51F66956695669500E010E040E040
:1038E000262F30E03695322F222737952795280F3F
:1038F000311DE72EFF2414C0D901A00FB11FA05C19
:10390000B84FCE0104C0FC010196E491ED93582F0D
:103910005C1B5717C0F3CE0DDF1D4F5F00581F4FC4
:103920004D1550F3DF91CF911F910F91FF90EF90C4
:10393000DF900895AF92BF92CF92DF92FF920F93E4
:103940001F93CF93DF936C015B0100E010E0809147
:10395000E00290E0A501401B510B8417950708F485
:10396000AC01F42EC42FD0E0C601800F911F60E09F
:1039700070E050E00E946F770C0F1D1F8091E002F5
:103980008F198093E002882309F03FC08091DF0205
:1039900090E0B601600F711FA501401B510B841709
:1039A000950708F4AC018AED92E050E00E940745CB
:1039B000080F111D9091DF02981B9093DF0299234D
:1039C00021F58AED92E06FED72E041E050E00E9457
:1039D00007458130D1F42091DF02822F90E027FF4C
:1039E0000CC0C4E095958795CA95E1F787708093E0
:1039F000E0022F702093DF02AACF26FFA8CF2F73FB
:103A00002093E0021092DF02A2CFC801DF91CF9194
:103A10001F910F91FF90DF90CF90BF90AF900895CE
:103A2000682F8AED92E00E943F151092E0021092FA
:103A3000DF0208951F93CF93DF9300D0CDB7DEB799
:103A4000182F81E14A8369830E94101D1092280279
:103A500069816295607F609329021093DA024A813E
:103A6000409330020F900F90DF91CF911F910895F6
:103A7000CF93DF93C0E7D1E09AE0FE0111929A95CF
:103A8000E9F78031D0F48F5F0E94101DCE016AE00B
:103A900070E00E949A1C8A30910579F48091DA02D4
:103AA00090E0FC01EE0FFF1FE80FF91FEB50FE4FF7
:103AB00080812181922F9F7002C080E090E0DF9191
:103AC000CF910895EF92FF920F931F93CF93DF93BF
:103AD0000F92CDB7DEB7062F1091B40D882309F4ED
:103AE00059C0812F0E942D177C01002311F0115025
:103AF00001C01F5FD7012C9117FF0DC0822F8C7062
:103B000009F48EC0822F869586958D5F8370880F0D
:103B1000880F237F52C01E3071F4822F8C708C303E
:103B200009F47EC0822F869586958F5F8370880FFB
:103B3000880F237F65C0812F29830E942D17FC01E8
:103B40008081298128272C7011F48370F9F4D70122
:103B50009C91892F869586958370002359F0882340
:103B600009F45EC08D5F8370880F880F937F982B58
:103B70009C9349C0833009F453C08F5F8370880FD2
:103B8000880F937F982BF70190833DC0C701BF0139
:103B900044E041C0812F0E9420177C01002311F0D6
:103BA000115001C01F5FD7012C9117FF09C0822F50
:103BB0008F70B1F1815F8F70207F282B2C9323C0F1
:103BC000103219F4822F8F7016C0812F29830E9422
:103BD0002017FC018081298182278F70C9F0822FF4
:103BE0008F70002341F08823D9F0815F8F70207F90
:103BF000282BD701E3CF8F3099F08F5F8F70207F14
:103C0000282BF701208311E082E00E94611509C092
:103C1000C701BF0149E00E9467151093B40DF3CFAF
:103C200010E0812F0F90DF91CF911F910F91FF90A6
:103C3000EF90089501C0A8958091ED021816DCF36D
:103C400081E0809330028091E902882349F08091DD
:103C5000B50D882329F48AED92E00E943B46F3CF0C
:103C60008091E202882349F08091B50D882329F4E0
:103C70008AED92E00E94FB46F3CF10923002089545
:103C80000F931F93CF93DF93162F062F0F5F882379
:103C900001F1862F0E942D17EC01802F0E942D1715
:103CA0009C01412F50E040955095425F5F4F440F7B
:103CB000551F440F551FCE01B9010E945D778DE05D
:103CC0000E942D17DC011D921D921D921C921397CC
:103CD00022C0862F0E942017EC01802F0E942017FF
:103CE0009C01812F90E0809590958096AC0113E027
:103CF000440F551F1A95E1F7480F591FCE01B9011E
:103D00000E945D778FE10E942017FC0189E0DF01AE
:103D10001D928A95E9F782E00E946115DF91CF91AB
:103D20001F910F9108951F93CF93DF93162F882330
:103D300029F1862F0E942D17EC01412F50E040956C
:103D40005095425F5F4F440F551F440F551F049617
:103D5000BE010E945D77188219821A821B8293E04D
:103D600098838091230C81508370880F880F892B52
:103D700088838A818170886C8A832FC0862F0E94F5
:103D80002017EC01812F90E0809590958096AC01F2
:103D900023E0440F551F2A95E1F7480F591FCE0124
:103DA0000996BE010E945D7789E0FE0111928A9515
:103DB000E9F78091230C282F21502F709881907F54
:103DC000922B9883853014F40E947F198F779E81FF
:103DD0009078982B9E8384E6898382E00E94611507
:103DE000DF91CF911F9108952F923F924F925F9252
:103DF0006F927F928F929F92AF92BF92CF92DF92FB
:103E0000EF92FF920F931F93CF93DF93CDB7DEB75F
:103E100029970FB6F894DEBF0FBECDBF8E830E94E8
:103E2000894A10918103182380913F07809581234F
:103E300019F082E00E947F4510933F074090F00503
:103E4000442009F483C08090510D9090520DAA2413
:103E500097FCA094BA2C8091550D9091560D9C0121
:103E6000442737FD4095542F29833A834B835C8345
:103E7000C501B401A50194010E94CE766B017C01BD
:103E800069817A818B819C819B01AC010E94CE76F5
:103E9000DC01CB01C80ED91EEA1EFB1E5524662488
:103EA0007724C301B2010AE0660F771F881F991FAC
:103EB0000A95D1F724E630E040E050E00E944277D6
:103EC000B901CA010E94CE76DC01CB018C159D059B
:103ED000AE05BF05D8F5C701B6010E949B15BC0110
:103EE00080E090E024E630E040E050E00E94CE76B2
:103EF0006B017C01C501B401A30192010E94CE7641
:103F0000BAE0660F771F881F991FBA95D1F7A701EE
:103F100096010E9442773093520D2093510D698192
:103F20007A818B819C81A30192010E94CE761AE056
:103F3000660F771F881F991F1A95D1F7A701960161
:103F40000E9442773093560D2093550D8091EE05D7
:103F5000887F09F4D6C00091510D1091520D8091C7
:103F6000490D90914A0D080F191FC090550DD09022
:103F7000560D80914D0D90914E0DC80ED91E809119
:103F8000EF05882329F081500E940B0FFC0102C02D
:103F9000E0E0F0E08091EE0580FF03C01095019510
:103FA0001F4F81FF04C0D094C194D108D39482FFE5
:103FB00003C0F095E195FF4F2091EE0526952695DB
:103FC000269530E02230310509F43FC02330310519
:103FD0002CF42130310509F094C009C0233031059B
:103FE00009F464C02430310509F08BC076C0C601E5
:103FF00068E070E00E940D779601261B370BC60122
:1040000060E870E00E940D77261B370BC60160E068
:1040100072E00E940D77261B370BCF01801B910B9E
:1040200090933A0780933907C80162E070E00E94DC
:104030000D776E0F7F1FCB01820F931F90933C076C
:1040400080933B07621B730B2CC0C80168E070E0D3
:104050000E940D774801861A970AC80160E870E04F
:104060000E940D77861A970AC80160E072E00E94EC
:104070000D77861A970ACF018C199D0990933A07FC
:1040800080933907C601B9010E940D776E0F7F1F1B
:10409000CB01880D991D90933C0780933B076819CD
:1040A000790970933E0760933D072BC0CF01801BB9
:1040B000910B90933A07809339070E0F1F1FC80189
:1040C0008C0D9D1D90933C0780933B070C191D0997
:1040D00010933E0700933D0714C0CF01801B910B46
:1040E00090933A0780933907CF018C0D9D1D9093D3
:1040F0003C0780933B07EC19FD09F0933E07E093E2
:104100003D0780E4EEE2F3E0DF011D928A95E9F7D6
:104110001092320710923107109234071092330731
:104120001092360710923507109238071092370711
:104130001092700D80E49BE0A0E62A2EABE03A2EB0
:10414000E0EEFBE0FA83E9831D823E81232F30E01D
:104150002F5F3F4F3F832E832C018D810E942017BC
:104160003C01DC0116968C9116978F7709F414C3E5
:104170002C91822F807FD1F0259525952595259529
:10418000822F992787FD909512163CF4EE81FF81CE
:10419000E817F90709F0EDC209C0909581959F4F86
:1041A0002E813F812817390709F4E3C2D3011696FF
:1041B0001C9116971F7712968C91880F880F859502
:1041C000859561E00E94F310882309F46DC0812F6A
:1041D000815001E0F2019081911100E091E0D20163
:1041E0009C93843048F4E82FF0E0EE0FFF1FE15B72
:1041F000F24FC080D1803DC0912F9A529031F8F497
:10420000482F50E0BA0168527040F30120812F70AE
:1042100030E0261737079CF0FA01EE0FFF1FEE0F74
:10422000FF1FE657FD4F608171818281938124E6F3
:1042300030E040E050E00E94427769011AC0912FBF
:104240009A50953158F4812F895060E00E94F31004
:10425000882361F0C12C34E0D32E0BC08A3010F0DB
:10426000812F86510E940B0F6C0103C0C12C2CEFD3
:10427000D22ED30113968C911397982F907C21F115
:10428000829586958695837090E00197E1E0F0E055
:1042900002C0EE0FFF1F8A95E2F7CF019091700DDB
:1042A000982B9093700D10C0D2010C911C92F301C9
:1042B00086818F77883009F05CC28281807C80386B
:1042C00009F457C2CC24DD24D30118968C91189799
:1042D0008823B1F0B9E28B0290011124359527951E
:1042E0003595279587FD815C86FB880F880B80F9C3
:1042F000992787FD9095F901E81BF90BCE0EDF1E7B
:10430000D30115968C911597882331F414968C91CE
:104310001497882309F472C1F1016081718182814F
:1043200093810023A9F420E031E040E050E00E94B6
:10433000427789019A0130952095109501951F4F7C
:104340002F4F3F4FA601400F511F5987488767C025
:10435000D30112968C911297807C803871F5EC9184
:10436000EF70F0E0EE0FFF1FE25FFC4F8081918164
:10437000AA2797FDA095BA2F6627782F892F9A2F05
:1043800024E630E040E050E00E94CE76F101608308
:10439000718382839383D30111962C9111972223E9
:1043A00061F0332727FD3095432F532F0E9442772A
:1043B000F1012083318342835383D1016D917D913B
:1043C0008D919C91139720E031E040E050E00E94F5
:1043D000427789019A0130952095109501951F4FDC
:1043E0002F4F3F4FF601E00FF11FF987E887309715
:1043F000B1F0D30114968C911497F7FF82958F70CA
:1044000090E0E4E6F0E08E9F90018F9F300D9E9F3C
:10441000300D1124A981BA8111963C932E93E98124
:10442000FA81808191810097A1F020914C0622238E
:1044300019F0019791838083A981BA818D919C9114
:104440001197009731F0F101608171818281938130
:10445000C4C0288539852115310509F4CFC0D301A1
:1044600015968C9115974601AA2497FCA094BA2C16
:10447000882309F4BAC080914C06882309F477C0D8
:1044800011968C9111978823B9F0992787FD909503
:1044900097FF03C0909581959F4F282F332727FDC5
:1044A0003095432F532F60E070E080E293E00E944C
:1044B000427769017A0106C0C12CD12CB0E2EB2E03
:1044C000B3E0FB2EF301858128853985121613068A
:1044D00014F58F7090E0009709F440C044E650E076
:1044E000849F9001859F300D949F300D11244427A7
:1044F00037FD4095542FC701B6010E9442778901CC
:104500009A01F10180819181A281B381080F191F65
:104510002A1F3B1F27C082958F7090E00097F1F013
:1045200044E650E0849F9001859F300D949F300DAC
:104530001124442737FD4095542FC701B6010E942E
:10454000427769017A01D1010D911D912D913C9124
:1045500013970C191D092E093F0904C03A2D292D66
:10456000182D0027F10100831183228333832885CE
:1045700039851216130694F4D1016D917D918D91B8
:104580009C91139720E031E040E050E00E94427798
:1045900082169306A406B5068CF019C0F10160815D
:1045A00071818281938120E031E040E050E00E94FF
:1045B0004277281539054A055B054CF4BA2DA92D1B
:1045C000982D8827F10180839183A283B383D10141
:1045D0006D917D918D919C91139720E031E040E0A9
:1045E00050E00E944277690109C0BA2DA92D982D8B
:1045F0008827F10180839183A283B383D30113962B
:104600006C911397862F8F7341F0660F660F659537
:104610006595C6010E94FC156C01F30116811F7798
:10462000812F81588F77843030F58781807C59F4D1
:10463000E12FF0E0EE0FFF1FEB5BF24F80819181E5
:10464000C80ED91E18C08038B1F48085992787FD1F
:10465000909553E0880F991F5A95E1F70E9495199C
:104660006C01E12FF0E0EE0FFF1FE15DF84FC30199
:10467000089691838083B601882777FD8095982FCF
:10468000F3012181332727FD3095432F532F0E94BB
:10469000CE766B017C01D30116969C911697991FDB
:1046A0009927991F17968C9117978F73880F892BCD
:1046B000B1F0F7FE14C024E630E0281B310944278E
:1046C00037FD4095542FC701B6010E94CE7624E6EF
:1046D00030E040E050E00E94427769017A01F30146
:1046E00000810F7010E08281829586958695837097
:1046F00090E0000F111F000F111F8130910559F03C
:10470000F801E25DFC4F8230910539F5C082D1821B
:10471000E282F3822EC0C701B60124E630E040E019
:1047200050E00E944277025D1C4FD801CD90DD9091
:10473000ED90FC901397B901CA01A70196010E9460
:10474000CE7620E034E040E050E00E944277F8016D
:1047500020833183428353830CC080819181A28165
:10476000B3818C0D9D1DAE1DBF1D80839183A283DF
:10477000B383FD81FF5FFD830894411C511C24E03D
:1047800030E0220E331E49815A814E5F5F4F5A83BB
:104790004983F03209F0E1CC29960FB6F894DEBFD8
:1047A0000FBECDBFDF91CF911F910F91FF90EF9082
:1047B000DF90CF90BF90AF909F908F907F906F9041
:1047C0005F904F903F902F90089586E0E3E9FCE0E2
:1047D000DF011D928A95E9F710928F0C1092900CD0
:1047E0001092910C1092920C80E6EFE2FCE0DF0157
:1047F0001D928A95E9F782E090E09093560C8093A1
:10480000550C9093540C8093530C80917D0C8660D2
:1048100080937D0C089580E00E94D51581E00E9470
:10482000D5150E94E52308950F931F93CF93DF932F
:10483000D82F62E041E659E12BE006E00E94616575
:10484000882309F4F3C080E060E045E850E122E00D
:104850000E94A618C09134028091B60D882359F5A4
:1048600088E060E970E10E94AD182091EE05269580
:1048700026952695C13011F402E001C000E084E5E0
:1048800068E04BE256E10E94E318C130B1F4609158
:10489000EE056695669566958D2F40E024E00E94B2
:1048A0000749880F880F880F9091EE059770982B15
:1048B0009093EE0502C018E001C010E18091B60DA2
:1048C0008230E0F4812F69E970E10E94AD184091D7
:1048D000EF05C23011F422E001C020E084E5612F31
:1048E0000E948C35C23049F48D2F6091EF0540E075
:1048F00024E20E9407498093EF05185F8091B60D6E
:104900008330E8F4812F63EA70E10E94AD18409192
:10491000F005C33011F422E801C020E884E5612FDE
:1049200050E00E94D41AC33049F48D2F6091F005F5
:1049300040E024E60E9407498093F005185F8091CB
:10494000B60D843008F5812F6DEA70E10E94AD1834
:104950006091EE05617041E0C43009F040E0812FC4
:104960000E94391CC43079F46091EE0561708D2F7E
:1049700040E021E00E94074981709091EE059E7F02
:10498000982B9093EE05185F8091B60D853020F539
:10499000812F6BEB70E10E94AD186091EE0566957A
:1049A000617041E0C53009F040E0812F0E94391C60
:1049B000C53089F46091EE05669561708D2F40E0F9
:1049C00021E00E9407498170880F9091EE059D7F3C
:1049D000982B9093EE05185F8091B60D863030F5D8
:1049E000812F69EC70E10E94AD186091EE0566952B
:1049F0006695617041E0C63009F040E0812F0E9469
:104A0000391CC63099F46091EE0566956695617023
:104A10008D2F40E021E00E9407498170880F880FA8
:104A20009091EE059B7F982B9093EE05DF91CF91AF
:104A30001F910F9108950F9362E04BEB57E126E031
:104A400000E00E946165882341F180E060E04FEE64
:104A500050E122E00E94A61880E167EF70E10E9419
:104A6000AD1888E167E071E10E94AD1880E268E16D
:104A700071E10E94AD1888E269E271E10E94AD180F
:104A800088E368E371E10E94AD184091540680E329
:104A900068E350E020E80E94D41A0F9108952F9205
:104AA0003F924F925F926F927F928F929F92AF92BE
:104AB000BF92CF92DF92EF92FF920F931F93CF930B
:104AC000DF9300D00F92CDB7DEB7D82E69838091E7
:104AD000BA0D9091BB0D009711F0BB2401C0B980B5
:104AE0008FE1F82EFB208091BC0D882331F021E06E
:104AF0001B2DF21619F4115001C01B2DDD2019F0E9
:104B000048E551E102C047ED50E180E060E022E07D
:104B10000E94A6188D2D0E943517482F8091220CD7
:104B2000815F60E050E020E00E94D41A8091220C66
:104B3000DD2019F04DED50E102C041EE50E160E0A2
:104B40000E94B518DD2011F064E001C065E000911D
:104B500007010150812F41E659E12BE00E94616578
:104B6000882309F458C49090340283E68B15A0F092
:104B7000E2E6BE1608F0FBC0F1E2BF1699F1FB15A4
:104B800028F020E2B21609F068C156C08B2D82547D
:104B9000823008F062C1EBC085E88B1568F0E4E86C
:104BA000BE1608F0A4C0F0E8BF1609F473C021E8EF
:104BB000B21609F052C106C08B2D8E5B823008F010
:104BC0004CC16FC08091BC0D882349F08091B90D14
:104BD000882329F48D2D6091B40D0E94401E81E838
:104BE0000E943C488091B90D882309F45AC08091F5
:104BF000BC0D813031F48D2D6091B40D0E94401EAA
:104C000016C061E08091B90D18160CF060E08D2D92
:104C10000E94621D8091B90D87FF02C08F5F01C0A5
:104C200081508093B90D8091B90D882351F79090F0
:104C3000B80D9092340235C08091230C882341F046
:104C40008091BC0D882331F18091B90D882311F535
:104C50008091BC0D813011F482E001C081E080932D
:104C6000BC0D8091B40D8093200CDD2041F00E949A
:104C70002D17FC01808186958695837005C00E9462
:104C80002017FC0180818F708F5F8093210C9092A0
:104C9000B80DE3C08B2D0E943C488091B90D88234C
:104CA00029F01092BC0D1092B90DD7C08091BC0DA7
:104CB000882311F01092230C8091230C882359F043
:104CC0008D2D0E945717882309F0C7C08D2D609144
:104CD000B40D0E94931EDD2019F081E89FE202C00E
:104CE00087E391E30E940F461092BC0D94C380911C
:104CF000BC0D882309F4B1C08091B90D882309F057
:104D0000ACC08D2D0E945717882309F0A6C0809152
:104D1000B40DDD2041F00E942D17FC0180818695A5
:104D20008695837005C00E942017FC0180818F70DA
:104D30008F5F8093230CF4E8BF1629F48091B40DA3
:104D40008F5F8093B40D8D2D6091B40D0E94931EE2
:104D5000DD2019F081E89FE202C087E391E30E9421
:104D60000F461092BC0D8B2D0E943C4854C380917D
:104D7000BC0D882309F471C09091B90D23E0192F5F
:104D8000F21611F4115001C01F5F992309F048C0B9
:104D9000813009F045C08D2D0E945717882309F0F6
:104DA0005CC00091B40D802FDD2079F00E942D179A
:104DB000BC01402F50E040955095425F5F4F440F3B
:104DC000551F440F551F049612C00E942017BC01A6
:104DD000802F90E0809590958096AC01B3E0440FD1
:104DE000551FBA95E1F7480F591FCB0109960E944C
:104DF0005D7782E00E94611582E0F81621F48091CF
:104E0000B40D8F5F1CC02091B60D892D90E0821BE0
:104E1000910986309105FCF02F5F2093B60D1BC0E1
:104E2000112381F4813071F48D2D6091B40D0E94B5
:104E3000401EE3E0FE1679F48091B40D815080931A
:104E4000B40D09C061E0F3E0FF1260E08D2D0E9417
:104E5000621D882311F01093B90D1092230CAA241F
:104E6000A394CC24FF24F39498C2DD20B1F02DE06C
:104E70002C1530F18C2D0E942D172C01FC01208166
:104E8000822F86958695837090E001968215930512
:104E9000B9F4237009F0B4C213C0FFE1FC1580F02F
:104EA0008C2D0E9420173C01FC0186818F7741F0F8
:104EB00080818F7090E001968215930509F4A3C25A
:104EC0009F1409F033C22AC26F2D70E0681B71096C
:104ED000683071056CF4660F660F660F80E04A2D2E
:104EE00020E0DD2019F00E948C3502C00E94C235FE
:104EF000882403C02B013A01F22E8091BC0D882337
:104F0000D9F1823079F58091B60D8F1558F56F2D56
:104F100070E0681B71096830710524F58091210CDF
:104F20008A1501F58091B90D8823E1F02C2D30E030
:104F30004091200C992787FD90958827990F881F0D
:104F40009927840F911D2817390761F4660F660FA2
:104F5000660F615086E14AE629E005E5EE240E94ED
:104F6000A413F3948091B40D8C1559F4F09234028B
:104F7000A092230C9F2C05C09F1419F4C092B40D6D
:104F8000F92C2091B60D2F1508F063C18F2D90E0FC
:104F9000821B9109883091050CF05BC1182F110F0D
:104FA000110F110F8C2DDD2009F4AAC00E942D17BE
:104FB0009B838A838091BC0D882311F49F1411F088
:104FC00000E001C002E0EA81FB814281469582E275
:104FD000612F50E0202F0E94D41A002381F0EA8133
:104FE000FB81628166958B2D40E024E60E94074993
:104FF000880FEA81FB8192819170982B9283EA81DC
:10500000FB814381552747FD509587E3612F20E0C1
:105010000E94D41AEA81FB818281418142954695A2
:10502000477080FD41958CE3612F20E00E944D3553
:10503000EA81FB814181440F440F440F459545951A
:10504000459582E5612F20E00E94F218EA81FB81FC
:1050500080818370833049F0823011F44EE701C0C3
:105060004FE786E6612F0E943B15EA81FB81408174
:10507000842F807F81F042954F70842F90E08B3099
:10508000910514F084E001C080E0480F8EE6612FA6
:1050900020E00E9425354091BC0D442309F4D9C07D
:1050A000413021F08091B90D882319F58091210CB0
:1050B0008A15F9F42C2D30E05091200C8091B90D17
:1050C000992787FD90958827990F881F9927850F25
:1050D000911D2817390769F4612F6150413011F48F
:1050E0000FEF01C005E582E14EE629E0EE240E94C3
:1050F000A413F91409F0ADC083E1612F4CE6A4C0FC
:105100000E9420179B838A83882069F0FC012281FA
:10511000229526952695237086E0612F4CE654E172
:1051200000E00E94E318EA81FB8146814F778AE123
:10513000612F20E00E94B6358091BC0D882311F4C8
:105140009F1411F000E001C002E0EA81FB8141817F
:10515000552747FD509589E4612F202F0E94D41ACE
:10516000002359F08B2DEA81FB81618143E82DE713
:105170000E940749EA81FB818183EA81FB814381A7
:10518000842F8F7349F0440F440F459545958FE464
:10519000612F20E00E942535EA81FB814281842F26
:1051A0008F7349F0440F440F4595459586E6612F6E
:1051B00020E00E94F218EA81FB818581882311F4A6
:1051C00040E201C043E5EA81FB818481882329F024
:1051D000433511F44AE201C044E48BE7612F20E03B
:1051E0000E9448144091BC0D442399F1413021F0B4
:1051F0008091B90D882319F58091210C8A15F9F455
:105200002C2D30E05091200C8091B90D992787FD0D
:1052100090958827990F881F9927850F911D28172A
:10522000390769F4612F6150413011F40FEF01C06B
:1052300005E586E14AE629E0EE240E94A413F9146C
:1052400041F487E1612F48E627E00FEFEE240E944A
:1052500066132F2D2F5F8394C394A301475F5F4F85
:10526000B2016C5F7F4FDD2091F0FDE0FC15F0F0A6
:10527000F2013481832F86958695837090E00196A4
:105280008215930599F4337009F034CE0FC0FFE115
:10529000FC1560F0F30187858F7741F081858F7071
:1052A00090E001968215930509F424CE8091BC0DFF
:1052B000823009F070C08091B60D821708F06BC083
:1052C000622F70E0681B7109683071050CF063C0D3
:1052D0008091210C8A1509F05EC04C2D50E0309170
:1052E000200C8091B90D992787FD90958827990FFB
:1052F000881F9927830F911D4817590709F04BC044
:10530000660F660F660F615086E14AE629E005E503
:10531000EE240E94A4132F2D2E5F3DC0C092B40D29
:10532000A092230C8091BC0D882311F020E001C0D5
:1053300022E08091B60D8F1560F50F2D10E0B801B9
:10534000681B71096830710524F5660F660F660FDA
:1053500080E04A2DDD2019F00E948C3502C00E94A9
:10536000C2358091BC0D8230A1F48091210C8A1548
:1053700081F48091B60DB801681B7109660F660F44
:10538000660F615086E14AE629E005E5EE240E94B9
:10539000A4132F2D2F5FA394F22E2A2C3324DD206B
:1053A00019F084E090E002C080E190E0821593055E
:1053B0000CF05BCDF0920701292D30E08F2D90E0AD
:1053C0000197281739071CF0FA94F0923402809163
:1053D000BA0D9091BB0D0097F1F00E94B91880E1D1
:1053E00068E24BE859E10E94B518F981F13699F469
:1053F00081E60E943C481092BB0D1092BA0D0BC082
:105400006624772402C0442455248091B60D8F155C
:1054100008F45ACD6DCD0F900F900F90DF91CF9182
:105420001F910F91FF90EF90DF90CF90BF90AF90C2
:105430009F908F907F906F905F904F903F902F90B4
:105440000895682F81E00E944F250895682F80E01D
:105450000E944F2508956F927F929F92AF92BF92C4
:10546000CF92DF92EF92FF920F931F93CF93DF9330
:10547000C82F67E041E659E12BE000E10E94616539
:10548000882309F493C080E060E045EE50E122E01B
:105490000E94A618609034026A94C03611F0C43697
:1054A00041F467FC06C06092240C84E79BE20E94F2
:1054B0000F46BB249924DD24D39448E0C42E7724DE
:1054C00067FC70942091B60D2B0DE22EFF246E1414
:1054D0007F0411F402E001C000E0AA24A394283064
:1054E00028F4AA2487E08D1528F459C0E6E0ED15CC
:1054F00008F455C0992009F4902E2F5F80E06C2DA0
:105500004CEE50E10E940335AA2069F0C7010897CC
:10551000EC0133E0CC0FDD1F3A95E1F7C80FD91F3E
:10552000CE5ADA4F09C0E701CC0FDD1FCC0FDD1FCB
:10553000CE0DDF1DC65DDA4F7E011CE2F701419101
:105540007F01552747FD5095812F6C2D20E00E944B
:10555000D41A1B5E153991F798E0E92EEC0CAA20BD
:1055600019F4D394CE2C16C08E010B5F1F4FCCE2E2
:10557000F80141918F01552747FD50958C2F6E2DD5
:1055800020E00E94D41ACB5EC03891F7F0E1CF0E34
:1055900082E0D80EB394E7E0BE1609F093CF9920CD
:1055A00029F48091B60D8F5F8093B60DDF91CF9176
:1055B0001F910F91FF90EF90DF90CF90BF90AF9031
:1055C0009F907F906F900895EF92FF920F931F939B
:1055D000CF93DF9363E04BEB57E126E000E00E94BE
:1055E0006165882309F479C080E060E041E451E11D
:1055F00022E00E94A618CEE0D0E010E0143020F0A7
:1056000058EFF52EF00E01C0F02ECE010E94AA0E2A
:10561000E82E1F5F80E36F2D412F20E00E94F218DB
:105620004E2D405DEE2011F022E001C020E084E428
:105630006F2D0E944814085F21961930F9F6D8E3BF
:10564000C0E08C2F90E00E94AA0E182F80E06D2FF2
:1056500040E456E12C2F00E00E94E318412F405D0A
:1056600080E26D2F212F0E944814CF5FD850C630A2
:1056700041F784E568E149E451E10E94B518C6E0CC
:10568000D0E010E284E5612F4BE350E1202F0E942F
:10569000491CCE010E94AA0EE82ECE0101960E945E
:1056A000AA0EF82E4E2D405DEE2011F022E001C032
:1056B00020E08CE6612F0E9448144F2D405DFF20B2
:1056C00011F022E001C020E088E7612F0E94481419
:1056D0000F5F185F22960430A9F6DF91CF911F91DA
:1056E0000F91FF90EF9008954F925F926F927F928B
:1056F0008F929F92AF92BF92CF92DF92EF92FF92E2
:105700000F931F93CF93DF9300D0CDB7DEB7182F41
:1057100080E060E044E651E122E00E94A61800919A
:10572000240CE02EFF24A7014F5F5F4F8FE160E064
:1057300022E80E94D41A89E70E942D55083088F08B
:10574000C70108976C01A3E0CC0CDD1CAA95E1F71A
:10575000C80ED91E82E595E0C80ED91EB9E0BB2E51
:105760000DC06701CC0CDD1CCC0CDD1CCE0CDF1C8D
:10577000AAE2B5E0CA0EDB1EF5E0BF2E113609F431
:1057800077C0123640F4153409F488C0103671F031
:105790001434E1F491C0153609F480C01F3B19F0B0
:1057A0001436A1F489C01092250C69C08091B70D00
:1057B000181664F080913302813061F0813018F066
:1057C000823021F449C081E08093B70D760130EE3C
:1057D00000E0A6C08091250C8F5F8093250C85305A
:1057E0001CF08CEF8093250C8B2D869590E04091DA
:1057F000250C242F332727FD309552E34502300135
:105800001124FC2C2601E0E0F0E0909581959F4F5B
:10581000829FA001839F500D929F500D112482E31F
:1058200090E0489F4001499F900C589F900C112494
:105830002B2D30E021503040CF01880D991DB9014A
:105840000E940D77D2016D932D01E60DF71D8A2F71
:105850008F198B1588F3BACF8CE9F6018083EB0D95
:10586000F11D319784E6808381E08093260CAECFD2
:1058700081E60E943C488091260C882319F0109202
:10588000260CA4CF8091B70D18162CF41092330279
:105890001092B70D9BCF0E94EA4598CF8091260CBD
:1058A000882309F093CF80913302882309F48ECFA7
:1058B0008150809333028ACF8091260C882309F08F
:1058C00085CF00913302E02EFF248091B70D18168A
:1058D00024F48B2D90E001971BC0E0913A02F0E098
:1058E000EE0FFF1FEF55F94F80819181FFE2813864
:1058F0009F0749F48091B40D0E942D17DC018C9113
:105900008C70883019F081E090E002C082E090E075
:10591000E816F9060CF05ACF0F5F0093330256CF0A
:10592000632F053018F4685D88E101C080E3909131
:10593000B70D191624F490913302901711F020E05E
:1059400001C022E0F70141917F01552747FD5095A5
:105950003A830E94D41A0F5F3A81385F0B1500F327
:1059600080E068E340E651E10E94B5188091B70DF0
:1059700091E018160CF490E020913302929F202DB4
:105980001124181624F08091260C882311F000E0D1
:1059900001C002E08CE168E348E154E10E94E318B1
:1059A0008091B70D18166CF48B2D8695A82EFF24C8
:1059B000442468E3662E6FEF762EF12FF256F983BA
:1059C00005C08091260C882379F75DC0E42DF0E0B6
:1059D000CF0125E0880F991F2A95E1F76A2D7F2DC9
:1059E0000E940D77462F46018E0E9F1ED4012C91EA
:1059F000332727FD3095C90156E0880F991F5A9526
:105A0000E1F7821B930B8456974EB3010E940D77EA
:105A10002091260C222361F030E0CF010196281757
:105A2000390769F5635C842F845C45E025E023C079
:105A3000809133028415D1F4635C842F845C45E04B
:105A400025E00FEFEE240E946613B981B23020F0FA
:105A5000123411F0133499F4812FF40160814CE970
:105A600024E60E940749D4018C9309C0625C842F0C
:105A7000835C43E023E00FEFEE240E94661343941F
:105A80004B1408F4A3CF86E49EE00E94FE130F900F
:105A90000F90DF91CF911F910F91FF90EF90DF90CA
:105AA000CF90BF90AF909F908F907F906F905F90BE
:105AB0004F9008956F927F928F929F92BF92CF9254
:105AC000DF92EF92FF920F931F93CF93DF93D82E25
:105AD00061E04BEB57E126E00AE611E175E0E72EC5
