:100000000C94E20C0C94FF0C0C94FF0C0C94FF0C61
:100010000C94FF0C0C94FF0C0C94FF0C0C94FF0C34
:100020000C94FF0C0C94FF0C0C94FF0C0C94B3611B
:100030000C940C610C94FF0C0C94FF0C0C94AB5EB4
:100040000C945B620C94FF0C0C94D55F0C94FF0C29
:100050000C94FF0C0C94FF0C0C94D8600C94FF0CC7
:100060000C9477610C94E0610C94FF0C0C94FF0CE1
:100070000C94FF0C0C94FF0C0C94FF0C0C94FF0CD4
:100080000C94FF0C0C94FF0C0C94FF0C07414C4596
:100090005254000102030401030204040203010498
:1000A00003020142616420454570726F6D20446116
:1000B000746100044D455353414745004545505236
:1000C0004F4D20466F726D617474696E67005350B6
:1000D000530080400000000000000000000000000D
:1000E0000000000000000000000000000000000010
:1000F0000000000000000000000000000000000000
:1001000000000000000000000000000000000000EF
:1001100000000000000000000000000000000000DF
:1001200000000000000000000000000000000000CF
:1001300000000000000000000000000000000000BF
:1001400000000000000000000000000000000000AF
:1001500000000000FCFCFCFCFCFCFCFCFCFCFCFCCF
:10016000FCFCFCFCFCFCFCFCFCFCFCFCFCFCFCFCCF
:10017000FCFCFCFCFCFCFCFCFCFCFCFCFCFCFCFCBF
:10018000FCFCFCFCFCFCFCFCFCFCFCFCFCFCFCFCAF
:10019000FCFCFCFCFCFCFCFCFCFCFCFCFCFCFCFC9F
:1001A000FCFCFCFCFCFCFCFCFCFCFCFCFCFCFCFC8F
:1001B000FCFCFCFCFCFCFCFCFCFCFCFCFCFCFCFC7F
:1001C000FCFCFCFCFCFCFCFCFCFCFCFCFCFCFCFC6F
:1001D000FCFCFCFCFFFFFFFFFFFFFFFFFF7F7F3FFB
:1001E0003F3F3F3F3F7F7FFFFFFFFFFFFFFFFF3F9F
:1001F0003F3F3F3FFF7F7F3F3F3F3F7FFFFFFFFF8F
:10020000FFFFFFFFFF7F7F3F3F3F3F3F3F7F7FFF7E
:10021000FFFFFFFFFFFFFFFF3F3F3F3F3FFF7F3FEE
:100220003F3F3F3F7FFFFFFFFF7F0F07030181E05D
:10023000F0F0F0E0000101071FFFFFFFFFFFBF3FED
:100240003F3F3F7FFFFFFFFFFF7F3F3F3F3F3FBFFE
:10025000FFFFFFFFFFFFFFFF3F07030100C0F0F8B4
:10026000FCFCFCFCF80000000103FFFFFF3F010065
:10027000000080E0F8FCFCFCF80000000001FFFF3B
:100280003F070301000010181C1C1C1C1800000074
:100290000103FFFFFFFF1F00000000C0F8FCFCFC93
:1002A0001000000000C0FFFFFFE0800000000F1FF3
:1002B0001F1F0F0300000000E0FFFFFFFFFFFFFE16
:1002C000F8E000000107070180E0F0F8FCFEFFFF06
:1002D000FFFFFFFFFFFFFFFFE0C08000000F1F1FB9
:1002E0001F1F0F070180C0E0F0FEFFFF07000000A6
:1002F00000C00F1F1F1F0F07010080E0F0FEFFFF6F
:10030000E0C08000000E0E1E1E1E1E1E1E1E0ECE03
:10031000FEFEFFFF7F0300000080FCFFFFFF3F03A6
:1003200000000080FCFFFF1F0F0F1F1F1E1E1E0E70
:100330000E0781C0E0F0FCFFFFFFFF7F3F1F0F03B0
:100340000180E0F0F8E0800001071F7FFFFFFFFF62
:10035000FFFFFFFFFFFFFFFFFFFFFFFFFFFEFEFEB0
:10036000FEFEFEFFFFFFFFFFFFFF1F00000000C0BB
:10037000FEFFFFFEFEFEFEFEFFFFFFFFFFFFFFFF93
:10038000FFFFFFFFFFFEFEFEFEFEFEFEFEFFFFFF85
:10039000FFFFFFFFFEFEFEFEFEFFFFFFFFFFFEFE74
:1003A000FEFEFEFFFFFFFFFFFFFEFEFEFEFEFEFE67
:1003B000FFFFFFFFFFFFFFFFFFFFFEFEFEFEFEFE53
:1003C000FFFFFFFFFFFFFFFEFEFEFEFEFFFFFFFF42
:1003D000FFFFFFFF1F1F1F1F1F1F1F1F1F1F1F1FAD
:1003E0001F1F1F1F1F1F1F1F1F1F1F1F1F1F1F1F1D
:1003F0001F1F1F1F1F1F1F1F1F1F1F1F1F1F1F1F0D
:100400001F1F1F1F1F1F1F1F1F1F1F1F1F1F1F1FFC
:100410001F1F1F1F1F1F1F1F1F1F1F1F1F1F1F1FEC
:100420001F1F1F1F1F1F1F1F1F1F1F1F1F1F1F1FDC
:100430001F1F1F1F1F1F1F1F1F1F1F1F1F1F1F1FCC
:100440001F1F1F1F1F1F1F1F1F1F1F1F1F1F1F1FBC
:100450001F1F1F1F00000000000000000000000020
:10046000000000000000000000000000000000008C
:10047000000000000000000000000000000000007C
:10048000000000000000000000000000000000006C
:10049000000000000000000000000000000000005C
:1004A000000000000000000000000000000000004C
:1004B000000000000000000000000000000000003C
:1004C000000000000000000000000000000000002C
:1004D0000000000053504500454550524F4D206CE0
:1004E0006F77206D656D005468726F74746C652051
:1004F0006E6F742069646C65005265736574207456
:1005000068726F74746C6500507265737320616EED
:1005100079206B657920746F20736B697000537755
:10052000697463686573206E6F74206F666600502F
:100530006C65617365207265736574207468656DA0
:1005400000416C61726D732044697361626C656413
:10055000005554432D54696D6520202020202053E0
:1005600061740054696D657200446174650043559F
:1005700052564500444542554700546D72314C6116
:1005800074206D617803757300546D72314C617421
:10059000206D696E03757300546D7231204A697461
:1005A00074657203757300546D61696E206D6178B6
:1005B000056D73004672656520537461636B046258
:1005C000005B4D454E555D20746F207265736574F8
:1005D00000454550524F4D206F766572666C6F77BF
:1005E0000044522F4558504F004D4F44454C534501
:1005F0004C0044454C455445204D4F44454C004328
:100600006F7079696E67206D6F64656C2E2E2E0099
:100610004D6F76696E67206D6F64656C2E2E2E00AF
:100620004C6F6164696E67206D6F64656C2E2E2E51
:10063000006672656500494E53455254204D495835
:10064000200045444954204D49582000536F75728D
:10065000636500576569676874004469666665721A
:10066000004F6666736574005472696D004375725D
:1006700076657300462E5068617365005761726E2F
:10068000696E67004F4646004D756C747078004483
:10069000656C617920446F776E0044656C617920E8
:1006A000557000536C6F772020446F776E00536C49
:1006B0006F772020557000464C49474854205048D9
:1006C00041534553002864656661756C7429004385
:1006D0006865636B055472696D7300120800081C2D
:1006E0000808081C08000008220049002208000031
:1006F000000000227F22000000082200490022089A
:10070000000008220049002208000000227F220089
:1007100000000000082200490022080000081C0810
:1007200008081C08005B4D454E555D045B45584963
:10073000545D0048454C492053455455500053776B
:10074000617368205479706500436F6C6C656374E5
:100750006976650053776173682052696E6700455A
:100760004C4520446972656374696F6E0041494C61
:1007700020446972656374696F6E00434F4C204476
:100780006972656374696F6E004D49584552002F58
:100790003134002F333200435552564553004356EF
:1007A0000056455253494F4E00564552533A205633
:1007B000322E30302D48002053564E3A206F70654F
:1007C0006E39782D7235313500444154453A203226
:1007D0003031322D30342D31310054494D453A20DD
:1007E00030323A35333A333500454550524F4D207B
:1007F000760044494147005472696D2D202B004119
:100800006C746974756465205361742020204D6197
:100810007800486F6D65004C6966740042656570CC
:10082000004F4E004F4646002F530053544154533F
:1008300000544D310D544D32005448520D5448254A
:1008400000544F540063004650004D4F44454C0047
:1008500050504D004348004E6F206672656520651C
:1008600078706F21004E6F2066726565206D697823
:100870006572210003010200040506075F2D2E2C7E
:10088000001B1E272D36394B4E636C7278878D9373
:100890009CB1B4C6C9D2D8E1E49C1432465A5A4637
:1008A00032465AECEC003C649CC4003C649C000062
:1008B00000644D454E5553204F564552464C4F57B8
:1008C0000004507265737320616E79204B65790066
:1008D00047726E6453706565645B6B6E745D202057
:1008E00053617400436F75727365206F7665722073
:1008F00067726F756E64004C61746974756465200D
:1009000020202020536174004C6F6E6769747564F9
:1009100065000101020A3C01010414500101081E96
:100920006402020F287805051E3296202047505396
:10093000204E4D45412064617461203F2F342020BA
:100940000000000000000000006F0000070007002A
:10095000147F147F14242A7F2A122313086462361A
:10096000495522500005030000001C2241000041AF
:10097000221C0014083E081408083E0808005030E5
:10098000000000080808080060600000201008044B
:1009900002003E41413E0000427F40006251494614
:1009A0000041494936001814127F00274545390097
:1009B0003E494932000179050300364949360006AF
:1009C00049291E0000363600000056360000081483
:1009D0002241141414141441221408000201510974
:1009E0000606090906007E0909097E7F494949363C
:1009F0003E414141227F4141221C7F494949417F7B
:100A0000090909013E4149497A7F0808087F0041E8
:100A10007F41002040413F017F081422417F404038
:100A200040407F020C027F7F0408107F3E4141411D
:100A30003E7F090909063E4151215E7F0919294679
:100A4000264949493201017F01013F4040403F1F93
:100A50002040201F3F4030403F63140814630708C4
:100A60007008076151494543007F41410002040875
:100A700010200041417F0004020102044040404038
:100A800040000102040020545454787F4844443804
:100A90003844444420384444487F38545454180857
:100AA0007E0901020C5252523E7F08040478004431
:100AB0007D40002040443D007F1028440000417FDD
:100AC00040007C041804787C0804047838444444CA
:100AD000387C14141408081414187C7C08040408C6
:100AE0004854545420043F4440203C4040207C1C47
:100AF0002040201C3C4020403C44281028440C50FE
:100B000050503C4464544C44000836410000007F7F
:100B1000000000413608000808221C08081C2208B2
:100B200008000000000000000000000000000000BD
:100B300000000000000000000000000000FE71FE48
:100B4000710000000000000000000000003E007E78
:100B500000000000007E003E000000000060066013
:100B600006FE7FFE7F60066006FE7FFE7F600660F9
:100B7000066018F01898199819FE7FFE7F9819984A
:100B800019180F18060C181E1C1E0E0C078003C027
:100B900001E030707838781830781EFC3F8E71C6CE
:100BA00063E66776663C3C183C0066006600000021
:100BB00000660076003E001E0000000000000000FD
:100BC0000000000000E007F00F381C1C380E700613
:100BD00060000000000000000006600E701C383845
:100BE0001CF00FE0070000000060066006C00380F4
:100BF00001F81FF81F8001C00360066006800180B5
:100C00000180018001F81FF81F80018001800180B0
:100C1000010000000000660076003E001E0000009B
:100C20000000000000000000000000800180018042
:100C3000018001800180018001000000000030007F
:100C4000780078003000000000000000000018006C
:100C50001C000E00078003C001E00070003800187F
:100C60000000000000F81FFC3F0E70066006600EDA
:100C700070FC3FF81F0000000018601C60FE7FFE43
:100C80007F00600060000000000000000018781C79
:100C90007C0E6E06678663CE61FC607860000000A3
:100CA0000006600660866186618661CE73FC3F78CF
:100CB0001E000000008007C007E006700638061C12
:100CC00006FE7FFE7F000000007E187E386670669C
:100CD000606660E670C63F861F00000000F81FFCDB
:100CE0003F8E71866186618E731C3F181E00000066
:100CF0000006000600867FC67FE60076003E001EE6
:100D00000000000000781EFC3FCE7386618661CE35
:100D100073FC3F781E000000007800FC00CE618666
:100D2000718639CE1DFC0FF80700000000300C78EA
:100D30001E781E300C0000000000000000000000C3
:100D40000030667876783E301E000000000000001B
:100D500000000000008001C003E007700E381C1C7A
:100D6000380E700660600660066006600660066009
:100D700006600660066006600606600E701C383865
:100D80001C700EE007C00380010000000018001C6A
:100D9000000E000600066606678603CE01FC00789A
:100DA000007800FC00CE0186018601CE01FC0078AF
:100DB0000000000000E07FF07FB8019C018E018EF2
:100DC000019C01B801F07FE07FFE7FFE7F86618697
:100DD00061866186618661CE73FC3F781EF81FFCD8
:100DE0003F0E7006600660066006600E701C3818C4
:100DF00018FE7FFE7F0660066006600E701C3838A5
:100E00001CF00FE007FE7FFE7F86618661866186AB
:100E1000618661866106600660FE7FFE7F860186D0
:100E200001860186018601860106000600F81FFC86
:100E30003F0E7006608661866186618E719C7F9828
:100E40003FFE7FFE7F800180018001800180018064
:100E500001FE7FFE7F0000000006600660FE7FFE50
:100E60007F06600660000000000018003800700077
:100E70006006600670FE3FFE1F06000600FE7FFE55
:100E80007F8001C003E007700E381C1C380E70060E
:100E900060FE7FFE7F006000600060006000600018
:100EA0006000600060FE7FFE7F1C003800F001F0F3
:100EB0000138001C00FE7FFE7FFE7FFE7F7000E099
:100EC00000C00180030007000EFE7FFE7FF81FFCBC
:100ED0003F0E7006600660066006600E70FC3FF80C
:100EE0001FFE7FFE7F86018601860186018601CE78
:100EF00001FC007800F81FFC3F0E700660066606D5
:100F00006E063C0E38FC7FF867FE7FFE7F8601860A
:100F1000018607860F861DCE39FC7078607818FC34
:100F200038CE7186618661866186618E731C3F183A
:100F30001E0600060006000600FE7FFE7F06000675
:100F40000006000600FE1FFE3F007000600060000B
:100F50006000600070FE3FFE1FFE07FE0F001C00D9
:100F600038007000700038001CFE0FFE07FE1FFEE8
:100F70003F00700070003E003E00700070FE3FFEBB
:100F80001F1E783E7C700EE007C003C003E00770B0
:100F90000E3E7C1E787E00FE00C0018003007F00B4
:100FA0007F8003C001FE007E000678067C066E0688
:100FB000678663C661E66076603E601E6000000082
:100FC00000FE7FFE7F06600660066006600000008F
:100FD00000180038007000E000C001800300070026
:100FE0000E001C0018000000000660066006600687
:100FF00060FE7FFE7F000000006000700038001C73
:10100000000E000E001C0038007000600000600040
:1010100060006000600060006000600060006000D0
:10102000600000000006000E001C00380070006028
:1010300000000000000018003C607E606660666092
:10104000666066E066C07F807FFE7FFE7F8061C055
:1010500061E06060606060E070C03F801F801FC022
:101060003FE07060606060606060606070003800E9
:1010700018801FC03FE07060606060E060C0618009
:1010800061FE7FFE7F801FC03FE076606660666025
:10109000666066E066C007800780018001F87FFC1B
:1010A0007F8E01860106000E001C001800E001F092
:1010B00003386718661866186618661876F83FF8D9
:1010C0001FFE7FFE7F8001C001E00060006000E045
:1010D00000C07F807F0000000060606060E67FE607
:1010E0007F00600060000000000018003800700001
:1010F0006060606070E63FE61F00000000FE7FFE5B
:101100007F0006000F801FC039E0706060000000A3
:10111000000000000006600660FE7FFE7F006000A9
:101120006000000000E07FE07F6000E000C007C0DA
:1011300007E000E000C07F807FE07FE07F8001C0AB
:1011400001E00060006000E000C07F807F801FC081
:101150003FE0706060606060606060E070C03F8031
:101160001FE07FE07F60066006600660066006E0C4
:1011700007C00380018001C003E0076006600660CD
:1011800006C0078007E07FE07FE07FE07F8001C04E
:1011900001E00060006000E000C00180018061C0EB
:1011A00063E0676066606660666066607E003C0063
:1011B0001860006000FE1FFE3F607060600060000D
:1011C0007000380018E01FE03F0070006000600011
:1011D0007000380018E07FE07FE007E00F001C009F
:1011E00038007000700038001CE00FE007E01FE0DE
:1011F0003F007000700038003800700070E03FE081
:101200001F6060E070C039801F000F000F801FC09A
:1012100039E0706060E001E003006700660066008E
:101220006600660076E03FE01F6060607060786096
:101230007C606E6067E063E061E060606000000019
:10124000008001C003781E7C3E0E70066000000026
:10125000000000000000000000FE7FFE7F00000094
:1012600000000000000000000006600E707C3E7868
:101270001EC0038001000000008001800180018009
:10128000011818381CF00FE007C00380018001C06E
:1012900003E007F00F381C181880018001800180DE
:1012A000014D6F64650000000000000000000000B8
:1012B0000000000000000000000000FF0152414457
:1012C000494F205345545550004265657065722062
:1012D0004D6F646500426565706572204C656E6790
:1012E000746800486170746963204D6F64650048DC
:1012F000617074696320537472656E67746800432B
:101300006F6E7472617374004261747465727920D7
:101310005761726E696E6700496E616374697669C0
:10132000747920616C61726D0046696C746572201D
:10133000414443005468726F74746C652072657622
:1013400065727365004D696E7574652062656570C0
:10135000004265657020636F756E74646F776E0010
:10136000466C617368206F6E2062656570004C6921
:1013700067687420737769746368004C6967687480
:10138000206F66662061667465720053706C6173CD
:10139000682073637265656E005468726F74746C54
:1013A00065205761726E696E670053776974636870
:1013B000205761726E696E67004D656D6F7279209E
:1013C0005761726E696E6700416C61726D20576182
:1013D000726E696E67005278204368616E6E656C4C
:1013E000204F72640053776974636800DB15EA511B
:1013F0007F1EB01DA424A8248657AC24865AA65963
:101400000A570029020200000000000602015345AD
:10141000545550004E616D650054696D657200450C
:101420002E4C696D69747300452E5472696D73009A
:101430005472696D20496E6300542D547261636566
:1014400000542D5472696D004265657020437472BA
:101450000050726F746F00750050504D20667261BD
:101460006D65006D730052784E756D0025000300A8
:10147000464C4947485420504841534500547269EE
:101480006D73004661646520496E004661646520A5
:101490004F75740054454D504C41544553005357BB
:1014A00000414E415300410042473A00426174748A
:1014B0006572792043616C69620043414C49425234
:1014C0004154494F4E005B4D454E555D20544F20D1
:1014D000535441525400534554204D4944504F49B0
:1014E0004E54005B4D454E555D205748454E2044B7
:1014F0004F4E45004D4F564520535449434B532FB3
:10150000504F545300000303030303030303030377
:10151000030303030303004C494D49545300547221
:10152000696D73203D3E204F6666736574730000DD
:1015300002435553544F4D20535749544348455344
:1015400000000246554E43205357495443484553E3
:1015500000034F46464F4E20032D2D2D494E560475
:1015600034434820364348203843482031304348EC
:101570003132434831344348313643480651756966
:10158000657420416C61726D734E6F4B65792041BB
:101590006C6C202020067853686F727453686F72E9
:1015A00074204E6F726D616C4C6F6E672020784CAA
:1015B0006F6E67200453494E474F534D5046494C78
:1015C0005404446F776E4F46462055702020036FB9
:1015D0006666202B3D203A3D0363683163683263C1
:1015E0006833636834064578702020204578466962
:1015F0006E6546696E6520204D656469756D436F43
:101600006172736501524554413132330550504D7A
:101610000020505858002044534D320050504D3156
:1016200036465554002003504F534E4547032D2D49
:101630002D783E30783C307C787C663E30663C309D
:101640007C667C0545444954205052534554412EF4
:10165000544852065765696768744578706F202052
:1016600043757276652050686173652053777463A3
:1016700068205768656E2020202020202020084107
:10168000646420202020204D756C7469706C795240
:1016900065706C61636520022B3D2A3D3A3D064F23
:1016A0004E202020204F46462020204F666673653E
:1016B00074072D2D2D2D002020763E6F667320207F
:1016C000763C6F667320207C767C3E6F66737C76FA
:1016D0007C3C6F6673414E44202020204F522020D6
:1016E000202020584F522020202076313D3D763258
:1016F000207631213D76322076313E7632202076BA
:10170000313C7632202076313E3D76322076313CB7
:101710003D7632200D53656375726974792000201F
:101720002020547261696E657220002020202049BB
:101730006E7374616E74205472696D2042656570B9
:101740000020202020202020205265736574002076
:101750002020202020200654696D65723154696D67
:10176000657232416C6C20202054656C656D2E06CC
:101770005761726E31205761726E32204368656521
:10178000702052696E672020536369466920526F4A
:10179000626F742043686972702054616461202014
:1017A000437269636B74536972656E20416C6D435B
:1017B0006C6B5261746174615469636B2020486181
:1017C000707463314861707463324861707463335C
:1017D000042D2D2D00546D7231546D723241310043
:1017E00020413200205478002052780020416C744F
:1017F0000052706D004675656C5431002054320003
:1018000020537064004469737443656C6C41636376
:1018100058416363594163635A4864670056537083
:101820006441312D0041322D00416C742D416C74A6
:101830002B52706D2B54312B0054322B005370649B
:101840002B4473742B4163630054696D650D436CC5
:10185000656172204D69786573000053696D706C25
:101860006520342D43482000542D437574202020DA
:101870002020202000562D5461696C20202020203B
:101880002000456C65766F6E5C44656C7461006524
:101890004343504D202020202020200048656C69C3
:1018A000205365747570202000536572766F205444
:1018B000657374202000042D2D2D2031323020310D
:1018C000323058313430203930202005204D656EBB
:1018D00075204578697420446F776E2020205570FC
:1018E0005269676874204C656674035448525255B7
:1018F00044454C4549443049443149443241494CBE
:1019000047454154524E535731535732535733532F
:101910005734535735535736535737535738535710
:101920003953574153574253574304527564204526
:101930006C65205468722041696C20503120205021
:10194000322020503320204D41582033504F5343F4
:101950005943314359433243594333034F46464178
:101960004253544873544825544874074C50342FFC
:101970004C503544534D6F6E6C7944534D58202074
:101980002000C84D475D831F60259F5B595C4080E8
:1019900008042010020100020202020054524149D0
:1019A0004E455200536C617665006D6F646503258A
:1019B00020737263004D756C7469706C6965720098
:1019C00043616C0011241FBECFEFD0E1DEBFCDBF5D
:1019D00011E0A0E0B1E0E6E6FBED02C005900D925B
:1019E000A032B107D9F71DE0A0E2B1E001C01D921D
:1019F000A038B107E1F70E9470620C94B16D0C94AD
:101A000000008F929F92AF92BF92CF92DF92EF929F
:101A1000FF92A0912C0DAA2309F465C0BB27A7FD56
:101A2000B0952AE030E00E94E36C9B01AC01205E9F
:101A300031404109510980912D0D992787FD9095DD
:101A4000C097AA2797FDA095BA2F280F391F4A1FC4
:101A50005B1FA0E1BEE00E94EA6C6B017C0150912B
:101A60002F0D4091300DA0912E0DBB27A7FDB095F5
:101A700028E532E00E94E36C4B015C01A52FBB27F7
:101A8000A7FDB0952CE330E00E94E36C860E971E14
:101A9000A81EB91E80EC881A8BE7980AA108B10825
:101AA000C80CD91CEA1CFB1CA42FBB27A7FDB095B2
:101AB0002AE030E00E94E36C605E71408109910988
:101AC000C60ED71EE81EF91E8091310D992787FD9D
:101AD0009095C097AA2797FDA095BA2FC80ED91E3A
:101AE000EA1EFB1E03C0C12CD12C7601B601C70132
:101AF000FF90EF90DF90CF90BF90AF909F908F902E
:101B000008950F9300E02FEF0E9499480F910895D8
:101B10002F923F924F925F926F927F928F929F92FD
:101B2000AF92BF92CF92DF92EF92FF920F931F93EB
:101B3000CF93DF9300D000D0CDB7DEB7382FB62ECD
:101B40005C834B83122FA02E822F8073E82EF12C02
:101B500020E1E21AF10874E0F594E7947A95E1F750
:101B60002E2D12FB882480F813FF02C018500CC0E1
:101B70004B815C8157FF08C05195419551095C83A9
:101B80004B839924939401C0912C2223F1F08B81F3
:101B90009C816AE070E00E94196DAA24A394EAE097
:101BA000F0E005C0A394CB01BF010E94196D61153F
:101BB0007105C1F7EA2DF0E0422F552747FD5095FA
:101BC0004E175F0714F0AE2CA394811006C017FFC8
:101BD00007C012162CF43E5F03C06AE0662E02C0F6
:101BE00055E0652E17FF0BC06A9C300D112499201B
:101BF00031F0882011F087E001C085E0380F309384
:101C00001C07062D0095030F5524539432E0732EC4
:101C1000212C4AE0C42ED12C5B2D5A5F598378C009
:101C20008B819C81B6010E94196D982F20E3322E82
:101C3000380E8820D1F081E338120EC05A100CC043
:101C4000A22DB0E0E02FF0E03A96EA17FB0724F46B
:101C50000E5F212F286001C0212FAB81BC81A83EDF
:101C6000B34024F00B5F2B7F01C0212F432D6B2D40
:101C7000802F9A830E948649E52DF0E09A81EE1626
:101C8000FF0689F58FEC482E41228820D9F091502B
:101C9000933008F473948B819C81B6010E94196D76
:101CA000CB01B6010E94196D823019F0843009F021
:101CB00066C0F4E3202E3F1202C0239461C02A9430
:101CC00073945EC0015040E06981802F0E942649D4
:101CD00011FF06C010FF4DC08091760D86FD49C0F2
:101CE0000150142D0CC0882051F04B815C81483E7E
:101CF00083E0580724F0403157420CF402508B81A6
:101D00009C81B6010E94196D7C836B8306195394E4
:101D1000A51408F085CF222071F0A8EFBA226B2D10
:101D2000635F472D822D0E94810D6B2D625F472DD1
:101D3000822D0E94810D992029F1212F4DE26B2DDA
:101D4000802F0F900F900F900F90DF91CF911F91E8
:101D50000F91FF90EF90DF90CF90BF90AF909F904A
:101D60008F907F906F905F904F903F902F900C944A
:101D7000864948E06B2D802F0E949648B1CF202ED7
:101D8000142DB3CF0F900F900F900F90DF91CF9144
:101D90001F910F91FF90EF90DF90CF90BF90AF9089
:101DA0009F908F907F906F905F904F903F902F907B
:101DB0000895CF92DF92EF92FF920F931F93CF93EC
:101DC000DF931F92CDB7DEB7382FF62E6A01122FA0
:101DD000E02E27FD3E5ED7FE12C012FF02C087E054
:101DE00001C085E0212F4DE26F2D932F981B892F85
:101DF00039830E948649D194C194D1083981212F19
:101E00002069C6016CE370E00E942D6DAB016C018E
:101E100002E06F2D832F0E94880D2E2D212312FBAF
:101E2000112710F980911C074AE36F2D811B0E9436
:101E300086492E2D206980911C07A6016F2D8A5F8F
:101E40000E94880D0F90DF91CF911F910F91FF900D
:101E5000EF90DF90CF9008950F93803601F130F42A
:101E6000843271F0853209F044C007C0823891F0A5
:101E7000833859F08136E9F52AC088EB9AE402C02C
:101E800084EF9FE20E94B14634C00E942D478CEC43
:101E900091E3F8CF0E942D4781E197E2F3CF809143
:101EA0001507811111C081E08093150780912101F0
:101EB00090912201A0912301B091240118161906D6
:101EC0001A061B06B4F00BC01092150712C08091C1
:101ED0001507813071F480912C0D882351F00E94F8
:101EE000010D60932101709322018093230190934F
:101EF000240180912D01882361F00E94010D6093DF
:101F0000160770931707809318079093190710927C
:101F10002D0141E062E580E00E94FE4649E062E575
:101F200081E00E94FE4642E062E583E00E94FE46B8
:101F300047E067E485E00E94FE4681E30E949F4AF5
:101F400041E555E068E08CE00E94B54A8091100DB3
:101F5000882351F120E040910F0D68E082E70E9454
:101F6000864904E122E040E15DE060E18CE00E940E
:101F7000454A24E04AE360E184E20E94864922E087
:101F800042E15DE060E180E30E94454A24E04AE3EB
:101F900060E188E40E94864922E044E15DE060E17E
:101FA00084E50E94454A07C024E14EE151E060E12A
:101FB0008CE00E94984A809115078130D9F4809175
:101FC000100D8823B9F043E655E060E28CE00E94F2
:101FD000B54A4091160750911707809121019091C1
:101FE0002201481B590B04E024E068E28EE10E94C4
:101FF000D90E35C049E655E060E28CE00E94B54A52
:1020000080911E0D882319F104E122E04EE15DE08C
:1020100068E28CE00E94454A24E04FE268E284E2F4
:102020000E94864922E040E25DE068E280E30E948F
:10203000454A24E04FE268E288E40E94864922E0B3
:1020400042E25DE068E284E50E94454A08C024E17E
:102050004EE151E068E28CE00F910C94984A0F91A8
:1020600008950F9300E00E94880D0F910895CF937B
:10207000DF93D62FC22F922F9073903311F420E06C
:1020800001C020E22C2B2F7B6D2F0E943110C6FD4A
:102090000AC02C2F2D7F46E76D2F80911C07DF9102
:1020A000CF910C948649DF91CF9108951F93CF93E0
:1020B000DF93182FD62FC42F242F462F50E060E037
:1020C00080E80E943110DA3010F08FE601C085E719
:1020D0002C2F4FE260E00E948649E12FF0E0AF0133
:1020E0004F5F5F4FDA3010F08FE601C085E72C2F8D
:1020F00060E0DF91CF911F910C943110552747FD7F
:10210000509520E00C943110CF93C82F22E044E783
:1021100055E060E080E00E94984AC236B1F028F4B1
:10212000C03631F0C136C1F413C0C336A9F410C0B3
:102130008FEF8093070D1092080D10926303109299
:10214000620380E00E94804607C08CEC91E302C0ED
:1021500081E197E20E94B1466AE775E088E00E945B
:10216000AF4A4091080D469568E084E50E947E10D4
:1021700069E875E080E10E94AF4A4091070D4695FD
:1021800060E184E50E947E1068E975E088E10E94C4
:10219000AF4A4091080D50E08091070D481B51094E
:1021A00057FF02C04F5F5F4F5595479568E184E543
:1021B0000E947E1067EA75E080E20E94AF4A80913B
:1021C00062039091630324E6289FA001299F500D8C
:1021D0001124F4E056954795FA95E1F720E360E283
:1021E00084E50E94311044EB55E068E280E00E94F3
:1021F000B54A81E89DE0FC01019620812535D9F39F
:10220000AF0140585D4028E068E284E50E9431104B
:1022100041EC55E068E382E1CF910C94B54A9F927E
:10222000AF92BF92CF92DF92EF92FF920F931F93E4
:10223000CF93DF93B82E162FA42E902EC0E0D0E0BF
:10224000E62EFF24E7FCF0946701C20ED11C0BC000
:102250006C2F610F603430F4092D2FEF4A2D8B2D38
:102260000E94994821969E012E0D3F1D2C153D057B
:102270007CF3DF91CF911F910F91FF90EF90DF9052
:10228000CF90BF90AF909F9008954F925F926F92C2
:102290007F928F929F92AF92BF92CF92DF92EF92F6
:1022A000FF920F931F93CF93DF9300D0CDB7DEB78C
:1022B000182F22E04EE655E060E080E00E94984A48
:1022C00040911E0750E04F5F5F4F22E860E08FE1D2
:1022D0000E94311080911E07282F30E0883078F05E
:1022E0002850310989E0829F3001839F700C1124AE
:1022F0008BE495E0680E791E29E0922E0CC085E0F3
:10230000829F3001839F700C1124A3E2B5E06A0E16
:102310007B1E95E0992E113609F46CC040F41534FB
:1023200009F47EC0103671F01434D9F486C0153625
:1023300009F476C01F3B19F0143699F47EC0109250
:102340001A075FC08091F50C18165CF0809114029A
:10235000813061F018F0823021F43FC081E0809339
:10236000F50C2301730190EE00E097C080911A07ED
:102370008F5F85300CF401C08CEF80931A07409179
:102380001A07B2E34B0270011124062D292D269560
:1023900030E03195219531094203C001439F900DF2
:1023A000112422E3289F5001299FB00C1124F3012E
:1023B00020E030E0C92CD12C81E0C81AD108C90135
:1023C0008A0D9B1DB6010E942D6D61932E0D3F1D40
:1023D0008E2F801B891598F3C4CF8CE9D3018C9381
:1023E000F301E90DF11D319784E6808381E080934C
:1023F0001B07B7CF81E60E94304780911B078823D7
:1024000019F010921B07ADCF8091F50C18162CF423
:10241000109214021092F50CA4CF0E94C544A1CFD3
:1024200080911B0781119DCF80911402882309F4AC
:1024300098CF81508093140294CF80911B07811113
:1024400090CF00911402E02EF12C8091F50C18161B
:102450002CF4292D30E0215031091AC0E0912B02D3
:10246000F0E0EE0FFF1FE856F94F208131812D5427
:10247000394161F48091610C0E947A39FC018081BC
:102480008C70883019F422E030E002C021E030E0A6
:10249000E216F3060CF4C2C064CF692F053018F4BD
:1024A000685D88E101C080E32091F50C121624F4E8
:1024B00020911402201711F020E001C022E0D70182
:1024C0004D917D01552747FD50959A830E9431100B
:1024D0000F5F9A81985F091500F341EA52E168E3C2
:1024E00080E00E94B54A9091F50C191614F400E0B2
:1024F00005C080911B078111FACF02E081E0191617
:102500000CF480E020911402829F202D112443E4DA
:1025100056E168E38CE10E94514B8091F50C18164E
:102520007CF4892C8694712CE12CF12CC12CD12CBB
:10253000A8E3AA2EBB24BA94BEE96B2E610E1AC082
:1025400080911B078111EDCF8DE198E30F900F90E3
:10255000DF91CF911F910F91FF90EF90DF90CF907F
:10256000BF90AF909F908F907F906F905F904F90B3
:102570000C9441494E2DC601682D772D0E942D6D7A
:10258000E62FD2012C91BFEFEB1AFB0AFFE32F02DB
:1025900090011124C9018456974EB5010E942D6DFA
:1025A00020911B07222359F030E02E153F0561F5DD
:1025B000635C00E025E045E08E2F845C23C09091B1
:1025C0001402941319C0635C00E025E045E08E2FEF
:1025D000845C0E940F1181E0861520F4123411F002
:1025E000133491F424E64CE9D2016C91812F0E94BE
:1025F0005146F201808308C0625C00E023E043E0C2
:102600008E2F835C0E940F11F0E2CF0ED11C8FEF52
:10261000481A580AE91408F4ADCF96CF0F5F00931B
:1026200014029FCEEF920F9304E028E24CE660E1A3
:102630008AE00E940F11E12C0FEF28E24CE660E1E6
:102640008AE00E94E84840915E0C50915F0C68E17E
:1026500080E10F91EF900C94B54A0F93CF93C82F60
:1026600010925D0C0E941213409121075091220795
:102670004115510539F000E22091200760E280E128
:102680000E94454A45E257E068E280E10E94B54A6F
:10269000C03619F0C13659F403C081E080935D0C57
:1026A0008C2F0E94304710925F0C10925E0CCF91DD
:1026B0000F910895CF93DF93CEE5DCE09983888373
:1026C0000E94121319821882DF91CF910C9408484E
:1026D000BF92CF92DF92EF92FF920F931F93CF930F
:1026E000DF93D82EC62EEA01B22E102FE11002C0C1
:1026F00000E205C08091F50C1816D4F302E22B2DF0
:10270000AE016C2D8D2D0E94454AEE2009F472C059
:102710008091F50C18160CF06BC0E0901402FE01CD
:10272000EE0DF11DF080812F8256823020F01234A0
:1027300011F01334F1F4EF2DFF27E7FDF095F7FFCB
:1027400003C0F195E195F1096E2F772767FD70952C
:1027500000E028E230E040E050E0812F0E948C450C
:10276000F7FC02C0F82E02C0F82EF19482E00E941D
:102770005738153249F018F4143211F509C0812F79
:1027800084588230E8F40FC0EE20D1F0EA9418C0EB
:102790004E2D50E02B2D30E02150310942175307C8
:1027A0007CF4E3940DC08F2D865E853348F4F1945C
:1027B00082E00E945738153819F485E00E943047AE
:1027C00080911402C80FD11DF8828F2D0E946D3A9E
:1027D00020911402922F990F920F990F22E0482F07
:1027E0006C2D8D2D890F0E948649E092140202C043
:1027F00010921402DF91CF911F910F91FF90EF90F3
:10280000DF90CF90BF900895CF93DF936091D9026E
:10281000E091D702F091D802662371F0CF01860FC4
:10282000911D9093D8028093D7021092D902CF01C4
:10283000DF91CF910C94EC3F80812091D5023091B3
:10284000D6022115310509F45CC071E0811170E0F8
:1028500041E050E090E081E0DF01A40FB51F61E0AE
:10286000AC91A11160E067130BC08F3309F4C0C0B5
:10287000992319F08F3009F4BBC042175307E1F5D3
:102880007723B1F0883080F0482F50E0E40FF51F37
:10289000F093D802E093D702241B350B3093D60275
:1028A0002093D502806422C04217530719F5ECCF5C
:1028B000492F50E0E40FF51FF093D802E093D702C0
:1028C000BA01680F711D261B370B3093D602209377
:1028D000D5028093D902992349F09A0174E0220F1E
:1028E000331F7A95E1F720683F6F822BDF91CF91FC
:1028F0000C940140982F80E08F5F4F5F5F4F762FE1
:10290000ABCF8091D402803309F466C030F48031BB
:1029100051F0803209F06FC055C08034E9F0803545
:1029200009F069C048C08091CF028823A9F00E94B5
:102930001245C82F811157C00FC08C2F0E9412451D
:10294000C82F8C2F0E9412458111F7CF80E280930F
:10295000D4026D2F8C2F3CC09091E5019093CF0253
:102960008091CC02482F50E09A01220F331F240F90
:10297000351FF901E255FE4F44814093E5019483F0
:10298000F901ED54FE4F9091CD0290834091CE021B
:102990004F709181907F942B91834091E701F901D1
:1029A000EC54FE4F407F90819F70942B908390E574
:1029B0009093D40203C01092D40281E1DF91CF91B1
:1029C0000C94443880E38093D40260E08091CF027D
:1029D000DF91CF910C94383880E48093D402DF915A
:1029E000CF910C94534CD091B0018093B001A9CFFA
:1029F00061114ACF5DCFDF91CF9108958091CF02D1
:102A0000811116C08091CD029091CE02892B81F464
:102A10008091B0018093CF028093E501882341F03B
:102A20000E9412458093B0018091D40281603CC025
:102A30008091D402982F9F70913009F078C0815016
:102A400038C08091CF02811101C03BC09091D0026B
:102A50009F30B0F01092D0020E94124581110EC03A
:102A60006091B001611101C02CC08091D4028E5FD1
:102A70008093D4028091CF020C9438388093CF0297
:102A80008091D402982F9F70923019F09330A9F45E
:102A90000FC08091B0018093CF020E9412458093B5
:102AA000B0018091D4028F5F8093D4020C94534C78
:102AB00083508093D40260E0DDCFE091CF02E1113A
:102AC00004C081E080931F0736C06091D0024FE0C0
:102AD0005091DB02461B541708F4452F242F30E099
:102AE0008091DC029091DD02820F931F9093DD02B2
:102AF0008093DC02541B5093DB02460F4093D002BC
:102B00004091CD025091CE02420F531F5093CE02FE
:102B10004093CD0270E040E1E49F600D711D1124EF
:102B20006F5F7F4FA901821B930B0C94213880911A
:102B3000DB02811186CF80911F07813041F481ED46
:102B400095E00E94B3441092D4021092DB0280916F
:102B5000EE01811102C00C940414089501C0A895DF
:102B60008091DE021816DCF381E08093EE01809103
:102B7000DB02882321F080911F07882349F0809190
:102B8000D402882341F080911F07882339F003C0C5
:102B90000E94FE14ECCF1092EE0108950E940414DE
:102BA000EECF0F93062F20E040E050E060E00E945F
:102BB000905B0F9108957F928F929F92AF92BF92F8
:102BC000CF92DF92EF92FF920F931F93CF93DF93F9
:102BD000CDB7DEB765970FB6F894DEBF0FBECDBF99
:102BE000882E22E049EE55E060E080E00E94984A9D
:102BF0000E94AE1580915D0C882321F18091150211
:102C00008F5F482F50E09A01220F331F240F351F8A
:102C1000F901E255FE4F1481F901EE54FE4F108286
:102C20001182128291E09093EE010E9444381123A8
:102C300019F0812F0E9473451092EE0110925D0CE5
:102C40001092250780915E0C90915F0C892B11F0FA
:102C500000E001C0082D809125078111E7C2809115
:102C600078060E94254C811104C0E0C2802F81505B
:102C700001C0802FC09015026FE00E94D1158823FB
:102C800009F4F7C210911502063670F4043608F004
:102C900050C10132B1F120F4003209F0ADC15BC086
:102CA000023608F4A9C15DC10138A1F00F3B21F043
:102CB000003809F0A1C14FC0109178061093150299
:102CC00010922507109224078FEF8093230780939B
:102CD000F50C92C180912507882399F080912407F3
:102CE00081110FC04091780650E0212F332727FD36
:102CF00030954217530729F0812F0E94254C8111EE
:102D00009BC280912507882309F476C1823021F087
:102D10002091230727FF13C0212F332727FD30954C
:102D2000205F3F4F80912407280F311D87FD3A9582
:102D3000C90160E170E00E942D6D182F01C0122FB3
:102D400010931502109225078FEF8093230710929E
:102D50002407802F78C290912507C12EDD24C7FC5F
:102D6000D094992309F4B8C080912407811104C03C
:102D70008091230787FDB0C0913019F48FEF95E063
:102D800002C080E196E00E945A1381E00E9434352F
:102D90009601205F3F4F80912407280F311D87FD4A
:102DA0003A95C90160E170E00E942D6DB82E8091C6
:102DB0002507813009F045C0609123076F5F7E01D0
:102DC00080E1E80EF11CC7010E94344C41E062E052
:102DD0008B2D8F5F0E94EB340F2D0CC0CE0101961E
:102DE0000E94EC3F80911F07882321F01092EE0192
:102DF000B12E27C04FE050E0BE016F5F7F4F8E2D98
:102E0000902F0E941545682F8111E8CF8091CF0245
:102E1000882329F00E941245182F811117C2809132
:102E2000CD028093E6019091CE029F708091E701E0
:102E3000807F892B8093E70161E18091CC020E9421
:102E40000840809178068093230700E110E026C0B7
:102E50008091240718161CF4C7010F9602C0C70101
:102E60000196B8010E942D6DA82E682F6F5F8B2DE3
:102E70008F5F0E94084020912307332727FD30955C
:102E8000E216F30619F4A092230707C04A2D50E07A
:102E90004217530711F4B0922307BA2CEB2CF12CF4
:102EA000CE14DF04A9F640912307242F332727FDF2
:102EB00030958091780690E02817390729F04093E3
:102EC000780681E00E945738109225078FEF809393
:102ED000230710922407CDC10038D9F480E296E090
:102EE0000E945A1381E00E9434358091780690E068
:102EF0008C159D0541F01093780681E00E945738AB
:102F0000812F0E94FA3510922507882D0E943047A4
:102F1000B0C1812F9D8B0E94254C9D89882309F487
:102F20006BC0913011F482E001C081E080932507ED
:102F300063C0412F552747FD50952091780630E01A
:102F40004217530751F4043619F08AE097E502C09E
:102F50008AEE91E50E94B1468CC182E00E948046D3
:102F60004BC090912507992309F446C0809124070E
:102F7000033611F48F5F01C08150803111F0803F22
:102F800009F480E02091230727FF34C0913091F5A8
:102F90001C2DC092230790E1A92EB12CEC2CF12C12
:102FA000212F332727FD3095C901023611F44196B0
:102FB00001C00F96B5010E942D6D182F0E94254C5F
:102FC000882341F0412F552747FD50954E155F0549
:102FD00039F71FEF109315021F3F49F484E00E9458
:102FE0008046C09215021092250710932307109176
:102FF000150280E08093240741E356E060E086E319
:103000000E94B54A0E946345AC0120E060E086E67C
:103010000E943110C12EDD24C7FCD0948091780627
:1030200090E0C816D90611F442E001C040E06BE020
:1030300080E00E9456108091620CA601481B510945
:103040001416150644F096012150310937FF0EC0C1
:1030500020E030E00BC04630510554F0960124507A
:1030600031092A30310514F029E030E02093620C58
:1030700088E0982EA12CB12C7090620C7A0C909163
:103080002507911105C0472D50E0C416D50611F053
:1030900020E101C022E1E72CF12CA7014F5F5F4F37
:1030A00002E0692D84E19D8B0E94880D9D899230FC
:1030B00009F4DAC0913009F04CC08091230787FFF2
:1030C000CEC047C0782E4BE2692D8AE70E94224C81
:1030D00040C070902407710E3CC08091240787FF88
:1030E0001BC0EC14FD0444F4A601480F511D87FDDC
:1030F0005A95E416F50674F49FE0E91AF108CE1427
:10310000DF043CF1A601480F511D87FD5A954E156D
:103110005F05FCF473941DC08823D9F0CE14DF043E
:1031200044F4A601480F511D87FD5A954E155F05C1
:1031300074F49FE0E90EF11CEC14FD0454F0A601B8
:10314000480F511D87FD5A95E416F50614F48FE0DB
:10315000780E9FE07922872D0E94254C882339F133
:10316000872D0E94D3357C0100E0272D4EE251E0EF
:10317000692D88E10E94E33620E0A701692D88E7E8
:103180000E94311080917806781211C08091230737
:1031900087FD08C08091620CA501480F511D4C1598
:1031A0005D0529F04AE2692D81E00E94224CF090F1
:1031B0002507FF20E9F08091620CA501480F511D01
:1031C000C416D506A9F400E027E046E7692D89E09A
:1031D0000E940F1181E0F81202C00FEF01C005E557
:1031E000692D6150E12C29E048E788E00E94E84819
:1031F0009FEFA91AB90A88E0980E90E499123CCF83
:1032000040915E0C50915F0C452B99F1812F0E94EB
:10321000D3352EE231E030932207209321078AE054
:1032200080932007882D0E942D1323C0802F8F713B
:10323000813009F41BCD1DCD42EF55E050935F0C5A
:1032400040935E0C81E80E943047D6CE60E08091CA
:10325000CF020E943838812F0E947345E0CDEC14D4
:10326000FD0409F03ACF2ECFEC14FD0409F035CF60
:1032700030CF65960FB6F894DEBF0FBECDBFDF919D
:10328000CF911F910F91FF90EF90DF90CF90BF9063
:10329000AF909F908F907F9008952F923F925F9272
:1032A0006F927F928F929F92AF92BF92CF92DF9256
:1032B000EF92FF920F931F93CF93DF931F92CDB79F
:1032C000DEB7982E8091610C0E947A396C01DC0186
:1032D0004C914695469543704F5F20E060E08DE24B
:1032E0000E94FF3665E0892D0E94D115882309F4DC
:1032F000A8C122E041EE55E060E080E00E94984ADB
:10330000A0901502E12CF12C18E0BB24A7FCB0948E
:1033100023E0522E34E0632E00E02E2D43E556E1EB
:10332000612F80E0E9820E94514B8091610C8824DA
:1033300083943981AE14BF0411F0812C01C002E0E6
:1033400039830E947A391C013981323009F445C031
:1033500030F4332369F0313009F0F8C025C034303F
:1033600009F4B1C008F476C0353009F0EFC0CFC021
:10337000FC0142814695202F50E0612F8BE30E9493
:103380003110882009F4E2C0D10112966C91669543
:1033900024E640E0892D0E945146880FF101928178
:1033A0009170982B9283D2C0DC0113964C915527D3
:1033B00047FD5095202F612F8BE30E94311088200C
:1033C00009F4C4C024E64CE9F1016381892D0E940F
:1033D0005146D10113968C93B9C0FC01808182952E
:1033E0008F70E82FF0E03B9714F044E001C040E01C
:1033F000480F202F612F89E20E949736002309F49D
:10340000A5C0D1016C9162956F702FE040E0892DCD
:103410000E9451468F70282F2295207FF1019081C4
:103420009F70922B9083282F30E0273031050CF4C9
:103430008DC0F0E69F128AC02B30310514F093E066
:1034400001C097E0891B80931E0785E491E10E94EB
:10345000E7447CC0DC0112968C91129711967C9007
:103460007294769497E0792280FD7194202F472DF5
:10347000612F89E20E94BE36882009F467C025E0EA
:103480004BEF672D892D0E945146282F221F22279E
:10349000221FF101928120FB90F99283282F33277C
:1034A00027FD309537FF03C03195219531092295CD
:1034B000220F207ED10111968C9111978F71822B52
:1034C00011968C9343C0FC014181440F440F440F7B
:1034D000459545954595202F612F89E20E945F4BC8
:1034E0008820A1F1D10111966C91660F660F660FCD
:1034F0006595659565952FE041EF892D0E945146B0
:103500008F71F1019181907E982B91831FC0DC0116
:103510008C918370252D281B4DE256E1612F89E2A5
:103520000E94514B882091F0F10180818370662DBB
:10353000681B23E041E0892D0E945146962D981B7F
:103540009370D1018C918C7F892B8C93185FBFEF86
:10355000EB1AFB0A103409F0DFCE81EC9EE30E94E7
:103560004149D601EC91E695E695E370F0E0EE0F67
:10357000FF1FE354FD4FE080F180C7010E94C13E70
:103580008C0189E18E9DA0018F9D500D112457FF64
:1035900002C041505F4F452F550F550B20E060E3AF
:1035A00088E70E94311089E1809FA001819F500D22
:1035B000112457FF02C041505F4F452F550F550B47
:1035C00020E068E084E50E94311098013C5F37FFFD
:1035D00002C02F5F3F4F359527954FE3429FC001B3
:1035E000439F900D1124892F9927869586950FE387
:1035F00010E0081B190BF5E0F694E794FA95E1F753
:10360000C701825A9F4F182F602F635047E00E94D6
:10361000964847E0602F812F83500F90DF91CF9124
:103620001F910F91FF90EF90DF90CF90BF90AF90E0
:103630009F908F907F906F905F903F902F900C9411
:10364000810D0F90DF91CF911F910F91FF90EF901F
:10365000DF90CF90BF90AF909F908F907F906F90B2
:103660005F903F902F900895BF92CF92DF92EF929C
:10367000FF920F931F93CF93DF93C82E80911D0766
:10368000882319F046E356E002C042E456E022E007
:1036900060E080E00E94984A8091610C0E9472393B
:1036A000EC0148814F704F5F80911C0720E060E083
:1036B0008A5F0E942E376DE08C2D0E94D1158823E1
:1036C00009F444C2E090150218E0B12CFF24E7FC95
:1036D000F0949091620C9B0D292F30E0E216F306D6
:1036E00019F442E0D42E01C0D12C963009F413C154
:1036F00080F4923009F458C030F49923E9F0913005
:1037000009F01FC236C0943009F49CC008F0CAC04A
:103710007EC09A3009F49EC130F4983009F440C15B
:1037200008F070C119C19C3009F4D1C108F4B1C1CD
:103730009D3009F006C2E9C14CE456E0612F8CE0EF
:103740000E94B54A4E814F772D2D612F8CE30E9448
:103750002337DD2009F4F5C16E816F7729E341E05D
:103760008C2D0E9451468F779E819078982B9E8356
:10377000E8C143E556E0612F8CE00E94B54A2D2D4B
:1037800020684981552747FD5095612F8CE30E94A1
:103790003110DD2009F4D5C12DE743E869818C2D76
:1037A0000E9451468983CDC14AE556E0612F8CE0E5
:1037B0000E94B54A8E81881F8827881F4F814F73CA
:1037C000440F482B440F45952D2D2068440F550B71
:1037D000612F8CE30E943110DD2009F4B2C18E818B
:1037E000881F8827881F6F816F73660F682B660F8D
:1037F000659522E34EEC8C2D0E9451469E8180FB04
:1038000097F99E8386958F739F81907C48C041E68F
:1038100056E0612F8CE00E94B54A2D2D2068488526
:10382000552747FD5095612F8CE30E943110DD2014
:1038300009F487C12DE743E868858C2D0E94514625
:1038400088877FC148E656E0612F8CE00E94B54A28
:103850004E814F7750E04530510534F42F81229549
:1038600026952695237001C021E00D2D4EE956E1E5
:10387000612F8CE30E94514BDD2009F462C16F81FE
:10388000629566956695637022E040E08C2D0E94FB
:1038900051468295880F880F807C9F819F73982B5B
:1038A0009F834FC14DE656E0612F8CE00E94B54AE0
:1038B0004B81440F440F459545952D2D612F8CE389
:1038C0000E949736DD2009F43CC16B81660F660FBC
:1038D0006595659526E140EF8C2D0E945146880F35
:1038E000880F85958595282F2F739B81907C922B2F
:1038F0009B8390E6C91225C1873008F422C187FF57
:1039000002C0809501C0875080931E0785E491E135
:103910000E94E74416C145EE53E1612F8CE00E94FE
:10392000B54A4A81440F440F459545952D2D612F89
:103930008CE30E945F4BDD2009F403C16A81660FAE
:10394000660F6595659525E14BEE8C2D0E945146DD
:103950008F739A81907C7BC044E756E0612F8CE0A6
:103960000E94B54A488145954595459545952D2D2B
:10397000612F8CE30E94BE36DD2009F4E2C068812D
:10398000659565956595659525E04BEF8C2D0E94B5
:1039900051468295807F98819F70982B9883D1C0E3
:1039A0004CE756E0612F8CE00E94B54A4B81842F92
:1039B000807C2D2D59F020684295469546954370A0
:1039C00050E0612F8CE30E94311006C044E856E0BD
:1039D000612F8CE30E94984ADD2009F4B2C06B810C
:1039E000629566956695637023E040E08C2D0E9499
:1039F00051468295880F880F807C9B819F73982BFE
:103A00009B839FC048E856E0612F8CE00E94B54A36
:103A10002A8122952695269523700D2D4EE756E195
:103A2000612F8CE30E94514BDD2009F48AC06A812A
:103A3000629566956695637022E040E08C2D0E9449
:103A400051468295880F880F807C9A819F73982BAE
:103A50009A8377C04FE856E0612F8CE00E94B54A08
:103A60004C8142954F702D2D50E0612F80E60E94D1
:103A70003110DD2009F465C06C8162956F702FE014
:103A800040E08C2D0E9451468295807F9C819F70E2
:103A90001BC04AE956E0612F8CE00E94B54A4C8178
:103AA0004F702D2D50E0612F80E60E943110DD20F7
:103AB00009F447C06C816F702FE040E08C2D0E94AC
:103AC00051468F709C81907F982B9C833AC043EA2B
:103AD00056E0612F8CE00E94B54A4D8142954F70AF
:103AE0002D2D50E0612F80E60E943110DD2049F13C
:103AF0006D8162956F702FE040E08C2D0E945146E1
:103B00008295807F9D819F701AC04EEA56E0612F9A
:103B10008CE00E94B54A4D814F702D2D50E0612FF1
:103B200080E60E943110DD2061F06D816F702FE022
:103B300040E08C2D0E9451468F709D81907F982B84
:103B40009D83B394185F87E0B812C3CDDF91CF9106
:103B50001F910F91FF90EF90DF90CF90BF9008954D
:103B60006F927F929F92AF92BF92CF92DF92EF922D
:103B7000FF920F931F93CF93DF931F92CDB7DEB7C2
:103B8000182F06E02BE04CEE53E163E00E94905BBF
:103B9000882309F4A5C022E047EB56E060E080E00E
:103BA0000E94984AB0901502BA94103619F0143653
:103BB00099F409C085E0B81206C01092F50C88ECA3
:103BC0008093320209C0E4E0EB1530F0B092610C52
:103BD00083ED95E50E94E74418E0612C712CCB2C15
:103BE000DD24C7FCD094A62C6C147D0411F422E0D3
:103BF00001C020E08A2D29830E94C2397C014A2D10
:103C00004F5F2981612F80E00E94BE36A7014A5F85
:103C10005F4F00E226E0612F88E10E94454AA11033
:103C200007C045EC56E0612F85E40E94B54A17C0F5
:103C300020E0F7014581612F85E40E945F4B9DE5FF
:103C4000912C00E0292D4A2D612F892F99830E9404
:103C5000DC4B939499819A5FF4E09F12F2CFF701C5
:103C60008485882371F0982F9F7021F0807F21F048
:103C70004AE203C04FE401C049E4612F8AE70E9491
:103C8000224CFFEF6F1A7F0A185F103309F0ABCF99
:103C900085E0B81206C080913202811102C012E0A4
:103CA00001C010E0212F4FEC56E068E380E00E9455
:103CB000984A0E94D03D482F4F5F212F68E384E24D
:103CC0000F90DF91CF911F910F91FF90EF90DF90B8
:103CD000CF90BF90AF909F907F906F900C94BE3626
:103CE0000F90DF91CF911F910F91FF90EF90DF9098
:103CF000CF90BF90AF909F907F906F9008950F935B
:103D00001F93CF93DF93182F06E02BE04CEE53E187
:103D100062E00E94905B882309F4F0C022E043E354
:103D200057E060E080E00E94984AD09115028091AF
:103D3000620C81112BC06EE377E088E00E94AF4AED
:103D4000D13011F402E001C000E02091E705269592
:103D50002695269546EB58E168E084E50E94514B94
:103D6000D130B1F46091E70566956695669524E0DB
:103D700040E0812F0E945146880F880F880F909154
:103D8000E7059770982B9093E70502C0C8E001C043
:103D9000C0E18091620C8230E0F469E477E08C2F1E
:103DA0000E94AF4AD23011F422E001C020E04091DD
:103DB000E8056C2F84E50E94FF36D23049F424E2F6
:103DC00040E06091E805812F0E9451468093E8050C
:103DD000C85F8091620C8330E8F464E577E08C2F53
:103DE0000E94AF4AD33011F422E801C020E840918C
:103DF000E90550E06C2F84E50E943110D33049F47E
:103E000024E640E06091E905812F0E9451468093AD
:103E1000E905C85F8091620C843008F56FE577E0B2
:103E20008C2F0E94AF4A01E0D43009F000E060918D
:103E3000E7056170402F8C2F0E946236002371F0DD
:103E40006091E705617021E040E0812F0E945146BA
:103E50009091E70580FB90F99093E705C85F80910A
:103E6000620C853018F56DE677E08C2F0E94AF4A22
:103E700001E0D53009F000E06091E70566956170DA
:103E8000402F8C2F0E946236002379F06091E70565
:103E90006695617021E040E0812F0E94514690912B
:103EA000E70580FB91F99093E705C85F8091620C6C
:103EB000863020F56BE777E08C2F0E94AF4A01E057
:103EC000D63009F000E06091E70562FB662760F9F3
:103ED000402F8C2F0E946236002381F06091E7050D
:103EE00062FB662760F921E040E0812F0E94514685
:103EF0009091E70580FB92F99093E705DF91CF91D0
:103F00001F910F9108950F9300E026E042E859E1D8
:103F100062E00E94905B882349F122E041EA57E089
:103F200060E080E00E94984A69EA77E080E10E94C0
:103F3000AF4A67EB77E088E10E94AF4A69EC77E02F
:103F400080E20E94AF4A6AED77E088E20E94AF4AC1
:103F500069EE77E088E30E94AF4A40914B0620E883
:103F600050E068E380E30F910C9431100F910895B5
:103F70002F923F924F925F926F927F928F929F9279
:103F8000AF92BF92CF92DF92EF92FF920F931F9367
:103F9000CF93DF9300D01F92CDB7DEB7382E698361
:103FA00080915E0C90915F0C892B11F010E001C0A4
:103FB0001981BFE1FB2EF12280912507882331F082
:103FC00021E0D12EF21203C0DA9401C0D12E3320A9
:103FD00019F041EE55E002C049E857E022E060E008
:103FE00080E00E94984A832D0E94823990911C079C
:103FF00020E0482F50E060E0892F815F0E9431105F
:10400000332019F04FE857E002C043E957E060E081
:1040100080911C070E94B54A009101010150332094
:1040200011F064E001C065E02BE04CEE53E18D2D12
:104030000E94905B882309F471C4409015021436E5
:1040400080F4123608F003C1113269F120F4103205
:1040500009F06DC152C0812F8254823008F067C1CF
:10406000F6C0163850F4143808F0A0C0103809F41F
:1040700072C0113809F05BC106C0812F8E5B82309F
:1040800008F055C16FC080912507882349F08091C1
:104090002407811105C06091610C832D0E945F404F
:1040A00081E80E94304780912407882309F45AC090
:1040B00080912507813031F46091610C832D0E943D
:1040C0005F4016C061E08091240718160CF060E094
:1040D000832D0E944A348091240787FF02C08F5F9E
:1040E00001C0815080932407809124078111EACF79
:1040F000409023074092150235C080911D07882308
:1041000041F080912507882331F1809124078111A6
:1041100022C080912507813011F482E001C081E046
:10412000809325078091610C80932607332041F00E
:104130000E947A39DC018C9186958695837005C042
:104140000E947239FC0180818F708F5F80932707F6
:1041500040922307ECC0812F0E94304780912407B2
:10416000882329F01092250710922407E0C080913F
:104170002507811110921D0780911D07882351F09A
:10418000832D0E94A4398111D2C06091610C832DCE
:104190000E940F44332019F08DE499E102C084E3BA
:1041A0009BE10E94E74410922507B8C38091250740
:1041B000882309F4BCC0809124078111B8C0832DE5
:1041C0000E94A4398111B3C08091610C332041F069
:1041D0000E947A39DC018C9186958695837005C0A2
:1041E0000E947239FC0180818F708F5F80931D0760
:1041F000143829F48091610C8F5F8093610C609179
:10420000610C832D0E940F44332019F08DE499E155
:1042100002C084E39BE10E94E74410922507812FAE
:104220000F900F900F90DF91CF911F910F91FF9002
:10423000EF90DF90CF90BF90AF909F908F907F9046
:104240006F905F904F903F902F900C9430478091EB
:104250002507882309F46BC090912407F3E0092F08
:10426000FF1202C0015001C00F5F911144C08130A4
:1042700009F053C0832D0E94A439811158C0809148
:10428000610CC82ED12C332071F00E947A39A6011E
:1042900040955095425F5F4F440F551F440F551F87
:1042A000BC0104960FC00E947239C094D09420E2E1
:1042B000C20ED11C29E02C9DA0012D9D500D112472
:1042C000BC0109960E947F6D82E00E94573882E00F
:1042D000F81204C08091610C8F5F1CC08091620C49
:1042E000242D30E0281B310926303105F4F08F5F92
:1042F0008093620C1AC0011110C0813071F460917A
:10430000610C832D0E945F40A3E0FA120EC08091E1
:10431000610C81508093610C08C061E0B3E0FB1236
:1043200060E0832D0E944A3481110093240710928B
:104330001D0755245394212CFF24F394A8C2EDE0CB
:10434000E21508F4DAC2822D0E947A394C01DC01B0
:104350002C91822F86958695837090E001968A1520
:104360009B0509F0CAC2237009F0BCC2C6C2BFE1F6
:10437000B21508F4C2C2822D0E9472396C01FC0190
:1043800086818F7709F4B9C280818F7090E00196A1
:104390008A159B0509F0B1C2A8C22F2D30E0281B59
:1043A00031092830310574F4622F660F660F660FED
:1043B00020E0452D80E0332019F00E94FF3602C036
:1043C0000E942E37622C03C04C016B01F42E8091A9
:1043D00025078823E1F1823081F58091620C8F15E9
:1043E00060F5EF2DF0E0E81BF109E830F1052CF560
:1043F00080912707851121C0209124072223E9F00D
:10440000862D90E040912607332727FD30952227FF
:10441000330F221F3327240F311D8217930769F4AE
:104420006E2F660F660F660F6150E12C05E529E0DF
:104430004AE686E10E94E848F3948091610C861177
:104440000BC0F092150250921D074F2C05C04F1063
:1044500003C06092610CF42C8091620C8F1508F0FF
:104460006FC12F2D30E0281B3109283031050CF0A9
:1044700067C1722E770C770C770C862D332009F4E8
:10448000B1C00E947A399B838A838091250781116C
:1044900002C04F1411F000E001C002E0AA81BB810C
:1044A00012964C914695202F50E0672D82E20E9493
:1044B0003110002399F0EA81FB816281669524E640
:1044C00040E0812F0E945146880FAA81BB8112963D
:1044D0009C9112979170982B12969C93AA81BB8104
:1044E0001396EC914E2F552747FD509520E0672DF0
:1044F00087E30E943110EA81FB81828141814295EC
:104500004695477080FD419520E0672D8CE30E9421
:10451000BE36AA81BB8111964C91440F440F440FC3
:1045200045954595459520E0672D82E50E945F4BB6
:10453000EA81FB8180818370833049F0823011F4FD
:104540004EE701C04FE7672D86E60E94224CAA8104
:10455000BB812C91822F807F79F022952F70822F42
:1045600090E00B9714F044E001C040E0420F20E0DF
:10457000672D8EE60E94973640912507442309F463
:10458000DFC0413021F080912407811123C0809148
:10459000270785111FC0862D90E050912607209196
:1045A0002407332727FD30952227330F221F332777
:1045B000250F311D8217930769F4413011F40FEF75
:1045C00001C005E5672D6150E12C29E04EE682E14E
:1045D0000E94E848F410B4C000E027E04CE6672DE4
:1045E00083E1ACC00E9472399B838A83621469F0B4
:1045F000FC012281229526952695237000E047E94B
:1046000056E1672D86E00E94514BAA81BB81169628
:104610004C914F7720E0672D8AE10E9423378091EB
:104620002507811102C04F1411F000E001C002E023
:10463000AA81BB811196EC914E2F552747FD5095CD
:10464000202F672D89E40E943110002361F02DE7AF
:1046500043E8EA81FB816181812F0E945146AA8152
:10466000BB8111968C93EA81FB814381842F8F73E8
:1046700049F0440F440F4595459520E0672D8FE4A0
:104680000E949736AA81BB8112964C91842F8F731A
:1046900049F0440F440F4595459520E0672D86E687
:1046A0000E945F4BEA81FB818581811102C040E25B
:1046B00001C043E5AA81BB8114968C91882329F01F
:1046C000433511F44AE201C044E420E0672D8BE752
:1046D0000E94864940912507442391F1413021F001
:1046E00080912407811123C08091270785111FC065
:1046F000862D90E05091260720912407332727FD2F
:1047000030952227330F221F3327250F311D8217A3
:10471000930769F4413011F40FEF01C005E5672DEF
:104720006150E12C29E04AE686E10E94E848F41055
:1047300007C000E027E048E6672D87E10E940F11DF
:104740004F2D4F5F6394B601675F7F4FC40104969E
:10475000332099F0BDE0B61510F1F4015481252FF6
:1047600026952695237030E02F5F3F4F2A153B0595
:10477000B1F4537009F028CE12C0FFE1F61578F0BD
:10478000D6011F962C911F972F7749F01996EC911F
:10479000EF70F0E03196EA15FB0509F415CE809133
:1047A0002507823009F070C08091620C841708F0F0
:1047B0006BC0E42FF0E0E81BF109E830F1050CF0E4
:1047C00063C08091270785115FC0A62DB0E080915E
:1047D000260720912407332727FD30952227330F02
:1047E000221F3327280F311DA217B30709F04CC031
:1047F0006E2F660F660F660F6150E12C05E529E00C
:104800004AE686E10E94E8484F2D4E5F3DC0209267
:10481000610C50921D0780912507811171C022E023
:104820008091620C8F1568F5CF2CD12CF601E81B16
:10483000F109E830F1052CF56E2F660F660F660F53
:10484000452D80E0332019F00E94FF3602C00E94FF
:104850002E37809125078230A1F48091270785119A
:1048600010C08091620CB601681B7109660F660F5B
:10487000660F6150E12C05E529E04AE686E10E94D9
:10488000E8484F2D4F5F622C5394262CF42EA52C14
:10489000B12C31103DC036C0F0920101242D30E022
:1048A0008F2D90E00197281739071CF0FA94F092A9
:1048B000150280915E0C90915F0C892B79F10E941A
:1048C00012134CE257E068E280E10E94B54AB981D8
:1048D000B13621F581E60E94304710925F0C1092AC
:1048E0005E0C1CC0C12CD12C02C0812C912C80915B
:1048F000620C8F1508F451CD65CD4F1409F487CFA4
:1049000020E08ECFE1E1AE16B1040CF430CDC4CF7F
:10491000F5E0AF16B1040CF412CDBECF0F900F909E
:104920000F90DF91CF911F910F91FF90EF90DF904B
:10493000CF90BF90AF909F908F907F906F905F903F
:104940004F903F902F900895682F81E00C94B81FEE
:10495000682F80E00C94B81F6F927F928F929F9285
:10496000AF92BF92CF92DF92EF92FF920F931F937D
:10497000CF93DF93C82F00E12BE04CEE53E167E0CB
:104980000E94905B882309F48CC022E047E957E03D
:1049900060E080E00E94984AC0901502CA94C03638
:1049A00011F0C43641F4C7FC06C0C0921E0785E46E
:1049B00091E10E94E744A12C912CBB24B39418E010
:1049C000DD24C7FCD09485E0882E99E0792E2091D3
:1049D000620C2A0DE22EF12CCE14DF0411F402E059
:1049E00001C000E066246394283028F4612C87E03D
:1049F0008B1528F44FC0E6E0EB1508F44BC091107E
:104A000001C0902E2F5F4EE957E0612F80E00E9499
:104A10007136662059F0F8E0EF1AF1087E9CE0014B
:104A20007F9CD00D1124C55BDA4F07C08E9CE0013E
:104A30008F9CD00D1124CD5DDA4F7E010CE2F70181
:104A400041917F01552747FD509520E0612F802F30
:104A50000E9431100B5E053991F708E0F02EF10E3F
:104A6000611003C0B3941F2D11C025960CE249912B
:104A7000552747FD509520E06F2D802F0E94311063
:104A80000B5E0038A1F7105FB394B394A394F7E0E2
:104A9000AF129DCF911005C08091620C8F5F809303
:104AA000620CDF91CF911F910F91FF90EF90DF90FB
:104AB000CF90BF90AF909F908F907F906F90089510
:104AC000CF92DF92EF92FF920F931F93CF93DF93DA
:104AD0001F92CDB7DEB700E026E042E859E163E07F
:104AE0000E94905B882309F482C022E042EF57E0E5
:104AF00060E080E00E94984A3EE0C32ED12C10E096
:104B00004C2D8C2D8E50012F843008F00850C6019A
:104B100049830E94A53AF82E49814D5020E0602F2C
:104B200080E30E945F4BFF2011F022E001C020E0F3
:104B30004F2D405D602F84E40E948649185F8FEFFF
:104B4000C81AD80A1834E1F618E3C12CD12CC601D2
:104B50000E94A53AF82E00E02C2D4BEC58E1612F75
:104B600080E00E94514B4F2D405D2F2D612F80E240
:104B70000E948649EFEFCE1ADE0A1850183039F736
:104B800047EF57E068E184E50E94B54A26E0C22E6F
:104B9000D12C10E2202F4BED56E0612F84E50E94CE
:104BA0001636C6010E94A53AE82EC60101960E945B
:104BB000A53AF82EEE2011F022E001C020E04E2DA3
:104BC000405D612F8CE60E948649FF2011F022E0B3
:104BD00001C020E04F2D405D612F88E70E9486498B
:104BE0000F5F185FF2E0CF0ED11C043099F60F90E2
:104BF000DF91CF911F910F91FF90EF90DF90CF90B9
:104C00000895AF92BF92CF92DF92EF92FF920F93EF
:104C10001F93CF93DF93E12C0FEF27E147E161E290
:104C20008FE10E94E84827E147E161E28BE40E94BE
:104C3000E84843E06BE28AE20E94964843E06CE277
:104C400089E20E94810D43E06BE286E50E9496486E
:104C500043E06CE285E50E94810D2091280284E00A
:104C6000289F90011124F901EC56FF4FE491AE2FDB
:104C7000B0E0AA0FBB1FA554BD4F8D919C914091F0
:104C8000910640FF03C0E33009F4B8C0F901ED56C6
:104C9000FF4FE49122E1289FB001299F700D11245C
:104CA00077FF02C06150784F60E27602612D770B8A
:104CB0001124719561957109665DF0E0EE0FFF1F9B
:104CC000E554FD4F2081318142E1429FC001439F65
:104CD000900D112497FF02C08150984F80E29802F6
:104CE000812D990B1124D8E0ED2E0FEF25E045E042
:104CF000885D0E94E8482091280230E0F901EE0F1B
:104D0000FF1FEE0FFF1FEB56FF4FE491AE2FB0E0F9
:104D1000AA0FBB1FA554BD4F8D919C914091910648
:104D200040FF03C0E33009F46DC0F901EE0FFF1F2F
:104D3000EE0FFF1FEA56FF4FE49122E1289FB001DA
:104D4000299F700D112477FF02C06150784F60E2F7
:104D50007602612D770B1124719561957109665D5D
:104D6000F0E0EE0FFF1FE554FD4F2081318142E15D
:104D7000429FC001439F900D112497FF02C08150B4
:104D8000984F80E29802812D990B112438E0E32E90
:104D90000FEF25E045E08C5A0E94E848C5ECD2E0D0
:104DA0001AE3C12C48E0D42EE12CF12C57E3A52EB8
:104DB000A991B99126E130E00E94E36C785A8F4FB7
:104DC0009F4FA70196010E94636DB22EB3940A2DE6
:104DD000021B4B2D602F812F0E9496484B2D602F78
:104DE000812F8F5F0E9496484B2D602F812F8E5F01
:104DF0000E9496481B5F1934D9F608C09195819599
:104E0000910944CF9195819591098FCFDF91CF91F1
:104E10001F910F91FF90EF90DF90CF90BF90AF90D8
:104E200008954F925F927F928F929F92AF92BF921E
:104E3000CF92DF92EF92FF920F931F93CF93DF9366
:104E40001F92CDB7DEB7F0908D061F2D1F708038F2
:104E5000F9F060F4863230F4843238F5823208F4A6
:104E60009EC035C0813609F09AC079C0833809F4F4
:104E700043C038F4813809F483C0823809F08FC008
:104E800041C08538F1F0B8F08F3B09F088C07EC092
:104E9000E0912B02F0E0EE0FFF1FE456F94F808106
:104EA00091810E94E74480E878C0123009F077C011
:104EB00080E18F251BC08BED95E10E94E74484E8DB
:104EC0006CC088EC9DE40E94E74485E866C08332AC
:104ED00029F4133041F0812F8F5F08C0112329F08E
:104EE000812F815003C080E001C083E080938D0654
:104EF00081E00E94573846C08CEC91E30E94B14695
:104F000083E84BC020E03EE0822F90E0FC01E65CAD
:104F1000F24F1082389FF001399FF00D1124E05FAD
:104F2000F24F1082FC01E15CF24F1082FC01EB5B5E
:104F3000F24F10822F5F233038F320933D0D41E074
:104F400067E482E00E94FE4681E080933E0D549A21
:104F5000579A82EF9FE20E94B14682E81EC080917C
:104F60003B02823021F483E080933B020BC023E0BC
:104F7000F21202C081E001C080E00E949D3802C0B0
:104F80000E94B53880E00E94804609C081E00E94FE
:104F9000304783E00E94304782E00E9430470E9401
:104FA000D03D982E3DE0839FA001112440515A4FDF
:104FB00000E226E060E184E20E94454A20917A0600
:104FC00030E080913002909131028217930710F403
:104FD00097E001C094E004E02091780647E653E0B2
:104FE00060E08AE099830E94E3369981292F20644A
:104FF000409130025091310260E183E20E9437100B
:1050000046E568E184E20E94224C80917103882386
:10501000F9F080913B02823011F427E001C024E0D6
:105020004091350250913602022F60E18BE40E94DC
:10503000D90E40917103209135023091360237FD2F
:1050400002C088E301C081E320E868E10E94A64B2A
:10505000AAE1AA2EA1E0BA2EC12CD12CBFE17B2E51
:10506000EC2C80912802F60194E0899FE00DF11D5F
:105070001124ED56FF4FE491F0E0EB5EFE4F80808F
:105080006C2D892D0E94653A9C0123583F4F2B3F80
:10509000310510F408E001C00BE08039EFEF9E0706
:1050A0005CF0813791056CF497FD03962C015594C3
:1050B00047945594479408C0E4EE4E2E55245A94D4
:1050C00003C07CE1472E512CF50181915F0146E33D
:1050D0008823D1F064E0882D0E949648F2E0EF1218
:1050E00004C08091770383FD0CC043E06EE1882DFE
:1050F00081500E94964843E06EE1882D8F5F0E94A8
:105100009648672D641913C06CE3882D8B510E945B
:10511000810DE82CEA9443E06BE38E2D0E94810D13
:1051200043E06DE38E2D0E94810D840C6CE363508F
:10513000E02E0FEF27E047E0882D83500E94E848DB
:105140002FEFC21AD20A34E0C316D10409F088CF77
:10515000123008F084C04FED442E42E0542ED12C82
:1051600059E1952E6BE1862EF201E190F1902F012D
:10517000113049F1C701F7FC4F9635E095958795B9
:105180003A95E1F79701281B390BC901F7FE03C0D7
:105190003FE7E30EF11CA701440F452F441F550BB9
:1051A000480F591F6D2D66956695660F660F660F41
:1051B000685D8D2D8370889D802D112420E28F5D88
:1051C0000E94311047C083E08D1518F082E2A82EAE
:1051D00002C00EE5A02E8D2D8370C82ECC0CCC0CF9
:1051E000C80E9701F7FE04C0222733272E193F0966
:1051F000929EA001939E500D11245E5F452F550F86
:10520000550B45954595B42E99E1941714F4A9E1F1
:10521000BA2E6C2D6A5D00E025E543E38A2D8951A5
:105220000E9499486C2D6C5D45E08A2D0E9496483D
:105230001E141F0414F4A39401C0AB186C2D695DF7
:105240004B2D8A2D0E94810D6C2D6B5D4B2D8A2D6F
:105250000E94810DD394E8E0DE1286CFF9C01230AF
:1052600009F0CDC0F2E0FF1240C00E94012610E01C
:1052700003E0412F133010F44F5F12C04C5F4930F0
:1052800079F460E084E00E94B63D81110BC060E0DB
:1052900085E00E94B63D882341F089E045E007C0E3
:1052A000842F05C089E044E002C089E046E060E068
:1052B00049830E94B63D4981882311F022E001C054
:1052C00020E0812F602F0E940D6D990F990F990F8B
:1052D000905E133010F48AE001C085E6692F0E94C9
:1052E0005F4B1F5F163029F6B3C00FEE12E07DE270
:1052F000A72EC12CE8E0DE2EE12CF12CF8E37F2E66
:10530000F801A191B1918F0126E130E00E94E36C98
:10531000785A8F4F9F4FA70196010E94636D4901F4
:1053200037FD04C02631310524F406C0812C912CB0
:1053300003C066E1862E912CB72CB818482D6B2D32
:105340008A2D0E949648482D6B2D8A2D8F5F0E94D2
:105350009648482D6B2D8A2D8E5F0E94964825E039
:10536000A20E35E5A312CCCFF12C06E053E0E52EDA
:105370008F2D602F0E940D6D192F933098F48F2D73
:105380006E2D0E940D6D990F990F990F905E85E01B
:105390008F1510F08AE001C08EE54EE954E1692FC7
:1053A0000E94B54A60E08F2D865F0E94B63D88233B
:1053B00011F022E001C020E098E04F2D9F1510F081
:1053C0004F5C01C0485C8F2D6E2D0E940D6D990FB2
:1053D000990F990F905EE5E0EF1510F086E101C09E
:1053E0008AE6133010F430E001C036E0692F830FF5
:1053F0000E948649F394FCE0FF12BACF29C0409185
:1054000037025091380204E024E068E289E20E9409
:10541000D90E40917403809137029091380297FD24
:1054200002C086E101C08FE020E860E30F90DF91C9
:10543000CF911F910F91FF90EF90DF90CF90BF9091
:10544000AF909F908F907F905F904F900C94A64B61
:105450000F90DF91CF911F910F91FF90EF90DF9010
:10546000CF90BF90AF909F908F907F905F904F9024
:1054700008952F923F924F925F926F927F928F92F8
:105480009F92AF92BF92CF92DF92EF92FF920F93D3
:105490001F93CF93DF9300D000D0CDB7DEB79A0132
:1054A000AB01482E512C65E0869FC001112489591B
:1054B0009C4FFC01E95CFE4F60817181FC01EB5C5B
:1054C000FE4F0081EAE00E028001112408511C4FBA
:1054D000FC01EC5CFE4F8081FAE08F023001112468
:1054E00088EE681A83E0780A902F812F6017710781
:1054F00014F4962F872F292E382E261437040CF4F7
:105500001301211531054105510539F16101EE24E1
:10551000D7FCE094FE2C121613061406150654F45C
:10552000B801882777FD8095982F6C197D098E0921
:105530009F090BC04301AA2497FCA094BA2CC70171
:10554000B601681979098A099B090E94FD6C20EA55
:1055500036E841E050E00E94636DC10129833A833F
:105560004B835C830E940C3F6C01EE24D7FCE094DB
:10557000FE2C29813A814B815C81C20ED31EE41E30
:10558000F51EC8010E940C3F8C01C3010E940C3F14
:10559000A801662757FD6095762F4C155D056E05B1
:1055A0007F0514F46A017B01AA2797FDA095BA2F05
:1055B000C816D906EA06FB0614F46C017D0185E0E5
:1055C000849DF001859DF00D1124E356FB4F8081F1
:1055D000882319F0D194C194D108F201EA5EFD4FFD
:1055E0008081803891F099E2890260011124D5947C
:1055F000C794D594C79487FD815C86FB880F880B80
:1056000080F9C81AD10887FDD394C6010F900F9076
:105610000F900F90DF91CF911F910F91FF90EF901E
:10562000DF90CF90BF90AF909F908F907F906F90C2
:105630005F904F903F902F9008952F923F924F92FE
:105640005F926F927F928F929F92AF92BF92CF9212
:10565000DF92EF92FF920F931F93CF93DF93CDB71B
:10566000DEB760970FB6F894DEBF0FBECDBF582EE1
:105670000E9460329091110291117EC110917A03C3
:105680001823809136078095812319F082E00E94CB
:105690008046109336074090E905442009F464C021
:1056A00060900B0270900C0200910F02109110029A
:1056B0009301D3010E94CF6C6B017C019801D8014A
:1056C0000E94CF6CC60ED71EE81EF91E642D70E036
:1056D00080E090E0AAE0660F771F881F991FAA95C7
:1056E000D1F724E630E040E050E00E94636DCA014B
:1056F000B9010E94FD6C6C157D058E059F05A0F516
:10570000C701B6010E9475389C01A4E6B0E00E9472
:10571000D76C6B017C01A12C242D3A2DD3010E9462
:10572000E36CEAE0660F771F881F991FEA95D1F7AF
:10573000A70196010E94636D30930C0220930B0227
:10574000242D3A2DD8010E94E36CFAE0660F771FF2
:10575000881F991FFA95D1F7A70196010E94636DE2
:105760003093100220930F028091E705887F09F49F
:10577000F3C000910B0210910C02809103029091F2
:105780000402080F191FE0900F02F09010028091A0
:10579000070290910802E80EF91E8091E80588231F
:1057A00021F081500E944B3C02C080E090E02091AB
:1057B000E70520FF03C011950195110921FF03C0E2
:1057C000F194E194F10822FF03C09195819591092C
:1057D0002091E70526952695269530E02230310563
:1057E00009F44DC02CF42130310509F0B5C009C0D1
:1057F0002330310509F485C02430310509F0ACC0EF
:1058000097C09701F7FE02C0295F3F4F73E03595BF
:1058100027957A95E1F7A701421B530B9A01A7013F
:10582000F7FE02C041585F4F440F452F441F550BF0
:10583000241B350BF7FE04C051E0E51A5EEFF50AB4
:10584000EF2CFF0CFF08E5942E193F09AC01401B1B
:10585000510B509331074093300717FF02C00F5F81
:105860001F4F15950795080F191FC801820F931F29
:105870009093330780933207021B130B54C0980197
:1058800017FF02C0295F3F4FF3E035952795FA9542
:10589000E1F7D801A21BB30B9D01A80117FF02C0BD
:1058A00041585F4F440F452F441F550B241B350BA8
:1058B00017FF02C001501E4F012F110F110B05954C
:1058C000201B310BAC014E195F09509331074093F7
:1058D0003007F7FE03C0BFEFEB1AFB0AA70155958F
:1058E0004795480F591FCA01820F931F90933307A2
:1058F00080933207421B530B509335074093340774
:105900002BC09C01201B310B3093310720933007B3
:10591000080F191FC8018E0D9F1D909333078093A8
:1059200032070E191F09109335070093340714C06E
:105930009C01201B310B30933107209330079C01D1
:105940002E0D3F1D30933307209332078E199F0988
:1059500090933507809334071092290710922807F7
:1059600010922B0710922A0710922D0710922C07E5
:1059700010922F0710922E0780E4EFE1F3E0DF0191
:105980001D928A95E9F710924B0DE7E9F7E0FA834B
:10599000E98327E337E03E832D8347E557E05C83C7
:1059A0004B8300E0812C912C5401939434E6332EE8
:1059B000852D90E0DC011196BE87AD87802F0E9477
:1059C0007239988B8F87FC0186818F7709F4F1C239
:1059D0002081822F807FD1F02595259525952595CD
:1059E000822F992787FD909512163CF4ED85FE8550
:1059F000E817F90709F0A7C209C0919581959109A7
:105A00002D853E852817390709F49DC2AF85B889D1
:105A100012968C91880F880F61E0859585950E947C
:105A2000B63D182FEF85F88986818F77282E2A9426
:105A300090911102992379F0112309F484C2F3E0C3
:105A4000F21508F480C222E0221250C08091770340
:105A500083FD79C24BC033E0321548F0E22DF0E00F
:105A6000EE0FFF1FE75FFD4FC080D1803BC0982F36
:105A70009A529031F8F4E22DF0E0AF01485251090A
:105A8000AF85B8892C912F7030E02417350794F03A
:105A9000EE0FFF1FEE0FFF1FE558FD4F6081718174
:105AA0008281938124E630E040E050E00E94636D03
:105AB000690118C0982F9A50953138F460E08950E8
:105AC0000E94B63D81110BC054C2B9E0B21510F46A
:105AD000865101C0822D0E944B3C6C0103C0C12C39
