:100000000C94EC0C0C94140D0C94140D0C94140D15
:100010000C94140D0C94140D0C94140D0C94140DDC
:100020000C94140D0C94140D0C94140D0C94942534
:100030000C94ED240C94140D0C94140D0C94622269
:100040000C943C260C94140D0C9471230C94140DF8
:100050000C94140D0C94140D0C94B9240C94140DE0
:100060000C9458250C94C1250C94140D0C94140D6B
:100070000C94140D0C94140D0C94140D0C94140D7C
:100080000C94140D0C94140D0C94140DA223A6249E
:10009000BF23C423A624D923DE23A624F323F823D5
:1000A000A6240D241224A62427242C24A62440248C
:1000B00044245A245C245E2460246424A238A53895
:1000C000B738BF38C538CB38CF38CB38D438D93823
:1000D000DD38E238F338F838FD38033909390C399E
:1000E0000F3915391A39203925392B393D3950390D
:1000F00061396D397F3991399739AF39B339630037
:100100005056004D4F44454C450050504D0043481B
:10011000005B4D454E555D045B515549545D0043B0
:100120004F55524245004D454E5553204F5645526E
:10013000464C4F5700446570617373656D656E740E
:1001400020454550524F4D00546F756368652070CF
:100150006F757220636F6E74696E756572005354AB
:1001600041545300544D310D544D32005448520DFA
:1001700054482500544F5400444542554700746D7F
:1001800072314C6174206D617804757300746D7206
:10019000314C6174206D696E04757300746D723139
:1001A000204A697474657204757300746D61696EB8
:1001B000206D6178066D7300467265652053746129
:1001C000636B206D696E0462005B4D454E555D703A
:1001D0006F757220726573657400204C6174697468
:1001E00075646500204C6F6E6769747564650020E6
:1001F00047726F756E642073706565640020436C90
:10020000696D622072617465000B1FD545A15AC6E5
:1002100059A55BA95B1E4B5126E753F754034F4684
:10022000464F4E20032D2D2D494E56043443482071
:100230003643482038434820313043483132434820
:10024000313443483136434806517569657420415D
:100250006C61726D734E6F4B657920546F757420AD
:1002600020067853686F727453686F7274204E6FF3
:10027000726D616C4C6F6E672020784C6F6E6720DA
:100280000453494E474F534D5046494C5404426124
:1002900073204F46462048617574036F6666202BB5
:1002A0003D203A3D036368316368326368336368B5
:1002B0003406457870202020457846696E204669CE
:1002C0006E2020204D6F79656E2047726F7320205D
:1002D00001524554413132330550504D00205058A1
:1002E00058002044534D320050504D31364655543D
:1002F000002003504F534E4547032D2D2D783E309F
:10030000783C307C787C663E30663C307C667C0590
:1003100045444954205052534554412E47415A06B2
:10032000526174696F204578706F2020436F757239
:100330006265506861736520496E746572204D6F07
:100340006465202020202020202008416A6F7574D9
:100350006572204D756C7469706C7952656D706C46
:10036000616365022B3D2A3D3A3D064F4E20202019
:10037000204F46462020204F6666736574072D2D5A
:100380002D2D002020763E6F66732020763C6F6610
:100390007320207C767C3E6F66737C767C3C6F6637
:1003A00073414E44202020204F52202020202058EE
:1003B0004F522020202076313D3D7632207631216B
:1003C0003D76322076313E7632202076313C7632D0
:1003D000202076313E3D76322076313C3D7632200B
:1003E0000D53656375726974652000202020456394
:1003F0006F6C6167652000202020205472696D2099
:10040000696E7374616E74204A6F75657220736FC4
:100410006E0020202052657365740020202020206B
:1004200020200654696D65723154696D65723241E0
:100430006C6C20202054656C656D2E065761726EC1
:1004400031205761726E32204368656570205269B1
:100450006E672020536369466920526F626F742073
:10046000436869727020546164612020437269633B
:100470006B74536972656E20416C6D436C6B526195
:10048000746174615469636B2020486170746331D6
:10049000486170746332486170746333042D2D2D8C
:1004A000004131002041320020416C740052706DD7
:1004B000004675656C7431002074320020537064FE
:1004C000004469737443656C6C5478002052780062
:1004D0002041636358416363594163635A486467C9
:1004E00000565370646131002061320020414C5449
:1004F0000052504D005431002054320020535044DB
:100500000044495354546D7231546D723241434327
:100510000054696D65042D2D2D203132302031328B
:100520003058313430203930202005204D656E752B
:1005300020457869742020426173204861757444B5
:10054000726F697447617563680347415A44495241
:1005500050524649443049443149443241494C475C
:10056000454154524E5357315357325357335357D3
:1005700034535735535736535737535738535739E2
:1005800053574153574253574304446972205072A2
:10059000662047617A2041696C205031202050321A
:1005A0002020503320204D41582033504F53435981
:1005B00043314359433243594333034F4646414243
:1005C00053475A73475A25475A74074C50342F4C97
:1005D000503544534D6F6E6C7944534D5820202054
:1005E00000EA55A71D05273A27DB279B28408008EE
:1005F000042010020153454C4D4F444500535550C3
:100600005052494D4552204D4F44454C4500436F93
:100610007069652E2E2E004465706C6163656D6592
:100620006E742E2E2E004368617267656D656E7460
:100630002E2E2E006C69627265000002020202001A
:1006400045434F4C414745004573636C61766500F7
:100650006D6F6465032520737263004D756C74695A
:10066000706C696575720043616C00120800081CAB
:100670000808081C080000082200490022080000A1
:10068000000000227F22000000082200490022080A
:10069000000008220049002208000000227F2200FA
:1006A00000000000082200490022080000081C0881
:1006B00008081C08004D4958455552002F31340098
:1006C0002F333200434F5552424553004356005694
:1006D000455253494F4E00564552533A2056322EFA
:1006E00030302D48002053564E3A206F70656E39D9
:1006F000782D7234343800444154453A2032303138
:10070000322D30332D32380054494D453A203232A3
:100710003A31303A313900454550524F4D2076003C
:1007200044494147005472696D2D202B00414E41D0
:1007300000410042470043414C4942524154494F15
:100740004E005B4D454E555D504F5552204445423D
:10075000555400534554204E4555545245005B4D69
:10076000454E555D5175616E6420505245540042AE
:100770004F55474552204D414E434845532F504F0A
:100780005453200020416C746974756465002041E5
:100790006C74697475646520486F6C640020436FE5
:1007A00075727365002042656172696E670020573B
:1007B000617920506F696E74202320002044697392
:1007C00074616E6365200020416972205370656515
:1007D00064200020436C696D6220526174652000C2
:1007E00020526F6C6C20416E676C650020506974FC
:1007F000636820416E676C650020417264755069C2
:100800006C6F74204D6F6465002052544C20446915
:100810007374616E636500535053008040000000A4
:1008200000000000000000000000000000000000C8
:1008300000000000000000000000000000000000B8
:1008400000000000000000000000000000000000A8
:100850000000000000000000000000000000000098
:100860000000000000000000000000000000000088
:100870000000000000000000000000000000000078
:100880000000000000000000000000000000000068
:1008900000000000000000000000000000FCFCFC64
:1008A000FCFCFCFCFCFCFCFCFCFCFCFCFCFCFCFC88
:1008B000FCFCFCFCFCFCFCFCFCFCFCFCFCFCFCFC78
:1008C000FCFCFCFCFCFCFCFCFCFCFCFCFCFCFCFC68
:1008D000FCFCFCFCFCFCFCFCFCFCFCFCFCFCFCFC58
:1008E000FCFCFCFCFCFCFCFCFCFCFCFCFCFCFCFC48
:1008F000FCFCFCFCFCFCFCFCFCFCFCFCFCFCFCFC38
:10090000FCFCFCFCFCFCFCFCFCFCFCFCFCFCFCFC27
:10091000FCFCFCFCFCFCFCFCFCFCFCFCFCFFFFFF0E
:10092000FFFFFFFFFFFF7F7F3F3F3F3F3F3F7F7F57
:10093000FFFFFFFFFFFFFFFF3F3F3F3F3FFF7F7F87
:100940003F3F3F3F7FFFFFFFFFFFFFFFFFFF7F7F37
:100950003F3F3F3F3F3F7F7FFFFFFFFFFFFFFFFF27
:10096000FF3F3F3F3F3FFF7F3F3F3F3F3F7FFFFF17
:10097000FFFF7F0F07030181E0F0F0F0E0000101CD
:10098000071FFFFFFFFFFFBF3F3F3F3F7FFFFFFF0F
:10099000FFFF7F3F3F3F3F3FBFFFFFFFFFFFFFFFE7
:1009A000FF3F07030100C0F0F8FCFCFCFCF800006E
:1009B000000103FFFFFF3F0100000080E0F8FCFCA6
:1009C000FCF80000000001FFFF3F070301000010DA
:1009D000181C1C1C1C180000000103FFFFFFFF1F58
:1009E00000000000C0F8FCFCFC1000000000C0FF8C
:1009F000FFFFE0800000000F1F1F1F0F030000001B
:100A000000E0FFFFFFFFFFFFFEF8E0000001070727
:100A10000180E0F0F8FCFEFFFFFFFFFFFFFFFFFF9C
:100A2000FFE0C08000000F1F1F1F1F0F070180C0C5
:100A3000E0F0FEFFFF0700000000C00F1F1F1F0FA8
:100A400007010080E0F0FEFFFFE0C08000000E0E16
:100A50001E1E1E1E1E1E1E0ECEFEFEFFFF7F03006C
:100A6000000080FCFFFFFF3F0300000080FCFFFF51
:100A70001F0F0F1F1F1E1E1E0E0E0781C0E0F0FC71
:100A8000FFFFFFFF7F3F1F0F030180E0F0F8E080D2
:100A90000001071F7FFFFFFFFFFFFFFFFFFFFFFFBB
:100AA000FFFFFFFFFFFFFEFEFEFEFEFEFFFFFFFF5C
:100AB000FFFFFF1F00000000C0FEFFFFFEFEFEFE66
:100AC000FEFFFFFFFFFFFFFFFFFFFFFFFFFFFEFE39
:100AD000FEFEFEFEFEFEFFFFFFFFFFFFFFFEFEFE2F
:100AE000FEFEFFFFFFFFFFFEFEFEFEFEFFFFFFFF1D
:100AF000FFFFFEFEFEFEFEFEFEFFFFFFFFFFFFFF0D
:100B0000FFFFFFFEFEFEFEFEFEFFFFFFFFFFFFFFFB
:100B1000FEFEFEFEFEFFFFFFFFFFFFFFFF1F1F1F8A
:100B20001F1F1F1F1F1F1F1F1F1F1F1F1F1F1F1FD5
:100B30001F1F1F1F1F1F1F1F1F1F1F1F1F1F1F1FC5
:100B40001F1F1F1F1F1F1F1F1F1F1F1F1F1F1F1FB5
:100B50001F1F1F1F1F1F1F1F1F1F1F1F1F1F1F1FA5
:100B60001F1F1F1F1F1F1F1F1F1F1F1F1F1F1F1F95
:100B70001F1F1F1F1F1F1F1F1F1F1F1F1F1F1F1F85
:100B80001F1F1F1F1F1F1F1F1F1F1F1F1F1F1F1F75
:100B90001F1F1F1F1F1F1F1F1F1F1F1F1F000000C2
:100BA0000000000000000000000000000000000045
:100BB0000000000000000000000000000000000035
:100BC0000000000000000000000000000000000025
:100BD0000000000000000000000000000000000015
:100BE0000000000000000000000000000000000005
:100BF00000000000000000000000000000000000F5
:100C000000000000000000000000000000000000E4
:100C100000000000000000000000000000535045EC
:100C200000414C45525445000102030401030204F3
:100C3000040203010403020142616420454570720D
:100C40006F6D2044617461004D4553534147450029
:100C5000466F726D61747461676520454550524FEF
:100C60004D00454550524F4D206C6F77206D656D9E
:100C70000047617A207061732061207A65726F008D
:100C80005265696E697469616C6973657A206C6517
:100C900000546F7563686520706F75722069676EA8
:100CA0006F72657200537769746368657320656E4F
:100CB000636C656E63686573005265696E6974691B
:100CC000616C6973657A206C657300416C61726D4B
:100CD0006573204465736163746976656573004D5F
:100CE0006178206578706F732061747465696E74C3
:100CF00021004D6178206D697861676573206174AA
:100D00007465696E74210003010200040506075F23
:100D10002D2E2C001B1E272D36394B4E636C7278FE
:100D2000878D939CB1B4C6C9D2D8E1E400290202F0
:100D300000000000000602015345545550004E6F5C
:100D40006D004368726F6E6F00452E4C696D69745B
:100D5000657300452E5472696D73005472696D207D
:100D6000496E6300542D547261636500542D5472B2
:100D7000696D00426970204374720050726F746F25
:100D800000750050504D206672616D65006D7300F6
:100D900052784E756D0025000300504841534520A0
:100DA000444520564F4C005472696D73004661648F
:100DB0006520496E0046616465204F75740000032C
:100DC00003030303030303030303030303030300F6
:100DD0004C494D49544553005472696D73203D3E52
:100DE000204F66667365747300204152445520504D
:100DF000494C4F54204D656761203F2F382000003B
:100E0000000000000000006F000007000700147FD2
:100E1000147F14242A7F2A1223130864623649554A
:100E200022500005030000001C2241000041221C4A
:100E30000014083E081408083E080800503000005E
:100E40000008080808006060000020100804020084
:100E50003E41413E0000427F400062514946004110
:100E6000494936001814127F0027454539003E498C
:100E700049320001790503003649493600064929FF
:100E80001E000036360000005636000008142241CD
:100E90001414141414412214080002015109060606
:100EA000090906007E0909097E7F494949363E4104
:100EB0004141227F4141221C7F494949417F090923
:100EC00009013E4149497A7F0808087F00417F4176
:100ED000002040413F017F081422417F40404040B4
:100EE0007F020C027F7F0408107F3E4141413E7F1C
:100EF000090909063E4151215E7F09192946264903
:100F000049493201017F01013F4040403F1F2040DD
:100F1000201F3F4030403F631408146307087008E7
:100F2000076151494543007F4141000204081020F8
:100F30000041417F00040201020440404040400063
:100F40000102040020545454787F48444438384403
:100F5000444420384444487F3854545418087E0987
:100F600001020C5252523E7F0804047800447D4036
:100F7000002040443D007F1028440000417F400095
:100F80007C041804787C0804047838444444387C91
:100F900014141408081414187C7C08040408485419
:100FA000545420043F4440203C4040207C1C2040BE
:100FB000201C3C4020403C44281028440C505050F9
:100FC0003C4464544C44000836410000007F00005B
:100FD00000413608000808221C08081C22080800E6
:100FE0000000000000000000000000000000000001
:100FF0000000000000000000000000FE71FE710013
:1010000000000000000000000000003E007E000024
:101010000000007E003E000000000060066006FE4A
:101020007FFE7F60066006FE7FFE7F6006600660D2
:1010300018F01898199819FE7FFE7F9819981918BA
:101040000F18060C181E1C1E0E0C078003C001E0B2
:1010500030707838781830781EFC3F8E71C663E6A1
:101060006776663C3C183C0066006600000000663F
:101070000076003E001E000000000000000000009E
:10108000000000E007F00F381C1C380E70066000EE
:101090000000000000000006600E701C38381CF0D4
:1010A0000FE0070000000060066006C0038001F842
:1010B0001FF81F8001C00360066006800180018068
:1010C000018001F81FF81F8001800180018001006C
:1010D00000000000660076003E001E0000000000D8
:1010E00000000000000000000080018001800180FD
:1010F00001800180018001000000000030007800C4
:1011000078003000000000000000000018001C0003
:101110000E00078003C001E00070003800180000D6
:10112000000000F81FFC3F0E70066006600E70FCA9
:101130003FF81F0000000018601C60FE7FFE7F006B
:10114000600060000000000000000018781C7C0EA9
:101150006E06678663CE61FC607860000000000662
:10116000600660866186618661CE73FC3F781E00F2
:101170000000008007C007E006700638061C06FE67
:101180007FFE7F000000007E187E38667066606615
:1011900060E670C63F861F00000000F81FFC3F8E0F
:1011A00071866186618E731C3F181E000000000668
:1011B000000600867FC67FE60076003E001E000027
:1011C000000000781EFC3FCE7386618661CE73FC02
:1011D0003F781E000000007800FC00CE618671861A
:1011E00039CE1DFC0FF80700000000300C781E7887
:1011F0001E300C0000000000000000000000003065
:10120000667876783E301E00000000000000000086
:101210000000008001C003E007700E381C1C380E6F
:101220007006606006600660066006600660066024
:101230000660066006600606600E701C38381C707A
:101240000EE007C00380010000000018001C000E23
:10125000000600066606678603CE01FC007800786B
:1012600000FC00CE0186018601CE01FC0078000062
:10127000000000E07FF07FB8019C018E018E019C90
:1012800001B801F07FE07FFE7FFE7F866186618688
:101290006186618661CE73FC3F781EF81FFC3F0EAD
:1012A0007006600660066006600E701C381818FE36
:1012B0007FFE7F0660066006600E701C38381CF0EA
:1012C0000FE007FE7FFE7F8661866186618661860C
:1012D00061866106600660FE7FFE7F86018601866C
:1012E0000186018601860106000600F81FFC3F0EFC
:1012F0007006608661866186618E719C7F983FFE74
:101300007FFE7F800180018001800180018001FEDD
:101310007FFE7F0000000006600660FE7FFE7F0605
:1013200060066000000000001800380070006006D1
:10133000600670FE3FFE1F06000600FE7FFE7F80F7
:1013400001C003E007700E381C1C380E700660FEEA
:101350007FFE7F0060006000600060006000600051
:10136000600060FE7FFE7F1C003800F001F0013855
:10137000001C00FE7FFE7FFE7FFE7F7000E000C04D
:101380000180030007000EFE7FFE7FF81FFC3F0E6A
:101390007006600660066006600E70FC3FF81FFE77
:1013A0007FFE7F86018601860186018601CE01FCD3
:1013B000007800F81FFC3F0E7006600666066E0699
:1013C0003C0E38FC7FF867FE7FFE7F860186018633
:1013D00007860F861DCE39FC7078607818FC38CEF1
:1013E0007186618661866186618E731C3F181E0658
:1013F00000060006000600FE7FFE7F0600060006CF
:10140000000600FE1FFE3F007000600060006000EC
:10141000600070FE3FFE1FFE07FE0F001C0038003C
:101420007000700038001CFE0FFE07FE1FFE3F001C
:10143000700070003E003E00700070FE3FFE1F1EF8
:10144000783E7C700EE007C003C003E007700E3EDC
:101450007C1E787E00FE00C0018003007F007F803C
:1014600003C001FE007E000678067C066E066786D5
:1014700063C661E66076603E601E6000000000FEAC
:101480007FFE7F06600660066006600000000018B0
:101490000038007000E000C00180030007000E006B
:1014A0001C0018000000000660066006600660FE72
:1014B0007FFE7F000000006000700038001C000EFE
:1014C000000E001C0038007000600000600060002A
:1014D000600060006000600060006000600060000C
:1014E00000000006000E001C0038007000600000C4
:1014F0000000000018003C607E6066606660666008
:1015000066E066C07F807FFE7FFE7F8061C061E015
:101510006060606060E070C03F801F801FC03FE07F
:1015200070606060606060606060700038001880AB
:101530001FC03FE07060606060E060C0618061FE7D
:101540007FFE7F801FC03FE07660666066606660F9
:1015500066E066C007800780018001F87FFC7F8E0F
:1015600001860106000E001C001800E001F003389F
:101570006718661866186618661876F83FF81FFE32
:101580007FFE7F8001C001E00060006000E000C0DD
:101590007F807F0000000060606060E67FE67F0083
:1015A00060006000000000001800380070006060FB
:1015B000606070E63FE61F00000000FE7FFE7F00D7
:1015C00006000F801FC039E070606000000000005E
:1015D00000000006600660FE7FFE7F006000600085
:1015E000000000E07FE07F6000E000C007C007E08F
:1015F00000E000C07F807FE07FE07F8001C001E0ED
:101600000060006000E000C07F807F801FC03FE07E
:10161000706060606060606060E070C03F801FE08C
:101620007FE07F60066006600660066006E007C037
:101630000380018001C003E007600660066006C009
:10164000078007E07FE07FE07FE07F8001C001E06E
:101650000060006000E000C00180018061C063E0C4
:10166000676066606660666066607E003C00186069
:10167000006000FE1FFE3F60706060006000700050
:10168000380018E01FE03F0070006000600070004C
:10169000380018E07FE07FE007E00F001C00380012
:1016A0007000700038001CE00FE007E01FE03F0012
:1016B0007000700038003800700070E03FE01F607C
:1016C00060E070C039801F000F000F801FC039E03C
:1016D000706060E001E0030067006600660066007D
:1016E000660076E03FE01F606060706078607C605C
:1016F0006E6067E063E061E06060600000000080B1
:1017000001C003781E7C3E0E7006600000000000E1
:1017100000000000000000FE7FFE7F0000000000CF
:101720000000000000000006600E707C3E781EC0C5
:101730000380010000000080018001800180011809
:1017400018381CF00FE007C00380018001C003E0DF
:1017500007F00F381C181880018001800180014DAE
:101760006F6465005357000002494E5445525320A0
:1017700050455253000002494E5445525320464FA3
:101780004E4354494F4E530000000000000000003B
:10179000000000000000000000000000FF01434FB7
:1017A0004E46494720524144494F00537065616B92
:1017B0006572204D6F646500537065616B657220C2
:1017C0004C656E67746800537065616B657220507C
:1017D0006974636800436F6E74726173746500416D
:1017E0006C61726D65204261747465726965004157
:1017F0006C61726D6520496E6163746976697465A8
:101800000046696C7472652041444300496E7665F8
:101810007273696F6E2047617A0042697020742E7E
:101820006D696E7574657300426970206120726520
:10183000626F75727300466C617368207175616EBA
:10184000642062697000496E7465722065636C6122
:1018500069726167650045636C6169722E206F660D
:101860006620617072657300456372616E20642743
:101870006163637565696C00416C657274652047CE
:10188000617A00416C6572746520496E74657200FE
:10189000416C65727465204D656D6F6972650041BC
:1018A0006C6572746520416C61726D65004F726485
:1018B000726520566F69657320527800496E7465B1
:1018C000720044522F4558504F00494E53455245DF
:1018D00052204D49584147452000454449544552FE
:1018E000204D49584147452000536F75726365008C
:1018F000526174696F00446966666572004F66667E
:10190000736574005472696D00436F75726265008F
:10191000502E566F6C00416C65727465004F4646E0
:10192000004D756C74707800526574617264204269
:10193000617300526574617264204861757400526D
:10194000616C656E74697220486175740052616CD7
:10195000656E74697220426173005048415345536B
:1019600020444520564F4C002864656661757429F3
:10197000005665726966055472696D7300434F4E77
:10198000462E48454C4900547970652064652050C6
:101990006C617465617500436F6C6C656374696636
:1019A0000053776173682052696E670044697265FD
:1019B0006374696F6E2050524600446972656374A7
:1019C000696F6E2041494C00446972656374696FA8
:1019D0006E20434F4C00DA6911241FBECFEFD0E1D7
:1019E000DEBFCDBF11E0A0E0B1E0EAE9F5ED02C055
:1019F00005900D92A032B107D9F71DE0A0E2B1E049
:101A000001C01D92A936B107E1F719E1C8EDD9E18E
:101A100004C02297FE010E948A6AC63DD107C9F719
:101A20000E948E600C94CB6A0C9400002F923F921F
:101A30004F925F926F927F928F929F92AF92BF92DE
:101A4000CF92DF92EF92FF920F931F93CF93DF938A
:101A500000D000D000D0CDB7DEB78C83E091C90BA9
:101A6000EE23B1F1A091A108B091A2084091A50880
:101A70005091A6089D010E94E3696B017C019A01C7
:101A8000DA010E94E369C60ED71EE81EF91E6E2F0A
:101A900070E080E090E00AE0660F771F881F991FD2
:101AA0000A95D1F724E630E040E050E00E946C6AED
:101AB000CA01B9010E94066A6C157D058E059F0555
:101AC00038F4C701B6010E943C3F9E838D8302C05B
:101AD0001E821D822D813E81A4E6B0E00E94EB694A
:101AE0006B017C018CE29CE09A838983612C712CD0
:101AF0001B8212E3812E912CA12CB12C862D8430D7
:101B000068F490910B08F301A4E09A9FE00DF11D99
:101B10001124E85DF34F54905A9401C0562C0E9452
:101B2000EE3F9C01E981FA8181919191FA83E983E9
:101B3000281B390BB901882777FD8095982FBAE0CB
:101B4000660F771F881F991FBA95D1F712161306D3
:101B50001CF4028D138D06C0A981BA811C960D91CB
:101B60001C911D970436110514F404E610E0980149
:101B7000442737FD4095542F0E946C6A8901211536
:101B8000BCEF3B072CF02130E4E03E0724F405C015
:101B900000E01CEF02C000E014E08091710C80FFB7
:101BA00006C0F2E05F1203C0119501951109252CC2
:101BB000312CF101EE0FFF1FE156F74F1183008327
:101BC000C80117FF04C088279927801B910BF4E0F8
:101BD00096958795FA95E1F78230B0F4811107C0A8
:101BE00091E0022C01C0990F0A94EAF70AC081E043
:101BF00090E0022C01C0880F0A94EAF79091FC064D
:101C000098232B81292B2B8383E0851508F470C042
:101C10008091F607811148C0452D4F5E50E040513C
:101C20005109A1E0B0E002C0AA0FBB1F4A95E2F73C
:101C3000AD0141608091F7079091F807482359233F
:101C4000452B09F0B5C030C0A42DAF73B0E0CD0175
:101C5000880F991F8C57994FAD01440F551F435A58
:101C6000534FDC012D913C91DA018D919C91281B01
:101C7000390BA181BB27A7FDB0950E94E369A5019F
:101C800094010E946C6A429446944694E3E04E228A
:101C9000842D90E08130910519F0029729F403C05A
:101CA000020F131F01C08901ED81FE81EF2BC9F0E6
:101CB000F1E05F1619F023E0521213C02091C90B16
:101CC00030E0D8010E94F7695AE0660F771F881F3D
:101CD000991F5A95D1F7A70196010E946C6A022FAD
:101CE000132FF101EE0FFF1FE251F84F1183008314
:101CF0008FEF681A780A97E06916710409F0FECE32
:101D00006C818EEE97E00E94D044009157090870D4
:101D10006090710CA1E06A2220E034E08091F2072B
:101D20009091F307281B390B6901EE24D7FCE0944E
:101D3000FE2C7090150826EE222E27E0322E10E0A1
:101D4000812C38E0932EA12CB12C612F8C810E9424
:101D500042412C011230F9F40023E9F0662019F019
:101D60005194419451089201442737FD4095542FD6
:101D700023583F4F4F4F5F4FC701B6010E94066A7D
:101D8000A50194010E946C6A2115B8E03B0741054A
:101D9000510521F402C0711016C09201220F331FA9
:101DA000F101219331931F011F5F143071F60EC0B2
:101DB000F101EE0FFF1FEB59F34F4080842D807C23
:101DC00009F042CF71CF412C512CE7CF8B81269661
:101DD0000FB6F894DEBF0FBECDBFDF91CF911F913C
:101DE0000F91FF90EF90DF90CF90BF90AF909F90BA
:101DF0008F907F906F905F904F903F902F900895BD
:101E0000FF920F931F93CF93DF93F62E1091390D0E
:101E1000882309F44AC0812F0E945740EC01012F0A
:101E2000FF2011F0015001C00F5F188107FF09C0AA
:101E3000812F8C7009F46FC0812F869586958D5FF8
:101E40000BC00E3071F4812F8C708C3009F463C09C
:101E5000812F869586958F5F8370880F880F137FFB
:101E60004FC0802F0E945740BC01FC018081182781
:101E70001C7011F48370B9F49881892F869586952A
:101E80008370FF2029F0882309F445C08D5F04C0CA
:101E9000833009F440C08F5F8370880F880F937F71
:101EA000982B98832FC044E030C0812F0E944F4070
:101EB000EC01012FFF2011F0015001C00F5F1881CC
:101EC00007FF03C0812F8F7012C0003219F4812FD9
:101ED0008F7011C0802F0E944F40BC01FC01808197
:101EE00081278F7089F0812F8F70FF2021F0882348
:101EF00091F0815F03C08F3071F08F5F8F70107F22
:101F0000182B1883C1E009C049E0CE010E94173F99
:101F10000093390DF7CFC0E003C082E00E94113F6B
:101F20008C2FDF91CF911F910F91FF900895682F13
:101F30008EEA98E00E94D0531092B4081092B30831
:101F400008951F93CF93DF9300D0CDB7DEB7182F3E
:101F500081E14A8369830E94970F1092EE0569819F
:101F60006295607F6093EF051093AE084A814093BD
:101F7000F6050F900F90DF91CF911F910895CF92AA
:101F8000DF92EF92FF920F931F93CF93DF937C0129
:101F90006B01C0E0D0E08091B40890E086010C1B9A
:101FA0001D0B8017910708F48C0197012C0F3D1F22
:101FB000A80160E070E0C9010E94AB6AC00FD11FA8
:101FC0008091B408801B8093B40881113FC0809138
:101FD000B30890E0A6014C1B5D0B8417950708F42D
:101FE000AC01B7016C0F7D1F8EEA98E00E94894E0C
:101FF000C80FD11D9091B308981B9093B30891110D
:1020000025C041E050E063EB78E08EEA98E00E9462
:10201000894E8130D9F48091B30887FF0FC0282FF3
:1020200030E094E0359527959A95E1F727703327AE
:102030002093B4088F708093B308ADCF86FFABCFE9
:102040008F738093B4081092B308A5CFCE01DF91AF
:10205000CF911F910F91FF90EF90DF90CF90089557
:102060009AE0EBEFF5E0DF011D929A95E9F78031F8
:1020700018F020E030E019C08F5F0E94970F6AE0EF
:1020800070E08BEF95E00E94BF0F0A9791F7809167
:10209000AE0890E0FC01EE0FFF1FE80FF91FE554BA
:1020A000FA4F20818181382F3F70C901089580E067
:1020B0000E94970F61E070E08BE29CE00E94BF0FEE
:1020C000019709F00FC080912B0C8D3C59F40CC086
:1020D0000E94394041E02091560C3091570C28174E
:1020E000390779F040E00DC080E00E94970F6FE45F
:1020F00070E08BE29CE00E94BF0F8035910540F3B9
:10210000F1CF842F0895FF920F931F93CF93DF9306
:10211000FA010491DA0112963196449150E0495F38
:102120005F4F33E0559547953A95E1F7F42E209FA0
:1021300090011124249FF001259FF00D349FF00D94
:102140001124AE0FBF1F66956695669590E0F0E886
:102150006F9F800D911D112440E050E010E0602F32
:1021600070E015C0EA01C80FD91FC05EDE4F9D01A7
:1021700005C0F9012F5F3F4FE491E993E22FEA1B7D
:10218000E017B8F3A60FB71F1F5F40585F4F1F152A
:1021900048F3DF91CF911F910F91FF9008950F9316
:1021A000262F442311F002E001C000E044E252E097
:1021B000682F84E50E94F9520F9108950F9300E073
:1021C0002FEF0E94DA500F9108952F923F924F9275
:1021D0005F926F927F928F929F92AF92BF92CF92B7
:1021E000DF92EF92FF920F931F93CF93DF9300D074
:1021F00000D0CDB7DEB7382FA62E5C834B83B22E2E
:10220000822F8073E82EF12C20E1E21AF108A4E07D
:10221000F594E794AA95E1F72E2DB2FA882480F878
:10222000B3FE03C048EFB40E0CC08B819C8197FFB6
:1022300008C09195819591099C838B8399249394EF
:1022400001C0912C2223E9F08B819C816AE070E02F
:102250000E94226A01E0EAE0F0E005C00F5FCB01D6
:10226000BF010E94226A61157105C1F7E02FF0E0FD
:10227000422F552747FD50954E175F0714F00E2D3E
:102280000F5F811006C0B7FE07C012162CF43E5F28
:1022900003C0FAE06F2E02C0E5E06E2EB7FE0BC061
:1022A000609E300D1124992031F0882011F087E0D4
:1022B00001C085E0380F3093360D162D1095130FA1
:1022C0005524539462E0762E212C7AE0C72ED12C2F
:1022D0009A2D9A5F998379C08B819C81B6010E9467
:1022E000226A982F50E3352E380E8820D1F0A1E3D2
:1022F0003A120EC050120CC0A22DB0E0E12FF0E057
:102300003A96EA17FB0724F41E5F2B2D286001C0C4
:102310002B2DEB81FC81E83EF34024F01B5F2B7FEB
:1023200001C02B2D432D6A2D812F9A830E94C75106
:10233000E52DF0E09A81EE16FF0691F54FEC442E64
:102340004B208820D9F09150933008F473948B81FE
:102350009C81B6010E94226ACB01B6010E94226ACA
:10236000823019F0843009F067C054E3212E351211
:1023700002C0239462C02A9473945FC0312E3A94B1
:102380003A94115040E06981812F0E946751B1FE5B
:1023900056C0B0FE4BC08091E30686FD47C04FC0DB
:1023A000882051F08B819C81883EA3E09A0724F01D
:1023B000803197420CF412508B819C81B6010E94AF
:1023C000226A7C836B8316195394051508F084CF19
:1023D000222071F0E8EFAE226A2D635F472D822D37
:1023E0000E94DE106A2D625F472D822D0E94DE1052
:1023F000992041F12B2D4DE26A2D812F0F900F90E6
:102400000F900F90DF91CF911F910F91FF90EF9060
:10241000DF90CF90BF90AF909F908F907F906F9004
:102420005F904F903F902F900C94C75148E06A2DD9
:10243000812F0E94D75003C0212EB42CB3CFB42CCF
:10244000132DBACF0F900F900F900F90DF91CF9177
:102450001F910F91FF90EF90DF90CF90BF90AF90C2
:102460009F908F907F906F905F904F903F902F90B4
:1024700008950F931F93CF93DF93C62F122FD02F62
:10248000202F2F7E0E94D952202F206802E0412F5A
:1024900050E06C2F8091360D0E94E510D7FF0AC0E6
:1024A0004AE36C2F8091360DDF91CF911F910F91F0
:1024B0000C94CA53DF91CF911F910F9108950F9300
:1024C0001F93CF93DF93D82F162FC42F022F47FFD0
:1024D00007C041E286500E94C75186E08C1BC82F7E
:1024E0002C2FC7303CF449EF52E0612F8D2F0E9412
:1024F000F95207C026504EEF50E0612F8D2F0E94F9
:102500003912DF91CF911F910F9108950F931F936F
:10251000CF93DF93D82F162FC42F022F411106C05F
:1025200020E044E252E00E94F95210C047FF06C08A
:102530002EE548E082500E947B50C1952C2F2150FF
:1025400040E051E0612F8D2F0E943912DF91CF9131
:102550001F910F9108950F93FA013A969AE03291E4
:10256000332381F00CC000612F5F43E051E00E94F3
:1025700039120BC000622AE00E94865206C09111F7
:10258000F9CFF1CF915079F3EACF0F9108950F93DE
:10259000022F411104C020E044E252E018C0242F71
:1025A0004D3020F4215049E855E011C0453120F468
:1025B0002C504AE051E005C0453230F424514EE041
:1025C00051E00E94391205C024524CE954E00E94A7
:1025D000F9520F9108954A3008F406C04F3118F4AB
:1025E00049500C94075345510C94C712942F9150A5
:1025F000903118F44C5E0C94C7120895CF92DF927C
:10260000EF92FF920F931F93CF93DF931F92CDB75B
:10261000DEB7382FF62E6A01122FE02E27FD3E5E20
:10262000D7FE12C012FF02C087E001C085E0212F53
:102630004DE26F2D932F981B892F39830E94C7512C
:10264000D194C194D1083981212F2069C6016CE34E
:1026500070E00E94366AAB016C0102E06F2D832F9F
:102660000E94E5102E2D212312FB112710F98091D5
:10267000360D4AE36F2D811B0E94C7512E2D206914
:102680008091360DA6016F2D8A5F0E94E5100F9094
:10269000DF91CF911F910F91FF90EF90DF90CF903E
:1026A00008950F9300E00E94E5100F910895CF93D5
:1026B000DF93D62FC22F922F9073903311F420E026
:1026C00001C020E22C2B2F7B6D2F0E945113C6FDE1
:1026D00009C02C2F46E76D2F8091360DDF91CF91E9
:1026E0000C94C751DF91CF9108951F93CF93DF933F
:1026F000182FD62FC42F242F462F50E060E080E8FB
:102700000E945113DA3010F08FE601C085E72C2FBC
:102710004FE260E00E94C751E12FF0E0AF014F5F50
:102720005F4FDA3010F08FE601C085E72C2F60E0B4
:10273000DF91CF911F910C945113552747FD509570
:1027400020E00C9451139F92AF92BF92CF92DF92F0
:10275000EF92FF920F931F93CF93DF93B82E162F14
:10276000A42E902EC0E0D0E0E62EFF24E7FCF094EB
:102770006701C20ED11C0BC06C2F610F603430F4A6
:10278000092D2FEF4A2D8B2D0E94DA5021969E01A4
:102790002E0D3F1D2C153D057CF3DF91CF911F9130
:1027A0000F91FF90EF90DF90CF90BF90AF909F90F0
:1027B0000895EF920F9304E028E24CE660E18AE08E
:1027C0000E94A313E12C0FEF28E24CE660E18AE0BF
:1027D0000E94295140917E0650917F0668E180E178
:1027E0000F91EF900C94F652CF93C82F20917E0654
:1027F00030917F06232B89F00E94D91348E151E0E4
:1028000068E280E10E94F652C13639F481E60E9406
:102810005D4F10927F0610927E06CF9108950F9320
:10282000CF93C82F109281060E94D9134091F905C9
:102830005091FA054115510539F000E22091F80553
:1028400060E280E10E94865241E151E068E280E16D
:102850000E94F652C03619F0C13659F403C081E027
:10286000809381068C2F0E945D4F10927F061092FC
:102870007E06CF910F910895CF93DF93CEE7D6E0F8
:10288000998388830E94D91319821882DF91CF918E
:102890000C9449500F93E0913B0DF0E0DF0111964D
:1028A0003A2F377090913A0D391789F19091E307DB
:1028B000992339F0882329F09091790C965F980F2D
:1028C00001C090E0E65CF24F96839091780C92956F
:1028D000990F907E9595959595959595959597FFDA
:1028E0000BC0862F61E070E0691B710997FD73953D
:1028F00090E00E94366A05C0992319F0969F600DFA
:102900001124668B468F26A3068730933B0D0F91CB
:102910000895AF92BF92CF92DF92EF920F931F93E1
:10292000CF93DF9300D000D0CDB7DEB7282F30E0B3
:10293000D901AA0FBB1FA20FB31FFD01E654FA4F26
:1029400020813181428129833A834B83062F10E015
:10295000F801EE0FFF1FE00FF11F8F0106541A4F11
:1029600056EBA52E55E0B52EAA0EBB1ED801CD9074
:10297000DD90EC90D5011496CD92DD92EC92EA5464
:10298000FA4F24833583468306EF15E091E0F80182
:1029900090836C830E94FE3E6C81862F0E94FE3ED7
:1029A000D8011C920F900F900F900F90DF91CF9154
:1029B0001F910F91EF90DF90CF90BF90AF9008954F
:1029C0001F93CF93DF93162F962F9F5F8823F1F0ED
:1029D000892F0E945740EC01812F0E945740412FC0
:1029E00050E040955095425F5F4F440F551F440F94
:1029F000551FBE010E94996A8DE00E945740DC017C
:102A00001D921D921D921C9213971EC0892F0E9429
:102A10004F40EC01812F0E944F40412F50E04095E4
:102A200050959A01205E3F4F19E0129FA001139F1D
:102A3000500D1124BE010E94996A8FE10E944F40FF
:102A4000DC011D921A95E9F782E0DF91CF911F9189
:102A50000C94113FFF920F931F93CF93DF93062F98
:102A600010E0882321F1862F0E945740EC01A80135
:102A700040955095425F5F4F440F551F440F551FBF
:102A8000BC0104960E94996A188219821A821B82DC
:102A900093E098838091370D81508370880F880F61
:102AA000892B88838A818170886C8A832CC0862FC9
:102AB0000E944F40EC0100951095005E1F4F79E099
:102AC000F72EF09EA001F19E500D1124BC01099635
:102AD0000E94996AFE011192FA94E9F78091370DEC
:102AE000282F21502F709881907F922B98838530CA
:102AF0000CF002C00E946B418F779E819078982BDA
:102B00009E8384E6898382E0DF91CF911F910F91AC
:102B1000FF900C94113F80E094E0E0E2F1E0DF01EF
:102B20009C011D9221503040E1F70895CF93482F2A
:102B300050E09A01220F331F240F351FF901EA5488
:102B4000FA4FC481F901E654FA4F108211821282C1
:102B500091E09093F6050E94FE3ECC2319F08C2F55
:102B60000E94E84E1092F605CF910895CF93C82F9A
:102B700022E048E751E060E080E00E94D952C2368E
:102B8000B1F028F4C03631F0C136C1F413C0C336F9
:102B9000A9F410C08FEF80939406109295061092BE
:102BA00043091092420983E00E94C53907C08EE3B1
:102BB00096E102C082E59EE20E94C8394EE751E0EC
:102BC00068E080E00E94F65240919506469568E0E4
:102BD0008AE50E949D134DE851E060E180E00E948B
:102BE000F65240919406469560E18AE50E949D1355
:102BF0004CE951E068E180E00E94F6524091950670
:102C000050E080919406481B510957FF02C04F5F66
:102C10005F4F5595479568E18AE50E949D134BEA01
:102C200051E060E280E00E94F6528091420990916A
:102C3000430924E6289FA001299F500D112494E008
:102C4000569547959A95E1F720E360E28AE50E9460
:102C5000511348EB51E060E380E00E94F6520E947D
:102C6000213F28E0AC0160E38BE60E94511349EC60
:102C700051E068E382E1CF910C94F6520F931F93D9
:102C8000CF93DF93C82F22E04EE551E060E080E073
:102C90000E94D952C13658F0C33628F0C33639F4F1
:102CA00086EB95E102C082E59EE20E94C83944E6C7
:102CB00051E068E086E00E94F6524091170850917A
:102CC000180800E020E068E08EE10E94FE124091CA
:102CD000190850911A0820E068E088E40E94FE126A
:102CE0004CE651E060E186E00E94F652409199087E
:102CF00050919A0820E060E18EE10E94FE1240911E
:102D00009B0850919C0824E0569547952A95E1F739
:102D100020E060E188E40E94FE1244E751E060E0B8
:102D200086E60E94F65240919D0850919E0820E050
:102D300060E088E40E94FE12C0911F08CC0FCC0B0B
:102D400080919808C8234EE76CE382E00E94DE1071
:102D500043E26CE185E00E94D750DBE043E06BE3A7
:102D60008D2F0E94D750DA5FD338C1F7D6E01CE32D
:102D7000EC2FF0E0E05EF74F4081612F641B8D2F58
:102D80000E94D750CF5FC83708F0C0E08091980804
:102D9000C81719F0DF5FDE3759F7DF91CF911F9128
:102DA0000F910895823659F028F4803659F0813613
:102DB000A1F40DC0833689F48FE39BE30CC084E259
:102DC00097E109C00E944A4F8EE396E104C00E9439
:102DD0004A4F82E59EE20E94C83941E061E280E00C
:102DE0000E94014F42E061E281E00E94014F81E3D5
:102DF0000E94E0524AED51E068E08EE10E94F652F6
:102E000080919A06882319F04AE956E002C046E10B
:102E100051E024E160E18CE00E94D95244EE51E09F
:102E200060E28EE10E94F6528091A506882319F097
:102E300045EA56E002C046E151E024E168E286E05E
:102E40000C94D9520C94D216823641F0833619F084
:102E5000813669F406C082ED96E107C087ED99E3FB
:102E600004C00E944A4F82E59EE20E94C83943E0B6
:102E700061E280E00E94014F44E061E281E00E9453
:102E8000014F82E30E94E0524FEE51E068E086E09D
:102E90000E94F65280919A06882319F04AE956E07A
:102EA00002C046E151E024E160E18CE00E94D95289
:102EB0004DEF51E060E286E00E94F6528091A50657
:102EC000882319F045EA56E002C046E151E024E1CA
:102ED00068E28CE00C94D952CF92DF92EF92FF928D
:102EE0000F931F93CF93DF936C017B018A01E9015C
:102EF0000E948B1524E0A60160E080E00E94D95278
:102F0000B70180E20E94F0520115110521F0B801CD
:102F100088E20E94F052209749F0BE0188E30E94A7
:102F2000F05282E00E94C5390E943A500E944950F6
:102F30008091590CDF91CF911F910F91FF90EF90ED
:102F4000DF90CF900C94725028E431E040E050E0E4
:102F5000BC0181E29CE00E946C1786B380958E775D
:102F600021F40E949F44A895F8CF089580910E08FF
:102F70008823D1F0815080930E0883E00E94C539E8
:102F80001092F907E0910E08F0E0DF01AE5DBA4F54
:102F90008C918093FA07EE0FFF1FE658F34F0190D4
:102FA000F081E02D8EEB099486E291E00C94A41759
:102FB000CF93DF93EC0180910E08A82FB0E0AE5DB7
:102FC000BA4F9091FA079C93982F9F5F90930E08A9
:102FD000953040F080930E0886E291E0DF91CF912A
:102FE0000C94A41785E00E94C539A0910E08B0E0AA
:102FF000AA0FBB1FA658B34FCD93DC938FEBFE01F6
:10300000DF91CF9109948091B108811116C0809110
:10301000AF089091B008892B81F48091B805809316
:10302000B1088093ED05882341F00E94134E8093F0
:10303000B8058091B60881603CC08091B608982F91
:103040009F70913009F070C0815038C08091B108F4
:10305000811101C03BC09091B2089F30B0F0109236
:10306000B2080E94134E81110EC06091B805611123
:1030700001C02CC08091B6088E5F8093B608809105
:10308000B1080C94F23E8093B1088091B608982F55
:103090009F70923019F09330A9F40FC08091B80559
:1030A0008093B1080E94134E8093B8058091B608B2
:1030B0008F5F8093B6080C94EA3E83508093B608E5
:1030C00060E0DDCF8091B108811104C081E0809380
:1030D000F7052EC06091B2082FE09091BD08261B25
:1030E000921708F4292FE22FF0E04091BE0850918A
:1030F000BF084E0F5F1F5093BF084093BE08921B3E
:103100009093BD08922F960F9093B208A091AF08AC
:10311000B091B008AE0FBF1FB093B008A093AF0836
:103120004E1B5F0B0C94DC3E8091BD0881118ECF4D
:103130008091F705813041F485E391E00E94A41766
:103140001092B6081092BD088091F605811102C058
:103150000C94C71808956093BD089093BF0880939E
:10316000BE080E9403188091F605882341F08091E3
:10317000BD08882321F08091F705882391F30895F5
:103180008093BC0861E08CEB98E00C94AB18CF9373
:10319000DF936091BB08E091B908F091BA0866230B
:1031A00071F0CF01860F911D9093BA088093B908F2
:1031B0001092BB08CF01DF91CF910C94AB188081A6
:1031C0002091B7083091B8082115310509F45CC089
:1031D00071E0811170E041E050E090E081E0DF01BA
:1031E000A40FB51F61E0AC91A11160E067130BC0A3
:1031F0008F3309F4C0C0992319F08F3009F4BBC094
:1032000042175307E1F57723B1F0883080F0482F5B
:1032100050E0E40FF51FF093BA08E093B908241BBF
:10322000350B3093B8082093B708806422C042174A
:10323000530719F5ECCF492F50E0E40FF51FF09339
:10324000BA08E093B908BA01680F711D261B370B45
:103250003093B8082093B7088093BB08992349F0AE
:103260009A0174E0220F331F7A95E1F720683F6FCF
:10327000822BDF91CF910C94C018982F80E08F5F44
:103280004F5F5F4F762FABCF8091B608803309F444
:1032900066C030F4803151F0803209F06FC055C003
:1032A0008034E9F0803509F069C048C08091B108E8
:1032B0008823A9F00E94134EC82F811157C00FC058
:1032C0008C2F0E94134EC82F8C2F0E94134E8111F9
:1032D000F7CF80E28093B6086D2F8C2F3CC0909181
:1032E000ED059093B1088091AE08482F50E09A0107
:1032F000220F331F240F351FF901EA54FA4F44817E
:103300004093ED059483F901E554FA4F9091AF088D
:1033100090834091B0084F709181907F942B91835E
:103320004091EF05F901E454FA4F407F90819F707E
:10333000942B908390E59093B60803C01092B60842
:1033400081E1DF91CF910C94FE3E80E38093B6083B
:1033500060E08091B108DF91CF910C94F23E80E45F
:103360008093B608DF91CF910C94EA3ED091B805D6
:103370008093B805A9CF61114ACF5DCFDF91CF917E
:10338000089501C0A8958091C0081816DCF381E06B
:103390008093F6058091BD08882321F08091F70580
:1033A000882349F08091B608882341F08091F70581
:1033B000882339F003C00E940318ECCF1092F60561
:1033C00008950E94C718EECFEF92FF920F93CF930C
:1033D000DF93EA017901402F0E94A10F80E18093E1
:1033E000B608D093BA08C093B908F092B808E09232
:1033F000B7081092BB080E94C7188091F605882371
:1034000041F08091B608882321F08091F705882348
:1034100091F3DF91CF910F91FF90EF9008950F936B
:10342000CF93C82F81110E94C1198091AD0880FDF2
:1034300005C08091AD0881FF1DC00FC081508093F1
:10344000AD080C2F2FE430E04BE25CE061E080E05F
:103450000E94E419C111EDCF0DC01092AD0880910A
:10346000580C0C2F24EE32E047E459E062E08F5F05
:103470000E94E419CF910F910895CF93C82F803106
:10348000B0F48F5F0E94970F64EE72E087E499E0DA
:103490000E94BF0F8F3F910509F030F48C2F0E94DE
:1034A000A94D81E00E940F1ACF910C947C3FCF91DF
:1034B00008958F929F92AF92BF92CF92DF92EF9238
:1034C000FF920F931F93CF93DF93182FEB015A01B5
:1034D0006901802E84FF06C01F701066F4E09F2EE5
:1034E00005E003C0E5E09E2E04E0802F80661817FB
:1034F00061F0802F8064181741F0909182061916B0
:103500006CF4133611F0133449F47E018FEFE81A8E
:10351000F80A83E00E94C539892D68C0892D80662C
:10352000181761F0892D8064181741F019160CF0F6
:1035300063C0123619F0123409F05EC07E0181E0DA
:10354000E81AF10884E00E94C539802F4FC0A11409
:10355000B10491F481E0C816D10471F4103661F41D
:103560001092820681E090E0209711F080E090E0D8
:103570007C0180E60E945D4F2091330D3091340D27
:10358000E21AF30ACE14DF043CF4812F0E945D4F4F
:1035900089E00E94C5397601EA14FB043CF4812FCE
:1035A0000E945D4F89E00E94C5397501EC16FD0649
:1035B000D1F0E114F10451F4812F0E946E4FD7FF36
:1035C00002C083E001C084E00E94C539882D837069
:1035D0000E94113FCE15DF0514F481E001C08FEF8A
:1035E0008093320D16C01092320D13C090E00E94ED
:1035F0008241811103C0ABCF7E01A9CFEE24FF240D
:10360000EC1AFD0A892D0E945D4F802F0E945D4FAC
:103610009ECFC701DF91CF911F910F91FF90EF9047
:10362000DF90CF90BF90AF909F908F900895BF9202
:10363000CF92DF92EF92FF920F931F93CF93DF937E
:10364000D82EC62EEA01B22E102FE11002C000E2E1
:1036500005C0809182061816D4F302E22B2DAE012C
:103660006C2D8D2D0E948652EE2009F478C0809139
:10367000820618160CF071C0E090F907FE01EE0DFD
:10368000F11DF0804091330D5091340D452B41F4E4
:10369000123631F0133621F0123411F01334F1F4F4
:1036A000EF2DFF27E7FDF095F7FF03C0F195E195BA
:1036B000F1096E2F772767FD709500E028E230E072
:1036C00040E050E0812F0E94591AF7FC02C0F82E0A
:1036D00002C0F82EF19482E00E94113F153249F0A9
:1036E00018F4143211F509C0812F84588230E8F49F
:1036F0000FC0EE20D1F0EA9418C04E2D50E02B2DD3
:1037000030E021503109421753077CF4E3940DC097
:103710008F2D865E853348F4F19482E00E94113F3C
:10372000153819F485E00E945D4F8091F907C80FA4
:10373000D11DF8828F2D0E944A412091F907922FC6
:10374000990F920F990F22E0482F6C2D8D2D890F24
:103750000E94C751E092F90702C01092F907DF9169
:10376000CF911F910F91FF90EF90DF90CF90BF907E
:1037700008950F93332727FD3095552747FD509522
:10378000772767FD709502E00E94591A0F910895FE
:103790004F925F926F927F928F929F92AF92BF9261
:1037A000CF92DF92EF92FF920F931F93CF93DF930D
:1037B0001F92CDB7DEB7182F22E04FE151E060E055
:1037C00080E00E94D9524091380D50E04F5F5F4F2A
:1037D00022E860E08FE10E9451138091380D282F7C
:1037E00030E0883078F02850310989E0829F30013C
:1037F000839F700C11248BE29BE0680E791E89E098
:10380000982E0CC085E0829F3001839F700C11249C
:10381000A3E0BBE06A0E7B1E05E0902E113609F492
:103820006CC040F4153409F47EC0103671F01434C5
:10383000D9F486C0153609F476C01F3B19F014364A
:1038400099F47EC0109220055FC080918206181600
:103850005CF08091F907813061F018F0823021F43A
:103860003FC081E0809382062301730190EE00E067
:1038700097C0809120058F5F85300CF401C08CEFDC
:103880008093200540912005B2E34B027001112482
:10389000062D292D269530E03195219531094203D9
:1038A000C001439F900D112422E3289F5001299FBE
:1038B000B00C1124F30120E030E0C92CD12C81E0C0
:1038C000C81AD108C9018A0D9B1DB6010E94366A2B
:1038D00061932E0D3F1D8E2F801B891598F3C4CF49
:1038E0008CE9D3018C93F301E90DF11D319784E646
:1038F000808381E080932105B7CF81E60E945D4FF0
:1039000080912105882319F010922105ADCF809177
:10391000820618162CF41092F90710928206A4CF92
:103920000E94B617A1CF8091210581119DCF809172
:10393000F907882309F498CF81508093F90794CF31
:1039400080912105811190CF0091F907E02EF12C93
:103950008091820618162CF4292D30E0215031096F
:103960001AC0E0910E08F0E0EE0FFF1FE858F34F89
:1039700020813181275B3B4561F48091390D0E94A4
:103980005740FC0180818C70883019F422E030E0CF
:1039900002C021E030E0E216F3060CF4C5C064CFAB
:1039A000692F053018F4685D88E101C080E320913B
:1039B0008206121624F42091F907201711F020E056
:1039C00001C022E0D7014D917D01552747FD50955B
:1039D00099830E9451130F5F9981985F091500F335
:1039E0004FE557E168E380E00E94F652909182062D
:1039F000191614F400E005C0809121058111FACF59
:103A000002E081E019160CF480E02091F907829F12
:103A1000202D11244FE053E068E38CE10E94F9521D
:103A200080918206181664F4892C8694712CE12CFE
:103A3000F12CC12CD12CA8E3AA2EBB24BA9419C016
:103A4000809121058111F0CF82EC9EE30F90DF91F0
:103A5000CF911F910F91FF90EF90DF90CF90BF908B
:103A6000AF909F908F907F906F905F904F900C944D
:103A700082514E2DC601682D772D0E94366AE62FA1
:103A8000D2012C91BFEFEB1AFB0AFFE32F0290014A
:103A90001124C9018456974EB5010E94366A2091BF
:103AA0002105222359F030E02E153F0599F5635C7E
:103AB00000E025E045E08E2F845C2AC09091F90754
:103AC000941320C0635C00E025E045E08E2F845C09
:103AD0000E94A3132091330D3091340D232B41F418
:103AE000123631F0133621F0123411F0133491F400
:103AF00024E64CE9D2016C91812F0E94B91BF2019E
:103B0000808308C0625C00E023E043E08E2F835C8A
:103B10000E94A313F0E2CF0ED11C8FEF481A580A6F
:103B2000E91408F4A6CF90CF0F5F0093F9079CCE5D
:103B30000F93332727FD3095552747FD509577275D
:103B400067FD709501E00E94591A0F9108958F92B8
:103B50009F92BF92CF92DF92EF92FF920F931F93AB
:103B6000CF93DF931F92CDB7DEB7F82E66E0C62E57
:103B700075E0E72E0AE316E026E041EE55E061E04D
:103B80000E945531882309F439C122E040E456E00F
:103B900060E080E00E94D9528091630081FF12C0F2
:103BA00048E456E068E18AE20F90DF91CF911F91DF
:103BB0000F91FF90EF90DF90CF90BF909F908F90EC
:103BC0000C94F65240E556E068E082E10E94F6521D
:103BD0008091820618161CF453E0C52E02C042E004
:103BE000C42EDD24D39430E1E32E8D2D0E946B4151
:103BF000882E912C880C991C23E63CE0820E931EA3
:103C000020E0482F6E2D80E00E94C71210E08091C6
:103C1000FA078D1105C08091F907811709F4E7C0F3
:103C200090E0B12C02C0BB24B394113051F112309A
:103C300009F441C0911102C000E001C00C2DF40153
:103C4000208122952695269523704AE952E06E2D13
:103C500088E10E94F952BB2009F44BC0F401608155
:103C6000629566956695637022E040E08F2D0E9414
:103C7000981D8295880F880F807CF40190819F7336
:103C800036C0911102C020E001C02C2DF401418109
:103C9000552747FD50956E2D82E40E945113BB209D
:103CA00041F1F401618124E64CE98F2D0E94981DB9
:103CB000F40181831EC0911102C000E001C00C2DEF
:103CC000F40120812F7344EA52E06E2D88E40E94B3
:103CD000F952BB2071F0F40160816F7323E040E082
:103CE0008F2D0E94981D8F73F4019081907C982BEA
:103CF00090831F5F133009F08ACFF8E0EF0ED39462
:103D000025E0D21272CF11E08091FA07853009F0D8
:103D100010E04BE556E060E380E00E94F65211238C
:103D200011F022E201C020E24091750C552747FDB9
:103D30005095465F5F4F60E38EE40E94511311235C
:103D400049F028E246EF6091750C8F2D0E94981D76
:103D50008093750CEE24E3948091FA07863019F075
:103D6000E12C20E001C022E047E656E068E380E075
:103D70000E94D95204E816E09DE5C92E9CE0D92E98
:103D800090E3F801419151918F01F6012191319118
:103D90006F01421B530B440F551F20E268E3892F2C
:103DA00099830E9451139981985E903951F7EE20C2
:103DB00029F1F0E6FF1222C088E0E4E8F6E0ADE584
:103DC000BCE001900D928A95E1F781E00E94113FDD
:103DD00083E00F90DF91CF911F910F91FF90EF90B3
:103DE000DF90CF90BF909F908F900C94C5398091B9
:103DF000820691E018160CF416CF13CF0F90DF91C6
:103E0000CF911F910F91FF90EF90DF90CF90BF90D7
:103E10009F908F9008957F928F929F92AF92BF92C2
:103E2000CF92DF92EF92FF920F931F93CF93DF9386
:103E3000CDB7DEB765970FB6F894DEBF0FBECDBF26
:103E4000882E22E045EF55E060E080E00E94D952E4
:103E50000E94C11980918106882349F08091FA0758
:103E60008F5F0E94961510928106109280068091B5
:103E70007E0690917F06892B11F000E001C0082D8D
:103E8000809180068111E7C28091580C0E94CD5329
:103E9000811104C0E0C2802F815001C0802FC090EA
:103EA000FA076FE00E94AD5B882309F4F7C2109116
:103EB000FA07063670F4043608F050C10132B1F149
:103EC00020F4003209F0ADC15BC0023608F4A9C18C
:103ED0005DC10138A1F00F3B21F0003809F0A1C10C
:103EE0004FC01091580C1093FA0710928006109250
:103EF0007D068FEF80937C068093820692C180912D
:103F00008006882399F080917D0681110FC0409131
:103F1000580C50E0212F332727FD309542175307C7
:103F200029F0812F0E94CD5381119BC28091800680
:103F3000882309F476C1823021F020917C0627FF86
:103F400013C0212F332727FD3095205F3F4F8091ED
:103F50007D06280F311D87FD3A95C90160E170E0AB
:103F60000E94366A182F01C0122F1093FA07109280
:103F700080068FEF80937C0610927D06802F78C29A
:103F800090918006C12EDD24C7FCD094992309F4BA
:103F9000B8C080917D06811104C080917C0687FDA8
:103FA000B0C0913019F48EE096E002C087E196E04F
:103FB0000E943C1481E00E940F1A9601205F3F4F3F
:103FC00080917D06280F311D87FD3A95C90160E17A
:103FD00070E00E94366AB82E80918006813009F028
:103FE00045C060917C066F5F7E0180E1E80EF11CA8
:103FF000C7010E94D05341E062E08B2D8F5F0E9489
:10400000A10F0F2D0CC0CE0101960E94AB1880911C
:10401000F705882321F01092F605B12E27C04FE056
:1040200050E0BE016F5F7F4F8E2D902F0E94894E12
:10403000682F8111E8CF8091B108882329F00E9470
:10404000134E182F811117C28091AF088093EE058F
:104050009091B0089F708091EF05807F892B8093AD
:10406000EF0561E18091AE080E9489148091580C9F
:1040700080937C0600E110E026C080917D06181632
:104080001CF4C7010F9602C0C7010196B8010E9437
:10409000366AA82E682F6F5F8B2D8F5F0E94891460
:1040A00020917C06332727FD3095E216F30619F49C
:1040B000A0927C0607C04A2D50E04217530711F426
:1040C000B0927C06BA2CEB2CF12CCE14DF04A9F6AE
:1040D00040917C06242F332727FD30958091580C82
:1040E00090E02817390729F04093580C81E00E948E
:1040F000113F109280068FEF80937C0610927D0610
:10410000CDC10038D9F486E296E00E943C1481E0EB
:104110000E940F1A8091580C90E08C159D0541F07B
:104120001093580C81E00E94113F812F0E943D1A8C
:1041300010928006882D0E945D4FB0C1812F9D8B0B
:104140000E94CD539D89882309F46BC0913011F4EE
:1041500082E001C081E08093800663C0412F552733
:1041600047FD50952091580C30E04217530751F409
:10417000043619F087EF94E502C085ED95E40E94BE
:10418000C8398CC189E00E94C5394BC09091800626
:10419000992309F446C080917D06033611F48F5FA0
:1041A00001C08150803111F0803F09F480E02091FE
:1041B0007C0627FF34C0913091F51C2DC0927C06FF
:1041C000F0E1AF2EB12CEC2CF12C212F332727FD61
:1041D0003095C901023611F4419601C00F96B50120
:1041E0000E94366A182F0E94CD53882341F0412F38
:1041F000552747FD50954E155F0539F71FEF109372
:10420000FA071F3F49F482E00E94C539C092FA07BD
:104210001092800610937C061091FA0780E080933C
:104220007D0644E356E060E080E30E94F6520E947F
:10423000D84EAC0120E060E086E60E945113C12E0A
:10424000DD24C7FCD0948091580C90E0C816D906A4
:1042500011F442E001C040E06AE080E00E94751382
:1042600080917B06A601481B51091416150644F0DF
:1042700096012150310937FF0EC020E030E00BC01D
:104280004630510554F09601245031092A30310549
:1042900014F029E030E020937B06E8E09E2EA12C6C
:1042A000B12C70907B067A0C90918006911105C01C
:1042B000472D50E0C416D50611F020E101C022E1DF
:1042C000E72CF12CA7014F5F5F4F02E0692D84E1DD
:1042D0009D8B0E94E5109D89923009F4DAC09130DF
:1042E00009F04CC080917C0687FFCEC047C0782E75
:1042F0004BE2692D8AE70E94CA5340C070907D0648
:10430000710E3CC080917D0687FF1BC0EC14FD043C
:1043100044F4A601480F511D87FD5A95E416F50691
:1043200074F49FE0E91AF108CE14DF043CF1A60111
:10433000480F511D87FD5A954E155F05FCF4739487
:104340001DC08823D9F0CE14DF0444F4A601480F21
:10435000511D87FD5A954E155F0574F49FE0E90ED7
:10436000F11CEC14FD0454F0A601480F511D87FD0B
:104370005A95E416F50614F48FE0780E9FE0792242
:10438000872D0E94CD53882339F1872D0E9430104C
:104390007C0100E0272D4BEF55E0692D88E10E945C
:1043A000AB1220E0A701692D88E70E94511380918C
:1043B000580C781211C080917C0687FD08C080914E
:1043C0007B06A501480F511D4C155D0529F04AE2F9
:1043D000692D81E00E94CA53F0908006FF20E9F029
:1043E00080917B06A501480F511DC416D506A9F47E
:1043F00000E027E046E7692D89E00E94A31381E0F1
:10440000F81202C00FEF01C005E5692D6150E12CE3
:1044100029E048E788E00E9429519FEFA91AB90ACC
:1044200088E0980E90E499123CCF40917E0650911E
:104430007F06452B99F1812F0E9430102BEF35E03C
:104440003093FA052093F9058AE08093F805882DCA
:104450000E940F1423C0802F8F71813009F41BCD6F
:104460001DCD4DEF55E050937F0640937E0681E8C9
:104470000E945D4FD6CE60E08091B1080E94F23E6E
:10448000812F0E94E84EE0CDEC14FD0409F03ACFF4
:104490002ECFEC14FD0409F035CF30CF65960FB662
:1044A000F894DEBF0FBECDBFDF91CF911F910F916A
:1044B000FF90EF90DF90CF90BF90AF909F908F9044
:1044C0007F90089578941F920F920FB60F92112447
:1044D0000F931F932F933F934F935F936F937F930C
:1044E0008F939F93AF93BF93CF93DF93EF93FF93FC
:1044F000F89487B78D7F87BF81B78E5F81BF78942F
:1045000090913C0D992371F080913E0D882351F0DC
:104510008091680D890F8093680D87FF02C01B9AF8
:1045200001C01B9880910401882321F08150809361
:104530000401B4C08DE48093040180913E0D882372
:1045400059F0815080933E0D80913D0D90913C0D2E
:10455000890F80933C0D2AC01B9880913F0D8823C2
:1045600021F0815080933F0D21C080913A0D9091B0
:104570003B0D8917D9F090E0FC01E65CF24F2681F3
:1045800020933C0D268920933E0D268520933D0DDA
:10459000268D20933F0D26A1322F315036A32111B5
:1045A00005C001968770992780933A0D8091E407A2
:1045B0009091E50701969093E5078093E407809139
:1045C000E3068F5F8093E30606B3009540E050E07A
:1045D00010E0EA012196B8010C2E02C0759567958E
:1045E0000A94E2F76170CA01880F991F840F951F22
:1045F0008754994F0E947D4FAE01C630D10549F7CF
:1046000010B31095C6E0D0E0FE01E951FA4FE491F5
:10461000E12361E009F460E0CE01880F991F8C0F5F
:104620009D1FAE018754994F0E947D4F2196CE3039
:10463000D10551F7C091B806C0FF09C08091E407C9
:104640009091E507811103C08DE00E94C539C1FF3B
:104650000CC08091E4079091E507803429F18091A6
:10466000E4079091E5078834F9F0C2FF12C0809109
:10467000E4079091E5078038D9F08091E4079091A4
:10468000E5078838A9F08091E4079091E507803923
:1046900079F080914409826080934409F89487B747
:1046A000826087BF789408C08EE00E94C539DDCF54
:1046B0008FE00E94C539EDCFFF91EF91DF91CF914F
:1046C000BF91AF919F918F917F916F915F914F912A
:1046D0003F912F911F910F910F900FBE0F901F9040
:1046E00018951F920F920FB60F9211242F933F939C
:1046F0004F935F936F937F938F939F93AF93BF93EA
:10470000CF93DF93EF93FF932CB18BB18C7161F05A
:104710001092B7061092B6061092B5061092B40623
:1047200081E08093B30620E08AB18091B30690E0E7
:10473000FC013197E831F10508F008C1EA5BFF4F51
:104740000C94886A2B3289F040F4233281F02532B0
:1047500081F0213209F0FAC006C0203571F0283509
:1047600009F0F4C008C083E0B7C086E0B5C089E0B6
:10477000B3C08CE0B1C08FE0AFC082E1ADC02132E8
:1047800009F0A9C084E0A8C0213209F0A4C084E1E6
:104790008093B3062093E40681E08093E50680E0F1
:1047A000E82FF0E0E055F94F10828F5F8230C0F3C0
:1047B0007EC02B3209F08FC087E08EC02B3209F00B
:1047C0008AC084E18093B3062093E40681E080935D
:1047D000E50680E0E82FF0E0E055F94F10828F5FAA
:1047E0008230C0F364C0233209F075C08AE074C01F
:1047F000233209F070C088E18093B3062093E40669
:1048000081E08093E50680E0E82FF0E0E055F94F85
:1048100010828F5F8230C0F34AC0253209F05BC03E
:104820008DE05AC0253209F056C088E18093B30666
:104830002093E40681E08093E50680E0E82FF0E035
:10484000E055F94F10828F5F8230C0F330C02835B9
:1048500009F041C080E140C02835E9F588E1809346
:10486000B3062093E40681E08093E50680E0E82F1C
:10487000F0E0E055F94F10828F5F8230C0F317C02F
:10488000203549F583E128C0203529F588E180935A
:10489000B3062093E40681E08093E50680E0E82FEC
:1048A000F0E0E055F94F10828F5F8230C0F38093C3
:1048B000B2064CC085E110C086E10EC087E10CC095
:1048C0002A3349F488E108C02A3229F05091E506DC
:1048D0002C3261F404C081E08093B30637C084E1D8
:1048E0008093B3065F5F5093E50630C06091E406A5
:1048F00030E07BE027C0832F90E0FC01EC54F94FBF
:10490000408164131EC0FC01EA54F94F40815413E6
:1049100018C0EC01C055D94F48814A3090F4789FB7
:10492000F001799FF00D1124DF01A40FB11DA656EF
:10493000B94F2C934F5F4883E40FF11DE656F94FB2
:1049400010823F5F3230B8F23093B206FF91EF91A0
:10495000DF91CF91BF91AF919F918F917F916F9197
:104960005F914F913F912F910F900FBE0F901F902D
:1049700018951F920F920FB60F9211242F938F93B9
:104980009F93EF93FF938091C00881508093C0085C
:104990001816C4F480919806909199069FBB8EBB1F
:1049A000E0919606F091970621912DBBE29AE19A4B
:1049B00001969093990680939806F0939706E0935A
:1049C000960601C0E398FF91EF919F918F912F91EF
:1049D0000F900FBE0F901F9018951F920F920FB659
:1049E0000F9211242F933F934F935F936F937F9375
:1049F0008F939F93AF93BF93CF93EF93FF93CCB5D8
:104A00008091E606882321F0C09A1092E60604C041
:104A1000C09881E08093E606A0910201B091030165
:104A2000FD01819191919BBD8ABDF0930301E093BB
:104A3000020112968D919C911397892BB1F480916C
:104A400058098295817091E089278093E60687B79F
:104A50008F7E87BF0E9454428091570987708230B1
:104A600021F087B7806187BF7894809195068C1775
:104A700010F4C093950680919406C81710F4C09363
:104A8000940680914409816080934409FF91EF91DD
:104A9000CF91BF91AF919F918F917F916F915F91D6
:104AA0004F913F912F910F900FBE0F901F9018952F
:104AB0001F920F920FB60F9211242F933F934F9393
:104AC0005F936F937F938F939F93AF93BF93EF9376
:104AD000FF9380E492EA97BD86BD80917800909123
:104AE00079008F3F910538F488E598E99093790033
:104AF0008093780008C088EC90E0909379008093D0
:104B000078000E945442FF91EF91BF91AF919F9125
:104B10008F917F916F915F914F913F912F910F9066
:104B20000FBE0F901F9018951F920F920FB60F9205
:104B300011242F938F939F93EF93FF9388B391E06A
:104B4000892788BBE0910201F09103012191F09344
:104B50000301E0930201822F90E097BD86BD293CBE
:104B600008F0C09A80914409816080934409FF91C4
:104B7000EF919F918F912F910F900FBE0F901F90EB
:104B800018951F920F920FB60F9211242F933F93F7
:104B90004F935F936F937F938F939F93AF93BF9345
:104BA000CF93EF93FF93209180003091810080910B
:104BB0007D008F7D80937D0078948091E7069091B1
:104BC000E806A901481B590BCA0196958795AC01C7
:104BD000415A5F404F3D5E4220F481E08093E906F8
:104BE0002FC0C091E9064C2F4150483048F5AC0128
:104BF000415253404737554008F5EC2FF0E0EE0F97
:104C0000FF1FEE57F94FBC016C5D75404091750C6C
:104C1000552747FD5095465F5F4F649FC001659FD4
:104C2000900D749F900D11246AE070E00E94366A26
:104C300071836083CF5FC093E90602C01092E906DA
:104C40003093E8062093E706F89480917D00806217
:104C500080937D00FF91EF91CF91BF91AF919F9194
:104C60008F917F916F915F914F913F912F910F9015
:104C70000FBE0F901F9018951F920F920FB60F92B4
:104C800011248F93EF93FF93E3E8F6E080818F5F29
:104C90008083FF91EF918F910F900FBE0F901F9027
:104CA00018956F927F928F929F92AF92BF92CF9200
:104CB000DF92EF92FF920F931F93CF93DF93C82F52
:104CC00000E12AE049E052E067E00E94464D882377
:104CD00009F48CC022E044EC56E060E080E00E94E1
:104CE000D952C090FA07CA94C03611F0C43641F4C4
:104CF000C7FC06C0C092380D88EC9BE10E94D81713
:104D0000A12C912CBB24B39418E0DD24C7FCD094D3
:104D100095E0892E29E0722E20917B062A0DE22E45
:104D2000F12CCE14DF0411F402E001C000E066248F
:104D30006394283028F4612C87E08B1528F44FC049
:104D4000E6E0EB1508F44BC0911001C0902E2F5FE8
:104D50004CEC56E0612F80E00E943912662059F039
:104D6000F8E0EF1AF1087E9CE0017F9CD00D112441
:104D7000C55DD44F07C08E9CE0018F9CD00D1124DF
:104D8000CD5FD44F7E010CE2F70141917F015527A1
:104D900047FD509520E0612F802F0E9451130B5E3C
:104DA000053991F788E0F82EF10E611003C0B39435
:104DB0001F2D11C025960CE24991552747FD5095AE
:104DC00020E06F2D802F0E9451130B5E0038A1F759
:104DD000105FB394B394A394F7E0AF129DCF9110FA
:104DE00005C080917B068F5F80937B06DF91CF911A
:104DF0001F910F91FF90EF90DF90CF90BF90AF90F9
:104E00009F908F907F906F9008950F9300E026E021
:104E100041EE55E062E00E94464D882349F122E0D0
:104E20004FEC56E060E080E00E94D95267ED76E0FA
:104E300080E10E94F05265EE76E088E10E94F05237
:104E400067EF76E080E20E94F05268E077E088E267
:104E50000E94F05267E177E088E30E94F0524091AF
:104E60002B0C20E850E068E380E30F910C94511381
:104E70000F910895CF92DF92EF92FF920F931F93BD
:104E8000CF93DF931F92CDB7DEB700E026E041EE6F
:104E900055E063E00E94464D882309F482C022E079
:104EA00040E257E060E080E00E94D9524EE0C42E1C
:104EB000D12C10E04C2D8C2D8E50012F843008F019
:104EC0000850C60149830E948241F82E49814D5005
:104ED00020E0602F80E30E940753FF2011F022E0C2
:104EE00001C020E04F2D405D602F84E40E94C75137
:104EF000185F8FEFC81AD80A1834E1F618E3C12CEE
:104F0000D12CC6010E948241F82E00E02C2D4AE2ED
:104F100055E0612F80E00E94F9524F2D405D2F2D0A
:104F2000612F80E20E94C751EFEFCE1ADE0A1850BF
:104F3000183039F745E257E068E184E50E94F652FF
:104F400036E0C32ED12C10E2202F4BE656E0612F25
:104F500084E50E948310C6010E948241E82EC601AA
:104F600001960E948241F82EEE2011F022E001C04D
:104F700020E04E2D405D612F8CE60E94C751FF203E
:104F800011F022E001C020E04F2D405D612F88E745
:104F90000E94C7510F5F185FF2E0CF0ED11C0430A2
:104FA00099F60F90DF91CF911F910F91FF90EF90A5
:104FB000DF90CF9008956F927F928F929F92AF92E1
:104FC000BF92CF92DF92EF92FF920F931F93CF93F6
:104FD000DF931F92CDB7DEB7982E01E026E041EEB9
:104FE00055E064E00E94464D882309F494C022E015
:104FF0004DE257E060E080E00E94D9526FE9662EF2
:1050000068E0762EB12C812CC12C74E0D72EE12CD7
:10501000F12CA82CA39400E02A2D41E357E06B2D3E
:1050200088E10E943912882D0E94EE3F8C0194E4A1
:105030009550A8014F7055274A302CF0495C4134F7
:105040001CF028E002C0405D20E06B2D892F998381
:105050000E94C75154E0169507955A95E1F799813A
:10506000903331F747E0841689F0F301A081B181D4
:1050700024E630E00E94F769A70196010E946C6A5D
:10508000422F6B2D86E60E949D130FC08091FA0778
:10509000813011F422E001C020E0409113085091CA
:1050A00014086B2D86E60E945713F8E0BF0E42E00D
:1050B000640E711C8A2CAF12ACCF43E357E068E258
:1050C00082E70E94F65240910C0850910D0820E0B2
:1050D00060E38EE70E94511387E00E94EE3F23E2D7
:1050E000FC012E9FC0012F9F900D1124492F469542
:1050F00020E250E068E38EE70E9451138091FA07A6
:10510000813049F42FE741E860915B0C892D0E94C2
:10511000981D80935B0C0F90DF91CF911F910F91A1
:10512000FF90EF90DF90CF90BF90AF909F908F90C7
:105130007F906F900895DF92EF92FF920F931F93ED
:10514000CF93DF93F82E00E026E041EE55E065E0D6
:105150000E94464D882309F4D4C022E046E357E07C
:1051600060E080E00E94D952C9E0D6E010E0812FD3
:105170000E94EE3F9C0148815981841795070CF4E9
:10518000AC01499359934C855D85421753070CF444
:10519000A9015D874C871F5F173049F7C091ED0665
:1051A000C093EA0680E2F81621F08FEBF8120CC0EB
:1051B00009C08C2F8F5F8093ED06833029F481E046
:1051C0000E94113F1092ED068091ED06813061F052
:1051D00020F0823009F08CC02FC042E457E068E133
:1051E00082E10E94F65284C0CC2311F022E001C07B
:1051F00020E043E557E060E18EE10E94D9524EE5A0
:1052000057E068E182E10E94F652CBEFD5E0D12C65
:1052100018E9E12E1AE3F12E08E615ECFF86EE867A
:105220001D8F0C8F8D2D0E94EE3F89939993D394FF
:1052300087E0D812F3CF5CC0CC2311F022E001C08C
:1052400020E04FE657E060E182E10E94D9524EE54E
:1052500057E068E182E10E94F652E9E0F6E0ACE254
:10526000BCE061917191848595859B01281B390B68
:1052700037FF03C03195219531092333310564F19E
:10528000EF0160974881598111965C934E939A0182
:10529000261B370BB90137FF02C0615C7F4FD6E098
:1052A00075956795DA95E1F7261B370B1F963C93AA
:1052B0002E931E97841B950B9C0197FF02C0215CC7
:1052C0003F4FC6E035952795CA95E1F7821B930BB2
:1052D0005D969C938E935C97129686E0E731F80773
:1052E00009F0BFCF0E9439409093570C8093560C21
:1052F000DF91CF911F910F91FF90EF90DF900C9471
:10530000873BDF91CF911F910F91FF90EF90DF903E
:1053100008952F923F924F925F926F927F928F9259
:105320009F92AF92BF92CF92DF92EF92FF920F9334
:105330001F93CF93DF9300D01F92CDB7DEB7382EE7
:10534000698380917E0690917F06892B11F0712CE4
:1053500001C07980172D1F7180918006F72C88235A
:1053600019F0113009F4FA94332019F042EC58E1A5
:1053700002C045EB56E022E060E080E00E94D95296
:10538000832D0E945F409091360D20E0482F50E021
:1053900060E0892F815F0E945113332019F04CEB9C
:1053A00056E002C040EC56E060E08091360D0E946D
:1053B000F652009105010150332011F064E001C064
:1053C00065E02AE049E052E08F2D0E94464D882397
:1053D00009F452C44090FA0723E6271598F082E6B4
:1053E000781608F009C1A1E27A1689F1A71520F014
:1053F000B0E27B124AC155C0872D8254823008F03A
:1054000044C1FAC0E5E8E71560F0F4E87F1608F05B
:10541000A1C020E8721609F472C081E8781235C183
:1054200006C0872D8E5B823008F02FC16FC080913F
:105430008006882349F080917D06811105C0609126
:10544000390D832D0E94E01481E80E945D4F809108
:105450007D06882309F45AC080918006813031F49A
:105460006091390D832D0E94E01416C061E0809197
:105470007D0618160CF060E0832D0E94000F8091CD
:105480007D0687FF02C08F5F01C0815080937D063B
:1054900080917D068111EACF40907C064092FA0708
:1054A00035C08091370D882341F080918006882394
:1054B00031F180917D06811122C08091800681307A
:1054C00011F482E001C081E0809380068091390D63
:1054D0008093EB06332041F00E945740DC018C9111
:1054E00086958695837005C00E944F40FC0180819F
:1054F0008F708F5F8093EC0640927C06C6C0872D2C
:105500000E945D4F80917D06882329F010928006CD
:1055100010927D06BAC08091800681111092370DDD
:105520008091370D882351F0832D0E948140811195
:10553000ACC06091390D832D0E942A15332019F0DB
:1055400087EB9BE502C08EE99DE50E94D81710927B
:10555000800692C380918006882309F496C08091CA
:105560007D06811192C0832D0E94814081118DC0E2
:105570008091390D332041F00E945740DC018C911D
:1055800086958695837005C00E944F40FC018081FE
:105590008F708F5F8093370DF4E87F1205C0809184
:1055A000390D8F5F8093390D6091390D832D0E94E5
:1055B0002A15332019F087EB9BE502C08EE99DE5A3
:1055C0000E94D81710928006872D0F900F900F9091
:1055D000DF91CF911F910F91FF90EF90DF90CF90CF
:1055E000BF90AF909F908F907F906F905F904F9003
:1055F0003F902F900C945D4F80918006882309F492
:1056000044C090917D06092F133011F4015001C060
:105610000F5F91111FC0813071F5832D0E94814071
:10562000811133C06091390D832D0E941A601230B0
:1056300021F48091390D8F5F1BC080917B06242D52
:1056400030E0281B310926303105ECF08F5F809364
:105650007B0619C001110FC0813069F46091390DCA
:10566000832D0E94E014133071F48091390D815024
:105670008093390D08C061E0133009F060E0832D9C
:105680000E94000F811100937D061092370D552462
:105690005394212C11E0A9C22DE0221508F4D0C2A8
:1056A000822D0E9457404C01DC012C91822F86955F
:1056B0008695837090E001968A159B0509F0C0C21B
:1056C000237009F0C2C2BCC2BFE1B21508F4B8C26F
:1056D000822D0E944F406C01FC0186818F7709F476
:1056E000AFC280818F7090E001968A159B0509F00A
:1056F000A7C2AEC2212F30E0281B31092830310566
:1057000074F4622F660F660F660F20E0452D80E06F
:10571000332019F00E94C71202C00E94F612622CB8
:1057200003C04C016F01142F809180068823E1F1A2
:10573000823081F580917B06811760F5E12FF0E0E2
:10574000E81BF109E830F1052CF58091EC06851194
:1057500021C020917D062223E9F0862D90E0409122
:10576000EB06332727FD30952227330F221F3327DF
:10577000240F311D8217930769F46E2F660F660F91
:10578000660F6150E12C05E529E04AE686E10E94BA
:1057900029511F5F8091390D86110BC01093FA07B4
:1057A0005092370D412E05C0411203C06092390D51
:1057B000142D80917B06811708F06FC1212F30E0F6
:1057C000281B3109283031050CF067C1F22EFF0C7F
:1057D000FF0CFF0C862D332009F4B1C00E94574006
:1057E0009B838A8380918006811102C0411611F04B
:1057F00000E001C002E0AA81BB8112964C9146955F
:10580000202F50E06F2D82E20E945113002399F067
:10581000EA81FB816281669524E640E0872D0E9443
:10582000B91B880FAA81BB8112969C911297917027
:10583000982B12969C93AA81BB811396EC914E2FC4
:10584000552747FD509520E06F2D87E30E945113A7
:10585000EA81FB818281418142954695477080FDB6
:10586000419520E06F2D8CE30E948612AA81BB81B6
:1058700011964C91440F440F440F4595459545951D
:1058800020E06F2D82E50E940753EA81FB81808131
:105890008370833049F0823011F44EE701C04FE746
:1058A0006F2D86E60E94CA53AA81BB812C91822F5C
:1058B000807F79F022952F70822F90E00B9714F063
:1058C00044E001C040E0420F20E06F2D8EE60E94D0
:1058D0005F1240918006442309F4DFC0413021F07B
:1058E00080917D06811123C08091EC0685111FC037
:1058F000862D90E05091EB0620917D06332727FD01
:1059000030952227330F221F3327250F311D821791
:10591000930769F4413011F40FEF01C005E56F2DD5
:105920006150E12C29E04EE682E10E9429511411D8
:10593000B4C000E027E04CE66F2D83E1ACC00E94CC
:105940004F409B838A83621469F0FC012281229577
:1059500026952695237000E043E653E06F2D86E000
:105960000E94F952AA81BB8116964C914F7720E094
:105970006F2D8AE10E94EB1280918006811102C096
:10598000411611F000E001C002E0AA81BB8111962E
:10599000EC914E2F552747FD5095202F6F2D89E410
:1059A0000E945113002361F02DE743E8EA81FB8157
:1059B0006181872D0E94B91BAA81BB8111968C93AE
:1059C000EA81FB814381842F8F7349F0440F440F98
:1059D0004595459520E06F2D8FE40E945F12AA81C6
:1059E000BB8112964C91842F8F7349F0440F440F62
:1059F0004595459520E06F2D86E60E940753EA8184
:105A0000FB818581811102C040E201C043E5AA818A
:105A1000BB8114968C91882329F0433511F44AE216
:105A200001C044E420E06F2D8BE70E94C7514091F4
:105A30008006442391F1413021F080917D0681114F
:105A400023C08091EC0685111FC0862D90E05091F7
:105A5000EB0620917D06332727FD30952227330F53
:105A6000221F3327250F311D8217930769F4413018
:105A700011F40FEF01C005E56F2D6150E12C29E015
:105A80004AE686E10E942951141107C000E027E090
:105A900048E66F2D87E10E94A313412F4F5F639467
:105AA000F6013996C40104963320A1F0BDE0B61585
:105AB00020F1D40114965C91252F2695269523700C
:105AC00030E02F5F3F4F2A153B05B9F4537009F0C2
:105AD00028CE13C0BFE1B61580F0D6011F962C91D9
