:100000000C94C20C0C94DF0C0C94DF0C0C94DF0CE1
:100010000C94DF0C0C94DF0C0C94DF0C0C94DF0CB4
:100020000C94DF0C0C94DF0C0C94DF0C0C94A647A2
:100030000C94CC460C94DF0C0C94DF0C0C946B44A9
:100040000C9452480C94DF0C0C9479450C94DF0C02
:100050000C94DF0C0C94DF0C0C9472470C94DF0CA6
:100060000C9436470C94D3470C94DF0C0C94DF0CA3
:100070000C94DF0C0C94DF0C0C94DF0C0C94DF0C54
:100080000C94DF0C0C94DF0C0C94DF0CAF45B846DD
:10009000CD45D245B846E745EC45B846014606464B
:1000A000B8461B462046B84635463A46B8464E4600
:1000B000524668466A466C466E4672460102030422
:1000C00001030204040203010403020142616420EB
:1000D000454570726F6D204461746100466F726DAA
:1000E00061747461676520454550524F4D004D4520
:1000F00053534147450053505300804000000000D7
:1001000000000000000000000000000000000000EF
:1001100000000000000000000000000000000000DF
:1001200000000000000000000000000000000000CF
:1001300000000000000000000000000000000000BF
:1001400000000000000000000000000000000000AF
:10015000000000000000000000000000000000009F
:10016000000000000000000000000000000000008F
:10017000000000000000000000000000FCFCFCFC8F
:10018000FCFCFCFCFCFCFCFCFCFCFCFCFCFCFCFCAF
:10019000FCFCFCFCFCFCFCFCFCFCFCFCFCFCFCFC9F
:1001A000FCFCFCFCFCFCFCFCFCFCFCFCFCFCFCFC8F
:1001B000FCFCFCFCFCFCFCFCFCFCFCFCFCFCFCFC7F
:1001C000FCFCFCFCFCFCFCFCFCFCFCFCFCFCFCFC6F
:1001D000FCFCFCFCFCFCFCFCFCFCFCFCFCFCFCFC5F
:1001E000FCFCFCFCFCFCFCFCFCFCFCFCFCFCFCFC4F
:1001F000FCFCFCFCFCFCFCFCFCFCFCFCFFFFFFFF33
:10020000FFFFFFFFFF7F7F3F3F3F3F3F3F7F7FFF7E
:10021000FFFFFFFFFFFFFF3F3F3F3F3FFF7F7F3F6E
:100220003F3F3F7FFFFFFFFFFFFFFFFFFF7F7F3F5E
:100230003F3F3F3F3F7F7FFFFFFFFFFFFFFFFFFF8E
:100240003F3F3F3F3FFF7F3F3F3F3F3F7FFFFFFF3E
:10025000FF7F0F07030181E0F0F0F0E000010107EC
:100260001FFFFFFFFFFFBF3F3F3F3F7FFFFFFFFF3E
:10027000FF7F3F3F3F3F3FBFFFFFFFFFFFFFFFFF0E
:100280003F07030100C0F0F8FCFCFCFCF800000094
:100290000103FFFFFF3F0100000080E0F8FCFCFCD1
:1002A000F80000000001FFFF3F07030100001018E5
:1002B0001C1C1C1C180000000103FFFFFFFF1F0097
:1002C000000000C0F8FCFCFC1000000000C0FFFFB4
:1002D000FFE0800000000F1F1F1F0F030000000041
:1002E000E0FFFFFFFFFFFFFEF8E00000010707014E
:1002F00080E0F0F8FCFEFFFFFFFFFFFFFFFFFFFFC6
:10030000E0C08000000F1F1F1F1F0F070180C0E00B
:10031000F0FEFFFF0700000000C00F1F1F1F0F07A8
:10032000010080E0F0FEFFFFE0C08000000E0E1E26
:100330001E1E1E1E1E1E0ECEFEFEFFFF7F030000B1
:100340000080FCFFFFFF3F0300000080FCFFFF1F59
:100350000F0F1F1F1E1E1E0E0E0781C0E0F0FCFFB8
:10036000FFFFFF7F3F1F0F030180E0F0F8E08000F8
:1003700001071F7FFFFFFFFFFFFFFFFFFFFFFFFFE3
:10038000FFFFFFFFFFFEFEFEFEFEFEFFFFFFFFFF83
:10039000FFFF1F00000000C0FEFFFFFEFEFEFEFE8E
:1003A000FFFFFFFFFFFFFFFFFFFFFFFFFFFEFEFE60
:1003B000FEFEFEFEFEFFFFFFFFFFFFFFFEFEFEFE56
:1003C000FEFFFFFFFFFFFEFEFEFEFEFFFFFFFFFF43
:1003D000FFFEFEFEFEFEFEFEFFFFFFFFFFFFFFFF34
:1003E000FFFFFEFEFEFEFEFEFFFFFFFFFFFFFFFE24
:1003F000FEFEFEFEFFFFFFFFFFFFFFFF1F1F1F1F91
:100400001F1F1F1F1F1F1F1F1F1F1F1F1F1F1F1FFC
:100410001F1F1F1F1F1F1F1F1F1F1F1F1F1F1F1FEC
:100420001F1F1F1F1F1F1F1F1F1F1F1F1F1F1F1FDC
:100430001F1F1F1F1F1F1F1F1F1F1F1F1F1F1F1FCC
:100440001F1F1F1F1F1F1F1F1F1F1F1F1F1F1F1FBC
:100450001F1F1F1F1F1F1F1F1F1F1F1F1F1F1F1FAC
:100460001F1F1F1F1F1F1F1F1F1F1F1F1F1F1F1F9C
:100470001F1F1F1F1F1F1F1F1F1F1F1F0000000008
:10048000000000000000000000000000000000006C
:10049000000000000000000000000000000000005C
:1004A000000000000000000000000000000000004C
:1004B000000000000000000000000000000000003C
:1004C000000000000000000000000000000000002C
:1004D000000000000000000000000000000000001C
:1004E000000000000000000000000000000000000C
:1004F0000000000000000000000000005350450014
:10050000454550524F4D206C6F77206D656D00470B
:10051000617A207061732061207A65726F00526584
:10052000696E697469616C6973657A206C650053E2
:100530007769746368657320656E636C656E636864
:100540006573005265696E697469616C6973657A77
:10055000206C657300416C61726D65732044657336
:1005600061637469766565730050080000000000DF
:100570000000006F000007000700147F147F1424A0
:100580002A7F2A1223130864623649552250000537
:10059000030000001C2241000041221C0014083E00
:1005A000081408083E080800503000000808080831
:1005B0000800606000002010080402003E41413E37
:1005C0000000427F400062514946004149493600DF
:1005D0001814127F0027454539003E494932000171
:1005E0007905030036494936000649291E000036C0
:1005F000360000005636000008142241141414146A
:1006000014412214080002015109060609090600D6
:100610007E0909097E7F494949363E414141227F91
:100620004141221C7F494949417F090909013E4155
:1006300049497A7F0808087F00417F4100204041F6
:100640003F017F081422417F404040407F020C025E
:100650007F7F0408107F3E4141413E7F0909090622
:100660003E4151215E7F09192946264949493201F7
:10067000017F01013F4040403F1F2040201F3F407D
:1006800030403F631408146307087008076151493C
:100690004543007F41410002040810200041417F92
:1006A00000040201020440404040400001020400F6
:1006B00020545454787F48444438384444442038C3
:1006C0004444487F3854545418087E0901020C529F
:1006D00052523E7F0804047800447D40002040448C
:1006E0003D007F1028440000417F40007C04180436
:1006F000787C0804047838444444387C1414140882
:10070000081414187C7C0804040848545454200429
:100710003F4440203C4040207C1C2040201C3C406A
:1007200020403C44281028440C5050503C44645411
:100730004C44000836410000007F000000413608AC
:10074000000808221C08081C220808A060000000FD
:100750000000000000000000000000FEFE0000009D
:100760000000003E7E00007E3E00006060FEFE60F5
:1007700060FEFE606060F09898FEFE989818180C75
:100780001E1E0C80C0E070381878FC8EC6E6763CE1
:10079000180000000066763E1E000000000000E029
:1007A000F0381C0E0600000000060E1C38F0E000B9
:1007B000006060C080F8F880C0606080808080F851
:1007C000F8808080800000000000000000000080B1
:1007D0008080808080808080800000000000000099
:1007E0000000000000000080C0E070381800000029
:1007F0000000000000000000000000717100000017
:10080000000000000000000000000006067F7F06D8
:10081000067F7F0606181819197F7F19190F061809
:100820001C0E070301307878301E3F716367663C09
:100830003C666600000000000000000000000007A9
:100840000F1C387060000000006070381C0F07003B
:1008500000060603011F1F01030606010101011F17
:100860001F01010101000066763E1E00000000012C
:10087000010101010101010101000030787830001F
:10088000000000181C0E070301000000000000F823
:10089000FC0E06060EFCF80000181CFEFE00000010
:1008A000000000181C0E0686CEFC780000060686A6
:1008B0008686CEFC78000080C0E070381CFEFE000A
:1008C000007E7E666666E6C6860000F8FC8E86863A
:1008D0008E1C180000060686C6E6763E1E000078CE
:1008E000FCCE8686CEFC78000078FCCE8686CEFCD8
:1008F000F800003078783000000000000030787890
:100900003000000000000080C0E070381C0E06605F
:10091000606060606060606060060E1C3870E0C0FF
:10092000800000181C0E06060686CEFC7800001F0C
:100930003F706060703F1F000060607F7F606000FC
:10094000000000787C6E6763616060000060606139
:100950006161733F1E00000707060606067F7F00E1
:10096000001838706060703F1F00001F3F716161A8
:10097000733F1E000000007F7F0000000000001E8B
:100980003F736161733F1E000000006171391D0FEC
:100990000700000C1E1E0C00000000000066763EE2
:1009A0001E0000000000000103070E1C38706006E6
:1009B0000606060606060606066070381C0E0703C5
:1009C0000100000000000066670301000078FCCE13
:1009D0008686CEFC780000E0F0B89C8E8E9CB8F045
:1009E000E0FEFE8686868686CEFC78F8FC0E06063D
:1009F00006060E1C18FEFE0606060E1C38F0E0FE6B
:100A0000FE8686868686860606FEFE86868686861E
:100A1000860606F8FC0E068686868E9C98FEFE806C
:100A20008080808080FEFE00000606FEFE06060036
:100A300000000000000606FEFE0606FEFE80C0E086
:100A400070381C0E06FEFE0000000000000000FED4
:100A5000FE1C38F0F0381CFEFEFEFE70E0C0800088
:100A600000FEFEF8FC0E060606060EFCF80000016D
:100A7000010101000000007F7F0101010101017FF0
:100A80007F7F7F6161616161733F1E1F3F706060A6
:100A900060607038187F7F60606070381C0F077F5F
:100AA0007F61616161616160607F7F0101010101BE
:100AB0000100001F3F7060616161717F3F7F7F01B6
:100AC00001010101017F7F000060607F7F606000A5
:100AD000001838706060703F1F00007F7F010307BF
:100AE0000E1C3870607F7F60606060606060607F57
:100AF0007F0000010100007F7F7F7F00000103076E
:100B00000E7F7F1F3F7060606060703F1FFEFE863B
:100B100086868686CEFC78F8FC0E060606060EFC57
:100B2000F8FEFE8686868686CEFC7878FCCE8686A3
:100B300086868E1C1806060606FEFE06060606FEBD
:100B4000FE000000000000FEFEFEFE0000000000AF
:100B500000FEFEFEFE000000000000FEFE1E3E70D5
:100B6000E0C0C0E0703E1E7EFEC080000080C0FE7F
:100B70007E0606060686C6E6763E1E0000FEFE06D9
:100B80000606060000183870E0C080000000000073
:100B90000006060606FEFE00006070381C0E0E1CE5
:100BA000387060000000000000000000007F7F013E
:100BB000010101010100001F3F7060666E3C387F3B
:100BC000677F7F0101070F1D3970601838716161FF
:100BD0006161733F1E000000007F7F000000001F66
:100BE0003F7060606060703F1F070F1C3870703886
:100BF0001C0F071F3F70703E3E70703F1F787C0EC9
:100C0000070303070E7C78000001037F7F030100C8
:100C100000787C6E6763616060606000007F7F6069
:100C20006060600000000000000103070E1C180057
:100C300000606060607F7F00000000000000000036
:100C400000000060606060606060606060000006DE
:100C50000E1C387060000000006060606060E0C0E2
:100C600080FEFE80C0E06060E0C08080C0E0606028
:100C7000606060000080C0E06060E0C080FEFE80D8
:100C8000C0E060606060E0C0808080F8FC8E860616
:100C90000E1C18E0F0381818181818F8F8FEFE8026
:100CA000C0E06060E0C08000006060E6E600000038
:100CB00000000000006060E6E60000FEFE0000802C
:100CC000C0E060000000000606FEFE00000000E03C
:100CD000E060E0C0C0E0E0C080E0E080C0E06060D4
:100CE000E0C08080C0E060606060E0C08000000024
:100CF00000000000000000183C7E66666666667FA5
:100D00007F7F7F6161606060703F1F1F3F70606028
:100D100060607038181F3F7060606061617F7F1F86
:100D20003F766666666666070701017F7F01010000
:100D300000000001036766666666763F1F7F7F01DD
:100D400001000000007F7F000060607F7F60600026
:100D5000001838706060703F1F00007F7F060F1F13
:100D60003970600000000060607F7F606000007F7D
:100D70007F0000070700007F7F7F7F0101000000E8
:100D8000007F7F1F3F7060606060703F1FE0E06029
:100D900060606060E0C08080C0E0606060C080E053
:100DA000E0E0E080C0E06060E0C08080C0E06060C3
:100DB00060606000006060FEFE606000000000E0B7
:100DC000E0000000000000E0E0E0E00000000000C3
:100DD00000E0E0E0E0000000000000E0E060E0C0D3
:100DE00080000080C0E060E0E0000000000000E063
:100DF000E0606060606060E0E0E060000080C0781B
:100E00007C0E06000000000000FEFE000000000056
:100E100000060E7C78C0800000808080801838F04A
:100E2000E0C08080C0E0F03818808080807F7F063E
:100E30000606060607030101030706060607077FE5
:100E40007F7F7F010100000000010161636766662A
:100E500066667E3C1800001F3F7060607038181F87
:100E60003F7060607038187F7F070F1C38707038D3
:100E70001C0F071F3F7070383870703F1F6070394B
:100E80001F0F0F1F39706001036766666666763F45
:100E90001F6070787C6E6763616060000001031EF4
:100EA0003E70600000000000007F7F000000000036
:100EB0000060703E1E0301000001010101181C0FBB
:100EC0000703010103070F1C18010101014D61789F
:100ED000206578706F732061747465696E74210089
:100EE0004D6178206D697861676573206174746500
:100EF000696E74210003010200040506075F2D2EB0
:100F00002C001B1E272D36394B4E636C7278878D53
:100F1000939CB1B4C6C9D2D8E1E463005056004DE9
:100F20004F44454C450050504D00434800544D52ED
:100F300000535441545300544D310D544D3200541C
:100F400048520D54482500544F54004445425547DB
:100F500000746D72314C6174206D6178047573009A
:100F6000746D72314C6174206D696E047573007418
:100F70006D7231204A697474657204757300746D02
:100F800061696E206D6178066D730046726565203B
:100F9000537461636B206D696E0462005B4D454E56
:100FA000555D706F7572207265736574004D6F6466
:100FB0006500034F46464F4E20032D2D2D494E56BA
:100FC00004344348203643482038434820313043D6
:100FD000483132434831344348313643480651752D
:100FE00069657420416C61726D734E6F4B65792039
:100FF000546F75742020067853686F727453686F4D
:101000007274204E6F726D616C4C6F6E6720207829
:101010004C6F6E67200453494E474F534D5046491D
:101020004C5404426173204F464620486175740356
:101030006F6666202B3D203A3D036368316368325A
:10104000636833636834064578702020204578460D
:10105000696E2046696E2020204D6F79656E2047AD
:10106000726F732020015245544131323305505084
:101070004D2020505858202044534D322050504D80
:10108000313603504F534E4547032D2D2D783E30BA
:10109000783C307C787C663E30663C307C667C05F3
:1010A00045444954205052534554412E47415A0615
:1010B000526174696F204578706F2020436F75729C
:1010C0006265506861736520496E746572204D6F6A
:1010D0006465202020202020202008416A6F75743C
:1010E0006572204D756C7469706C7952656D706CA9
:1010F000616365022B3D2A3D3A3D064F4E2020207C
:10110000204F46462020204F6666736574072D2DBC
:101110002D2D002020763E6F66732020763C6F6672
:101120007320207C767C3E6F66737C767C3C6F6699
:1011300073414E44202020204F5220202020205850
:101140004F522020202076313D3D763220763121CD
:101150003D76322076313E7632202076313C763232
:10116000202076313E3D76322076313C3D7632206D
:101170000D536563757269746520002020204563F6
:101180006F6C6167652000202020205472696D20FB
:10119000696E7374616E7420426565700020202052
:1011A0002020202020065761726E31205761726E18
:1011B000322043686565702052696E672020536352
:1011C00069466920526F626F7420436869727020AB
:1011D000546164612020437269636B745369726562
:1011E0006E20416C6D436C6B526174617461546923
:1011F000636B20204861707463314861707463329E
:101200004861707463330E3420566F6965732073C0
:10121000696D706C65436F75707572652047617A92
:10122000202020456D70656E6E6167652056202018
:1012300020456C65766F6E5C44656C74612020653A
:101240004343504D202020202020202020436F6E3B
:10125000662E48656C69636F202020536572766F37
:10126000205465737420202020042D2D2D20313230
:1012700030203132305831343020393020200520B0
:101280004D656E7520457869742020426173204851
:1012900061757444726F697447617563680347418F
:1012A0005A444952505246494430494431494432E3
:1012B00041494C47454154524E535731535732538D
:1012C000573353573453573553573653573753576C
:1012D000385357395357415357425357430444499E
:1012E00052205052462047415A2041494C2050310B
:1012F000202050322020503320204D415820465588
:101300004C4C435943314359433243594333034FC0
:101310004646414253475A73475A25475A74074C29
:1013200050342F4C503544534D6F6E6C7944534DAF
:1013300058202020000029020200000000000602C0
:10134000015345545550004368726F6E6F00452E2F
:101350004C696D6974657300452E5472696D730034
:101360005472696D20496E6300542D547261636537
:1013700000542D5472696D004269702043747200EC
:1013800050726F746F00750050504D206672616D21
:1013900065006D730052784E756D00434F55524293
:1013A000450000020202020045434F4C4147450000
:1013B0004573636C617665006D6F6465032520730A
:1013C0007263004D756C7469706C69657572004369
:1013D000616C0047414241524954530045464641E1
:1013E000434552204D4958414745535B4D454E5565
:1013F0005D00204C6174697475646500204C6F6EEB
:10140000676974756465002047726F756E64207338
:10141000706565640020436C696D6220726174655B
:101420000020416C7469747564650020416C7469B6
:101430007475646520486F6C640020436F75727327
:1014400065002042656172696E67002057617920EE
:10145000506F696E74202320002044697374616E9C
:101460006365200020416972205370656564200027
:1014700020436C696D622052617465200020526FB8
:101480006C6C20416E676C65002050697463682045
:10149000416E676C6500204172647550696C6F74B1
:1014A000204D6F6465002052544C20446973746170
:1014B0006E63650020415244552050494C4F5420E2
:1014C0004D656761203F2F3820000101081E64012F
:1014D00001081E640101081E6401010F32960A0A08
:1014E0001E3296120800081C0808081C0800000894
:1014F0002200490022080000000000227F22000094
:1015000000082200490022080000082200490022A9
:1015100008000000227F220000000000082200498D
:101520000022080000081C0808081C08004D495843
:10153000455552002F3134002F333200434F55525E
:101540004245530043560056455253494F4E0056AC
:101550004552533A2056322E30302D4800205356F3
:101560004E3A206F70656E39782D723330340044F6
:101570004154453A20323031322D30322D3239004B
:1015800054494D453A2032333A31313A34310045ED
:101590004550524F4D2076004449414700547269EE
:1015A0006D2D202B00414E410041004247000003B9
:1015B0000303030303030303030303030303034CB2
:1015C000494D49544553000002494E544552532059
:1015D00050455253000002494E5445525320464F45
:1015E0004E4354494F4E53000000000000000000DD
:1015F0000000000000000000000000FF01434F4E0B
:1016000046494720524144494F0042656570657222
:10161000204D6F646500426565706572204C656E93
:1016200067746800436F6E74726173746500416C17
:1016300061726D6520426174746572696500416C08
:1016400061726D6520696E616374697669746500A5
:1016500046696C7472652041444300496E76657238
:1016600073696F6E2047617A0042697020742E6D35
:10167000696E7574657300426970206120726562DD
:101680006F75727300466C617368207175616E646A
:101690002062697000496E7465722065636C6169CF
:1016A000726167650045636C6169722E206F6666C2
:1016B00020617072657300456372616E20642761FA
:1016C00063637565696C00416C6572746520476180
:1016D0007A00416C6572746520496E7465720041D0
:1016E0006C65727465204D656D6F69726500416C43
:1016F0006572746520416C61726D65004F72647231
:101700006520566F696573205278009C1432465AE2
:101710005A4632465AECEC003C649CC4003C649C43
:10172000000000644D454E5553204F564552464CDF
:101730004F5700446570617373656D656E74204525
:101740004550524F4D00414C4552544500546F7521
:1017500063686520706F757220636F6E74696E7553
:101760006572004170707579657A207375722074A6
:101770006F756368650040800804201002014452C0
:101780002F4558504F00494E5345524552204D4920
:10179000584147452000454449544552204D495839
:1017A0004147452000536F7572636500526174694B
:1017B0006F004F6666736574005472696D00436F05
:1017C0007572626500502E566F6C00416C657274C4
:1017D00065004F4646004D756C7470780052657414
:1017E00061726420426173005265746172642048C2
:1017F0006175740052616C656E7469722048617520
:10180000740052616C656E7469722042617300509D
:10181000484153455320444520564F4C00286465A9
:101820006661757429005665726966055472696D42
:101830007300434F4E462E48454C4900547970651D
:1018400020646520506C617465617500436F6C6C39
:1018500065637469660053776173682052696E67C7
:1018600000446972656374696F6E2050524600448B
:101870006972656374696F6E2041494C00446972F6
:10188000656374696F6E20434F4C006956F9228678
:101890004FA84E8D509250F636B034FD382038E0C7
:1018A00021496E746572004E6F6D005B4D454E555B
:1018B0005D045B455849545D0053454C4D4F4445CC
:1018C000005355505052494D4552204D4F44454CC0
:1018D0004500436F7069652E2E2E004465706C6163
:1018E00063656D656E742E2E2E00436861726765A8
:1018F0006D656E742E2E2E006C6962726500250077
:101900000300504841534520444520564F4C005455
:1019100072696D73004661646520496E00466164BA
:1019200065204F7574005357002A3AA92069359DE8
:10193000352D36F65A43414C4942524154494F4E97
:10194000005B4D454E555D504F5552204445425524
:101950005400534554204E4555545245005B4D4567
:101960004E555D5175616E64205052455400424F92
:1019700055474552204D414E434845532F504F54F3
:101980005320000011241FBECFEFD0E1DEBFCDBF3A
:1019900011E0A0E0B1E0E8E0F6ED02C005900D92A4
:1019A000A632B107D9F71DE0A6E2B1E001C01D9251
:1019B000A335B107E1F70E948C5F0C94026B0C9485
:1019C00000008093FB010895FC01808141FF02C06B
:1019D000682B06C042FF03C06095682301C06827DA
:1019E00060830895873038F4E82FF0E0EE0FFF1F92
:1019F000EE56FD4F35C08930B0F1803198F4E82FB4
:101A0000F0E0DF01AA0FBB1FA152B44FEE0FFF1F82
:101A1000EB5EF94F8D919C91119720813181821B52
:101A2000930B0AC0843158F4E82FF0E0EE0FFF1F4B
:101A3000E152F44F80819181880F991F089584327B
:101A400038F4E82FF0E0EE0FFF1FEB5AF44F08C018
:101A5000863260F4E82FF0E0EE0FFF1FEE53FE4FEA
:101A600080819181089580E094E0089580E090E085
:101A7000089541E0262F30E0683058F440E0F90145
:101A8000EE0FFF1FEE0FFF1FE20FF31FEF54FB4F90
:101A90000CC028503040F90153E0EE0FFF1F5A955B
:101AA000E1F7E20FF31FE752FB4FBC0160507C4FA0
:101AB00077FD0DC088E06030780784F0442319F08A
:101AC00088E090E002C084E090E0E80FF91F4081D8
:101AD000552747FD5095542F44272EC0272F4423C8
:101AE00021F07070660F771F02C026957170822FEB
:101AF00090E0E80FF91F2081332727FD309580E023
:101B000092E0861B970B95958795289FA001299FAA
:101B1000500D389F500D1124E181FF27E7FDF0950E
:101B20009B0135952795E29FC001E39F900DF29FA1
:101B3000900D1124480F591FCA0169E170E00E94FD
:101B4000806ACB0108956091DA0A0E94390D0895E8
:101B5000EAEAF6E020E0822F806487B9369A349B67
:101B6000FECF349A84B195B1880F991F81939193D8
:101B70002F5F283081F70895EAEAF6E040E0842FED
:101B8000806487B954E080E090E0369A349BFECFC1
:101B9000349A24B135B1820F931F5150B1F7969505
:101BA0008795819391934F5F483049F70895AAEA4A
:101BB000B6E0EAEBF6E040E0842F806487B9369A1D
:101BC000208931898D919C91119796958795820FE7
:101BD000931F8E7F11969C938E9380819181820FAB
:101BE000931F96958795918B808B349BFECF349A6B
:101BF00084B195B120813181820F931F969587958D
:101C0000819391934F5F12964830B1F608958E30CC
:101C100091057CF4FC01EE0FFF1FE80FF91FE55D55
:101C2000F34F90819F7081E09F3009F450C080E0B5
:101C300008958231910589F1833191058CF48F30BB
:101C4000910509F18031910524F48E309105D1F58B
:101C500033C08031910589F08131910599F517C024
:101C60008431910569F084319105FCF0853191054D
:101C700001F18631910531F522C091B1947023C0F4
:101C800093B3907820C09091630091701CC08091B4
:101C9000630091E083FF17C015C08091630083FF4C
:101CA00011C091E00E990FC00DC091E00E9B0BC0CA
:101CB00009C091B1907107C093B3907404C091B101
:101CC000907201C090E081E0992309F480E00895CA
:101CD000EF92FF920F931F93CF93DF93F82E8823F9
:101CE00049F48091DD0A9091DE0A892F881F8827A8
:101CF000881FE6C0992787FD909597FF03C09095B0
:101D000081959F4F863109F4D4C08A3028F490E041
:101D10000D960E94070ECEC08A50282F30E0E901B0
:101D2000CC0FDD1FC20FD31FCF5DDA4F9A819923ED
:101D300009F4C5C09A81953038F09A81983008F43A
:101D4000C6C012E0E12E01C0EE24888181500E94BD
:101D5000F20C8C01EE2009F447C078C02091A70650
:101D60003091A8062023312381E02115310521F58A
:101D70002EC08091DD0A9091DE0A802B912B9093EA
:101D8000DE0A8093DD0A88810E94680EE82E898130
:101D90000E94680E9A81953019F0963049F403C07C
:101DA000EE20A9F002C0EE2031F4882321F40FC008
:101DB0008E2569F001C081E02091A7063091A80628
:101DC000202B312B3093A8062093A70673C0809157
:101DD000A7069091A8060095109508231923109343
:101DE000A8060093A70663C0888185323CF029814C
:101DF000332727FD30952E593F4F14C0898129E2A2
:101E0000820290011124359527953595279587FDF8
:101E1000815C86FB880F880B80F9992787FD909558
:101E2000281B390B8A818230A1F1833019F081306F
:101E300039F42BC017FF28C0109501951F4F24C0FF
:101E400017FF27C0109501951F4F23C0898181502E
:101E50000E94F20C9C018A81893089F08A3018F442
:101E6000883009F507C08A3079F08B3091F08C30DA
:101E7000D1F414C081E002171307C9F41BC081E03C
:101E800002171307B9F413C081E02017310794F04B
:101E90000EC081E0021713076CF009C081E0021741
:101EA000130744F404C081E0201731071CF480E0DC
:101EB00001C081E01F1424F091E0892701C080E077
:101EC000DF91CF911F910F91FF90EF90089501E066
:101ED00010E002C0000F111F8A95E2F78091DD0A21
:101EE0009091DE0A80239123009709F037CF41CFEC
:101EF0000F931F93CF93DF930F92CDB7DEB78C0173
:101F0000FC018081982F990F9E70807F892B8083A0
:101F1000662321F09160807F892B8083F801818185
:101F20008F5F818392819923C9F080818F70B1F492
:101F3000933689F0842F806249830E94E10CF80176
:101F400082814981803119F48181803120F0F8014A
:101F500080818F7C8083F80111821282F8012281B6
:101F6000283009F454C0293060F4213009F458C0F5
:101F70002130A8F0223009F44AC0243009F068C0AA
:101F800046C02F35B1F1203620F4203109F060C071
:101F90003EC02136A1F0223609F05AC052C0F801E5
:101FA0008081982F9F709F3009F052C091E69283F4
:101FB0009181913110F08F7C8083F80148C0842F8B
:101FC00080660E94E10C10920202109203021092AD
:101FD000040210920502F8019081892F82958F707A
:101FE0008F5F83708295807F9F7C982B90838FE595
:101FF0002DC0F8018181883121F4842F80680E94EE
:10200000E10CF8018181883219F580E11FC0F801E7
:102010008181803328F030E0359527952283118225
:10202000F801228130E021503040618170E02623A8
:1020300037232115310561F4842F80640E94E10C5F
:1020400007C0F8018181803418F088E08283118212
:102050000F90DF91CF911F910F91089586B38095D6
:102060008E77E1F70E94E10C089570930A0C60935B
:10207000090C9093080C8093070C4F5F4093B402B7
:10208000E39A8091E601882311F40895A895809140
:10209000B4021816DCF3089586EA91E060E070E07F
:1020A00040E450E00E943510089588EA91E062E033
:1020B00070E041E050E00E94351008956093A90659
:1020C000682F70E094E0660F771F9A95E1F789EA30
:1020D00096E041E050E00E943510089590E0BC0188
:1020E000660F771F680F791F6C5F7F4FCB018A5592
:1020F0009E4F43E050E00E9435100895CF93DF9348
:1021000000D000D0CDB7DEB7282F30E0F901EE0FB8
:10211000FF1FE20FF31FDE011196E655FE4F93E01D
:1021200001900D929150E1F7462F50E0F901EE0F2A
:10213000FF1FE20FF31F9A01220F331FD901A40FD3
:10214000B51FE655FE4FA655BE4F93E00D90019288
:102150009150E1F7F901E40FF51FE655FE4FDE015E
:10216000119693E00D9001929150E1F791E09093D8
:10217000E6016C830E946E106C81862F0E946E10A7
:102180001092E6010F900F900F900F90DF91CF917A
:102190000895A998AB98AC988BBBAD9AAD98AB9AC3
:1021A000A99A08951F93CF93DF9310E0CAEDD6E06C
:1021B00084E00E94C91080E10E94C910812F806BC9
:1021C0000E94C910A998AB9AAC98FE0180E8919141
:1021D0009BBBAD9AAD988150D1F7C058DF4FAB9AF9
:1021E000A99A1F5F183021F7DF91CF911F910895B1
:1021F000CF93C82F81E80E94C9108C2F0E94C9106C
:10220000CF91089587FD60C047FF02C0640F4195DC
:1022100067FF02C0460F60E0E62FFF27E7FDF0955D
:10222000A42FBB27A7FDB095EA0FFB1FE134F105F2
:1022300014F040E4461B253511F460FF2AEAE62F2E
:10224000E595E595E595FF27E7FDF095F695FE2FD9
:10225000EE27F795E795E80FF11DE652F94F677005
:10226000C1F0A1E0B0E0062E02C0AA0FBB1F0A9485
:10227000E2F7A195A2238081A827A083E058FF4F11
:102280006850460F06C0808182278083E058FF4F48
:1022900048501416C4F3842F992787FD909508960B
:1022A00068E070E00E94806A882371F0E058F04096
:1022B00041E050E002C0440F551F8A95E2F7419576
:1022C000422380814827408308952FEF0E94021106
:1022D0000895DF92EF92FF920F931F93CF93DF93B6
:1022E000F42EE02E6034E0F587FF02C0F80E80E0A7
:1022F000482F552747FD5095FA01EF0DF11DE138A4
:10230000F1051CF0E0E8FE2EF81A062F069506955A
:10231000069510E01695102F002717950795040FC6
:10232000151F0652194F677081E090E0D82E01C04A
:10233000DD0C6A95EAF712C030E0E901D595C79542
:1023400020FF08C0C8016D2D4E2D0E94E40C2C2FDB
:10235000206801C02C2FFA940F5F1F4FFF2061F7F8
:10236000DF91CF911F910F91FF90EF90DF90089533
:10237000DF92EF92FF920F931F93CF93DF93C82FBB
:10238000F62ED42FD22E102FE0FE04C08091550CD3
:1023900086FD21C08C2F6F2D4D2D212F0E94021103
:1023A0008C2F81508D0F6F2D4D2D212F0E940211EA
:1023B000E3FC02C0CF5FD2506F2D61506D0D8C2FAA
:1023C0004D2F212F00E00E9469118C2F6F2D4D2F72
:1023D000212F0E946911DF91CF911F910F91FF90E2
:1023E000EF90DF900895262F26952695269530E0CC
:1023F0003695322F222737952795280F311D2652E3
:10240000394F8AE02A3D380760F4862F877061E0F3
:1024100070E002C0660F771F8A95E2F7C9010E943B
:10242000E40C0895AF92BF92CF92DF92EF92FF92A9
:102430000F931F93CF935C018EE560E040E42EEE96
:102440000E9402118EE360E240E42EEE00E00E9462
:102450006911CFE300E21CEF82E0C82ED12C2FE3FC
:10246000E22EF12CC801F501099580509C4FB60170
:102470000E94806ACB01A6E0880F991FAA95E1F718
:10248000861B970B892F992786958695B701681B20
:10249000790B8C2F42E00E94F311005E1F4FCF5F3B
:1024A000CE3701F7CF911F910F91FF90EF90DF9002
:1024B000CF90BF90AF900895CF92DF92EF92FF92AE
:1024C0000F931F93CF93DF93062F069506950695DE
:1024D00010E01695102F002717950795080F111D6E
:1024E0000652194F552747FD5095E22FF0E021FD88
:1024F00009C020FF0AC08091550CFF24F39486FD8B
:1025000005C003C0FF24F39401C0FF24E2FF5BC0B9
:10251000EA01CC0FDD1FCA01B3E0880F991FBA95FD
:10252000E1F7C80FD91FCA01809760E170E00E94EF
:10253000806A80EA90E0689F9001699F300D789FE3
:10254000300D1124C20FD31FC35FD94F85E0AF01F7
:10255000487050704115510519F0882319F49CC03A
:10256000882381F0FE019491E056FF4F74919E0103
:102570002F5F3F4FF9016491CF55DF4FFE01C490AB
:10258000E90104C0CC2470E060E090E0FF2021F07D
:10259000909560957095C094F801EF57FF4F2AE031
:1025A000EA3DF20758F4D8019C9311966C93119769
:1025B000A058BF4F7C93C0820E5F1F4F2196815061
:1025C00008F0C8CF69C0E3FF0AC0FF2011F08FEF09
:1025D00001C080E0E80189938E0171E001C070E0E4
:1025E0009A01220F331F220F331F240F351F25534B
:1025F0003B4F6770C62EDD244FEF50E0CA01062E18
:1026000002C0880F991F0A94E2F7E82EE094A8E030
:10261000B0E0AC19BD09CA010A2E02C09595879594
:102620000A94E2F7982F909585E0882329F0F90124
:102630002F5F3F4FE49101C0E0E0F110E095772378
:1026400011F0843039F1DAE00A3D1D0718F54E2FFC
:1026500050E0FA010C2C02C0EE0FFF1F0A94E2F7C3
:10266000E801F881FE21FE0FF883662389F0F80166
:10267000E058FF4FDAE0EA3DFD0750F40A2E02C0B1
:10268000559547950A94E2F750815923540F50838A
:102690000F5F1F4F815048F6DF91CF911F910F912F
:1026A000FF90EF90DF90CF90089520E00E945C12A1
:1026B0000895FC0160831282118270E0DB01AA0F91
:1026C000BB1FA60FB71FAA55BE4F14968C91149727
:1026D000838314821092430D089590E0FC01EE0F65
:1026E000FF1FE80FF91FEA55FE4F81E094819923FF
:1026F00009F480E008959091A002982B9093A00295
:102700000895DB01FC0105C080819C9191938D931C
:1027100041504423C9F70895EDE7F0E08081857EBC
:10272000808317981F9AAAE8B0E01C9210928B0041
:1027300082E88C938081806280830895E091190102
:10274000F0911A018193F0931A01E0931901089511
:102750009091F60B82B72091F60B9217C9F7392F9B
:1027600020E090E0822B932B08958F929F92AF925E
:10277000BF92EF92FF920F931F93CF93DF934B0182
:102780005C0150E1E52EF12CC0E0D0E800E010E85B
:102790009E0140E050E0CA01B9010E94416ADC019B
:1027A000CB0188169906AA06BB0610F4C027D127CC
:1027B000169507950894E108F108E114F10461F415
:1027C000CE01DF91CF911F910F91FF90EF90BF90BD
:1027D000AF909F908F900895C02BD12BD9CF282FE9
:1027E00030E0F901E05FFD4F1082882329F48091E9
:1027F00000039091010304C08091070390910803A6
:10280000F901EE0FFF1FE65FFD4F91838083225F8A
:102810003D4FF9011082089580E00E94EF1381E09E
:102820000E94EF130895E82FF0E0EB50F14FE49190
:10283000F0E0EE0FFF1FE655F94F8081918108957A
:102840004F925F926F927F928F929F92AF92BF92C0
:10285000CF92DF92EF92FF924C01AA24BB242B016E
:102860006624772464E670E080E090E064197509DE
:1028700086099709A50194010E94416A6B017C01B8
:1028800082E390E0A0E0B0E0C80ED91EEA1EFB1E75
:10289000C501B4010E94416A0E94416ABC018827B7
:1028A0009927A30192010E94416ADC01CB01F4E067
:1028B000B695A79597958795FA95D1F7C80ED91E25
:1028C000EA1EFB1EC701B60124E630E040E050E0FE
:1028D0000E94936AC901FF90EF90DF90CF90BF9064
:1028E000AF909F908F907F906F905F904F900895E2
:1028F000633031F1643028F4613051F0623090F48B
:102900000895653039F1653008F1663051F525C01C
:10291000493029F497FD29C0805092400AC097FFA2
:102920002FC029C0493041F4181619060CF1805007
:102930009E4F880F991F089518161906E4F020C0BD
:1029400097FF1EC0909581959F4F08951816190600
:102950007CF011C097FF0FC008C01816190644F08C
:102960000DC067500E94390D089580E09CEF0895D6
:1029700080E094E0089580E090E0089580E09CEF8E
:102980000895282F30E0C901B3E0880F991FBA9548
:10299000E1F7820F931F875F9C4F089590E0880FA7
:1029A000991F880F991F87589B4F08951F93CF93A6
:1029B000DF93182F882311F0CDE001C0CFE1D0E0E4
:1029C0008C2F112331F00E94CE14FC018081837082
:1029D00005C00E94C114FC0180818F718111DF5FED
:1029E000C150C7FFEDCF8D2FDF91CF911F9108957B
:1029F000CF93C82F0E94D614482F50E0CC2319F053
:102A00002EE030E002C020E230E0421753076CF0C5
:102A1000CC2319F08DEC9EE002C080EE9EE09093F6
:102A2000490D8093480D81E001C080E0CF91089569
:102A3000482F50E02DE030E0429FC001439F900DB1
:102A4000529F900D112488589A4F0895EF92FF924B
:102A50000F931F93CF93DF93EA01062F10E07801C5
:102A6000EE0CFF1CF701E356F44F0190F081E02DCE
:102A7000309779F08FEF4338580724F04D375105E0
:102A800024F405C0C3E8DFEF02C0CDE7D0E0C08387
:102A900020C00E941815FC01DC01A00FB11FCE015F
:102AA00095958795959587958C9383E090E00E2C6E
:102AB00002C0880F991F0A94E2F7809594818923B8
:102AC000C370D07002C0CC0FDD1FEA94E2F78C0F08
:102AD000848382E00E947B13DF91CF911F910F913D
:102AE000FF90EF9008950F931F93CF93DF93C62F1E
:102AF000D0E08E01000F111FF801E356F44F019052
:102B0000F081E02D309729F08081992787FD9095FD
:102B10001AC00E941815FC01C80FD91F8881992777
:102B200087FD9095880F991F880F991F248133275F
:102B300027FD309502C0359527950A95E2F7237059
:102B40003070820F931FDF91CF911F910F910895E5
:102B50001F93CF93DF93182FC62FD5E001C0C82F46
:102B6000CC2389F08C2F612F0E9473159C0181E08A
:102B7000253F380744F0822F855F8C1708F08F5F60
:102B8000D15069F7C0E08C2FDF91CF911F9108954C
:102B90008823E1F087FF06C0863E1CF0E0E6E81BD4
:102BA00016C081958B311CF4E82FE05C10C0853293
:102BB0001CF4E82FEB5E0BC0893244F4E82FFF27AA
:102BC000E7FDF095E852F14FE49101C0E0E28E2F6D
:102BD0000895AF92BF92CF92DF92EF92FF920F9340
:102BE0001F93CF93DF93C82F162F7A01D22F802FF8
:102BF00090E0F0E3CF2ED12CC822D922A4E0AA2E57
:102C0000B12CA822B9222FC080E1C816D10429F026
:102C1000E0E2CE16D10451F403C0F701408108C0B0
:102C2000F70180810E94C815482F02C0F701449126
:102C30004423D9F0CB37C8F4403264F08C2F612F95
:102C4000202F0E945C12A114B10411F4CA5F07C0C6
:102C5000C55F05C0842F880F840F880FC80F0894A4
:102C6000E11CF11CD150DD2379F6C0933F0DDF91BB
:102C7000CF911F910F91FF90EF90DF90CF90BF9079
:102C8000AF9008950F93022F2FEF0E94E9150F9137
:102C90000895982FAB0180E0692F20E00E94421632
:102CA000089520E00E94421608950F93FA0194912E
:102CB0004F5F5F4F929FF00111244E0F5F1F292F2E
:102CC0000E94E9150F9108950F931F93CF93DF93FF
:102CD000D82FC62F142F022F442329F0463131F06C
:102CE0004A3E61F407C049EB5FE006C042EB5FE09B
:102CF00021E01AC042EB5FE020E016C047FF05C0AC
:102D0000825048E02EE50E940211412F552747FDD1
:102D1000509557FF03C0509541955F4F242F215088
:102D20008D2F6C2F4DE952E10E945516DF91CF9106
:102D30001F910F9108950F931F93CF93DF93182F37
:102D4000D62FC42F022F47FF09C084E0841BC82F51
:102D5000812F865041E20E945C1208C0453034F455
:102D60004EE053E12C2F0E94551619C04C2FCA314A
:102D70003CF44450812F6D2F202F0E9464160FC009
:102D80004951812F6D2F202F0E94641607FD07C027
:102D9000812F8E5E6D2F4DE6202F0E945C12DF91F9
:102DA000CF911F910F9108950F93942F022F91505F
:102DB00045E650E1292F0E9455160F9108950F9373
:102DC000942F222311F002E001C000E042EB5FE00B
:102DD000292F0E9455160F910895E0914406F0E0C6
:102DE000EE5FF04FE491F0E024E030E0281B310981
:102DF000220F331F02C0F595E7952A95E2F78E2F33
:102E000083708F5F08958F929F92BF92CF92DF92CF
:102E1000EF92FF920F931F93CF93DF93E82EB42E80
:102E2000F02E162FCC24DD24862E992487FC909436
:102E3000E401C20FD11D0DC0103438F48E2D612F66
:102E40004B2D2FEF0F2D0E9469111F5F0894C11C9D
:102E5000D11CC601880D991D8C179D076CF3DF915D
:102E6000CF911F910F91FF90EF90DF90CF90BF9087
:102E70009F908F9008950F93CF93DF93C82F8091E9
:102E8000A0028823C1F48091A902882321F48091B3
:102E9000B402882321F16091B3022091AA023091FB
:102EA000AB02C90170E00E946C6AD7E0D61B19F032
:102EB000D73018F403C0D1E001C0D7E08C2F8F5F6A
:102EC00060E045E028E004E00E94031767E06D1B26
:102ED0008C2F8E5F43E02D2F00E00E940317DF91BF
:102EE000CF910F910895EF920F938AE060E14CE645
:102EF00028E204E00E9403178AE060E14CE628E241
:102F00000FEFEE240E94B8114091480D5091490DE9
:102F100080E168E10E9451160F91EF90089590931F
:102F2000490D8093480D0E9473171092490D10921D
:102F3000480D0E94D21008950F932FEF00E00E94D9
:102F400069110F9108952F923F924F925F926F9265
:102F50007F928F929F92AF92BF92CF92DF92EF9229
:102F6000FF920F931F93CF93DF9300D00F92CDB7B3
:102F7000DEB7382FC62E4A012B83822F992787FD73
:102F8000909580739070409774E0959587957A95A9
:102F9000E1F7282F8B8183FF03C088508B8309C002
:102FA00057FF07C090948194910893947724739469
:102FB00001C077242223E1F0C4016AE070E00E949E
:102FC0006C6ACB0101E0EAE0F0E005C00F5FBF01F1
:102FD0000E946C6ACB010097C9F7402F50E0822F06
:102FE000992787FD90958417950714F0022F0F5F9E
:102FF000EB81E2FD06C0E7FF07C012162CF43E5F2E
:1030000003C06AE0E62E02C055E0E52EFB81F7FF23
:1030100006C0E09E802D1124380F71103B5F309365
:103020003F0D8E2D8095830F8A83DD24D39492E00B
:10303000F92E10E03AE0432E512C222E332427FCA7
:10304000309446E0642E6C0C63C0C401B2010E944F
:103050006C6AA82E382F305D313351F4EB81E2FFDA
:1030600007C0D01629F4FA81FE5FFA83E860EB838B
:103070008A816C2D432F2B8139830E945C128D2D08
:1030800090E0398128163906D1F52B812F7C2B83CE
:10309000B22E22FF19C08A2D8150833008F4F39498
:1030A000C401B2010E946C6ACB01B2010E946C6A39
:1030B0001A81823011F0843011F5343311F41F5F1E
:1030C0001EC01150F3941BC08EEFA82E8A81A80E4B
:1030D000982F9150892F662D40E099830E94F3111B
:1030E0009981B1FC06C0B0FE09C08091550C86FFE5
:1030F00005C0892F6C2D48E00E946511AA82C40189
:10310000B2010E946C6A4B01EA81EE19EA83D39402
:103110000D1508F09ACF112361F06C2D635F812F9C
:103120004F2D0E949C176C2D625F812F4F2D0E94A6
:103130009C17772061F08A816C2D4DE22B810E94D3
:103140005C126C2D6D5F8A8140E00E94F3110F903C
:103150000F900F90DF91CF911F910F91FF90EF9003
:10316000DF90CF90BF90AF909F908F907F906F90A7
:103170005F904F903F902F9008950F931F93CF93A0
:10318000DF93C62F122FD02F202F2F7E0E944216A2
:10319000202F206880913F0D6C2F412F50E002E0DE
:1031A0000E94A317D7FF06C080913F0D6C2F4AE302
:1031B0000E945513DF91CF911F910F9108950F93A6
:1031C000942F022F473030F449E850E1292F0E9414
:1031D000551606C0242F26504AE15FE00E94BD1814
:1031E0000F9108950F931F93CF93DF93182FD62F2E
:1031F000C42F022F442331F449EB5FE020E00E940A
:10320000551610C047FF06C0825048E02EE50E94C8
:103210000211C1952C2F2150812F6D2F4CE15FE0C1
:103220000E94BD18DF91CF911F910F9108950F93C8
:10323000FA013A969AE03291332371F49150D9F71A
:103240002F5F00614FE15FE00E94BD1808C000627F
:103250002AE00E94E91503C09923C9F7F1CF0F9125
:1032600008950F93022F442321F449EB5FE020E0FF
:1032700006C04D3038F4242F21504DED52E10E940C
:10328000551616C0453128F4242F2C5046E25FE035
:103290000DC0453228F4242F24514AE25FE006C0D5
:1032A000473230F4242F24524DE25FE00E94BD18D3
:1032B0000F910895942F9150903118F44C5E0E9414
:1032C00031190895DF92EF92FF920F931F93CF93DE
:1032D000DF93E82EF62EEA01122FD02E57FF10C0F2
:1032E00022FF02C087E001C085E09E2D981B892F38
:1032F0006F2D4DE2212F0E945C12D095C195DF4FBA
:10330000CE016CE370E00E94806AAB01212F20693E
:103310008E2D6F2D02E00E94A31791E012FF90E026
:1033200080913F0D2D2D2123891B6F2D4AE30E9493
:103330005C1230913F0DCE016CE370E00E94806A18
:10334000AC012D2D2069832F8A5F6F2D02E00E9432
:10335000A317DF91CF911F910F91FF90EF90DF9016
:1033600008950F931F93CF93DF93C82F80E060E001
:1033700041E35FE022E00E944216C13658F0C336B6
:1033800028F0C33639F48CE29CE102C08FED9BE556
:103390000E94932786E068E047E35FE00E945116B1
:1033A00040910A0250910B028EE168E020E000E0BB
:1033B0000E94621940910C0250910D0288E468E06D
:1033C00020E00E94621986E060E14FE35FE00E9426
:1033D000511640918C0250918D028EE160E120E007
:1033E0000E94621940918E0250918F02E4E056953E
:1033F0004795EA95E1F788E460E120E00E946219D0
:1034000086E660E047E45FE00E945116409190023A
:103410005091910288E460E020E00E946219C0911E
:103420001202CC0FCC0B80918B02C82382E06CE39C
:103430004EE70E949C1785E06CE143E20E94651113
:10344000DBE08D2F6BE343E00E946511DA5FD33838
:10345000C1F7D6E01CE3EC2FF0E0ED5EFD4F4081BC
:10346000612F641B8D2F0E946511CF5FC83708F054
:10347000C0E080918B02C81719F0DF5FDE3759F783
:10348000DF91CF911F910F9108950F9300E00E945B
:10349000A3170F9108950F931F93CF93DF93062FD8
:1034A000122FC22FD0E0FE01E073F070E033F1057F
:1034B00011F420E001C020E2212B602F0E94451A68
:1034C000C3FD07C080913F0D602F46E7212F0E946A
:1034D0005C12DF91CF911F910F9108951F93CF93AD
:1034E000DF93182FD62FC42F80E860E04D2F50E0D7
:1034F0002C2F0E94451ADA3010F08FE601C085E7C4
:1035000060E04FE22C2F0E945C12DA3010F08FE660
:1035100001C085E7E12FF0E0319660E0AF012C2F8C
:103520000E94451ADF91CF911F910895AF92BF92EB
:10353000CF92EF92FF920F931F93CF93DF93C82FF9
:10354000D62F5A01622F0115110559F09091EA0109
:103550008E2D9E1508F4892FF801E80FF11DF490C7
:1035600001C0FF24A114B10409F44DC08091EA0107
:10357000882379F58091500D882359F5C43659F088
:10358000C53611F0ED2F13C0DD2311F0ED2F01C072
:10359000E62FE1500CC02D2F30E0862F90E00197F0
:1035A000281739071CF4ED2FEF5F01C0E0E0FF277B
:1035B000E7FDF0958D2F90E0E817F90761F0EE0F29
:1035C000FF1FEA0DFB1D859194910E94932780E0D7
:1035D00028C140E001C042E01092500D8D2F0E94A2
:1035E0006E1A40913F0D4E502D2F30E02F5F3F4F10
:1035F000C90166EF7FEF0E94806A862F880F880FCF
:10360000860F480F01C049E7842F0E943B17C03640
:1036100081F1C136A0F4C33409F4B2C0C43440F41B
:103620008091EA01C132A1F1C23409F0D9C089C048
:10363000C43409F447C0C53409F0D2C069C0C436E7
:1036400009F44BC0C53638F4C23609F47DC0C33620
:1036500009F0C6C099C0C138C1F0CF3B21F0C536D2
:1036600009F0BEC05AC01092E9011092EA018FEF32
:1036700009C01F140CF0B4C081E09091450D1916DB
:103680000CF480E08093450DABC01092450D0CC04A
:103690009091450D19161CF41092450DA1C0882378
:1036A00019F0A114B10419F40E94CB4199C080E033
:1036B0000E9469271092E9011092EA0180E6809346
:1036C000550C91C02091E90130E08F2D992787FD9D
:1036D00090952817390709F483C00115110509F4DD
:1036E0007FC08091450D18160CF47AC02091E90135
:1036F000822F90E0EF2DFF27E7FDF0958E179F07B3
:1037000024F42F5F2093E90168C01092E90165C09D
:103710008091E901882309F463C00115110509F4BA
:103720005FC08091450D18160CF45AC08091E901D4
:10373000882321F081508093E9014FC0F092E90184
:103740004CC08C1509F44CC08091450D18160CF432
:1037500047C08091EA018C1510F48F5F01C080E0B2
:103760000115110509F467C0982FE81608F49E2D7D
:10377000F801E90FF11DE491EF3F09F05CC0EBCFD8
:103780008091EA01882361F18091450D181644F17A
:103790008091EA01882311F0815001C08C2D011520
:1037A000110509F448C0982FE81608F49E2DF80179
:1037B000E90FF11DE491EF3F09F03DC0EBCF90918F
:1037C000EA019E1508F4E92E0E0D111DF801049171
:1037D000801708F4082F0093E90180E68093550CC8
:1037E000A114B10411F057E001C056E04091EA0184
:1037F000442319F41092440D13C0842F90E02091BB
:10380000440D821B9109252F30E02817390714F445
:10381000451B04C0181619061CF041504093440D76
:1038200081E0DF91CF911F910F91FF90EF90CF90AA
:10383000BF90AF9008958093EA018091E90101154E
:10384000110509F0BCCF00E0C6CF552747FD5095C4
:1038500020E00E94451A0895CF93C82F80E060E0D1
:103860004BE45FE022E00E944216C236B9F0C33654
:1038700028F4C03631F0C136C1F413C0C336A9F400
:1038800010C08FEF80930B0C10920C0C1092D90586
:103890001092D80580E00E94692707C081EB99E16A
:1038A00002C08FED9BE50E94932780E068E041E530
:1038B0005FE00E94511640910C0C46958AE568E045
:1038C0000E94251C80E060E140E65FE00E94511606
:1038D00040910B0C46958AE560E10E94251C80E032
:1038E00068E14FE65FE00E94511680910C0C90E079
:1038F00020910B0C821B910962E070E00E94806AAB
:10390000462F8AE568E10E94251C80E060E24EE7D0
:103910005FE00E9451162091D8053091D90584E6C8
:1039200090E0289FA001299F500D389F500D112431
:10393000B4E056954795BA95E1F78AE560E220E351
:103940000E94451A80E060E34BE85FE00E94511658
:1039500084E59DE0AC010196FA0120812535D1F383
:1039600043555D408BE660E328E00E94451A82E102
:1039700068E34CE95FE00E945116CF9108950F93E0
:10398000982F262F442311F002E001C000E084E5C7
:10399000692F49EB5FE00E9455160F910895DF9261
:1039A000EF92FF920F931F93CF93DF93FA017491DD
:1039B000EA0122963196E491F0E0379613E0F5950E
:1039C000E7951A95E1F7279F90011124DE2EE29FDB
:1039D000A001E39F500DF29F500D1124C40FD51F7D
:1039E00066956695669500E010E040E0262F30E091
:1039F0003695322F222737952795280F311DE72E30
:103A0000FF2414C0D901A00FB11FA652B94FCE0197
:103A100004C0FC010196E491ED93582F5C1B5717ED
:103A2000C0F3CE0DDF1D4F5F00581F4F4D1550F3F3
:103A3000DF91CF911F910F91FF90EF90DF9008954C
:103A4000AF92BF92CF92DF92FF920F931F93CF93CB
:103A5000DF936C015B0100E010E08091A70290E031
:103A6000A501401B510B8417950708F4AC01F42EF7
:103A7000C42FD0E0C601800F911F60E070E050E0DD
:103A80000E94E26A0C0F1D1F8091A7028F1980937C
:103A9000A702882309F03FC08091A60290E0B601FA
:103AA000600F711FA501401B510B8417950708F487
:103AB000AC0181EA92E050E00E94F343080F111D2F
:103AC0009091A602981B9093A602992321F581EA72
:103AD00092E066EA72E041E050E00E94F3438130F8
:103AE000D1F42091A602822F90E027FF0CC034E091
:103AF000959587953A95E1F787708093A7022F7087
:103B00002093A602AACF26FFA8CF2F732093A70247
:103B10001092A602A2CFC801DF91CF911F910F9101
:103B2000FF90DF90CF90BF90AF900895682F81EA0B
:103B300092E00E9459131092A7021092A6020895D3
:103B40001F93CF93DF9300D0CDB7DEB7182F81E15D
:103B50004A8369830E94961D1092DE0169816295F5
:103B6000607F6093DF011093A1024A814093E601D8
:103B70000F900F90DF91CF911F910895CF93DF9316
:103B8000C6E2D1E09AE0FE0111929A95E9F7803100
:103B9000D0F48F5F0E94961DCE016AE070E00E9413
:103BA000201D8A30910579F48091A10290E0FC01FA
:103BB000EE0FFF1FE80FF91FE555FE4F80812181B1
:103BC000922F9F7002C080E090E0DF91CF91089526
:103BD000CF92DF92FF920F931F93CF93DF930F92B9
:103BE000CDB7DEB7062FF090420D882309F463C0ED
:103BF0008F2D0E94CE146C011F2D002311F0115047
:103C000001C01F5FD6012C9117FF0FC0822F8C704F
:103C100009F4A2C0822F869586958D5F8370880FE8
:103C2000880F237F282B2C938AC01E3089F4822F83
:103C30008C708C3009F490C0822F869586958F5FAA
:103C40008370880F880F237F282BF601208377C08D
:103C5000812F29830E94CE14FC018081298128278D
:103C60002C7011F48370F9F4D6019C91892F8695FC
:103C700086958370002359F0882309F46DC08D5F09
:103C80008370880F880F937F982B9C9358C0833044
:103C900009F462C08F5F8370880F880F937F982B21
:103CA000F60190834CC0C601BF0144E00E9481131D
:103CB0001093420D44C08F2D0E94C1146C0100234B
:103CC00011F0FA9401C0F394D6011C91F7FE0AC0DA
:103CD000812F8F71813009F43FC0815E8F71107E1A
:103CE000182B22C0B0E2FB1649F4812F8F7180316E
:103CF00099F18F5F8F71107E182B1FC08F2D0E943E
:103D0000C114FC01808181278F71F1F0212F2F7167
:103D1000822F90E0002351F082309105ECF0215E7B
:103D20002F71107E122BD6011C9309C08031910592
:103D30009CF42F5F2F71107E122BF601108311E07F
:103D400082E00E947B1309C0C601BF0149E00E94C6
:103D50008113F092420DF3CF10E0812F0F90DF918D
:103D6000CF911F910F91FF90DF90CF9008958EED2E
:103D700092E0E5EFF2E0DF019C011D92215030401E
:103D8000E1F780E00E94213F08954F925F926F9289
:103D90007F928F929F92AF92BF92CF92DF92EF92DB
:103DA000FF920F931F93CF93DF9300D0CDB7DEB771
:103DB000182F80E060E04BE953E122E00E944216B8
:103DC0000091DA0AC02EDD24A6014F5F5F4F8FE11C
:103DD00060E022E80E94451A89E70E943B170830FC
:103DE00088F0C60108977C0123E0EE0CFF1C2A95A1
:103DF000E1F7E80EF91E89ED94E0E80EF91E39E0CE
:103E0000B32E0DC07601EE0CFF1CEE0CFF1CEC0C6B
:103E1000FD1CA1EBB4E0EA0EFB1E05E0B02E11364E
:103E200009F477C0123640F4153409F488C010360E
:103E300071F01434E1F491C0153609F480C01F3BD1
:103E400019F01436A1F489C01092DB0A69C0809180
:103E5000450D181664F08091E901813061F08130E0
:103E600018F0823021F449C081E08093450D67014C
:103E700030EE00E0A6C08091DB0A8F5F8093DB0A02
:103E800085301CF08CEF8093DB0A8B2D869590E0BB
:103E90004091DB0A242F332727FD309552E345025A
:103EA00030011124CE2C2701E0E0F0E090958195BF
:103EB0009F4F829FA001839F500D929F500D112410
:103EC00082E390E0489F4001499F900C589F900CDE
:103ED00011242B2D30E021503040CF01880D991D49
:103EE000B9010E94806AD2016D932D01E60DF71D84
:103EF0008A2F8C198B1588F3BACF8CE9F701808350
:103F0000EB0DF11D319784E6808381E08093DC0A1C
:103F1000AECF81E60E94F7298091DC0A882319F050
:103F20001092DC0AA4CF8091450D18162CF4109243
:103F3000E9011092450D9BCF0E94CB4198CF809113
:103F4000DC0A882309F093CF8091E901882309F4E2
:103F50008ECF81508093E9018ACF8091DC0A88233B
:103F600009F085CF0091E901C02EDD248091450D37
:103F7000181624F48B2D90E001971BC0E0910002ED
:103F8000F0E0EE0FFF1FE85BF94F80819181F0E5D3
:103F9000813A9F0749F48091420D0E94CE14DC01C2
:103FA0008C918C70883019F081E090E002C082E042
:103FB00090E0C816D9060CF05ACF0F5F0093E901C4
:103FC00056CF632F053018F4685D88E101C080E3A7
:103FD0009091450D191624F49091E901901711F074
:103FE00020E001C022E0F60141916F01552747FD15
:103FF00050953A830E94451A0F5F3A81385F0B153E
:1040000000F380E068E34DEA5FE00E945116809182
:10401000450D91E018160CF490E02091E901929F73
:10402000202D1124181624F08091DC0A882311F029
:1040300000E001C002E08CE168E34FE950E10E943A
:1040400055168091450D18166CF48B2D8695782E9B
:10405000AA24662468E3862E6FEF962E7EE9472E0B
:10406000410E05C08091DC0A882379F75BC0E62DFC
:10407000F0E0CF0125E0880F991F2A95E1F7672D21
:104080007A2D0E94806A462F6701CE0EDF1ED60170
:104090002C91332727FD3095C90156E0880F991FD1
:1040A0005A95E1F7821B930B8456974EB4010E94F8
:1040B000806A2091DC0A222361F030E0CF01019672
:1040C0002817390759F5635C842F845C45E025E0A7
:1040D00022C08091E9018615C9F4635C842F845C59
:1040E00045E025E000E00E940317B1E0B41520F49C
:1040F000123411F0133491F4812FF60160814CE9F0
:1041000024E60E94C22AD6018C9308C0625C842FE8
:10411000835C43E023E000E00E94031763946B1488
:1041200008F4A5CF83EA9DE00E9412120F900F9031
:10413000DF91CF911F910F91FF90EF90DF90CF9083
:10414000BF90AF909F908F907F906F905F904F90B7
:104150000895BF92CF92DF92EF92FF920F931F9339
:10416000CF93DF93B82E61E049E259E126E002EAFD
:1041700013E1B5E0EB2EC6E0CC2E0E94961A882300
:1041800009F414C180E060E048EA53E122E00E94B3
:1041900042168091630081FF07C08AE268E140EB2C
:1041A00053E10E94511602C182E168E048EB53E1FD
:1041B0000E9451168091450D18161CF4EE24E394CC
:1041C00002C0A2E0EA2ECC24C39410E18C2D0E9400
:1041D000ED16482FC82FD0E0CC0FDD1FCD5CD94F96
:1041E00080E0612F20E00E943119FF248091EA01D4
:1041F0008C1551F48091E9018F1531F48091450DB2
:1042000018162CF081E001C080E0DD2403C081E0BD
:10421000DD24D39491E0F91639F1E2E02881FE160D
:10422000D1F12295269526952370882311F400E07C
:1042300001C00E2D88E1612F4FE250E10E9455161A
:10424000DD2009F442C068816295669566956370C9
:104250008B2D40E022E00E94D12A8295880F880FA2
:10426000807C98819F732FC04981552747FD5095C9
:10427000882311F420E001C02E2D82E4612F0E94DA
:10428000451ADD2011F169818B2D4CE924E60E944D
:10429000D12A89831AC02F73882311F400E001C04A
:1042A0000E2D88E4612F49E350E10E945516DD2070
:1042B00061F068816F738B2D40E023E00E94D12A6A
:1042C0008F739881907C982B9883F394F3E0FF167A
:1042D00009F08CCF185FC394103309F077CFC1E099
:1042E0008091EA01853009F0C0E080E060E343ECB2
:1042F00053E10E94511640914506552747FD5095C0
:10430000465F5F4FCC2311F022E201C020E28EE431
:1043100060E30E94451ACC2349F08B2D609145063D
:1043200046EF28E20E94D12A8093450611E0809151
:10433000EA01863019F010E020E001C022E080E0C0
:1043400068E34FEC53E10E94421677EFE72E7BE0E3
:10435000F72EEDE2CE2EE6E0DE2EC0E3F70141912E
:1043600051917F01F601819191916F01481B590B89
:10437000440F551F8C2F68E320E20E94451AC85E47
:10438000C03961F7112391F0F0E6BF1679F4ADE280
:10439000B6E0E7EFFBE088E001900D928150E1F795
:1043A00081E00E947B1380E00E946927DF91CF911A
:1043B0001F910F91FF90EF90DF90CF90BF900895E5
:1043C000AF92BF92CF92DF92FF920F931F93CF9342
:1043D000DF93D82F6AE04BE858E12BE008E00E9419
:1043E000E42F882309F45EC080E060E043ED53E1F0
:1043F00022E00E944216C091EA01C150D03891F4E7
:1044000080E80E94F72989E180930802C73018F4F8
:104410008C2F0E94213FC73011F40E94133F82E08D
:104420000E946927FF24D8E0AC2EBB24A7FCB094DF
:104430001091440D1F0D173031F1C12EDD24A6015E
:104440004F5F5F4FAC14BD0411F422E101C020E1C5
:1044500082E16D2F02E00E94A31780910802882359
:1044600019F4AC14BD0409F000E088E16D2F46E0BA
:1044700052E1212F0E945516D85FF39487E0F81679
:10448000B9F6D93378F480910802882321F4C73033
:1044900011F422E001C020E086E06D2F4CED53E1E5
:1044A0000E944216DF91CF911F910F91FF90DF90F4
:1044B000CF90BF90AF900895AF92BF92CF92DF920E
:1044C000EF92FF920F931F93CF93DF93B82EA62EF8
:1044D0006A01F22EC02FEE2021F08091450D1816B2
:1044E00014F400E201C002E28B2D6A2DA6012F2DEB
:1044F0000E94E915EE2009F471C08091450D18164F
:104500000CF06AC01091E901F601E10FF11DD081B4
:104510008C2F8256823020F0C23411F0C334D9F48B
:104520006D2F772767FD709577FF03C070956195B4
:104530007F4F772767FD70958C2F40E050E028E291
:1045400030E000E00E94082AE82ED7FDE19482E0E6
:104550000E947B13DE2DC53251F0C63218F4C432EE
:1045600011F509C08C2F84588230E8F40FC0112354
:10457000D1F0115018C0812F90E02F2D30E0215044
:104580003040821793077CF41F5F0DC08D2F865E2D
:10459000853348F4D19582E00E947B13C53819F425
:1045A00085E00E94F7298091E901F601E80FF11DED
:1045B000D0838091E901C82FCC0FC80FCC0FCB0D51
:1045C0008D2F0E94C815482F8C2F6A2D22E00E9443
:1045D0005C121093E90102C01092E901DF91CF91C2
:1045E0001F910F91FF90EF90DF90CF90BF90AF9011
:1045F00008958F929F92AF92BF92CF92DF92EF92E7
:10460000FF920F931F93CF93DF93F82E40912806CC
:1046100050E04F5F5F4F8AE260E022E102E00E94DB
:10462000A31780910203877021F0823011F081304E
:1046300011F49BE001C09AE08F2D61E04BE858E156
:104640002BE005E313E17BE0E72EC92E0E94961ACA
:10465000882309F49EC380E060E041E453E122E056
:104660000E944216D091EA018091440D8823A1F462
:1046700068E047EA58E10E945116EE24E394D130F5
:1046800009F0EE2488E368E045EF52E02AE00F2DC0
:104690000E945C22C0E101C0C8E03FEFA32E32E0DF
:1046A000B32E42E0E42E5CE3852E912C04C026E07C
:1046B000A22E23E0B22E8091440D8E1508F08AC000
:1046C0002E2D215080E06C2F47E453E100E00E9442
:1046D000BD18F5014081DE1551F48091E901882370
:1046E00031F48091450D181624F421E003C020E038
:1046F00001C022E088E36C2F0E949B16F5014181E6
:104700005281DE1509F040C38091E901813009F042
:1047100038C38091450D18160CF038C321E037C31B
:104720008091450D20E0181614F401E001C002E06C
:1047300084E56C2F0E946219DE1509F047C0809154
:10474000450D18160CF042C0F501018112818091CF
:10475000E901813079F0813018F08230A1F51BC079
:104760008F2DF501608146ED2EE20E94C22AF501EF
:10477000808329C0C801B4010E946C6A6C018F2D2E
:1047800040E02BE30E94C22AFCE38F028001112447
:104790000C0D1D1D18C0C801B4010E946C6A92E086
:1047A000D92ED80E8F2D6D2D41E02EE30E94C22A06
:1047B000D81A6D2D772767FD7095061B170B17FF0D
:1047C00002C000E010E0F50112830183C85FC93325
:1047D00008F0DFC2E394F4E0EF1609F068CF8091AF
:1047E000440D843060F58C2F6EE473E10E9449160D
:1047F0004091030342954695417021E0D43009F081
:1048000020E088E36C2F0E94DF16D430A1F4609181
:1048100003036295669561708F2D40E021E00E9450
:10482000C22A81708295880F807E909103039F7DBC
:10483000982B90930303C85FC93308F0AAC28091F4
:10484000440D853078F58C2F68E573E10E94491698
:1048500040910303429546954695417021E0D5303D
:1048600009F020E088E36C2F0E94DF16D530B1F408
:104870006091030362956695669561708F2D40E0A7
:1048800021E00E94C22A81708295880F880F807C67
:10489000909103039F7B982B90930303C85FC933C8
:1048A00008F077C28091440D863040F58C2F60E689
:1048B00073E10E944916209103032770D63011F44A
:1048C00002E001C000E088E36C2F46E450E10E9462
:1048D0005516D63079F46091030367708F2D40E050
:1048E00024E00E94C22A877090910303987F982B3E
:1048F00090930303C85FC93308F04BC28091440D05
:10490000873040F58C2F69E673E10E94491640918B
:10491000CF05443010F04F5E05C0442311F04C5FCA
:1049200001C043E0D73011F422E001C020E088E369
:104930006C2F0E943119D73049F48F2D6091CF052B
:1049400040E023E10E94C22A8093CF05C85FC933AB
:1049500008F01FC28091440D883088F58C2F61E7E4
:1049600073E10E944916409102034695469546958B
:104970004170D83021F421E08091E901811120E0DB
:1049800088E36C2F0E94DF16D830A9F460910203EF
:1049900066956695669561708F2D40E021E00E94D6
:1049A000C22A8170880F880F880F90910203977F29
:1049B000982B90930203C85FC93308F0EAC1809135
:1049C000440D893008F049C08C2F68E773E10E94DC
:1049D000491618E3AA24BB242A2D8091E9018A15DF
:1049E00011F4D93069F04091050350E00A2C02C05F
:1049F000559547950A94E2F740FF04C002E003C0D2
:104A000001E001C000E0812F6C2F45E650E10E94DB
:104A100055160894A11CB11C1A5F1236E9F6D9305C
:104A2000C1F480E6F816A9F40E94F7291092450D0A
:104A300081E090E00090E90102C0880F991F0A947C
:104A4000E2F79091050398279093050382E00E9476
:104A50007B13C85FC93308F09CC18091440D8A3034
:104A600008F0E6C08C2F60E873E10E94491620919F
:104A700002032770DA3051F48091E901882331F480
:104A80008091450D181624F401E003C000E001C038
:104A900002E088E36C2F4DE650E10E94551620910C
:104AA0000203822F8770E1F525952595259525959B
:104AB0002E5FDA3051F48091E901813031F4809138
:104AC000450D181624F401E003C000E001C002E027
:104AD00080E56C2F40EC5FE00E9455168AE76C2F52
:104AE00046E853E10E9451164091040382E34802D4
:104AF000A0011124445D5E4FDA3051F48091E90148
:104B0000823031F48091450D181624F421E003C061
:104B100020E001C022E08AE76C2F0E94451A3CC0C9
:104B20008230A1F58091E901823018F081E0809314
:104B3000E90120910203259525952595259527FDC9
:104B400003C023301CF403C020E001C022E0922FF8
:104B50009295907F809102038F70892B809302033E
:104B6000DA3051F48091E901813031F48091450DC2
:104B7000181624F401E003C000E001C002E086E55D
:104B80006C2F4EE153E10E94551606C0DA3009F051
:104B90004BC01092E90103C0DA3009F045C08091A2
:104BA000450D181634F0809102038770E9F18230C8
:104BB000D9F18091E901813091F0813018F0823093
:104BC00099F529C06091020367708F2D40E023E0C2
:104BD0000E94C22A877090910203987F14C060914E
:104BE0000203862F8770659565956595659582307A
:104BF00071F48F2D40E022E00E94C22A8295807FCE
:104C0000909102039F70982B909302030DC08F2DFB
:104C10004EEF24E0F1CF8F2D609104034CEF2AE09A
:104C20000E94C22A80930403C85FC93308F0B1C050
:104C30008091440D8B3008F0ACC0809102038770E6
:104C400009F06CC08C2F68E873E10E9449168AE471
:104C50006C2F42E953E10E9451168091CE059927AD
:104C600087FD9095AC01440F551F440F551F480F09
:104C7000591F4F515F4FDB3051F48091E901882378
:104C800031F48091450D181624F421EA03C020EA7E
:104C900001C022EA88E36C2F0E94451A2091030389
:104CA00022952170DB3021F48091E901813011F0EF
:104CB00000E001C002E08CE56C2F42E850E10E9468
:104CC0005516DB3009F065C08091450D18160CF0C3
:104CD00060C08091E901882321F0813009F059C03A
:104CE0000AC08F2D6091CE054CEE24E10E94C22AAD
:104CF0008093CE054EC060910303629561708F2D45
:104D000040E021E00E94C22A81708295807F9091CC
:104D100003039F7E982B909303033BC08150823006
:104D2000C0F58C2F65E973E10E9449164091D005CA
:104D3000DB3051F48091E901882331F48091450DF5
:104D4000181624F421E903C020E901C022E986E213
:104D50006C2F50E002E00E94A317DB30D1F4809169
:104D6000450D1816B4F48091E901882391F48F2D34
:104D70006091D00540E023E60E94C22A8093D005CE
:104D800008C0823009F4CCCC20E001C022E000E071
:104D9000CFCCDF91CF911F910F91FF90EF90DF90DB
:104DA000CF90BF90AF909F908F900895CF93DF9357
:104DB000282F30E0D901A95DB34F8C91E901C75D7F
:104DC000D34F861719F488818417A9F08BE090E0FF
:104DD000289FF001299FF00D389FF00D1124E35F0B
:104DE000F34F10822D5D334FF90110826C9348838D
:104DF00081E08093260CDF91CF91089554985798C5
:104E00000895CF93C82F80E060E044EB54E122E0A6
:104E10000E94421686E660E04C2F22E00E945C125F
:104E2000CF910895CF93DF930F92CDB7DEB7282FA0
:104E300030E084E0220F331F8A95E1F7260F311D01
:104E4000CE010196B90141E050E00E94E96A8981F2
:104E50000F90DF91CF91089560E00E94122708958E
:104E600020E030E08830D0F490E0AC01440F551FD2
:104E7000440F551F480F591F4B505D4FFB01E20F68
:104E8000F31FE491DA01A20FB31FA454BE4FEC93B9
:104E90002F5F3F4F2530310589F7089590E0AC0131
:104EA000E3E0440F551FEA95E1F7480F591F4B50B7
:104EB0005D4FFB01E20FF31FE491DA01A20FB31F74
:104EC000A456BE4FEC932F5F3F4F2930310589F731
:104ED000089590913E069871983049F0992319F4FD
:104EE000882329F408959831E9F48330D8F020918B
:104EF00048062295220F207E2595259525952595F6
:104F00002595332727FD3095F901EE0FFF1FEE0F92
:104F1000FF1FE20FF31FE80FF11DEC52FB4EE4916F
:104F2000E093FF010895FC01A0910002B0E0AA0FF8
:104F3000BB1FA65BB94F8D939C938FEB099580E0C7
:104F40000E9469270895823641F0833619F0813630
:104F500069F406C080E199E207C08CEE97E204C0D4
:104F60000E94FE268FED9BE50E94932780E061E280
:104F700043E00E94D62681E061E244E00E94D6260A
:104F800082E30E94012786E068E047E054E10E9446
:104F9000511680910D0C882319F04DE05CE002C0A1
:104FA00047E051E08CE060E124E10E94421686E097
:104FB00060E245E154E10E9451168091180C88236B
:104FC00019F048E15CE002C047E051E08CE068E2A3
:104FD00024E10E9442160895823641F0833619F08A
:104FE000813669F406C083EA97E207C085E398E258
:104FF00004C00E94FE268FED9BE50E94932780E06F
:1050000061E245E00E94D62681E061E246E00E942E
:10501000D62683E30E94012786E068E041E254E15E
:105020000E94511680910D0C882319F04DE05CE030
:1050300002C047E051E08CE060E124E10E944216AA
:1050400086E060E24BE254E10E9451168091180C18
:10505000882319F048E15CE002C047E051E08CE0B1
:1050600068E224E10E9442160895823641F08336B8
:1050700019F0813669F406C08CEE97E207C08EE71E
:1050800098E204C00E94FE268FED9BE50E949327C4
:1050900080E061E247E00E94D62681E061E248E0DC
:1050A0000E94D62684E30E94012786E068E04AE356
:1050B00054E10E94511680910D0C882319F04DE0A7
:1050C0005CE002C047E051E08CE060E124E10E9436
:1050D000421686E060E242E454E10E94511680915B
:1050E000180C882319F048E15CE002C047E051E069
:1050F0008CE068E224E10E9442160895823641F075
:10510000833619F0813669F406C085E398E207C05A
:1051100087EC98E204C00E94FE268FED9BE50E947A
:10512000932780E061E249E00E94D62681E061E2B7
:105130004AE00E94D62685E30E94012786E068E0C7
:105140004BE454E10E94511680910D0C882319F014
:105150004DE05CE002C047E051E08CE060E124E11A
:105160000E94421686E060E249E554E10E94511631
:105170008091180C882319F048E15CE002C047E0F8
:1051800051E08CE068E224E10E94421608958236E4
:1051900041F0833619F0813669F406C08EE798E253
:1051A00007C085E699E204C00E94FE268FED9BE5CC
:1051B0000E94932780E06BE241E00E94D62681E0C6
:1051C0006BE242E00E94D62686E30E94012786E039
:1051D00068E044E654E10E94511680910D0C88234A
:1051E00019F04DE05CE002C047E051E08CE060E186
:1051F00024E10E94421686E060E240E754E10E940A
:1052000051168091180C882319F048E15CE002C027
:1052100047E051E08CE068E224E10E9442160895E4
:10522000823661F0833628F4803659F08136A1F455
:105230000DC0833689F48EEA99E20CC083EA97E2C6
:1052400009C00E94FE2681EB99E104C00E94FE265F
:105250008FED9BE50E94932780E061E241E00E9490
:10526000D62681E061E242E00E94D62681E30E94D8
:1052700001278EE168E042EF53E10E9451168091D0
:105280000D0C882319F04DE05CE002C047E051E0CE
:105290008CE060E124E10E9442168EE160E24CEF76
:1052A00053E10E9451168091180C882319F048E1AF
:1052B0005CE002C047E051E086E068E224E10E9441
:1052C000421608950E9410290895823641F08336CF
:1052D00019F0813669F406C087EC98E207C08EEABF
:1052E00099E204C00E94FE268FED9BE50E94932761
:1052F00080E06BE243E00E94D62681E06BE244E06E
:105300000E94D62687E30E94012786E068E04DE7E9
:1053100054E10E94511680910D0C882319F04DE044
:105320005CE002C047E051E08CE060E124E10E94D3
:10533000421686E060E249E854E10E9451168091ED
:10534000180C882319F048E15CE002C047E051E006
:105350008CE068E224E10E9442160895823641F012
:10536000833619F0813669F406C085E699E207C0F4
:1053700080E199E204C00E94FE268FED9BE50E9429
:10538000932780E063E241E00E94D62681E065E257
:1053900041E00E94D62688E30E94012786E068E06B
:1053A00046E954E10E94511680910D0C882319F0B2
:1053B0004DE05CE002C047E051E08CE060E124E1B8
:1053C0000E94421686E060E246EA54E10E945116CD
:1053D0008091180C882319F048E15CE002C047E096
:1053E00051E08CE068E224E10E94421608958F703B
:1053F0008E3068F490E0FC01EE0FFF1FE80FF91FFC
:10540000E55DF34F83E6828380818F7C80830895FE
:105410008F929F92AF92BF92CF92DF92EF92FF92C4
:105420000F931F93CF93DF93C82F7B014A0169012C
:10543000B02E84FF06C0CF70C06664E0A62ED5E013
:1054400003C055E0A52ED4E08D2F8066C81761F00B
:105450008D2F8064C81741F08091450D181664F4B3
:10546000C33611F0C33441F487010F5F1F4F80E052
:105470000E9469278A2D15C09A2D9066C91751F090
:105480009A2D9064C91731F0181694F4C23611F0B1
:10549000C23471F487010150104080E00E946927F6
:1054A0008D2F90E00E94070E882309F060C001C094
:1054B00087018114910499F481E0C816D10479F42C
:1054C000C03669F41092450D01E010E0E114F104DA
:1054D00011F000E010E080E60E94F72914C0C01629
:1054E000D1063CF48C2F0E94F72982E00E946927A4
:1054F0008601081519053CF48C2F0E94F72982E0DB
:105500000E94692784010E151F0509F10115110577
:1055100089F4CF70CE3058F4D0E0FE01EE0FFF1FBB
:10552000EC0FFD1FE55DF34F82E68283118280E080
:105530000E9469278B2D83700E947B13E016F10671
:1055400014F481E001C08FEF8093410D02C01092EE
:10555000410DC801DF91CF911F910F91FF90EF9006
:10556000DF90CF90BF90AF909F908F9008950027CD
:1055700011270E191F098A2D0E94F7298D2F0E94CD
:10558000F72997CF0F93772767FD7095552747FD2C
:105590005095332727FD309502E00E94082A0F918D
:1055A00008950F93772767FD7095552747FD509510
:1055B000332727FD309501E00E94082A0F910895B6
:1055C000AF92BF92CF92DF92EF92FF920F931F9311
:1055D000CF93DF9380910203877090910901981710
:1055E00009F43FC080930901823021F50E948C1399
:1055F0001EBC88EC90E090937900809378008CE258
:1056000091E09DBD8CBD80EE9BEA97BD86BD87B7BE
:10561000837C87BF8CE386BF8FE380937C0087B752
:10562000806287BF80917D00816080937D001FBC78
:105630008AE116C00E948C131EBC80E49CE99BBDCD
:105640008ABD1DBC1CBC87B7837C87BF8CE386BF2B
:105650008FE380937C0087B7806187BF1FBC8AE09F
:105660008EBD809102038770823009F082C07894E9
:105670008DEE9AE090931A018093190180910A01AE
:10568000877489F080910203859585958595859528
:1056900019F0813029F402C080E803C080E901C01C
:1056A00088E980930A01C0910A01C7FF07C086E11B
:1056B00090E00E94070E882309F4E2C08091D00593
:1056C00080930B01CBEDD5E0ADE0B1E020E0899116
:1056D00099919595879580509E4F97FD05C033E031
:1056E0008F3F930724F405C080E090E002C08FEF65
:1056F00093E0FD013197322F330F330F392B308375
:105700008C932F5F1296263011F74AE0E42E41E089
:10571000F42E5EE0C52ED7010D917D0139E0D32E28
:1057200080E190E010E0E801C170D0709C1711F4A6
:10573000805F05C081500E949E139C2F80E11595CB
:1057400007950068DA9471F7815F0E949E13CA94EE
:1057500011F78091190190911A01019790931A0104
:10576000809319018FEF0E949E1380E00E949E1388
:1057700076C08091030385FF03C0C0E0D5E002C07E
:10578000C0E0D4E040910203459545954595459587
:10579000440F485FE091040384E6E802F00111241D
:1057A000E85AFD4F8091CE05992787FD909528EE08
:1057B00033E0829FB001839F700D929F700D112482
:1057C000685370456E1B7F0B1BEDE12E15E0F12E2B
:1057D00050E00DEEA02E0AE0B02ECC24DD24CC1A31
:1057E000DD0A08E512E00E1B1F0B24C09601D7014D
:1057F0008D919D917D018C159D0534F08C179D0731
:1058000014F49C0101C09E01205A364FCF01820F33
:10581000931F681B790B200F311FD50111963C9304
:105820002E931396FC93EE93129724E030E0A20E91
:10583000B31E5F5F5417D1F6A52FB0E0AA0FBB1FB0
:10584000AA0FBB1FA351B54F11967C936E9313966D
:10585000FC93EE93129715961C921E9214978DEE60
:105860009AE090931C0180931B01DF91CF911F91CF
:105870000F91FF90EF90DF90CF90BF90AF90089581
:10588000CF77C0930A011ACF362F37953327379534
:1058900020E03093DE0A2093DD0A0E94680E08950E
:1058A000FF920F931F93CF93DF93C1E0D0E00DE001
:1058B00010E0FC2EC09FF001C19FF00DD09FF00DB5
:1058C0001124E858FA4F8581882329F060E00E946E
:1058D000442C882329F42196C530D10551F7FF24A3
:1058E0008F2DDF91CF911F910F91FF9008952F92EF
:1058F0003F924F925F926F927F928F929F92AF9260
:10590000BF92CF92DF92FF920F931F93CF93DF93BB
:105910001C01862FAFEDBAE0F10198E001900D92E5
:105920009150E1F78F3F11F40E94502CCC24DD24DC
:10593000FF24FA94C4E64C2E512C612C712CA12C1E
:10594000D4E0BD2E882E99240894811C911CE60178
:10595000CC0FDD1FCC0FDD1FC758DB4F8881982F80
:10596000937009F497C086958695837090E02F2DEB
:10597000332727FD30958217930709F483C0898167
:10598000982F907E59F09A8190FD08C08295869557
:10599000877090E08816990609F074C08981880F95
:1059A000880F880F85958595859561E00E94442C28
:1059B000882309F467C08881182F169516951370EF
:1059C000E12FF0E0EE0FFF1FE152F54F2081318112
:1059D000837037FF03C080FD03C054C081FF52C0F5
:1059E000F12E6B81772767FD709561157105F9F0D0
:1059F000032F001F0027001F19F0309521953F4FFE
:105A000077FF0CC0709561957F4FC501821B930B8A
:105A10000E9420149501281B390B04C0C9010E9463
:105A200020149C01002319F0309521953F4F688187
:105A3000862F807F69F062956F70862F90E08B30A3
:105A400091050CF06C5FC90140E00E9478149C0144
:105A5000B901882777FD8095982F2A81269530E017
:105A600040E050E00E94416AA30192010E94B56AA1
:105A7000E12FFF27E7FDF095EE0FFF1FE20DF31D6D
:105A8000208331830894C11CD11C8EE0C816D10438
:105A900009F05DCFDF91CF911F910F91FF90DF90C3
:105AA000CF90BF90AF909F908F907F906F905F90BE
:105AB0004F903F902F9008952F923F924F925F9278
:105AC0006F927F928F929F92AF92BF92CF92DF920E
:105AD000EF92FF920F931F93CF93DF93CDB7DEB773
