:100000000C944B0C0C94680C0C94680C0C94680CBD
:100010000C94680C0C94680C0C94680C0C94680C90
:100020000C94680C0C94680C0C94680C0C94680C80
:100030000C94C12F0C94680C0C94680C0C94632ED7
:100040000C94A2300C94680C0C94680C0C94680C02
:100050000C94680C0C94680C0C948D2F0C94680C08
:100060000C94680C0C9427300C94680C0C94680C5D
:100070000C94680C0C94680C0C94680C0C94680C30
:100080000C94680C0C94680C0C94680C0101020A26
:100090003C01010414500101081E6402020F28787B
:1000A00005051E329600000000000000006F0000F1
:1000B00007000700147F147F14242A7F2A122313B9
:1000C00008646236495522500005030000001C22D6
:1000D00041000041221C0014083E081408083E0894
:1000E00008005030000000080808080060600000A8
:1000F0002010080402003E41413E0000427F4000C3
:10010000625149460041494936001814127F0027C0
:10011000454539003E494932000179050300364919
:100120004936000649291E000036360000005636C2
:10013000000008142241141414141441221408005D
:10014000020151090606090906007E0909097E7F98
:10015000494949363E414141227F4141221C7F4964
:100160004949417F090909013E4149497A7F080807
:10017000087F00417F41002040413F017F08142259
:10018000417F404040407F020C027F7F0408107F87
:100190003E4141413E7F090909063E4151215E7FB2
:1001A00009192946264949493201017F01013F4089
:1001B00040403F1F2040201F3F4030403F63140815
:1001C000146307087008076151494543007F4141A6
:1001D0000002040810200041417F000402010204D3
:1001E0004040404040000102040020545454787FB5
:1001F000484444383844444420384444487F3854C0
:10020000545418087E0901020C5252523E7F0804D1
:10021000047800447D40002040443D007F10284485
:100220000000417F40007C041804787C08040478B6
:1002300038444444387C14141408081414187C7C82
:10024000080404084854545420043F4440203C40CF
:1002500040207C1C2040201C3C4020403C44281076
:1002600028440C5050503C4464544C4400083641DF
:100270000000007F000000413608000808221C082A
:10028000081C220808000000000000000000000018
:10029000000000000000000000000000000000005E
:1002A00000FE71FE71000000000000000000000070
:1002B000003E007E00000000007E003E00000000C6
:1002C0000060066006FE7FFE7F60066006FE7FFE21
:1002D0007F600660066018F01898199819FE7FFE76
:1002E0007F98199819180F18060C181E1C1E0E0C52
:1002F000078003C001E030707838781830781EFC31
:100300003F8E71C663E66776663C3C183C0066002B
:100310006600000000660076003E001E000000003F
:10032000000000000000000000E007F00F381C1C77
:10033000380E700660000000000000000006600E2D
:10034000701C38381CF00FE00700000000600660E9
:1003500006C0038001F81FF81F8001C0036006601B
:10036000068001800180018001F81FF81F80018054
:1003700001800180010000000000660076003E0060
:100380001E000000000000000000000000000080CF
:100390000180018001800180018001800100000056
:1003A00000003000780078003000000000000000FD
:1003B000000018001C000E00078003C001E0007060
:1003C000003800180000000000F81FFC3F0E700607
:1003D0006006600E70FC3FF81F0000000018601CF3
:1003E00060FE7FFE7F0060006000000000000000F3
:1003F0000018781C7C0E6E06678663CE61FC607800
:10040000600000000006600660866186618661CE3D
:1004100073FC3F781E000000008007C007E00670F4
:100420000638061C06FE7FFE7F000000007E187E58
:1004300038667066606660E670C63F861F00000022
:1004400000F81FFC3F8E71866186618E731C3F1819
:100450001E0000000006000600867FC67FE60076CC
:10046000003E001E0000000000781EFC3FCE738698
:10047000618661CE73FC3F781E000000007800FCAE
:1004800000CE6186718639CE1DFC0FF80700000092
:1004900000300C781E781E300C00000000000000B8
:1004A000000000000030667876783E301E000000C4
:1004B0000000000000000000008001C003E00770A1
:1004C0000E381C1C380E7006606006600660066000
:1004D0000660066006600660066006600606600E3E
:1004E000701C38381C700EE007C00380010000004B
:1004F0000018001C000E000600066606678603CE84
:1005000001FC0078007800FC00CE0186018601CE57
:1005100001FC00780000000000E07FF07FB8019C43
:10052000018E018E019C01B801F07FE07FFE7FFE0D
:100530007F86618661866186618661CE73FC3F78C5
:100540001EF81FFC3F0E7006600660066006600E17
:10055000701C381818FE7FFE7F0660066006600E6D
:10056000701C38381CF00FE007FE7FFE7F86618626
:1005700061866186618661866106600660FE7FFE37
:100580007F860186018601860186018601060006B6
:1005900000F81FFC3F0E7006608661866186618EE2
:1005A000719C7F983FFE7FFE7F80018001800180EB
:1005B0000180018001FE7FFE7F00000000066006D2
:1005C00060FE7FFE7F0660066000000000001800ED
:1005D000380070006006600670FE3FFE1F060006D1
:1005E00000FE7FFE7F8001C003E007700E381C1CF8
:1005F000380E700660FE7FFE7F00600060006000C5
:10060000600060006000600060FE7FFE7F1C0038BC
:1006100000F001F00138001C00FE7FFE7FFE7FFE2F
:100620007F7000E000C00180030007000EFE7FFE27
:100630007FF81FFC3F0E7006600660066006600EC5
:1006400070FC3FF81FFE7FFE7F86018601860186D3
:10065000018601CE01FC007800F81FFC3F0E7006F9
:10066000600666066E063C0E38FC7FF867FE7FFE6D
:100670007F860186018607860F861DCE39FC70783D
:10068000607818FC38CE7186618661866186618EDD
:10069000731C3F181E0600060006000600FE7FFEC3
:1006A0007F0600060006000600FE1FFE3F007000E9
:1006B000600060006000600070FE3FFE1FFE07FEED
:1006C0000F001C0038007000700038001CFE0FFE88
:1006D00007FE1FFE3F00700070003E003E007000ED
:1006E00070FE3FFE1F1E783E7C700EE007C003C008
:1006F00003E007700E3E7C1E787E00FE00C0018085
:1007000003007F007F8003C001FE007E00067806A4
:100710007C066E06678663C661E66076603E601E94
:100720006000000000FE7FFE7F0660066006600637
:100730006000000000180038007000E000C0018078
:10074000030007000E001C001800000000066006F1
:100750006006600660FE7FFE7F00000000600070A3
:100760000038001C000E000E001C003800700060F5
:1007700000006000600060006000600060006000D9
:1007800060006000600000000006000E001C0038E1
:100790000070006000000000000018003C607E60F7
:1007A00066606660666066E066C07F807FFE7FFE92
:1007B0007F8061C061E06060606060E070C03F8029
:1007C0001F801FC03FE070606060606060606060BC
:1007D0007000380018801FC03FE07060606060E00B
:1007E00060C0618061FE7FFE7F801FC03FE0766059
:1007F00066606660666066E066C0078007800180AC
:1008000001F87FFC7F8E01860106000E001C001897
:1008100000E001F003386718661866186618661855
:1008200076F83FF81FFE7FFE7F8001C001E0006088
:10083000006000E000C07F807F000000006060601A
:1008400060E67FE67F0060006000000000001800A6
:10085000380070006060606070E63FE61F000000D6
:1008600000FE7FFE7F0006000F801FC039E0706031
:1008700060000000000000000006600660FE7FFED1
:100880007F0060006000000000E07FE07F6000E02B
:1008900000C007C007E000E000C07F807FE07FE08D
:1008A0007F8001C001E00060006000E000C07F8048
:1008B0007F801FC03FE0706060606060606060E0EB
:1008C00070C03F801FE07FE07F60066006600660CA
:1008D000066006E007C00380018001C003E00760F6
:1008E0000660066006C0078007E07FE07FE07FE0EB
:1008F0007F8001C001E00060006000E000C0018076
:10090000018061C063E06760666066606660666023
:100910007E003C001860006000FE1FFE3F607060BB
:10092000600060007000380018E01FE03F007000B9
:10093000600060007000380018E07FE07FE007E0B2
:100940000F001C0038007000700038001CE00FE041
:1009500007E01FE03F0070007000380038007000B2
:1009600070E03FE01F6060E070C039801F000F0042
:100970000F801FC039E0706060E001E00300670095
:10098000660066006600660076E03FE01F6060601B
:10099000706078607C606E6067E063E061E060607A
:1009A00060000000008001C003781E7C3E0E7006CF
:1009B00060000000000000000000000000FE7FFE5C
:1009C0007F00000000000000000000000006600E34
:1009D000707C3E781EC00380010000000080018012
:1009E00001800180011818381CF00FE007C0038057
:1009F000018001C003E007F00F381C181880018047
:100A000001800180014D6178206578706F732061ED
:100A1000747465696E7421004D6178206D69786128
:100A20006765732061747465696E74210003010247
:100A300000040506075F2D2E2C001B1E272D3639BE
:100A40004B4E636C7278878D939CB1B4C6C9D2D873
:100A5000E1E4414C45525445000102030401030204
:100A6000040402030104030201426164204545704D
:100A7000726F6D2044617461004D45535341474589
:100A800000466F726D617474616765204545505210
:100A90004F4D005350530080400000000000000004
:100AA0000000000000000000000000000000000046
:100AB0000000000000000000000000000000000036
:100AC0000000000000000000000000000000000026
:100AD0000000000000000000000000000000000016
:100AE0000000000000000000000000000000000006
:100AF00000000000000000000000000000000000F6
:100B000000000000000000000000000000000000E5
:100B1000000000000000000000FCFCFCFCFCFCFCF1
:100B2000FCFCFCFCFCFCFCFCFCFCFCFCFCFCFCFC05
:100B3000FCFCFCFCFCFCFCFCFCFCFCFCFCFCFCFCF5
:100B4000FCFCFCFCFCFCFCFCFCFCFCFCFCFCFCFCE5
:100B5000FCFCFCFCFCFCFCFCFCFCFCFCFCFCFCFCD5
:100B6000FCFCFCFCFCFCFCFCFCFCFCFCFCFCFCFCC5
:100B7000FCFCFCFCFCFCFCFCFCFCFCFCFCFCFCFCB5
:100B8000FCFCFCFCFCFCFCFCFCFCFCFCFCFCFCFCA5
:100B9000FCFCFCFCFCFCFCFCFCFFFFFFFFFFFFFF80
:100BA000FFFF7F7F3F3F3F3F3F3F7F7FFFFFFFFFD5
:100BB000FFFFFFFF3F3F3F3F3FFF7F7F3F3F3F3F05
:100BC0007FFFFFFFFFFFFFFFFFFF7F7F3F3F3F3FB5
:100BD0003F3F7F7FFFFFFFFFFFFFFFFFFF3F3F3FE5
:100BE0003F3FFF7F3F3F3F3F3F7FFFFFFFFF7F0FC5
:100BF00007030181E0F0F0F0E0000101071FFFFFB3
:100C0000FFFFFFBF3F3F3F3F7FFFFFFFFFFF7F3FF4
:100C10003F3F3F3FBFFFFFFFFFFFFFFFFF3F0703D8
:100C20000100C0F0F8FCFCFCFCF80000000103FF30
:100C3000FFFF3F0100000080E0F8FCFCFCF8000032
:100C4000000001FFFF3F070301000010181C1C1CDF
:100C50001C180000000103FFFFFFFF1F0000000041
:100C6000C0F8FCFCFC1000000000C0FFFFFFE080AB
:100C70000000000F1F1F1F0F0300000000E0FFFF18
:100C8000FFFFFFFFFEF8E000000107070180E0F032
:100C9000F8FCFEFFFFFFFFFFFFFFFFFFFFE0C0804C
:100CA00000000F1F1F1F1F0F070180C0E0F0FEFF95
:100CB000FF0700000000C00F1F1F1F0F070100806B
:100CC000E0F0FEFFFFE0C08000000E0E1E1E1E1EA4
:100CD0001E1E1E0ECEFEFEFFFF7F0300000080FCE6
:100CE000FFFFFF3F0300000080FCFFFF1F0F0F1FEF
:100CF0001F1E1E1E0E0E0781C0E0F0FCFFFFFFFF4F
:100D00007F3F1F0F030180E0F0F8E0800001071F24
:100D10007FFFFFFFFFFFFFFFFFFFFFFFFFFFFFFF63
:100D2000FFFFFEFEFEFEFEFEFFFFFFFFFFFFFF1FB9
:100D300000000000C0FEFFFFFEFEFEFEFEFFFFFF04
:100D4000FFFFFFFFFFFFFFFFFFFFFEFEFEFEFEFEB9
:100D5000FEFEFFFFFFFFFFFFFFFEFEFEFEFEFFFFAA
:100D6000FFFFFFFEFEFEFEFEFFFFFFFFFFFFFEFE9A
:100D7000FEFEFEFEFEFFFFFFFFFFFFFFFFFFFFFE89
:100D8000FEFEFEFEFEFFFFFFFFFFFFFFFEFEFEFE7C
:100D9000FEFFFFFFFFFFFFFFFF1F1F1F1F1F1F1F84
:100DA0001F1F1F1F1F1F1F1F1F1F1F1F1F1F1F1F53
:100DB0001F1F1F1F1F1F1F1F1F1F1F1F1F1F1F1F43
:100DC0001F1F1F1F1F1F1F1F1F1F1F1F1F1F1F1F33
:100DD0001F1F1F1F1F1F1F1F1F1F1F1F1F1F1F1F23
:100DE0001F1F1F1F1F1F1F1F1F1F1F1F1F1F1F1F13
:100DF0001F1F1F1F1F1F1F1F1F1F1F1F1F1F1F1F03
:100E00001F1F1F1F1F1F1F1F1F1F1F1F1F1F1F1FF2
:100E10001F1F1F1F1F1F1F1F1F00000000000000BB
:100E200000000000000000000000000000000000C2
:100E300000000000000000000000000000000000B2
:100E400000000000000000000000000000000000A2
:100E50000000000000000000000000000000000092
:100E60000000000000000000000000000000000082
:100E70000000000000000000000000000000000072
:100E80000000000000000000000000000000000062
:100E90000000000000000000005350450045455090
:100EA000524F4D206C6F77206D656D0047617A2041
:100EB0007061732061207A65726F005265696E6996
:100EC0007469616C6973657A206C6500546F756331
:100ED000686520706F75722069676E6F7265720049
:100EE000537769746368657320656E636C656E63C0
:100EF000686573005265696E697469616C697365D0
:100F00007A206C657300416C61726D657320446575
:100F10007361637469766565730063005056004DB4
:100F20004F44454C450050504D00434800535441F8
:100F3000545300544D310D544D32005448520D5409
:100F4000482500544F5400444542554700746D7283
:100F5000314C6174206D617804757300746D723169
:100F60004C6174206D696E04757300746D7231206C
:100F70004A697474657204757300746D61696E20DA
:100F80006D6178066D730046726565205374616308
:100F90006B206D696E0462005B4D454E555D706F50
:100FA000757220726573657400434F555242450057
:100FB00050484153455320444520564F4C00286427
:100FC00065666175742900566572696605547269B3
:100FD0006D7300434F4E462E48454C49005479707E
:100FE0006520646520506C617465617500436F6CA9
:100FF0006C65637469660053776173682052696E2B
:101000006700446972656374696F6E2050524600D0
:10101000446972656374696F6E2041494C0044698C
:1010200072656374696F6E20434F4C004D4958459B
:101030005552002F3134002F333200434F55524266
:1010400045530043560056455253494F4E005645AE
:1010500052533A2056322E30302D48002053564EEF
:101060003A206F70656E39782D72343438004441FF
:1010700054453A20323031322D30332D323800543D
:10108000494D453A2032313A30393A3339004545F5
:1010900050524F4D207600496E74657200B730C3D0
:1010A00029A921992099279D27084AA127084D2879
:1010B0004C034F46464F4E20032D2D2D494E5604CE
:1010C0003443482036434820384348203130434891
:1010D000313243483134434831364348065175690B
:1010E000657420416C61726D734E6F4B657920544D
:1010F0006F75742020067853686F727453686F722E
:1011000074204E6F726D616C4C6F6E672020784C4E
:101110006F6E67200453494E474F534D5046494C1C
:101120005404426173204F46462048617574036F32
:101130006666202B3D203A3D036368316368326365
:101140006833636834064578702020204578466906
:101150006E2046696E2020204D6F79656E204772A3
:101160006F73202001524554413132330550504DA8
:101170000020505858002044534D320050504D31FB
:1011800036465554002003504F534E4547032D2DEE
:101190002D783E30783C307C787C663E30663C3042
:1011A0007C667C0545444954205052534554412E99
:1011B00047415A06526174696F204578706F20204C
:1011C000436F75726265506861736520496E74651E
:1011D00072204D6F646520202020202020200841AF
:1011E0006A6F75746572204D756C7469706C795294
:1011F000656D706C616365022B3D2A3D3A3D064F7B
:101200004E202020204F46462020204F66667365E2
:1012100074072D2D2D2D002020763E6F6673202023
:10122000763C6F667320207C767C3E6F66737C769E
:101230007C3C6F6673414E44202020204F5220207A
:10124000202020584F522020202076313D3D7632FC
:10125000207631213D76322076313E76322020765E
:10126000313C7632202076313E3D76322076313C5C
:101270003D7632200D5365637572697465200020D8
:10128000202045636F6C616765200020202020547A
:1012900072696D20696E7374616E74204265657049
:1012A000002020202020202020526573657400201B
:1012B0002020202020200654696D65723154696D0C
:1012C000657232416C6C20202054656C656D2E0671
:1012D0005761726E31205761726E322043686565C6
:1012E000702052696E672020536369466920526FEF
:1012F000626F7420436869727020546164612020B9
:10130000437269636B74536972656E20416C6D43FF
:101310006C6B5261746174615469636B2020486125
:101320007074633148617074633248617074633300
:10133000042D2D2D004131002041320020416C74DC
:101340000052706D004675656C7431002074320077
:1013500020537064004469737443656C6C54780066
:1013600020527800204163635841636359416363AD
:101370005A4864670056537064613100206132003E
:1013800020414C540052504D005431002054320042
:10139000205350440044495354546D7231546D727B
:1013A000324143430054696D65042D2D2D203132A7
:1013B000302031323058313430203930202005206F
:1013C0004D656E7520457869742020426173204810
:1013D00061757444726F697447617563680347414E
:1013E0005A444952505246494430494431494432A2
:1013F00041494C47454154524E535731535732534C
:10140000573353573453573553573653573753572A
:10141000385357395357415357425357430444693C
:1014200072205072662047617A2041696C205031E9
:10143000202050322020503320204D41582033505E
:101440004F53435943314359433243594333034F75
:101450004646414253475A73475A25475A7400DD5E
:10146000515F287421214EC24E824F4080080420D3
:1014700010020100290202000000000006020153D0
:1014800045545550004E6F6D004368726F6E6F008B
:10149000452E4C696D6974657300452E5472696DF3
:1014A00073005472696D20496E6300542D5472614B
:1014B000636500542D5472696D0042697020437455
:1014C000720050726F746F00750050504D2066723C
:1014D000616D65006D730025000300504841534560
:1014E00020444520564F4C005472696D730046618C
:1014F000646520496E0046616465204F7574000084
:10150000020202020045434F4C41474500457363C8
:101510006C617665006D6F646503252073726300EE
:101520004D756C7469706C696575720043616C000F
:1015300044522F4558504F005B4D454E555D045B5E
:10154000515549545D0053454C4D4F44450053554A
:10155000505052494D4552204D4F44454C45004353
:101560006F7069652E2E2E004465706C6163656D29
:10157000656E742E2E2E004368617267656D656E10
:10158000742E2E2E006C6962726500494E534552CE
:101590004552204D4958414745200045444954454E
:1015A00052204D49584147452000536F757263657D
:1015B00000526174696F00446966666572004F6627
:1015C00066736574005472696D00436F757262656D
:1015D00000502E566F6C00416C65727465004F466A
:1015E00046004D756C7470780052657461726420A9
:1015F00042617300526574617264204861757400C1
:1016000052616C656E746972204861757400526134
:101610006C656E7469722042617300446570617319
:1016200073656D656E7420454550524F4D004D45B4
:101630004E5553204F564552464C4F5700546F75E8
:1016400063686520706F757220636F6E74696E7564
:10165000657200535700120800081C0808081C088F
:101660000000082200490022080000000000227F3C
:101670002200000008220049002208000008220081
:1016800049002208000000227F220000000000081C
:101690002200490022080000081C0808081C080055
:1016A00044494147005472696D2D202B00414E4141
:1016B00000410042470043414C4942524154494F86
:1016C0004E005B4D454E555D504F555220444542AE
:1016D000555400534554204E4555545245005B4DDA
:1016E000454E555D5175616E64205052455400421F
:1016F0004F55474552204D414E434845532F504F7B
:1017000054532000000303030303030303030303F1
:101710000303030303004C494D49544553005472DD
:10172000696D73203D3E204F6666736574730000DB
:1017300002494E544552532050455253000002492D
:101740004E5445525320464F4E4354494F4E53003A
:101750004D6F646500000000000000000000000004
:1017600000000000000000000000FF01434F4E4653
:10177000494720524144494F0042656570657220D7
:101780004D6F646500426565706572204C656E67DB
:101790007468004D6F6465205669627265757200E9
:1017A000466F726365205669627265757200436F99
:1017B0006E74726173746500416C61726D65204274
:1017C0006174746572696500416C61726D65204970
:1017D0006E61637469766974650046696C747265DC
:1017E0002041444300496E76657273696F6E2047ED
:1017F000617A0042697020742E6D696E757465732C
:10180000004269702061207265626F7572730046D4
:101810006C617368207175616E6420626970004943
:101820006E7465722065636C6169726167650045FD
:10183000636C6169722E206F6666206170726573D9
:1018400000456372616E2064276163637565696C2E
:1018500000416C657274652047617A00416C657265
:10186000746520496E74657200416C657274652000
:101870004D656D6F69726500416C657274652041DC
:101880006C61726D65004F7264726520566F696598
:1018900073205278000011241FBECFEFD0E1DEBFCD
:1018A000CDBF11E0A0E0B1E0E0EBF2EC02C00590AA
:1018B0000D92AE30B107D9F71DE0AEE0B1E001C046
:1018C0001D92A630B107E1F70E9419560C9456619B
:1018D0000C940000809333020895FC01808141FF45
:1018E00002C0682B06C042FF03C06095682301C098
:1018F0006827608308954F925F926F927F928F92D4
:101900009F92AF92BF92CF92DF92EF92FF920F938E
:101910001F93CF93DF9300D000D0CDB7DEB78C01FB
:10192000A0E0B0E089839A83AB83BC832B01612C58
:10193000712C24E6822E912CA12CB12CA5019401AE
:101940002419350946095709BC01CD010E94976049
:101950006B017C0192E3C90ED11CE11CF11C9801C2
:10196000D8010E947C609B01AC0169817A818B81E6
:101970009C810E9497609C0144275527C301B201B6
:101980000E94976044E096958795779567954A956C
:10199000D1F7C60ED71EE81EF91EC701B601A50174
:1019A00094010E94DB60C9010F900F900F900F907F
:1019B000DF91CF911F910F91FF90EF90DF90CF902B
:1019C000BF90AF909F908F907F906F905F904F905F
:1019D00008951F9341E0262F30E0683050F440E036
:1019E00055E0529FF001539FF00D1124E25DFA4F34
:1019F0000AC02850310959E0529FF001539FF00D61
:101A00001124EA5AFA4F9C5F97FD0DC0811528E01A
:101A1000920784F0442319F088E090E002C084E04B
:101A200090E0E80FF91F2081332727FD3095322FF2
:101A3000222725C0442329F0492F9927880F991F71
:101A400003C0492F46959170242F30E0E20FF31F19
:101A5000608140E052E0481B590B5595479564035F
:101A60009001659F300D11241181BC01759567951A
:101A70001603A001179F500D1124240F351FC90113
:101A800069E170E00E94C760CB011F9108956091E9
:101A9000060C0C94E90C909199069871983049F0D5
:101AA000911103C0811105C008959831C1F48330AC
:101AB000B0F09091A3069295990F907E959595958B
:101AC000959595959595E82FF0E085E09802E00DC5
:101AD000F11D1124EA56FF4FE491E0933702089577
:101AE0008F708E3068F490E0FC01EE0FFF1FE80F5E
:101AF000F91FEE52F44F83E6828380818F7C8083CE
:101B000008950F931F93CF93DF931F92CDB7DEB746
:101B10008C01FC018081982F9F70990F807F61114B
:101B200003C09F70982B04C091609F70982BF801A0
:101B30009083F80181818F5F818392819923C9F01D
:101B400080818F70B1F4933689F0842F806249834D
:101B50000E946A0CF80182814981803119F48181E7
:101B6000803120F0F80180818F7C8083F801118220
:101B70001282F8012281283009F451C058F4213032
:101B800009F456C0A0F0223009F449C0243009F00D
:101B90006AC045C02F35A9F120F4203109F063C097
:101BA0003EC02136A1F0223609F05DC055C0F801D3
:101BB0008081982F9F709F3009F055C091E69283E5
:101BC0009181913110F08F7C8083F8014BC0842F7C
:101BD00080660E946A0C1092390210923A021092AA
:101BE0003B0210923C02F8019081892F82958F7000
:101BF0008F5F83708295807F9F7C982B90838FE589
:101C000030C0F8018181883121F4842F80680E94DE
:101C10006A0CF8018181883231F580E122C0F80137
:101C20008181803328F030E0359527952283118219
:101C3000F801228130E021503109618170E02623D2
:101C40003723232B81F4842F80640F90DF91CF9171
:101C50001F910F910C946A0CF8018181803418F067
:101C600088E0828311820F90DF91CF911F910F91B5
:101C7000089586B380958E77E1F70C946A0CA99845
:101C8000AB98AC988BBBAD9AAD98AB9AA99A0895D6
:101C90001F93CF93DF9310E0C2E2D7E084E00E946D
:101CA0003F0E80E10E943F0E812F806B0E943F0E0D
:101CB000A998AB9AAC98CE0180589F4FFE01219114
:101CC0002BBBAD9AAD98E817F907C9F7C058DF4F9D
:101CD000AB9AA99A1F5F183009F7DF91CF911F9136
:101CE0000895CF93C82F81E80E943F0E8C2FCF918B
:101CF0000C943F0E87FD59C047FF02C0640F419509
:101D000067FF02C0460F60E0A42FBB27A7FDB09578
:101D1000A60FB11D67FDBA95A134B10514F040E4DA
:101D2000461B253511F460FF2AEA362F3595359587
:101D30003595E82FF0E050E83503E00DF11D112452
:101D4000EE5DF84F6770B9F0A1E0B0E0062E01C07B
:101D5000AA0F0A94EAF7A195A2238081A827A0835D
:101D6000E058FF4F6850460F06C08081822780836D
:101D7000E058FF4F48501416C4F3842F992787FD6D
:101D80009095089668E070E00E94C760882369F02B
:101D9000E058F10941E050E001C0440F8A95EAF7AC
:101DA0004195422380814827408308952FEF0C946A
:101DB0007A0ECF92DF92FF920F931F93CF93DF9310
:101DC0001F92CDB7DEB7142F6034C8F587FF02C06D
:101DD000180F80E0C82EDD24C7FCD094F601E10F77
:101DE000F11DE138F10514F010E8181B862F8695D7
:101DF0008695869590E8899FC00CD11C1124E2E25B
:101E0000F7E0CE0EDF1E677081E090E0F82E01C093
:101E1000FF0C6A95EAF711C020FF0AC0402F6F2D12
:101E2000C60129830E946D0C29812695206801C076
:101E300026951150FFEFCF1ADF0A1111EDCF0F9049
:101E4000DF91CF911F910F91FF90DF90CF90089578
:101E5000DF92EF92FF920F931F93CF93DF93C82FE0
:101E6000162FD42FD22EF02EE0FE17C08091FC0B3F
:101E700086FF13C023C0CF5FD250612F61506D0D1C
:101E800000E02F2D4D2F8C2F0E94D90E2F2D4D2F7E
:101E9000612F8C2F0E94D90E11C02F2D4D2D612F37
:101EA0008C2F0E947A0E8C2F81502F2D4D2D612F5B
:101EB0008D0F0E947A0EE3FEDECFDFCFDF91CF9150
:101EC0001F910F91FF90EF90DF900895262F269598
:101ED0002695269590E030E8239F800D911D1124D2
:101EE0008E5D984F2BE08232920750F4262F277098
:101EF00061E070E001C0660F2A95EAF70C946D0C62
:101F00000895CF92DF92EF92FF920F931F93CF939A
:101F1000DF937C012EEE40E460E08EE50E947A0EB5
:101F200000E02EEE40E460E28EE30E94D90EEFE383
:101F3000DE2EC0E2DCEFFFE3CF2E0FE310E0CE0198
:101F4000F70109959C5F97FD01969C0135952795B2
:101F5000C29EA001C39E500D1124452F55274695C2
:101F60004695B801641B750B42E08D2D0E94660FEB
:101F7000A096D394FEE7DF12E2CFDF91CF911F91BD
:101F80000F91FF90EF90DF90CF900895CF92DF9266
:101F9000EF92FF920F931F93CF93DF93362F3695D7
:101FA0003695369590E010E8319F800D911D1124F3
:101FB000DC01AE5DB84F20FF07C03091FC0B36FF4F
:101FC00007C021FD07C098C021FBFF24F0F804C022
:101FD000F12C02C0FF24F39422FF2BC074E1479F31
:101FE000A00111244B5F5F4F3BE02870222319F0C2
:101FF00032301CF481C032303CF0FA0164913196E9
:102000004E5F5F4FE49102C0E0E060E0FF2011F01E
:102010006095E095CD018F579F4F82529B4030F4E1
:102020006C93ED01C058DF4FE88311963150F0F604
:1020300063C023FF0DC0FF2011F02FEF01C020E08F
:10204000FC01EE5DF84F20831196EE24E39401C06D
:10205000E12C15E0419FA00111244B5F5F4F677099
:10206000262F30E0EFEFF0E0CF01062E01C0880F01
:102070000A94EAF7D82ED09488E090E0821B930B64
:10208000082E02C0F595E7950A94E2F7CE2EC0948B
:1020900075E0772329F0FA014F5F5F4FC49101C0CB
:1020A000C0E0F110C095EE2011F0743019F1EBE0B2
:1020B000A232BE07F8F4D0E08E01022E01C0000F5C
:1020C0000A94EAF7FC91FD21F00FFC93662389F056
:1020D000FD01E058FF4F1BE0E232F10750F4082EFB
:1020E00002C0D595C7950A94E2F7D081DC21DC0FB8
:1020F000D0831196715068F6DF91CF911F910F91A7
:10210000FF90EF90DF90CF90089520E00C94C60FE1
:102110008F5F90E0FC01EE0FFF1FE80FF91FE55401
:10212000FE4F81E09481911101C080E00895DC01AF
:102130006C9312961C921E92119770E0FB01EE0FA9
:10214000FF1FE60FF71FE554FE4F848113968C9313
:10215000139714961C921092070C08957093D00B4D
:102160006093CF0B9093CE0B8093CD0B4F5F40933A
:10217000EB02E39A8091FB01811102C00895A895BA
:102180008091EB021816DCF3089540E450E060E023
:1021900070E08BEB91E00C94AE1041E050E062E017
:1021A00070E08DEB91E00C94AE106093120190E121
:1021B000899FB001112441E050E082E191E00C944C
:1021C000AE1093E0899FB00111246C5F7F4F282FE0
:1021D00030E0C901880F991F820F931F43E050E040
:1021E00081549E4F0C94AE10E8EDF2E09081982B54
:1021F00090830895DB01FC0104C080819C91919340
:102200008D934150D0F70895CF92DF92EF92FF92D5
:102210000F931F93CF93DF938091820387709091E8
:102220000001981751F18093000180917D00857E17
:1022300080937D0017981F9A10928A0010928B004D
:1022400082E880938A0080917D00806280937D0087
:102250001EBC80E49CE99BBD8ABD1DBC1CBC87B72D
:10226000837C87BF8CE386BF8FE380937C0087B736
:10227000806187BF1FBC8AE08EBD8091830385FF8C
:1022800003C060E075E002C060E074E0D0908203BB
:10229000D594D594D594D594DD0C28E0D20E8091B8
:1022A000840344E68402C0011124885A9D4F109192
:1022B0004D0648EE53E014039001159F300D112494
:1022C00028533045281B390BECEEF2E0C12CA6E276
:1022D000BBE000271127061B170BC8E5D2E0C81B7F
:1022E000D90B1EC0419151914017510724F0461758
:1022F00057071CF403C0A80101C0AB01405A564F58
:102300007C01E40EF51E2E193F094C0F5D1F11963E
:102310005C934E9313969C938E9312971496C3944A
:10232000CD10E0CF44E0C49EF0011124EA5DF44FEB
:1023300031832083938382831582148286E29BE01B
:102340009093040180930301DF91CF911F910F912E
:10235000FF90EF90DF90CF9008952091BA0B32B7A5
:102360008091BA0B2813F9CF922F80E0AC01432B58
:102370009A01C9010895CF92DF92EF92FF92CF9315
:10238000DF936B017C01C0E1D0E040E050E8E0E089
:10239000F0E89A01DA010E947C60C616D706E806CA
:1023A000F90610F44E275F27F695E795219719F067
:1023B0004E2B5F2BEECFCA01DF91CF91FF90EF90B4
:1023C000DF90CF90089590E0FC01E85BFD4F108214
:1023D000FC01EE0FFF1FDF01AE5BBD4FE80FF91FE1
:1023E000EE58FC4F238534852D933C93FC01EA5B2A
:1023F000FD4F1082089580E00E94E31181E00C946B
:10240000E311ECEFF1E020E0822F806487B9369A87
:10241000349BFECF349A84B195B1880F991F819374
:1024200091932F5F283081F70895ACEFB1E0E3E19D
:10243000F1E040E0842F806487B9369A20893189A1
:102440008D919C91119796958795820F931F8E7F02
:1024500011969C938E9380819181820F931F969504
:102460008795918B808B349BFECF349A84B195B144
:1024700020813181820F931F969587958193919347
:102480004F5F12964830B1F60895E82FF0E0E35D13
:10249000F54FE491F0E0EE0FFF1FE450FE4F208176
:1024A0003181C90108959C016330A1F034F4613099
:1024B00051F064F4662391F120C06530A9F084F0F6
:1024C0006630D9F416C097FF29C010C01816190637
:1024D0002CF50CC097FF22C03195219531091EC003
:1024E00018161906B4F002C097FD16C020E030E0BF
:1024F00015C01816190684F40CC067FF06C0319584
:102500002195310986E0861B682F6750C9010C941C
:10251000E90C20E034E002C020E03CEFC90108955E
:10252000E7E5F6E020E030E081919191280F391F36
:1025300086E0EF36F807C1F7C901089599E0899F51
:10254000900111242A573C4FC901089594E0899FB6
:10255000900111242A503B4FC90108951F93CF9336
:10256000DF93182F882311F0CDE001C0CFE1D0E038
:102570008C2F112331F00E94A612FC0190819370E0
:1025800005C00E949E12FC0196819F779111DF5F2A
:10259000C150C7FFEDCF8D2FDF91CF911F910895CF
:1025A000CF93C82F0E94AE12282F30E0C1110CC06B
:1025B0000FC085E09AE002C088E19AE090930B0C8E
:1025C00080930A0C81E008C02E30310594F703C0D7
:1025D000203231058CF780E0CF9108959DE0899FEE
:1025E000900111242B503A4FC9010895EF92FF92A8
:1025F0000F931F93CF93DF93EA01E62EF12C87010F
:10260000000F111FF801EF5EF34F0190F081E02DF4
:10261000309779F043383FEF530724F04D37510599
:1026200024F405C0C3E8DFEF02C0CDE7D0E0C083EB
:102630001FC00E94EE12FC01EE0DFF1D9E0135959C
:10264000279535952795208323E030E0002E01C0A3
:10265000220F0A94EAF72095FC0134812323C370EA
:10266000DD2701C0CC0F0A95EAF72C0FFC0124836B
:1026700082E0DF91CF911F910F91FF90EF900C942A
:10268000F4100F931F93CF93DF93062F10E0E80110
:10269000CC0FDD1FFE01EF5EF34F0190F081E02DC6
:1026A000309729F02081332727FD309517C00E94ED
:1026B000EE12FC01E00FF11F4081FC012481332761
:1026C00027FD309502C035952795CA95E2F723700E
:1026D000332784E04802200D311D1124C901DF9108
:1026E000CF911F910F9108951F93CF93DF93C82F20
:1026F000162FD5E0CC2381F0612F8C2F0E9441133F
:10270000853F21E0920744F0855F8C1708F08F5FCA
:10271000D150C82F79F7C0E08C2FDF91CF911F9156
:102720000895CF93C62F0E9474136C2FCF910C94F1
:1027300041138823E1F087FF06C0863E1CF0E0E6E7
:10274000E81B16C081958B311CF4E82FE05C10C0AB
:1027500085321CF4E82FEB5E0BC0893244F4E82F7D
:10276000FF27E7FDF095E05FF54FE49101C0E0E25F
:102770008E2F0895AF92BF92DF92EF92FF920F9348
:102780001F93CF93DF931F92CDB7DEB7182FE62E9E
:102790005A01F22E802F8073898324E0D22ED0221A
:1027A0002EC0E981E03119F0E03249F403C0F501AF
:1027B000808107C0F50180810E94991302C0F50154
:1027C0008491811103C01093040C1CC01B37D8F7EF
:1027D000803260F0202F482F6E2D812F0E94C60F6F
:1027E000D11002C01A5F07C0155F05C0982F990F5E
:1027F000980F990F190FFFEFAF1ABF0AFA94F11053
:10280000D0CFE1CF0F90DF91CF911F910F91FF902B
:10281000EF90DF90BF90AF9008950F93022F2FEFAE
:102820000E94BA130F910895AB0120E0682F80E059
:102830000C940D1420E00C940D140F93FA01949154
:102840004F5F5F4F929F400D511D1124292F0E9411
:10285000BA130F910895FF920F931F93CF93DF93B5
:10286000D82F162FC42F022F411104C020E048EBAF
:1028700050E12EC030E4F32EF22226FD0AC046318C
:1028800011F421E003C04A3E21F420E041EB50E185
:102890001FC0C7FF08C02EE548E0612F8D2F825072
:1028A0000E947A0EC195C6317CF0FF2011F085E1BF
:1028B00001C086E1C81B07FD07C0202F4DE6612F30
:1028C0008D2F8E5E0E94C60F2C2F21504DED53E1AF
:1028D000612F8D2F0E941D14DF91CF911F910F91B9
:1028E000FF9008950F931F93CF93DF93D82F162F48
:1028F000C42F022F47FF09C084E0841BC82F41E288
:102900008D2F86500E94C60F08C0453034F4242F06
:102910004EE454E10E941D140CC0202F20644C2F63
:102920004450612F8D2FDF91CF911F910F910C9407
:102930002B14DF91CF911F910F9108950F93415068
:10294000022F242F44E651E10E941D140F91089597
:10295000DF92EF92FF920F931F93CF93DF931F921B
:10296000CDB7DEB7E82ED62E142FF22E6F2D842F82
:1029700009830E944113202F853F31E093079CF08B
:10298000982F955F911708F09F5F492F405D6D2D3F
:102990008E2D0F90DF91CF911F910F91FF90EF90AF
:1029A000DF900C94C60F4F2D4F5F6D2D8E2D0F9025
:1029B000DF91CF911F910F91FF90EF90DF900C94DA
:1029C0009E140F93222311F002E001C000E0242F97
:1029D00041EB50E10E941D140F910895E0919F0674
:1029E000F0E0E65CF54FE491F0E024E030E0281BF5
:1029F0003109220F331F02C0F595E7952A95E2F7BA
:102A0000E370FF278E2F8F5F08958E30910574F449
:102A1000FC01EE0FFF1FE80FF91FEE52F44F9081FB
:102A20009F7081E09F3009F44CC04AC0823191050B
:102A300051F17CF48F309105E9F024F48E3091054A
:102A4000D9F534C08031910579F081319105A1F536
:102A500014C08431910559F0FCF08531910519F1CC
:102A60008631910549F525C091B1947026C091B188
:102A7000927023C0909163001AC09091630093FB01
:102A8000992790F90DC08091630083FF15C091B123
:102A900096FB992790F911C091B196FB992790F96F
:102AA00081E098270AC091B1907107C091B19170EF
:102AB00004C091B1907201C090E081E0911101C019
:102AC00080E00895873038F4E82FF0E0EE0FFF1F24
:102AD000E653FD4F50C0873009F453C0883081F46D
:102AE00081E190E00E940515811148C082E190E0EB
:102AF0000E940515882309F444C020E030E043C05B
:102B00008C3038F4E82FF0E0EE0FFF1FE95FF34F51
:102B100032C0803190F4E82FF0E0DF01AA0FBB1F34
:102B2000AD55B44FEE0FFF1FE059F94F2D913C9179
:102B300080819181281B390B0AC0843158F4E82F19
:102B4000F0E0EE0FFF1FED55F44F20813181220F91
:102B5000331F19C0843238F4E82FF0E0EE0FFF1F66
:102B6000EC51FD4F08C0863240F6E82FF0E0EE0F42
:102B7000FF1FE650FE4F2081318105C020E03CEF71
:102B800002C020E034E0C9010895EF92FF920F9354
:102B90001F93CF93DF93F82E811109C0809110010C
:102BA00090911101892F881F8827881FEFC0282F37
:102BB000332727FD309537FF03C031952195310923
:102BC000822F263109F4BFC02A3030F4C901992779
:102BD0000D960E940515B8C08A50282F30E0E901F3
:102BE000CC0FDD1FC20FD31FC256DA4F9A81992333
:102BF00009F4AFC09A81953008F4ADC09A8198303D
:102C000008F4B3C052E0E52EA7C020910E01309128
:102C10000F012023312381E0232B21F52EC02091A9
:102C2000100130911101202B312B30931101209391
:102C3000100188810E94C515E82E89810E94C51562
:102C40009A81953019F0963049F403C0EE20A9F02E
:102C500002C0E11006C0811104C00FC08E2569F0CA
:102C600001C081E020910E0130910F01202B312B0A
:102C700030930F0120930E0167C020910E01309117
:102C80000F01009510950223132310930F01009359
:102C90000E0157C0898199E289029001112435956E
:102CA00027953595279587FD815C86FB880F880BD6
:102CB00080F9281B310987FD33958A81823099F18B
:102CC000833019F0813039F42AC017FF27C01195DD
:102CD0000195110923C017FF26C01195019511090F
:102CE00022C0898181500E9462159C018A818930AD
:102CF00081F018F4883009F507C08A3079F08B30FC
:102D000091F08C30D1F414C081E002171307E1F088
:102D100018C081E002171307B9F413C081E020172F
:102D2000310794F00EC081E0021713076CF009C060
:102D300081E00217130744F404C081E02017310733
:102D40001CF480E001C081E01F1404F191E08927A8
:102D50001DC080E01BC0E12C888181500E9462155B
:102D60008C01EE2009F496CFBCCF01E010E002C048
:102D7000000F111F8A95E2F7209110013091110187
:102D800020233123232B09F040CF49CFDF91CF916E
:102D90001F910F91FF90EF900895362F37953327AD
:102DA000379520E030931101209310010C94C51544
:102DB00060E0809187060E94CD16811106C0809147
:102DC0009E06811102C0C7980895C79A08950F936F
:102DD0001F93CF93DF93C1E0D0E00DE01C2F0C9F39
:102DE000F0010D9FF00D1124EB50FA4F85818823DF
:102DF00029F060E00E94CD16811105C02196C530F2
:102E0000D10561F710E0812FDF91CF911F910F91D4
:102E100008954F925F926F927F928F929F92AF929E
:102E2000BF92CF92DF92EF92FF920F931F93CF93B7
:102E3000DF935C01862F98E0F501A3E3B1E00190F8
:102E40000D929A95E1F76F3F11F40E94E716582E04
:102E5000539400E010E088248A94F4E6CF2ED12C1D
:102E6000E12CF12C612CA4E07A2EE801CC0FDD1FBF
:102E7000CC0FDD1FCA50DB4F498142954695477004
:102E80002881822F837009F482C0269526952370AD
:102E900030E0882D992787FD90952817390709F488
:102EA00070C0442341F08A8180FF03C0541203C0E4
:102EB00068C0541266C08981880F880F880F61E04E
:102EC0008595859585950E94CD16882309F459C06E
:102ED0008881982E9694969493E09922A92DB0E03B
:102EE000AA0FBB1FAD5CBE4F0D90BC91A02DB7FFCC
:102EF00003C080FD03C045C081FF43C0892C6B81A6
:102F0000772767FD709561157105F9F04B2E441C0C
:102F10004424441C19F0B195A195B10977FF0CC068
:102F2000719561957109C3018A1B9B0B0E947B0CF3
:102F3000D301A81BB90B04C0CD010E947B0CDC019E
:102F4000442019F0B195A195B109688162956F701F
:102F500039F06B3008F06C5FCD010E945312DC0138
:102F60002A81269530E00E948860A70196010E9480
:102F7000FD60F50182E0989EE00DF11D1124208393
:102F800031830F5F1F4F0E30110509F06ECFDF91B7
:102F9000CF911F910F91FF90EF90DF90CF90BF9056
:102FA000AF909F908F907F906F905F904F9008951B
:102FB000CF92DF92EF92FF920F931F93CF93DF9305
:102FC000CDB7DEB728970FB6F894DEBF0FBECDBFE2
:102FD0006C018091B70B0E94A6127C018E010F5FDD
:102FE0001F4F88E0F80111928A95E9F7F701808177
:102FF000869586958370F80192E0899FE00DF11D1A
:103000001124D182C0826FEFC8010E940917F70115
:103010008081869586958370F80192E0899FE00D06
:10302000F11D11248081918128960FB6F894DEBF9E
:103030000FBECDBFDF91CF911F910F91FF90EF9009
:10304000DF90CF9008959C01B5E035952795BA950E
:10305000E1F7280F391FAC01440F452F441F550BD2
:10306000241B350B892F990F990B8595280F391F34
:10307000C90108954F925F926F927F928F929F92B3
:10308000AF92BF92CF92DF92EF92FF920F931F9376
:10309000CF93DF9300D0CDB7DEB7182F22E049EAF7
:1030A0005FE060E080E00E940D144091060C50E06B
:1030B0004F5F5F4F22E860E08FE10E94E443809120
:1030C000060C282F30E0883078F02850310989E04C
:1030D000829F3001839F700C112486E595E0680E75
:1030E000791E49E0942E0CC085E0829F3001839FB9
:1030F000700C1124AEE2B5E06A0E7B1E35E0932E13
:10310000113609F46CC040F4153409F47EC0103651
:1031100071F01434D9F486C0153609F476C01F3B1B
:1031200019F0143699F47EC01092220B5FC0809182
:10313000B90B18165CF080912102813061F018F013
:10314000823021F43FC081E08093B90B23017301E9
:1031500090EE00E097C08091220B8F5F85300CF4D9
:1031600001C08CEF8093220B4091220BB2E34B0203
:1031700070011124062D292D269530E031952195D9
:1031800031094203C001439F900D112422E3289F7F
:103190005001299FB00C1124F30120E030E0C92C2C
:1031A000D12C81E0C81AD108C9018A0D9B1DB60136
:1031B0000E94C76061932E0D3F1D8E2F801B8915C5
:1031C00098F3C4CF8CE9D3018C93F301E90DF11D81
:1031D000319784E6808381E08093230BB7CF81E62B
:1031E0000E94700D8091230B882319F01092230BFD
:1031F000ADCF8091B90B18162CF4109221021092C9
:10320000B90BA4CF0E94A645A1CF8091230B8111B9
:103210009DCF80912102882309F498CF815080931B
:10322000210294CF8091230B811190CF0091210234
:10323000E02EF12C8091B90B18162CF4292D30E0DA
:10324000215031091AC0E0913802F0E0EE0FFF1F63
:10325000ED55F94F208131812A54344361F4809136
:10326000B70B0E94A612FC0180818C70883019F483
:1032700022E030E002C021E030E0E216F3060CF478
:10328000C2C064CF692F053018F4685D88E101C0C1
:1032900080E32091B90B121624F42091210220170B
:1032A00011F020E001C022E0D7014D917D015527AA
:1032B00047FD50959A830E94E4430F5F9A81985F7F
:1032C000091500F340E557E168E380E00E941A1415
:1032D0009091B90B191614F400E005C08091230BEE
:1032E0008111FACF02E081E019160CF480E0209100
:1032F0002102829F202D112443EA51E168E38CE1F1
:103300000E941D148091B90B18167CF4892C8694A8
:10331000712CE12CF12CC12CD12C88E3A82EBB24DC
:10332000BA949EE9692E610E1AC08091230B811117
:10333000EDCF87E49DE00F900F90DF91CF911F912B
:103340000F91FF90EF90DF90CF90BF90AF909F9044
:103350008F907F906F905F904F900C94810F4E2DC7
:10336000C601682D772D0E94C760E62FD2012C91EF
:10337000BFEFEB1AFB0AFFE32F0290011124C901F2
:103380008456974EB5010E94C7602091230B2223DB
:1033900059F030E02E153F0561F5635C00E025E053
:1033A00045E08E2F845C23C090912102941319C0B4
:1033B000635C00E025E045E08E2F845C0E94F043D2
:1033C00081E0861520F4123411F0133491F424E6D0
:1033D0004CE9D2016C91812F0E94DB49F20180837C
:1033E00008C0625C00E023E043E08E2F835C0E9413
:1033F000F043F0E2CF0ED11C8FEF481A580AE914BF
:1034000008F4ADCF96CF0F5F009321029FCECF93EC
:10341000C82F22E047E45FE060E080E00E940D14E6
:10342000C236B1F028F4C03631F0C136C1F413C051
:10343000C336A9F410C08FEF8093CB0B1092CC0B46
:103440001092700310926F0380E00E944B0D07C032
:103450008FEB9FE102C08DEB99E30E94F9494DE4A7
:103460005FE068E080E00E941A144091CC0B469522
:1034700068E08AE50E94EA434CE55FE060E180E0B5
:103480000E941A144091CB0B469560E18AE50E9498
:10349000EA434BE65FE068E180E00E941A14409145
:1034A000CC0B50E08091CB0B481B510957FF02C059
:1034B0004F5F5F4F5595479568E18AE50E94EA4363
:1034C0004AE75FE060E280E00E941A1480916F0397
:1034D0009091700324E6289FA001299F500D11248C
:1034E00074E0569547957A95E1F720E360E28AE526
:1034F0000E94E44347E85FE060E380E00E941A1422
:1035000087E09DE0FC01019620812535D9F3AF01CC
:1035100046505D4028E060E38BE60E94E44348E9C2
:103520005FE068E382E1CF910C941A142F923F92EE
:103530004F925F926F927F928F929F92AF92BF92C3
:10354000CF92DF92EF92FF920F931F93CF93DF936F
:1035500000D000D000D0CDB7DEB78C83E091F40569
:10356000EE23B1F1A091CC02B091CD024091D002F6
:103570005091D1029D010E9474606B017C019A01FF
:10358000DA010E947460C60ED71EE81EF91E6E2F67
:1035900070E080E090E00AE0660F771F881F991FB7
:1035A0000A95D1F724E630E040E050E00E94FD604B
:1035B000CA01B9010E9497606C157D058E059F05B3
:1035C00038F4C701B6010E94BB119E838D8302C0EF
:1035D0001E821D822D813E81A4E6B0E00E947C60A7
:1035E0006B017C0187E596E09A838983612C712CBD
:1035F0001B8212E3812E912CA12CB12C862D8430BC
:1036000068F490913502F301A4E09A9FE00DF11D5A
:103610001124E75AF54F54905A9401C0562C0E9439
:1036200045129C01E981FA8181919191FA83E983A4
:10363000281B390BB901882777FD8095982FBAE0B0
:10364000660F771F881F991FBA95D1F712161306B8
:103650001CF4028D138D06C0A981BA811C960D91B0
:103660001C911D970436110514F404E610E098012E
:10367000442737FD4095542F0E94FD608901211594
:10368000BCEF3B072CF02130E4E03E0724F405C0FA
:1036900000E01CEF02C000E014E080919C0680FF77
:1036A00006C0F2E05F1203C0119501951109252CA7
:1036B000312CF101EE0FFF1FE653FD4F1183008304
:1036C000C80117FF04C088279927801B910BE4E0ED
:1036D00096958795EA95E1F78230B0F4811107C09D
:1036E00091E0022C01C0990F0A94EAF70AC081E028
:1036F00090E0022C01C0880F0A94EAF790911F0C09
:1037000098232B81292B2B8383E0851508F470C027
:1037100080911E02811148C0452D4F5E50E04051FE
:103720005109A1E0B0E002C0AA0FBB1F4A95E2F721
:10373000AD01416080911F029091200248235923DE
:10374000452B09F0B5C030C0A42DAF73B0E0CD015A
:10375000880F991F8554944FAD01440F551F48574A
:10376000594FDC012D913C91DA018D919C91281BE0
:10377000390BA181BB27A7FDB0950E947460A501FC
:1037800094010E94FD6042944694469473E047225F
:10379000842D90E08130910519F0029729F403C03F
:1037A000020F131F01C08901ED81FE81EF2BC9F0CB
:1037B000F1E05F1619F023E0521213C02091F405D6
:1037C00030E0D8010E9488602AE0660F771F881FCA
:1037D000991F2A95D1F7A70196010E94FD60022F3B
:1037E000132FF101EE0FFF1FEA5EFD4F11830083DF
:1037F0008FEF681A780A97E06916710409F0FECE17
:103800006C8186E192E00E940917009182030870A2
:1038100060909C06A1E06A2220E034E080911A02C8
:1038200090911B02281B390B6901EE24D7FCE09410
:10383000FE2C70903F021EE0212E12E0312E10E08F
:10384000812C88E0982EA12CB12C612F8C810E94B4
:1038500091132C011230F9F40023E9F0662019F0DD
:103860005194419451089201442737FD4095542FBB
:1038700023583F4F4F4F5F4FC701B6010E949760DB
:10388000A50194010E94FD602115B8E03B074105A8
:10389000510521F402C0711016C09201220F331F8E
:1038A000F101219331931F011F5F143071F60EC097
:1038B000F101EE0FFF1FE057F94F4080842D807C0F
:1038C00009F042CF71CF412C512CE7CF8B81269646
:1038D0000FB6F894DEBF0FBECDBFDF91CF911F9121
:1038E0000F91FF90EF90DF90CF90BF90AF909F909F
:1038F0008F907F906F905F904F903F902F900895A2
:10390000FF920F931F93CF93DF93F62E1091B70B77
:10391000882309F44AC0812F0E94A612EC01012FCE
:10392000FF2011F0015001C00F5F188107FF09C08F
:10393000812F8C7009F46FC0812F869586958D5FDD
:103940000BC00E3071F4812F8C708C3009F463C081
:10395000812F869586958F5F8370880F880F137FE0
:103960004FC0802F0E94A612BC01FC018081182745
:103970001C7011F48370B9F49881892F869586950F
:103980008370FF2029F0882309F445C08D5F04C0AF
:10399000833009F440C08F5F8370880F880F937F56
:1039A000982B98832FC044E030C0812F0E949E1234
:1039B000EC01012FFF2011F0015001C00F5F1881B1
:1039C00007FF03C0812F8F7012C0003219F4812FBE
:1039D0008F7011C0802F0E949E12BC01FC0180815B
:1039E00081278F7089F0812F8F70FF2021F088232D
:1039F00091F0815F03C08F3071F08F5F8F70107F07
:103A0000182B1883C1E009C049E0CE010E94FA10CA
:103A10000093B70BF7CFC0E003C082E00E94F41020
:103A20008C2FDF91CF911F910F91FF900895682FF8
:103A300089ED92E00E9497101092DF021092DE0250
:103A400008951F93CF93DF9300D0CDB7DEB7182F23
:103A500081E14A8369830E94171D1092F3016981F5
:103A60006295607F6093F4011093D9024A8140937C
:103A7000FB010F900F90DF91CF911F910895EF926E
:103A8000FF920F93CF93DF93EA017901402F0E94B9
:103A9000211D80E18093E102D093E502C093E4020E
:103AA000F092E302E092E2021092E6020E942346C4
:103AB0008091FB01882341F08091E102882321F06D
:103AC0008091070C882391F3DF91CF910F91FF90A4
:103AD000EF9008950F93CF93C82F81110E94CD4787
:103AE0008091D80280FD05C08091D80281FF1DC061
:103AF0000FC081508093D8020C2F2FE430E046E5B0
:103B000056E061E080E00E943F1DC111EDCF0DC085
:103B10001092D802809183060C2F24EE32E042E707
:103B200053E062E08F5F0E943F1DCF910F91089597
:103B3000CF92DF92EF92FF920F931F93CF93DF9379
:103B40007C016B01C0E0D0E08091DF0290E0860153
:103B50000C1B1D0B8017910708F48C0197012C0F8B
:103B60003D1FA80160E070E0C9010E943661C00FEE
:103B7000D11F8091DF02801B8093DF0281113FC043
:103B80008091DE0290E0A6014C1B5D0B8417950727
:103B900008F4AC01B7016C0F7D1F89ED92E00E9423
:103BA0000C48C80FD11D9091DE02981B9093DE0245
:103BB000911125C041E050E06EED72E089ED92E098
:103BC0000E940C488130D9F48091DE0287FF0FC03B
:103BD000282F30E094E0359527959A95E1F72770E6
:103BE00033272093DF028F708093DE02ADCF86FFF4
:103BF000ABCF8F738093DF021092DE02A5CFCE0190
:103C0000DF91CF911F910F91FF90EF90DF90CF90B8
:103C100008959AE0EBE3F1E0DF011D929A95E9F750
:103C2000803118F020E030E019C08F5F0E94171D2E
:103C30006AE070E08BE391E00E94981D0A9791F78B
:103C40008091D90290E0FC01EE0FFF1FE80FF91FF1
:103C5000E054FE4F20818181382F3F70C9010895C3
:103C6000CF93C82F8031B0F48F5F0E94171D64EE90
:103C700072E082E793E00E94981D8F3F910509F062
:103C800030F48C2F0E94F34581E00E946A1DCF9191
:103C90000C94FB11CF910895FF920F931F93CF9334
:103CA000DF93FA010491DA0112963196449150E0C3
:103CB000495F5F4F33E0559547953A95E1F7F42E0C
:103CC000209F90011124249FF001259FF00D349F27
:103CD000F00D1124AE0FBF1F66956695669590E0B6
:103CE000F0E86F9F800D911D112440E050E010E03E
:103CF000602F70E015C0EA01C80FD91FCE5DD84F04
:103D00009D0105C0F9012F5F3F4FE491E993E22F38
:103D1000EA1BE017B8F3A60FB71F1F5F40585F4FAD
:103D20001F1548F3DF91CF911F910F91FF900895D8
:103D30000F93262F442311F002E001C000E048EB6E
:103D400050E1682F84E50E941D140F9108950F9390
:103D50001F93CF93DF93C62F122FD02F202F2F7EAC
:103D60000E940D14202F206802E0412F50E06C2F9C
:103D70008091040C0E949042D7FF0AC04AE36C2F46
:103D80008091040CDF91CF911F910F910C948510BD
:103D9000DF91CF911F910F9108950F931F93CF93B0
:103DA000DF93D82F162FC42F022F47FF07C041E201
:103DB00086500E94C60F86E08C1BC82F2C2FC73060
:103DC0003CF44DE851E1612F8D2F0E941D1407C076
:103DD00026504AE15FE0612F8D2F0E94A71EDF91E0
:103DE000CF911F910F9108950F931F93CF93DF935E
:103DF000D82F162FC42F022F411106C020E048EB08
:103E000050E10E941D1410C047FF06C02EE548E097
:103E100082500E947A0EC1952C2F21504CE15FE018
:103E2000612F8D2F0E94A71EDF91CF911F910F91BF
:103E300008950F93FA013A969AE03291332381F074
:103E40000CC000612F5F4FE15FE00E94A71E0BC016
:103E500000622AE00E94BA1306C09111F9CFF1CF97
:103E6000915079F3EACF0F9108950F93022F4111EA
:103E700004C020E048EB50E118C0242F4D3020F45E
:103E800021504DE154E111C0453120F42C5046E25F
:103E90005FE005C0453230F424514AE25FE00E9401
:103EA000A71E05C0245240E353E10E941D140F9148
:103EB00008954A3008F406C04F3118F449500C9464
:103EC0002B1445510C94351F942F9150903118F4B8
:103ED0004C5E0C94351F0895CF92DF92EF92FF92C3
:103EE0000F931F93CF93DF931F92CDB7DEB7382F79
:103EF000F62E6A01122FE02E27FD3E5ED7FE12C07D
:103F000012FF02C087E001C085E0212F4DE26F2D36
:103F1000932F981B892F39830E94C60FD194C19487
:103F2000D1083981212F2069C6016CE370E00E941D
:103F3000C760AB016C0102E06F2D832F0E9490429D
:103F40002E2D212312FB112710F98091040C4AE336
:103F50006F2D811B0E94C60F2E2D20698091040CAD
:103F6000A6016F2D8A5F0E9490420F90DF91CF9142
:103F70001F910F91FF90EF90DF90CF9008950F93D6
:103F80001F93CF93DF93C82F22E04DE25FE060E004
:103F900080E00E940D14C13658F0C33628F0C336B5
:103FA00039F487E09AE102C08DEB99E30E94F94968
:103FB00043E35FE068E086E00E941A144091420209
:103FC0005091430200E020E068E08EE10E946C1F07
:103FD000409144025091450220E068E088E40E944C
:103FE0006C1F4BE35FE060E186E00E941A14409191
:103FF000C4025091C50220E060E18EE10E946C1F76
:104000004091C6025091C70264E0569547956A9563
:10401000E1F720E060E188E40E946C1F43E45FE088
:1040200060E086E60E941A144091C8025091C902CD
:1040300020E060E088E40E946C1FC0914A02CC0F2F
:10404000CC0B8091C302C8234EE76CE382E00E9450
:10405000894243E26CE185E00E94D60EDBE043E05A
:104060006BE38D2F0E94D60EDA5FD338C1F7D6E00E
:104070001CE3EC2FF0E0E55BFD4F4081612F641BFA
:104080008D2F0E94D60ECF5FC83708F0C0E0809118
:10409000C302C81719F0DF5FDE3759F7DF91CF9100
:1040A0001F910F910895CF93DF93D62FC22F922F98
:1040B0009073903311F420E001C020E22C2B2F7B71
:1040C0006D2F0E94E443C6FD09C02C2F46E76D2FDB
:1040D0008091040CDF91CF910C94C60FDF91CF91AA
:1040E00008951F93CF93DF93182FD62FC42F242F1B
:1040F000462F50E060E080E80E94E443DA3010F0A0
:104100008FE601C085E72C2F4FE260E00E94C60FCA
:10411000E12FF0E0AF014F5F5F4FDA3010F08FE634
:1041200001C085E72C2F60E0DF91CF911F910C94A7
:10413000E4436F927F929F92AF92BF92CF92DF92B1
:10414000EF92FF920F931F93CF93DF931F92CDB700
:10415000DEB7182F06E02AE04DE950E163E00E9447
:10416000124E882309F4B1C022E040EB5FE060E02A
:1041700080E00E940D14B0902202BA94103619F01B
:10418000143699F409C085E0B81206C01092B90B34
:1041900088EC80933F0209C0E4E0EB1530F0B09268
:1041A000B70B8CE29DE20E94C84518E0E12CF12C8F
:1041B000CB2CDD24C7FCD094AE2CEC14FD0411F400
:1041C00022E001C020E08A2D29830E94EE123C01EA
:1041D0004A2D4F5F2981612F80E00E94F41EA301C8
:1041E0004A5F5F4F00E226E0612F88E10E94BA1328
:1041F000A11007C04EEB5FE0612F85E40E941A1406
:1042000017C020E0F3014581612F85E40E942B1443
:104210009DE5912C00E0292D4A2D612F892F99834E
:104220000E94A814939499819A5FF4E09F12F2CFB0
:10423000F30184858F7029F049E4612F8AE70E9499
:104240008510F3018485807F29F04FE4612F8AE790
:104250000E948510F3018485982F9F7039F0807F2C
:1042600029F04AE2612F8AE70E948510FFEFEF1ADA
:10427000FF0A185F103309F09FCF85E0B81206C01F
:1042800080913F02811102C012E001C010E0212F95
:1042900047EC5FE068E380E00E940D140E94E7169F
:1042A000482F4F5F212F68E384E20F90DF91CF9179
:1042B0001F910F91FF90EF90DF90CF90BF90AF9044
:1042C0009F907F906F900C94F41E0F90DF91CF9190
:1042D0001F910F91FF90EF90DF90CF90BF90AF9024
:1042E0009F907F906F9008950F9300E026E04FE538
:1042F00054E162E00E94124E882349F122E046E434
:1043000050E160E080E00E940D146EE470E180E115
:104310000E9414146CE570E188E10E9414146EE6AA
:1043200070E180E20E9414146FE770E188E20E945D
:1043300014146EE870E188E30E941414409156064C
:1043400020E850E068E380E30F910C94E4430F9180
:1043500008950F931F93CF93DF93182F06E02AE061
:104360004DE950E162E00E94124E882309F4F0C04A
:1043700022E043ED5FE060E080E00E940D14D09108
:1043800022028091B80B81112BC06DED7FE088E097
:104390000E941414D13011F402E001C000E0209119
:1043A000F20526952695269549EA53E168E084E5CD
:1043B0000E941D14D130B1F46091F20566956695A6
:1043C000669524E040E0812F0E94DB49880F880F2A
:1043D000880F9091F2059770982B9093F20502C088
:1043E000C8E001C0C0E18091B80B8230E0F46DEE0E
:1043F0007FE08C2F0E941414D23011F422E001C00F
:1044000020E04091F3056C2F84E50E94351FD230E7
:1044100049F424E240E06091F305812F0E94DB49DA
:104420008093F305C85F8091B80B8330E8F467EFA1
:104430007FE08C2F0E941414D33011F422E801C0C5
:1044400020E84091F40550E06C2F84E50E94E4439D
:10445000D33049F424E640E06091F405812F0E94B6
:10446000DB498093F405C85F8091B80B843008F570
:1044700062E070E18C2F0E94141401E0D43009F046
:1044800000E06091F2056170402F8C2F0E94981E11
:10449000002371F06091F205617021E040E0812F0E
:1044A0000E94DB499091F20580FB90F99093F20510
:1044B000C85F8091B80B853018F560E170E18C2FF2
:1044C0000E94141401E0D53009F000E06091F2057B
:1044D00066956170402F8C2F0E94981E002379F002
:1044E0006091F2056695617021E040E0812F0E94A5
:1044F000DB499091F20580FB91F99093F205C85F3A
:104500008091B80B863020F56EE170E18C2F0E940F
:10451000141401E0D63009F000E06091F20562FB6E
:10452000662760F9402F8C2F0E94981E002381F08F
:104530006091F20562FB662760F921E040E0812F7F
:104540000E94DB499091F20580FB92F99093F2056D
:10455000DF91CF911F910F9108952F923F924F922B
:104560005F926F927F928F929F92AF92BF92CF9203
:10457000DF92EF92FF920F931F93CF93DF9300D0C0
:104580001F92CDB7DEB7382E698380910A0C9091C7
:104590000B0C892B11F010E001C01981BFE1FB2E3B
:1045A000F12280910C0C882331F021E0D12EF212FF
:1045B00003C0DA9401C0D12E332019F040E355E155
:1045C00002C04CE250E122E060E080E00E940D1465
:1045D000832D0E94AE129091040C20E0482F50E0F1
:1045E00060E0892F815F0E94E443332019F043E3A8
:1045F00050E102C047E350E160E08091040C0E946A
:104600001A14009102010150332011F064E001C03E
:1046100065E02AE04DE950E18D2D0E94124E88237D
:1046200009F471C440902202143680F4123608F066
:1046300003C1113269F120F4103209F06DC152C08A
:10464000812F8254823008F067C1F6C0163850F4CA
:10465000143808F0A0C0103809F472C0113809F0FD
:104660005BC106C0812F8E5B823008F055C16FC0E0
:1046700080910C0C882349F08091090C811105C0B0
:104680006091B70B832D0E94A64481E80E94700DB3
:104690008091090C882309F45AC080910C0C813058
:1046A00031F46091B70B832D0E94A64416C061E0DF
:1046B0008091090C18160CF060E0832D0E94801C7C
:1046C0008091090C87FF02C08F5F01C081508093E9
:1046D000090C8091090C8111EACF4090080C40929E
:1046E000220235C08091050C882341F080910C0C8A
:1046F000882331F18091090C811122C080910C0C2A
:10470000813011F482E001C081E080930C0C809133
:10471000B70B8093240B332041F00E94A612DC01DA
:104720008C9186958695837005C00E949E12FC012F
:1047300080818F708F5F8093250B4092080CECC0B6
:10474000812F0E94700D8091090C882329F010920E
:104750000C0C1092090CE0C080910C0C811110928D
:10476000050C8091050C882351F0832D0E94D012F6
:104770008111D2C06091B70B832D0E94F044332089
:1047800019F08AE494E302C081E396E30E94C845ED
:1047900010920C0CB8C380910C0C882309F4BCC097
:1047A0008091090C8111B8C0832D0E94D012811113
:1047B000B3C08091B70B332041F00E94A612DC01F8
:1047C0008C9186958695837005C00E949E12FC018F
:1047D00080818F708F5F8093050C143829F480914D
:1047E000B70B8F5F8093B70B6091B70B832D0E943F
:1047F000F044332019F08AE494E302C081E396E3A5
:104800000E94C84510920C0C812F0F900F900F90B2
:10481000DF91CF911F910F91FF90EF90DF90CF909C
:10482000BF90AF909F908F907F906F905F904F90D0
:104830003F902F900C94700D80910C0C882309F4FC
:104840006BC09091090CF3E0092FFF1202C00150D8
:1048500001C00F5F911144C0813009F053C0832D16
:104860000E94D012811158C08091B70BC82ED12C54
:10487000332071F00E94A612A60140955095425F28
:104880005F4F440F551F440F551FBC0104960FC0C6
:104890000E949E12C094D09420E2C20ED11C29E046
:1048A0002C9DA0012D9D500D1124BC0109960E9444
:1048B000246182E00E94F41082E0F81204C080912A
:1048C000B70B8F5F1CC08091B80B242D30E0281BE4
:1048D000310926303105F4F08F5F8093B80B1AC090
:1048E000011110C0813071F46091B70B832D0E94CB
:1048F000A644A3E0FA120EC08091B70B81508093BA
:10490000B70B08C061E0B3E0FB1260E0832D0E94AA
:10491000801C81110093090C1092050C55245394AE
:10492000212CFF24F394A8C2EDE0E21508F4DAC2CA
:10493000822D0E94A6124C01DC012C91822F8695BB
:104940008695837090E001968A159B0509F0CAC28E
:10495000237009F0BCC2C6C2BFE1B21508F4C2C2DE
:10496000822D0E949E126C01FC0186818F7709F4D2
:10497000B9C280818F7090E001968A159B0509F07D
:10498000B1C2A8C22F2D30E0281B310928303105D3
:1049900074F4622F660F660F660F20E0452D80E0ED
:1049A000332019F00E94351F02C00E94641F622C40
:1049B00003C04C016B01F42E80910C0C8823E1F1B3
:1049C000823081F58091B80B8F1560F5EF2DF0E006
:1049D000E81BF109E830F1052CF58091250B8511D4
:1049E00021C02091090C2223E9F0862D90E040910E
:1049F000240B332727FD30952227330F221F33271F
:104A0000240F311D8217930769F46E2F660F660F0E
:104A1000660F6150E12C05E529E04AE686E10E9437
:104A2000280FF3948091B70B86110BC0F0922202ED
:104A30005092050C4F2C05C04F1003C06092B70B6D
:104A4000F42C8091B80B8F1508F06FC12F2D30E03A
:104A5000281B3109283031050CF067C1722E770C04
:104A6000770C770C862D332009F4B1C00E94A61272
:104A70009B838A8380910C0C811102C04F1411F02A
:104A800000E001C002E0AA81BB8112964C914695DC
:104A9000202F50E0672D82E20E94E443002399F02A
:104AA000EA81FB816281669524E640E0812F0E94C5
:104AB000DB49880FAA81BB8112969C911297917055
:104AC000982B12969C93AA81BB811396EC914E2F42
:104AD000552747FD509520E0672D87E30E94E4436A
:104AE000EA81FB818281418142954695477080FD34
:104AF000419520E0672D8CE30E94F41EAA81BB81C2
:104B000011964C91440F440F440F4595459545959A
:104B100020E0672D82E50E942B14EA81FB818081D1
:104B20008370833049F0823011F44EE701C04FE7C3
:104B3000672D86E60E948510AA81BB812C91822F69
:104B4000807F79F022952F70822F90E00B9714F0E0
:104B500044E001C040E0420F20E0672D8EE60E9455
:104B6000CD1E40910C0C442309F4DFC0413021F0EC
:104B70008091090C811123C08091250B85111FC0E4
:104B8000862D90E05091240B2091090C332727FDAE
:104B900030952227330F221F3327250F311D82170F
:104BA000930769F4413011F40FEF01C005E5672D5B
:104BB0006150E12C29E04EE682E10E94280FF410BA
:104BC000B4C000E027E04CE6672D83E1ACC00E9452
:104BD0009E129B838A83621469F0FC0122812295D4
:104BE00026952695237000E047EF51E1672D86E07A
:104BF0000E941D14AA81BB8116964C914F7720E02C
:104C0000672D8AE10E94591F80910C0C811102C00E
:104C10004F1411F000E001C002E0AA81BB8111969F
:104C2000EC914E2F552747FD5095202F672D89E495
:104C30000E94E443002361F02DE743E8EA81FB8111
:104C40006181812F0E94DB49AA81BB8111968C93DF
:104C5000EA81FB814381842F8F7349F0440F440F15
:104C60004595459520E0672D8FE40E94CD1EAA81D1
:104C7000BB8112964C91842F8F7349F0440F440FDF
:104C80004595459520E0672D86E60E942B14EA8124
:104C9000FB818581811102C040E201C043E5AA8108
:104CA000BB8114968C91882329F0433511F44AE294
:104CB00001C044E420E0672D8BE70E94C60F4091BD
:104CC0000C0C442391F1413021F08091090C8111A9
:104CD00023C08091250B85111FC0862D90E0509137
:104CE000240B2091090C332727FD30952227330F01
:104CF000221F3327250F311D8217930769F4413096
:104D000011F40FEF01C005E5672D6150E12C29E09A
:104D10004AE686E10E94280FF41007C000E027E071
:104D200048E6672D87E10E94F0434F2D4F5F639463
:104D3000B601675F7F4FC4010496332099F0BDE050
:104D4000B61510F1F4015481252F26952695237070
:104D500030E02F5F3F4F2A153B05B1F4537009F047
:104D600028CE12C0FFE1F61578F0D6011F962C91DF
:104D70001F972F7749F01996EC91EF70F0E031967C
:104D8000EA15FB0509F415CE80910C0C823009F070
:104D900070C08091B80B841708F06BC0E42FF0E06E
:104DA000E81BF109E830F1050CF063C08091250B98
:104DB00085115FC0A62DB0E08091240B2091090CD5
:104DC000332727FD30952227330F221F3327280F43
:104DD000311DA217B30709F04CC06E2F660F660F86
:104DE000660F6150E12C05E529E04AE686E10E9464
:104DF000280F4F2D4E5F3DC02092B70B5092050CEF
:104E000080910C0C811171C022E08091B80B8F153C
:104E100068F5CF2CD12CF601E81BF109E830F1053B
:104E20002CF56E2F660F660F660F452D80E0332040
:104E300019F00E94351F02C00E94641F80910C0C63
:104E40008230A1F48091250B851110C08091B80BA0
:104E5000B601681B7109660F660F660F6150E12C81
:104E600005E529E04AE686E10E94280F4F2D4F5FB5
:104E7000622C5394262CF42EA52CB12C31103DC05D
:104E800036C0F0920201242D30E08F2D90E0019782
:104E9000281739071CF0FA94F092220280910A0C2C
:104EA00090910B0C892B79F10E9426444FE355E138
:104EB00068E280E10E941A14B981B13621F581E6D9
:104EC0000E94700D10920B0C10920A0C1CC0C12C89
:104ED000D12C02C0812C912C8091B80B8F1508F435
:104EE00051CD65CD4F1409F487CF20E08ECFE1E19D
:104EF000AE16B1040CF430CDC4CFF5E0AF16B1045A
:104F00000CF412CDBECF0F900F900F90DF91CF9188
:104F10001F910F91FF90EF90DF90CF90BF90AF90D7
:104F20009F908F907F906F905F904F903F902F90C9
:104F30000895682F81E00C94AD22682F80E00C94D6
:104F4000AD226F927F928F929F92AF92BF92CF923B
:104F5000DF92EF92FF920F931F93CF93DF93C82FAF
:104F600000E12AE04DE950E167E00E94124E8823FB
:104F700009F48CC022E04BE350E160E080E00E9445
:104F80000D14C0902202CA94C03611F0C43641F408
:104F9000C7FC06C0C092060C8AE398E10E94C8458F
:104FA000A12C912CBB24B39418E0DD24C7FCD09431
:104FB00085E0882E99E0792E2091B80B2A0DE22EFB
:104FC000F12CCE14DF0411F402E001C000E06624ED
:104FD0006394283028F4612C87E08B1528F44FC0A7
:104FE000E6E0EB1508F44BC0911001C0902E2F5F46
:104FF00043E450E1612F80E00E94A71E662059F033
:10500000F8E0EF1AF1087E9CE0017F9CD00D11249E
:10501000CA5ADA4F07C08E9CE0018F9CD00D112434
:10502000C25DDA4F7E010CE2F70141917F01552705
:1050300047FD509520E0612F802F0E94E4430B5ED6
:10504000053991F708E0F02EF10E611003C0B3941A
:105050001F2D11C025960CE24991552747FD50950B
:1050600020E06F2D802F0E94E4430B5E0038A1F7F3
:10507000105FB394B394A394F7E0AF129DCF911057
:1050800005C08091B80B8F5F8093B80BDF91CF91F3
:105090001F910F91FF90EF90DF90CF90BF90AF9056
:1050A0009F908F907F906F9008950F93062F20E030
:1050B00040E050E060E00E94124E0F9108958F9200
:1050C0009F92BF92CF92DF92EF92FF920F931F9326
:1050D000CF93DF931F92CDB7DEB7F82E66E0C62ED2
:1050E00075E0E72E0FEF14E126E04FE554E161E0B3
:1050F0000E947050882309F439C122E045E055E14F
:1051000060E080E00E940D148091630081FF12C076
:105110004DE055E168E18AE20F90DF91CF911F9158
:105120000F91FF90EF90DF90CF90BF909F908F9066
:105130000C941A1445E155E168E082E10E941A14CA
:105140008091B90B18161CF453E0C52E02C042E042
:10515000C42EDD24D39430E1E32E8D2D0E94EE1475
:10516000882E912C880C991C2EE836E0820E931E16
:1051700020E0482F6E2D80E00E94351F10E08091C6
:1051800022028D1105C080912102811709F4E7C028
:1051900090E0B12C02C0BB24B394113051F1123015
:1051A00009F441C0911102C000E001C00C2DF401CE
:1051B000208122952695269523704EE251E16E2D91
:1051C00088E10E941D14BB2009F44BC0F4016081EA
:1051D000629566956695637022E040E08F2D0E948F
:1051E000EA498295880F880F807CF40190819F7333
:1051F00036C0911102C020E001C02C2DF401418184
:10520000552747FD50956E2D82E40E94E443BB2054
:1052100041F1F401618124E64CE98F2D0E94EA49B5
:10522000F40181831EC0911102C000E001C00C2D69
:10523000F40120812F7348E351E16E2D88E40E9430
:105240001D14BB2071F0F40160816F7323E040E016
:105250008F2D0E94EA498F73F4019081907C982BE6
:1052600090831F5F133009F08ACFF8E0EF0ED394DC
:1052700025E0D21272CF11E080912202853009F030
:1052800010E040E255E160E380E00E941A1411232F
:1052900011F022E201C020E24091A006552747FD0F
:1052A0005095465F5F4F60E38EE40E94E443112314
:1052B00049F028E246EF6091A0068F2D0E94EA494E
:1052C0008093A006EE24E39480912202863019F0A8
:1052D000E12C20E001C022E04CE255E168E380E0EF
:1052E0000E940D140BEB1BE098E8C92E96E0D92E16
:1052F00090E3F801419151918F01F6012191319193
:105300006F01421B530B440F551F20E268E3892FA6
:1053100099830E94E4439981985E903951F7EE2079
:1053200029F1F0E6FF1222C088E0EBEBFBE0A8E8F1
:10533000B6E001900D928A95E1F781E00E94F410A9
:1053400080E00F90DF91CF911F910F91FF90EF9030
:10535000DF90CF90BF909F908F900C944B0D8091D9
:10536000B90B91E018160CF416CF13CF0F90DF9104
:10537000CF911F910F91FF90EF90DF90CF90BF9052
:105380009F908F9008952F923F925F926F927F929D
:105390008F929F92AF92BF92CF92DF92EF92FF9245
:1053A0000F931F93CF93DF931F92CDB7DEB7982E45
:1053B0004091830650E04F5F5F4F02E022E160E0E2
:1053C0008AE20E9490428090820387E0882241F026
:1053D00094E0891629F0801619F0E1E08E1202C0DF
:1053E0008BE001C08AE0C82EBBE0EB2E03E714E19E
:1053F0002AE04DE950E161E0892D0E947050882338
:1054000009F417C322E04FE754E160E080E00E9416
:105410000D14709022026090B80B611014C045E822
:1054200054E168E080E00E941A14EE24E3947E10B8
:10543000E12C092D2AE042E753E068E088E30E946E
:105440003F4910E101C018E0C12CD12CF2E05F2EE1
:10545000ACE3AA2EB12C651408F08EC02C2D2F5F62
:1054600000E049E854E1612F80E00E94A71E75101A
:105470000AC080912102811106C08091B90B1816D3
:1054800024F423E003C020E001C022E01601220C36
:10549000331C2C0C3D1C8CE793E0280E391EF101C7
:1054A0004081612F88E30E9472147510BDC2809103
:1054B0002102823009F0B5C28091B90B18160CF0A8
:1054C000B5C203E0B4C28091B90B00E0181614F421
:1054D00023E001C022E0F10141815281612F84E586
:1054E0000E946C1F751044C08091B90B18160CF007
:1054F0003FC0F101E180F28080912102813071F0A2
:1055000018F0823091F51AC02EE246EDF10160816B
:10551000892D0E94DB49F101808327C0C701B501B5
:105520000E94B3607C012BE340E0892D0E94DB499F
:10553000FCE38F02E00CF11C112417C0C701B50178
:105540000E94B360082F682F6E5F2EE341E0892D23
:105550000E94DB49081B802F8E5FE81AF10887FD47
:10556000F394F7FE02C0E12CF12CF101F282E1820A
:10557000185F193308F05DC25394FFEFCF1ADF0AAA
:1055800084E0581268CF93E0961548F160E974E121
:10559000812F0E94141401E0E4E07E1200E04091AB
:1055A000830345FB442740F9202F612F88E30E94A5
:1055B000E114002381F06091830365FB662760F9A5
:1055C00021E040E0892D0E94DB499091830380FB1C
:1055D00095F990938303185F193308F02AC2F4E019
:1055E000F61548F16AE974E1812F0E94141401E074
:1055F00085E0781200E04091830346FB442740F9A0
:10560000202F612F88E30E94E114002381F0609134
:10561000830366FB662760F921E040E0892D0E9444
:10562000DB499091830380FB96F990938303185F85
:10563000193308F0FEC195E0961550F162EA74E165
:10564000812F0E941414E6E07E1202C002E001C025
:1056500000E020918303277045E451E1612F88E346
:105660000E941D14F6E07F120FC0609183036770E3
:1056700024E040E0892D0E94DB49877090918303EC
:10568000987F982B90938303185F193308F0D1C14A
:1056900086E0861550F16BEA74E1812F0E941414A4
:1056A00040914E06443010F04F5E05C0442311F087
:1056B0004C5F01C043E097E0791202C022E001C0D4
:1056C00020E0612F88E30E94351FE7E07E1209C0C9
:1056D00023E140E060914E06892D0E94DB498093D2
:1056E0004E06185F193308F0A4C1F7E0F61568F10B
:1056F00063EB74E1812F0E94141488E0781204C0D7
:1057000021E080912102811120E04091820343FB3E
:10571000442740F9612F88E30E94E11498E0791250
:1057200010C06091820363FB662760F921E040E0CE
:10573000892D0E94DB499091820380FB93F990931D
:105740008203185F193308F074C1E8E0E61508F425
:105750004EC06AEB74E1812F0E94141498E3E12C8F
:10576000F12C2E2D809121028E1103C0F9E07F16BD
:1057700069F04091850350E00E2C02C05595479585
:105780000A94E2F740FF04C002E003C003E001C056
:1057900000E044E651E1612F892F99830E941D1496
:1057A0008FEFE81AF80A99819A5F9236D1F699E05C
:1057B000791219C0E0E69E1216C080E60E94700DB4
:1057C0001092B90B41E050E00090210202C0440F5A
:1057D000551F0A94E2F780918503842780938503FF
:1057E00082E00E94F410185F193308F022C1F9E03A
:1057F000F61508F4AAC062EC74E1812F0E9414141B
:105800008AE078120AC080912102811106C080913D
:10581000B90B181624F403E003C000E001C002E055
:10582000282D4CE651E1612F88E30E941D14EAE027
:10583000882019F094E0891242C07E120AC080913B
:105840002102813031F48091B90B181624F403E061
:1058500003C000E001C002E0209182032595259558
:10586000259525952E5F4FEB50E1612F80E50E9435
:105870001D1448EC54E1612F8AE70E941A14FAE0E3
:105880007F120AC080912102823031F48091B90BDD
:10589000181624F423E003C020E001C022E0409168
:1058A000840382E34802A0011124445D5E4F612F0E
:1058B0008AE70E94E4439AE0791243C004C07E1252
:1058C00040C0109221028091B90B181644F0882034
:1058D000C1F1F4E08F16A9F182E0881691F1809170
:1058E0002102813089F018F0823059F521C0609191
:1058F0008203677024E040E0892D0E94DB498770B5
:1059000090918203987F10C06091820365956595A0
:105910006595659524E04EEF892D0E94DB498295BF
:10592000807F909182039F70982B9093820309C08F
:105930002AE04CEF60918403892D0E94DB4980931B
:105940008403185F193308F074C09AE0961508F4C0
:1059500070C0882019F0E4E08E126BC06AEC74E12C
:10596000812F0E94141444ED54E1612F8AE40E94B7
:105970001A14FBE07F120AC080912102811106C037
:105980008091B90B181624F423EA03C020EA01C061
:1059900022EA40914D0685E04802A00111244F51B2
:1059A0005F4F612F88E30E94E4439BE0791206C0B9
:1059B00080912102813011F402E001C000E02091C9
:1059C00083032295217046E851E1612F8CE50E9406
:1059D0001D14EBE07E122DC08091B90B18164CF50A
:1059E00080912102882319F0813019F50AC024E141
:1059F0004CEE60914D06892D0E94DB4980934D0647
:105A000018C0609183036295617021E040E0892DA8
:105A10000E94DB499091830380FB94F99093830368
:105A200008C0813009F44FCD00E001C002E020E061
:105A300052CD0F90DF91CF911F910F91FF90EF907A
:105A4000DF90CF90BF90AF909F908F907F906F909E
:105A50005F903F902F9008955F926F927F928F9208
:105A60009F92AF92BF92CF92DF92EF92FF920F93ED
:105A70001F93CF93DF93882E1091B70B812F0E9435
:105A8000EE12EC01412F4F5F20E060E08EE40E94B7
:105A9000F41E8091B70B811102C082E001C084E046
:105AA000C82E23E0E22E07ED14E120E040E050E0B4
:105AB00060E0882D0E947050882309F4F4C022E031
:105AC0004BED54E160E080E00E940D14C090220292
:105AD00010E1712CF12CDD24C7FCD0945E0126E08E
