:100000000C94310C0C944E0C0C944E0C0C944E0C25
:100010000C944E0C0C944E0C0C944E0C0C944E0CF8
:100020000C944E0C0C944E0C0C944E0C0C944E0CE8
:100030000C94E6590C944E0C0C944E0C0C94834189
:100040000C94AD420C944E0C0C945F580C944E0CD6
:100050000C944E0C0C944E0C0C94B2590C944E0C07
:100060000C944E0C0C9404410C944E0C0C944E0CBD
:100070000C944E0C0C944E0C0C944E0C0C944E0C98
:100080000C944E0C0C944E0C0C944E0C95589E599E
:10009000B358B8589E59CD58D2589E59E758EC5885
:1000A0009E59015906599E591B5920599E59345938
:1000B00038594E595059525954595859010203044C
:1000C00001030204040203010403020142616420EB
:1000D000454570726F6D204461746100466F726DAA
:1000E00061747461676520454550524F4D004D4520
:1000F00053534147450053505300804000000000D7
:1001000000000000000000000000000000000000EF
:1001100000000000000000000000000000000000DF
:1001200000000000000000000000000000000000CF
:1001300000000000000000000000000000000000BF
:1001400000000000000000000000000000000000AF
:10015000000000000000000000000000000000009F
:10016000000000000000000000000000000000008F
:10017000000000000000000000000000FCFCFCFC8F
:10018000FCFCFCFCFCFCFCFCFCFCFCFCFCFCFCFCAF
:10019000FCFCFCFCFCFCFCFCFCFCFCFCFCFCFCFC9F
:1001A000FCFCFCFCFCFCFCFCFCFCFCFCFCFCFCFC8F
:1001B000FCFCFCFCFCFCFCFCFCFCFCFCFCFCFCFC7F
:1001C000FCFCFCFCFCFCFCFCFCFCFCFCFCFCFCFC6F
:1001D000FCFCFCFCFCFCFCFCFCFCFCFCFCFCFCFC5F
:1001E000FCFCFCFCFCFCFCFCFCFCFCFCFCFCFCFC4F
:1001F000FCFCFCFCFCFCFCFCFCFCFCFCFFFFFFFF33
:10020000FFFFFFFFFF7F7F3F3F3F3F3F3F7F7FFF7E
:10021000FFFFFFFFFFFFFF3F3F3F3F3FFF7F7F3F6E
:100220003F3F3F7FFFFFFFFFFFFFFFFFFF7F7F3F5E
:100230003F3F3F3F3F7F7FFFFFFFFFFFFFFFFFFF8E
:100240003F3F3F3F3FFF7F3F3F3F3F3F7FFFFFFF3E
:10025000FF7F0F07030181E0F0F0F0E000010107EC
:100260001FFFFFFFFFFFBF3F3F3F3F7FFFFFFFFF3E
:10027000FF7F3F3F3F3F3FBFFFFFFFFFFFFFFFFF0E
:100280003F07030100C0F0F8FCFCFCFCF800000094
:100290000103FFFFFF3F0100000080E0F8FCFCFCD1
:1002A000F80000000001FFFF3F07030100001018E5
:1002B0001C1C1C1C180000000103FFFFFFFF1F0097
:1002C000000000C0F8FCFCFC1000000000C0FFFFB4
:1002D000FFE0800000000F1F1F1F0F030000000041
:1002E000E0FFFFFFFFFFFFFEF8E00000010707014E
:1002F00080E0F0F8FCFEFFFFFFFFFFFFFFFFFFFFC6
:10030000E0C08000000F1F1F1F1F0F070180C0E00B
:10031000F0FEFFFF0700000000C00F1F1F1F0F07A8
:10032000010080E0F0FEFFFFE0C08000000E0E1E26
:100330001E1E1E1E1E1E0ECEFEFEFFFF7F030000B1
:100340000080FCFFFFFF3F0300000080FCFFFF1F59
:100350000F0F1F1F1E1E1E0E0E0781C0E0F0FCFFB8
:10036000FFFFFF7F3F1F0F030180E0F0F8E08000F8
:1003700001071F7FFFFFFFFFFFFFFFFFFFFFFFFFE3
:10038000FFFFFFFFFFFEFEFEFEFEFEFFFFFFFFFF83
:10039000FFFF1F00000000C0FEFFFFFEFEFEFEFE8E
:1003A000FFFFFFFFFFFFFFFFFFFFFFFFFFFEFEFE60
:1003B000FEFEFEFEFEFFFFFFFFFFFFFFFEFEFEFE56
:1003C000FEFFFFFFFFFFFEFEFEFEFEFFFFFFFFFF43
:1003D000FFFEFEFEFEFEFEFEFFFFFFFFFFFFFFFF34
:1003E000FFFFFEFEFEFEFEFEFFFFFFFFFFFFFFFE24
:1003F000FEFEFEFEFFFFFFFFFFFFFFFF1F1F1F1F91
:100400001F1F1F1F1F1F1F1F1F1F1F1F1F1F1F1FFC
:100410001F1F1F1F1F1F1F1F1F1F1F1F1F1F1F1FEC
:100420001F1F1F1F1F1F1F1F1F1F1F1F1F1F1F1FDC
:100430001F1F1F1F1F1F1F1F1F1F1F1F1F1F1F1FCC
:100440001F1F1F1F1F1F1F1F1F1F1F1F1F1F1F1FBC
:100450001F1F1F1F1F1F1F1F1F1F1F1F1F1F1F1FAC
:100460001F1F1F1F1F1F1F1F1F1F1F1F1F1F1F1F9C
:100470001F1F1F1F1F1F1F1F1F1F1F1F0000000008
:10048000000000000000000000000000000000006C
:10049000000000000000000000000000000000005C
:1004A000000000000000000000000000000000004C
:1004B000000000000000000000000000000000003C
:1004C000000000000000000000000000000000002C
:1004D000000000000000000000000000000000001C
:1004E000000000000000000000000000000000000C
:1004F0000000000000000000000000005350450014
:10050000454550524F4D206C6F77206D656D00470B
:10051000617A207061732061207A65726F00526584
:10052000696E697469616C6973657A206C650053E2
:100530007769746368657320656E636C656E636864
:100540006573005265696E697469616C6973657A77
:10055000206C657300416C61726D65732044657336
:1005600061637469766565730020416C74697475A4
:1005700064650020416C74697475646520486F6C13
:1005800064002047726F756E642073706565640047
:1005900020436C696D62207261746500204C617447
:1005A000697475646500204C6F6E67697475646565
:1005B000000001081E640101081E640101081E6498
:1005C0000101081E6401010F32960A0A1E329620AC
:1005D000415244552050494C4F54204D656761208D
:1005E0003F2F3820004170707579657A20737572DD
:1005F00020746F75636865005008000000000000FB
:1006000000006F000007000700147F147F14242AE5
:100610007F2A1223130864623649552250000503CD
:100620000000001C2241000041221C0014083E086A
:100630001408083E080800503000000808080808A0
:1006400000606000002010080402003E41413E00AE
:1006500000427F4000625149460041494936001836
:1006600014127F0027454539003E4949320001797F
:1006700005030036494936000649291E0000363672
:1006800000000056360000081422411414141414FB
:100690004122140800020151090606090906007EDC
:1006A0000909097E7F494949363E414141227F413E
:1006B00041221C7F494949417F090909013E4149BD
:1006C000497A7F0808087F00417F41002040413F70
:1006D000017F081422417F404040407F020C027F8E
:1006E0007F0408107F3E4141413E7F090909063ED3
:1006F0004151215E7F0919294626494949320101A4
:100700007F01013F4040403F1F2040201F3F4030BD
:10071000403F631408146307087008076151494596
:1007200043007F41410002040810200041417F0046
:100730000402010204404040404000010204002045
:10074000545454787F48444438384444442038440E
:1007500044487F3854545418087E0901020C525200
:10076000523E7F0804047800447D40002040443D10
:10077000007F1028440000417F40007C041804786A
:100780007C0804047838444444387C141414080861
:100790001414187C7C080404084854545420043F62
:1007A0004440203C4040207C1C2040201C3C4020F9
:1007B000403C44281028440C5050503C4464544C55
:1007C00044000836410000007F0000004136080068
:1007D0000808221C08081C220808A060000000006D
:1007E00000000000000000000000FEFE000000000D
:1007F00000003E7E00007E3E00006060FEFE606005
:10080000FEFE606060F09898FEFE989818180C1E26
:100810001E0C80C0E070381878FC8EC6E6763C1856
:100820000000000066763E1E000000000000E0F0C0
:10083000381C0E0600000000060E1C38F0E0000018
:100840006060C080F8F880C0606080808080F8F8C8
:100850008080808000000000000000000000808098
:100860008080808080808080000000000000000088
:1008700000000000000080C0E07038180000000098
:100880000000000000000000000071710000000086
:100890000000000000000000000006067F7F060642
:1008A0007F7F0606181819197F7F19190F06181C63
:1008B0000E070301307878301E3F716367663C3C59
:1008C0006666000000000000000000000000070F46
:1008D0001C387060000000006070381C0F070000BA
:1008E000060603011F1F01030606010101011F1F68
:1008F00001010101000066763E1E000000000101BA
:10090000010101010101010100003078783000008F
:100910000000181C0E070301000000000000F8FC96
:100920000E06060EFCF80000181CFEFE000000007B
:100930000000181C0E0686CEFC780000060686868F
:1009400086CEFC78000080C0E070381CFEFE0000FF
:100950007E7E666666E6C6860000F8FC8E86868E1B
:100960001C180000060686C6E6763E1E000078FCCF
:10097000CE8686CEFC78000078FCCE8686CEFCF84B
:1009800000003078783000000000000030787830C7
:1009900000000000000080C0E070381C0E0660609F
:1009A0006060606060606060060E1C3870E0C0804F
:1009B0000000181C0E06060686CEFC7800001F3FBD
:1009C000706060703F1F000060607F7F60600000AB
:1009D0000000787C6E676361606000006060616148
:1009E00061733F1E00000707060606067F7F0000B2
:1009F0001838706060703F1F00001F3F71616173A5
:100A00003F1E000000007F7F0000000000001E3F2E
:100A1000736161733F1E000000006171391D0F0793
:100A200000000C1E1E0C00000000000066763E1E3A
:100A30000000000000000103070E1C38706006066D
:100A400006060606060606066070381C0E07030139
:100A500000000000000066670301000078FCCE86FD
:100A600086CEFC780000E0F0B89C8E8E9CB8F0E05A
:100A7000FEFE8686868686CEFC78F8FC0E06060686
:100A8000060E1C18FEFE0606060E1C38F0E0FEFEE2
:100A90008686868686860606FEFE86868686868606
:100AA0000606F8FC0E068686868E9C98FEFE8080E2
:100AB00080808080FEFE00000606FEFE0606000026
:100AC000000000000606FEFE0606FEFE80C0E07086
:100AD000381C0E06FEFE0000000000000000FEFEB6
:100AE0001C38F0F0381CFEFEFEFE70E0C0800000F6
:100AF000FEFEF8FC0E060606060EFCF800000101DC
:100B00000101000000007F7F0101010101017F7FE1
:100B10007F7F6161616161733F1E1F3F7060606034
:100B2000607038187F7F60606070381C0F077F7FAF
:100B300061616161616160607F7F010101010101AB
:100B400000001F3F7060616161717F3F7F7F010125
:100B5000010101017F7F000060607F7F6060000015
:100B60001838706060703F1F00007F7F0103070E20
:100B70001C3870607F7F60606060606060607F7F55
:100B80000000010100007F7F7F7F00000103070E4E
:100B90007F7F1F3F7060606060703F1FFEFE868633
:100BA000868686CEFC78F8FC0E060606060EFCF855
:100BB000FEFE8686868686CEFC7878FCCE86868685
:100BC000868E1C1806060606FEFE06060606FEFEB5
:100BD000000000000000FEFEFEFE0000000000001D
:100BE000FEFEFEFE000000000000FEFE1E3E70E065
:100BF000C0C0E0703E1E7EFEC080000080C0FE7E51
:100C00000606060686C6E6763E1E0000FEFE0606C0
:100C100006060000183870E0C080000000000000E8
:100C200006060606FEFE00006070381C0E0E1C381C
:100C30007060000000000000000000007F7F0101E4
:100C40000101010100001F3F7060666E3C387F6744
:100C50007F7F0101070F1D39706018387161616174
:100C600061733F1E000000007F7F000000001F3FF7
:100C70007060606060703F1F070F1C387070381C18
:100C80000F071F3F70703E3E70703F1F787C0E074D
:100C90000303070E7C78000001037F7F030100003F
:100CA000787C6E6763616060606000007F7F606079
:100CB00060600000000000000103070E1C18000027
:100CC000606060607F7F00000000000000000000A6
:100CD0000000606060606060606060600000060E40
:100CE0001C387060000000006060606060E0C080E0
:100CF000FEFE80C0E06060E0C08080C0E0606060B8
:100D00006060000080C0E06060E0C080FEFE80C0E7
:100D1000E060606060E0C0808080F8FC8E86060E37
:100D20001C18E0F0381818181818F8F8FEFE80C0E3
:100D3000E06060E0C08000006060E6E60000000067
:100D4000000000006060E6E60000FEFE000080C0DB
:100D5000E060000000000606FEFE00000000E0E08B
:100D600060E0C0C0E0E0C080E0E080C0E06060E043
:100D7000C08080C0E060606060E0C0800000000073
:100D8000000000000000183C7E66666666667F7F95
:100D90007F7F6161606060703F1F1F3F70606060B7
:100DA000607038181F3F7060606061617F7F1F3F17
:100DB000766666666666070701017F7F01010000AF
:100DC000000001036766666666763F1F7F7F01014C
:100DD000000000007F7F000060607F7F6060000097
:100DE0001838706060703F1F00007F7F060F1F394A
:100DF00070600000000060607F7F606000007F7FA7
:100E00000000070700007F7F7F7F010100000000D6
:100E10007F7F1F3F7060606060703F1FE0E0606038
:100E2000606060E0C08080C0E0606060C080E0E042
:100E3000E0E080C0E06060E0C08080C0E0606060B2
:100E4000606000006060FEFE606000000000E0E0A6
:100E5000000000000000E0E0E0E000000000000012
:100E6000E0E0E0E0000000000000E0E060E0C080C2
:100E7000000080C0E060E0E0000000000000E0E072
:100E8000606060606060E0E0E060000080C0787CEE
:100E90000E06000000000000FEFE00000000000042
:100EA000060E7C78C0800000808080801838F0E0DA
:100EB000C08080C0E0F03818808080807F7F060688
:100EC00006060607030101030706060607077F7FDC
:100ED0007F7F0101000000000101616367666666B3
:100EE000667E3C1800001F3F7060607038181F3F1E
:100EF0007060607038187F7F070F1C387070381C66
:100F00000F071F3F7070383870703F1F6070391FB7
:100F10000F0F1F39706001036766666666763F1FB4
:100F20006070787C6E6763616060000001031E3E44
:100F300070600000000000007F7F000000000000E3
:100F400060703E1E0301000001010101181C0F0723
:100F500003010103070F1C18010101010301020035
:100F6000040506075F2D2E2C001B1E272D36394B3E
:100F70004E636C7278878D939CB1B4C6C9D2D8E1A8
:100F8000E4434F4E46494720524144494F0042698D
:100F9000706575720048617074696320537472657E
:100FA0006E67746800436F6E74726173746500419C
:100FB0006C61726D6520426174746572696500418F
:100FC0006C61726D6520696E6163746976697465C0
:100FD0000046696C7472652041444300496E766531
:100FE0007273696F6E2047617A0042697020742EB7
:100FF0006D696E757465730042697020206120729E
:1010000065626F75727300466C61736820717561FB
:101010006E642062697000496E7465722065636C4D
:101020006169726167650045636C6169722E206F4A
:10103000666620617072657300456372616E20643C
:10104000276163637565696C00416C657274652026
:1010500047617A00416C6572746520496E746572EF
:1010600000416C65727465204D656D6F6972650035
:10107000416C6572746520416C61726D6500504110
:101080005320444520444F4E4E45455320416C610A
:10109000726D65004F7264726520566F69657320CA
:1010A0005278004D6F646500120800081C0808089B
:1010B0001C0800000822004900220800000000006F
:1010C000227F2200000008220049002208000008B8
:1010D000220049002208000000227F2200000000B8
:1010E00000082200490022080000081C0808081C0B
:1010F000080050504D00434800544D520053544195
:101100005400544D310D544D32005448520D544842
:101110002500544F5400444542554700746D7231C8
:101120004C6174206D617804757300746D72314C7C
:101130006174206D696E04757300746D7231204A9C
:10114000697474657204757300746D61696E206DE5
:101150006178066D73004672656520537461636B38
:10116000206D696E0462005B4D454E555D706F7574
:10117000722072657365740043414C494252415478
:10118000494F4E005B4D454E555D504F55522044E2
:101190004542555400534554204E45555452450040
:1011A0005B4D454E555D5175616E642050524554FE
:1011B00000424F55474552204D414E434845532F1D
:1011C000504F5453200044494147005472696D2DDB
:1011D000202B00414C45525445004D6178206578E4
:1011E000706F2061747465696E7421004D617820A0
:1011F0006D6978616765732061747465696E7421C7
:10120000004D454E5553204F564552464C4F5700C2
:10121000546F7563686520706F757220636F6E74AC
:10122000696E75657200204172647550696C6F74E7
:10123000204D6F6465002052544C204469737461E2
:101240006E63650020526F6C6C20416E676C6500A8
:1012500020506974636820416E676C6500204169A5
:1012600072205370656564200020436C696D6220B4
:101270005261746520002057617920506F696E7447
:10128000202320002044697374616E636520002070
:10129000436F75727365002042656172696E670005
:1012A000496E746572007518D8449B3096176A2988
:1012B00085164E6F6D0053455455500000090202CB
:1012C00000000000000602014368726F6E6F004567
:1012D0002E4C696D6974657300452E5472696D7387
:1012E000005472696D20496E6300542D547261631D
:1012F0006500542D5472696D004269702043747208
:101300000050726F746F00750050504D206672610E
:101310006D65006D7300414E41004100424700433E
:101320004F555242455300435600494E534552458E
:1013300052204D49584147452000454449544552A3
:10134000204D49584147452000536F757263650031
:10135000526174696F004F666673657400547269F8
:101360006D00436F7572626500502E566F6C0041C0
:101370006C65727465004F4646004D756C747078EC
:101380000052657461726420426173005265746139
:10139000726420486175740052616C656E74697284
:1013A00020486175740052616C656E7469722042E8
:1013B000617300630056455253494F4E00564552E3
:1013C000533A2056322E30302D002053564E3A20BC
:1013D0006F70656E39782D72323332004441544556
:1013E0003A20323031322D30322D31300054494DD7
:1013F000453A2031313A31313A3230004545505288
:101400004F4D207600434F55524245004D4F4445C5
:1014100000535700446570617373656D656E742089
:10142000454550524F4D0044522F4558504F004FA4
:1014300046464F4E202D2D2D494E563443482036DA
:101440004348203843482031304348313243483103
:10145000344348313643485175696574204E6F4BAB
:101460006579207853686F7274436F757274204E7B
:101470006F726D20204C6F6E672020784C6F6E6706
:101480002053494E474F534D5046494C5442617387
:10149000204F464620486175746F6666202B3D20BC
:1014A0003A3D636831636832636833636834457812
:1014B00070202020457846696E2046696E202020E5
:1014C0004D6F79656E2047726F73202052455441ED
:1014D00031323350504D2020505858202044534D25
:1014E000322050504D3136504F534E45472D2D2D03
:1014F000783E30783C307C787C663E30663C307C90
:10150000667C45444954205052534554412E47412E
:101510005A526174696F204578706F20205068615D
:10152000736520496E746572204D6F646520204399
:101530006F75726265202020202020416A6F7574CB
:101540006572204D756C7469706C7952656D706C44
:101550006163652B3D2A3D3A3D4F4E202020204FB0
:1015600046462020204F66667365742D2D2D2D0074
:101570002020763E6F66732020763C6F66732020B5
:101580007C767C3E6F66737C767C3C6F6673414EE6
:1015900044202020204F522020202020584F52202D
:1015A00020202076313D3D7632207631213D763245
:1015B0002076313E7632202076313C7632202076FD
:1015C000313E3D76322076313C3D763220536563A4
:1015D0007572697465200020202045636F6C616717
:1015E000652000202020205472696D20696E73747C
:1015F000616E74205472696D73324F6666736574E0
:10160000734A6F75657220736F6E202020205761BA
:10161000726E31205761726E3220436865657020AA
:1016200052696E672020536369466920526F626F6A
:101630007420436869727020546164612020437291
:1016400069636B74536972656E20416C6D436C6B9A
:101650005261746174615469636B202048617074D5
:101660006331486170746332486170746333204D34
:10167000656E752045786974202042617320486149
:10168000757444726F6974476175636847415A4461
:101690004952505246494430494431494432414903
:1016A0004C47454154524E53573153573253573399
:1016B0005357345357355357365357375357385377
:1016C0005739535741535742535743444952205077
:1016D00052462047415A2041494C20503120205049
:1016E000322020503320204D41582046554C4C4349
:1016F00059433143594332435943334F464641429C
:1017000053475A73475A25475A74005B4D454E5507
:101710005D045B455849545D0078540D255346FAE5
:1017200040FF407751B0289A43BE424080080420D1
:1017300010020144522F4558504F004D495845550D
:1017400052002F3134002F3332005048415345535B
:1017500020444520564F4C00286465666175742905
:10176000005665726966055472696D730050484190
:10177000534520444520564F4C00060003547269DF
:101780006D73004661646520496E004661646520A2
:101790004F7574005056004D4F44454C4500494E1E
:1017A0005445525320464F4E4354494F4E53000028
:1017B00002494E54455253205045525300000245B1
:1017C000434F4C414745000002020202004573634B
:1017D0006C617665006D6F6465032520737263002C
:1017E0004D756C7469706C696575720043616C004D
:1017F0004C494D49544553000003030303030303BD
:10180000030303030303030303434F5049455220DB
:101810005452494D205B4D454E555D0053454C4D4E
:101820004F4445006C6962726500535550505249EF
:101830004D4552204D4F44454C4500436F706965FE
:101840002E2E2E004465706C6163656D656E742E7E
:101850002E2E004368617267656D656E742E2E2EA4
:10186000000011241FBECFEFD0E1DEBFCDBF11E0DD
:10187000A0E0B1E0E8E8FBEC02C005900D92AA31CF
:10188000B107D9F71DE0AAE1B1E001C01D92A93668
:10189000B107E1F70E944B5A0C94C2650C9400000A
:1018A000873060F490911708992309F03FC0E82F22
:1018B000F0E0EE0FFF1FEC5FFD4F35C08930C8F13F
:1018C000803198F4E82FF0E0DF01AA0FBB1FA75C7E
:1018D000B74FEE0FFF1FE659FD4F8D919C91119769
:1018E00020813181821B930B0AC0843158F4E82F88
:1018F000F0E0EE0FFF1FE75CF74F80819181880FCA
:10190000991F0895843238F4E82FF0E0EE0FFF1F9E
:10191000EE5BF74F08C0863278F4E82FF0E0EE0F68
:10192000FF1FED5CFE4F80819181089580E090E083
:10193000089580E094E0089580E090E0089541E00B
:10194000262F30E0683058F440E0F901EE0FFF1F19
:10195000EE0FFF1FE20FF31FED5DF34F0CC0285099
:101960003040F90153E0EE0FFF1F5A95E1F7E20F07
:10197000F31FE55BF34FBC0160507C4F77FD0DC05A
:1019800088E06030780784F0442319F088E090E024
:1019900002C084E090E0E80FF91F4081552747FD21
:1019A0005095542F44272EC0272F442321F07070C8
:1019B000660F771F02C026957170822F90E0E80FA6
:1019C000F91F2081332727FD309580E092E0861BA8
:1019D000970B95958795289FA001299F500D389FBB
:1019E000500D1124E181FF27E7FDF0959B0135950E
:1019F0002795E29FC001E39F900DF29F900D112467
:101A0000480F591FCA0169E170E00E944065CB018F
:101A10000895609118080E949F0C0895EFE5F3E087
:101A200020E0822F806487B9369A349BFECF349AA7
:101A300084B195B1880F991F819391932F5F2830BE
:101A400081F70895EFE5F3E040E0842F806487B9E3
:101A500054E080E090E0369A349BFECF349A24B173
:101A600035B1820F931F5150B1F7969587958193A9
:101A700091934F5F483049F70895AFE5B3E0EFE643
:101A8000F3E040E0842F806487B9369A2089318959
:101A90008D919C91119796958795820F931F8E7FBC
:101AA00011969C938E9380819181820F931F9695BE
:101AB0008795918B808B349BFECF349A84B195B1FE
:101AC00020813181820F931F969587958193919301
:101AD0004F5F12964830B1F60895209193022695F3
:101AE00026952695277089F030E021503040F90185
:101AF000EE0FFF1FEE0FFF1FE20FF31FE80FF11DA8
:101B0000EF54FA4FE491E09370010895FC01A09125
:101B10007101B0E0AA0FBB1FA156BD4F8D939C93DE
:101B20008FEB099580E00E946D0D0895CF93DF93B0
:101B3000282F30E0D901AE59B24F8C91E901CC5930
:101B4000D24F861719F488818417A9F08BE090E0B2
:101B5000289FF001299FF00D389FF00D1124E85BBC
:101B6000F24F1082225A324FF90110826C9348834F
:101B700081E08093610DDF91CF910895549857983B
:101B800008958F708E3068F490E0FC01EE0FFF1F17
:101B9000E80FF91FEA5DF74F83E6828380818F7C2F
:101BA000808308958E3091057CF4FC01EE0FFF1FB9
:101BB000E80FF91FEA5DF74F90819F7081E09F3039
:101BC00009F450C080E008958231910589F1833194
:101BD00091058CF48F30910509F18031910524F441
:101BE0008E309105D1F533C08031910589F0813176
:101BF000910599F517C08431910569F084319105FB
:101C0000FCF08531910501F18631910531F522C055
:101C100091B1947023C093B3907820C090916300E9
:101C200091701CC08091630091E083FF17C015C0C4
:101C30008091630083FF11C091E00E990FC00DC029
:101C400091E00E9B0BC009C091B1907107C093B396
:101C5000907404C091B1907201C090E081E099232A
:101C600009F480E00895EF92FF920F931F93CF93B2
:101C7000DF93F82E882349F480915C0390915D03F3
:101C8000892F881F8827881FE6C0992787FD909590
:101C900097FF03C0909581959F4F863109F4D4C07A
:101CA0008A3028F490E00D960E94D20DCEC08A5062
:101CB000282F30E0E901CC0FDD1FC20FD31FCD5616
:101CC000D34F9A81992309F4C5C09A81953038F091
:101CD0009A81983008F4C6C062E0E62E01C0EE2476
:101CE000888181500E94500C8C01EE2009F447C07D
:101CF00078C020915A0330915B032023312381E087
:101D00002115310521F52EC080915C0390915D0372
:101D1000802B912B90935D0380935C0388810E94BC
:101D2000330EE82E89810E94330E9A81953019F086
:101D3000963049F403C0EE20A9F002C0EE2031F441
:101D4000882321F40FC08E2569F001C081E0209125
:101D50005A0330915B03202B312B30935B0320938C
:101D60005A0373C080915A0390915B0300951095BC
:101D70000823192310935B0300935A0363C08881DF
:101D800085323CF02981332727FD30952E593F4F6E
:101D900014C0898129E2820290011124359527958A
:101DA0003595279587FD815C86FB880F880B80F928
:101DB000992787FD9095281B390B8A818230A1F1E4
:101DC000833019F0813039F42BC017FF28C01095EB
:101DD00001951F4F24C017FF27C0109501951F4F75
:101DE00023C0898181500E94500C9C018A818930D6
:101DF00089F08A3018F4883009F507C08A3079F004
:101E00008B3091F08C30D1F414C081E002171307AD
:101E1000C9F41BC081E002171307B9F413C081E0B5
:101E20002017310794F00EC081E0021713076CF001
:101E300009C081E00217130744F404C081E02017B1
:101E400031071CF480E001C081E01F1424F091E010
:101E5000892701C080E0DF91CF911F910F91FF9002
:101E6000EF90089501E010E002C0000F111F8A9565
:101E7000E2F780915C0390915D03802391230097AA
:101E800009F037CF41CF362F37953327379520E0EC
:101E900030935D0320935C030E94330E0895FF92FC
:101EA0000F931F93CF93DF93C1E0D0E00DE010E0DC
:101EB000FC2EC09FF001C19FF00DD09FF00D1124AA
:101EC000E651F34F8581882329F060E00E94430F9B
:101ED000882329F42196C530D10551F7FF248F2D91
:101EE000DF91CF911F910F91FF90089586B3809558
:101EF0008E77E1F710926D0108957093460D60930F
:101F0000450D9093440D8093430D4F5F4093470DD3
:101F1000E39A80911A01882311F40895A89580917D
:101F2000470D1816DCF3089590E0BC01660F771F8B
:101F3000680F791F6C5F7F4FCB01855E9E4F43E03A
:101F400050E00E947D0F0895CF93DF9300D000D022
:101F5000CDB7DEB7282F30E0F901EE0FFF1FE20FFB
:101F6000F31FDE011196E15EFE4F93E001900D92AA
:101F70009150E1F7462F50E0F901EE0FFF1FE20FFD
:101F8000F31F9A01220F331FD901A40FB51FE15E81
:101F9000FE4FA15EBE4F93E00D9001929150E1F78C
:101FA000F901E40FF51FE15EFE4FDE01119693E0AB
:101FB0000D9001929150E1F791E090931A016C839A
:101FC0000E94940F6C81862F0E94940F10921A0128
:101FD0000F900F900F900F90DF91CF910895609325
:101FE0005E03682F70E024E0660F771F2A95E1F703
:101FF0008EE593E041E050E00E947D0F08958DE171
:1020000091E062E070E041E050E00E947D0F0895B1
:1020100080E094E0EBEBF3E0DF019C011D922150A6
:102020003040E1F70895A998AB98AC988BBBAD9A76
:10203000AD98AB9AA99A08951F93CF93DF9310E0C0
:10204000CBEBD3E084E00E94131080E10E941310D8
:10205000812F806B0E941310A998AB9AAC98FE0157
:1020600080E891919BBBAD9AAD988150D1F7C05853
:10207000DF4FAB9AA99A1F5F183021F7DF91CF91FC
:102080001F910895CF93C82F81E80E9413108C2FC1
:102090000E941310CF91089587FD60C047FF02C0D2
:1020A000640F419567FF02C0460F60E0E62FFF27EF
:1020B000E7FDF095A42FBB27A7FDB095EA0FFB1F06
:1020C000E134F10514F040E4461B253511F460FFBE
:1020D0002AEAE62FE595E595E595FF27E7FDF095DA
:1020E000F695FE2FEE27F795E795E80FF11DE554DD
:1020F000FC4F6770C1F0A1E0B0E0062E02C0AA0F4D
:10210000BB1F0A94E2F7A195A2238081A827A08390
:10211000E058FF4F6850460F06C0808182278083B9
:10212000E058FF4F48501416C4F3842F992787FDB9
:102130009095089668E070E00E944065882371F0F1
:10214000E058F04041E050E002C0440F551F8A952E
:10215000E2F74195422380814827408308952FEF7D
:102160000E944C100895E62FE695E695E695F0E07E
:10217000F695FE2FEE27F795E795E80FF11DE5544C
:10218000FC4F87E0EB3BF807B8F4677081E090E024
:1021900001C0880F6A95EAF741FF04C09081982B2F
:1021A0009083089542FF05C08095908189238083A4
:1021B00008959081982790830895CF92DF92EF92AF
:1021C000FF920F931F93CF93DF93062F06950695EB
:1021D000069510E01695102F002717950795080F04
:1021E000111D05541C4F552747FD5095E22FF0E077
:1021F00021FD09C020FF0AC080915008FF24F394FC
:1022000086FD05C003C0FF24F39401C0FF24E2FF54
:102210005BC0EA01CC0FDD1FCA01B3E0880F991F34
:10222000BA95E1F7C80FD91FCA01809760E170E045
:102230000E94406580EA90E0689F9001699F300DA0
:10224000789F300D1124C20FD31FC456D94F85E09B
:10225000AF01487050704115510519F0882319F4E9
:102260009CC0882381F0FE019491E056FF4F749149
:102270009E012F5F3F4FF9016491CF55DF4FFE0163
:10228000C490E90104C0CC2470E060E090E0FF203D
:1022900021F0909560957095C094F801EF57FF4F2D
:1022A00027E0EB3BF20758F4D8019C9311966C930E
:1022B0001197A058BF4F7C93C0820E5F1F4F21968D
:1022C000815008F0C8CF69C0E3FF0AC0FF2011F0B9
:1022D0008FEF01C080E0E80189938E0171E001C0B9
:1022E00070E09A01220F331F220F331F240F351F76
:1022F000265A3A4F6770C62EDD244FEF50E0CA01D0
:10230000062E02C0880F991F0A94E2F7E82EE09487
:10231000A8E0B0E0AC19BD09CA010A2E02C095952B
:1023200087950A94E2F7982F909585E0882329F005
:10233000F9012F5F3F4FE49101C0E0E0F110E0951B
:10234000772311F0843039F1D7E00B3B1D0718F5E6
:102350004E2F50E0FA010C2C02C0EE0FFF1F0A9422
:10236000E2F7E801F881FE21FE0FF883662389F089
:10237000F801E058FF4FD7E0EB3BFD0750F40A2E81
:1023800002C0559547950A94E2F750815923540F9E
:1023900050830F5F1F4F815048F6DF91CF911F91FF
:1023A0000F91FF90EF90DF90CF90089520E00E9472
:1023B000DD100895CF93DF930F92CDB7DEB7682F6E
:1023C00070E084E0660F771F8A95E1F7CE010196F1
:1023D00041E050E00E94A96589810F90DF91CF9183
:1023E0000895CF93DF93C82FD82F04C08D2F0E945C
:1023F000DA11D82F8D2F0E94DA118823B9F78D2F8B
:1024000060911D010E94EF0FC0931D010E94FF0FFC
:10241000DF91CF91089590911202982B9093120220
:102420000895AF92BF92CF92DF92EF92FF920F93F7
:102430001F93CF93DF938091740A87709091070167
:10244000981751F18093070180917D00857E8093DC
:102450007D0017981F9A10928A0010928B0082E8D4
:1024600080938A0080917D00806280937D001EBCF5
:1024700080E49CE99BBD8ABD1DBC1CBC87B7837CE6
:1024800087BF8CE386BF8FE380937C0087B7806132
:1024900087BF1FBC8AE08EBD8091750A85FF03C08F
:1024A000C0E0D5E002C0C0E0D4E04091740A459598
:1024B000459545954595440F485FE091760A84E639
:1024C000E802F0011124E85AFD4F8091400D992750
:1024D00087FD909528EE33E0829FB001839F700DB9
:1024E000929F700D1124685370456E1B7F0B50E353
:1024F000E52E52E0F52E50E0A4EDAA2EA9E0BA2E6A
:10250000CC24DD24CC1ADD0A08E512E00E1B1F0BDB
:1025100024C09601D7018D919D917D018C159D055B
:1025200034F08C179D0714F49C0101C09E01205AC1
:10253000364FCF01820F931F681B790B200F311F7D
:10254000D50111963C932E931396FC93EE9312971C
:1025500084E090E0A80EB91E5F5F5417D1F6A52F56
:10256000B0E0AA0FBB1FAA0FBB1FAC52B64F11960B
:102570007C936E931396FC93EE93129715961C9290
:102580001E92149784ED99E090931901809318019D
:10259000DF91CF911F910F91FF90EF90DF90CF903F
:1025A000BF90AF900895282F30E0F901EF57FE4F0C
:1025B0001082882329F48091720A9091730A04C0D2
:1025C0008091790A90917A0AF901EE0FFF1FE55880
:1025D000FE4F9183808321583E4FF9011082089568
:1025E000E82FF0E0E45AF04FE491F0E0EE0FFF1F27
:1025F000E15AFC4F808191810895633031F164305C
:1026000028F4613051F0623090F40895653039F16A
:10261000653008F1663051F525C0493029F497FD41
:1026200029C0805092400AC097FF2FC029C049306E
:1026300041F4181619060CF180509E4F880F991F0F
:10264000089518161906E4F020C097FF1EC0909553
:1026500081959F4F0895181619067CF011C097FFB9
:102660000FC008C01816190644F00DC067500E942C
:102670009F0C089580E09CEF089580E094E0089519
:1026800080E090E0089580E09CEF08958823E1F0D9
:1026900087FF06C0863E1CF0E0E6E81B16C0819569
:1026A0008B311CF4E82FE05C10C085321CF4E82F5D
:1026B000EB5E0BC0893244F4E82FFF27E7FDF0956D
:1026C000E15CF04FE49101C0E0E28E2F0895AF92FB
:1026D000BF92CF92DF92EF92FF920F931F93CF930F
:1026E000DF93C82F162F7A01D22F802F90E030E38E
:1026F000C32ED12CC822D92264E0A62EB12CA82248
:10270000B9222FC080E1C816D10429F0E0E2CE162C
:10271000D10451F403C0F701408108C0F701808162
:102720000E944613482F02C0F70144914423D9F078
:10273000CB37C8F4403264F08C2F612F202F0E94D9
:10274000DD10A114B10411F4CA5F07C0C55F05C054
:10275000842F880F840F880FC80F0894E11CF11C88
:10276000D150DD2379F6C0932108DF91CF911F91DD
:102770000F91FF90EF90DF90CF90BF90AF900895B2
:102780000F931F93CF93DF93D82FC62F142F022FB1
:10279000442329F0463131F04A3E51F406C045E366
:1027A00054E123C042E354E120C04FE254E11DC094
:1027B00047FF05C0825048E02EE50E944C10E12FF3
:1027C000FF27E7FDF095F7FF03C0F095E195FF4F78
:1027D000FF27E7FDF0953197AF01440F551F4E0FCE
:1027E0005F1F4457594E8D2F6C2F23E00E946713B3
:1027F000DF91CF911F910F9108950F931F93CF9366
:10280000DF93182FD62FC42F022F47FF09C084E073
:10281000841BC82F812F865041E20E94DD1011C019
:1028200045307CF4E42FFF27E7FDF095AF01440F1E
:10283000551F4E0F5F1F4550594E23E00E946713EE
:1028400019C04C2FCA313CF44450812F6D2F202FDA
:102850000E94C0130FC04951812F6D2F202F0E945D
:10286000C01307FD07C0812F8E5E6D2F4DE6202F10
:102870000E94DD10DF91CF911F910F9108950F936A
:10288000022F2FEF0E9467130F910895CF93C82F47
:1028900080E060E04FEC55E022E00E943F1486E6C5
:1028A00060E04C2F22E00E94DD10CF910895982F18
:1028B000AB0180E0692F20E00E943F1408950F9340
:1028C0001F93CF93DF93EC018B010E94081082E2EB
:1028D00060E043ED51E124E00E943F1480E2BE013C
:1028E0000E94571488E2B8010E94571480E365EEF5
:1028F00075E00E9457140E941C1080917E020E9475
:1029000042100E94760FDF91CF911F910F91089591
:1029100020E00E943F140895823641F0833619F07A
:10292000813669F406C085ED94E107C083EC9EE131
:1029300004C00E94BE0D87E896E30E94860D80E0E9
:1029400061E245E00E94960D81E061E246E00E946E
:10295000960D83E30E94461486E068E049E655E060
:102960000E9488148091480D882319F048E45DE0A6
:1029700002C048E051E08CE060E124E10E943F1495
:1029800086E060E243E755E00E9488148091530D91
:10299000882319F043E55DE002C048E051E08CE097
:1029A00068E224E10E943F140895823641F08336A4
:1029B00019F0813669F406C08EE195E107C08CE814
:1029C00094E104C00E94BE0D87E896E30E94860D44
:1029D00080E061E243E00E94960D81E061E244E024
:1029E0000E94960D82E30E94461486E068E042E869
:1029F00055E00E9488148091480D882319F048E41E
:102A00005DE002C048E051E08CE060E124E10E941A
:102A10003F1486E060E240E955E00E94881480910E
:102A2000530D882319F043E55DE002C048E051E012
:102A30008CE068E224E10E943F140895823661F040
:102A4000833628F4803659F08136A1F40DC08336E0
:102A500089F48FE99DE10CC085ED94E109C00E94E5
:102A6000BE0D83E09DE104C00E94BE0D87E896E3A1
:102A70000E94860D80E061E241E00E94960D81E0B7
:102A800061E242E00E94960D81E30E9446148EE1CD
:102A900068E04CE955E00E9488148091480D882335
:102AA00019F048E45DE002C048E051E08CE060E1EC
:102AB00024E10E943F148EE160E246EA55E00E9464
:102AC00088148091530D882319F043E55DE002C01E
:102AD00048E051E086E068E224E10E943F14089556
:102AE0000E941E1508950F93E42FF0E0AF01440FEC
:102AF000551F4E0F5F1F415D5B4E222311F002E018
:102B000001C000E023E00E9467130F910895E09157
:102B10009902F0E0E759F04FE491F0E024E030E072
:102B2000281B3109220F331F02C0F595E7952A951E
:102B3000E2F78E2F83708F5F0895CF92DF92FF921E
:102B40000F931F93CF93DF930F92CDB7DEB78CED2A
:102B500092E0E7E6FAE0DF019C011D92215030404F
:102B6000E1F791E000E010E034E6F32E680123E0A5
:102B7000CC0CDD1C2A95E1F7C00ED11EABE7BAE004
:102B8000CA0EDB1E292F2F71F6018081807E822BD9
:102B90008083F282802F8F5F99830E948715D601F0
:102BA00011968C9311970F5F1F4F99819F5F9F71B3
:102BB0009530E1F682E00E940B120F90DF91CF91E9
:102BC0001F910F91FF90DF90CF900895CF93C82F62
:102BD00080E060E046E151E122E00E943F14C2360D
:102BE000B9F0C33628F4C03631F0C136C1F413C091
:102BF000C336A9F410C08FEF8093650A1092660A5D
:102C000010922D0210922C0280E00E946D0D07C0E0
:102C100083E09DE102C087E896E30E94860D80E094
:102C200068E04CE151E10E9488144091660A4695A3
:102C3000552747FD50958AE568E020E00E94A42DC5
:102C400080E060E14BE251E10E9488144091650A06
:102C50004695552747FD50958AE560E120E00E94A2
:102C6000A42D80E068E14AE351E10E94881480913C
:102C7000660A90E02091650A821B910962E070E08B
:102C80000E944065462F552747FD50958AE568E12B
:102C900020E00E94A42D80E060E249E451E10E941E
:102CA000881420912C0230912D0284E690E0289F18
:102CB000A001299F500D389F500D112464E05695B6
:102CC00047956A95E1F78AE560E220E60E94A42D27
:102CD00080E060E346E551E10E9488148AE69DE0C9
:102CE000AC010196FA0120812535D1F349565D40AA
:102CF0008BE660E328E00E94A42D82E168E347E6CA
:102D000051E10E948814CF9108958F929F92AF92C3
:102D1000BF92CF92DF92EF92FF920F931F93CF93C8
:102D2000DF93D82F80E060E048E751E122E00E9485
:102D30003F148D2F65E046EA52E126E000E00E9454
:102D40008C30882309F4E5C000E913E09EE9892E60
:102D500093E0992E7401C0E08C2F0E94F0129C0128
:102D6000D8018C9111969C911197281739070CF472
:102D7000C901F801819391938F01D7018C9111962C
:102D80009C911197821793070CF4C901F701819365
:102D900091937F01CF5FC730F9F68091AC038093A8
:102DA0008F03D03219F0DF3B59F408C08F5F809356
:102DB000AC03833029F481E00E940B121092AC0323
:102DC0008091AC03813069F0813020F0823009F0CD
:102DD0009EC039C082E168E144E851E10E94881454
:102DE00096C080918F03882311F022E001C020E07B
:102DF0008EE160E145E951E10E943F1482E168E122
:102E000040EA51E10E948814C0E9D3E00DEA13E0E2
:102E1000DD24B8E9EB2EBAE3FB2E88E6A82E85EC7C
:102E2000B82EE992F992D401AD92BD924D018D2D4B
:102E30000E94F012F801819391938F01D394F7E0EF
:102E4000DF1679F764C080918F03882311F022E0A8
:102E500001C020E082E160E141EB51E10E943F14BA
:102E600082E168E140EA51E10E94881470E9C72ECE
:102E700073E0D72E0DEA13E0E1E5F2E040E0A0E4D4
:102E8000EA2EF12CD6012D913D916D01D401AD902A
:102E9000BD904D01C9018A199B0997FF03C0909508
:102EA00081959F4F83339105E4F0D801CD91DC915A
:102EB0001197D183C083CE01821B930B9C01B70174
:102EC0000E944065261B370B3787268795012C1BF0
:102ED0003D0BC901B7010E944065261B370B358F9A
:102EE000248F4F5F0E5F1F4F3296473059F6E1E552
:102EF000F2E040E080E090E021913191820F931F59
:102F00004F5F4C30C9F790937C0280937B020E9404
:102F10005433DF91CF911F910F91FF90EF90DF908D
:102F2000CF90BF90AF909F908F900895EF92FF92B7
:102F30000F931F93CF93DF93C82F80E060E046ECA0
:102F400051E122E00E943F148C2F63E046EA52E1F7
:102F500026E000E00E948C30882309F47BC0CEE09C
:102F6000D0E010E0143020F038EFE32EE00E01C086
:102F7000E02ECE010E94D20DF82E1F5F80E36E2D51
:102F8000412F20E00E94C0134F2D405DFF2011F023
:102F900022E001C020E084E46E2D0E94DD10085F75
:102FA00021961930F9F6D8E32FE3E22E22E0F22E33
:102FB000C0E08C2F90E00E94D20D182FA701415D38
:102FC0005B4E80E06D2F25E000E00E946713412FEB
:102FD000405D80E26D2F212F0E94DD10CF5F85E0E4
:102FE00090E0E80EF91ED850C63019F784E568E184
:102FF0004BEC51E10E948814C6E0D0E010E284E579
:10300000612F48EA50E1202F0E94B122CE010E9498
:10301000D20DF82ECE0101960E94D20DE82E4F2D32
:10302000405DFF2011F022E001C020E08CE6612F1E
:103030000E94DD104E2D405DEE2011F022E001C017
:1030400020E088E7612F0E94DD100F5F185F229655
:103050000430A9F6DF91CF911F910F91FF90EF906F
:1030600008950F93CF93DF93C62FD22F202F2F7E5B
:103070000E943F14202F2068809121086C2F4D2F33
:1030800050E002E00E94882CDF91CF910F910895CB
:103090000F93022F442321F445E354E123E00AC0B7
:1030A0004D3058F450E0440F551F440F551F4953FD
:1030B000594E24E00E94671316C0453128F4242F8E
:1030C0002C5042EF50E10DC0453228F4242F2451FA
:1030D00046EF50E106C0473230F4242F245249EF26
:1030E00050E10E9431180F910895CF92DF92EF9234
:1030F000FF920F931F93CF93DF930F92CDB7DEB75D
:10310000182F80E060E041E85FE022E00E943F1479
:10311000812F60E046EA52E126E004E10E948C3013
:10312000882309F40FC4C090200880911B088D30BB
:1031300041F48FE08C1514F08CE001C08EE0809398
:103140001B0880911B088823C9F588E06EE87FE0A2
:103150000E94571480919302869586958695877074
:1031600090E0AC01440F551F480F591F440F551FE5
:10317000495A5B4EE1E0CE1611F402E001C000E0D6
:103180008AE568E026E00E946713F1E0CF16C9F4F3
:10319000609193026695669566956770812F40E011
:1031A00026E00E94EF248770880F880F880F909187
:1031B0009302977C982B9093930203C0A8E0DA2E99
:1031C00002C0F0E1DF2E80911B08823000F58D2DCA
:1031D00065E97FE00E94571440919E0282E0C81684
:1031E00011F422E801C020E886E66D2D50E00E942F
:1031F000A42DE2E0CE1649F4812F60919E0240E0BA
:1032000025E00E94EF2480939E02F8E0DF0E80917B
:103210001B08833010F58D2D65EA7FE00E9457145E
:1032200040917E0283E0C81611F422E801C020E834
:1032300086E66D2D50E00E94A42DE3E0CE1659F4F1
:10324000812F60917E024AE02DE20E94EF2480935C
:103250007E020E944210F8E0DF0E80911B0884304D
:1032600000F58D2D6FEA7FE00E94571440917F0298
:1032700084E0C81611F422E801C020E886E66D2D2E
:1032800050E00E94D22DE4E0CE1649F4812F6091E7
:103290007F0248E228E70E94EF2480937F02F8E053
:1032A000DF0E80911B08853050F58D2D6FEB7FE090
:1032B0000E9457144091950285E0C81611F422E847
:1032C00001C020E886E66D2D50E00E94A42D80917B
:1032D00021086D2D4DE60E94D611E5E0CE1669F469
:1032E00060919502812F70E040E050E02AEF30E0DD
:1032F00001E00E94942380939502F8E0DF0E809114
:103300001B08863038F58D2D61ED7FE00E94571443
:103310004091970250E0440F551F440F551F4F57DF
:103320005B4E86E0C81611F402E001C000E086E6BC
:103330006D2D24E00E946713E6E0CE1649F4812F3C
:103340006091970240E022E00E94EF248093970270
:10335000F8E0DF0E80911B08873040F58D2D6CED75
:103360007FE00E94571440919602417021E087E06F
:10337000C81220E086E66D2D0E947315E7E0CE1698
:1033800079F4609196026170812F40E021E00E9403
:10339000EF248170909196029E7F982B90939602D5
:1033A000F8E0DF0E88E38D1508F4CCC280911B088D
:1033B000883058F58D2D6AEE7FE00E9457144091B9
:1033C00096024695417021E0E8E0CE1220E086E6C4
:1033D0006D2D0E947315F8E0CF1689F46091960266
:1033E00066956170812F40E021E00E94EF2481709A
:1033F000880F909196029D7F982B9093960288E07B
:10340000D80EE8E3ED1508F49DC280911B088930C1
:1034100070F58D2D68EF7FE00E9457144091960261
:1034200046954695417021E0F9E0CF1220E086E60E
:103430006D2D0E94731589E0C81699F4609196026B
:10344000669566956170812F40E021E00E94EF242F
:103450008170880F880F909196029B7F982B909394
:103460009602E8E0DE0EF8E3FD1508F46BC28091E9
:103470001B088A3088F58D2D67E070E10E94571493
:1034800040919602469546954695417021E08AE026
:10349000C81220E086E66D2D0E947315EAE0CE1674
:1034A000A9F4609196026695669566956170812F84
:1034B00040E021E00E94EF248170880F880F880F80
:1034C00090919602977F982B90939602F8E0DF0EEA
:1034D00088E38D1508F436C280911B088B3018F5EF
:1034E0008D2D67E170E10E94571440918102EBE05D
:1034F000CE1611F422E001C020E086E66D2D0E9478
:10350000C013FBE0CF1649F4812F609181024AEE8F
:1035100026E10E94EF248093810288E0D80EE8E340
:10352000ED1508F40FC280911B088C3008F042C0E2
:103530008D2D67E270E10E9457142091980222239A
:10354000D1F030E0C901880F991F880F991F820FB1
:10355000931FAC01FCE0CF1611F422E801C020E873
:1035600086E66D2D0E94A42D809121086D2D43E7E4
:103570000E94D6110DC08CE0C81611F402E001C003
:1035800000E086E66D2D4FE254E123E00E946713D0
:10359000ECE0CE1649F4812F6091980240E028E7D4
:1035A0000E94EF2480939802F8E0DF0E88E38D15E7
:1035B00008F4C8C180911B088D3068F5009196020F
:1035C00002950F70009501708D2D69E370E10E94E6
:1035D000571421E0EDE0CE1220E086E66D2D402F5D
:1035E0000E947315FDE0CF1681F4812F602F40E01B
:1035F00021E00E94EF24809581708295807F9091D8
:1036000096029F7E982B9093960288E0D80EE8E36E
:10361000ED1508F497C180911B088E3048F5009194
:103620009302009501708D2D69E470E10E9457149A
:1036300021E0FEE0CF1220E086E66D2D402F0E94B3
:1036400073158EE0C81671F4812F602F40E021E0E1
:103650000E94EF2480958170909193029E7F982B19
:1036600090939302E8E0DE0EF8E3FD1508F46AC1DA
:1036700080911B088F3008F041C08D2D64E570E10A
:103680000E945714409193024295440F407E46FB9E
:10369000440F440B40F9552747FD5095440F551FE3
:1036A000440F551F4F565B4E8FE0C81611F402E0D1
:1036B00001C000E086E66D2D24E00E946713EFE074
:1036C000CE16B1F4609193026295660F607E66FB40
:1036D000660F660B60F9812F4FEF21E00E94EF2407
:1036E0008370880F90919302997F982B9093930207
:1036F000F8E0DF0E88E38D1508F424C180911B08E3
:10370000803188F500919302029506950695037025
:10371000009501708D2D61E670E10E94571421E043
:10372000E0E1CE1220E086E66D2D402F0E94731559
:10373000F0E1CF1691F4812F602F40E021E00E944C
:10374000EF24809581708295880F880F807C9091FE
:1037500093029F7B982B9093930288E0D80EE8E326
:10376000ED1508F4EFC080911B08813170F5809150
:103770009302881F8827881F01E0081B8D2D60E7B2
:1037800070E10E94571421E0F1E1CF1220E086E6BB
:103790006D2D402F0E94731581E1C81681F4812F91
:1037A000602F40E021E00E94EF24809587958827D4
:1037B0008795909193029F77982B90939302E8E0DE
:1037C000DE0EF8E3FD1508F4BDC080911B088231C0
:1037D00060F5009196020295069501708D2D6EE7B9
:1037E00070E10E94571421E082E1C81220E086E6D1
:1037F0006D2D402F0E947315E2E1CE1681F4812FCA
:10380000602F40E021E00E94EF2481708295880FB4
:10381000807E909196029F7D982B90939602F8E07F
:10382000DF0E88E38D1508F48DC080911B0883316D
:10383000A0F5E3E1CE1619F402E0E02E01C0EE247B
:103840008D2D64E970E10E945714B6E6FB2E91E0DD
:10385000892F99830E948715482F50E045535B4E6E
:103860008F2D6D2D21E00E2D0E94671399819F5F92
:10387000F6E0FF0E953061F7EE2049F0812F609160
:10388000990240E027E10E94EF248093990288E0AA
:10389000D80EE8E3ED1508F455C080911B0884317B
:1038A00008F050C086E06D2D43EA50E10E94881474
:1038B000F8E3DF1679F094E200E0892F6D2D48EAF5
:1038C00050E1202F99830E94B1220F5F9981985E69
:1038D000043099F788E0D80EE8E3ED1598F14091AF
:1038E00094024F5CF4E1CF1611F422E001C020E015
:1038F00082E16D2D0E94DD1004E2EE24FF24E091B0
:103900009402F0E0EE0FFF1FEE0FFF1FEE0DFF1D04
:10391000E454FF4F4491802F6D2D20E00E94481801
:103920000894E11CF11C085E043849F784E1C816CC
:1039300049F4812F6091940240E023E00E94EF243B
:10394000809394020F90DF91CF911F910F91FF9080
:10395000EF90DF90CF900895942F9150903118F40C
:103960004C5E0E9448180895DF92EF92FF920F93E9
:103970001F93CF93DF93E82EF62EEA01122FD02E5D
:1039800057FF10C022FF02C087E001C085E09E2DD6
:10399000981B892F6F2D4DE2212F0E94DD10D095AD
:1039A000C195DF4FCE016CE370E00E944065AB0132
:1039B000212F20698E2D6F2D02E00E94882C91E02E
:1039C00012FF90E0809121082D2D2123891B6F2D5E
:1039D0004AE30E94DD1030912108CE016CE370E0D3
:1039E0000E944065AC012D2D2069832F8A5F6F2DC9
:1039F00002E00E94882CDF91CF911F910F91FF90E0
:103A0000EF90DF9008950F931F93CF93DF93C82F0C
:103A100080E060E04DEF50E122E00E943F14C136AB
:103A200058F0C33628F0C33639F486EE95E102C06B
:103A300087E896E30E94860D86E068E042E051E167
:103A40000E94881440917B0150917C018EE168E0D6
:103A500020E000E00E94B41C40917D0150917E0165
:103A600088E468E020E00E94B41C86E060E14AE05F
:103A700051E10E9488144091FE015091FF018EE1B6
:103A800060E120E00E94B41C4091000250910102CC
:103A900084E0569547958A95E1F788E460E120E057
:103AA0000E94B41C86E660E042E151E10E94881465
:103AB000409102025091030288E460E020E00E94FD
:103AC000B41C8091830189372CF0C091FC01D09106
:103AD000FD0102C0C0E0D0E082E06CE34EE70E944E
:103AE000812C85E06CE143E20E94AF101BE0812F46
:103AF0006BE343E00E94AF101A5F1338C1F716E082
:103B00000CE3FE01EC57FE4F4081602F641B812FB8
:103B10000E94AF102196C837D10510F0C0E0D0E068
:103B20002091FC013091FD01C217D30719F01F5FEE
:103B30001E3739F7DF91CF911F910F91089582368B
:103B400041F0833619F0813669F406C088EE9DE1B4
:103B500007C08EE195E104C00E94BE0D87E896E3A0
:103B60000E94860D80E063E241E00E94960D81E0B4
:103B700065E241E00E94960D88E30E94461486E0CB
:103B800068E046E252E10E9488148091480D882343
:103B900019F048E45DE002C048E051E08CE060E1EB
:103BA00024E10E943F1486E060E246E352E10E9475
:103BB00088148091530D882319F043E55DE002C01D
:103BC00048E051E08CE068E224E10E943F1408954F
:103BD000823641F0833619F0813669F406C081E3FC
:103BE0009EE107C08FE99DE104C00E94BE0D87E8F9
:103BF00096E30E94860D80E06BE243E00E94960D02
:103C000081E06BE244E00E94960D87E30E94461437
:103C100086E068E044E452E10E9488148091480DF7
:103C2000882319F048E45DE002C048E051E08CE0F0
:103C300060E124E10E943F1486E060E240E552E149
:103C40000E9488148091530D882319F043E55DE0AC
:103C500002C048E051E08CE068E224E10E943F1499
:103C60000895823641F0833619F0813669F406C032
:103C70008AE79EE107C088EE9DE104C00E94BE0D68
:103C800087E896E30E94860D80E06BE241E00E94A7
:103C9000960D81E06BE242E00E94960D86E30E9461
:103CA000461486E068E04DE552E10E948814809158
:103CB000480D882319F048E45DE002C048E051E077
:103CC0008CE060E124E10E943F1486E060E249E676
:103CD00052E10E9488148091530D882319F043E526
:103CE0005DE002C048E051E08CE068E224E10E941F
:103CF0003F140895823641F0833619F0813669F415
:103D000006C083EC9EE107C081E39EE104C00E94EF
:103D1000BE0D87E896E30E94860D80E061E249E0EF
:103D20000E94960D81E061E24AE00E94960D85E3D3
:103D30000E94461486E068E046E752E10E9488143B
:103D40008091480D882319F048E45DE002C048E006
:103D500051E08CE060E124E10E943F1486E060E2E3
:103D600044E852E10E9488148091530D882319F091
:103D700043E55DE002C048E051E08CE068E224E108
:103D80000E943F140895823641F0833619F081363F
:103D900069F406C08CE894E107C08AE79EE104C09C
:103DA0000E94BE0D87E896E30E94860D80E061E2E6
:103DB00047E00E94960D81E061E248E00E94960D86
:103DC00084E30E94461486E068E04FE852E10E94D6
:103DD00088148091480D882319F048E45DE002C002
:103DE00048E051E08CE060E124E10E943F1486E06D
:103DF00060E247E952E10E9488148091530D8823C4
:103E000019F043E55DE002C048E051E08CE068E273
:103E100024E10E943F1408950F931F93603408F02B
:103E200048C087FF02C0480F80E0A82FBB27A7FD2E
:103E3000B095FD01E40FF11DE138F10514F040E803
:103E4000481BE62FE695E695E695F0E0F695FE2F01
:103E5000EE27F795E795EA0FFB1FE554FC4F6770D7
:103E600081E090E0582F01C0550F6A95EAF710E005
:103E7000C8018270907004701070752F709517C013
:103E800030E020FF10C06081009711F0652B06C064
:103E90000115110511F0672301C065276083359571
:103EA0002795206802C035952795415031964423C7
:103EB00039F71F910F910895AF92BF92CF92DF9281
:103EC000EF92FF920F931F93CF93DF930F92CDB793
:103ED000DEB78C015B01FC01808190E0FC01EE0FFC
:103EE000FF1FE80FF91FE05EFE4F20818181382F10
:103EF0003F70F80181819281B901681B790B6A01D9
:103F00006417750708F46B01760126C0F801638118
:103F1000662329F184818F5F848370E094E0660FCB
:103F2000771F9A95E1F7680F711DCE01019641E068
:103F300050E00E94A9658981F50181935F01F80134
:103F400084818F3030F0148283810E94DA11F8016D
:103F500083830894E108F108E114F104B9F6F8014B
:103F6000818192818C0D9D1D8E199F099283818381
:103F70008C2D8E190F90DF91CF911F910F91FF9093
:103F8000EF90DF90CF90BF90AF900895AF92BF9227
:103F9000CF92DF92FF920F931F93CF93DF936C0129
:103FA0005B0100E010E08091190290E0A501401B48
:103FB000510B8417950708F4AC01F42EC42FD0E000
:103FC000C601800F911F60E070E050E00E94A26582
:103FD0000C0F1D1F809119028F19809319028823DD
:103FE00009F03FC08091180290E0B601600F711F88
:103FF000A501401B510B8417950708F4AC0183E120
:1040000092E050E00E945C1F080F111D9091180271
:10401000981B90931802992321F583E192E068E1BF
:1040200072E041E050E00E945C1F8130D1F42091A9
:104030001802822F90E027FF0CC034E095958795F9
:104040003A95E1F78770809319022F702093180238
:10405000AACF26FFA8CF2F7320931902109218021F
:10406000A2CFC801DF91CF911F910F91FF90DF90F8
:10407000CF90BF90AF9008958093130210921502D5
:104080001092140290E0FC01EE0FFF1FE80FF91FE1
:10409000E55EFE4F84818093160210921702109203
:1040A000CF0910921902109218020895CF93DF934E
:1040B00000D0CDB7DEB7E62FF72F2AE0DF011D9243
:1040C0002A95E9F78031F0F48F5F69837A830E9443
:1040D0003C206981862F9A816AE070E00E94C61FA9
:1040E0008A30910579F48091130290E0FC01EE0F83
:1040F000FF1FE80FF91FE05EFE4F80812181922FA4
:104100009F7002C080E090E00F900F90DF91CF9100
:104110000895CF93DF93462F50E0EA01882319F1E9
:10412000CC0FDD1FCC0FDD1FC551D44F40955095EE
:10413000425F5F4F440F551F440F551FCE01049639
:10414000BE010E949065188219821A821B8280919A
:104150001C0881508370880F880F836088838A8150
:104160008170886C29C063E0CC0FDD1F6A95E1F790
:10417000C40FD51FC558D54FCA018095909580961C
:10418000AC0173E0440F551F7A95E1F7480F591FB2
:10419000CE010996BE010E94906589E0FE01119250
:1041A0008A95E9F790911C08292F2F718881807ECC
:1041B000822B8883998384E68A8382E00E940B1293
:1041C000DF91CF910895582F882311F04DE001C061
:1041D0004FE180E0242F30E0F901552349F0EE0F44
:1041E000FF1FEE0FFF1FE551F44F908193700BC03E
:1041F000A3E0EE0FFF1FAA95E1F7E20FF31FE558CA
:10420000F54F90819F7191118F5F415047FFE2CF31
:104210000895CF93C82F0E94E320482F50E0CC236D
:1042200019F02EE030E002C020E230E042175307E0
:104230006CF0CC2319F08AED91E102C08CEE91E193
:10424000909324088093230881E001C080E0CF91FF
:104250000895462F50E0882311F1CA01880F991F55
:10426000880F991F6F5F70E0660F771F660F771FCB
:104270006551744F40955095425F5F4F440F551FF5
:10428000440F551F8551944F0E94906510921F0C4A
:104290001092200C1092210C1092220C2DC09A0129
:1042A00083E0220F331F8A95E1F7240F351F6F5FDC
:1042B000862F90E0BC01E3E0660F771FEA95E1F7F7
:1042C000680F791F6558754FCA0180959095809643
:1042D000AC01F3E0440F551FFA95E1F7480F591F61
:1042E000C9018558954F0E94906589E0E2E9FBE09D
:1042F000DF011D928A95E9F782E00E940B12089572
:10430000A62FB0E0BD01660F771FFB01E657F74F00
:104310000190F081E02D309779F08FEF4338580706
:1043200024F04D37510524F405C043E85FEF02C087
:104330004DE750E0408328C090E02DE030E0829FC0
:10434000F001839FF00D929FF00D1124E651F34F81
:10435000AE0FBF1FCA0195958795959587958C934C
:1043600083E090E0062E02C0880F991F0A94E2F7BE
:104370008095948189234370507002C0440F551F6B
:104380006A95E2F7840F848382E00E940B120895FD
:1043900070E0AB01440F551FFA01E657F74F01904B
:1043A000F081E02D309729F08081992787FD909545
:1043B000089590E02DE030E0829FF001839FF00DA2
:1043C000929FF00D1124E651F34F6E0F7F1FDB011A
:1043D0008C91992787FD9095880F991F880F991FB9
:1043E0002481332727FD309502C0359527954A95BE
:1043F000E2F723703070820F931F08951F93CF93BD
:10440000DF93182FC62FD5E001C0C82FCC2389F029
:104410008C2F612F0E94C8219C0181E0253F380725
:1044200044F0822F855F8C1708F08F5FD15069F7B9
:10443000C0E08C2FDF91CF911F910895FC01808106
:10444000982F990F9E70807F892B8083662321F09F
:104450009160807F892B808381818F5F81839281AE
:10446000992391F020812F7079F4933659F0242FFD
:10447000206220936D01903111F4803118F0808119
:104480008F7C8083118212828281883009F44DC032
:10449000893060F4813009F450C08130A8F0823056
:1044A00009F443C0843009F05BC03FC08F3591F1FF
:1044B000803620F4803109F053C037C0813691F046
:1044C000823609F04DC046C08081982F9F709F3082
:1044D00009F046C091E692839181913120F18F7C61
:1044E000808321C0406640936D0110927301109249
:1044F000740110927501109276019081892F829536
:104500008F708F5F83708295807F9F7C982B9083C4
:104510008FE508C08181883111F4406818C0883265
:10452000F9F480E18283118208959181903328F01B
:1045300090E09595879582831182828190E0019722
:10454000218130E082239323009751F4406440930B
:104550006D0108958181803418F088E08283118292
:104560000895DF92EF92FF920F931F93CF93DF9303
:10457000FA017491EA0122963196E491F0E03796BF
:10458000B3E0F595E795BA95E1F7279F90011124DF
:10459000DE2EE29FA001E39F500DF29F500D1124EB
:1045A000C40FD51F66956695669500E010E040E063
:1045B000262F30E03695322F222737952795280F62
:1045C000311DE72EFF2414C0D901A00FB11FA5543F
:1045D000BC4FCE0104C0FC010196E491ED93582F2D
:1045E0005C1B5717C0F3CE0DDF1D4F5F00581F4FE8
:1045F0004D1550F3DF91CF911F910F91FF90EF90E8
:10460000DF9008951F93CF93DF93EC01162F0E9444
:10461000081082E260E043ED51E124E00E943F1483
:1046200080E2BE010E94571481E068E340E152E15C
:104630000E9488140E941C10112319F480917E029C
:1046400001C089E10E94421084E00E946D0D0E9429
:10465000760F86B380958E7791F48091810260E029
:104660000E94430F882331F480919802882311F42B
:10467000112319F0C79AA895ECCFC798FCCFDF910A
:10468000CF911F910895809171018823D9F08150B5
:104690008093710180E00E946D0D10929508E09169
:1046A0007101F0E0DF01A554B84F8C918093200890
:1046B000EE0FFF1FE156FD4F0190F081E02D8EEBD4
:1046C0000995089581E092E160E00E940223089537
:1046D000CF93DF93EC0180917101E82FF0E0E55476
:1046E000F84F909120089083982F9F5F90937101CD
:1046F000953040F08093710181E092E160E00E948A
:1047000002230FC080E00E946D0DE0917101F0E086
:10471000EE0FFF1FE156FD4FD183C0838FEBFE01EB
:104720000995DF91CF9108958F929F92AF92BF929A
:10473000CF92DF92EF92FF920F931F93CF93DF936D
:10474000182F7B014A01690184FF07C01F701066A2
:1047500074E0A72EE5E0BE2E04C055E0A52E64E06F
:10476000B62E8B2D8066181761F08B2D806418177C
:1047700041F08091940818165CF4133611F013344C
:1047800039F4E701219680E00E946D0D8A2D14C056
:104790009A2D9066191751F09A2D9064191731F0DF
:1047A00018168CF4123611F0123469F4E7012197CF
:1047B00080E00E946D0D8B2D90E00E94D20D882329
:1047C00009F065C001C0E7018114910491F481E012
:1047D000C816D10471F4103661F410929408C1E047
:1047E000D0E0E114F10411F0C0E0D0E080E60E94D6
:1047F000C10D8091920890919308C81BD90BCC16DB
:10480000DD063CF4812F0E94C10D82E00E946D0DF7
:10481000E601C815D9053CF4812F0E94C10D82E044
:104820000E946D0DE401CE15DF0509F1209791F48A
:104830001F701E3060F4812F90E0FC01EE0FFF1F0F
:10484000E80FF91FEA5DF74F82E68283118280E06C
:104850000E946D0D802F83700E940B12EC16FD06D6
:1048600014F481E001C08FEF8093690802C01092B8
:104870006908CE01DF91CF911F910F91FF90EF90CA
:10488000DF90CF90BF90AF909F908F900895CC27EE
:10489000DD27CE19DF098A2D0E94C10D8B2D0E94C4
:1048A000C10D92CFCF92DF92EF92FF920F931F93A1
:1048B000CF93DF93F82E162F6A01C02FEE2011F14F
:1048C000809194081816D4F4043251F00532D1F4D2
:1048D000809195088823B1F081508093950812C08B
:1048E00030919508432F50E0822F90E001974817B0
:1048F000590744F43F5F3093950804C0109295081F
:1049000002E201C000E28F2D612FA6010E94671311
:10491000EE2009F45BC08091940818160CF056C084
:1049200080919508F601E80FF11DD08180919208E1
:1049300090919308009741F4C23631F0C33621F0CC
:10494000C23411F0C334D9F46D2F772767FD709509
:1049500077FF03C0709561957F4F772767FD70954E
:104960008C2F40E050E028E230E000E00E949423E9
:10497000082FD7FD019582E00E940B12D02F8D2FBA
:10498000865E853368F48C2F8458823048F4D19544
:1049900082E00E940B12C53819F485E00E94C10D17
:1049A00080919508F601E80FF11DD083809195085C
:1049B000C82FCC0FC80FCC0FCF0D8D2F0E944613E0
:1049C000482F8C2F612F22E00E94DD10DF91CF91C4
:1049D0001F910F91FF90EF90DF90CF9008950F936C
:1049E000772767FD7095552747FD5095332727FD9D
:1049F000309501E00E9494230F9108950F9377273B
:104A000067FD7095552747FD5095332727FD309555
:104A100002E00E9494230F9108958F929F92AF928B
:104A2000BF92CF92DF92EF92FF920F931F93CF939B
:104A3000DF93F82E40917D0250E04F5F5F4F8AE296
:104A400060E022E102E00E94882C80E060E046EB1A
:104A500052E122E00E943F148091740A877021F095
:104A6000823011F0813011F49BE001C09AE08F2D6B
:104A700061E049E157E129E00CEB12E13BE0E32E74
:104A8000C92E0E94652E882309F45DC3D0912008A9
:104A900080911B088823A1F468E042EB52E10E9458
:104AA0008814EE24E394D13009F0EE2488E368E022
:104AB00047E65AE02AE00F2D0E945224C0E101C0CF
:104AC000C8E001E7A02E0AE0B02E82E0E82E9CE3C9
:104AD000892E912C04C018E7A12E1AE0B12E8091E6
:104AE0001B088E1508F090C02E2D215080E06C2FF1
:104AF00048EC52E100E00E943118F5014081DE15DA
:104B000051F480919508882331F480919408181607
:104B100024F421E003C020E001C022E088E36C2FF0
:104B20000E94FD13F50141815281DE1509F006C393
:104B300080919508813009F0FEC280919408181682
:104B40000CF0FEC221E0FDC28091940820E018160E
:104B500014F401E001C002E084E56C2F0E94B41C53
:104B6000DE1509F04DC08091940818163CF0809134
:104B7000920890919308009709F442C0F5010181D1
:104B8000128180919508813079F0813018F082305F
:104B9000A1F51BC08F2DF501608146ED2EE20E942C
:104BA000FE24F501808329C0C801B4010E942C6550
:104BB0006C018F2D40E02BE30E94FE24FCE38F026A
:104BC000800111240C0D1D1D18C0C801B4010E94E4
:104BD0002C65B2E0CB2EC80E8F2D6C2D41E02EE35C
:104BE0000E94FE24C81A6C2D772767FD7095061B5E
:104BF000170B17FF02C000E010E0F50112830183DC
:104C0000C85FC93308F09FC2E394F4E0EF1609F0DF
:104C100062CF80911B08843060F58C2F6FEC72E1BD
:104C20000E9457144091750A42954695417021E0C3
:104C3000D43009F020E088E36C2F0E947315D43043
:104C4000A1F46091750A6295669561708F2D40E0C0
:104C500021E00E94FE2481708295880F807E9091D1
:104C6000750A9F7D982B9093750AC85FC93308F029
:104C70006AC280911B08853078F58C2F69ED72E14E
:104C80000E9457144091750A429546954695417089
:104C900021E0D53009F020E088E36C2F0E947315E5
:104CA000D530B1F46091750A62956695669561702C
:104CB0008F2D40E021E00E94FE2481708295880FB4
:104CC000880F807C9091750A9F7B982B9093750A32
:104CD000C85FC93308F037C280911B08863088F559
:104CE0008C2F61EE72E10E9457148091750A8770D3
:104CF00090E0AC01440F551F480F591F440F551F3A
:104D000042555B4ED63011F402E001C000E088E36A
:104D10006C2F26E00E946713D63079F46091750AF3
:104D200067708F2D40E024E00E94FE2487709091F0
:104D3000750A987F982B9093750AC85FC93308F05D
:104D400002C280911B08873040F58C2F6AEE72E119
:104D50000E9457144091410D443010F04F5E05C041
:104D6000442311F04C5F01C043E0D73011F422E03E
:104D700001C020E088E36C2F0E944818D73049F426
:104D80008F2D6091410D40E023E10E94FE2480932D
:104D9000410DC85FC93308F0D6C180911B08883027
:104DA00088F58C2F62EF72E10E9457144091740ACB
:104DB0004695469546954170D83021F421E0809182
:104DC0009508811120E088E36C2F0E947315D8307C
:104DD000A9F46091740A66956695669561708F2D49
:104DE00040E021E00E94FE248170880F880F880F28
:104DF0009091740A977F982B9093740AC85FC93377
:104E000008F0A1C180911B08893008F051C08C2F97
:104E100069EF72E10E94571418E3CC24DD24A60147
:104E200044535B4E809195088C1511F4D93069F08C
:104E30008091770A90E00C2C02C0959587950A9492
:104E4000E2F780FF04C002E003C001E001C000E01F
:104E5000812F6C2F21E00E9467130894C11CD11C84
:104E60001A5F1236E1F6D930F9F480E6F81631F01F
:104E700080919208909193080097B1F08F2D0E9435
:104E8000C10D1092940881E090E00090950802C056
:104E9000880F991F0A94E2F79091770A98279093C8
:104EA000770A82E00E940B12C85FC93308F04BC139
:104EB00080911B088A3008F0BEC08C2F61E073E13E
:104EC0000E9457148091740A877090E0AC01440FDF
:104ED000551F440F551F480F591F4D525B4EDA3076
:104EE00051F480919508882331F480919408181624
:104EF00024F401E003C000E001C002E088E36C2F6D
:104F000025E00E9467134091740A842F877009F08E
:104F100046C04595459545954595552747FD50957E
:104F2000440F551F440F551F4D5B5B4EDA3051F453
:104F300080919508813031F480919408181624F4FA
:104F400001E003C000E001C002E080E56C2F24E036
:104F50000E9467138AE76C2F47E053E10E94881490
:104F60004091760A82E34802A0011124445D5E4F1D
:104F7000DA3051F480919508823031F480919408B0
:104F8000181624F421E003C020E001C022E08AE7E3
:104F90006C2F0E94A42DDA3009F049C005C0DA3028
:104FA00009F045C01092950880919408181664F095
:104FB0008091920890919308009731F48091740A3F
:104FC0008770A9F1823099F180919508813091F034
:104FD000813018F0823059F521C06091740A6770F1
:104FE0008F2D40E023E00E94FE2487709091740A88
:104FF000987F10C06091740A659565956595659573
:105000008F2D4EEF24E00E94FE248295807F9091A8
:10501000740A9F70982B9093740A09C08F2D609129
:10502000760A4CEF2AE00E94FE248093760AC85F3D
:10503000C93308F088C080911B088B3008F083C00A
:105040008091740A877009F07EC08C2F69E073E14B
:105050000E9457148AE46C2F43E153E10E948814A4
:105060008091400D992787FD9095AC01440F551F05
:10507000440F551F480F591F4F515F4FDB3051F4FC
:1050800080919508882331F480919408181624F4AF
:1050900021ED03C020ED01C022ED88E36C2F0E94BA
:1050A000A42D8091750A8295817090E0AC01440F27
:1050B000551F480F591F49515B4EDB3021F4809139
:1050C0009508813011F000E001C002E08CE56C2F02
:1050D00023E00E946713DB30B1F580919408181625
:1050E00034F08091920890919308009761F180913B
:1050F0009508882319F0813031F50AC08F2D609111
:10510000400D4CEE24E10E94FE248093400D1BC014
:105110006091750A629561708F2D40E021E00E94D8
:10512000FE2481708295807F9091750A9F7E982BD6
:105130009093750A08C0823009F406CD20E001C0C2
:1051400022E000E009CDDF91CF911F910F91FF90F8
:10515000EF90DF90CF90BF90AF909F908F90089589
:105160006F927F929F92AF92BF92CF92DF92EF9217
:10517000FF920F931F93CF93DF93C82F80E060E0DF
:105180004FE153E122E00E943F148C2F66E049E199
:1051900057E129E000E10E948C30882309F48CC09B
:1051A000609020086A94C03611F0C43641F467FC60
:1051B00006C0609218088DE191E30E946823BB2429
:1051C0009924DD24D39478E0C72E772467FC70946B
:1051D00020911B082B0DE22EFF246E147F0411F486
:1051E00002E001C000E0AA24A394283028F4AA24F5
:1051F00087E08D1528F459C0E6E0ED1508F455C098
:10520000992009F4902E2F5F80E06C2D47E253E146
:105210000E943118AA2069F0C7010897EC0163E0E9
:10522000CC0FDD1F6A95E1F7C80FD91FC55BD34FBF
:1052300009C0E701CC0FDD1FCC0FDD1FCE0DDF1D38
:10524000CD5DD34F7E011CE2F70141917F015527CF
:1052500047FD5095812F6C2D20E00E94A42D1B5EF0
:10526000153991F748E0E42EEC0CAA2019F4D394F8
:10527000CE2C16C08E010B5F1F4FCCE2F80141917E
:105280008F01552747FD50958C2F6E2D20E00E94F1
:10529000A42DCB5EC03891F7F0E1CF0E82E0D80E9E
:1052A000B394E7E0BE1609F093CF992029F48091DA
:1052B0001B088F5F80931B08DF91CF911F910F9187
:1052C000FF90EF90DF90CF90BF90AF909F907F9036
:1052D0006F9008954F925F926F927F929F92AF92DC
:1052E000BF92CF92DF92EF92FF920F931F93CF93D3
:1052F000DF930F92CDB7DEB7B82E80E060E046E1D5
:1053000053E122E00E943F148B2D64E046EA52E113
:1053100026E001E00E948C30882309F49AC0E090D6
:105320002008F4E0CF2EF2E0DF2EAA249924412CAD
:10533000A4E05A2E612C712C01C09F2CF92CF394FF
:1053400088E16A2D4AE153E12F2D00E00E943118D7
:10535000892D0E94F0128C0194E49550402F4F70DB
:105360004A301CF0495C28E002C0405D20E0892FF3
:105370006A2D99830E94DD10E4E016950795EA9561
:10538000E1F79981903349F747E09416D9F0F60197
:1053900060817181882777FD8095982F24E630E021
:1053A00040E050E00E940165A30192010E947565F2
:1053B000422F552747FD509586E66A2D20E00E9432
:1053C000A42D0EC04091770150917801F1E0EF16C5
:1053D00011F020E001C022E086E66A2D0E94D22D65
:1053E00048E0A40E82E090E0C80ED91EF41609F041
:1053F000A4CF82E768E24CE153E10E948814409117
:10540000290250912A028EE760E320E00E94A42D39
:1054100087E00E94F01223E230E0FC01E29FC0012D
:10542000E39F900DF29F900D1124492F46958EE732
:1054300068E350E020E50E94A42DF1E0EF1649F466
:105440008B2D6091800241E82FE70E94EF2480932A
:1054500080020F90DF91CF911F910F91FF90EF90FD
:10546000DF90CF90BF90AF909F907F906F905F90B4
:105470004F9008950F93022F473068F4E42FF0E027
:10548000AF01440F551F4E0F5F1F43515B4E23E08A
:105490000E94671306C0242F265043EB53E10E945D
:1054A00031180F910895AF92BF92DF92EF92FF9261
:1054B0000F931F93CF93DF93E82E80911C088823CE
:1054C00019F04AE253E102C04AE353E180E060E0B0
:1054D00022E00E943F1480911E0890E0EC0163E0FE
:1054E000CC0FDD1F6A95E1F7C80FD91FC558D54FFE
:1054F0008091210848814F718A5F60E020E00E941E
:10550000AC1C8E2D60E040E050E020E00CE00E94FA
:105510008C30882309F4EBC1A090200848E0F42ED9
:10552000DD24BB24A7FCB09420911B082D0D822FF5
:1055300090E0A816B90611F412E001C010E0263080
:1055400009F4D9C0273090F4223009F457C0233031
:1055500030F4222309F1213009F0C2C134C02430D3
:1055600009F48DC0253008F0AFC063C0293009F4BC
:1055700040C12A3038F4273009F4E1C0283009F05E
:10558000AFC10DC12B3009F471C12B3008F450C1EB
:105590002C3009F0A5C188C18CE06F2D49E453E19E
:1055A0000E9488148CE36F2D4981212F0E94481896
:1055B000112309F495C18E2D698141E024E20E94F6
:1055C000FE2489838DC18CE06F2D40E553E10E945C
:1055D00088144A81552747FD5095212F20688CE378
:1055E0006F2D0E94A42D112309F47AC18E2D6A819A
:1055F00043E82DE70E94FE248A8372C18CE06F2D60
:1056000046E553E10E9488144885552747FD50958B
:10561000212F20688CE36F2D0E94A42D112309F403
:105620005FC18E2D688543E82DE70E94FE248887A0
:1056300057C18CE06F2D4DE553E10E9488148F8196
:10564000837090E0AC01440F551F480F591F440F61
:10565000551F475A5A4E8CE36F2D26E0012F0E94AA
:105660006713112309F43CC16F8163708E2D40E0F4
:1056700022E00E94FE2483709F819C7F5DC08CE0AD
:105680006F2D42E653E10E9488148CE36F2D4C810C
:10569000212F0E943A2A112309F422C18E2D6C81F8
:1056A00040E026E10E94FE248C83873008F418C174
:1056B00090E6E91609F014C18750809318088DE12F
:1056C00091E30E9468230CC18CE06F2D40EA52E107
:1056D0000E9488148CE36F2D4B81212F0E94C013F0
:1056E000112309F4FDC08E2D6B814AEE26E10E9444
:1056F000FE248B83F5C08CE06F2D49E653E10E94B8
:1057000088144F8145954595459545958CE36F2DBA
:10571000212F0E942E46112309F4E2C06F81659566
:105720006595659565958E2D4BEF25E00E94FE24CD
:105730008295807F9F819F70982B9F83D1C08CE042
:105740006F2D4FE653E10E9488144881842F807E9C
:1057500059F0429546954770212F20688CE36F2DB4
:1057600050E00E94A42D07C08CE36F2D46E753E163
:10577000212F0E943F14112309F4B2C06881629561
:10578000669567708E2D40E023E00E94FE2482958E
:10579000880F807E98819F71982B9883A1C08CE0A0
:1057A0006F2D4AE753E10E9488144F814695469534
:1057B000437050E003E0440F551F0A95E1F7455C44
:1057C0005A4E8CE36F2D28E0012F0E94671311239E
:1057D00009F486C06F816695669563708E2D40E0F2
:1057E00022E00E94FE248370880F880F9F81937FA0
:1057F000A3CF8CE06F2D41E853E10E9488144D81C6
:1058000042954F7080E66F2D50E0212F0E94A42D0D
:10581000112309F465C06D8162956F708E2D40E093
:105820002FE00E94FE248295807F9D819F701BC087
:105830008CE06F2D4CE853E10E9488144D814F702D
:1058400080E66F2D50E0212F0E94A42D112309F432
:1058500047C06D816F708E2D40E02FE00E94FE24C6
:105860008F709D81907F982B9D833AC08CE06F2D27
:1058700048E953E10E9488144E8142954F7080E6BA
:105880006F2D50E0212F0E94A42D112349F16E812C
:1058900062956F708E2D40E02FE00E94FE2482956D
:1058A000807F9E819F701AC08CE06F2D46EA53E185
:1058B0000E9488144E814F7080E66F2D50E0212F9A
:1058C0000E94A42D112361F06E816F708E2D40E037
:1058D0002FE00E94FE248F709E81907F982B9E83E4
:1058E000D39488E0F80E97E0D91609F01DCEDF9129
:1058F000CF911F910F91FF90EF90DF90BF90AF90ED
:1059000008950F932FEF00E00E940C1F0F91089550
:105910002F923F924F925F926F927F928F929F92BF
:10592000AF92BF92CF92DF92EF92FF920F931F93AD
:10593000CF93DF9300D00F92CDB7DEB7382FC62EAE
:105940004A012B83822F992787FD9095807790704D
:10595000A4E095958795AA95E1F7E82F282F245084
:105960008B8183FF03C088508B8309C057FF07C01A
:1059700090948194910893947724739401C0772430
:105980002D3FE9F0C4016AE070E00E942C65CB0174
:1059900001E0FAE0EF2EF12C05C00F5FB7010E9485
:1059A0002C65CB010097C9F7402F50E0822F992733
:1059B00087FD90958417950714F00E2F0350EB8107
:1059C000E2FD06C0E7FF07C012162CF43E5F03C0DD
:1059D0006AE0E62E02C055E0E52EFB81F7FF06C027
:1059E000E09E802D1124380F71103B5F3093210809
:1059F0008E2D8095830F8A83DD24D39492E0F92E37
:105A000010E03AE0432E512C222E332427FC309410
:105A100046E0642E6C0C63C0C401B2010E942C6588
:105A2000A82E382F305D313351F4EB81E2FF07C0EF
:105A3000D01629F4FA81FE5FFA83E860EB838A814D
:105A40006C2D432F2B8139830E94DD108D2D90E02A
:105A5000398128163906D1F52B812F792B83B22E67
:105A600022FF19C08A2D8150833008F4F394C401B9
:105A7000B2010E942C65CB01B2010E942C651A81F3
:105A8000823011F0843011F5343311F41F5F1EC0E1
:105A90001150F3941BC08EEFA82E8A81A80E982F68
:105AA0009150892F662D40E099830E94B31099810F
:105AB000B1FC06C0B0FE09C08091500886FF05C049
:105AC000892F6C2D48E00E94AF10AA82C401B20158
:105AD0000E942C654B01EA81EE19EA83D3940D15DF
