:100000000C945B0D0C94830D0C94830D0C94830D58
:100010000C94830D0C94830D0C94830D0C94830D20
:100020000C94830D0C94830D0C94830D0C946567D4
:100030000C94BE660C94830D0C94830D0C94FB639E
:100040000C942B680C94830D0C9460660C9492674E
:100050000C94830D0C94830D0C948A660C94830D80
:100060000C9429670C94B0670C94830D0C94830D49
:100070000C94830D0C94830D0C94830D0C94830DC0
:100080000C94830D0C94830D0C94830D3417371747
:100090004D175217581763175E17631767176C17BA
:1000A0007017751787178C17911797179D17A0173B
:1000B000A317A917B117B817BE17C617D917F01786
:1000C00002180F18221835183D1856185B186218B8
:1000D0006D187E1800000000000000006F0000078F
:1000E000000700147F147F14242A7F2A1223130888
:1000F000646236495522500005030000001C22416D
:10010000000041221C0014083E081408083E08089C
:10011000005030000000080808080060600000205F
:1001200010080402003E41413E0000427F40006250
:100130005149460041494936001814127F002745AD
:100140004539003E494932000179050300364949E5
:1001500036000649291E00003636000000563600DB
:10016000000814224114141414144122140800022B
:100170000151090606090906007E0909097E7F4921
:100180004949363E414141227F4141221C7F494934
:1001900049417F090909013E4149497A7F08080818
:1001A0007F00417F41002040413F017F08142241F0
:1001B0007F404040407F020C027F7F0408107F3E5A
:1001C0004141413E7F090909063E4151215E7F09B7
:1001D000192946264949493201017F01013F404022
:1001E000403F1F2040201F3F4030403F6314081411
:1001F0006307087008076151494543007F4141008A
:1002000002040810200041417F0004020102044062
:1002100040404040000102040020545454787F487C
:100220004444383844444420384444487F38545483
:100230005418087E0901020C5252523E7F080404F1
:100240007800447D40002040443D007F1028440059
:1002500000417F40007C041804787C08040478384E
:10026000444444387C14141408081414187C7C0882
:100270000404084854545420043F4440203C404067
:10028000207C1C2040201C3C4020403C442810285E
:10029000440C5050503C4464544C440008364100D7
:1002A00000007F000000413608000808221C0808F2
:1002B0001C22080820545654782056545678384644
:1002C0004446387C1313127C7C1312137C3C43424B
:1002D000433C00000000000000000000000000009F
:1002E0000000000000000000000000000000FE719F
:1002F000FE710000000000000000000000003E0051
:100300007E00000000007E003E000000000060064D
:100310006006FE7FFE7F60066006FE7FFE7F600651
:1003200060066018F01898199819FE7FFE7F9819DA
:100330009819180F18060C181E1C1E0E0C078003A7
:10034000C001E030707838781830781EFC3F8E712C
:10035000C663E66776663C3C183C006600660000B3
:100360000000660076003E001E0000000000000055
:10037000000000000000E007F00F381C1C380E7071
:100380000660000000000000000006600E701C38CF
:10039000381CF00FE0070000000060066006C00394
:1003A0008001F81FF81F8001C0036006600680010D
:1003B000800180018001F81FF81F80018001800109
:1003C00080010000000000660076003E001E000074
:1003D000000000000000000000000000800180011B
:1003E0008001800180018001800100000000003058
:1003F00000780078003000000000000000000018C5
:10040000001C000E00078003C001E00070003800EF
:10041000180000000000F81FFC3F0E700660066028
:100420000E70FC3FF81F0000000018601C60FE7F8B
:10043000FE7F0060006000000000000000001878EF
:100440001C7C0E6E06678663CE61FC6078600000DF
:10045000000006600660866186618661CE73FC3F9F
:10046000781E000000008007C007E006700638060E
:100470001C06FE7FFE7F000000007E187E3866703E
:1004800066606660E670C63F861F00000000F81FC9
:10049000FC3F8E71866186618E731C3F181E0000C2
:1004A000000006000600867FC67FE60076003E005C
:1004B0001E0000000000781EFC3FCE73866186613E
:1004C000CE73FC3F781E000000007800FC00CE6177
:1004D00086718639CE1DFC0FF80700000000300C35
:1004E000781E781E300C00000000000000000000A4
:1004F000000030667876783E301E00000000000074
:100500000000000000008001C003E007700E381CEE
:100510001C380E70066060066006600660066006A5
:100520006006600660066006600606600E701C3895
:10053000381C700EE007C0038001000000001800A6
:100540001C000E000600066606678603CE01FC004E
:1005500078007800FC00CE0186018601CE01FC0007
:10056000780000000000E07FF07FB8019C018E0160
:100570008E019C01B801F07FE07FFE7FFE7F8661E7
:100580008661866186618661CE73FC3F781EF81FA6
:10059000FC3F0E7006600660066006600E701C3838
:1005A0001818FE7FFE7F0660066006600E701C381D
:1005B000381CF00FE007FE7FFE7F86618661866152
:1005C00086618661866106600660FE7FFE7F860129
:1005D0008601860186018601860106000600F81F55
:1005E000FC3F0E7006608661866186618E719C7F1D
:1005F000983FFE7FFE7F80018001800180018001A5
:100600008001FE7FFE7F0000000006600660FE7F26
:10061000FE7F0660066000000000001800380070D1
:10062000006006600670FE3FFE1F06000600FE7FAB
:10063000FE7F8001C003E007700E381C1C380E706E
:100640000660FE7FFE7F006000600060006000606A
:10065000006000600060FE7FFE7F1C003800F0013B
:10066000F00138001C00FE7FFE7FFE7FFE7F7000E1
:10067000E000C00180030007000EFE7FFE7FF81F30
:10068000FC3F0E7006600660066006600E70FC3F60
:10069000F81FFE7FFE7F86018601860186018601A6
:1006A000CE01FC007800F81FFC3F0E700660066665
:1006B000066E063C0E38FC7FF867FE7FFE7F8601E3
:1006C00086018607860F861DCE39FC707860781803
:1006D000FC38CE7186618661866186618E731C3FAF
:1006E000181E0600060006000600FE7FFE7F0600BC
:1006F000060006000600FE1FFE3F0070006000605E
:10070000006000600070FE3FFE1FFE07FE0F001C31
:100710000038007000700038001CFE0FFE07FE1F3E
:10072000FE3F00700070003E003E00700070FE3F13
:10073000FE1F1E783E7C700EE007C003C003E0077A
:10074000700E3E7C1E787E00FE00C0018003007F9C
:10075000007F8003C001FE007E000678067C066EE6
:1007600006678663C661E66076603E601E600000D4
:100770000000FE7FFE7F06600660066006600000E7
:100780000000180038007000E000C001800300077E
:10079000000E001C001800000000066006600660E5
:1007A0000660FE7FFE7F00000000600070003800E1
:1007B0001C000E000E001C0038007000600000607D
:1007C0000060006000600060006000600060006029
:1007D00000600000000006000E001C0038007000E1
:1007E0006000000000000018003C607E60666066EB
:1007F00060666066E066C07F807FFE7FFE7F80610E
:10080000C061E06060606060E070C03F801F801F7A
:10081000C03FE07060606060606060606070003881
:100820000018801FC03FE07060606060E060C061E1
:100830008061FE7FFE7F801FC03FE076606660665D
:1008400060666066E066C007800780018001F87F0F
:10085000FC7F8E01860106000E001C001800E001DE
:10086000F003386718661866186618661876F83F39
:10087000F81FFE7FFE7F8001C001E0006000600085
:10088000E000C07F807F0000000060606060E67F65
:10089000E67F006000600000000000180038007073
:1008A000006060606070E63FE61F00000000FE7FB1
:1008B000FE7F0006000F801FC039E07060600000FE
:1008C00000000000000006600660FE7FFE7F006002
:1008D000006000000000E07FE07F6000E000C007F3
:1008E000C007E000E000C07F807FE07FE07F800104
:1008F000C001E00060006000E000C07F807F801FDA
:10090000C03FE0706060606060606060E070C03F49
:10091000801FE07FE07F600660066006600660067C
:10092000E007C00380018001C003E00760066006A5
:100930006006C0078007E07FE07FE07FE07F800106
:10094000C001E00060006000E000C0018001806143
:10095000C063E0676066606660666066607E003CFB
:10096000001860006000FE1FFE3F60706060006065
:10097000007000380018E01FE03F00700060006069
:10098000007000380018E07FE07FE007E00F001CF7
:100990000038007000700038001CE00FE007E01F16
:1009A000E03F007000700038003800700070E03FD9
:1009B000E01F6060E070C039801F000F000F801FD3
:1009C000C039E0706060E001E00300670066006627
:1009D000006600660076E03FE01F6060607060784F
:1009E000607C606E6067E063E061E0606060000012
:1009F00000008001C003781E7C3E0E70066000007F
:100A000000000000000000000000FE7FFE7F0000EC
:100A10000000000000000000000006600E707C3E38
:100A2000781EC00380010000000080018001800169
:100A300080011818381CF00FE007C0038001800106
:100A4000C003E007F00F381C1818800180018001F6
:100A500080010018003C607E60666E666A666E66A5
:100A6000E066C07F807F0018003C6C7E6C6660662C
:100A700060666C66EC66C07F807F801FC03FEC7054
:100A80006C60606060606C60EC70C03F801FE07FF5
:100A9000F07FB8019E019A019A019E01B801F07F92
:100AA000E07FE07FF67FBA019C018E018E019C0100
:100AB000BA01F67FE07FE01FF63F367018601860DD
:100AC000186018603670F63FE01F00004578706FC0
:100AD0002073616B6E617321004D697865722073BC
:100AE000616B6E6173210003010200040506075F5C
:100AF0002D2E2C001B1E272D36394B4E636C727821
:100B0000878D939CB1B4C6C9D2D8E1E45350530049
:100B10008040000000000000000000000000000015
:100B200000000000000000000000000000000000C5
:100B300000000000000000000000000000000000B5
:100B400000000000000000000000000000000000A5
:100B50000000000000000000000000000000000095
:100B60000000000000000000000000000000000085
:100B70000000000000000000000000000000000075
:100B80000000000000000000000000000000000065
:100B90000000FCFCFCFCFCFCFCFCFCFCFCFCFCFC8D
:100BA000FCFCFCFCFCFCFCFCFCFCFCFCFCFCFCFC85
:100BB000FCFCFCFCFCFCFCFCFCFCFCFCFCFCFCFC75
:100BC000FCFCFCFCFCFCFCFCFCFCFCFCFCFCFCFC65
:100BD000FCFCFCFCFCFCFCFCFCFCFCFCFCFCFCFC55
:100BE000FCFCFCFCFCFCFCFCFCFCFCFCFCFCFCFC45
:100BF000FCFCFCFCFCFCFCFCFCFCFCFCFCFCFCFC35
:100C0000FCFCFCFCFCFCFCFCFCFCFCFCFCFCFCFC24
:100C1000FCFCFFFFFFFFFFFFFFFFFF7F7F3F3F3F2A
:100C20003F3F3F7F7FFFFFFFFFFFFFFFFF3F3F3F54
:100C30003F3FFF7F7F3F3F3F3F7FFFFFFFFFFFFFC4
:100C4000FFFFFF7F7F3F3F3F3F3F3F7F7FFFFFFF34
:100C5000FFFFFFFFFFFF3F3F3F3F3FFF7F3F3F3F24
:100C60003F3F7FFFFFFFFF7F0F07030181E0F0F0B1
:100C7000F0E0000101071FFFFFFFFFFFBF3F3F3F05
:100C80003F7FFFFFFFFFFF7F3F3F3F3F3FBFFFFF34
:100C9000FFFFFFFFFFFF3F07030100C0F0F8FCFC70
:100CA000FCFCF80000000103FFFFFF3F0100000013
:100CB00080E0F8FCFCFCF80000000001FFFF3F07AB
:100CC0000301000010181C1C1C1C1800000001036C
:100CD000FFFFFFFF1F00000000C0F8FCFCFC10003D
:100CE000000000C0FFFFFFE0800000000F1F1F1F7B
:100CF0000F0300000000E0FFFFFFFFFFFFFEF8E032
:100D000000000107070180E0F0F8FCFEFFFFFFFF95
:100D1000FFFFFFFFFFFFE0C08000000F1F1F1F1F2E
:100D20000F070180C0E0F0FEFFFF0700000000C0D9
:100D30000F1F1F1F0F07010080E0F0FEFFFFE0C044
:100D40008000000E0E1E1E1E1E1E1E1E0ECEFEFE5D
:100D5000FFFF7F0300000080FCFFFFFF3F03000058
:100D60000080FCFFFF1F0F0F1F1F1E1E1E0E0E0711
:100D700081C0E0F0FCFFFFFFFF7F3F1F0F030180FA
:100D8000E0F0F8E0800001071F7FFFFFFFFFFFFF9B
:100D9000FFFFFFFFFFFFFFFFFFFFFFFEFEFEFEFE68
:100DA000FEFFFFFFFFFFFFFF1F00000000C0FEFF70
:100DB000FFFEFEFEFEFEFFFFFFFFFFFFFFFFFFFF48
:100DC000FFFFFFFEFEFEFEFEFEFEFEFFFFFFFFFF3B
:100DD000FFFFFEFEFEFEFEFFFFFFFFFFFEFEFEFE2C
:100DE000FEFFFFFFFFFFFFFEFEFEFEFEFEFEFFFF1B
:100DF000FFFFFFFFFFFFFFFFFEFEFEFEFEFEFFFF09
:100E0000FFFFFFFFFFFEFEFEFEFEFFFFFFFFFFFFF7
:100E1000FFFF1F1F1F1F1F1F1F1F1F1F1F1F1F1F22
:100E20001F1F1F1F1F1F1F1F1F1F1F1F1F1F1F1FD2
:100E30001F1F1F1F1F1F1F1F1F1F1F1F1F1F1F1FC2
:100E40001F1F1F1F1F1F1F1F1F1F1F1F1F1F1F1FB2
:100E50001F1F1F1F1F1F1F1F1F1F1F1F1F1F1F1FA2
:100E60001F1F1F1F1F1F1F1F1F1F1F1F1F1F1F1F92
:100E70001F1F1F1F1F1F1F1F1F1F1F1F1F1F1F1F82
:100E80001F1F1F1F1F1F1F1F1F1F1F1F1F1F1F1F72
:100E90001F1F000000000000000000000000000014
:100EA0000000000000000000000000000000000042
:100EB0000000000000000000000000000000000032
:100EC0000000000000000000000000000000000022
:100ED0000000000000000000000000000000000012
:100EE0000000000000000000000000000000000002
:100EF00000000000000000000000000000000000F2
:100F000000000000000000000000000000000000E1
:100F10000000535045004F66667365740044522FBD
:100F20004558504F004D4F44454C4C0052414445AC
:100F30005241204D4F44454C4C004B6F70696572D7
:100F40006172204D6F64656C6C00466C79747461DD
:100F500072204D6F64656C6C004C6164646172203A
:100F60004D6F64656C6C004C656469677400414446
:100F700044455241204D4958004544495445524149
:100F8000204D4958004B816C6C610056696B7400B0
:100F9000446966666572656E7469616C0054726955
:100FA0006D004B7572766F7200466C79676661737F
:100FB000005661726E696E6700415620004D756C77
:100FC000747078004682726472826A6E2E204E655A
:100FD00064004682726472826A6E2E2055707000C0
:100FE00054728267686574204E656400547282672B
:100FF0006865742055707000464C5947464153450A
:1010000052005374616E64617264004B6F6C6C616A
:10101000055472696D6D6172004E4F204441544118
:101020000054783A0052783A0046656C20692045B1
:101030004570726F6D00547279636B206E65642029
:10104000656E206B6E617070005354415453495368
:1010500054494B00544D310D544D32005448520DFB
:1010600054482500544F5400444542554700546DA0
:1010700072314C6174206D617803757300546D7228
:10108000314C6174206D696E03757300546D72315B
:10109000204A697474657203757300546D61696EDA
:1010A000206D6178056D730046726565205374612B
:1010B000636B0462005B4D454E555D204E4F4C4CBA
:1010C00041522020004163633A00427265646467C4
:1010D000726164004C816E676467726164004D697F
:1010E0006E205273736900120800081C0808081C5F
:1010F0000800000822004900220800000000002229
:101100007F22000000082200490022080000082277
:101110000049002208000000227F22000000000099
:10112000082200490022080000081C0808081C08C2
:10113000004D49584552002F3134002F3332004BB7
:101140005552564F52004B550056455253494F4E3B
:1011500000564552533A2056322E30302D46570015
:101160002053564E3A206F70656E39782D723531A6
:101170003500444154453A20323031322D30342D3F
:1011800031310054494D453A2030313A34363A3302
:101190003100454550524F4D207600444941474E5D
:1011A0004F53005472696D2D202B00414E41530066
:1011B000410042473A00426174746572792043618C
:1011C0006C6962004B414C4942524552494E4700BE
:1011D0005B4D454E555D20535441525441520020C1
:1011E00043454E545245524120005B4D454E555D9E
:1011F000204156534C555441520052855220535071
:10120000414B41522F524154544152004B5552567A
:10121000410046454C2049204D454E55005B4D450B
:101220004E555D045B455849545D00204F425300C4
:101230000102030401030204040203010403020186
:10124000454570726F6D204461746166656C200065
:101250004D454444454C414E444500466F726D61D6
:10126000746572617220454570726F6D004545501E
:10127000524F4D206C6F77206D656D00476173652F
:101280006E20656A2061767374816E6764210053F5
:101290006C8020617620676173656E00547279639B
:1012A0006B206E656420656E206B6E61707000420D
:1012B000727974617265205080736C61676E612110
:1012C000005374816E672061762064656D00416C07
:1012D00061726D656E2041767374816E6764612101
:1012E0000063004646004D4F44454C4C0050504D65
:1012F000004B4E00060208070704069C1432465AAB
:101300005A4632465AECEC003C649CC4003C649C57
:10131000000000644D6F6400000000000000000049
:1013200000000000000000000000000000000000BD
:1013300000FF01494E5354844C4C4E494E47415294
:101340000048826774616C617265206C816765001A
:1013500048826774616C61726520746964004882B8
:101360006774616C61726520746F6E005669627299
:1013700061746F72206C8167650056696272617476
:101380006F72204E697680004B6F6E747261737459
:1013900000426174746572697661726E696E67008D
:1013A000496E616B74697669746574736C61726D92
:1013B000004144432D66696C74657200496E766520
:1013C00072746572616420476173004D696E757453
:1013D000706970004E656472816B6E696E677370C0
:1013E0006970005069702076696420626C696E6B68
:1013F000004C6A757362727974617265004C6A752B
:10140000732061762065667465720042696C6420A1
:1014100076696420737461727400476173766172D7
:101420006E696E67004272797461727661726E697C
:101430006E67004D696E6E65737661726E696E6778
:1014400000416C61726D7661726E696E67004E4F1D
:101450002044415441205661726E696E67005469A0
:1014600064737A6F6E004750532D4B6F6F72642E0A
:10147000004B616E616C6F72646E696E67205258CA
:1014800000427279746172650050726F746F6B6F95
:101490006C6C00401DFB5CF824C725CB25396EF52C
:1014A0002D4371597040681B620029020200000040
:1014B00000000602014B4F4E462E004E616D6E003D
:1014C00054696D6572004772816E7365722B2B00D3
:1014D0005472696D6D61722B2B005472696D826B51
:1014E0006E2E0046826C6A20476173004761735418
:1014F00072696D0043656E74657270697000750085
:1015000050504D206672616D65006D730052784ECB
:10151000756D0025000300464C5947464153005461
:1015200072696D6D617200546F6E6120496E005476
:101530006F6E61205574004D414C4C415200034187
:101540005620508320032D2D2D494E5604344348F8
:1015500020364B4E20384B4E2031304B4E31324BE3
:101560004E31344B4E31364B4E0654797374202035
:10157000416C61726D20456A204B6E70416C6C61EC
:10158000202006784B6F7274204B6F727420204EAF
:101590006F726D616C4C806E672020784C806E6736
:1015A000200453494E474F534D5046494C54044E26
:1015B000656420415620205570702003204156203C
:1015C0002B3D203A3D036B6E316B6E326B6E336B8D
:1015D0006E34064578702020207846696E202046BB
:1015E000696E2020204D656469756D47726F7620A5
:1015F0002001524554413132330550504D002050A6
:101600005858002044534D320050504D3136465505
:1016100054002003504F534E4547032D2D2D783E47
:1016200030783C307C787C663E30663C307C667C32
:101630000545444954205052534554412E54485274
:101640000656696B7420204578706F20204B7572A8
:101650007661204661732020204272797461724E57
:1016600081722020202020202020200841646465F1
:1016700072612020468272737481726B457273812D
:1016800074742020022B3D2A3D3A3D0650832020D1
:1016900020204156202020204F6666736574072D58
:1016A0002D2D2D002020763E6F66732020763C6F16
:1016B000667320202876293E6F66732876293C6F52
:1016C0006673414E44202020204F522020202020AD
:1016D000584F522020202076313D3D763220763101
:1016E000213D76322076313E7632202076313C76AE
:1016F00032202076313E3D76322076313C3D7632C6
:10170000200D53816B657268657420002020205481
:101710007261696E6572200020202020496E73740A
:10172000616E74205472696D205370656C61204C39
:101730006A756400202052657365740020202020A3
:10174000202020566172696F202020202020202038
:101750000654696D65723154696D657232416C6C05
:1017600020202054656C656D2E065661726E312006
:101770005661726E322046807220202052696E6758
:101780002020536369466920526F626F742050694C
:10179000702020205461646120205379727361208D
:1017A000536972656E20416C61726D205261746183
:1017B00074615469636B20205669627231205669E6
:1017C00062723220566962723320042D2D2D00542E
:1017D0006D7231546D72324131002041320020541B
:1017E00078002052780020416C740052706D0054D3
:1017F000616E6B54310020543200205370640044F9
:1018000069737443656C6C41636358416363594108
:1018100063635A486467005653706441312D004138
:10182000322D00416C742D416C742B52706D2B5411
:10183000312B0054322B005370642B4473742B41B2
:1018400063630054696400037600204100202D008A
:10185000206B74736B6D684D2F686D002040002005
:101860002500206D4100032D2D2D47756C4F7261B1
:10187000528264013C3E042D2D2D20487562205774
:1018800053484804484D53204E4D45410D4E6F6C12
:101890006C61204D697861720000456E6B656C204B
:1018A000346B616E616C004761736B6C6970706E54
:1018B000696E6700562D53746A817274202020204F
:1018C0000044656C746176696E676520200065432D
:1018D00043504D202020202020200048656C696B5B
:1018E0006F70746572202000536572766F74657333
:1018F000742020200005204D454E55204558495460
:1019000020204E65642020557070488267657256AD
:10191000816E73740347415353494448854A49448F
:1019200030494431494432534B454C414E54524E58
:101930004252314252324252334252344252354282
:101940005236425237425238425239425241425242
:1019500042425243045349442048854A2047415358
:1019600020534B452050312020503220205033202E
:10197000204D41582046554C4C43594B3143594B0F
:101980003243594B33034156204142535448735418
:101990004825544874074C50342F4C503544534D0F
:1019A0006F6E6C7944534D58202020002058976268
:1019B000A92EDE2E7F2F1030408008042010020157
:1019C000000202020200545241494E455220285062
:1019D000504D20494E2900536C617600656666655E
:1019E0006B742025206B816C6C610046827273746D
:1019F00081726B6E2E0043616C0000FF01000202D9
:101A0000FF01000202FF0101FF0000FF01010101CF
:101A1000FF0202020254454C454D455452490041D3
:101A2000026B616E616C2020004F6D7280646500F6
:101A3000416C61726D005253534900416E76816E64
:101A40006461726461746100426C61640044697332
:101A5000706C617900537461706C617220736F6D8A
:101A6000207669736173004252000003030303038D
:101A70000303030303030303030303004752844EDA
:101A8000534552005472696D73203D3E204F666687
:101A900073657473000002535045432E42525954EB
:101AA00041524500000246554E4B2E425259544178
:101AB00052450000DA7B11241FBECFEFD0E1DEBF1C
:101AC000CDBF11E0A0E0B1E0EEE9F9EF02C0059072
:101AD0000D92A632B107D9F71EE0A6E2B1E001C02F
:101AE0001D92A331B107E1F71AE1C6EBDAE104C0B8
:101AF0002297FE010E94977CC43BD107C9F70E9440
:101B0000A3720C94CD7C0C940000FC01808141FFF9
:101B100002C0682B06C042FF03C06095682301C065
:101B200068276083089590E0FC01EE0FFF1FE80F27
:101B3000F91FE45AFE4F81E09481911101C080E0C9
:101B4000089570931B0D60931A0D9093190D809357
:101B5000180D4F5F40930D04E39A80919C01811111
:101B600002C00895A89580910D041816DCF308951D
:101B7000EDE7F0E08081857E808317981F9AAAE8C0
:101B8000B0E01C9210928B0082E88C93808180627E
:101B900080830895A1E1B1E0ED91FC9111978193CB
:101BA000ED93FC9308951F93CF93DF93C82FD9E053
:101BB00080E190E01C2F1170911302C0805F05C07E
:101BC00081500E94CA0D912F80E1C695C068D15006
:101BD00089F7815FDF91CF911F910C94CA0D4F92CD
:101BE0005F926F927F928F929F92AF92BF92CF92AD
:101BF000DF92EF92FF920F931F93CF93DF9300D06A
:101C000000D0CDB7DEB78C01A0E0B0E089839A8325
:101C1000AB83BC832B01612C712C34E6832E912C79
:101C2000A12CB12CA50194012419350946095709A5
:101C3000BC01CD010E94137C6B017C0192E3C90EB3
:101C4000D11CE11CF11C9801D8010E94ED7B9B0185
:101C5000AC0169817A818B819C810E94137C9C01FB
:101C600044275527C301B2010E94137C54E0969586
:101C70008795779567955A95D1F7C60ED71EE81EBA
:101C8000F91EC701B601A50194010E94577CC90144
:101C90000F900F900F900F90DF91CF911F910F91A8
:101CA000FF90EF90DF90CF90BF90AF909F908F907C
:101CB0007F906F905F904F9008951F9341E0262F83
:101CC00030E0683050F440E055E0529FF001539FFF
:101CD000F00D1124E05BF94F0AC02850310959E09A
:101CE000529FF001539FF00D1124E858F94F9C5F6B
:101CF00097FD0DC0811528E0920784F0442319F068
:101D000088E090E002C084E090E0E80FF91F2081B5
:101D1000332727FD3095322F222725C0442329F071
:101D2000492F9927880F991F03C0492F4695917015
:101D3000242F30E0E20FF31F608140E052E0481BA7
:101D4000590B5595479564039001659F300D1124FB
:101D50001181BC01759567951603A001179F500D61
:101D60001124240F351FC90169E170E00E94437CF2
:101D7000CB011F91089560915B010C945D0E87FD6E
:101D800059C047FF02C0640F419567FF02C0460F6C
:101D900060E0A42FBB27A7FDB095A60FB11D67FD7E
:101DA000BA95A134B10514F040E4461B253511F471
:101DB00060FF2AEA362F359535953595E82FF0E006
:101DC00050E83503E00DF11D1124E25BF74F677019
:101DD000B9F0A1E0B0E0062E01C0AA0F0A94EAF71C
:101DE000A195A2238081A827A083E058FF4F6850C7
:101DF000460F06C0808182278083E058FF4F4850FD
:101E00001416C4F3842F992787FD9095089668E0EF
:101E100070E00E94437C882369F0E058F10941E0BA
:101E200050E001C0440F8A95EAF741954223808132
:101E3000482740830895CF92DF92FF920F931F931C
:101E4000CF93DF931F92CDB7DEB7142F6034C8F560
:101E500087FF02C0180F80E0C82EDD24C7FCD09495
:101E6000F601E10FF11DE138F10514F010E8181B3F
:101E7000862F86958695869590E8899FC00CD11C03
:101E80001124EEE4F8E0CE0EDF1E677081E090E0F2
:101E9000F82E01C0FF0C6A95EAF711C020FF0AC0B6
:101EA000402F6F2DC60129830E94850D298126951B
:101EB000206801C026951150FFEFCF1ADF0A1111DB
:101EC000EDCF0F90DF91CF911F910F91FF90DF9099
:101ED000CF900895262F26952695269590E030E8F8
:101EE000239F800D911D1124825B974F2CE08E342F
:101EF000920750F4262F277061E070E001C0660F52
:101F00002A95EAF70C94850D0895CF92DF92EF920F
:101F1000FF920F931F93CF93DF93362F369536950D
:101F2000369590E010E8319F800D911D1124DC0161
:101F3000A25BB74F20FF07C03091C70D36FF07C027
:101F400021FD07C098C021FBFF24F0F804C0F12C4C
:101F500002C0FF24F39422FF2BC074E1479FA0012D
:101F600011244E5A5F4F3BE02870222319F0323083
:101F70001CF481C032303CF0FA01649131964E5F1E
:101F80005F4FE49102C0E0E060E0FF2011F0609557
:101F9000E095CD018F579F4F8E549C4030F46C9349
:101FA000ED01C058DF4FE88311963150F0F663C061
:101FB00023FF0DC0FF2011F02FEF01C020E0FC0136
:101FC000E25BF74F20831196EE24E39401C0E12CED
:101FD00015E0419FA00111244C5C5F4F6770262FD4
:101FE00030E0EFEFF0E0CF01062E01C0880F0A9439
:101FF000EAF7D82ED09488E090E0821B930B082E4D
:1020000002C0F595E7950A94E2F7CE2EC09475E0EC
:10201000772329F0FA014F5F5F4FC49101C0C0E000
:10202000F110C095EE2011F0743019F1ECE0AE34EF
:10203000BE07F8F4D0E08E01022E01C0000F0A9412
:10204000EAF7FC91FD21F00FFC93662389F0FD0176
:10205000E058FF4F1CE0EE34F10750F4082E02C0A8
:10206000D595C7950A94E2F7D081DC21DC0FD083A7
:102070001196715068F6DF91CF911F910F91FF90EB
:10208000EF90DF90CF900895FF920F931F93CF931F
:10209000DF93082FF62EEA01182F1C5E1550AE01B3
:1020A0004F7055274A302CF0495C41341CF028E031
:1020B00002C0405D20E06F2D812F0E94850F84E0DB
:1020C000D695C7958A95E1F71013E8CFDF91CF91A8
:1020D0001F910F91FF90089520E00C94850F8F5F62
:1020E0000C94930DDC016C9312961C921E92119726
:1020F00070E0FB01EE0FFF1FE60FF71FE45AFE4FE3
:10210000848113968C93139714961C9210929D01C0
:10211000089540E450E060E070E08CE591E00C94BC
:10212000A10DFA0170E090E1899F600D711D1124ED
:102130006F5F7F4F422F50E0CF010C94A10D41E023
:1021400050E062E070E08EE591E00C94A10D6093A8
:10215000260190E1899FB001112441E050E086E220
:1021600091E00C94A10D93E0899FB00111246C5F64
:102170007F4F282F30E0C901880F991F820F931FCE
:1021800043E050E0805A9E4F0C94A10DEAEFF3E03B
:102190009081982B90830895DB01FC0104C080811D
:1021A0009C9191938D934150D0F7089524E13EE0A6
:1021B000F9012F5F3F4F80818535D1F39F01235176
:1021C0003E40C90108952091050D32B78091050D5B
:1021D0002813F9CF922F80E0AC01432B9A01C9015B
:1021E0000895CF92DF92EF92FF92CF93DF936B012E
:1021F0007C01C0E1D0E040E050E8E0E0F0E89A0186
:10220000DA010E94ED7BC616D706E806F90610F43F
:102210004E275F27F695E795219719F04E2B5F2BF8
:10222000EECFCA01DF91CF91FF90EF90DF90CF907A
:10223000089590E0FC01E659FC4F1082FC01EE0F7E
:10224000FF1FDF01AC59BC4FE80FF91FEC56FB4FE5
:10225000238534852D933C93FC01E859FC4F108273
:1022600008958EE587B9369A349BFECF349A84B1AF
:1022700095B190935A03809359030895E7E2F1E0F2
:1022800020E0822F806487B9369A349BFECF349A3F
:1022900084B195B1880F991F819391932F5F283056
:1022A00081F70895E7E2F1E040E0842F806487B988
:1022B00054E080E090E0369A349BFECF349A24B10B
:1022C00035B1820F931F5150B1F796958795819341
:1022D00091934F5F483049F70895A7E2B1E0E7E3F3
:1022E000F1E040E0842F806487B9369A20893189F3
:1022F0008D919C91119796958795820F931F8E7F54
:1023000011969C938E9380819181820F931F969555
:102310008795918B808B349BFECF349A84B195B195
:1023200020813181820F931F969587958193919398
:102330004F5F12964830B1F60895E82FF0E0E9516A
:10234000F54FE491F0E0EE0FFF1FE95DFE4F2081B5
:102350003181C9010895FF920F931F93CF93DF93AB
:10236000F12CC0E0D0E08F2D0E949D11092F10E0CC
:10237000C00FD11FF39484E0F812F5CFCE01DF91A6
:10238000CF911F910F91FF9008951F93CF93DF93EB
:102390009C016115710509F1132F111F1127111FE0
:1023A00019F031952195310977FF0EC0719561952E
:1023B0007109C0E0D4E0CE01821B930B0E94EF0DA7
:1023C0009E01281B390B04C0C9010E94EF0D9C011E
:1023D000112319F0319521953109C901DF91CF9170
:1023E0001F9108959C016330A1F034F4613051F0E5
:1023F00064F4662391F120C06530A9F084F0663062
:10240000D9F416C097FF29C010C0181619062CF56C
:102410000CC097FF22C03195219531091EC01816B6
:102420001906B4F002C097FD16C020E030E015C0D8
:102430001816190684F40CC067FF06C03195219563
:10244000310986E0861B682F6750C9010C945D0E28
:1024500020E034E002C020E03CEFC901089586E0AE
:1024600080939B0D0895E9E7F7E020E030E081914B
:102470009191280F391F87E0E139F807C1F7C901A9
:10248000089595E0899F9001112428533A4FC9017E
:10249000089599E0899F9001112428553B4FC90167
:1024A000089594E0899F90011124285E394FC90155
:1024B00008951F93CF93DF93182F882311F0CDE059
:1024C00001C0CFE1D0E08C2F112331F00E945112D6
:1024D000FC019081937005C00E944912FC01968115
:1024E0009F779111DF5FC150C7FFEDCF8D2FDF9137
:1024F000CF911F910895CF93C82F0E945912282F72
:1025000030E0C1110CC00FC08CEC9AE002C089ED24
:102510009AE09093700C80936F0C81E008C02E308D
:10252000310594F703C0203231058CF780E0CF915C
:1025300008959DE0899F90011124295E384FC901BB
:102540000895EF92FF920F931F93CF93DF93EA01C9
:10255000E62EF12C8701000F111FF801E55CFD4FFD
:102560000190F081E02D309779F043383FEF530729
:1025700024F04D37510524F405C0C3E8DFEF02C055
:10258000CDE7D0E0C0831FC00E949912FC01EE0D80
:10259000FF1D9E013595279535952795208323E0CE
:1025A00030E0002E01C0220F0A94EAF72095FC01CA
:1025B00034812323C370DD2701C0CC0F0A95EAF7CD
:1025C0002C0FFC01248382E0DF91CF911F910F91AA
:1025D000FF90EF900C94C6100F931F93CF93DF934F
:1025E000062F10E0E801CC0FDD1FFE01E55CFD4F7A
:1025F0000190F081E02D309729F02081332727FDCD
:10260000309517C00E949912FC01E00FF11F408124
:10261000FC012481332727FD309502C0359527958D
:10262000CA95E2F72370332784E04802200D311D5C
:102630001124C901DF91CF911F910F9108951F932C
:10264000CF93DF93C82F162FD5E0CC2381F0612FD5
:102650008C2F0E94EC12853F21E0920744F0855FA9
:102660008C1708F08F5FD150C82F79F7C0E08C2FFE
:10267000DF91CF911F910895CF93C62F0E941F1312
:102680006C2FCF910C94EC12882309F187FF06C0C0
:10269000863E1CF0E0E6E81B1BC081958B311CF4E4
:1026A000E82FE05C15C085321CF4E82FEB5E10C00B
:1026B000893244F4E82FFF27E7FDF095E653F54F04
:1026C000E49106C08F321CF4E82FE95A01C0E0E221
:1026D0008E2F0895AF92BF92DF92EF92FF920F93E9
:1026E0001F93CF93DF931F92CDB7DEB7182FE62E3F
:1026F0005A01F22E802F8073898324E0D22ED022BB
:102700002EC0E981E03119F0E03249F403C0F5014F
:10271000808107C0F50180810E94441302C0F50149
:102720008491811103C0109359011CC01B37D8F745
:10273000803260F0202F482F6E2D812F0E94850F50
:10274000D11002C01A5F07C0155F05C0982F990FFE
:10275000980F990F190FFFEFAF1ABF0AFA94F110F3
:10276000D0CFE1CF0F90DF91CF911F910F91FF90CC
:10277000EF90DF90BF90AF9008950F93022F2FEF4F
:102780000E946A130F910895AB0120E0682F80E04A
:102790000C94BD1320E00C94BD130F93FA01949197
:1027A0004F5F5F4F929F400D511D1124292F0E94B2
:1027B0006A130F9108950F93222311F002E001C0D4
:1027C00000E0242F4EE355E10E94CD130F910895B0
:1027D000E091C107F0E0EC50F54FE491F0E024E027
:1027E00030E0281B3109220F331F02C0F595E79511
:1027F0002A95E2F7E370FF278E2F8F5F08958E30C2
:10280000910574F4FC01EE0FFF1FE80FF91FE3566A
:10281000F24F90819F7081E09F3009F44DC04BC012
:102820008231910559F17CF48F309105E9F024F45F
:102830008E309105E1F535C08031910579F0813117
:102840009105A9F515C08431910559F004F1853140
:10285000910521F18631910551F526C091B1947011
:1028600027C093B3907824C090916300917020C0EA
:102870009091630093FB992790F90DC080916300BC
:1028800083FF15C091B196FB992790F911C091B1C2
:1028900096FB992790F981E098270AC091B1907131
:1028A00007C093B3907404C091B1907201C090E0DE
:1028B00081E0911101C080E00895CF93DF9384E718
:1028C0009CE0909312018093110180910101877423
:1028D00089F08091A404859585958595859519F055
:1028E000813029F402C080E803C080E901C088E992
:1028F00080930101C0910101C7FF07C086E190E00C
:102900000E94FF13882309F44EC0809171078093C1
:102910000201AEE0B4E0E4E0F1E040E05DE02D91E2
:102920003D91529FC001539F900D112465E09595F4
:1029300087956A95E1F79E5F97FD05C08F3F23E07D
:10294000920724F405C080E090E002C08FEF93E08E
:10295000EF012197242F220F220F292B2883808318
:102960004F5F32964630D9F6C1E0D1E089910E949E
:10297000D30D81E0CF30D807C9F780911101909134
:102980001201019790931201809311018FEF0E9421
:10299000CA0D80E00E94CA0D84E79CE09093140168
:1029A0008093130104C0CF77C0930101AECFDF91B4
:1029B000CF910895EF92FF920F931F93CF93DF93E0
:1029C0008091A404877090910001981709F43FC08A
:1029D00080930001823021F50E94B80D1EBC88EC66
:1029E00090E090937900809378008CE291E09DBD17
:1029F0008CBD80EE9BEA97BD86BD87B7837C87BF81
:102A00008CE386BF8FE380937C0087B7806287BFAB
:102A100080917D00816080937D001FBC8AE116C09B
:102A20000E94B80D1EBC80E49CE99BBD8ABD1DBC04
:102A30001CBC87B7837C87BF8CE386BF8FE3809302
:102A40007C0087B7806187BF1FBC8AE08EBD809104
:102A5000A4048770823049F47894DF91CF911F915C
:102A60000F91FF90EF900C945D148091A50485FF69
:102A700003C060E075E002C060E074E0F090A40480
:102A8000F594F594F594F594FF0C28E0F20E8091FE
:102A9000A60444E68402C0011124885A9D4F109177
:102AA0006F0748EE53E014039001159F300D112479
:102AB00028533045281B390BEEE0F4E0E12CA4E765
:102AC000BCE000271127061B170BC8E5D2E0C81B86
:102AD000D90B1DC0419151914017510724F0461761
:102AE00057071CF403C0A80101C0AB01405A564F60
:102AF0004C0F5D1F11965C934E93480F591F241B7A
:102B0000350B13969C938E9312971496E394EF10C3
:102B1000E1CF44E0E49EF0011124EC58F34F3183FF
:102B20002083938382831582148284E79CE09093B0
:102B3000140180931301DF91CF911F910F91FF90AA
:102B4000EF9008950E94DA1487B7806187BF0895D7
:102B5000873038F4E82FF0E0EE0FFF1FE451FC4F10
:102B600040C0873009F4D3C0883081F481E190E01F
:102B70000E94FF138111C8C082E190E00E94FF1300
:102B8000882309F4C4C020E030E0C3C08C30D8F3FF
:102B9000803190F4E82FF0E0DF01AA0FBB1FA251B3
:102BA000B34FEE0FFF1FEE56F84F2D913C918081F1
:102BB0009181281B390B0AC0843158F4E82FF0E0CA
:102BC000EE0FFF1FE251F34F20813181220F331F9F
:102BD000A0C0843248F4E82FF0E0EE0FFF1FEA5F58
:102BE000FB4F2081318195C0863238F4E82FF0E028
:102BF000EE0FFF1FE45EFC4FF4CF883260F4E82F45
:102C0000F0E0B697DF01AA0FBB1FAE0FBF1FA85D94
:102C1000BD4F2C916DC0883219F42091260268C0F6
:102C2000893219F42091240263C08A3229F4209158
:102C30003D0D30913E0D6DC08B3229F42091230D56
:102C40003091240D66C08C3229F42091250D3091ED
:102C5000260D5FC08D3229F42091210D3091220D77
:102C600058C08E3229F42091270D3091280D51C083
:102C70008F3229F420914F0D3091500D4AC080338E
:102C800029F42091950D3091960D43C0813321F4A4
:102C900020916C0D30E09ACF823329F42091650D9C
:102CA0003091660D36C0833329F42091670D309141
:102CB000680D2FC0843329F42091690D30916A0D7D
:102CC00028C0853329F42091450D3091460D21C04F
:102CD000863329F420917D0D30917E0D1AC0873303
:102CE00019F42091290204C0883321F420912C0288
:102CF00030E00FC0803408F046CFE82FF0E0EE0F50
:102D0000FF1FE35FF24F6DCF20E03CEF02C020E0F9
:102D100034E0C90108959C01B5E035952795BA9531
:102D2000E1F7280F391FAC01440F452F441F550B05
:102D3000241B350B892F990F990B8595280F391F67
:102D4000C9010895EF920F93CF93C82F362F80912A
:102D50005801882339F0CC2329F09091C607965F5B
:102D60009C0F01C090E09093DC0D9091C507929567
:102D7000990F907E9595959595959595959597FF35
:102D80000BC0832F61E070E0691B710997FD73959B
:102D900090E00E94437C06C0632F992319F0939F13
:102DA000600D11246093DE0D4093DF0D809157017B
:102DB0008111802F8093080E1092DD0D8091DA0D25
:102DC0008093DB0D222331F02150E12C632F8C2FD7
:102DD0000E94CF4DCF910F91EF900895EF920F93F6
:102DE000E82F862F9091BB079871983059F0911178
:102DF00003C0E83038F402C0903131F091E0E330A4
:102E000020F002C091E001C090E090935801209121
:102E1000BE07922F907C903459F0911103C0E83096
:102E200038F402C0903831F091E0E33020F002C075
:102E300091E001C090E09093570123FF0BC09E2FBB
:102E40009350953008F469C122E330E03093930445
:102E500020939204E43108F460C12091DA0D90913E
:102E6000DB0D291362C159C100E022E02EC0909110
:102E7000DA0D8091DB0D981358C1EE24E39400E045
:102E800022E043E064E18CE30E94CF4DEE24EA941B
:102E900001E022E043E064E1E6C001E020E041E03F
:102EA00068E25BC001E020E041E06AE08BE456C0EC
:102EB00001E020E041E06AE081E450C000E020E071
:102EC00041E066E04BC001E020E042E003C001E0E9
:102ED00020E041E06AE041C001E020E041E03CC088
:102EE00001E020E041E06EE138C0E12C00E020E0AC
:102EF00045E06AE082E30E94CF4D20E045E06AE0D1
:102F00008AE50E94CF4D22E044E065E099C000E0F0
:102F100020E041E06AE01BC001E020E040E066E024
:102F200016C001E020E040E066E08AE717C001E05B
:102F300020E040E066E08CE711C001E023E005C03E
:102F400001E022E002C001E021E043E06FE088E719
:102F500005C001E021E049E164E186E40E94A21697
:102F6000E4C0E12C01E022E045E06FE08AE5D2C058
:102F7000E12C01E022E045E06FE006C082E0E82EAF
:102F800001E022E042E06AE084E6C4C0E12C01E016
:102F90002AE042E065E08FE50E94CF4D21E04AE063
:102FA00065E08FE50E94CF4D2AE042E065E08FE5C5
:102FB000B1C0EE24EA9400E022E043E06AE080E55C
:102FC0000E94CF4DEE24E39422E043E06AE08CE3DC
:102FD0000E94CF4DE12C02E020E041E06AE064C0B5
:102FE000E12C01E021E041E065E086E40E94CF4D64
:102FF00021E042E06FE082E30E94CF4D21E042E019
:103000006FE031C0E12C01E022E041E065E08EE6B6
:103010000E94CF4D23E041E065E08CE77BC0E12CCE
:1030200000E020E045E065E082E30E94CF4D20E033
:1030300045E065E08AE50E94CF4D22E044E063E090
:103040008EE668C0E12C01E023E04AE065E080E51F
:103050000E94CF4D21E044E165E080E50E94CF4D24
:1030600023E04AE065E080E555C0EE24E39401E00A
:1030700022E045E064E18AE04DC0E12C01E022E07D
:103080004AE064E082E30E94CF4D21E044E168E041
:1030900086E40E94CF4D22E04AE068E082E30E948D
:1030A000CF4D21E044E164E086E434C0E12C01E04E
:1030B0002AE04AE004C0E12C01E022E042E365E0BE
:1030C00088E728C0E12C01E020E04AE06EE180E0E2
:1030D0000E94CF4D20E042E31BC0E12C01E020E044
:1030E0004AE06EE180E00E94CF4D20E04AE06AE0D5
:1030F00080E00E94CF4D20E04EE10AC0E12C01E0CB
:1031000020E04AE06EE180E00E94CF4D22E04AE0FC
:103110006AE080E00E94CF4D08C0F0E0E432F105A3
:1031200020F4EA5BFF4F0C94957C0F91EF9008958B
:10313000AF92BF92CF92DF92EF92FF920F931F93C5
:10314000CF93DF93E12C0FEF27E147E161E28FE1BD
:103150000E941B4727E147E161E28BE40E941B4785
:1031600043E06BE28AE20E94CB4743E06CE289E2F3
:103170000E94F84843E06BE286E50E94CB4743E0BB
:103180006CE285E50E94F8482091580384E0289F6E
:1031900090011124F901EF5CFD4EE491AE2FB0E0F7
:1031A000AA0FBB1FA651BC4F8D919C914091BE07A9
:1031B00040FF03C0E33009F4B8C0F901E05DFD4E03
:1031C000E49122E1289FB001299F700D112477FF1F
:1031D00002C06150784F60E27602612D770B1124B6
:1031E000719561957109665DF0E0EE0FFF1FE65184
:1031F000FC4F2081318142E1429FC001439F900DED
:10320000112497FF02C08150984F80E29802812DCF
:10321000990B1124D8E0ED2E0FEF25E045E0885DF5
:103220000E941B472091580330E0F901EE0FFF1F69
:10323000EE0FFF1FEE5CFD4EE491AE2FB0E0AA0F43
:10324000BB1FA651BC4F8D919C914091BE0740FF82
:1032500003C0E33009F46DC0F901EE0FFF1FEE0F5C
:10326000FF1FED5CFD4EE49122E1289FB001299FF4
:10327000700D112477FF02C06150784F60E2760232
:10328000612D770B1124719561957109665DF0E0F0
:10329000EE0FFF1FE651FC4F2081318142E1429F3A
:1032A000C001439F900D112497FF02C08150984F99
:1032B00080E29802812D990B112438E0E32E0FEF64
:1032C00025E045E08C5A0E941B47C4EFD3E01AE387
:1032D000C12C48E0D42EE12CF12C57E3A52EA99166
:1032E000B99126E130E00E94F97B785A8F4F9F4FC9
:1032F000A70196010E94797CB22EB3940A2D021B7D
:103300004B2D602F812F0E94CB474B2D602F812F9B
:103310008F5F0E94CB474B2D602F812F8E5F0E94C5
:10332000CB471B5F1934D9F608C091958195910957
:1033300044CF9195819591098FCFDF91CF911F91C6
:103340000F91FF90EF90DF90CF90BF90AF900895D6
:103350002F923F924F925F926F927F928F929F92A5
:10336000AF92BF92CF92DF92EF92FF920F931F9393
:10337000CF93DF9300D000D0CDB7DEB79A01AB0179
:10338000482E512C65E0869FC00111248C569B4F1E
:10339000FC01E95CFE4F60817181FC01EB5CFE4F3A
:1033A0000081EAE00E028001112408511C4FFC014B
:1033B000EC5CFE4F8081FAE08F023001112488EE30
:1033C000681A83E0780A902F812F6017710714F430
:1033D000962F872F292E382E261437040CF413012C
:1033E000211531054105510539F16101EE24D7FC64
:1033F000E094FE2C121613061406150654F4B801B8
:10340000882777FD8095982F6C197D098E099F0973
:103410000BC04301AA2497FCA094BA2CC701B601A3
:10342000681979098A099B090E94137C20EA36E809
:1034300041E050E00E94797CC10129833A834B83AB
:103440005C830E948B166C01EE24D7FCE094FE2C6A
:1034500029813A814B815C81C20ED31EE41EF51E88
:10346000C8010E948B168C01C3010E948B16A80113
:10347000662757FD6095762F4C155D056E057F0517
:1034800014F46A017B01AA2797FDA095BA2FC816EC
:10349000D906EA06FB0614F46C017D0185E0849DE3
:1034A000F001859DF00D1124E653FA4F80818823A9
:1034B00019F0D194C194D108F201E85BFC4F8081EE
:1034C000803891F099E2890260011124D594C79463
:1034D000D594C79487FD815C86FB880F880B80F9A3
:1034E000C81AD10887FDD394C6010F900F900F9092
:1034F0000F90DF91CF911F910F91FF90EF90DF9090
:10350000CF90BF90AF909F908F907F906F905F9083
:103510004F903F902F9008950F931F93CF93DF9379
:103520008091BE0784FD3DC00E94A4560E94E553D1
:1035300020E040E15BE060E080E00E94AC480E9457
:10354000F8458091A6070E9421460E94E945C0E205
:103550000E946D11C150E1F70E94AB11EC01F8948B
:103560000091310310913203789400571E4F0CC024
:103570000E946D110E94AB1126B320952E7789F41D
:103580008C179D0771F40AC0F894809131039091D3
:10359000320378940817190759F703C00E94A456FC
:1035A000F3CFDF91CF911F910F9108952F923F920A
:1035B0004F925F926F927F928F929F92AF92BF9243
:1035C000CF92DF92EF92FF920F931F93CF93DF93EF
:1035D000282EF9E78F2EF7E09F2E00E010E0312C27
:1035E00044244394512CB2E3CB2ED12CE12CF12C6A
:1035F000802F043068F490915803F80124E0929FE2
:10360000E00DF11D1124E05DFD4E74907A9401C02F
:10361000702E0E949D119C01D4018D919D914D01B0
:10362000281B390BB901882777FD8095982FEAE090
:10363000660F771F881F991FEA95D1F71216130698
:103640002CF45A962D913C915B9703C0FD01248583
:1036500035852436310514F424E630E0442737FD5F
:103660004095542F0E94797CE9012115FCEF3F071A
:103670002CF0C13024E0D20724F405C0C0E0DCEF18
:1036800002C0C0E0D4E08091BE0780FF06C032E0F7
:10369000731203C0D195C195D109A72CB12CF501A6
:1036A000EE0FFF1FE451FC4FD183C083CE01D7FF43
:1036B00004C0882799278C1B9D0B54E0969587950D
:1036C0005A95E1F7823098F4811107C0942D0A2CA5
:1036D00001C0990F0A94EAF709C0C2010A2C01C07F
:1036E000880F0A94EAF7909143029823392A83E0DD
:1036F000871508F451C080914303811146C0872D7E
:103700008F5E90E04097D20102C0AA0FBB1F8A953E
:10371000E2F7CD018160209144033091450382237B
:103720009323892B09F096C030C0A72DAF73B0E06A
:10373000CD01880F991F8A5F924FAD01440F551F2D
:103740004655584FDC012D913C91DA018D919C91A9
:10375000281B390BA181BB27A7FDB0950E94E57BF3
:10376000A70196010E94797C72947694769443E046
:103770007422872D90E08130910519F0029729F489
:1037800003C0C20FD31F01C0E901F501EE0FFF1FF7
:10379000E55CFC4FD183C0830F5F1F4F07301105DD
:1037A00009F026CF622D8BE393E00E94B65500917D
:1037B000A40408706090BE07B1E06B2220E034E002
:1037C00080913F0390914003281B390B6901EE243F
:1037D000D7FCE094FE2C70906203E3E34E2EE3E00E
:1037E0005E2E10E0812CF8E09F2EA12CB12C612FD1
:1037F000822D0E943C13EC011230F9F40023E9F011
:10380000662019F0D195C195D1099E01442737FD55
:103810004095542F23583F4F4F4F5F4FC701B6017C
:103820000E94137CA50194010E94797C2115E8E097
:103830003E074105510521F402C0711016C09E01DA
:10384000220F331FD2012D933D932D011F5F1430A2
:1038500071F60EC0F501EE0FFF1FEE54F84F7080A9
:10386000872D807C09F061CF90CFC0E0D0E0E7CF1A
:10387000832DDF91CF911F910F91FF90EF90DF90FB
:10388000CF90BF90AF909F908F907F906F905F9000
:103890004F903F902F900895FF920F931F93CF93D7
:1038A000DF93F62E1091720C882309F44AC0812F01
:1038B0000E945112EC01012FFF2011F0015001C0B4
:1038C0000F5F188107FF09C0812F8C7009F46FC04A
:1038D000812F869586958D5F0BC00E3071F4812FF8
:1038E0008C708C3009F463C0812F869586958F5F2C
:1038F0008370880F880F137F4FC0802F0E94511252
:10390000BC01FC01808118271C7011F48370B9F48C
:103910009881892F869586958370FF2029F08823CA
:1039200009F445C08D5F04C0833009F440C08F5F47
:103930008370880F880F937F982B98832FC044E063
:1039400030C0812F0E944912EC01012FFF2011F09D
:10395000015001C00F5F188107FF03C0812F8F70D6
:1039600012C0003219F4812F8F7011C0802F0E9475
:103970004912BC01FC01808181278F7089F0812F61
:103980008F70FF2021F0882391F0815F03C08F307A
:1039900071F08F5F8F70107F182B1883C1E009C002
:1039A00049E0CE010E94CC100093720CF7CFC0E02A
:1039B00003C082E00E94C6108C2FDF91CF911F912F
:1039C0000F91FF9008959AE0E1EAF1E0DF011D9286
:1039D0009A95E9F7803118F020E030E019C08F5F48
:1039E0000E9413486AE070E081EA91E00E943B483F
:1039F0000A9791F78091FB0390E0FC01EE0FFF1F07
:103A0000E80FF91FEF59FE4F20818181382F3F7059
:103A1000C901089580E00E94134861E070E088E7E2
:103A200097E00E943B48019709F00FC0809178070A
:103A30008D3C59F40CC00E94331241E02091A30741
:103A40003091A4072817390779F040E00DC080E0D5
:103A50000E9413486FE470E088E797E00E943B48BB
:103A60008035910540F3F1CF842F08950F93062FF1
:103A700020E040E050E060E00E9494720F910895D1
:103A80007F928F929F92AF92BF92CF92DF92EF92EE
:103A9000FF920F931F93CF93DF93CDB7DEB7659758
:103AA0000FB6F894DEBF0FBECDBF882E22E045E2F0
:103AB0005FE060E080E00E94BD130E945C3E809168
:103AC0006E0C882349F0809147038F5F0E94455513
:103AD00010926E0C1092230280916F0C9091700CDA
:103AE000892B11F000E001C0082D80912302811183
:103AF000E5C28091A5070E946F10811104C0DEC24B
:103B0000802F815001C0802FC09047036FE00E943A
:103B1000361D882309F4F5C210914703063670F468
:103B2000043608F050C10132B1F120F4003209F03E
:103B3000ADC15BC0023608F4A9C15DC10138A1F076
:103B40000F3B21F0003809F0A1C14FC01091A5072B
:103B50001093470310922302109222028FEF80935A
:103B600021028093040D92C180912302882399F051
:103B70008091220281110FC04091A50750E0212FB2
:103B8000332727FD30954217530729F0812F0E94D4
:103B90006F10811199C280912302882309F476C1A4
:103BA000823021F02091210227FF13C0212F3327DB
:103BB00027FD3095205F3F4F80912202280F311D55
:103BC00087FD3A95C90160E170E00E94437C182F9F
:103BD00001C0122F10934703109223028FEF80939E
:103BE000210210922202802F76C290912302C12ED0
:103BF000DD24C7FCD094992309F4B8C08091220237
:103C0000811104C08091210287FDB0C0913019F468
:103C10008AE39FE002C08AE49FE00E94BD4781E002
:103C20000E94AA3E9601205F3F4F80912202280FFA
:103C3000311D87FD3A95C90160E170E00E94437C27
:103C4000B82E80912302813009F045C06091210295
:103C50006F5F7E0180E1E80EF11CC7010E947210C7
:103C600041E062E08B2D8F5F0E941D480F2D0CC03C
:103C7000CE0101960E94C42680919D01882321F0E7
:103C800010929C01B12E27C04FE050E0BE016F5F43
:103C90007F4F8E2D902F0E94CD54682F8111E8CF39
:103CA0008091FE03882329F00E945754182F811118
:103CB00015C28091FC03809394019091FD039F7045
:103CC00080919501807F892B8093950161E180919E
:103CD000FB030E943E4F8091A5078093210200E1E3
:103CE00010E026C08091220218161CF4C7010F961E
:103CF00002C0C7010196B8010E94437CA82E682F1C
:103D00006F5F8B2D8F5F0E943E4F209121023327E2
:103D100027FD3095E216F30619F4A092210207C0A0
:103D20004A2D50E04217530711F4B0922102BA2CE9
:103D3000EB2CF12CCE14DF04A9F640912102242FA4
:103D4000332727FD30958091A50790E02817390784
:103D500029F04093A50781E00E94C610109223022B
:103D60008FEF8093210210922202CBC10038D9F448
:103D700089E59FE00E94BD4781E00E94AA3E8091B4
:103D8000A50790E08C159D0541F01093A50781E0F3
:103D90000E94C610812F0E94D83E10922302882DC7
:103DA0000E940945AEC1812F9D8B0E946F109D8995
:103DB000882309F46BC0913011F482E001C081E0E6
:103DC0008093230263C0412F552747FD50952091D2
:103DD000A50730E04217530751F4043619F08BE180
:103DE00092E602C08BEF9CE50E9452298AC189E0CD
:103DF0000E94CF254BC090912302992309F446C01D
:103E000080912202033611F48F5F01C0815080310E
:103E100011F0803F09F480E02091210227FF34C097
:103E2000913091F51C2DC092210290E1A92EB12C68
:103E3000EC2CF12C212F332727FD3095C9010236B8
:103E400011F4419601C00F96B5010E94437C182FD2
:103E50000E946F10882341F0412F552747FD509550
:103E60004E155F0539F71FEF109347031F3F49F4C5
:103E700082E00E94CF25C092470310922302109344
:103E800021021091470380E08093220247E65FE021
:103E900060E08AE20E94CA130E941C55AC0120E037
:103EA00060E086E60E94134CC12EDD24C7FCD0944E
:103EB0008091A50790E0C816D90611F442E001C030
:103EC00040E06BE080E00E94A14D8091730CA60160
:103ED000481B51091416150644F09601215031096A
:103EE00037FF0EC020E030E00BC04630510554F0E3
:103EF0009601245031092A30310514F029E030E0D0
:103F00002093730C88E0982EA12CB12C7090730C28
:103F10007A0C90912302911105C0472D50E0C416F0
:103F2000D50611F020E101C022E1E72CF12CA70118
:103F30004F5F5F4F02E0692D84E19D8B0E94FF4837
:103F40009D89923009F4D8C0913009F04CC080911D
:103F5000210287FFCCC047C0782E4BE2692D8AE74B
:103F60000E946C1040C070902202710E3CC0809183
:103F7000220287FF1BC0EC14FD0444F4A601480F85
:103F8000511D87FD5A95E416F50674F49FE0E91A71
:103F9000F108CE14DF043CF1A601480F511D87FD46
:103FA0005A954E155F05FCF473941DC08823D9F013
:103FB000CE14DF0444F4A601480F511D87FD5A9525
:103FC0004E155F0574F49FE0E90EF11CEC14FD043E
:103FD00054F0A601480F511D87FD5A95E416F506C9
:103FE00014F48FE0780E9FE07922872D0E946F10E5
:103FF000882339F1872D0E94E31C7C0100E0272DE6
:1040000041EA51E0692D88E10E946D4B20E0A70153
:10401000692D88E70E94134C8091A507781211C082
:104020008091210287FD08C08091730CA501480F83
:10403000511D4C155D0529F04AE2692D81E00E9471
:104040006C10F0902302FF20D9F08091730CA50131
:10405000480F511DC416D50699F4E12C0FEF27E047
:1040600046E7692D89E00E94E04681E0F81205E507
:10407000692D6150E12C29E048E788E00E941B4748
:104080009FEFA91AB90A88E0980E90E499123ECFE2
:1040900040916F0C5091700C452B99F1812F0E942B
:1040A000E31C21EA31E03093A00120939F018AE0D4
:1040B00080939E01882D0E94904723C0802F8F718E
:1040C000813009F41DCD1FCD4CE25FE05093700CA0
:1040D00040936F0C81E80E940945D8CE60E0809142
:1040E000FE030E94A710812F0E942C55E2CDEC14F4
:1040F000FD0409F03CCF30CFEC14FD0409F037CFBC
:1041000032CF65960FB6F894DEBF0FBECDBFDF91FC
:10411000CF911F910F91FF90EF90DF90CF90BF90C4
:10412000AF909F908F907F9008952F923F925F92D3
:104130006F927F928F929F92AF92BF92CF92DF92B7
:10414000EF92FF920F931F93CF93DF931F92CDB700
:10415000DEB7982E8091720C0E9451126C01DC0126
:104160004C914695469543704F5F20E060E08DE2AC
:104170000E94894B65E0892D0E94361D882309F431
:10418000A8C122E04DE15FE060E080E00E94BD1345
:10419000A0904703E12CF12C18E0BB24A7FCB094BD
:1041A00003E0502E84E0682E00E02E2D40E456E11E
:1041B000612F80E0E9820E94CD138091720C8824E7
:1041C00083943981AE14BF0411F0812C01C002E048
:1041D00039830E9451121C013981323009F445C0E3
:1041E00030F4332369F0313009F0F8C025C03430A1
:1041F00009F4B1C008F476C0353009F0EFC0CFC083
:10420000FC0142814695202F50E0612F8BE30E94F4
:10421000134C882009F4E2C0D10112966C91669586
:1042200024E640E0892D0E943429880FF101928113
:104230009170982B9283D2C0DC0113964C91552734
:1042400047FD5095202F612F8BE30E94134C88204F
:1042500009F4C4C024E64CE9F1016381892D0E9470
:104260003429D10113968C93B9C0FC0180818295C9
:104270008F70E82FF0E03B9714F044E001C040E07D
:10428000480F202F612F89E20E94214B002309F45F
:10429000A5C0D1016C9162956F702FE040E0892D2F
:1042A0000E9434298F70282F2295207FF101908160
:1042B0009F70922B9083282F30E0273031050CF42B
:1042C0008DC0F0E69F128AC02B30310514F093E0C8
:1042D00001C097E0891B80935B0184E699E30E940B
:1042E000343B7CC0DC0112968C91129711967C9025
:1042F00072947694B7E07B2280FD7194202F472D35
:10430000612F89E20E94484B882009F467C025E0AC
:104310004BEF672D892D0E943429282F221F222739
:10432000221FF101928120FB90F99283282F3327DD
:1043300027FD309537FF03C031952195310922952E
:10434000220F207ED10111968C9111978F71822BB3
:1043500011968C9343C0FC014181440F440F440FDC
:10436000459545954595202F612F89E20E942A4663
:104370008820A1F1D10111966C91660F660F660F2E
:104380006595659565952FE041EF892D0E9434294B
:104390008F71F1019181907E982B91831FC0DC0178
:1043A0008C918370252D281B4AE156E1612F89E20B
:1043B0000E94CD13882091F0F10180818370662DD9
:1043C000681B23E041E0892D0E943429962D981B1B
:1043D0009370D1018C918C7F892B8C93185FBFEFE8
:1043E000EB1AFB0A103409F0DFCE89E596E50E944E
:1043F000CE47D601EC91E695E695E370F0E0EE0F3E
:10440000FF1FE451FC4FE080F180C7010E94595624
:104410008C0189E18E9DA0018F9D500D112457FFC5
:1044200002C041505F4F452F550F550B20E060E310
:1044300088E70E94134C89E1809FA001819F500D65
:10444000112457FF02C041505F4F452F550F550BA8
:1044500020E068E084E50E94134C98013C5F37FF40
:1044600002C02F5F3F4F359527954FE3429FC00114
:10447000439F900D1124892F9927869586950FE3E8
:1044800010E0081B190B65E0F694E7946A95E1F7D4
:10449000C701825A9F4F182F602F635047E00E9438
:1044A000CB4747E0602F812F83500F90DF91CF9152
:1044B0001F910F91FF90EF90DF90CF90BF90AF9042
:1044C0009F908F907F906F905F903F902F900C9473
:1044D000F8480F90DF91CF911F910F91FF90EF90CF
:1044E000DF90CF90BF90AF909F908F907F906F9014
:1044F0005F903F902F900895BF92CF92DF92EF92FE
:10450000FF920F931F93CF93DF93C82E80915A0190
:10451000882319F04EE65FE002C049E75FE022E041
:1045200060E080E00E94BD138091720C0E944912ED
:10453000EC0148814F704F5F8091590120E060E0AD
:104540008A5F0E94B84B6DE08C2D0E94361D882337
:1045500009F444C2E090470318E0B12CFF24E7FCC3
:10456000F0949091730C9B0D292F30E0E216F30626
:1045700019F422E0D22E01C0D12C963009F413C1D7
:1045800080F4923009F458C030F49923E9F0913066
:1045900009F01FC236C0943009F49CC008F0CAC0AC
:1045A0007EC09A3009F49EC130F4983009F440C1BD
:1045B00008F070C119C19C3009F4D1C108F4B1C12F
:1045C0009D3009F006C2E9C145E85FE0612F8CE04B
:1045D0000E94CA134E814F772D2D612F8CE30E94CC
:1045E000AD4BDD2009F4F5C16E816F7729E341E021
:1045F0008C2D0E9434298F779E819078982B9E83F2
:10460000E8C14BE85FE0612F8CE00E94CA132D2DBA
:1046100020684981552747FD5095612F8CE30E9402
:10462000134CDD2009F4D5C12DE743E869818C2DB9
:104630000E9434298983CDC140E95FE0612F8CE07D
:104640000E94CA138E81881F8827881F4F814F734D
:10465000440F482B440F45952D2D2068440F550BD2
:10466000612F8CE30E94134CDD2009F4B2C18E81CE
:10467000881F8827881F6F816F73660F682B660FEE
:10468000659522E34EEC8C2D0E9434299E8180FB9F
:1046900097F99E8386958F739F81907C48C046E1F1
:1046A0005FE0612F8CE00E94CA132D2D20684885A1
:1046B000552747FD5095612F8CE30E94134CDD2058
:1046C00009F487C12DE743E868858C2D0E943429C1
:1046D00088877FC14DE95FE0612F8CE00E94CA139B
:1046E0004E814F7750E04530510534F42F812295AB
:1046F00026952695237001C021E00D2D4BE856E14B
:10470000612F8CE30E94CD13DD2009F462C16F811B
:10471000629566956695637022E040E08C2D0E945C
:1047200034298295880F880F807C9F819F73982BF6
:104730009F834FC142EA5FE0612F8CE00E94CA1361
:104740004B81440F440F459545952D2D612F8CE3EA
:104750000E94214BDD2009F43CC16B81660F660F7E
:104760006595659526E140EF8C2D0E943429880FD0
:10477000880F85958595282F2F739B81907C922B90
:104780009B8390E6C91225C1873008F422C187FFB8
:1047900002C0809501C0875080935B0184E699E355
:1047A0000E94343B16C141E854E1612F8CE00E9425
:1047B000CA134A81440F440F459545952D2D612F0D
:1047C0008CE30E942A46DD2009F403C16A81660F4A
:1047D000660F6595659525E14BEE8C2D0E94342979
:1047E0008F739A81907C7BC049EA5FE0612F8CE0F7
:1047F0000E94CA13488145954595459545952D2DAF
:10480000612F8CE30E94484BDD2009F4E2C06881EF
:10481000659565956595659525E04BEF8C2D0E9416
:1048200034298295807F98819F70982B9883D1C07E
:1048300041EB5FE0612F8CE00E94CA134B81842F13
:10484000807C2D2D59F02068429546954695437001
:1048500050E0612F8CE30E94134C06C049EB5FE0EF
:10486000612F8CE30E94BD13DD2009F4B2C06B817F
:10487000629566956695637023E040E08C2D0E94FA
:1048800034298295880F880F807C9B819F73982B99
:104890009B839FC04DEB5FE0612F8CE00E94CA13A9
:1048A0002A8122952695269523700D2D4BE656E1FB
:1048B000612F8CE30E94CD13DD2009F48AC06A8148
:1048C000629566956695637022E040E08C2D0E94AB
:1048D00034298295880F880F807C9A819F73982B4A
:1048E0009A8377C044EC5FE0612F8CE00E94CA138A
:1048F0004C8142954F702D2D50E0612F80E60E9433
:10490000134CDD2009F465C06C8162956F702FE057
:1049100040E08C2D0E9434298295807F9C819F707D
:104920001BC042ED5FE0612F8CE00E94CA134C81F6
:104930004F702D2D50E0612F80E60E94134CDD203A
:1049400009F447C06C816F702FE040E08C2D0E940D
:1049500034298F709C81907F982B9C833AC040EEC5
:104960005FE0612F8CE00E94CA134D8142954F7029
:104970002D2D50E0612F80E60E94134CDD2049F17F
:104980006D8162956F702FE040E08C2D0E9434297C
:104990008295807F9D819F701AC04CEE5FE0612FF1
:1049A0008CE00E94CA134D814F702D2D50E0612F75
:1049B00080E60E94134CDD2061F06D816F702FE066
:1049C00040E08C2D0E9434298F709D81907F982B20
:1049D0009D83B394185F87E0B812C3CDDF91CF9168
:1049E0001F910F91FF90EF90DF90CF90BF900895AF
:1049F0006F927F929F92AF92BF92CF92DF92EF928F
:104A0000FF920F931F93CF93DF931F92CDB7DEB723
:104A1000182F06E02BE043E954E162E00E94947213
:104A2000882309F4A5C022E048EF5FE060E080E061
:104A30000E94BD13B0904703BA94103619F0143693
:104A400099F409C085E0B81206C01092040D88ECF4
:104A50008093620309C0E4E0EB1530F0B092720C71
:104A600084EE90E60E94343B18E0612C712CCB2C34
:104A7000DD24C7FCD094A62C6C147D0411F422E034
:104A800001C020E08A2D29830E9499127C014A2DC1
:104A90004F5F2981612F80E00E94484BA7014A5F48
:104AA0005F4F00E226E0612F88E10E946A13A110A7
:104AB00007C042E050E1612F85E40E94CA1317C08D
:104AC00020E0F7014581612F85E40E942A469DE59B
:104AD000912C00E0292D4A2D612F892F99830E9466
:104AE000A746939499819A5FF4E09F12F2CFF70161
:104AF0008485882371F0982F9F7021F0807F21F0AA
:104B00004AE203C04FE401C049E4612F8AE70E94F2
:104B10006C10FFEF6F1A7F0A185F103309F0ABCFEC
:104B200085E0B81206C080916203811102C012E0D4
:104B300001C010E0212F4BE050E168E380E00E94CB
:104B4000BD130E949455482F4F5F212F68E384E2E4
:104B50000F90DF91CF911F910F91FF90EF90DF9019
:104B6000CF90BF90AF909F907F906F900C94484BE8
:104B70000F90DF91CF911F910F91FF90EF90DF90F9
:104B8000CF90BF90AF909F907F906F900895682FC7
:104B900081E00C94FE30682F80E00C94FE3066E4D7
:104BA0000C94EE16CF92DF92EF92FF920F931F9329
:104BB000CF93DF936C017B018A01E9010E94E553E9
:104BC00024E0A60160E080E00E94BD13B70180E20E
:104BD0000E94C4130115110521F0B80188E20E945A
:104BE000C413209749F0BE0188E30E94C41382E0F9
:104BF0000E94CF250E94E9450E94F8458091A607B2
:104C0000DF91CF911F910F91FF90EF90DF90CF90A8
:104C10000C94214626E330E140E050E0BC018BE2F9
:104C200092E10E94D22586B380958E7721F40E946E
:104C3000A456A895F8CF08958091FE03811116C05F
:104C40008091FC039091FD03892B81F480915E019A
:104C50008093FE0380939301882341F00E94575470
:104C600080935E018091030481603CC080910304C5
:104C7000982F9F70913009F070C0815038C080919A
:104C8000FE03811101C03BC09091FF039F30B0F043
:104C90001092FF030E94575481110EC060915E0173
:104CA000611101C02CC0809103048E5F80930304C6
:104CB0008091FE030C94A7108093FE03809103045F
:104CC000982F9F70923019F09330A9F40FC0809103
:104CD0005E018093FE030E94575480935E01809191
:104CE00003048F5F809303040C949F108350809380
:104CF000030460E0DDCF8091FE03811104C081E0F8
:104D000080939D012EC06091FF032FE090910A04D3
:104D1000261B921708F4292FE22FF0E040910B0494
:104D200050910C044E0F5F1F50930C0440930B04E2
:104D3000921B90930A04922F960F9093FF03A091D9
:104D4000FC03B091FD03AE0FBF1FB093FD03A09312
:104D5000FC034E1B5F0B0C94911080910A0481118F
:104D60008ECF80919D01813041F489E290E10E94D3
:104D70000A261092030410920A0480919C0181116A
:104D800002C00C94E026089560930A0490930C04EA
:104D900080930B040E941C2680919C01882341F083
:104DA00080910A04882321F080919D01882391F34A
:104DB00008958093090461E089E094E00C94C4268E
:104DC000CF93DF9360910804E0910604F09107040B
:104DD000662371F0CF01860F911D90930704809395
:104DE000060410920804CF01DF91CF910C94C426E1
:104DF000808120910404309105042115310509F4C6
:104E00005CC071E0811170E041E050E090E081E031
:104E1000DF01A40FB51F61E0AC91A11160E0671341
:104E20000BC08F3309F4C0C0992319F08F3009F4F7
:104E3000BBC042175307E1F57723B1F0883080F00B
:104E4000482F50E0E40FF51FF0930704E0930604A9
:104E5000241B350B3093050420930404806422C086
:104E60004217530719F5ECCF492F50E0E40FF51F17
:104E7000F0930704E0930604BA01680F711D261B26
:104E8000370B30930504209304048093080499237E
:104E900049F09A0174E0220F331F7A95E1F72068F8
:104EA0003F6F822BDF91CF910C94D926982F80E011
:104EB0008F5F4F5F5F4F762FABCF809103048033BE
:104EC00009F466C030F4803151F0803209F06FC0CF
:104ED00055C08034E9F0803509F069C048C0809140
:104EE000FE038823A9F00E945754C82F811157C090
:104EF0000FC08C2F0E945754C82F8C2F0E945754DC
:104F00008111F7CF80E2809303046D2F8C2F3CC07A
:104F1000909193019093FE038091FB03482F50E002
:104F20009A01220F331F240F351FF901E45AFE4F57
:104F30004481409393019483F901EF59FE4F90917E
:104F4000FC0390834091FD034F709181907F942BDF
:104F5000918340919501F901EE59FE4F407F908178
:104F60009F70942B908390E59093030403C010925C
:104F7000030481E1DF91CF910C94B31080E380931F
:104F8000030460E08091FE03DF91CF910C94A710A1
:104F900080E480930304DF91CF910C949F10D09113
:104FA0005E0180935E01A9CF61114ACF5DCFDF9191
:104FB000CF9108958F929F92AF92BF92CF92DF923E
:104FC000EF92FF920F931F93CF93DF93182F7B01E4
:104FD0005A016901802E84FF06C01F701066F4E03C
:104FE0009F2E05E003C0E5E09E2E04E0802F806642
:104FF000181761F0802F8064181741F08091040D1C
:1050000018165CF4133611F0133439F4E7012196C5
:1050100083E00E94CF25892D6AC0992D90661917CB
:1050200061F0992D9064191741F018160CF065C0C5
:10503000123619F0123409F060C0E701219784E0BC
:105040000E94CF25802F53C0A114B10499F481E0B0
:10505000C816D10479F4103669F41092040DC1E039
:10506000D0E0E114F10411F0C0E0D0E080E60E944D
:10507000094514C0CC16DD063CF4812F0E94094579
:1050800089E00E94CF25E601CA15DB053CF4812F9B
:105090000E94094589E00E94CF25E501CE15DF0574
:1050A00019F182FC14C0209739F0CC398FEFD80762
:1050B00019F0C436D10559F4812F0E941A45EC1617
:1050C000FD0614F483E001C084E00E94CF25882D02
:1050D00083700E94C610EC16FD0614F481E001C036
:1050E0008FEF8093710C16C01092710C13C090E07A
:1050F0000E94FF13811103C0A7CFE701A5CFCC27E2
:10510000DD27CE19DF09892D0E940945802F0E94D5
:1051100009459ACFCE01DF91CF911F910F91FF905A
:10512000EF90DF90CF90BF90AF909F908F900895B9
:10513000BF92CF92DF92EF92FF920F931F93CF9384
:10514000DF93D82EC62EEA01B22E102FE11002C036
:1051500000E205C08091040D1816D4F302E22B2D55
:10516000AE016C2D8D2D0E946A13EE2009F472C0E1
:105170008091040D18160CF06BC0E0904603FE0100
:10518000EE0DF11DF080812F8256823020F0123416
:1051900011F01334F1F4EF2DFF27E7FDF095F7FF41
:1051A00003C0F195E195F1096E2F772767FD7095A2
:1051B00000E02EE230E040E050E0812F0E94DA274C
:1051C000F7FC02C0F82E02C0F82EF19482E00E9493
:1051D000C610153249F018F4143211F509C0812FA8
:1051E00084588230E8F40FC0EE20D1F0EA9418C061
:1051F0004E2D50E02B2D30E021503109421753073E
:105200007CF4E3940DC08F2D865E853348F4F194D1
:1052100082E00E94C610153819F485E00E94094505
:1052200080914603C80FD11DF8828F2D0E94441330
:1052300020914603922F990F920F990F22E0482F49
:105240006C2D8D2D890F0E94850FE092460302C0C0
:1052500010924603DF91CF911F910F91FF90EF9035
:10526000DF90CF90BF9008950F93332727FD30959F
:10527000552747FD5095772767FD709502E00E94FE
:10528000DA270F9108950F93332727FD309555277F
:1052900047FD5095772767FD709501E00E94DA275A
:1052A0000F910895FC01A0915B03B0E0AA0FBB1F12
:1052B000A953B84FED93FC938FEB099585E00C94BF
:1052C000CF25CF93C82F22E048E650E160E080E090
:1052D0000E94BD13C236B1F028F4C03631F0C13699
:1052E000C1F413C0C336A9F410C08FEF8093160D1C
:1052F0001092170D1092900410928F0483E00E9478
:10530000CF2507C081E69DE202C08FE59BE30E94A6
:1053100052296EE670E188E00E94C4134091170D97
:10532000469568E084E50E94C94D6DE770E180E133
:105330000E94C4134091160D469560E184E50E94D9
:10534000C94D6CE870E188E10E94C4134091170DCB
:1053500050E08091160D481B510957FF02C04F5F66
:105360005F4F5595479568E184E50E94C94D6BE90B
:1053700070E180E20E94C41380918F0490919004A8
:1053800024E6289FA001299F500D112424E0569562
:1053900047952A95E1F720E360E284E50E94134CEB
:1053A00048EA50E168E280E00E94CA130E94D610E9
:1053B00028E0AC0168E284E50E94134C45EB50E123
:1053C00068E382E1CF910C94CA132F923F924F92DF
:1053D0005F926F927F928F929F92AF92BF92CF9285
:1053E000DF92EF92FF920F931F93CF93DF9300D042
:1053F000CDB7DEB7782E80E6781649F1871538F0FC
:10540000E2E27E16A1F0F3E27F1223C004C081E63F
:1054100078121FC017C080913602982F9150909338
:105420003602811116C083E08093360212C080914B
:105430003602982F9F5F90933602833051F410927A
:10544000360207C08FE59BE30E94522902C00E94EA
:10545000995300E02091A50744E954E060E080E022
:105460000E946D4B8091A70790E041E0209160037E
:10547000309161032817390708F040E060E084E5C7
:105480000E949A4D80919E04882379F021E08091BA
:105490006A03823009F020E0409164035091650373
:1054A000022F60E086E60E94C04BE12C0FEF28E05F
:1054B00040E860E080E00E94E0468091150187FDB1
:1054C000B9C280913602882309F4A6C0C4C06A2DEF
:1054D000812F0E946555982E133009F05FC0A110EE
:1054E0005DC040E368E08FE30E94CB4780911501E7
:1054F0001816F4F5EDE19E1222C065EC70E189E327
:105500000E94C4134091650D5091660D00E020EBA0
:1055100069E388E10E94FF484091670D5091680D52
:1055200020EB69E38CE30E94FF484091690D5091A4
:105530006A0D20EB69E380E60E94FF4867C0FEE148
:105540009F122CC00F900F90DF91CF911F910F9160
:10555000FF90EF90DF90CF90BF90AF909F908F9093
:105560007F906F905F904F903F902F900C94504A97
:105570000F900F90DF91CF911F910F91FF90EF90BF
:10558000DF90CF90BF90AF909F908F907F906F9063
:105590005F904F903F902F900C948C4A992081F10E
:1055A000D394892D8D5D0E94A815AC01133009F0AC
:1055B00067C26CC220E4AA2039F080E508C024E468
:1055C000AA2021F08AE403C084E101C08AE0022F0E
:1055D0006F2D0E94C04B14C0992D9150AA2011F03C
:1055E00080E801C08FE39A01492F6B2D0E94DE4CA9
:1055F00000E0292D4AEC57E16F2D8C2D0E94CD1330
:10560000A39481E4C80EE2E0AE1261CF1F5FF0E127
:10561000FF0E143029F40FC059E0F52E10E0D12C04
:10562000133021F048E0B42EBF0C02C039E3B32E92
:10563000C12CA12C4CCFD11005C083E2781282E29C
:105640000E942E45E12C0FEF28E040E868E380E05F
:105650000E94E04621C2813009F008C183E0C82ED3
:10566000D12CE5E0EA839BEFF92E26E0B22EF6017D
:10567000EE0FFF1FEB59F84F80811FE0A12EA822EB
:10568000982F92959F70818183708295807F892B5E
:10569000F601EE0FFF1FEA59F84F3080369436942A
:1056A000AA2009F4CEC0982E990C990C980E3F9C14
:1056B000302C11243A94931408F0C3C01A811A5F55
:1056C0001C9D602C11246A81660F6F5F660D00E0DF
:1056D0002A2D4AEC57E180E00E94CD132A812E5FEB
:1056E000612FC19E600D1124E12C0FEF45E689E189
:1056F0000E941B478A2D8D5D0E94A8152C01F1E0A8
:10570000AF16F1F084E08A1570F04A2D50E0435056
:105710005109B49EF001B59EF00D1124E65AF84FE0
:10572000008110E00FC0E6E0EA1550F4EA2DF0E049
:10573000E95DFD4F60818A2D0E94F63E8C0102C01A
:1057400000E010E0692D8A2D0E94F63E4C01632D89
:105750008A2D0E94F63E1C0101151105A9F0D80101
:10576000A819B90924E630E00E94F97B91012819B3
:105770003909442737FD4095542F0E94797CA22E89
:10578000F4E6F21708F001C0A12CD201A819B9095A
:1057900024E630E00E94F97B910128193909442759
:1057A00037FD4095542F0E94797C490137FD04C094
:1057B0002436310524F406C0812C912C03C0A4E6C4
:1057C0008A2E912C482D4016510614F405E501C08F
:1057D0000FEFEA816E0EF7E03F2E360CE12C2E2FF4
:1057E000632D8AE10E94E04602E310E04A2C512C2E
:1057F000FAE14F0E511C8AE1880E911C802F401651
:1058000051061CF08016910624F44A81632D0E94F3
:10581000CB47075E1F4F0D37110581F7AA20A1F076
:10582000162D1C5F4A814D5F25E5612F8A2D865E0E
:105830000E94BF0E43E0612F8A2D875E0E94F848C8
:1058400003C0EA81EE5FEA83F1E0CF1AD10808F0E5
:105850000ECFEA81ED3009F08BCEF3E27F1202C069
:1058600083E201C082E20E942E4582CE823009F09E
:105870008BC068E5C62E67E0D62E7AE2872E72E0EE
:10588000972EF12C10E1F6018081882309F441C0A4
:105890008F2D0E947C40882311F092E001C090E09F
:1058A0002F2D2F5F00E84BE458E1612F80E09983B2
:1058B0000E94FB4ABF2CB394B3949981092F0468CA
:1058C000F4013297208130E04B2D612F82E10E945C
:1058D000DE4C58EFA52EA10E4CE36A2D87E40E9402
:1058E0006C10F4013197208100E430E04B2D6A2DDB
:1058F00086E60E94DE4C4EE3612F88E40E946C1025
:10590000F401208130E04B2D612F86E60E94DE4CB1
:10591000185EF394F6E0CF0ED11C83E0880E911C44
:10592000E2E0FE12B0CF80916B0D82958F7009F48A
:105930001FCE41E3A42E4DE0B42EC12CD12C18E093
:1059400016C0F5019081981710F020E301C021E303
:10595000F50141915F0150E0440F551F04E0612FB4
:105960008EE70E94FF48185FFFEFCF1ADF0A809191
:105970006B0D82958F7090E0C816D9060CF07AC036
:10598000183309F072C076C0833009F085C0809169
:1059900064078770813041F56AEC70E189E00E940C
:1059A000C4132091530D3091540D4091430D5091EB
:1059B000440D6091630D89E00E94194C64ED70E123
:1059C00082E10E94C4132091510D3091520D4091FB
:1059D000410D5091420D6091610D82E10E94194C80
:1059E0000E94504A1BE101C019E06EED70E1812F69
:1059F0000E94C41341E250E1612F8CE30E94CA135C
:105A00004091270202E020E950E0612F8091590186
:105A10000E94FF4845E250E1612F80E60E94CA13D0
:105A20004091250220E950E0612F809159010E94A8
:105A3000FF4832C024E049E150E168E286E10F907E
:105A40000F90DF91CF911F910F91FF90EF90DF901A
:105A5000CF90BF90AF909F908F907F906F905F900E
:105A60004F903F902F900C94BD1380913402811180
:105A700068CF6BCF4FE268E08AE60E94CB4778CDD3
:105A800082E0891508F09BCD04E4A6CDE2E0E9159B
:105A900008F090CD00E4A0CD0F900F90DF91CF9152
:105AA0001F910F91FF90EF90DF90CF90BF90AF903C
:105AB0009F908F907F906F905F904F903F902F902E
:105AC00008950F931F93CF93DF93C82F22E049E4EB
:105AD00050E160E080E00E94BD13C13658F0C3364B
