:100000000C94AB0D0C94DC0D0C94DC0D0C94BE4CDC
:100010000C94A84C0C94DC0D0C94924C0C947C4CDD
:100020000C94DC0D0C94DC0D0C94DC0D0C94DC0DAC
:100030000C94DC0D0C94FA490C94DC0D0C947C4D62
:100040000C94DC0D0C94014C0C94DC0D0C94DC0D28
:100050000C94DC0D0C94DC0D0C94DC0D0C94DC0D7C
:100060000C94DC0D0C948D4B0C94D44C0C94DC0D46
:100070000C94DC0D0C94DC0D0C94C84B0C94FC4CD3
:100080000C94DC0D0C94DC0D0C94DC0D0C94DC0D4C
:100090000C94DC0D0C94DC0D0C94DC0D0C94DC0D3C
:1000A0000C94DC0D0C94DC0D0C94DC0D0C94DC0D2C
:1000B0000C94DC0D0C94DC0D0C94DC0D0C94DC0D1C
:1000C0000C94DC0D0C94DC0D0C94DC0D0C94DC0D0C
:1000D0000C94DC0D0C94DC0D0C94DC0D0C94DC0DFC
:1000E0000C94DC0D7D3E803E923E9A3EA03EA63EA4
:1000F000AA3EA63EAF3EB43EB83EBD3ECE3ED33E47
:10010000D83EDE3EE43EE73EEA3EF03EF53EFB3EB4
:10011000003F063F183F2B3F3C3F483F5A3F6C3F54
:10012000723F8A3F8E3F5008000000000000000030
:100130006F000007000700147F147F14242A7F2A11
:10014000122313086462364955225000050300004B
:10015000001C2241000041221C0014083E08140823
:10016000083E080800503000000808080808006031
:100170006000002010080402003E41413E000042A1
:100180007F40006251494600414949360018141227
:100190007F0027454539003E494932000179050372
:1001A0000036494936000649291E0000363600004F
:1001B000005636000008142241141414141441226D
:1001C000140800020151090606090906007E090902
:1001D000097E7F494949363E414141227F414122C2
:1001E0001C7F494949417F090909013E4149497A32
:1001F0007F0808087F00417F41002040413F017F88
:10020000081422417F404040407F020C027F7F045F
:1002100008107F3E4141413E7F090909063E415198
:10022000215E7F09192946264949493201017F018A
:10023000013F4040403F1F2040201F3F4030403F93
:1002400063140814630708700807615149454300A7
:100250007F41410002040810200041417F00040258
:100260000102044040404040000102040020545478
:1002700054787F48444438384444442038444448FF
:100280007F3854545418087E0901020C5252523ED1
:100290007F0804047800447D40002040443D007FF6
:1002A0001028440000417F40007C041804787C083A
:1002B00004047838444444387C1414140808141492
:1002C000187C7C080404084854545420043F4440DB
:1002D000203C4040207C1C2040201C3C4020403CD6
:1002E00044281028440C5050503C4464544C440062
:1002F0000836410000007F00000041360800080871
:10030000221C08081C2208082054565478205654F1
:10031000567838464446387C1313127C7C131213EB
:100320007C3C4342433CA060000000000000000011
:10033000000000000000FEFE0000000000003E7E05
:1003400000007E3E00006060FEFE6060FEFE6060B9
:1003500060F09898FEFE989818180C1E1E0C80C02D
:10036000E070381878FC8EC6E6763C180000000075
:1003700066763E1E000000000000E0F0381C0E060D
:1003800000000000060E1C38F0E000006060C08035
:10039000F8F880C0606080808080F8F8808080807D
:1003A000000000000000000000008080808080804D
:1003B000808080800000000000000000000000003D
:1003C000000080C0E070381800000000000000004D
:1003D000000000000000717100000000000000003B
:1003E00000000000000006067F7F06067F7F0606ED
:1003F000181819197F7F19190F06181C0E07030109
:10040000307878301E3F716367663C3C666600005A
:1004100000000000000000000000070F1C387060A2
:10042000000000006070381C0F0700000606030182
:100430001F1F01030606010101011F1F0101010128
:10044000000066763E1E000000000101010101016E
:100450000101010100003078783000000000181C14
:100460000E070301000000000000F8FC0E06060E57
:10047000FCF80000181CFEFE000000000000181C24
:100480000E0686CEFC7800000606868686CEFC78B0
:10049000000080C0E070381CFEFE00007E7E6666B4
:1004A00066E6C6860000F8FC8E86868E1C18000064
:1004B000060686C6E6763E1E000078FCCE8686CE10
:1004C000FC78000078FCCE8686CEFCF80000307800
:1004D0007830000000000000307878300000000024
:1004E000000080C0E070381C0E06606060606060D4
:1004F00060606060060E1C3870E0C0800000181C50
:100500000E06060686CEFC7800001F3F7060607005
:100510003F1F000060607F7F606000000000787C0B
:100520006E676361606000006060616161733F1EBF
:1005300000000707060606067F7F00001838706077
:1005400060703F1F00001F3F716161733F1E00001C
:1005500000007F7F0000000000001E3F7361617398
:100560003F1E000000006171391D0F0700000C1EC6
:100570001E0C00000000000066763E1E0000000019
:1005800000000103070E1C3870600606060606060A
:10059000060606066070381C0E0703010000000006
:1005A000000066670301000078FCCE8686CEFC78EA
:1005B0000000E0F0B89C8E8E9CB8F0E0FEFE8686CF
:1005C000868686CEFC78F8FC0E060606060E1C18FB
:1005D000FEFE0606060E1C38F0E0FEFE86868686C7
:1005E00086860606FEFE8686868686860606F8FCD3
:1005F0000E068686868E9C98FEFE80808080808097
:10060000FEFE00000606FEFE0606000000000000DA
:100610000606FEFE0606FEFE80C0E070381C0E06D2
:10062000FEFE0000000000000000FEFE1C38F0F09E
:10063000381CFEFEFEFE70E0C0800000FEFEF8FCEE
:100640000E060606060EFCF800000101010100007E
:1006500000007F7F0101010101017F7F7F7F6161D8
:10066000616161733F1E1F3F706060606070381889
:100670007F7F60606070381C0F077F7F6161616100
:10068000616160607F7F01010101010100001F3F86
:100690007060616161717F3F7F7F01010101010134
:1006A0007F7F000060607F7F6060000018387060AE
:1006B00060703F1F00007F7F0103070E1C387060D1
:1006C0007F7F60606060606060607F7F000001012C
:1006D00000007F7F7F7F00000103070E7F7F1F3FA9
:1006E0007060606060703F1FFEFE8686868686CEE4
:1006F000FC78F8FC0E060606060EFCF8FEFE868662
:10070000868686CEFC7878FCCE868686868E1C18F9
:1007100006060606FEFE06060606FEFE00000000B1
:100720000000FEFEFEFE000000000000FEFEFEFED9
:10073000000000000000FEFE1E3E70E0C0C0E07041
:100740003E1E7EFEC080000080C0FE7E06060606BD
:1007500086C6E6763E1E0000FEFE06060606000081
:10076000183870E0C0800000000000000606060691
:10077000FEFE00006070381C0E0E1C387060000019
:1007800000000000000000007F7F01010101010165
:1007900000001F3F7060666E3C387F677F7F0101FD
:1007A000070F1D39706018387161616161733F1EF8
:1007B000000000007F7F000000001F3F706060604D
:1007C00060703F1F070F1C387070381C0F071F3FE9
:1007D00070703E3E70703F1F787C0E070303070E5B
:1007E0007C78000001037F7F03010000787C6E6746
:1007F00063616060606000007F7F60606060000037
:10080000000000000103070E1C180000606060601B
:100810007F7F00000000000000000000000060601A
:1008200060606060606060600000060E1C38706090
:10083000000000006060606060E0C080FEFE80C07C
:10084000E06060E0C08080C0E060606060600000E8
:1008500080C0E06060E0C080FEFE80C0E06060605C
:1008600060E0C0808080F8FC8E86060E1C18E0F0E8
:10087000381818181818F8F8FEFE80C0E06060E01C
:10088000C08000006060E6E600000000000000009C
:100890006060E6E60000FEFE000080C0E060000050
:1008A00000000606FEFE00000000E0E060E0C0C0C0
:1008B000E0E0C080E0E080C0E06060E0C08080C038
:1008C000E060606060E0C0800000000000000000A8
:1008D0000000183C7E66666666667F7F7F7F61618A
:1008E000606060703F1F1F3F70606060607038180C
:1008F0001F3F7060606061617F7F1F3F7666666644
:100900006666070701017F7F010100000000010307
:100910006766666666763F1F7F7F01010000000004
:100920007F7F000060607F7F60600000183870602B
:1009300060703F1F00007F7F060F1F39706000004E
:10094000000060607F7F606000007F7F000007071D
:1009500000007F7F7F7F0101000000007F7F1F3F3D
:100960007060606060703F1FE0E06060606060E049
:10097000C08080C0E0606060C080E0E0E0E080C0F7
:10098000E06060E0C08080C0E060606060600000A7
:100990006060FEFE606000000000E0E0000000001B
:1009A0000000E0E0E0E0000000000000E0E0E0E047
:1009B000000000000000E0E060E0C080000080C0B7
:1009C000E060E0E0000000000000E0E060606060E7
:1009D0006060E0E0E060000080C0787C0E0600000F
:1009E00000000000FEFE000000000000060E7C7803
:1009F000C0800000808080801838F0E0C08080C017
:100A0000E0F03818808080807F7F060606060607A3
:100A1000030101030706060607077F7F7F7F0101A9
:100A2000000000000101616367666666667E3C182F
:100A300000001F3F7060607038181F3F706060706A
:100A400038187F7F070F1C387070381C0F071F3F46
:100A50007070383870703F1F6070391F0F0F1F396A
:100A6000706001036766666666763F1F6070787C1B
:100A70006E6763616060000001031E3E70600000ED
:100A8000000000007F7F00000000000060703E1E3C
:100A90000301000001010101181C0F0703010103FC
:100AA000070F1C1801010101000060606E6A6EE012
:100AB000C08000006C6C60606CECC08080C0EC6C2E
:100AC00060606CECC080E0F0B89E9A9A9EB8F0E04E
:100AD000E0F6BA9C8E8E9CBAF6E0E0F6361818184E
:100AE0001836F6E0000000000000000000000000E2
:100AF00000000000000000000000000000000000F6
:100B000000000000000000000000000000000000E5
:100B100000000000000000000000000000000000D5
:100B200000000000000000000000000000000000C5
:100B300000000000000000000000000000000000B5
:100B40000000000000000000183C7E6666666666D5
:100B50007F7F183C7E66666666667F7F1F3F70609B
:100B6000606060703F1F7F7F0101010101017F7F95
:100B70007F7F0101010101017F7F1F3F7060606085
:100B800060703F1F00000000000000000000000037
:100B90000000000000000000000000000000000055
:100BA0000000000000000000000000000000000045
:100BB0000000000000000000000000000000000035
:100BC0000000000000000000000000000000000025
:100BD0000000000000000000000000000000000015
:100BE00000000000000000004578706F2073616B0A
:100BF0006E617321004D697865722073616B6E615F
:100C000073210003010200040506075F2D2E2C004E
:100C10001B1E272D36394B4E636C7278878D939C43
:100C2000B1B4C6C9D2D8E1E45350530080400000AB
:100C300000000000000000000000000000000000B4
:100C400000000000000000000000000000000000A4
:100C50000000000000000000000000000000000094
:100C60000000000000000000000000000000000084
:100C70000000000000000000000000000000000074
:100C80000000000000000000000000000000000064
:100C90000000000000000000000000000000000054
:100CA0000000000000000000000000000000FCFC4C
:100CB000FCFCFCFCFCFCFCFCFCFCFCFCFCFCFCFC74
:100CC000FCFCFCFCFCFCFCFCFCFCFCFCFCFCFCFC64
:100CD000FCFCFCFCFCFCFCFCFCFCFCFCFCFCFCFC54
:100CE000FCFCFCFCFCFCFCFCFCFCFCFCFCFCFCFC44
:100CF000FCFCFCFCFCFCFCFCFCFCFCFCFCFCFCFC34
:100D0000FCFCFCFCFCFCFCFCFCFCFCFCFCFCFCFC23
:100D1000FCFCFCFCFCFCFCFCFCFCFCFCFCFCFCFC13
:100D2000FCFCFCFCFCFCFCFCFCFCFCFCFCFCFFFFFD
:100D3000FFFFFFFFFFFFFF7F7F3F3F3F3F3F3F7FC3
:100D40007FFFFFFFFFFFFFFFFF3F3F3F3F3FFF7F73
:100D50007F3F3F3F3F7FFFFFFFFFFFFFFFFFFF7F23
:100D60007F3F3F3F3F3F3F7F7FFFFFFFFFFFFFFF93
:100D7000FFFF3F3F3F3F3FFF7F3F3F3F3F3F7FFF03
:100D8000FFFFFF7F0F07030181E0F0F0F0E00001BB
:100D900001071FFFFFFFFFFFBF3F3F3F3F7FFFFFF9
:100DA000FFFFFF7F3F3F3F3F3FBFFFFFFFFFFFFFD3
:100DB000FFFF3F07030100C0F0F8FCFCFCFCF8005B
:100DC00000000103FFFFFF3F0100000080E0F8FC8E
:100DD000FCFCF80000000001FFFF3F0703010000DA
:100DE00010181C1C1C1C180000000103FFFFFFFF53
:100DF0001F00000000C0F8FCFCFC1000000000C058
:100E0000FFFFFFE0800000000F1F1F1F0F03000007
:100E10000000E0FFFFFFFFFFFFFEF8E0000001071A
:100E2000070180E0F0F8FCFEFFFFFFFFFFFFFFFF80
:100E3000FFFFE0C08000000F1F1F1F1F0F07018072
:100E4000C0E0F0FEFFFF0700000000C00F1F1F1FE3
:100E50000F07010080E0F0FEFFFFE0C08000000E01
:100E60000E1E1E1E1E1E1E1E0ECEFEFEFFFF7F034A
:100E700000000080FCFFFFFF3F0300000080FCFF3C
:100E8000FF1F0F0F1F1F1E1E1E0E0E0781C0E0F05A
:100E9000FCFFFFFFFF7F3F1F0F030180E0F0F8E042
:100EA000800001071F7FFFFFFFFFFFFFFFFFFFFF26
:100EB000FFFFFFFFFFFFFFFEFEFEFEFEFEFFFFFF48
:100EC000FFFFFFFF1F00000000C0FEFFFFFEFEFE51
:100ED000FEFEFFFFFFFFFFFFFFFFFFFFFFFFFFFE25
:100EE000FEFEFEFEFEFEFEFFFFFFFFFFFFFFFEFE1B
:100EF000FEFEFEFFFFFFFFFFFEFEFEFEFEFFFFFF0A
:100F0000FFFFFFFEFEFEFEFEFEFEFFFFFFFFFFFFF8
:100F1000FFFFFFFFFEFEFEFEFEFEFFFFFFFFFFFFE7
:100F2000FFFEFEFEFEFEFFFFFFFFFFFFFFFF1F1F96
:100F30001F1F1F1F1F1F1F1F1F1F1F1F1F1F1F1FC1
:100F40001F1F1F1F1F1F1F1F1F1F1F1F1F1F1F1FB1
:100F50001F1F1F1F1F1F1F1F1F1F1F1F1F1F1F1FA1
:100F60001F1F1F1F1F1F1F1F1F1F1F1F1F1F1F1F91
:100F70001F1F1F1F1F1F1F1F1F1F1F1F1F1F1F1F81
:100F80001F1F1F1F1F1F1F1F1F1F1F1F1F1F1F1F71
:100F90001F1F1F1F1F1F1F1F1F1F1F1F1F1F1F1F61
:100FA0001F1F1F1F1F1F1F1F1F1F1F1F1F1F00008F
:100FB0000000000000000000000000000000000031
:100FC0000000000000000000000000000000000021
:100FD0000000000000000000000000000000000011
:100FE0000000000000000000000000000000000001
:100FF00000000000000000000000000000000000F1
:1010000000000000000000000000000000000000E0
:1010100000000000000000000000000000000000D0
:10102000000000000000000000000000000053501D
:10103000450063004646004D4F44454C4C0050501F
:101040004D004B4E00544D52005B4D454E555D04D6
:101050005B455849545D0045584954001208000842
:101060001C0808081C08000008220049002208008B
:1010700000000000227F2200000008220049002218
:1010800008000008220049002208000000227F22F8
:101090000000000000082200490022080000081C8F
:1010A0000808081C08004D49584552002F313400EB
:1010B0002F3332004B5552564F52004B5500564578
:1010C0005253494F4E00564552533A2056322E3015
:1010D000302D4657002053564E3A206F70656E39BA
:1010E000782D7233333200444154453A2032303146
:1010F000322D30332D30360054494D453A203233AD
:101100003A31313A313000454550524F4D2076004A
:10111000444941474E4F53005472696D2D202B00B6
:10112000414E410041004247004B414C494252452B
:1011300052494E47005B4D454E555D205354415238
:10114000544152002043454E545245524120005BC9
:101150004D454E555D204156534C55544152005219
:101160008552205350414B41522F524154544152C9
:10117000004E4F204441544100486A643A08447389
:10118000743A005440313A075440323A00524D50BC
:101190003A0654616E6B3A004163633A004C6174E5
:1011A0003A004C6F6E3A004672743A084D61783AD4
:1011B000005354415453495354494B00544D310D3D
:1011C000544D32005448520D54482500544F540099
:1011D0009446964D887076717A7176520536EE5344
:1011E00047762E77014603415620508320032D2D4C
:1011F0002D494E560434434820364B4E20384B4E32
:101200002031304B4E31324B4E31344B4E31364B18
:101210004E06547973742020416C61726D20456ACA
:10122000204B6E70416C6C61202006784B6F72749D
:10123000204B6F727420204E6F726D616C4C806E0B
:10124000672020784C806E67200453494E474F53E7
:101250004D5046494C54044E65642041562020555B
:1012600070702003204156202B3D203A3D036B6EC9
:10127000316B6E326B6E336B6E34064578702020A6
:10128000207846696E202046696E2020204D6564D6
:1012900069756D47726F7620200152455441313295
:1012A000330550504D2020505858202044534D3283
:1012B0002050504D313603504F534E4547032D2D8E
:1012C0002D783E30783C307C787C663E30663C3011
:1012D0007C667C0545444954205052534554412E68
:1012E0005448520656696B7420204578706F202050
:1012F0004B757276612046617320202042727974AA
:1013000061724E8172202020202020202020084160
:1013100064646572612020468272737481726B45C9
:1013200072738174742020022B3D2A3D3A3D065091
:1013300083202020204156202020204F66667365A0
:1013400074072D2D2D2D002020763E6F66732020F2
:10135000763C6F667320202876293E6F6673287668
:10136000293C6F6673414E44202020204F5220209C
:10137000202020584F522020202076313D3D7632CB
:10138000207631213D76322076313E76322020762D
:10139000313C7632202076313E3D76322076313C2B
:1013A0003D7632200D53816B657268657420002094
:1013B0002020547261696E6572200020202020492F
:1013C0006E7374616E74205472696D205370656C15
:1013D00061204C6A7564002020065661726E3120CF
:1013E0005661726E322046807220202052696E67EC
:1013F0002020536369466920526F626F74205069E0
:101400007020202054616461202053797273612020
:10141000536972656E20416C61726D205261746116
:1014200074615469636B2020566962723120566979
:1014300062723220566962723320042D2D2D0041D4
:101440003100204132002048854A445641525654CA
:10145000414E4B54310020543200204641525442F8
:10146000415454037600204100202D00206B7473FA
:101470006B6D684D2F686D00204000202500032D06
:101480002D2D47756C4F7261528264013C3E042DD4
:101490002D2D20487562205753484804414431207F
:1014A0004144322048854A445641525654414E4B9D
:1014B0005440312054403220464152544241545409
:1014C0000C456E6B656C20346B616E616C476173AB
:1014D0006B6C6970706E696E67562D53746A817299
:1014E000742020202044656C746176696E676520E5
:1014F00020654343504D2020202020202048656C4B
:10150000696B6F707465722020536572766F7465B5
:10151000737420202005204D454E552045584954D0
:1015200020204E6564202055707048826765725691
:10153000816E73740347415353494448854A494473
:1015400030494431494432534B454C414E54524E3C
:101550004252314252324252334252344252354266
:101560005236425237425238425239425241425226
:1015700042425243045349442048854A204741533C
:1015800020534B4520503120205032202050332012
:10159000204D41582046554C4C43594B3143594BF3
:1015A0003243594B330341562041425354487354FC
:1015B0004825544874035245315245320544414749
:1015C0003A205449443A20007C6383679344BB36F5
:1015D000F036C137813801020408102040804D4F99
:1015E00044454C4C00524144455241204D4F4445E6
:1015F0004C4C004B6F706965726172204D6F646571
:101600006C6C00466C7974746172204D6F64656C0B
:101610006C004C6164646172204D6F64656C6C0099
:101620004C6564696774004D414C4C4152004E4F0B
:101630004C4C41204D49584152205B4D454E555D23
:1016400000000202020200545241494E4552202835
:1016500050504D20494E2900536C617600656666F6
:10166000656B742025206B816C6C610046827273FF
:101670007481726B6E2E0043616C00425200507296
:101680006F746F6B6F6C6C00002902020000000029
:10169000000602014B4F4E462E004E616D6E005407
:1016A000696D6572004772816E7365722B2B0054F1
:1016B00072696D6D61722B2B005472696D826B6E55
:1016C0002E0046826C6A2047617300476173547232
:1016D000696D0043656E74657270697000750050C5
:1016E000504D206672616D65006D7300250003002A
:1016F000464C5947464153005472696D6D61720002
:10170000546F6E6120496E00546F6E6120557400F5
:10171000000303030303030303030303030303039C
:10172000034752844E534552004D696E696E697687
:1017300080004D6178696E697680000002535045E3
:10174000432E4252595441524500204F4253004BC0
:10175000555256410046454C2049204D454E5500B6
:1017600046656C206920454570726F6D0054727932
:10177000636B206E656420656E206B6E6170700017
:10178000444542554700746D72314C6174206D615F
:101790007804757300746D72314C6174206D696EDC
:1017A00004757300746D7231204A69747465720433
:1017B000757300746D61696E206D6178066D7300DC
:1017C0004672656520537461636B206D696E0462B7
:1017D000005B4D454E555D204E4F4C4C41522020F4
:1017E00000010203040103020404020301040302D2
:1017F00001454570726F6D204461746166656C20AF
:1018000000466F726D617465726172204545707239
:101810006F6D004D454444454C414E44450045459F
:1018200050524F4D206C6F77206D656D00416C619B
:10183000726D656E2041767374816E6764612100FC
:101840009C1432465A5A4632465AECEC003C649C90
:10185000C4003C649C00000064476173656E2065B1
:101860006A2061767374816E67642100536C8020F6
:10187000617620676173656E00547279636B206EC8
:10188000656420656E206B6E6170700042727974C1
:10189000617265205080736C61676E6121005374C2
:1018A000816E672061762064656D004D6F64000075
:1018B0000000000000000000000000000000000028
:1018C00000000000FF01494E5354844C4C4E494ED9
:1018D0004741520048826774616C617265206C8177
:1018E00067650048826774616C6172652074696421
:1018F0000048826774616C61726520746F6E004B82
:101900006F6E74726173740042617474657269768B
:1019100061726E696E6700496E616B746976697495
:101920006574736C61726D004144432D66696C741B
:10193000657200496E7665727465726164204761F4
:1019400073004D696E7574706970004E65647281C4
:101950006B6E696E6773706970005069702076698C
:101960006420626C696E6B004C6A75736272797484
:10197000617265004C6A75732061762065667465D6
:10198000720042696C6420766964207374617274B9
:10199000004761737661726E696E67004272797496
:1019A00061727661726E696E67004D696E6E657305
:1019B0007661726E696E6700416C61726D766172FC
:1019C0006E696E67004E4F2044415441205661724B
:1019D0006E696E67004B616E616C6F72646E696EEA
:1019E00067205258000002444147204F434820548A
:1019F00049440042727974617265004F666673658E
:101A0000740044522F4558504F0044522D76696B54
:101A1000740044522D6578706F0041444445524132
:101A2000204D49580045444954455241204D49589C
:101A3000004B816C6C610056696B74004D69786570
:101A4000722D76696B7400446966666572656E74A2
:101A500069616C004D697865722D6F666673657497
:101A6000005472696D004B7572766F7200466C7926
:101A700067666173005661726E696E670041562039
:101A8000004D756C747078004682726472826A6E62
:101A90002E204E6564004682726472826A6E2E2029
:101AA0005570700054728267686574204E656400DA
:101AB000547282676865742055707000464C5947AF
:101AC0004641534552005374616E64617264004B29
:101AD0006F6C6C61055472696D6D61720054783A77
:101AE0000052783A00000246554E4B2E425259544D
:101AF0004152450000FF01000202FF01000202FF07
:101B00000101FF0000FF0202020254454C454D4511
:101B10005452490041026B616E616C2020004F6D90
:101B20007280646500416C61726D005253534900CC
:101B3000416E76816E6461726461746100426C61B1
:101B40006400537461706C617220736F6D207669EC
:101B500073617300B18511241FBECFEFD1E2DEBFE8
:101B6000CDBF00E00CBF12E0A0E0B2E0E0E5FDE098
:101B700001E00BBF02C007900D92AE34B107D9F758
:101B80001FE0AEE4B2E001C01D92A93AB107E1F74F
:101B90001BE1C6E5DBE100E006C022970109FE017A
:101BA0000BBF0E947086C435D10780E00807A9F7F3
:101BB0000E94627C0C94A6860C940000FC0180813B
:101BC00041FF02C0682B06C042FF03C06095682336
:101BD00001C0682760830895E1E7F0E08081817F9C
:101BE00080836F98779AA1E9B0E01C9210929000E0
:101BF00082E88C9380818062808308954F925F9207
:101C00006F927F928F929F92AF92BF92CF92DF920C
:101C1000EF92FF920F931F93CF93DF9300D01F9209
:101C2000CDB7DEB78C01A0E0B0E089839A83AB83A7
:101C3000BC832B01612C712C24E6822E912CA12CCB
:101C4000B12CA50194012419350946095709BC0195
:101C5000CD010E94E8856B017C0192E3C90ED11C85
:101C6000E11CF11C9801D8010E94C2859B01AC01C6
:101C700069817A818B819C810E94E8859C0144273F
:101C80005527C301B2010E94E88544E096958795E7
:101C9000779567954A95D1F7C60ED71EE81EF91EAF
:101CA000C701B601A50194010E942C86C9010F90BD
:101CB0000F900F900F90DF91CF911F910F91FF9098
:101CC000EF90DF90CF90BF90AF909F908F907F90DC
:101CD0006F905F904F9008951F9341E0262F30E062
:101CE000683050F440E055E0529FF001539FF00DF2
:101CF0001124EA5BF24F0AC02850310959E0529F83
:101D0000F001539FF00D1124E259F24F9C5F97FDB3
:101D10000DC0811528E0920784F0442319F088E073
:101D200090E002C084E090E0E80FF91F20813327A3
:101D300027FD3095322F222725C0442329F0492F33
:101D40009927880F991F03C0492F46959170242F1A
:101D500030E0E20FF31F608140E052E0481B590B76
:101D60005595479564039001659F300D11241181AD
:101D7000BC01759567951603A001179F500D11249E
:101D8000240F351FC90169E170E00E941886CB015C
:101D90001F9108956091770F0C946C0E83B183B1FD
:101DA00083B183B10895E0E5F2E020E0822F806402
:101DB00080937C0080917A00806480937A00809187
:101DC0007A0084FFFCCF80917A00806180937A0052
:101DD0008091780090917900880F991F8193919359
:101DE0002F5F283019F70895E0E5F2E040E0842FF6
:101DF000806480937C0054E080E090E020917A0041
:101E0000206420937A0020917A0024FFFCCF209157
:101E10007A00206120937A00209178003091790037
:101E2000820F931F515051F7969587958193919307
:101E30004F5F4830E1F60895A0E5B2E0E0E6F2E059
:101E400040E0842F806480937C0080917A008064DD
:101E500080937A00208931898D919C911197969574
:101E60008795820F931F8E7F11969C938E9380810E
:101E70009181820F931F96958795918B808B80918E
:101E80007A0084FFFCCF80917A00806180937A0091
:101E9000809178009091790020813181820F931F89
:101EA00096958795819391934F5F1296483049F6A6
:101EB000089541984398449882B9459A4598439A21
:101EC000419A089587FD59C047FF02C0640F4195AC
:101ED00067FF02C0460F60E0A42FBB27A7FDB095A7
:101EE000A60FB11D67FDBA95A134B10514F040E409
:101EF000461B253511F460FF2AEA362F35953595B6
:101F00003595E82FF0E050E83503E00DF11D112480
:101F1000EC57FD4F6770B9F0A1E0B0E0062E01C0AC
:101F2000AA0F0A94EAF7A195A2238081A827A0838B
:101F3000E058FF4F6850460F06C08081822780839B
:101F4000E058FF4F48501416C4F3842F992787FD9B
:101F50009095089668E070E00E941886882369F0E2
:101F6000E058F10941E050E001C0440F8A95EAF7DA
:101F70004195422380814827408308952FEF0C9498
:101F8000620FCF92DF92FF920F931F93CF93DF9355
:101F90001F92CDB7DEB7142F6034C8F587FF02C09B
:101FA000180F80E0C82EDD24C7FCD094F601E10FA5
:101FB000F11DE138F10514F010E8181B862F869505
:101FC0008695869590E8899FC00CD11C1124E4E881
:101FD000F2E0CE0EDF1E677081E090E0F82E01C0C7
:101FE000FF0C6A95EAF711C020FF0AC0402F6F2D41
:101FF000C60129830E94DE0D29812695206801C033
:1020000026951150FFEFCF1ADF0A1111EDCF0F9077
:10201000DF91CF911F910F91FF90DF90CF900895A6
:102020008F929F92AF92BF92CF92DF92EF92FF92E8
:102030000F931F93CF93DF93982EF62E842E102F9D
:10204000C0E0D0E0C62EDD24C7FCD0945601A20E1D
:10205000B11C0EC06C2F6F0D603430F40E2D212F8B
:10206000482D892D0E94C10F1F3F09F01095219620
:10207000FE01EC0DFD1DEA15FB0564F3DF91CF9128
:102080001F910F91FF90EF90DF90CF90BF90AF9096
:102090009F908F900895DF92EF92FF920F931F937E
:1020A000CF93DF93C82F162FD42FD22EF02EE0FE21
:1020B00017C08091410A86FF13C023C0CF5FD25062
:1020C000612F61506D0D00E02F2D4D2F8C2F0E9440
:1020D000C10F2F2D4D2F612F8C2F0E94C10F11C0CA
:1020E0002F2D4D2D612F8C2F0E94620F8C2F815030
:1020F0002F2D4D2D612F8D0F0E94620FE3FEDECF3D
:10210000DFCFDF91CF911F910F91FF90EF90DF9084
:102110000895262F26952695269590E030E8239F52
:10212000800D911D11248C579D4F26E08438920715
:1021300050F4262F277061E070E001C0660F2A95E9
:10214000EAF70C94DE0D0895CF92DF92EF92FF92A2
:102150000F931F93CF93DF937C012EEE40E460E05A
:102160008EE50E94620F00E02EEE40E460E28EE316
:102170000E94C10F7FE3D72EC0E2DCEFEFE3CE2E4B
:102180000FE310E0CE01F70119959C5F97FD0196D2
:102190009C0135952795C29EA001C39E500D112428
:1021A000452F552746954695B801641B750B42E0AF
:1021B0008D2D0E948910A096D394FEE7DF12E2CF06
:1021C000DF91CF911F910F91FF90EF90DF90CF9013
:1021D0000895CF92DF92EF92FF920F931F93CF93C8
:1021E000DF93362F36953695369590E010E8319F7F
:1021F000800D911D1124DC01AC57BD4F21FD08C09D
:1022000020FD02C0F12C06C03091410A36FFFACF02
:10221000FF24F39422FF51C0642F70E060527109D3
:10222000F4E076956795FA95E1F730EA369FC001BC
:10223000379F900D11243AE0439F800D911D11248A
:1022400088519E4F35E02870222319F0311103C0C8
:1022500097C0332391F0FC01C491E056FF4F749175
:10226000AC014F5F5F4FFA01D491FC01EF55FF4F76
:102270006491ED2FFC2FCA0104C060E070E0E0E043
:10228000F0E0FF2021F0F095E09570956095ED016C
:10229000CF57DF4F16E0C438D10750F4FC931196A6
:1022A000EC931197FD01E058FF4F708368831296FD
:1022B0000196315008F0C8CF63C023FF0DC0FF2046
:1022C00011F02FEF01C020E0FC01EC57FD4F2083FF
:1022D0001196EE24E39401C0E12C35E0439FA00168
:1022E000112448575F4F6770262F30E0EFEFF0E082
:1022F000CF01062E01C0880F0A94EAF7D82ED09499
:1023000088E090E0821B930B082E02C0F595E795BC
:102310000A94E2F7CE2EC09475E0772329F0FA01F3
:102320004F5F5F4FC49101C0C0E0F110C095EE2037
:1023300011F0743019F1E6E0A438BE07F8F4D0E0EB
:102340008E01022E01C0000F0A94EAF7FC91FD21D4
:10235000F00FFC93662389F0FD01E058FF4F16E073
:10236000E438F10750F4082E02C0D595C7950A94B9
:10237000E2F7D081DC21DC0FD0831196715068F632
:10238000DF91CF911F910F91FF90EF90DF90CF9051
:10239000089520E00C94E910DC016C9312961C92D5
:1023A0001E92119770E0FB01EE0FFF1FE60FF71F63
:1023B000E656F74F848113968C93139714961C92CC
:1023C0001092DB08089590E0FC01EE0FFF1FE80F6C
:1023D000F91FE656F74F81E09481911101C080E02A
:1023E0000895EF92FF920F931F93CF93DF93E62E02
:1023F000F82EC0E1D0E0082F10E08F2D992787FD3F
:102400009095EE2011F0419601C00F96BE010E94FA
:102410001886F82E8F5F0E94E311882349F02F2D34
:10242000332727FD30952017310739F7FF24FA9419
:102430008F2DDF91CF911F910F91FF90EF90089515
:10244000E5EFFAE09081982B9083089586E08093E1
:102450000F0A0895DB01FC0104C080819C919193D7
:102460008D934150D0F708951092480A1092470A70
:102470009091050A80914E02891B8093E009882380
:10248000A1F09091050A90934E0210924F02909104
:10249000E609191654F4992781950CF490959093B8
:1024A000480A8093470A1092E0090895CF92DF927C
:1024B000EF92FF920F931F93CF93DF9380919A0B2C
:1024C000877090910002981709F1809300020E9492
:1024D000EC0D1092810080E49CE990938900809338
:1024E0008800109285001092840080916F00837C98
:1024F00080936F008FE286BB80916F008061809334
:102500006F00109280008AE08093810080919B0B85
:1025100085FF03C060E075E002C060E074E0D09029
:102520009A0BD594D594D594D594DD0C28E0D20E91
:1025300080919C0B44E68402C0011124885A9D4F6F
:102540001091650E48EE53E014039001159F300D75
:10255000112428533045281B390BEAE0FBE0C12C3D
:10256000AAE0B8E000271127061B170BC8E5D2E048
:10257000C81BD90B1EC0419151914017510724F03F
:10258000461757071CF403C0A80101C0AB01405A0D
:10259000564F7C01E40EF51E2E193F094C0F5D1FAE
:1025A00011965C934E9313969C938E931297149668
:1025B000C394CD10E0CF44E0C49EF0011124E65F47
:1025C000F74F3183208393838283158214828AE0BC
:1025D00098E09093040280930302DF91CF911F91C2
:1025E0000F91FF90EF90DF90CF9008950E945612C8
:1025F0008FEF9FEF90938B0080938A0080E380930E
:102600008000EFE6F0E080818260808308952AEA0E
:102610003FE0F9012F5F3F4F80818535D1F39F0166
:10262000295A3F40C90108952091E7093091B2002D
:102630008091E7092813F8CF922F80E0AC01432B5B
:102640009A01C9010895CF92DF92EF92FF92CF9342
:10265000DF936B017C01C0E1D0E040E050E8E0E0B6
:10266000F0E89A01DA010E94C285C616D706E8068C
:10267000F90610F44E275F27F695E795219719F094
:102680004E2B5F2BEECFCA01DF91CF91FF90EF90E1
:10269000DF90CF90089590E0FC01EB59F54F108248
:1026A000FC01EE0FFF1FDF01A15AB54FE80FF91F24
:1026B000E657F44F238534852D933C93FC01ED5967
:1026C000F54F1082089580917A00806480937A009B
:1026D00080917A0084FFFCCF80917A0080618093A2
:1026E0007A0080917800909179009093090280930C
:1026F000080280917A00806480937A0080917A0049
:1027000084FFFCCF80917A00806180937A002091D1
:102710007800309179008091080290910902820F2F
:10272000931F909309028093080280917A0080643D
:1027300080937A0080917A0084FFFCCF80917A00A8
:10274000806180937A0020917800309179008091A7
:10275000080290910902820F931F909309028093BF
:10276000080280917A00806480937A0080917A00D8
:1027700084FFFCCF80917A00806180937A00809101
:102780007800909179002091080230910902820F1F
:10279000931F880F991F90930902809308028091DC
:1027A0007B00886080937B000895E82FF0E0ED5F68
:1027B000F34FE491F0E0EE0FFF1FE05BFD4F20814F
:1027C0003181C90108951F93CF93DF939C01611557
:1027D000710509F1132F111F1127111F19F03195E0
:1027E0002195310977FF0EC0719561957109C0E09F
:1027F000D4E0CE01821B930B0E94FE0D9E01281B8C
:10280000390B04C0C9010E94FE0D9C01112319F06F
:10281000319521953109C901DF91CF911F9108951B
:102820009C016330A1F034F4613051F064F466230C
:1028300091F120C06530A9F084F06630D9F416C05B
:1028400097FF29C010C0181619062CF50CC097FF69
:1028500022C03195219531091EC018161906B4F011
:1028600002C097FD16C020E030E015C0181619060A
:1028700084F40CC067FF06C031952195310986E0CC
:10288000861B682F6750C9010C946C0E20E034E061
:1028900002C020E03CEFC901089595E0899F9001B6
:1028A00011242254334FC901089599E0899F900162
:1028B00011242256344FC901089594E0899F900154
:1028C0001124225F324FC90108951F93CF93DF93E4
:1028D000182F882311F0CDE001C0CFE1D0E08C2F7C
:1028E000112331F00E945D14FC019081937005C0AA
:1028F0000E945514FC0196819F779111DF5FC150B2
:10290000C7FFEDCF8D2FDF91CF911F910895CF930A
:10291000C82F0E946514282F30E0C1110CC00FC0D1
:1029200088EE9BE002C085EF9BE09093E2098093E4
:10293000E10981E008C02E30310594F703C0203250
:1029400031058CF780E0CF9108959DE0899F90013B
:102950001124235F314FC9010895EF92FF920F9325
:102960001F93CF93DF93EA01E62EF12C8701000F2E
:10297000111FF801E456F94F0190F081E02D3097D6
:1029800079F043383FEF530724F04D37510524F4D5
:1029900005C0C3E8DFEF02C0CDE7D0E0C0831FC0B1
:1029A0000E94A514FC01EE0DFF1D9E013595279593
:1029B00035952795208323E030E0002E01C0220FBB
:1029C0000A94EAF72095FC0134812323C370DD27A4
:1029D00001C0CC0F0A95EAF72C0FFC01248382E09A
:1029E000DF91CF911F910F91FF90EF900C942012E7
:1029F0000F931F93CF93DF93062F10E0E801CC0FC6
:102A0000DD1FFE01E456F94F0190F081E02D309773
:102A100029F02081332727FD309517C00E94A51487
:102A2000FC01E00FF11F4081FC012481332727FDC9
:102A3000309502C035952795CA95E2F72370332764
:102A400084E04802200D311D1124C901DF91CF918E
:102A50001F910F9108951F93CF93DF93182FC62FC7
:102A6000D5E0CC2389F0612F8C2F0E94F814853F8C
:102A700021E092074CF0982F955F9C1708F09F5F1C
:102A8000D150C92F71F7C0E08C2FDF91CF911F91EA
:102A90000895882309F187FF06C0863E1CF0E0E612
:102AA000E81B1BC081958B311CF4E82FE05C15C03E
:102AB00085321CF4E82FEB5E10C0893244F4E82F15
:102AC000FF27E7FDF095EA51F44FE49106C08F32FD
:102AD0001CF4E82FE95A01C0E0E28E2F0895AF926E
:102AE000BF92DF92EF92FF920F931F93CF93DF93EA
:102AF0001F92CDB7DEB7182FE62E5A01F22E802F87
:102B000080738983A4E0DA2ED0222EC0E981E031DF
:102B100019F0E03249F403C0F501808107C0F501E6
:102B200080810E94491502C0F5018491811103C082
:102B30001093750F1CC01B37D8F7803260F0202F20
:102B4000482F6E2D812F0E94E910D11002C01A5F0C
:102B500007C0155F05C0982F990F980F990F190F8F
:102B6000FFEFAF1ABF0AFA94F110D0CFE1CF0F9068
:102B7000DF91CF911F910F91FF90EF90DF90BF9069
:102B8000AF9008950F93022F2FEF0E946F150F91B2
:102B90000895AB0120E0682F80E00C94C21520E07E
:102BA0000C94C215EF920F93B4E0EB2E0FEF28E2D6
:102BB0004CE660E18AE00E941010E12C28E24CE62D
:102BC00060E18AE00E944B104091E1095091E209D6
:102BD00068E180E10F91EF900C94CF150F9300E026
:102BE0000E946F150F9108950F93FA0194914F5F12
:102BF0005F4F929F400D511D1124292F0E946F1588
:102C00000F910895FF920F931F93CF93DF93D82FC7
:102C1000162FC42F022F411104C020E04DEE51E1C8
:102C20002EC080E4F82EF22226FD0AC0463111F4AF
:102C300021E003C04A3E21F420E046EE51E11FC0EE
:102C4000C7FF08C02EE548E0612F8D2F82500E94FB
:102C5000620FC195C6317CF0FF2011F085E101C003
:102C600086E1C81B07FD07C0202F4DE6612F8D2F81
:102C70008E5E0E94E9102C2F215044E355E1612F14
:102C80008D2F0E94F415DF91CF911F910F91FF902E
:102C900008950F931F93CF93DF93D82F162FC42F30
:102CA000022F47FF09C084E0841BC82F41E28D2F0B
:102CB00086500E94E91008C0453034F4242F45EABC
:102CC00055E10E94F4150CC0202F20644C2F445075
:102CD000612F8D2FDF91CF911F910F910C940216D0
:102CE000DF91CF911F910F9108950F934150022FC3
:102CF000242F49E952E10E94F4150F9108950F9392
:102D0000222311F002E001C000E0242F46EE51E141
:102D10000E94F4150F910895E091BB0EF0E0E05F82
:102D2000F34FE491F0E024E030E0281B3109220F5A
:102D3000331F02C0F595E7952A95E2F7E370FF2768
:102D40008E2F8F5F08959C0145E0359527954A9514
:102D5000E1F7280F391FAC01440F452F441F550BD5
:102D6000241B350B892F990F990B8595280F391F37
:102D7000C90108950F931F93CF93DF938C01C1E096
:102D8000D0E0CC0FDD1F5098499921960E94CE0EBD
:102D9000509A0E94CE0ECF3FD10599F390F3012BAC
:102DA00011F0519A01C051980E94CE0E50980E9485
:102DB000CE0E509A51980E94CE0E8C2FDF91CF915B
:102DC0001F910F910895EF92FF921F93CF93DF937E
:102DD0001F92CDB7DEB7F8E0EF2EF12C10E8912F5F
:102DE000982311F0519801C0519A89830E94CE0E08
:102DF00050980E94CE0E509A0E94CE0E169591E0E9
:102E0000E91AF1088981E114F10449F751980E9407
:102E1000CE0E509819B10E94CE0E509A0E94CE0E3E
:102E2000812F869591E08927817090E00F90DF9146
:102E3000CF911F91FF90EF900895519A0E94CE0E6E
:102E400050980E94CE0E51980C94CE0E51980E942C
:102E5000CE0E50980E94CE0E519A0E94CE0E509ADD
:102E60000C94CE0E2F923F924F925F926F927F9270
:102E70008F929F92AF92BF92CF92DF92EF92FF928A
:102E80000F931F93CF93DF93CDB7DEB728970FB67D
:102E9000F894DEBF0FBECDBF2B013C012B833C83DA
:102EA0004D835E83F50198868F824B015C0192E031
:102EB000B594A794979487949A95D1F725E2821AAE
:102EC0002EEF920AD301C20183709927AA27BB274C
:102ED00021E030E0892B8A2B8B2B11F020E030E0B1
:102EE000821A930A9F013595279535952795255286
:102EF0003E4FAF014370552781E090E0452B11F024
:102F000080E090E0A901481B590B5A83498329E1CD
:102F100030E0C401B9010E941886991F9927991FB2
:102F20001B01291A310889819A81B9010E941886EA
:102F3000991F9927991F5B01A91AB108AF0166274C
:102F400057FD6095762FD301C201841B950BA60B0C
:102F5000B70B9C01AD01ADE6B1E00E94D5852B8198
:102F60003C814D815E81620F731F841F951F4F81CD
:102F700058852A01662457FC6094762C64197509DB
:102F800086099709A981BA818A1A9B0A9501221993
:102F90003309820E931E9101359527953595279516
:102FA000B594A794B594A7942A193B09820E931E51
:102FB000AA2497FCA094BA2C680D791D8A1D9B1D2C
:102FC000A8E1B0E09B01AC010E94D5859B01AC015A
:102FD0002801662457FC6094762C240D351D461D6F
:102FE000571D4E8C5F8C662457FC6094762C2419F8
:102FF000350946095709ACE3B0E00E94D5859B012D
:10300000AC01C701AA2797FDA095BA2F280F391F39
:103010004A1F5B1F88A199A1AA2797FDA095BA2FE7
:10302000281B390B4A0B5B0BACE3B0E00E94D58543
:103030008B019C01EE24D7FCE094FE2C0C0D1D1D91
:103040002E1D3F1D8AA19BA1AA2797FDA095BA2FEF
:10305000081B190B2A0B3B0BB801C90128960FB6A8
:10306000F894DEBF0FBECDBFDF91CF911F910F91BE
:10307000FF90EF90DF90CF90BF90AF909F908F9098
:103080007F906F905F904F903F902F9008953F9268
:103090004F925F926F927F928F929F92AF92BF9268
:1030A000CF92DF92EF92FF920F931F93CF93DF9314
:1030B000CDB7DEB724013501ED89FE893097D1F116
:1030C00087809084A580BB24A7FCB0943080A32D7A
:1030D000BB27A7FDB095BF933F923180A32DBB279F
:1030E000A7FDB095BF933F92A281EA2FFF27E7FD8E
:1030F000F095FF93AF930E9432170F900F900F90AF
:103100000F900F900F9093018201060F171F281F39
:10311000391F41E004151505260537050CF440E07C
:10312000DC01CB018827B7FD83959927AA27BB2708
:10313000481328C077FE0EC082E04816510461048F
:1031400080E87806B4F4930182010F5F1F4F2F4F80
:103150003F4F18C08EEF48168FEF580668068FE76E
:10316000780664F0930182010150110921093109A7
:1031700009C000E010E020E030E804C00FEF1FEFCE
:103180002FEF3FE7B801C901DF91CF911F910F9158
:10319000FF90EF90DF90CF90BF90AF909F908F9077
:1031A0007F906F905F904F903F9008950F931F9383
:1031B0008B019C010370112722273327012B022B3F
:1031C000032BB1F424E630E040E050E00E944E864C
:1031D000672B682B692B11F081E00BC0DA01C90164
:1031E00083709927AA27BB270197A105B105A1F3F1
:1031F00080E090E01F910F9108950F93CF93C82F17
:10320000362F8091A107882339F0CC2329F09091A3
:10321000C00E965F9C0F01C090E090937D0F90913F
:10322000BF0E9295990F907E95959595959595954C
:10323000959597FF0BC0832F61E070E0691B7109C2
:1032400097FD739590E00E94188606C0632F99231E
:1032500019F0939F600D112460937F0F4093800FAE
:1032600010927E0F80917B0F80937C0F222331F090
:10327000215000E0632F8C2F0E94806FCF910F911F
:103280000895AF92BF92CF92DF92EF92FF920F9389
:103290001F93CF93DF93E12C0FEF27E147E161E22A
:1032A0008FE10E944B1027E147E161E28BE40E942D
:1032B0004B1043E06BE28AE20E94BE0F43E06CE2F7
:1032C00089E20E945C6943E06BE286E50E94BE0FE2
:1032D00043E06CE285E50E945C698091550A24E038
:1032E000829FC0011124FC01EE51F84EA491FC0113
:1032F000EF51F84EE491B0E0AA0FBB1FAB51B54FB0
:103300002D913C9182E1829FB001839F700D112429
:1033100077FF02C06150784F60E27602612D770B33
:103320001124719561957109665DF0E0EE0FFF1F44
:10333000EB51F54F2081318142E1429FC001439F13
:10334000900D112497FF02C08150984F80E298029F
:10335000812D990B1124C8E0EC2E0FEF25E045E0FC
:10336000885D0E944B108091550A90E0FC01EE0FA1
:10337000FF1FEE0FFF1FED51F84EA491FC01EE0F61
:10338000FF1FEE0FFF1FEC51F84EE491B0E0AA0FC3
:10339000BB1FAB51B54F8D919C9122E1289FB0018D
:1033A000299F700D112477FF02C06150784F60E2B1
:1033B0007602612D770B1124719561957109665D17
:1033C000F0E0EE0FFF1FEB51F54F2081318142E11C
:1033D000429FC001439F900D112497FF02C081506E
:1033E000984F80E29802812D990B112438E0E32E4A
:1033F0000FEF25E045E08C5A0E944B10CFEEDAE04B
:103400001AE3C12C48E0D42EE12CF12C57E3A52E71
:10341000A991B99126E130E00E94CE85785A8F4F6C
:103420009F4FA70196010E944E86B22EB3940A2D9B
:10343000021B4B2D602F812F0E94BE0F4B2D602F42
:10344000812F8F5F0E94BE0F4B2D602F812F8E5FCB
:103450000E94BE0F1B5F1934D9F6DF91CF911F91E7
:103460000F91FF90EF90DF90CF90BF90AF900895B5
:103470002F923F924F925F926F927F928F929F9284
:10348000AF92BF92CF92DF92EF92FF920F931F9372
:10349000CF93DF93282EF3E78F2EFEE09F2E00E0E0
:1034A00010E0312C44244394512CB2E3CB2ED12C88
:1034B000E12CF12C802F043068F49091550AF8012A
:1034C00024E0929FE00DF11D1124EF51F84E74900D
:1034D0007A9401C0702E0E94D5139C01D4018D9165
:1034E0009D914D01281B390BB901882777FD8095E7
:1034F000982FEAE0660F771F881F991FEA95D1F78A
:10350000121613062CF45A962D913C915B9703C02A
:10351000FD01248535852436310514F424E630E098
:10352000442737FD4095542F0E944E86E90121150E
:10353000FCEF3F072CF0C13024E0D20724F405C093
:10354000C0E0DCEF02C0C0E0D4E08091B80E80FFA4
:1035500006C032E0731203C0D195C195D109A72CE2
:10356000B12CF501EE0FFF1FE951F54FD183C08358
:10357000CE01D7FF04C0882799278C1B9D0B54E0F0
:10358000969587955A95E1F7823098F4811107C096
:10359000942D0A2C01C0990F0A94EAF709C0C201C0
:1035A0000A2C01C0880F0A94EAF79091A406982388
:1035B000392A83E0871508F451C08091B50681113E
:1035C00046C0872D8F5E90E04097D20102C0AA0FBF
:1035D000BB1F8A95E2F7CD0181602091510A30919D
:1035E000520A82239323892B09F099C030C0A72D5A
:1035F000AF73B0E0CD01880F991F8851964FAD0190
:10360000440F551F4C55514FDC012D913C91DA016F
:103610008D919C91281B390BA181BB27A7FDB095EB
:103620000E94BA85A70196010E944E8672947694F4
:10363000769443E07422872D90E08130910519F053
:10364000029729F403C0C20FD31F01C0E901F5019D
:10365000EE0FFF1FE355F94FD183C0830F5F1F4F5C
:103660000730110509F026CF622D8DEA96E00E9401
:10367000702900919A0B08706090B80EB1E06B222F
:1036800020E034E08091B1069091B206281B390BFE
:103690006901EE24D7FCE094FE2C7090570A55EA9D
:1036A000452E56E0552E10E0812C68E0962EA12C78
:1036B000B12C622D812F0E942B15612F0E94F814CE
:1036C000EC011230F9F40023E9F0662019F0D195ED
:1036D000C195D1099E01442737FD4095542F2358A9
:1036E0003F4F4F4F5F4FC701B6010E94E885A501CC
:1036F00094010E944E862115E8E03E0741055105E0
:1037000021F402C0711016C09E01220F331FD20196
:103710002D933D932D011F5F143059F60EC0F50116
:10372000EE0FFF1FE455F14F7080872D807C09F06C
:103730005ECF8DCFC0E0D0E0E7CF832DDF91CF917A
:103740001F910F91FF90EF90DF90CF90BF90AF90BF
:103750009F908F907F906F905F904F903F902F90B1
:1037600008952F923F924F925F926F927F928F9225
:103770009F92AF92BF92CF92DF92EF92FF920F9300
:103780001F93CF93DF93CDB7DEB7AD970FB6F89405
:10379000DEBF0FBECDBF1C01DC018C91E82FFF27DF
:1037A000E7FDF095FBA3EAA311968C911197E82E03
:1037B000FF24E7FCF094FDA2ECA212968C911297E4
:1037C000082F112707FD10951FA30EA313966C90C9
:1037D000139714968C911497992787FD90951596B9
:1037E0007C906CE070E00E9418867C010F2D001F19
:1037F0000027001F10E0272D332727FD3095432F8A
:10380000532F2A8B3B8B4C8B5D8BAB01401B510B99
:10381000662757FD6095762F8A899B89AC89BD897B
:10382000840F951FA61FB71F8A8B9B8BAC8BBD8BFC
:10383000BC01CD010E94D6182CE0209FF001219FF1
:10384000F00D1124EE0DFF1D2DE0DC012A9FC001BB
:103850002B9F900D1124E80FF91FEE0FFF1FE55F5E
:10386000FD4F8081918101977C010027F7FC009535
:10387000102F862D992787FD9095A92FB92FE80E37
:10388000F91E0A1F1B1FEE8AFF8A088F198F0091ED
:1038900084061091850620918606309187060A8F4E
:1038A0001B8F2C8F3D8F8A8D9B8D919581959109D2
:1038B0009F938F931F921F921F921F92812C912C86
:1038C000B6E4AB2EB12CCAA0DBA0ECA0FDA00EA1EB
:1038D0001FA12E893F89488D598D6A897B898C89E2
:1038E0009D890E9432170F900F900F900F900F90AC
:1038F0000F906E877F87888B998B272D332727FD25
:1039000030953595279523523109772467FC7094BB
:10391000672C770C770865946594260D371DC801D0
:10392000990F880B990F982F881F280F391FC701EF
:10393000990F880B982F280F391FC601990F880BF4
:10394000982F280F391F8E859F85A889B9897AE11C
:10395000B595A795979587957A95D1F7821B930B87
:1039600097FF03C09195819591094697CCF14E85BB
:103970005F85688979894095509560957095DB01E0
:10398000CA01EAE1B595A79597958795EA95D1F78C
:10399000821B930B97FF03C09195819591094697E0
:1039A0002CF044244A94542C320114C1DB01CA0186
:1039B000EE84FF84088919898E199F09A00BB10B29
:1039C0000A8D1B8D2C8D3D8D080F191F2A1F3B1F43
:1039D0000A8F1B8F2C8F3D8F4E875F87688B798B6B
:1039E0002E853F85488959892A873B874C875D8783
:1039F00028A739A74AA75BA72E8F3F8F48A359A3B3
:103A0000A6E0B0E0BDA7ACA74EC0EE8CFF8C08A12D
:103A100019A14E145F046006710661F528A539A549
:103A20004AA55BA5E216F3060407150719F1B801CC
:103A3000A7018A8D9B8DAC8DBD8D480F591F6A1FC4
:103A40007B1FEE84FF84088919894E195F09600B7A
:103A5000710B40938406509385066093860670939D
:103A6000870689E0FE013196D10101900D928A9579
:103A7000E1F7B0C00CA51DA5015011091DA70CA7A9
:103A8000012B09F48ECF6A877B878C879D8728A5B9
:103A900039A54AA55BA52E8F3F8F48A359A348A6F9
:103AA00059A66AA67BA6BE016F5F7F4FCE010A961C
:103AB0000E942C6E8C01009709F069C08A849B8457
:103AC000AC84BD8481149104A104B104A1F55FC04C
:103AD000B7FE0FC026013701481859086A087B084D
:103AE0007594679457944794480C591C6A1C7B1C26
:103AF0000EC0240135014C185D086E087F087594CE
:103B00006794579447944C0C5D1C6E1C7F1C4A862E
:103B10005B866C867D86BE016F5F7F4FCE010A9605
:103B20000E942C6E009721F073016201240135017F
:103B30005301420105C080E090E0C12CD12C7601F8
:103B4000B7FE04C04FEF5FEFBA0104C041E050E0A0
:103B500060E070E04C0D5D1D6E1D7F1D84169506A6
:103B6000A606B70609F0B4CF009781F4C114D104BA
:103B7000E104F10461F0CA86DB86EC86FD86BE01B5
:103B80006F5F7F4FCE010A960E942C6E8C014A8493
:103B90005B846C847D841F930F9353014201CAA000
:103BA000DBA0ECA0FDA00EA11FA12E893F89488DAE
:103BB000598D6A897B898C899D890E9447180F904D
:103BC0000F90461657066806790609F01ECFB30116
:103BD000A2012FCFB201C301AD960FB6F894DEBF9C
:103BE0000FBECDBFDF91CF911F910F91FF90EF904E
:103BF000DF90CF90BF90AF909F908F907F906F900D
:103C00005F904F903F902F900895FF920F931F93D6
:103C1000CF93DF93F62E10917A0F882309F44AC0D0
:103C2000812F0E945D14EC01012FFF2011F0015043
:103C300001C00F5F188107FF09C0812F8C7009F444
:103C40006FC0812F869586958D5F0BC00E3071F405
:103C5000812F8C708C3009F463C0812F86958695F6
:103C60008F5F8370880F880F137F4FC0802F0E9453
:103C70005D14BC01FC01808118271C7011F4837055
:103C8000B9F49881892F869586958370FF2029F055
:103C9000882309F445C08D5F04C0833009F440C017
:103CA0008F5F8370880F880F937F982B98832FC026
:103CB00044E030C0812F0E945514EC01012FFF20F9
:103CC00011F0015001C00F5F188107FF03C0812F61
:103CD0008F7012C0003219F4812F8F7011C0802FA5
:103CE0000E945514BC01FC01808181278F7089F0EE
:103CF000812F8F70FF2021F0882391F0815F03C016
:103D00008F3071F08F5F8F70107F182B1883C1E098
:103D100009C049E0CE010E942A1200937A0FF7CF22
:103D2000C0E003C082E00E9420128C2FDF91CF916F
:103D30001F910F91FF900895682F86EF9AE00E94DF
:103D4000CC111092FC0A1092FB0A08951F93CF9396
:103D5000DF931F921F92CDB7DEB7182F81E14A8300
:103D600069830E949C1E1092D20869816295607FCF
:103D70006093D3081093F60A4A814093DA080F90B3
:103D80000F90DF91CF911F910895CF92DF92EF9224
:103D9000FF920F931F93CF93DF937C016B01C0E0E1
:103DA000D0E08091FC0A90E086010C1B1D0B80176F
:103DB000910708F48C0197012C0F3D1FA80160E0CA
:103DC00070E0C9010E948686C00FD11F8091FC0A55
:103DD000801B8093FC0A81113FC08091FB0A90E018
:103DE000A6014C1B5D0B8417950708F4AC01B701C5
:103DF0006C0F7D1F86EF9AE00E94E462C80FD11D10
:103E00009091FB0A981B9093FB0A911125C041E009
:103E100050E06BEF7AE086EF9AE00E94E462813036
:103E2000D9F48091FB0A87FF0FC0282F30E0E4E02F
:103E300035952795EA95E1F7277033272093FC0AFB
:103E40008F708093FB0AADCF86FFABCF8F738093CB
:103E5000FC0A1092FB0AA5CFCE01DF91CF911F91F2
:103E60000F91FF90EF90DF90CF9008959AE0EFEDE3
:103E7000F8E0DF011D929A95E9F7803118F020E013
:103E800030E019C08F5F0E949C1E6AE070E08FEDE9
:103E900098E00E94C51E0A9791F78091F60A90E07B
:103EA000FC01EE0FFF1FE80FF91FE156F74F2081CD
:103EB0008181382F3F70C901089580E00E949C1EC7
:103EC00061E070E082E79EE00E94C51E019709F064
:103ED00015C08091720E8D3C89F412C08191919130
:103EE000280F391F8EE0EB38F807C1F781E04091C9
:103EF0009D0E50919E0E4217530799F080E0089551
:103F000080E00E949C1E6FE470E082E79EE00E94C9
:103F1000C51E8035910590F7E3E7FEE020E030E034
:103F2000DDCF0895FF920F931F93CF93DF93FA0194
:103F30000491DA0112963196449150E0495F5F4F47
:103F4000C3E055954795CA95E1F7F42E209F90015F
:103F50001124249FF001259FF00D349FF00D1124B2
:103F6000AE0FBF1F66956695669590E0F0E86F9F6F
:103F7000800D911D112440E050E010E0602F70E0B2
:103F800015C0EA01C80FD91FCC57DD4F9D0105C0F0
:103F9000F9012F5F3F4FE491E993E22FEA1BE0170D
:103FA000B8F3A60FB71F1F5F40585F4F1F1548F3A8
:103FB000DF91CF911F910F91FF900895BF92CF9203
:103FC000DF92EF92FF920F931F93CF93DF93809135
:103FD000B80E84FD72C060E08091A30E0E94432958
:103FE00081115CC08091BA0E811158C059C00E94E5
:103FF000E26120E04CE25CE060E080E00E94921F21
:104000000E94AC2B8091A00E0E94E32B0E94262BD5
:10401000C0E20E941C0FC150E1F7D12CC0E0D0E0FB
:104020008D2D0E94D513092F10E0C00FD11FD394FE
:1040300084E0D812F5CFF894C0904F0AD090500A7F
:10404000789480E7C81A8EEFD80A1EC00E941C0F11
:10405000B12C00E010E08B2D0E94D513E92EF12C3D
:104060000E0D1F1DB39484E0B812F5CF80910901A5
:1040700080958F7311F50C171D07F9F413C080910B
:10408000BA0E811116C017C0F89480914F0A909112
:10409000500A7894C816D906C9F60FC0409AA7CF1F
:1040A0004098A5CF60E08091A30E0E944329882309
:1040B00031F3409AE9CF4098E7CFDF91CF911F913C
:1040C0000F91FF90EF90DF90CF90BF900895EF9207
:1040D0000F93CF93DF938091050218160CF052C016
:1040E00040E866E380E00E945C696DED7AE189E377
:1040F0000E94C9154091820202E020E150E069E38C
:1041000088E10E946369E12C0FEF27E046E269E352
:1041100089E10E944B108091820229E0829FC001B8
:104120001124C9E1D0E0BE010E941886462F25E087
:104130006AE38AE10E94101041EE5AE169E389E6E0
:104140000E94CF154091800202E020E150E069E337
:1041500080E80E9463690FEF27E046E269E381E4AB
:104160000E944B108091800229E0829FC00111249F
:10417000BE010E941886962F25E0462F6AE386E648
:10418000891B0CC041E751E169E38AE20E94CF1527
:10419000E12C0FEF28E040E868E380E00E94101077
:1041A000DF91CF910F91EF9008950F931F93CF93CD
:1041B000DF93C62F122FD02F202F2F7E0E94C215E3
:1041C000202F206802E0412F50E06C2F8091750F66
:1041D0000E946369D7FF0AC04AE36C2F8091750F74
:1041E000DF91CF911F910F910C94C911DF91CF9165
:1041F0001F910F9108950F931F93CF93DF93D82FA3
:10420000162FC42F022F47FF07C041E286500E949D
:10421000E91086E08C1BC82F2C2FC7303CF44DEBE7
:1042200052E1612F8D2F0E94F41507C0265042E302
:1042300050E1612F8D2F0E94D520DF91CF911F91EA
:104240000F9108950F931F93CF93DF93D82F162FBD
:10425000C42F022F411106C020E04DEE51E10E9413
:10426000F41510C047FF06C02EE548E082500E94BA
:10427000620FC1952C2F215044E350E1612F8D2F07
:104280000E94D520DF91CF911F910F9108950F9338
:10429000FA013A969AE03291332381F00CC0006122
:1042A0002F5F47E350E10E94D5200BC000622AE057
:1042B0000E946F1506C09111F9CFF1CF915079F39B
:1042C000EACF0F9108950F93022F411104C020E00F
:1042D0004DEE51E11EC0242F4D3020F4215044E713
:1042E00055E117C0453120F42C504EE350E10BC08E
:1042F000453220F4245142E450E105C0473230F405
:10430000245245E450E10E94D52005C027524BE9D4
:1043100054E10E94F4150F9108954A3008F406C044
:104320004F3118F449500C94021645510C946321F6
:10433000942F9150903118F44C5E0C9463210895A1
:10434000DF92EF92FF920F931F93CF93DF93D82EBC
:10435000F62EEA01122FE02E57FF10C022FF02C0F6
:1043600087E001C085E0212F4DE26F2D9D2D981B28
:10437000892F0E94E910D195C195D109212F20697B
:10438000CE016CE370E00E941886AB01EC0102E004
:104390006F2D8D2D0E9463692E2D212312FB112775
:1043A00010F98091750F4AE36F2D811B0E94E9106F
:1043B0002E2D20698091750FAE016F2D8A5F0E94AE
:1043C0006369DF91CF911F910F91FF90EF90DF9084
:1043D0000895E1ECF0E08081806280830895DC0143
:1043E000ED91FC9111976E3729F48EE580838DE76E
:1043F000818305C06D3729F48DE580836183329612
:1044000001C06193ED93FC93089580939A060895FB
:1044100070930C0A60930B0A90930A0A8093090A1E
:104420004F5F4093090BFB9A8091DA08811102C01B
:104430000895A8958091090B1816DCF30895CF9381
:10444000DF931F92CDB7DEB770E090E1899F600DDA
:10445000711D112441E050E0CE0101960E94968624
:1044600089810F90DF91CF91089560E00C941F2215
:104470008830C0F425E0829FC00111248657944FF4
:1044800020E030E0FB01E20FF31FE491DC01A20F1A
:10449000B31FA454BE4FEC932F5F3F4F253031051F
:1044A00089F7089529E0829FC00111248657944F0F
:1044B00020E030E0FB01E20FF31FE491DC01A20FEA
:1044C000B31FA456BE4FEC932F5F3F4F29303105E9
:1044D00089F70895FC0160838281882311F0861793
:1044E00008F462838181882311F0681708F46183DE
:1044F0000895FC01208187E0289F900111242C5F02
:104500003F4F260F311D83E0369527958A95E1F7B9
:1045100020838181882311F0681708F4618308954E
:10452000282F30E046E0849FC0011124FC01EE5AA0
:10453000F14F6081462F4F7050E0762F7370B9F0C5
:10454000F901EE0FFF1F8657944FE20FF31FEE5550
:10455000F84FDC01AA53BD4F64FD05C060818C910A
:10456000681728F434C060818C91861780F1CA01E5
:104570009595879595958795892B39F186E0829F4A
:10458000A001839F500D1124FA01EE5AF14F808152
:104590008295837090E095958795B901660F771F96
:1045A0004657544FDB01A20FB31FAE55B84FFA0167
:1045B000E953FD4F892B29F09C918081891728F4BC
:1045C00006C09C918081981710F080E0089581E0EA
:1045D00008951F93CF93DF931F921F92CDB7DEB73D
:1045E0008091040A811199C08EE78093F809109296
:1045F000F9091092FA091092FB091092FC09109225
:10460000FD0990910F0A915090930F0A192F117084
:1046100081E018273091B50E943008F047C0969588
:10462000891B38713031A9F096E0899FF00111247F
:10463000EE5AF14F90819F70292F30E0412F50E0CA
:10464000440F551F02C0359527954A95E2F7237010
:1046500001C020E02093FE0996E0899F900111247B
:10466000F901EE5AF14F80818295837090E0012E1E
:1046700002C0959587950A94E2F7817099278093F7
:10468000FF0980E09AE09A838983C9018657944F95
:10469000810F911DFC01EA53FD4F6081CE0101960F
:1046A0000E94EF2180910F0A875026C03871303167
:1046B00061F0812F90E09C012E5F3F4FFC01ED598E
:1046C000F14F8081820F837001C080E08093FE09EA
:1046D0001092FF0980E09AE09A838983E12FF0E04D
:1046E000ED59F14F6081659565956E5CCE0101963F
:1046F0000E94EF2187EF811BE981FA818193FA8380
:10470000E983E981FA818EE78193FA83E983E85F9F
:10471000F940E093040A0E94E9210F900F90DF9185
:10472000CF911F91089590910E0A923318F48093BF
:10473000CF0702C08093D0078CE380930E0A0895C0
:104740003F924F925F926F927F928F929F92AF9221
:10475000BF92CF92DF92EF92FF920F931F93CF936E
:10476000DF938E3519F481E090E03CC020918E06F5
:1047700030918F062115310509F4B9C227FF08C011
:1047800090E689272058310930938F0620938E06B2
:1047900020918E0630918F068D3531F4206830934C
:1047A0008F0620938E06A3C221303105A1F48A33EF
:1047B00018F08C3318F48151880F01C08FEF80936B
:1047C000900622E030E030938F0620938E068F3FD4
:1047D00009F08DC288C22230310549F480939106D8
:1047E00083E090E090938F0680938E0680C2909134
:1047F0009006963289F4209191064091FD0721118F
:1048000015C0811113C0242F2670223051F520913C
:10481000D5073091D60715C09432D1F42091910676
:104820004091FD07211102C0882319F0497F4260A1
:104830000CC0242F26702230A1F42091D307309190
:10484000D4072230310568F0497F4093FD0709C045
:10485000923039F42091FD072670223009F043C2CE
:1048600008C0292F2251253320F4903211F09234C0
:1048700089F7292F332727FD3095F901E155F84FA6
:10488000409191064083F901E055F84F80839032C2
:1048900099F48091AF079091B007892B09F023C25A
:1048A0008091CF079091D007919581959109909330
:1048B000B0078093AF0717C2923109F0C5C140908D
:1048C000E9075090EA076090EB077090EC074114FD
:1048D00051046104710409F0D7C08091ED079091F3
:1048E000EE07A091EF07B091F007892B8A2B8B2B55
:1048F00009F0CAC08091D5079091D60724E6E22E30
:10490000F12CB7010E9404865B01FC0100E117E273
:10491000809FA001819F500D909F500D1124809188
:10492000E5079091E607480F591F35E0932E949EB6
:10493000C001959E900D1124C3E0D0E0BE010E94FD
:1049400004866B01D50120E432E44FE050E00E9480
:10495000D5856C0D7D1D811D911D6093E9077093B8
:10496000EA078093EB079093EC078091D30790912F
:10497000D407B7010E9404869B01809FA001819FFC
:10498000500D909F500D11248091E3079091E40702
:10499000480F591F949EC001959E900D1124BE0191
:1049A0000E940486EB01D90120E432E44FE050E09C
:1049B0000E94D5856C0F7D1F811D911D6093ED07B1
:1049C0007093EE078093EF079093F0079F01A5E0A7
:1049D000B0E00E94C28523E030E040E050E00E9459
:1049E0002C8669017A019501A4E6B0E00E94C28597
:1049F000C60ED71EE81EF91EA7019601C701B60113
:104A00000E94E88520E137E240E050E00E942C86D9
:104A100049015A01CA01B9010E94E88529E130E043
:104A200040E050E00E942C8669017A0120E8C20E25
:104A300026E9D21E28E9E21EF11CA50194016AEEC6
:104A400071EE81E090E00E94E88521E530E040E0F1
:104A500050E00E942C86C21AD30AE40AF50AC70164
:104A6000B60124ED30E340E050E00E942C86ABE834
:104A7000B0E00E94D5856093BD077093BE07809318
:104A8000BF079093C0072FC18091FD0780FD08C02C
:104A90008091C10E9091C20E865B9F4309F023C1A5
:104AA0008091D5079091D60704E610E0B8010E94E6
:104AB00004866B01C0E1D7E28C9F90018D9F300D81
:104AC0009C9F300D11248091E5079091E607280FF7
:104AD000391F85E0382E329EC001339E900D11247F
:104AE000E3E0F0E0BF010E9404867B01D60120E4F0
:104AF00032E44FE050E00E94D5854B015C018E0C02
:104B00009F1CA11CB11C8091D3079091D407B801C0
:104B10000E9404868B018C9F90018D9F300D9C9F7D
:104B2000300D11248091E3079091E407280F391F7D
:104B3000329EC001339E900D1124BF010E94048655
:104B4000FB01D80120E432E44FE050E00E94D5851B
:104B50006B017C01CE0EDF1EE11CF11C48145904D0
:104B60006A047B0438F4A501940124193509460927
:104B7000570906C0A3019201281939094A095B099E
:104B80006AE572EB81E090E00E94E88520E432E47F
:104B90004FE050E00E942C86CA01B9010E94E885CE
:104BA0002B013C018091ED079091EE07A091EF075A
:104BB000B091F0078C159D05AE05BF0538F4A7012F
:104BC0009601281B390B4A0B5B0B06C09C01AD01FB
:104BD0002C193D094E095F096091BD077091BE0710
:104BE0008091BF079091C0070E94E88520E432E4DD
:104BF0004FE050E00E942C8649015A01A091AF0776
:104C0000B091B0078091CF079091D007A80FB91F3E
:104C10009D010E94C2856B017C01C40CD51CE61C61
:104C2000F71CA5019401C501B4010E94E885C60ED8
:104C3000D71EE81EF91EC701B6010E9423139093E8
:104C40000608809305084FC0923289F48091D107FD
:104C50009091D2072091070830910808281739074A
:104C600008F041C090930808809307083CC09C302E
:104C7000D1F54091BB075091BC079A01207F3327A3
:104C800014E0369527951A95E1F72C3060F5609180
:104C9000FD07862F82958F7090E0281739074CF01A
:104CA000922F9F5F9295907F862F8F70892B809394
:104CB000FD07CA018F709927982F8827452F552700
:104CC000840F951F6AE070E00E940486862FF90128
:104CD000E155F84F648B9091FE07992311F0691705
:104CE00010F48093FE0710928F0610928E06DF91CB
:104CF000CF911F910F91FF90EF90DF90CF90BF90D9
:104D0000AF909F908F907F906F905F904F903F906B
:104D1000089580918D06882329F080918D06815019
:104D200080938D0680918C06882329F080918C06D3
:104D3000815080938C0680910102897F80930102CB
:104D400008958F7090E0FC01EE0FFF1FE80FF91F30
:104D5000E05FF54F83E6828380818F7C80830895B6
:104D6000CF93C82F2091E1093091E209232B89F0DC
:104D70000E94D21540E550E168E280E10E94CF1523
:104D8000C13639F481E60E94A1261092E209109200
:104D9000E109CF9108950F93CF93C82F1092E409A2
:104DA0000E94D2154091DD085091DE084115510551
:104DB00039F000E22091DC0860E280E10E946F158A
:104DC00049E450E168E280E10E94CF15C03619F055
:104DD000C13659F403C081E08093E4098C2F0E940E
:104DE000A1261092E2091092E109CF910F91089546
:104DF0008F7090E0FC01EE0FFF1FE80FF91FE05FDE
:104E0000F54F82E68283118208958031910574F412
:104E1000FC01EE0FFF1FE80FF91FE05FF54F9081D7
:104E20009F7081E09F3009F446C044C084319105F1
:104E300049F17CF481319105E9F024F48031910548
:104E4000A9F52EC08231910579F08331910571F574
:104E500014C08631910559F0DCF087319105F1F0ED
:104E60008831910519F51FC096B1907420C096B194
:104E700090781DC092B391701AC092B393FB99279A
:104E800090F909C0939B12C093B1929591700FC095
:104E900093B19295917081E0982709C092B304C0B4
:104EA00092B3947004C093B1907201C090E081E01D
:104EB000911101C080E00895873038F4E82FF0E0C8
:104EC000EE0FFF1FE951F54F40C0873009F492C043
:104ED000883081F483E190E00E940527811187C02A
:104EE00084E190E00E940527882309F483C020E034
:104EF00030E082C08C30D8F3803190F4E82FF0E0BD
:104F0000DF01AA0FBB1FA053B64FEE0FFF1FE457E0
:104F1000F14F2D913C9180819181281B390B0AC062
:104F2000843158F4E82FF0E0EE0FFF1FE053F64F06
:104F300020813181220F331F5FC0843248F4E82F73
:104F4000F0E0EE0FFF1FEE5FF44F2081318154C07F
:104F5000863238F4E82FF0E0EE0FFF1FEB5EF54FDE
:104F6000F4CF883258F490E08697FC01EE0FFF1FD3
:104F7000E80FF91FEE55F84F208137C0883259F4F9
:104F80002091AF073091B0078091CF079091D00763
:104F9000280F391F31C0893239F42091B50730917B
:104FA000B6073695279528C08A3229F42091B7078D
:104FB0003091B80721C08B3229F42091B30730918A
:104FC000B4071AC08C3229F42091B9073091BA077E
:104FD00013C08D3229F42091E1073091E2070CC013
:104FE0008E3209F084CF2091FE0730E005C020E02A
:104FF0003CEF02C020E034E0C9010895EF92FF9237
:105000000F931F93CF93DF93F82E811109C08091E6
:105010008A0690918B06892F881F8827881F2CC1AC
:10502000282F332727FD309537FF03C03195219571
:105030003109822F263109F4FCC02A3030F4C9012D
:1050400099270F960E940527F5C08A50282F30E037
:10505000E901CC0FDD1FC20FD31FCA54D24F9A8172
:10506000992309F4ECC09A81953008F4EAC09A813A
:10507000983008F4F0C0E2E0EE2EE4C020918806FB
:10508000309189062023312381E0232B21F52EC086
:1050900020918A0630918B06202B312B30938B0682
:1050A00020938A0688810E94FE27E82E89810E942B
:1050B000FE279A81953019F0963049F403C0EE200E
:1050C000A9F002C0E11006C0811104C00FC08E25F6
:1050D00069F001C081E02091880630918906202B7B
:1050E000312B3093890620938806A4C080918806CE
:1050F000909189060095109508231923109389062D
:105100000093880694C0888189324CF0E8818981B7
:10511000FF27E7FDF095E158F84F8058808388819C
:105120008B320CF01CC088818A3244F0298189E1DD
:105130002802900111242058334F35C088818932CC
:105140005CF02981332727FD309520583F4F220FEF
:10515000331F220F331F27C0888187323CF02981FB
:10516000332727FD309520583F4F1DC08881853259
:105170003CF02981332727FD30952E593F4F13C02E
:10518000898199E2890290011124359527953595F9
:10519000279587FD815C86FB880F880B80F9281B8B
:1051A000310987FD33958A81823099F1833019F076
:1051B000813039F42AC017FF27C0119501951109D4
:1051C00023C017FF26C011950195110922C08981BE
:1051D00081500E945C279C018A81893081F018F4FB
:1051E000883009F507C08A3079F08B3091F08C3027
:1051F000D1F414C081E002171307E1F018C081E078
:1052000002171307B9F413C081E02017310794F097
:105210000EC081E0021713076CF009C081E002178D
:10522000130744F404C081E0201731071CF480E028
:1052300001C081E01F1404F191E089271DC080E0C6
:105240001BC0E12C888181500E945C278C01EE20DC
:1052500009F459CFBCCF01E010E002C0000F111FCC
:105260008A95E2F720918A0630918B06202331231C
:10527000232B09F003CF0CCFDF91CF911F910F911A
:10528000FF90EF900895362F37953327379520E01C
:1052900030938B0620938A060C94FE270F931F935E
:1052A000CF93DF93C1E0D0E00DE01C2F0C9FF00105
:1052B0000D9FF00D1124E35FF14F8581882329F0C4
:1052C00060E00E944329811105C02196C530D105B7
:1052D00061F710E0812FDF91CF911F910F91089519
:1052E0006F927F928F929F92AF92BF92CF92DF92F6
:1052F000EF92FF920F931F93CF93DF935C01862F62
:1053000098E0F501A2E9B6E001900D929A95E1F7D7
:105310006F3F11F40E944E2900E010E066246A9469
:1053200024E6C22ED12CE12CF12C882E912C8FEF6B
:10533000881A980AE801CC0FDD1FCC0FDD1FC25F71
:10534000D24F2881822F837009F469C02695269553
:10535000237030E0862D992787FD9095281739070F
:1053600009F457C08981982F907E59F09A8190FD59
:1053700008C082958695877090E08816990609F096
:1053800048C08981880F880F880F61E085958595D1
:1053900085950E9443298823E1F12881722E769415
:1053A000769483E07822A72DB0E0AA0FBB1FAE56FB
:1053B000B94F8D919C9197FF03C020FD03C029C078
:1053C00021FF27C0672C6B81772767FD70950E94AE
:1053D000E3136881262F207F51F062956F70262F8E
:1053E00030E02B3031050CF06C5F0E9410142A81E4
:1053F000269530E0DC010E94CE85A70196010E942F
:105400004E86F50182E0789EE00DF11D1124208387
:1054100031830F5F1F4F0E30110509F08BCFDF91E5
:10542000CF911F910F91FF90EF90DF90CF90BF90A1
:10543000AF909F908F907F906F900895CF92DF9262
:10544000EF92FF920F931F93CF93DF93CDB7DEB709
:1054500028970FB6F894DEBF0FBECDBF6C018091C8
:105460007A0F0E945D147C018E010F5F1F4F88E050
:10547000F80111928A95E9F7F70180818695869562
:105480008370F80192E0899FE00DF11D1124D18213
:10549000C0826FEFC8010E947029F7018081869554
:1054A00086958370F80192E0899FE00DF11D11242B
:1054B0008081918128960FB6F894DEBF0FBECDBFD4
:1054C000DF91CF911F910F91FF90EF90DF90CF90E0
:1054D00008950F931F93CF93DF931F92CDB7DEB73D
:1054E0008C01FC018081982F9F70990F807F611142
:1054F00003C09F70982B04C091609F70982BF80197
:105500009083F80181818F5F818392819923C9F013
:1055100080818F70B1F4933689F0842F8062498343
:105520000E940522F80182814981803119F481812C
:10553000803120F0F80180818F7C8083F801118216
:105540001282F8012281283009F451C058F4213028
:1055500009F456C0A0F0223009F449C0243009F003
:105560006AC045C02F35A9F120F4203109F063C08D
:105570003EC02136A1F0223609F05DC055C0F801C9
:105580008081982F9F709F3009F055C091E69283DB
:105590009181913110F08F7C8083F8014BC0842F72
:1055A00080660E9405221092580A1092590A1092A1
:1055B0005A0A10925B0AF8019081892F82958F70A8
:1055C0008F5F83708295807F9F7C982B90838FE57F
:1055D00030C0F8018181883121F4842F80680E94D5
:1055E0000522F8018181883231F580E122C0F8017D
:1055F0008181803328F030E0359527952283118210
:10560000F801228130E021503109618170E02623C8
:105610003723232B81F4842F80640F90DF91CF9167
:105620001F910F910C940522F8018181803418F0AC
:1056300088E0828311820F90DF91CF911F910F91AB
:105640000895EAE9F6E080811082089580910901C9
:1056500080958F73D9F70C94052240E450E060E008
:1056600070E08AE998E00C940822FA0170E090E179
:10567000899F600D711D11246F5F7F4F422F50E095
:10568000CF010C94082241E050E062E070E08CE928
:1056900098E00C94082260939B0690E1899FB001EA
:1056A000112441E050E08BE996E00C94082293E04D
:1056B000899FB00111246C5F7F4F282F30E0C90112
:1056C000880F991F820F931F43E050E08256974F37
:1056D0000C940822CF92DF92EF920F931F93CF93F7
:1056E000DF931F92CDB7DEB7282F30E0D901AA0F84
:1056F000BB1FA20FB31FA656B74F14968D919D9155
:10570000AC911697C62ED12CF601EE0FFF1FEC0DB3
:10571000FD1DE656F74FC480D580E6801496CD92E5
:10572000DD92EC922483358346830AED18E091E004
:10573000F801908369830E94572B6981862F0E940C
:10574000572BF80110820F90DF91CF911F910F918D
:10575000EF90DF90CF9008951F93CF93DF9310E0E9
:10576000C4E8D2E084E00E94590F80E10E94590F02
:10577000812F806B0E94590F4198439A4498CE0123
:1057800080589F4FFE01219122B9459A4598E8170C
:10579000F907C9F7C058DF4F439A419A1F5F183085
:1057A00009F7DF91CF911F910895CF93DF93C1EE59
:1057B000D9E0998388830E94D21519821882DF91DB
:1057C000CF910C94AC2BCF93C82F81E80E94590F36
:1057D0008C2FCF910C94590F4F925F926F927F92C2
:1057E0008F929F92AF92BF92CF92DF92EF92FF92F1
:1057F0000F931F93CF93DF931F92CDB7DEB7B82ED1
:10580000A090B40E1A2D1F7020E8821771F128178E
:1058100098F035E2381740F084E2B81698F592E235
:10582000B91608F4B3C042C0EEE28E1709F4AAC05C
:10583000F1E68F13ABC05CC024E8821749F128174A
:1058400040F032E8831709F44DC0381708F444C01B
:105850006BC08EE8B81609F47AC09FEBB91609F44C
:1058600069C0E5E8BE1292C01BC0E091560AF0E0A4
:10587000EE0FFF1FED53F14F808191810E946A5618
:1058800080E80BC0123009F081C080E18A251EC07B
:1058900084E996E40E946A5684E80E94A12676C0B4
:1058A0008CE793E60E946A5685E8F7CFF3E2BF12D1
:1058B00005C0133041F0812F8F5F08C0112329F0FC
:1058C000812F815003C080E001C083E08093B40E3B
:1058D00081E00E9420122AC08FEF93E40E94A33F30
:1058E00083E8DBCF86EB9FE30E94A33F82E8D5CF1E
:1058F0008091650A823021F483E08093650A16C0A6
:105900008091E1099091E209892B29F01092E20936
:105910001092E1090BC023E0A21202C081E001C095
:1059200080E00E944B1302C00E943F6183E00E940E
:10593000A03F2CC081E00E94A12683E00E94A12606
:1059400082E00E94A12681E08093BC061FC08EE801
:105950000E94A1268091780F9091790F892B91F068
:105960008091E1099091E209892B61F48091BA0656
:105970009091BB069093E2098093E10981E08093C6
:10598000E60904C01092E2091092E1092091510A3F
:105990003091520A75E0369527957A95E1F7FF2404
:1059A000F394F2228091BC0681114AC0FF2009F4D1
:1059B00047C00E944E29E82E812C912C00E0DD2466
:1059C000D394023089F16E2D802F0E942B15C82EA2
:1059D000D092B5068E2D0E94381A1092B506D401C9
:1059E000A355B94FF401EB55F94F4D915C910190DE
:1059F000F081E02D4E0F5F1F57FF02C04F5F5F4FDA
:105A0000559547954C303EEF53072CF0453F81E0CC
:105A1000580724F405C04CE05EEF02C044EF51E0AB
:105A2000602F8C2D0E94AD140F5F92E0890E911CA7
:105A3000043039F682E00E94201289E00E94A03FE3
:105A4000F092BC060E944E29F82EEDE08E9FA00138
:105A500011244D5E514F00E226E060E186E20E9493
:105A60006F152091A10E30E040915C0A50915D0AC3
:105A70004217530710F495E001C094E004E0209130
:105A80009F0E4AE85BE060E08AE099830E9447212C
:105A90009981492F486060E183E20E94A46B46E54A
:105AA00068E184E20E94C9118091940B8823F9F087
:105AB0008091650A823011F425E001C024E0409114
:105AC0005F0A5091600A022F60E18BE40E94A021DE
:105AD0004091940B20915F0A3091600A37FD02C01B
